:020000040800F2
:10000000FCFF0020D5040008250500082505000890
:10001000250500082505000825050008000000004A
:10002000000000000000000000000000250500089E
:100030002505000800000000250500083D2E0008E9
:1000400025050008250500082505000825050008E8
:1000500025050008250500082505000825050008D8
:1000600025050008250500082505000825050008C8
:1000700025050008250500082505000825050008B8
:1000800025050008250500082505000800000000DA
:10009000000000000000000000000000250500082E
:1000A0002505000825050008250500082505000888
:1000B0002505000825050008250500082505000878
:1000C0002505000825050008250500082505000868
:1000D000250500082505000825050008000000008A
:1000E000250500082505000825050008000000007A
:1000F00000000000000000000000000025050008CE
:100100000000000025050008250500082505000859
:1001100000000000000000000000000000000000DF
:100120002505000825050008250500082505000807
:10013000250500080000000000000000000000008D
:100140000000000000000000000000008D2E0008EC
:1001500025050008250500082505000825050008D7
:10016000250500082505000800000000000000002B
:10017000000000000000000000000000000000007F
:10018000000000002505000800000000000000003D
:08019000250500082505000803
:10019800034613F8012B002AFBD1181A01387047BF
:1001A80053B94AB9002908BF00281CBF4FF0FF31D6
:1001B8004FF0FF3000F088B9ADF1080C6DE904CEBE
:1001C80000F006F8DDF804E0DDE9022304B070472A
:1001D8002DE9F047089D0F4604468C46002B48D170
:1001E8008A42164661D9B2FA82F34BB1C3F12002B2
:1001F80001FA03FC20FA02F29E4042EA0C0C9C40F1
:100208004FEA164EB7B2BCFBFEF1220C0EFB11CC26
:1002180042EA0C4201FB07F0904209D9B21801F1F9
:10022800FF3C80F0EE80904240F2EB80023932448D
:10023800121AA4B2B2FBFEF00EFB102244EA0244EA
:1002480000FB07F7A74209D9341900F1FF3280F003
:10025800DA80A74240F2D7803444023840EA0140AD
:10026800E41B00211DB1DC400023C5E90043BDE8C3
:10027800F0878B4206D90DB1C5E900010021084677
:10028800BDE8F087B3FA83F1002948D1BB4202D315
:10029800824200F20781841A67EB03020120944628
:1002A800002DE4D0C5E9004CE1E7002A00F0928077
:1002B800B2FA82F3002B40F0A8808A1A4FEA164E51
:1002C8001FFA86FC0121200CB2FBFEF70EFB172259
:1002D80040EA02420CFB07F0904207D9B21807F136
:1002E800FF3802D2904200F2E2804746121AA4B2C6
:1002F800B2FBFEF00EFB102244EA02440CFB00FCA9
:10030800A44507D9341900F1FF3202D2A44500F2FE
:10031800CB801046A4EB0C0440EA0740A2E7C1F1E9
:1003280020068B4022FA06FC4CEA030C07FA01F47B
:1003380020FA06F3F7404FEA1C49234300FA01F874
:100348001FFA8CFEB7FBF9F01C0C09FB107744EA86
:10035800074400FB0EF7A74202FA01F20AD91CEB88
:10036800040400F1FF3A80F09B80A74240F2988095
:1003780002386444E41B9FB2B4FBF9F309FB13444D
:1003880047EA044403FB0EFEA64509D91CEB040406
:1003980003F1FF3780F08280A6457FD9023B644491
:1003A80043EA0040A4EB0E04A0FB02E7BC427346FC
:1003B800B94663D360D05DB1B8EB030264EB0904BE
:1003C80004FA06F622FA01F31E43CC40C5E900649C
:1003D80000214CE76208480842EAC1710B0C43EA65
:1003E80000438AB242EA0342B3FBF6F1E407B4469B
:1003F8003746B6461F23B0FBF6F0D21B41EA004150
:1004080061E7614614E7104628E7C3F1200120FAA6
:1004180001F29E4027FA01F19F403A434FEA164EF7
:100428001FFA86FCB1FBFEF70EFB1710110C41EA10
:10043800004107FB0CF8884504FA03F43AD971180F
:1004480007F1FF3001D288451FD8A1EB0801B1FBA5
:10045800FEF808FB0CF70EFB181192B242EA0142B3
:10046800BA422FD2B21808F1FF31C6D2BA42C4D26A
:10047800A8F102013244C0E7F0459CD2BEEB02036A
:1004880067EB0C070138B94695E7A6EB0808414425
:10049800B81EB1FBFEF808FB0CF7DCE73B467FE72C
:1004A800504667E70846FBE63444023832E7023F25
:1004B80032441BE7A1EB08013846B1FBFEF808FB04
:1004C8000CF7C8E7414698E7704700BFDFF834D01B
:1004D800002103E00C4B5B58435004310B480C4B94
:1004E80042189A42F6D30B4A02E0002342F8043B32
:1004F800094B9A42F9D303F0B9F803F0C5F801F0B3
:1005080099FB7047FCFF00202438000800000020F9
:10051800D0020020D0020020C81D0020FEE70020E5
:1005280070470A4492B291424FEA400001D8824291
:1005380001DB121A92B21046704700004B6902495B
:100548000B610121184700BF7C1D00200B4B4FF4A5
:100558007A721B68B3FBF2F358430138B0F1807F1D
:100568000AD24FF0E023064A5861F02182F823109E
:1005780000229A6107221A61704700BF8802002092
:1005880000ED00E04FF0E022136923F0010313614E
:100598007047000070B52C4B2C4C0022DA6125689E
:1005A8002B4AD168CE0344D4D168C90744BF01217E
:1005B800D160D06810F4F9703AD0D168CE0605D56C
:1005C800D96941F01001D9611021D160204AD16860
:1005D8008D0605D5D96941F00801D9612021D1607E
:1005E800D1684C0605D5D96941F00401D96140218B
:1005F800D160174AD168080605D5D96941F00201CA
:10060800D9618021D160D168C90506D5D96941F081
:100618000101D9614FF48071D1600D49CA68920710
:1006280005D5DA6942F02002DA610223CB600120A5
:1006380070BD411CB5D021684CF25036491BB142FF
:10064800AFD90320F4E700BFC40300203C1C0020FE
:10065800003C0240F0B50001344DBDF814402D585F
:100668000E4661B93248334F00EB021037F81210CA
:1006780044898C4228BF0C46091B27F81210012A0E
:100688004FEA46104FEAC34328D105F51062111806
:1006980023430B61135843F004431350135803F4D6
:1006A8004023B3F5802F10D1214B03441B7F012B2E
:1006B8000BD1D5F80818135811F4807F0CBF4FF0F0
:1006C80000514FF080510B43135034B1D5F83438F2
:1006D8000121B1401943C5F83418F0BD05F5306261
:1006E8001618316901F06041316131690B432343C8
:1006F8003361135843F004431350135803F4402351
:10070800B3F5802FE9D10A4B03441B7B012BE4D1BD
:10071800D5F80818135811F4807F0CBF4FF000511A
:100728004FF080510B431350D7E700BFEC37000858
:10073800901C0020881C0020084B03EB001393F941
:100748000430002B08DB0122590903F01F0302FAC9
:1007580003F3034A42F82130704700BFEC37000822
:1007680000E100E00D4B1A7810B11046FFF7E4BF26
:100778000B4B03EB021393F90430002B0DDB5A09E2
:10078800012103F01F03994002F12003054A42F8B2
:100798002310BFF34F8FBFF36F8F7047CE02002037
:1007A800EC37000800E100E02B4B000130B51A5887
:1007B80001F07F00C9094FEA401325D002F5106106
:1007C800CD1810B1CC58002C0BDBCC5844F0026487
:1007D800CC50800140F02000106113699C06FCD4C5
:1007E80030BDCC5844F00064CC50AC686406FCD5ED
:1007F800CC5844F0804444F40014CC50AB689B07B8
:10080800FCD50223AB60E4E702F53061CC1810B1E7
:10081800C858002804DBCA5842F40012CA50DFE75F
:10082800D2F8040840F40070C2F8040850690006C1
:10083800FCD5C85840F0804040F40010C850A36868
:100848009B07FCD50223A360D2F8043843F48063E5
:10085800C2F80438C4E700BFEC3700082DE9F74FA9
:10086800504A514900234FF001084FF00F0E066817
:1008780008FA03F404EA0605B44340F08B80032425
:100888005E0004FA06FC446824F01004013C012CC4
:100898006FEA0C0C11D8946804EA0C09C468B440D7
:1008A80044EA09049460546824EA05094468C4F3D6
:1008B80000149C4044EA09045460D46804EA0C0912
:1008C8008468B44044EA0904D460446824F01004FD
:1008D800022C18D14FEAD3094FEA890909F1804956
:1008E80009F5003903F0070AD9F820404FEA8A0AC7
:1008F8000EFA0AFB24EA0B0B046904FA0AF444EA28
:100908000B04C9F82040146804EA0C0C446804F08D
:100918000304B44044EA0C0414604468E40039D584
:10092800224E00240194746C44F480447464746C02
:1009380004F480440194019C23F0030404F18044EE
:1009480004F59C3403F00306D4F808C0B6000EFA88
:1009580006F62CEA0606A66047680C68EE43FF0315
:100968004CBF2C4334400C6047684C68BF034CBFF5
:100978002C4334404C6047688C68FF024CBF2C43C2
:1009880034408C604768CC68BF0254BF06EA04054F
:100998002543CD600133102B7FF469AF03B0BDE868
:1009A800F08F00BF00000240003C014000380240C8
:1009B800034B43F602229A87002283F83E207047B1
:1009C800E413002010B50D4B044601461878FFF7D4
:1009D800EBFE0B4B04F07F0203EB420303EBD41056
:1009E80090F8203043F0020380F8203090F820304F
:1009F80043F0010380F8203010BD00BFCE02002074
:100A0800961D002010B4114B99689A6B83F82C003E
:100A1800022083F8300093F83C008A1A9A6220B9C1
:100A280042F205049C8783F83E0059B152B11A7B03
:100A38005DF8044BD20914BF93F82E0093F82F00E9
:100A4800FFF7C0BF5DF8044B704700BFE4130020F8
:100A5800F7B5214D0E4600F07F0105EB410505EB8A
:100A6800D0151446C20995F8200010F0010C4FEA81
:100A7800410309D04FF0E023D3F8F03DDB0700D560
:100A880000BE002003B0F0BD95F82070134847F071
:100A9800010785F82070124D007813441F0105EBFB
:100AA8000313EE51C3F804C01C8141B90D4B23F860
:100AB800124000940123FFF7CDFD0120E2E75E8993
:100AC800B4FBF6F5ABB206FB1545ADB205B90CB9EA
:100AD80001339BB20094EEE7961D0020CE02002061
:100AE800901C0020881C00202DE9F8434B79082B26
:100AF8000ED18B79062B0BD1CB79502B08D1162A26
:100B080009D84FF0E023D3F8F03DDC0700D500BE4C
:100B18000020BDE8F8836D4C8B7884F82D300B7875
:100B28006B4DDFF8BCC119446A4B9F786A4B1B7840
:100B3800022605EB03154B78052B09D04FF0E0236F
:100B4800D3F8F03DDA07DCD500BEDAE70126F2E794
:100B5800CB7803F00303022BF0D191F8028008F060
:100B68007F0EBEF1050F07D94FF0E023D3F8F03D13
:100B7800D907E3D500BEE1E78B88022FC3F30A0348
:100B88000AD1B3F5007F09D04FF0E023D3F8F03D48
:100B9800D807E9D500BEE7E7402BF5D8287A86457F
:100BA800F2D203335FEAD8182A684FEA930361D177
:100BB80003445B00506A0F33984206D247480088C6
:100BC8001844B0F5A07FDFDC536291F802808B886F
:100BD80008F07F004FEA400E0EEBD81E0CEB0E1EFD
:100BE800C3F30A03AEF80A3091F806908EF80C9019
:100BF80091F803E00EF00309B9F101090EF0030EB4
:100C080018BF4FF0010943EA8E4343EA09735FEACC
:100C1800D81843F400434DD100F1580E4FEA4E1E48
:100C2800103042F80E30D2F81CE80123834043EA22
:100C38000E03C2F81C388B78DA0914BF84F82E30FA
:100C480084F82F300B78012E19447FF47FAF0023EE
:100C58001E4994F82F0084F830301F22FFF7F8FE61
:100C680030B94FF0E023D3F8F03DDB0700D500BEE4
:100C780017204EE79068DFF86490D2F824800006C9
:100C880058BF5B00B9F8000058BF9BB218448044B5
:100C9800B8F5A07F3FF678AF80B20EF13F0EA9F805
:100CA800000002EB8E0EC0F5A07040EA0340CEF8BB
:100CB80004008AE700F1480E4FEA4E1E43EA8053CB
:100CC80042F80E30D2F81CE8AFE700BFE41300206A
:100CD800EC370008961D0020CE0200208E1C002054
:100CE800901C0020144B10B5144C6BB1607BAFF313
:100CF800008048B942F2077384F83E00A387BDE834
:100D080010400120FFF77EBEA268A36B0C4994F83F
:100D18002F00D21AB2F5805F28BF4FF4805292B2EA
:100D2800FFF796FE30B94FF0E023D3F8F03DDB072C
:100D380000D500BE10BD00BF00000000E413002075
:100D4800E4030020C0430022114600F08000FFF7B2
:100D58007FBE000010B40346064C0068596822465E
:100D680003C20022C4E9022218785DF8044BFFF799
:100D7800E9BF00BF7C1D002013B5930800EB830377
:100D8800984209D112F0030204D00B68019301A91B
:100D980002F0AEFC02B010BD0C6840F8044BEFE75F
:100DA800930813B501EB8303044699420BD112F063
:100DB800030206D0002301A8019302F099FC019BCD
:100DC800236002B010BD51F8040B2060EDE770B548
:100DD80005890389428986889BB292B2934236BFBD
:100DE800C2EB46029B1A9B189BB29E420446ADB2C8
:100DF80017D8C079C00914D170BD801B80B2B04229
:100E0800FBD2E2882368C2F30E0202FB003002F034
:100E18006FFCA08801222946FFF783FB208101206F
:100E2800EAE72846EBE700002DE9F0434378023B68
:100E380085B005460C46042B1BD801A252F823F0B6
:100E48005D0E00088F0F00088B0E00089B0E00082F
:100E58009D0F0008524B1A7822F001021A701A7876
:100E6800002122F002021A7059701A7861F3820286
:100E78001A704C4B1E6814B93368204698472946A7
:100E880064E0474B1A78D70770D51A7842F0040205
:100E9800EEE7434A1378DE0768D5137823F0040396
:100EA8001370E6E765D9D9F8002012EB431363D134
:100EB80001363A78F3B29A42F4D2394E3378580769
:100EC8002BD5337823F0040333700023CDF8063094
:100ED800CDF80A30ADF80E302B788DF804300523A4
:100EE8008DF805302F4BD3F800801CB9D8F80030A6
:100EF8002046984701A908F10400FFF768FF074654
:100F08001CB9D8F800300120984737B94FF0E023D2
:100F1800D3F8F03DD90700D500BEF378DA0725D518
:100F28000023CDF80630CDF80A30ADF80E302B7816
:100F38008DF8043003238DF805306B680293194B44
:100F48001E6814B933682046984701A9301DFFF779
:100F58003EFF054614B933680120984735B94FF06C
:100F6800E023D3F8F03DDB0700D500BE05B0BDE8AF
:100F7800F0839B1A08EB4313DB69002B98D0696850
:100F88002878984794E7084FDFF82480DFF8249002
:100F980000268EE7054A13780133DBB280E700BFED
:100FA800961D0020C41D0020941D0020951D0020C2
:100FB800FC370008901D002010B5114B9989DA897B
:100FC80093F900008C1AA4B2402C28BF40240028B2
:100FD8000DDA914211D099680A48224602F088FB3E
:100FE800802008492246BDE81040FFF731BD9142F4
:100FF8004FF00000F5D10146F4E780200021F1E729
:101008007C1D0020481C002070B50346104C006869
:101018000E465968A660254603C50021E181D98896
:10102800914228BF1146A181DA886AB1FFF7C4FF4F
:1010380040B94FF0E023D3F8F03DDB0700D500BE00
:10104800002000E0012070BD1878FFF77BFEEFE775
:101058007C1D0020012913B5144613D1137803F021
:101068007F02022A46D16278012A43D16288002A87
:1010780040D13B49A08891F83030042BC0B203D14D
:10108800FFF7A0FC01201BE091F82E40844219D103
:10109800022BF7D18A6B8B689B1A8B62032381F82A
:1010A80030300D2220312046FFF7D2FC0028E9D14C
:1010B8004FF0E023D3F8F03DDB0700D500BE002059
:1010C80002B010BD91F82F208242DBD1002BD9D17C
:1010D800244B00F07F0203EB420303EBD01393F899
:1010E8002020D107CED493F820309A07CAD41C49BF
:1010F8001F22D9E703F06003202BE0D16378FE2B91
:1011080014D0FF2BDBD16388002BD8D1E1888AB2B9
:10111800002AD4D1124B2046C3E90D2283F830208F
:10112800998783F83E20FFF715FEABE76388002B0D
:10113800C5D1E388012BC2D18DF807300A4B23B102
:10114800AFF3008001460028B9D001398DF80710A7
:1011580001220DF107012046FFF756FF92E700BF75
:10116800E4130020961D0020000000002DE9F04146
:10117800184E194FDFF86880054600243278E3B22C
:101188009A4210D2154C15482C22002102F0A0FAE0
:101198001022FF21201D02F09BFA4FF0FF336361FC
:1011A800A361E3610CE00DD9D8F8002012EB4313DA
:1011B8000BD14FF0E023D3F8F03DDB0700D500BE9C
:1011C800BDE8F0819B1A07EB4313DB682846984774
:1011D8000134D3E7941D0020FC370008961D002039
:1011E800901D002002484022002102F071BA00BF81
:1011F800E413002002484022002102F069BA00BF2F
:10120800E413002010B5194C227A32B1184B04228D
:101218001A60BDE81040FFF7B5B923682BB3154B2A
:10122800197861B11A70124B032219201A60FFF75E
:101238008DF9114A114B1188927819809A70D4E966
:1012480000329A4211D30A4B04221A60FFF79AF926
:10125800BFF34F8F0A490B4BCA6802F4E06213438D
:10126800CB60BFF34F8F00BFFDE710BD24140020F3
:10127800781D0020B90000201A370008721D0020D0
:1012880000ED00E00400FA052DE9F04FDFF83C839B
:1012980087B0B8F81630D8F80870019023B15BBA57
:1012A8009BB2B7FBF3F39BB2D8F83850D8F811606B
:1012B800B5FBF3F27F1BB7F5805F28BF4FF480576B
:1012C80036BA03FB12551644B6483A46002102F0D6
:1012D800FFF9CDB9B44CAF42A4F1200323D898F854
:1012E8002E00002D00F04981AE49AAB2FFF7B0FBED
:1012F800002840F053814FF0E023D3F8F03DDB079E
:1013080040F14C8100BE49E14FF0E023D3F8F03DB5
:10131800DB0700D500BEFFF74BFB012007B0BDE897
:10132800F04FFFF76FBB18464FF40072002102F030
:10133800CFF90346EEB99D4A02F1380E106851689C
:101348009C46ACE80300083272456346F6D1106843
:10135800CCF800009288ACF80420552384F8DE31DC
:10136800AA2384F8DF31013605F5007504F5007409
:10137800B1E7B6F5017F3CD8721E8D49B2F5817F81
:1013880028BF6FF4817EB1F8469028BF06EB0E02A5
:101398004FEA022C09F10109A4F1220E614604F575
:1013A800EF7A894586BF481C80B200202EF8020FCC
:1013B800D64501F10101F4D14AB9F82204F8202CEC
:1013C800FF2204F81F2C4FF6FF7224F81E2C7848D1
:1013D8000321C28A944507D8A2EB0C02FF2A9CBFBE
:1013E8004FF6FF7E23F812E0013900F11800F0D122
:1013F800B9E7B6F5027F57D840F20522964246D1A2
:101408006C49A4F115000A78002A3ED0013103F88E
:10141800012B8342F7D12822234604F8152C0021FA
:101428006348182202FB010045F2795A45F6721CFE
:10143800022998D8828A009281461A4603F10B0B3A
:1014480099F800E0BEF1000F26D009F1010902F871
:1014580001EB5A45F4D14FF064025A734FF0000281
:101468009A82009A5A83C268A3F80EA0A3F810C003
:10147800A3F812C0A3F816A0A3F818C07AB102699D
:10148800DA61013120331830D2E72022BFE7310179
:10149800A1F501511139C3E74FF0200ED7E7464AAD
:1014A8001268120A5202EBE7444A96423FF65BAFD3
:1014B8003F486FF4027C06EB0C0200218646A6F238
:1014C800072CB0F81490E14503D8B0F81690E14520
:1014D80005D20131032900F11800F2D102211820A8
:1014E80000FB01E00229B0F814C0A2EB0C0202F1E3
:1014F800020C12D00269B2EB4C2F4FEA4C217FF656
:1015080032AF521AC068B2F5007F014428BF4FF4C9
:101518000072184602F0ECF825E702F50023264A87
:10152800126803F5817302F10060B0EB032F4FEAF4
:1015380003217FF618AF224B44F8203C03F11443F3
:1015480003F52C1303F6023344F81C3C1D4BC4F876
:10155800DC31120A4FF4005344F8082C44F8183CC4
:101568004FF48072184B44F80CCC44F8141C44F81F
:10157800102C44F8043C2046CCE7019BCDF80E50D3
:101588008DF80C308DF810000723294603A8ADF814
:1015980012508DF80D300595FFF746FC07B0BDE8F1
:1015A800F08F00BFE4030020040400207B0000202B
:1015B80040020020A6000020441C00200801010071
:1015C8005546320A306FB10A575A7557E41300204E
:1015D8002DE9F04FAC4C1E4694F83030012B97B0F3
:1015E8000D4600F0A581032B00F0B08293BB94F860
:1015F8002F208A424AD11F2E03D12168A34A914243
:101608000ED094F82E00042384F83030FFF7DAF96E
:1016180094F82F00FFF7D6F9002017B0BDE8F08F37
:101628009B4A2262626884F82C30C4E909230122AB
:1016380084F83020A268C4E90D23E37B03F0FD01A0
:1016480028293AD1E18A1ABB002900F06B810220CF
:10165800FFF7D8F994F83030022B17D194F82E0000
:101668008C4B00F07F0203EB420303EBD01393F89B
:1016780020309B070AD4A368A26B934240F2AC8245
:10168800217BC90900F0A882FFF79CF90120C4E773
:10169800257B282B4FEAD5150CD1002DD7D099B131
:1016A80049BA89B28A42D2D3282B40F03282FFF756
:1016B800EBFDCFE7002DF2D0C9E7B2B1217BC90914
:1016C80013D1B2F5805F01D90120C1E7724992B206
:1016D8002846FFF7BDF90028BCD14FF0E023D3F826
:1016E800F03DDC0798D500BE96E7252B677B09D827
:1016F800192B16D8032B00F0DF80122B68D0002B93
:1017080000F00C8194F83C30002BDDD1E27B1E2ADE
:1017180000F0048142F20502A08EA28784F83E30D0
:10172800F9E01A3B0B2BEDD801A252F823F000BFC9
:101738005D180008251900080D1700080D17000886
:10174800691700080D1700080D1700080D17000885
:101758000D170008B51700080D1700088F170008A7
:101768004E4B002B00F0DA80227DE17C3846AFF347
:101778000080002840F0D28094F83C30002BC1D182
:10178800FFF716F9BEE74648434B4FF40032C3E96A
:1017980000020820A368002B96D0984228BF18465C
:1017A800606382B23C4994F82E0092E74FF00063E0
:1017B8000D9303F1012303F580330E934FF00213C9
:1017C8000F930DAA07CA344B83E807000C20E1E702
:1017D8003449354A1F23CDE90D1342F2200310681E
:1017E8005168ADF8523020238DF8573006AB03C34B
:1017F800127A1A702D4B09AA03F108070DF1180C7B
:10180800164618685968154603C50833BB422A4668
:10181800F7D1186899889B792860AB71A9809CE8F2
:1018280003000FAB83E80300214F059796E80F00EC
:1018380011AD07C52B803023ADF854708DF85630A4
:101848000DAE0FCE144D0FC50FCE0FC533682B60EC
:1018580024209FE70D9B03F4000343F003030D933B
:10186800144B7BB13846AFF300809DF8363080F0DA
:10187800010060F3C7138DF83630074B0D9A1A60D4
:10188800042087E70120F0E7E41300205553424382
:1018980055534253961D0020E40300200000000029
:1018A80000010108008002021D37000826370008E1
:1018B800312E30000000000094F83C5094F83E604F
:1018C80094F83D80122200210DA801F001FFF023B9
:1018D8008DF8343005F00F050A238DF836508DF851
:1018E80041608DF83B308DF840800DAD0FCDA84E8E
:1018F8000FC62B683380A74BC3B14FF48052A6F1B3
:1019080010013846AFF3008000239842A38784F87B
:101918003E30FFF6F7AE00287FF43CAFA368002BFB
:101928007FF4D2AE022384F8303093E61220EBE73E
:10193800E17B282906D1A36B626B33449342A363EE
:10194800F0D2B4E62A2940F0E780914D00279BE0C9
:101958002A68914B9A4240F093806B688F4A934271
:1019680040F08E80D5F8FC218D4B9A4240F088805B
:10197800AB6823F4FF5323F01E039B049B0CB3F5C1
:10198800005F7DD1EB69874A934279D1EB68019377
:101998002B690293844B1A69002A05DA834A5A6034
:1019A80002F188325A601B698149DFF81CC20022A3
:1019B8004FF0006351F8048B0198994643449842CC
:1019C8000FD27C4901208B5C88547AB173B91946CF
:1019D80088450BD951F80930013340F00A810431A8
:1019E800F6E70132182A01D06345E3D9DFF8DC9124
:1019F800DFF8B4A105F11C0B4FF00008029B43452A
:101A080014DD99F81820012A10D05BF8041F0391FF
:101A18004FF001034CF2503089F81830FEF7BAFD48
:101A28000399002843D0002389F818305E4A1369C7
:101A380043F000431361AA6912B35F4B19688A42E5
:101A480007D044F26300824200D809B14FF0FF3258
:101A58001A606A6944F263018A4211D802F00700E9
:101A680003EBD202012192F809C0814011EA0C0F60
:101A7800C8B205D140EA0C0151725A6801325A6065
:101A880005F5007507F50077BE423FF661AFA36B19
:101A9800002F3344A36338DAFEF78AFF14E652F8BE
:101AA80009300133A2D104329045F8D89EE703905B
:101AB800DAF8100020F44070CAF81000DAF81000C4
:101AC80040F40070CAF81000DAF8100040F0010085
:101AD800CAF81000019B4CF2503048F80310FEF78A
:101AE80059FDDAF8101021F00101CAF81010039A14
:101AF80089F81820002899D14FF0FF30FEF74AFDE9
:101B0800002893D108F1040878E7626B9A427FF6BF
:101B180009AFFFF7E7F89DE5A36B227B3344D209B1
:101B2800A36306D11E291EBF42F20501A18784F8CE
:101B38003E20626B9342BFF4F5AE4FF0E023D3F83A
:101B4800F03DDA077FF586AD00BE83E594F82E30C8
:101B58008B427FF47FAD0D2E7FF47CADE37B282B89
:101B680009D02A2B34D0154B53B1607B04F10F01F7
:101B7800AFF3008004E0124B13B1607BAFF3008039
:101B88000023104994F82F0084F830301F22A0E574
:101B9800E4030020000000005546320A57515D9EBC
:101BA800306FB10A575A7557003C02402301674508
:101BB80068370008AC03002024140020000000004F
:101BC80000000000E4130020FFFF0708C403002002
:101BD800607BFFF717FBD3E79B1AA3621349032324
:101BE8000D2284F83030FEF733FF00287FF44EAD25
:101BF80073E50F4B196921F440711961196941F4B2
:101C080000711961196921F0F8011961196941EA2E
:101C1800C20242F002021A611A6942F480321A6161
:101C28004FF0FF30FEF7B6FC00223DE70414002019
:101C3800003C02402DE980489BB0234B00210C91C9
:101C48001A6C42F080521A641A6C02F080520C929C
:101C58000C9A0B911D490A6822F4404242F4004252
:101C68000A600A6802F440420B920B9A9A6802F0E2
:101C78000C02042A07D09A6802F00C02082A2DD117
:101C88005B685F022AD5104B1B680F4B9A6802F0FD
:101C98000C02082A00F078810D4A002111660D4ACD
:101CA800106819688D0100F169810B495960084B6A
:101CB80001211966106804490B689C011CD413683B
:101CC8001B1A022BF8D917E00038024000700040B8
:101CD800000047423C1C002008544107AB4BAC496C
:101CE8001A6842F480321A6008681A689603CCD4DD
:101CF8000A68121A642AF8D9A64B1A6812F00E0F4D
:101D080000F06A81A1498B6843F4E0538B608B68CB
:101D180043F460438B608B6823F0F0038B600B689F
:101D2800980100F16281994B9A6802F00C02042A2A
:101D380000F0E881082A40F0E78159685A685B6832
:101D48004902C3F388134CBF9349944902F03F02F8
:101D5800B1FBF2F253438D4A5268C2F30142013299
:101D68005200B3FBF2F389498D488A688D4CC2F35F
:101D780003124FF48077825CD3402360FEF702FCA5
:101D880000230A930A6B42F001020A630A6B02F00D
:101D980001020A920A9A09930A6B42F002020A6344
:101DA8000A6B02F002020992099A08930A6B42F040
:101DB80004020A630A6B02F004020892089A079365
:101DC8000B6B43F008030B630B6B03F008030793DB
:101DD800079B0123CDE91573179315A802231893C0
:101DE800FEF73CFD704B4FF080729A616F4B0BB160
:101DF800AFF300806E4B1A685B686FF39702B2F11D
:101E0800005F40F0888103F1774303F57F03B3F562
:101E1800002F00F28081674B002B40F07781664DE0
:101E2800664B2A689A421CD0654B9A424FF00003D1
:101E380000F0218263498A4200F01B82624C2960CB
:101E480001202360FEF782FB57494FF480738B61B2
:101E58002368B3F5FA7FFBD3FEF794FB4FF080734A
:101E68008B6100232B60594B0BB1AFF30080584BAB
:101E78000BB1AFF300804E4B4B491E685548D3F861
:101E880004C000224FF0010E0F274FF003080EFA8E
:101E980002F333F4807344D122F0030303F1804347
:101EA80003F59C3302F003049D68A40007FA04F4C8
:101EB800254213D1056825F480750560456825F429
:101EC80080754560856825F480758560C56825F44A
:101ED8008075C5609D6825EA04049C600B68540001
:101EE80008FA04F423EA04030B60D3089B0003F107
:101EF800804303F5003302F00705D3F82090AD00C6
:101F080007FA05F529EA05051D62CB6823EA0403EB
:101F1800CB604B6823F480734B608B6823EA04031F
:101F28008B600132102AB2D1184B1A6B22F00102D1
:101F38001A631A6B22F002021A631A6B22F0040267
:101F48001A631A6B22F008021A634FF0E02300228A
:101F58001A615A619A614FF0FF32C3F88021C3F8C1
:101F68008421C3F88821C3F88C21114AC3F8082DAD
:101F780086F3088886F309886047FEE71168091A1E
:101F880002297FF68EAEB7E65B68B5E600380240F8
:101F98003C1C0020003C024000127A000024F4009F
:101FA800C837000888020020000002400000000036
:101FB8000000010800000000FCFF0020EF6926F087
:101FC800B40AE8F5EF6916F0401C00200000000094
:101FD80000000000003C014002221A701B6803F058
:101FE8000F0393423FF48EAE9DE68B68AB4A23F015
:101FF800030343F002038B60106841F288348B6856
:1020080003F00C03082B52D1A54B1A6802F00F02FB
:10201800022A51D88B6823F4E05343F480538B6031
:102028008B6823F460438B608B6803F00C03042BEC
:1020380066D0082B49D09B489B4B9C4A9B68C3F3AE
:102048000313D35CD8409A4B18604FF47A73B0FBF3
:10205800F3F00138B0F1807FBFF465AE4FF0E023B4
:10206800944C216858619448F02280F82320072571
:1020780000220F299A611D613FF655AEC368C3F36C
:102088000223E81A042803F1040528BF0420062DBA
:1020980088BFDA1E4FF0FF33834021EA03039340E1
:1020A8001B01854ADBB282F8233021603BE61368C6
:1020B8001B1AA342A3D936E602221A701B6803F042
:1020C8000F0393427FF42FAEA4E74A684B68496830
:1020D80013F4800314BF79487248C1F3881118BFFC
:1020E800002302F03F02A1FB0001FEF759F86E4BF6
:1020F8005B68C3F3014301335B00B0FBF3F09BE77C
:102108006E4899E76D4B2EE6664B2CE6AFF30080E0
:1021180000287FF484AE4FF4C053159303230025A1
:102128001893022315A8CDE916350A231993FEF74B
:1021380095FB4FF40073CDE915354FF48066FEF733
:102148008DFB1223CDE9156301231793FEF786FB58
:10215800554B5B4F5A6B5B4E42F080025A630D95AC
:102168005A6C42F480425A645B6C03F480430D93CA
:102178000D9B4FF0A04338469A6B22F400129A63E5
:102188009A6B42F400229A634F4B4FF400221A6074
:102198004FF480133364FDF7FBFFC0F5BF730133C1
:1021A800082B054632D9494B07EB000E15AA03F157
:1021B8001008186859689446ACE80300083343458A
:1021C8006246F6D11B788CF800300EF1FF311C22E4
:1021D8004FF4002020FA02F303F00F0368336B4436
:1021E800043A13F8143C01F8013F131DF2D10023FF
:1021F8008EF80830C5F5BB730133062B05F10800CE
:1022080049D93349384401F06BFA0E352D4A356106
:10221800002002231169938203EB5123C1F30801C3
:10222800002918BF01339BB20630591E1228D182EB
:1022380002F11802EED1274B1B78FF2B6FD12C220D
:102248002548002101F044FA244B00221A70244B3F
:10225800DA819A81234A1360234B23B12348AFF3D1
:102268000080234B1860214E224FDFF88480002520
:1022780073E02B604FE72B601920FEF767F91E4AC1
:102288001E4B1188927819809A701D4B04221A608F
:10229800FEF778F93FE70546B8E700BF3C1C002089
:1022A800003C02400024F40000380240C83700080F
:1022B80088020020BC00002000ED00E000127A0037
:1022C800C000002040020020441C00203C370008C9
:1022D80035370008CE020020961D0020951D0020ED
:1022E8008C020020C41D002000000000941D002066
:1022F800901D0020FC3700081A370008721D0020C6
:10230800781D002021D2D8F8002012EB43131FD1EA
:102318004FF0E023D3F8F03DDF0700D500BEDFF82B
:10232800F492AC4FAC4EAD4C022301203B60FEF75B
:102338000DF9B9F80030338099F80230B370A84B22
:102348001B78FF2B40F0E180FEE79B1A07EB431355
:102358005B680135002BDBD098473278EBB29342AB
:10236800D0D99F4A9F49002313704FF0A0431A6C9D
:102378006FF30F028A4211D09B498A420ED001F5B1
:1023880080318A420AD04FF0E023D3F8F03DDE07CF
:1023980000D500BE0020FEF7CFF9C0E7D3F8042827
:1023A80042F00202C3F80428DA6842F04002DA6018
:1023B8009A6B42F480329A631A6942F001021A61F8
:1023C8004FF0A0421369DD07FCD44FF0A042136917
:1023D800002BFCDAD36823F4705343F4A053D36082
:1023E8002368824A93426FD2814A93426ED8814AC7
:1023F80093426DD2804A93426CD8A2F5DB12A2F5C3
:10240800BA52934268D8A2F5B712A2F5587293420D
:1024180064D87A4A934263D2794A934262D2794A1B
:10242800934234BF0F230E234FF0A042D16821F40A
:10243800705141EA8323D360D2F8003843F0030394
:10244800C2F80038D2F8003E23F00F03C2F8003E6D
:10245800D36843F00703D360D36823F0C04343F045
:102468008043D360136823F0D00343F0C0031360A4
:10247800D2F8003843F00403C2F800384FF48463FC
:10248800136113699C06FCD4102313614FF0A04319
:102498001A69D006FCD45A6959690A435A615A68BC
:1024A80059680A435A60584A9A619A6842F0800209
:1024B8009A609A6842F001029A60D3F8042822F0E0
:1024C8000202C3F8042865E70623ADE70723ABE754
:1024D8000823A9E70923A7E70A23A5E70B23A3E70E
:1024E8000C23A1E70D239FE7091A89B228E090463B
:1024F80033E09DF83800FEF739FE444814220021E5
:1025080001F0E6F89DF83C30A370414B1D680020AF
:102518002B689847AB89E98928899BB289B28B4295
:1025280036BFC1EB40025A1AD21892B2002ADED046
:10253800904205D283422CBF1B1A1B1899B2E9811D
:102548008842D1D96A896B68C2F30E0202FB013155
:102558000EA801F0CDF84FF00108E9892889424614
:1025680089B2FDF7DEFF2B68E88101209847B8F1B2
:10257800000F3FF4E4AE9DF83930013B072B00F221
:10258800D68301A252F823F0FB240008B1250008E5
:10259800092E0008F32D0008F32D00082126000855
:1025A800F12C0008F92D00089DF83800FEF7DEFD33
:1025B80014220021154801F08BF8022301203B600A
:1025C800FDF7C4FFB9F80030338099F80230B370D2
:1025D8009BE700BF781D0020721D0020961D00207B
:1025E800CE0200200000544F000031550048E80199
:1025F800DF9DA30100366E013FA44C0180730601E4
:102608000024F400C0E1E400143800807C1D0020A0
:10261800C41D002014370008AB4A137843B94FF0A3
:10262800E023D3F8F03DDA077FF589AE00BE86E6F1
:102638001378013BDBB21370127802F0FF03002A13
:102648007FF463AF2278DFF8B4A29DF83850CAF857
:10265800103042F00102227094F8202063F3000247
:1026680084F8202094F8202063F3820284F8202044
:1026780094F8212063F3000284F8212094F82120A3
:1026880063F382029DF83C3084F8212003F0600156
:10269800602907D14FF0E023D3F8F03DD90706D5DC
:1026A80000BE04E040290DD1884BCAF810309DF8CF
:1026B80038000021FEF778F89DF838008021FEF7F1
:1026C80073F822E703F01F03012B00F03E82022B70
:1026D80000F06A82002BDDD1202916D19DF8403008
:1026E8000F2BE4D87A4A234412781B79934209D2F3
:1026F800784A116811EB4311D9D00FAA2846FDF783
:102708001DFF8CE1D3D17449F7E70029C2D19DF8A8
:102718003D30092BBED801A151F823F0352B000814
:10272800232B00089D2600080F2B00089D26000873
:102738004D270008EB2900089D2600089727000868
:10274800A12700082B01654ADDE90F01D258D2F80C
:102758000038CAE900019DF83E0023F4FE6343EA0D
:102768000013C2F800385E4B0021C3E90411198335
:102778005C4B59800123CAE902111A460091284688
:10278800FDF768FF237843F002032370BDE6637802
:102798008DF854300122D3E19DF83E806378984546
:1027A80000F08D806378002B30D04C4ADFF830C1C0
:1027B8002B0102EB0511D3584B4A4FF0000E82F85B
:1027C80000E09A6922F008029A610A7A4FF0011132
:1027D800C3F81C180120C1B2914233D352002F32E2
:1027E8005A62424A102111804FF484621A611A69B0
:1027F8009106FCD410221A611A69D206FCD494F806
:1028080002A02846FEF7B2FC84F802A084F80180F2
:10281800B8F1000F00F0DA8035494B78022B31D03F
:102828004FF0E023D3F8F03DDB0700F1CD804FF007
:10283800E023D3F8F03DDD0700D500BE2D4B002284
:102848005A7034E703EB40110CF1200CD1F800ABBF
:10285800BAF1000FBEBFD1F800AB4AF0904AC1F8F8
:1028680000ABACF80AE0D1F800A9BAF1000FBEBF7E
:10287800D1F800A94AF0904AC1F800A90130ACF893
:102888001AE0A8E7CB79C3F38012C3F340131B0106
:1028980043EA4213227822F03002134323704B8814
:1028A80003EB010B09318B452AD8012305203B6036
:1028B800FDF74CFE104B1A889B783280B3700FA836
:1028C800FEF748FA21E600BF951D002027050008FD
:1028D800941D0020901D0020FC370008EC370008EC
:1028E800901C0020881C00208C1C00208E1C0020BE
:1028F8009C020020961D0020173700087C1D002030
:102908004B780B2B01BFCB7803930B78C9181CBFEE
:10291800012303934B78042B82D1ABEB010292B2D3
:102928004FF0000ABC4B1B785FFA8AF898453FF6CF
:1029380077AF14D2B94B1B6813EB48133FF470AF51
:102948001B692846CDE9041298470828DDE90412D6
:1029580037D9824235D3DFF8E4C2002212E0B0480A
:10296800A8EB030300EB4313EAE78B7873445CFAA4
:1029780083F3013293F804E0BEF1FF0F7FF450AF08
:1029880083F80480039B5FFA82FE9E45EDD3DFF84F
:10299800B0C20844884206D89F4B1B784345FFF4D1
:1029A8003FAF01467FE74B78052B07D18B7803F0C3
:1029B8007F020CEB4202DB0902F803800B78194412
:1029C800E8E70AF1010AADE700BE30E7022301207B
:1029D8003B60FDF7BBFDB9F80030338099F8023051
:1029E8006CE7BDF83E30190A4A1E062A3FF65FAE6C
:1029F80001A050F822F000BF1D2A00082F2A000865
:102A08003D2A0008B7260008B7260008B7260008A0
:102A18002F2A0008834912220FA8FEF7F5FA00288A
:102A28007FF473AD43E602297FF441AE7E4931F865
:102A38000229F1E713F0FF0318D0032B23D0042B4E
:102A48003FF635AE794A52F823502846FDF7A0FBE9
:102A5800C2B2302A28BF3022754B2846A9188142B5
:102A680009D010F8015B23F8025FF8E7704B40F2D9
:102A780009425A8001220132D2B26D49520042F411
:102A880040730B80C8E76B4BD3F8102A1192D3F828
:102A9800142A1292D3F8183A654A13930DF1440A8E
:102AA8004FF0000E644B0DF1540C03F1100B186835
:102AB8005968654603C508335B45AC46F7D11AF833
:102AC800015B05F00F0368336B440DF1540813F8EC
:102AD800143C9380584B18685968C446ACE8030006
:102AE80008335B45E046F6D11AAB03EB15150EF13A
:102AF800010E15F8143C5380BEF10C0F02F10402CC
:102B0800D0D11822B7E7BDF83E30012B7FF4CFAD06
:102B1800237843F008032370D1E6BDF83E30012B3B
:102B28007FF4C5AD237823F00803F4E72378C3F3D3
:102B380040129B0803F002031343ADF854300222FD
:102B480015A90FA8FEF760FADFE49DF840300F2BB7
:102B58003FF6ADAD304A234412781B7993421FD219
:102B68002E4A116811EB43113FF4A1AD0FAA284674
:102B7800FDF7E4FC00287FF4C8AC9DF83C3013F066
:102B880060037FF494AD9DF83D20A2F10A0101296C
:102B98003FF68DAD0A2ACAF810307FF490AEF7E5FB
:102BA8007FF485AD1E49E1E79DF8400000F07F0203
:102BB800052A3FF66FAD04EB420EDFF85C800EEBA2
:102BC800D01E98F800809EF814E0C6454FEAD01C45
:102BD8004FEA420317D2DFF84480D8F8008008EBA8
:102BE8004E1879BB9DF83D1001F0FD0EBEF1010FA6
:102BF8002DD000297FF44EAD2344634493F8203050
:102C0800C3F3400399E740F0FE80DFF81480002901
:102C1800E8D00FAA414671E5941D0020901D0020C0
:102C2800FC370008BC0200209E020020D8370008AC
:102C3800101D00200070FF1F3C370008961D002063
:102C4800AA1D0020B8F1000F3FF431ADE1E7BDF84F
:102C58003EE0BEF1000F25D1012942D16D496E48F1
:102C680009780901520141580A44BCF1000F2BD0E0
:102C7800D2F8001921F40011C2F80019D2F800198D
:102C880041F08051C2F800192344634493F820208E
:102C980022F0020283F8202093F8202022F001027B
:102CA80083F82020B8F1000F3FF42FAC0FAA41465B
:102CB8002846FDF743FC0023CAF8103094F8213069
:102CC800D8073FF522ACFAE5D2F8001B21F4001131
:102CD800C2F8001BD2F8001B41F08051C2F8001B5B
:102CE800D2E7FDF76FFEDDE79DF83C1001F07F05A8
:102CF80004EB450303EBD113C80993F8202022F015
:102D0800010283F8202093F8202022F0040283F89F
:102D18002020002D51D1414D9DF838802B78DDF8C9
:102D280040A0B0EBD31F16D0BAF1000F09D04FF076
:102D3800E023D3F8F03DDB077FF5E7AB00BEFFF7F4
:102D4800E4BB2B69002B3FF4E0AB2A460321404645
:102D58009847FFF7DABB95F90030002B07DBA86826
:102D680000283FF4D2AB2E49524600F0C1FCAA68B5
:102D7800EB8952445344AA60EA889BB29A42EB8199
:102D880002D0BAF13F0F15D82B6933B92878FDF76F
:102D9800D9FF00287FF4B9ABC9E702211F4A404692
:102DA800984701460028F1D14046FDF7FDFC8021F7
:102DB800404684E4FEF700F9EBE71A7D194B1B78CF
:102DC8009A420ED2184B1B6813EB42133FF427AC00
:102DD8009D699DF83D20109B9DF83800A847FFF796
:102DE80094BB7FF41CAC114BF2E72378FFF78DBB43
:102DF8000F9B002B3FF489AB10989847FFF785BBD2
:102E0800E378FFF782BB00297FF451AC4FF000084C
:102E1800E8E600BFCE020020EC3700087C1D002049
:102E2800481C0020941D0020901D0020FC3700083D
:102E380070470000104B1A6801321A600F4A126876
:102E4800022A01D81AB97047032A0DD070471A68A8
:102E58001B6843F30023DBB2D2B29A42084B08D076
:102E68004FF480729A6170471B6813F0010F044B8E
:102E7800F6D14FF08072F5E7401C0020781D002045
:102E8800000002402DE9F04F4FF0A0448DB0A26938
:102E9800636902EA030919F4805F60D04FF4805334
:102EA800636180228B48002100F012FC8A4A0023CB
:102EB8001370D4F8002822F4FE62C4F800285A01DE
:102EC80002F1A0420133D2F8001B042B41F000614B
:102ED800C2F8001BF3D10022530103F1A0430132D1
:102EE800D3F800190029BEBFD3F8001941F090416A
:102EF800C3F80019042AEFD14FF0A0434FF48462BD
:102F08001A611A699006FCD410221A614FF0A04386
:102F18001A69D106FCD44FF00112C3F81C28092203
:102F2800C3F81428C3F8102837225A626B4A1021B4
:102F380011806B4A9A62D3F8002922F00302C3F881
:102F48000029644A402151815183D3F8102B42F063
:102F5800C042C3F8102B9A6942F440229A6119F4CE
:102F6800005F20D04FF0A0434FF400525A61D3F8CD
:102F7800082812F0060FC2F3410300F0A9809A1E38
:102F8800534253410022012109A8CDF82620CDF84B
:102F98002A20ADF82E208DF824208DF825108DF8E4
:102FA8002830FDF741FF19F4006F14D04FF0A0430B
:102FB8004FF400625A610023CDF82630CDF82A304C
:102FC800ADF82E308DF824300121042309A88DF89E
:102FD8002530FDF729FFB9F1000F14DA4FF0A043AF
:102FE8004FF000425A610023CDF82630CDF82A3040
:102FF800ADF82E308DF824300121052309A88DF86D
:103008002530FDF711FF19F0040F17D04FF0A0433A
:103018005C6863070FD50023CDF82630CDF82A3039
:10302800ADF82E308DF824300121022309A88DF83F
:103038002530FDF7F9FE4FF0A0435C6019F0080F4A
:103048001FD04FF0A043082223495A61D3F808281B
:103058000978C2F30D2219B9996921F0080199611B
:103068000023CDF82630CDF82A30ADF82E308DF873
:1030780024300121032309A88DF825300A92FDF791
:10308800D3FE19F0100F3ED04FF0A042DFF844A055
:10309800936923F0100393614FF0A0431B6A03F078
:1030A8000F08C3F30A15C3F34343013B052B00F292
:1030B800A28101A252F823F0F9300008E731000894
:1030C800C5330008D1310008FF330008ED3000088F
:1030D800022357E7901C00208C1C00208E1C002027
:1030E80030011000B14AB24B1168196012685A6079
:1030F8004FF0A0435B69D806CED44FF0A042936945
:1031080043F01003936119F4002F40F07D8119F406
:10311800802F56D0DFF8A0A200274FF0A043D3F8A5
:103128001838FB40DA0747D54FEA471808F1A04896
:1031380008F51068D8F80830DB0710D50123C8F85F
:103148000830002F40F0B5819A4A5288002A00F0D2
:10315800B081009239461A463846FDF77BFAD8F80E
:1031680008301E0628D54FF0A0430122D3F8343882
:10317800BA401A4205921FD0D8F81030C3F3C94399
:1031880006933B0303F1A04B0BF5805B00230393ED
:10319800BDF80C30069A9342C0F09C81D8F81030E4
:1031A800C3F3120343B94FF0A0420599D2F834385B
:1031B80023EA0103C2F834380137042F0AF1200A40
:1031C800ABD10DB0BDE8F08F4FEA481808F1A04820
:1031D800D8F8103B43F0C043C8F8103B88E70AEB27
:1031E80048134FEA4812D3F804B0BBF1000F00F0BF
:1031F800B980002D36D09BF80720BBF80860BBF8D3
:103208000A10BBF80430D209B6B289B246D18E4250
:1032180036BFC1EB4301711A891989B2994221D28B
:103228005C1AA4B2AC4228BF2C46314699424FD210
:10323800BBF806005F1AC0F30E02BFB2DBF800004D
:10324800BC4202FB010046D814FB02F292B2574975
:10325800FDF792FDBBF8040022463146FDF761F9FF
:10326800ABF808000AEB48124FEA48135189A94203
:103278007FF63EAF03F1A043D3F8101B13895B1A06
:103288009BB21381B8F1000F7FF432AF494A11881D
:10329800A2F800805B1AAAF8083029E79D4212D2EA
:1032A8008E424FEA430036BF421A721A921992B2FE
:1032B8002A44824205DB5A1B92B21846FDF731F9BF
:1032C80006462C46B1E7002BCCD00E461C46ACE790
:1032D800C91A89B2AAE717FB02F7E31ABFB20B446F
:1032E80013FB02F327F003029BB292B22F49059316
:1032F800CDE90302FDF740FD17F00307059B2ED02B
:10330800C7F1040C1FFA8CFC9C452849049A0398C1
:103318000968099128BF9C46A3EB0C03013A0244B3
:10332800E6469BB2394609A8013910F801CB02F8E4
:1033380001CF11F0FF01F7D1DBF8000009AA3A44E8
:1033480000EB0E01121A884200EB020703D1002B92
:1033580080D01A467BE73F7800F8017BF3E7DBF87B
:103368000000F4E75AF80200104EAC0800EB8401A4
:1033780003468B4215D115F00306EFB20BD00B4B69
:103388001B6800F82430BF0744BF180A4870032E92
:1033980004BF1B0C8B705AF802302B444AF80230D9
:1033A80060E7376843F8047BE3E700BF001000508C
:1033B800A4030020881C0020901C0020B8F1000FF6
:1033C8007FF496AE002D7FF493AE4FF0A043A24A4F
:1033D800196C91427FF68CAED3F8082B48F2200185
:1033E8000A423FF485AE12F0200F14BF21220122B9
:1033F800C3F8082B7CE64FF0E023D3F8F03DDC0758
:103408007FF576AE00BE73E6944D00244FF0A046DB
:10341800D6F8183804F11002D340D90733D567011C
:1034280007F1A043D3F8083B1A0719D51B0430D578
:10343800316C894A48F20803914298BF082307F182
:10344800A042C2F8083B4FF4C0630993844B93E849
:1034580003000CAB03E90300012109A8FDF7E4FC14
:1034680007F1A042D2F8083BD8070CD50123C2F8CF
:10347800083B84B97B4A12886AB1009221462246E9
:103488002046FDF7E7F80134042C05F12005BFD1EB
:103498003DE60823D3E74FF4E0610022CDE90912A5
:1034A8002B898DF82840012109A80B93FDF7BCFC56
:1034B800E9E74FF4E06C0022CDE909C2BAF8183008
:1034C8000B9367F07F02012109A88DF82820FDF7EA
:1034D800ABFC44E6D8F81030BAF81A2062499BB21F
:1034E8009A4228BF1A46D8F8183001EA83039A424C
:1034F8003FF654AEDAF81490B9F1000F00F0878067
:10350800B9F80810B9F80A40B9F8043089B2A4B279
:10351800A14236BFC4EB43050D1B6D18ADB215B300
:10352800AB4207D299422CBFC91AC9188CB2A9F864
:103538000A401D46954228BF1546A34220D9B9F82E
:103548000600D9F800201E1BB6B2C0F30E0101FB1D
:103558000422B542049216D815FB01F2049992B2DE
:103568005846FDF71DFCB9F80A10B9F804002A46B8
:1035780089B2FCF7D6FFA9F80A00039B013306E6D7
:10358800E41AA4B2D9E716FB01F6B6B2EB1A1C444A
:1035980026F0030214FB01F492B2049907925846EC
:1035A800FDF7FEFB16F00306D9F80010A4B220D0F0
:1035B800079A049B13441A46C6F104039BB2A3421C
:1035C80028BF2346E41A0020A4B2099002EB060E95
:1035D8000DF1240C964510D109AA9019401ACE185D
:1035E8000A46964202EB000C0CD11944099BCBF811
:1035F8000030002CB7D02246B2E712F8010B0CF8C5
:10360800010BE7E712F801EB8CF800E0E9E7DAF8DC
:103618001030910803EB8104184684420FD112F050
:103628000300D5B205D0AD070ED413F82130CBF87E
:103638000030DAF810301344CAF810309DE750F81B
:10364800045BCBF80050E8E7032833F8213004BFC7
:10365800A17843EA0143EAE70930544F901C00205F
:10366800A4030020881C0020FCFF0300054BD3F8AE
:10367800882042F47002C3F888204FF000629A60F4
:10368800704700BF00ED00E070B50D4B0D4D5B1BA2
:103698009C100026A64209D1FFF7CAFB0A4D0B4B26
:1036A8005B1B9C100026A64205D170BD55F8043B53
:1036B80098470136EEE755F8043B98470136F2E79C
:1036C8002438000824380008243800082438000862
:1036D80002440346934200D1704703F8011BF9E7FF
:1036E800034611F8012B03F8012B002AF9D1704782
:1036F8000A44914200F1FF3300D1704710B511F828
:0C370800014B03F8014F9142F9D110BDB4
:10371400FF000000FF00CC660041646166727569B9
:10372400740055463220426F6F746C6F6164657229
:1037340000206279746573003031323334353637A2
:1037440038394142434445460046696E67657250C4
:10375400756E63680074656E626974005546320064
:103764000904000000400000004000000040000088
:103774000040000000000100000002000000020000
:10378400000002000000020000000200000002002D
:103794000000020000400000004000000040000063
:1037A40000400000000001000000020000000200D0
:1037B40000000200000002000000020000000200FD
:1037C40000000200000000000000000001020304E9
:1037D40006070809643700084D3700085937000800
:1037E40090030020603700080000005043000000F0
:1037F400040000000005000000000000ED110008B6
:1038040000000000FD110008F10A00085D10000826
:08381400D915000800000000B6
:08381C007CC9FF7F01000000E0
:103824003C21646F63747970652068746D6C3E0A22
:103834003C68746D6C3E3C626F64793E3C736372A9
:103844006970743E0A6C6F636174696F6E2E726581
:10385400706C616365282268747470733A2F2F66E4
:10386400696E67657270756E63682E78797A2F70E9
:10387400726F647563742F74656E6269742F222984
:103884003B0A3C2F7363726970743E3C2F626F6411
:10389400793E3C2F68746D6C3E0A00EB3C905546B3
:1038A400322055463220000201010002400000008F
:1038B400F80201010001000000000009010100807C
:1038C40000294200420074656E62697400000000C1
:1038D4000046415431362020200100001000000031
:1038E40054696E7955463220426F6F746C6F61640F
:1038F400657220302E32302E312D362D67326535EB
:1039040035336164202D2074696E797573622028C3
:10391400302E31362E302D313039302D67336565F8
:10392400613436303536290D0A4D6F64656C3A20A2
:1039340046696E67657250756E63682074656E6261
:1039440069740D0A426F6172642D49443A207465AA
:103954006E6269740D0A446174653A204E6F762074
:10396400313820323032340D0A466C61736820538A
:10397400697A653A203078000000000000000000F9
:103984000000000000000000000000000000000033
:103994000000000000000000000000000000000023
:1039A4000000000000000000000000000000000013
:1039B4000000000000000000000000000000000003
:1039C40000000000000000000000000000000000F3
:1039D40000000000000000000000000000000000E3
:1039E40000000000000000000000000000000000D3
:1039F40000000000000000000000000000000000C3
:103A040000000000000000000000000000000000B2
:103A140000000000000000000000000000000000A2
:103A24000000000000000000000000000000000092
:103A34000000000000000000000000000000000082
:103A44000000000000000000000000000000000072
:103A54000000000000000000000000000000000062
:103A6400494E464F5F55463254585400C00000201A
:103A74007F01000000000000494E444558202020EA
:103A840048544D00000000207A00000000000000AF
:103A940043555252454E5420554632000000000012
:103AA40000000000000000000024F4006D0700087E
:103AB400D002002010000C000000000009022000C9
:103AC400010100A0320904000002080650040705A1
:103AD40001024000000705810240000012010002BB
:103AE40000000040501D5E61010101020301FF005E
:04000005080004D516
:00000001FF
