:100000000C9405050C944C050C944C050C944C0573
:100010000C944C050C944C050C944C050C944C051C
:100020000C944C050C944C050C94B71C0C94F31BCD
:100030000C9496270C944C050C944C050C944C0590
:100040000C944C050C944C050C944C050C944C05EC
:100050000C944C050C9455270C944C050C944C05B1
:100060000C944C050C944C050C944C050C944C05CC
:100070000C944C050C944C050C944C050C944C05BC
:100080000C944C050C944C050C944C050C944C05AC
:100090000C944C050C944C050C944C050C944C059C
:1000A0000C944C050C944C050C944C054B0B610BBB
:1000B000680BA00BB10BBC0BCC0BDF0B1E0C230C85
:1000C0007D0C7D0C7D0C2B0C4B10721077107C106E
:1000D000811086108B10901095109A109F1025118A
:1000E00025115E115E11C011FB12FB12FB12DE1115
:1000F000521263126312391439144C144C14421402
:100100004C144C144C143914391447144C144C141A
:100110004714FB19221AD51B221AD51B6E1A911AE5
:10012000D51B921BA21B00047F3F1F643214643254
:1001300014783C1E1E140A05FD377A585A00000434
:10014000E6D6B4460200210116000000742FE5A394
:10015000E0083E02365D003D8889C65436C3174F1D
:10016000E4F1E112FDEF008EFF6F9387B42647FBA9
:10017000B729D03483DA2C4E8C1ED4A2101D9A2CB1
:100180005F0D89D296E2560F1E575FB410F19A9B0D
:1001900018602D7EFBA74803850A09BB61BA198048
:1001A0007BBF6AFCD562B5A0586062FEDF691F04A0
:1001B000CDA0E29C23EC78E2646D4A1E774902D020
:1001C00002F31AC740B2B25A20298464FA7CF83488
:1001D000888B6AA3EB8E2D44BC6D26964284E78300
:1001E000747DEAFA4E0C1EC311C0B49F1AECBB2EEC
:1001F0003D4A4AB2CABF993A479558A76B88ABC6E1
:10020000E95BEBBEC82DB73BA2C5931D03DD5D4C7A
:10021000EC54A7830E429471213D3BB82E25730404
:10022000C4457E6454FDEE69E3C81334CF2DF278E3
:1002300073F7AF70587839E192163E0BBEEDACBD46
:100240009B32820D14AD774B4EAA33D5D96F79BD51
:10025000293405B1888D638B83CADD277E61ECCAA2
:100260005215D1CD88067CEDD6699F61749BB0B6DE
:10027000B36D7D7F64A4994234587F9F9F1B8B5C34
:100280007E4EA740596B067D2C760B1A0BB45DC6CB
:10029000D37AF33C3982F61891FCA04353F67810D8
:1002A0008653DA1F91F90D059B052EAB5E55664C02
:1002B00099D0CAF3C80A28FA9DF2EC76C320EBB0B5
:1002C00052EB2779D1FE5EC3119C7DF8FE6ED954A6
:1002D0001E1D5DCCDE841CA99596E4590D72530158
:1002E000850D6AABC4D9A15496272C701783AF2F04
:1002F000A7C9A78188F315AEE444A978961098039E
:10030000F24693B9387EFBD6CCC3BCA6C2DAD1D5AF
:10031000E1476F06BF8BA8EC1AF0C90267F7BAB2C3
:10032000C2D2323A52BFD588862379C4F36DB193D5
:1003300041D2BB2A77745FD1B6423837CB8C98F262
:10034000193AE72BF9A8D7CD7249B4B05CA5FD994D
:10035000AA09C3A08DB0B7DDF325F6F41DDFDD904B
:10036000E6CE542C771703C631168D814709DA5033
:100370005FB0E099446B0B976BDD9B9337699DA150
:1003800009905817A585BBD29DDA73BDB100000056
:10039000A1044D1C85E5BAE60001D204BF1000009F
:1003A00085321430B1C467FB020000000004595AC2
:1003B0002E200005010902A10185020901A1000505
:1003C0000919012905150025019505750181029579
:1003D00001750381010501093009311581257F95DA
:1003E000027508810609381581257F9501750881F8
:1003F00006050C0A38021581257F950175088106CE
:10040000C0C005010980A101850319012AB70015A3
:100410000126B700950175108100C0050C0901A1E6
:1004200001850419012AA002150126A00295017573
:10043000108100C00660FF0961A101096215002654
:10044000FF009520750881020963150026FF0095BD
:100450002075089102C005010906A101050719E0F0
:1004600029E7150025019508750181029501750898
:1004700081010507190029FF150026FF0095067563
:100480000881000508190129059505750191029556
:100490000175039101C009025B00030100A0FA0984
:1004A00004000001030101000921110100012240A3
:1004B000000705810308000A090401000203000087
:1004C00000092111010001222200070582032000FA
:1004D00001070503032000010904020001030000D5
:1004E0000009211101000122810007058403200079
:1004F0000A1201000200000008FEFEBBFF0100011D
:100500000203011C037600690061006C003A00667A
:1005100000360034006300320062003300630000E4
:1005200000320373006100640065006B00620061CB
:100530000072006F007500640069002000660066AC
:10054000006B0062005F00620079006F006D006365
:1005500000750000001A0373006100640065006B01
:10056000006200610072006F0075006400690000A5
:100570000004030904FFAA7F5540222325262829C9
:100580002A2C2D2F3032333536383A3B3D3E40420F
:10059000434547494A4C4E5051535557595A5C5E52
:1005A0006062646668696B6D6F71737577797B7D66
:1005B0007F81838587898A8C8E90929496989A9C65
:1005C0009E9FA1A3A5A7A8AAACAEAFB1B3B4B6B87D
:1005D000B9BBBCBEBFC1C2C3C5C6C7C9CACBCCCDDF
:1005E000CED0D1D2D2D3D4D5D6D7D7D8D9D9DADABA
:1005F000DBDBDBDCDCDCDCDCDDDDDDDDDCDCDCDC3A
:10060000DCDBDBDBDADAD9D9D8D7D7D6D5D4D3D26D
:10061000D2D1D0CECDCCCBCAC9C7C6C5C3C2C1BF4B
:10062000BEBCBBB9B8B6B4B3B1AFAEACAAA8A7A5AF
:10063000A3A19F9E9C9A98969492908E8C8A89876B
:100640008583817F7D7B79777573716F6D6B696849
:10065000666462605E5C5A5957555351504E4C4A1D
:100660004947454342403E3D3B3A383635333230C8
:100670002F2D2C2A292826252322290014001A0090
:100680000800150017001C0018002B0004611668F4
:10069000076409620A000B000D72E1001D001B00D7
:1006A00006001900050011001000000000000E7483
:1006B00037001200337138002A0000002B04360086
:1006C0000C000F781300E50034002A01A8004C004C
:1006D00031002800015102512C0001001E021F02AE
:1006E00020022102220223022402010001530253AC
:1006F00003530453010001002D02010039000100E1
:1007000001000100010001000100000000002E02B4
:100710003102260230023402010000000100010013
:1007200025022F0227020100010001000100010043
:100730000100010001000351010035001E001F00EF
:10074000200021002200230024004A005000510014
:1007500052004F002B0001002D00010001004E004F
:100760004B000100815F845F825F000000002E006B
:100770000100260030000100010000000100835F3D
:1007800025002F00270001000100010001000100E9
:10079000010001000351010001000100C25CC45CC2
:1007A000C35C010001003A003B000100CB5CC55C6A
:1007B000C75CC95C01003F0040000100CC5CC65C26
:1007C000C85CCA5C01004400450000000000410014
:1007D00001003D004300005C010000000100010039
:1007E0003C0042003E000100010001000100010048
:1007F00001000100010001000100010001000100F1
:1008000001000100010001000100010001000100E0
:1008100001000100010001000100010001000100D0
:1008200001000100010001000100000000000100C2
:1008300001000100010001000100000001000100B1
:1008400001000100010001000100010001000100A0
:100850000100010001000100010000000000000093
:100860000000000000000000000000000000000088
:1008700000000000000000000000000000007E0FEB
:1008800000D4FFFFFFC70000007800000000000058
:1008900000002A2B280000000000000000000000DB
:1008A000000000000029000000002C1E342021223E
:1008B00024342627252E362D3738271E1F202122A7
:1008C000232425263333362E37381F040506070820
:1008D000090A0B0C0D0E0F10111213141516171810
:1008E000191A1B1C1D2F3130232D3504050607084E
:1008F000090A0B0C0D0E0F101112131415161718F0
:10090000191A1B1C1D2F3130354C0001010101014A
:1009100001010101020202020202020202030303B8
:100920000303030303040404040404040505050588
:100930000506060606060707070707080808080948
:100940000909090A0A0A0B0B0B0C0C0C0D0D0D0EF4
:100950000E0E0F0F0F101011111112121313141489
:10096000151516161717181819191A1A1B1B1C1DFE
:100970001D1E1E1F20202122222324242526262757
:100980002829292A2B2C2D2D2E2F30313232333489
:1009900035363738393A3B3C3D3E3F40414243448F
:1009A00045464748494A4C4D4E4F50515354555671
:1009B00058595A5B5D5E5F616264656668696B6C1D
:1009C0006D6F7072737577787A7B7D7E8082838598
:1009D00087888A8C8E8F91939596989A9C9EA0A2D8
:1009E000A3A5A7A9ABADAFB1B3B5B7BABCBEC0C2E2
:1009F000C4C6C9CBCDCFD1D4D6D8DBDDDFE2E4E7A6
:100A0000E9EBEEF0F3F5F8FAFDFF11241FBECFEF8E
:100A1000DAE0DEBFCDBF04B603FE27C08091FF033E
:100A200090910004A0910104B09102048730904B92
:100A3000A740B04BD1F41092FF0310920004109223
:100A400001041092020414BE84B7877F84BF0FB6DE
:100A5000F894A8958091600088618093600010925E
:100A600060000FBEE0E0F8E3099511E0A0E0B1E01E
:100A7000E2EBF6E602C005900D92A639B107D9F770
:100A800023E0A6E9B1E001C01D92AF3FB207E1F754
:100A90000E944E050C9457330C940000CF93DF93C3
:100AA000CDB7DEB7C654D1090FB6F894DEBF0FBE7E
:100AB000CDBF84B7877F84BF0FB6F894A895809187
:100AC0006000886180936000109260000FBE90E02B
:100AD00080E80FB6F89480936100909361000FBE98
:100AE00085B7806885BF85B7806885BF81E19EE155
:100AF00090939701809396010E94682B0E94371C67
:100B00000E94561C8091E20084608093E2007894F9
:100B1000809102028823A1F01091E9001F7090914A
:100B2000EC00892F817090FD80E8182B1092E9006D
:100B30008091E80083FD0E9415191F701093E90051
:100B400082E084BD93E095BD9AEF97BD80936E00DF
:100B50000E94E622811102C00E94D72203E211E026
:100B6000E9E2EE2EE1E0FE2EF80181918F018F3F48
:100B700011F00E94561EE016F106B1F709E211E0ED
:100B8000F80181918F018F3F11F00E94561EF1E014
:100B900001331F07A9F7EAE9F1E080EA91E0AFEC41
:100BA000B1E011921D928E179F07D9F70E9407207E
:100BB000811102C00E94122082E090E00E9458320F
:100BC0008093C4010E94F61F90939901809398012D
:100BD0000E9445218FE39CE90197F1F700C00000D6
:100BE0000E9445218091CF0180FF08C06FEF7FEF09
:100BF00080E090E00E948A320E94312783E090E0FA
:100C00000E9458320E9486168091A001811133C043
:100C10000E940720811104C00E9412200E940B3004
:100C200088E090E00E94603260936F0270937002DF
:100C300080937102909372026E7F71F40E940B3068
:100C400088E090E00E94603260936F0270937002BF
:100C500080937102909372020E94DF2F10926B02B8
:100C600080916F0280FF04C060E086950E947E261E
:100C700081E08093A0010E94B13019821A821B8208
:100C80001C8204E610E024E030E0FE0131967F0192
:100C9000AF0160E084E10E94B23180E091E0909386
:100CA000F4038093F30375ED272E71E0372E8091C6
:100CB0000202853009F073C0DD24D39400E112E113
:100CC00080910202853009F055C080910202843083
:100CD00009F440C010926B028091A201811116C0EC
:100CE000D092A20180916F02982F91709093A101F0
:100CF0008E7F80936F02FFEF20E732E0F1502040BB
:100D00003040E1F700C000000E9405231092F70375
:100D100088E190E0E0E40FB6F894A8958093600035
:100D20000FBEE093600083B7817F846083BF83B789
:100D3000816083BF7894889583B78E7F83BF0FB619
:100D4000F894A8958091600088618093600010926B
:100D500060000FBE8091F801882309F4B1CF0E9492
:100D60004521EFECF1E081918111CBC52E163F06B4
:100D7000D1F7A6CF0E948A160E9412281092A201D3
:100D80008091A101882349F080916F028160809356
:100D90006F0260E086950E947E260E9468260E946F
:100DA0004521882359F08FB7F8944091F80350916A
:100DB000F9036091FA037091FB038FBFA5ECB1E0DA
:100DC000EFECF1E000E010E0302F21919D919227AF
:100DD00041F180E0DD24D394492F4D21F1F08DAF16
:100DE0003EAF2D2181E009F480E08FAF0E948A2779
:100DF0008160782F22969FAF8EAF22974DAD5EAD6A
:100E00006FAD22968FAD22970E94762DF801EB539D
:100E1000FE4F8081D826D08229C08F5FDD0C8830BC
:100E2000D9F60F5F1F4F0630110571F68FEF23962D
:100E30008FAF239724968FAF249725961FAE2597C3
:100E40000E948A278160782F27969FAF8EAF2797C1
:100E500023964FAD239724965FAD249725966FADCB
:100E6000259727968FAD27970E94762D80916B024C
:100E7000882309F493C080916A02E0916F02E6959D
:100E8000E81BE0936602823059F4F0E0EC5CFE4F20
:100E9000E4910E2F10E060E7C62E65E2D62E59C011
:100EA000863059F4F0E0EF5CFE4FE4910E2F10E035
:100EB00050E6C52E55E2D52E4CC0893061F4E6953A
:100EC000F0E0E25DFE4FE4910E2F10E045ECC42E01
:100ED00044E2D42E3EC08F3061F4E695F0E0E55D4B
:100EE000FE4FE4910E2F10E035E5C32E34E2D32EF1
:100EF00030C0853159F4F0E0E85DFE4FE4910E2FEB
:100F000010E024E0C22E24E2D22E23C08831A1F0CA
:100F1000833249F4E6E2F1E00591149193E0C92EA1
:100F200095E2D92E16C0843271F000ED17E086E903
:100F3000C82E82E2D82E0DC008E210E0B8E7CB2E12
:100F4000B3E2DB2E06C004EF11E0ABE3CA2EA3E24E
:100F5000DA2E80916702882361F0109267020E9466
:100F60008A2790936502809364021092690210921E
:100F700068020E948A27E0916402F09165028E1B4C
:100F80009F0B8F3F9F4750F40E0F1F1F109365025A
:100F90000093640284E692E0F60109958091C20113
:100FA0008A3008F0EBC08091C0019091C1010E948D
:100FB0007B27089708F4E2C004E610E025E030E063
:100FC0004BEB51E064E084E10E94DF31892B09F0B2
:100FD0006BC01092C20186E0E9EAF1E0DE01D19631
:100FE00001900D928A95E1F786E0FE01F196DE010F
:100FF000D79601900D928A95E1F786E0FE01F7966B
:10100000A5EBB1E001900D928A95E1F79091BF01B7
:101010008091B60197FD3EC08E7F8093B60180918E
:10102000B3019091B401009799F545E06091BB013F
:101030008091BC010E945F2D2091B1013091B201DD
:10104000820F931F9093B2018093B10145E06091AC
:10105000BD018091BE010E945F2D2091AF013091B2
:10106000B001820F931F9093B0018093AF016FEA9C
:1010700071E087EB91E00E94402D61EB71E088EB1D
:1010800091E00E94402D1092BA011092B90111C056
:10109000019705C081608093B60184E190E0909350
:1010A000B4018093B30105C08091C2018F5F80932A
:1010B000C20186E0E5EBF1E0DE019B9601900D9226
:1010C0008A95E1F786E0FE01BB96A9EAB1E00190BE
:1010D0000D928A95E1F73091AB012091AC0190918E
:1010E000AD018091AE017091A5016091A601409182
:1010F000A7015091A801F091A401E091AA01FE136B
:1011000012C0332311F073130EC0222311F02613E3
:101110000AC0882311F0851306C0992331F081E0BD
:10112000491304C002C081E001C080E080FF0FC00D
:10113000E091F303F091F403309749F082E080935B
:10114000A9010480F581E02D89EA91E009951092CA
:10115000AB011092AC011092AD011092AE0186E08D
:10116000E9EAF1E0A3EAB1E001900D928A95E1F796
:101170000E948A279093C1018093C0010E94122887
:101180009091C301891721F00E9412288093C30116
:1011900080910202843009F08ACD83E08093E900D7
:1011A0008091E80082FF83CD8091E80085FF21C017
:1011B0000E948C1D81111BC0F0E2CF2ED12C870123
:1011C00009C08091F100F80181938F01F1E0CF1AFD
:1011D000D10869F08091E80085FDF3CF8091E800A7
:1011E0008B778093E8000E948C1D882399F391E00F
:1011F00001C090E08091E8008B778093E80099230C
:1012000009F455CD009144031091450389810115DE
:10121000110561F08E3F09F070C38A81833008F4B4
:101220002EC28550833008F068C329C28B3009F480
:1012300010C280F5853009F48BC0B0F4823009F417
:1012400045C030F4813009F056C31A8289E0F4C2F7
:10125000833009F46CC0843009F04DC34C816B813C
:101260008A810E94272B72C0873009F47FC008F45E
:101270007AC0883009F4BCC0893009F03CC3609161
:101280006F027091700280917102909172020E94BF
:10129000F92F33C3803109F425C160F48D3009F48E
:1012A000C9C008F4C5C08E3009F4C8C08F3009F435
:1012B000EDC021C3823109F41AC108F416C183318B
:1012C00009F43CC18E3F09F4DAC115C38A8182302A
:1012D00009F42DC3833089F0813009F00CC32FB796
:1012E000F8948091F8039091F903A091FA03B091DA
:1012F000FB032FBFBB83AC8329C080914203909135
:101300004303892B09F4F9C28091CF018B8380912B
:10131000D0018C838091D1018D838091D2018E8305
:101320008091D3018F838091D4018887E6C28A811E
:10133000823009F0E0C26B817C818D819E810E94A8
:10134000F23286E290E00E946C32D7C29D83F6C2F0
:101350002D813E813227232732274C816B818A8160
:101360000E94642ACAC20E949A2AC7C28A8181380E
:10137000B1F050F4803809F0C0C220E04B81609198
:1013800071028091700231C0823859F1833809F0BE
:10139000B4C220E0409172026C818B8126C060E073
:1013A0008B810E947E269B8180916F02911111C0DA
:1013B0008E7F80936F0210926B022FEF30E782E0F6
:1013C000215030408040E1F700C000000E9405231A
:1013D00094C2816080936F0260E086950E947E26B1
:1013E0008CC28B818093730288C20E94842585C23F
:1013F0008A81813891F030F4803809F07EC2809182
:1014000072021AC2823889F0833809F076C280915C
:1014100070028B8380917102A2C180916F0280FF64
:1014200002C0869509C280E007C28091730204C29F
:1014300080E11EC281E08A838DE6FEC10A811B81A4
:10144000102701271027AC80B12C9DE1A916B1040B
:1014500008F053C26701C8018D569D4F96012E19A1
:101460003F092A153B0508F048C20D36E1E01E078A
:1014700028F40E945832F601848302C0F6011482D7
:101480000F5F1F4FFFEFCF1ADF0AE5CF80914203B6
:1014900090914303892B09F430C20A811B811027E4
:1014A00001271027CC80D12C2DE1C216D10408F0E1
:1014B00024C25701C8018D569D4F95012E193F0931
:1014C0002C153D0508F019C20D3631E0130720F444
:1014D000F50164810E946C320F5F1F4FFFEFAF1A5E
:1014E000BF0AE8CF0E94EC2908C285E0C1C10A8189
:1014F0001B81102701271027AC80B12C2DE1A216EB
:10150000B10408F0FAC16701C801879696012E1947
:101510003F092A153B0508F0F0C1003E31E01307F2
:1015200028F40E945832F601848302C0F601148226
:101530000F5F1F4FFFEFCF1ADF0AE6CF0A811B8133
:10154000102701271027AC80B12C2DE1A216B10481
:1015500008F0D3C1003E31E0130708F0CEC180EEA1
:1015600091E0801B910B8A159B0508F4C6C13801D8
:1015700087E2680E711C8091420390914303892B8E
:1015800011F067015DC000FF0FC0C80186960E9480
:10159000583290E0982F88272D81822B81159C4509
:1015A00031F48FEF8D8303C0C12CD12C03C0CC2428
:1015B000C394D12CC8018A0D9B1D450180FF1BC01F
:1015C000F1E08F1A910855E0452E512C4C0E5D1E0E
:1015D000480C591CC3018A0D9B1D0E945832F20110
:1015E000208130E0322F2227282B21153C4519F489
:1015F0008FEFF2018083F701EC0DFD1D2FEFCF017E
:101600008E199F098815990508F0BBCF848190E059
:10161000982F88273581832B81159C4511F42483CD
:1016200025833296ECCF003EE1E01E0720F4F60160
:1016300064810E946C320F5F1F4FFFEFCF1ADF0AE9
:10164000C801879696012E193F092A153B0558F3C4
:1016500054C18091420390914303892B09F44DC1F9
:10166000C7010E94EB1D2FEF31EE84E02150304086
:101670008040E1F700C000000E9431273EC1EA81AE
:101680008E2F90E08E30910508F037C1FC01EA5AA8
:10169000FF4F0C94EC3288E0EBE1F1E0DE01919633
:1016A00001900D928A95E1F780E2F70111928A95F7
:1016B000E9F784E0898388E0FE01B196DE011596A2
:1016C000F6C088E7898382E08A831B821C8215C169
:1016D0008C8190E0982F88272B81820F911D092EF5
:1016E000000CAA0BBB0B35E0880F991FAA1FBB1F6C
:1016F0003A95D1F7AC01BD01405E5F4F6F4F7F4F10
:10170000481759076A077B0708F4F7C08837F2E0E3
:101710009F07A105B10508F0F0C0493722E0520744
:101720006105710520F048E752E060E070E0481B79
:10173000590BBC01685C7E4FC7010E943F32DDC07F
:101740001B810C8140E0602F812F0E94342A9983F5
:101750008A8341E0602F812F0E94342A9B838C83EF
:10176000CCC02E813F813227232732274D816C81C7
:101770008B810E94FC29C1C040E250E06FEF70E015
:10178000C7010E9450338091420389830A831B82E0
:101790001C821D8281E0D2C081E090E090934503DD
:1017A0008093440382E390E09093CE018093CD0137
:1017B0000E948A279093CC018093CB019EC0012B7D
:1017C00099F11091CF0111FB882780F9182380919E
:1017D000CB019091CC010E947B2785369105F0F0DA
:1017E0001123E1F00E948A279093CC018093CB01D2
:1017F0008091CD019091CE0101979093CE0180937D
:10180000CD01892B89F4109245031092440381E0A5
:1018100090E0909343038093420306C082E390E0FC
:101820009093CE018093CD01809142038983809172
:1018300044038A838091CD018B835FC01092430360
:10184000109242035AC040E250E06FEF70E0C701CF
:101850000E94503352C08B81833061F0843061F13B
:1018600081114BC080E2F70111928A95E9F788E077
:101870008A8343C06C81CE0181962AE0FC011192DB
:101880002A95E9F7683060F4FAE06F9FB0011124FF
:101890006D5B7D4F4AE050E00E94483280E001C01D
:1018A0008FEF89838AE0FE01B196DE0112960190E6
:1018B0000D928A95E1F721C06C818AE0FE01359690
:1018C000DE01919601900D928A95E1F7683070F4EF
:1018D0002AE0629FB00111246D5B7D4F4AE050E029
:1018E000CE0181960E94903280E001C08FEF898303
:1018F0000E94682B02C08FEF8983C7010E94EB1DF5
:10190000D6C909BD19BD09B400FEFDCF8091D8002C
:101910008F7D8093D8008091E00082608093E0000A
:101920008091E00081FDFCCF0E948A16C9C986E241
:1019300090E00E9458321B821C821D828E83DDCF74
:101940008F929F92AF92BF92CF92DF92EF92FF92CF
:101950000F931F93CF93DF9300D000D0CDB7DEB7A6
:10196000FC018081918123813481232B31F09F3FC1
:1019700031F491E08F3F19F403C091E001C090E091
:1019800090FD00C76F0161E0CF010E94AF2C8C0178
:10199000F6018281882309F49AC0980122513F45BB
:1019A0002031310508F07BC08FEF93E00E94583260
:1019B00081117FC03EEEF32EF00E03E912E0FF200E
:1019C00071F00115F4E01F0709F473C0C8010E940B
:1019D0005832811101C0FA940F5F1F4FF0CF198266
:1019E0001A821B821C82AA24AA9478012FEFE21A81
:1019F000F20AC8010E94583289831A82882309F4A6
:101A000058C0813009F046C0480182E0880E911C20
:101A1000C7010E9458328A83882309F44AC09FEF85
:101A2000980F933060F4780193E0E90EF11CC40143
:101A30000E9458328B8381112DC08701D6CF84300C
:101A400011F07401FACFC4010E945832B82E780107
:101A5000E4E0EE0EF11CC80103960E945832BB2050
:101A600041F1882331F1282F30E021503109A29E25
:101A7000A001A39E500D11248B2D90E00197840F9F
:101A8000951F0197D0F2EFE9FFE03197F1F700C021
:101A90000000F7CFCE0101960E94542CCECF00312A
:101AA0009FE5190709F0CBC581E00E947B160E94D3
:101AB0000A1980915902877009F464C6F60182817F
:101AC000882309F45FC682E00E94AF205BC6003124
:101AD000FFE51F0711F481E005C001312FE5120772
:101AE00021F482E00E946F16E2CF9091D50191110E
:101AF00005C09091D801992309F4B7C098013056D8
:101B0000211590E2390720F0305E2115304140F474
:101B1000F6019581907F09F4A8C07801FF2401C0E7
:101B20007801970130542115354108F49EC09091F9
:101B3000D801923021F5882369F080915C02982FBA
:101B4000927219F06894F1F80FC086FF0DC024E17D
:101B5000F22A0AC0C70195558F3F910511F008F090
:101B60008DC580E00E942F2281E08093D801F09201
:101B7000D701E092D6018FEF80930A019ACF882394
:101B800009F47CC5913009F05FC080910A019CE2A4
:101B9000E916F104D9F4882329F00E94E62C10926A
:101BA0000A0187CF8091D6019091D70195558F3F3B
:101BB000910509F018F40E947C2003C08AE20E947B
:101BC00034181092D8010E94362D4FC0EAE2EE166A
:101BD000F10421F4815080930A0126C087FD34C0AE
:101BE00081110BC08091D6019091D70195558F3FFF
:101BF000910509F010F40E94E62C80910A018F5F94
:101C000080930A01FDE2EF16F10471F040F484E0E4
:101C1000E81AF10894E2E916F10480F405C0EDE257
:101C2000EE16E2E0FE0651F4F6018281882309F403
:101C300025C580915C02811114C008C5F60182811E
:101C4000882309F41BC50DC09AE2E916F10489F353
:101C500008F089C5F4E0EF1AF10824E2E216F10475
:101C600040F30E94362D1092D8010238FFE51F077D
:101C700051F4F6018281882399F181E08093D801A3
:101C80008DE290E017C003382FE51207D8F0033833
:101C9000EFE51E0709F456C50438FFE51F0709F0F4
:101CA000FEC4F60182818823D9F081E08093D801B7
:101CB0008DE292E09093D7018093D6018FEF8093CD
:101CC0000A015DC500388FE5180709F437C10138EE
:101CD0009FE5190709F0E3C4F60182818111C3C4AD
:101CE000F6019281992309F4B9C110924803023098
:101CF000FCE51F0708F49CC106312CE5120738F0FB
:101D000098012A5F3C452930310508F091C10E94B5
:101D1000F61F909399018093980100318CE5180784
:101D200009F4C3C008F041C00830ECE51E0709F40F
:101D30009AC0F0F404302CE5120709F487C068F467
:101D400002309CE5190709F477C003301C4509F0FF
:101D5000E5C080919801826076C00630FCE51F07DF
:101D600009F46EC008F07BC08091980188606BC058
:101D70000C308CE5180709F485C068F40A30ECE5EE
:101D80001E0709F474C008F079C00E948A16809179
:101D90009801806858C00E302CE5120709F476C00F
:101DA00008F07FC0809198018BC00B3F9CE519071C
:101DB00009F44FC018F50331FCE51F0709F47DC095
:101DC00078F401318CE5180709F473C002311C4521
:101DD00009F0A4C00E948A16809198018F7733C0C1
:101DE0000531ECE51E0709F472C008F486C00A3F0D
:101DF0001C4509F093C0809199013EC00F3F8CE5CE
:101E0000180709F45FC058F40D3FECE51E0709F40C
:101E100044C008F43FC08091990182602DC0013018
:101E20002DE5120709F475C008F45DC002301D45A8
:101E300009F074C060E06EC080919801816003C0B9
:101E40008091980180618093980168C08091980189
:101E500011C0809199018260809399015FC0809147
:101E600098018062F0CF809198018064ECCF8091DE
:101E7000980188608460E7CF8160EECF80919801FF
:101E80008E7FE1CF809198018D7FDDCF8091980189
:101E9000877FD9CF8091990118C0809199018D7F5A
:101EA000DBCF809198018F7ECECF809198018F7D7E
:101EB000CACF809198018F7BC6CF80919801877F90
:101EC0008B7FC1CF809199018D7F8E7FC5CF80910F
:101ED000980182FB222720F991E0922790FB82F95A
:101EE00090FB83F9B0CF80919901982F90959170D4
:101EF0008E7F892B90FB81F9AFCF0E948A1680914B
:101F0000980187FB222720F991E0922790FB87F91F
:101F10009ACF61E08EE090E00E946C32609198016F
:101F20001091990184E090E00E946C32612F82E26E
:101F300090E00E946C320E948A16BBCDF60182812D
:101F4000882309F4CDCE90EBA92E93E0B92E2AE098
:101F5000922EF5018491882309F45AC0813009F04A
:101F60004FC07501FFEFEF1AFF0AF701849181302E
:101F700049F47501F2E0EF0EF11CF70184910E9423
:101F8000341841C0823049F47501F2E0EF0EF11CC3
:101F9000F70184910E94981736C0833049F4750187
:101FA000F2E0EF0EF11CF70184910E9441172BC063
:101FB000843049F57501F2E0EF0EF11CF701249130
:101FC00080E090E030E0205331092A30310570F490
:101FD000989EA001999E500D1124C901840F951F50
:101FE000FFEFEF1AFF0AF7012491ECCF009759F0A9
:101FF000EFE9FFE03197F1F700C000000197F6CF5D
:102000000E94EE2B75015701FFEFAF1ABF0AA1CF57
:1020100080915F0281FD64CE0E948A2790935E02C8
:1020200080935D0280915F02826080935F0258CE50
:1020300080915C020631ECE51E0709F58A7A91E091
:1020400009F490E09093D901882311F065E301C071
:1020500069E284E092E00E94CC270EC006311C4564
:1020600009F0A7C08091D901882309F47AC365E3F8
:1020700084E092E00E94BF270E9443221ACD827220
:10208000F801E25CFC45EB30F10508F05FC0EC596B
:10209000FF4F0C94EC3280916F0280FF1BC08E7F4B
:1020A00080936F0260916F02709170028091710253
:1020B000909172020E94F92F10926B02EFEFF0E7FD
:1020C00022E0E150F0402040E1F700C000000E9413
:1020D0000523EFCC816080936F0261E086950E94BA
:1020E0007E26E7CC4CEC5FE265ED7FE22CC045ED4F
:1020F0005FE26CEC7FE227C046E556E26FE576E2F0
:1021000022C04FE556E266E576E21DC04EE356E298
:102110006AE476E218C04AE456E26EE376E213C05F
:1021200046E256E262E376E20EC042E356E266E23F
:1021300076E209C047E952E268EA72E204C048EA7E
:1021400052E267E972E20E94FF22B3CC992389F13F
:102150000A358DE5180741F150F40115ECE51E072D
:10216000A9F00E3D1C4529F50E941220A2CC0B358A
:102170002DE51207D9F00C351D45D9F48091990150
:1021800082FB882780F991E0892711C00E948A1676
:102190009FEFE4E3FCE09150E040F040E1F700C045
:1021A00000000E94312785CC81E001C080E00E94C0
:1021B0008E20F601868197810097B9F4F60182811D
:1021C00000811181882349F0C8010E94E113F82E93
:1021D000682FC8010E943E1604C0C8010E940E1656
:1021E000F82EB8018F2D0E94552B0E946D1EF82EDF
:1021F000192FF601E280058102950F708091590236
:10220000877099F0EE2089F0892F807F803421F04B
:1022100080E28F0D883048F082E00E94AF208091EC
:1022200059028770BB24B3948111B12CA12EA294C2
:102230008FE0A8228A2D90E08C30910508F0DBC158
:10224000FC01E159FF4F0C94EC32812F807F1F700D
:10225000882311F01295107FEE20B9F0112309F4B4
:10226000ACC180E28F0D883010F0F11006C0909163
:102270005C02192B10935C0205C090915B02192B34
:1022800010935B020E94432298C18F2D0E94411738
:10229000112309F4B0C180E28F0D883010F0F110E5
:1022A00004C0812F0E94872006C0109590915B0288
:1022B000192310935B020E9443229DC1812F807FCE
:1022C0001F70803211F01295107FFF2021F0F1E095
:1022D000FF1691F13BC0EE20D9F00023A9F00130A8
:1022E00031F480915F02812B0E942F2284C105303E
:1022F00059F40E947C2080915602181310935602C4
:10230000812F0E94371777C180915F02812BF9CF0F
:10231000002349F0013069F480915C02812309F4C3
:102320006AC10E94CC200E947C20812F0E9430171D
:1023300062C10530C1F75FC1EE2021F0063008F020
:102340005AC1DECF053008F056C1EFCFEE2019F0AC
:102350000023B1F232C1002341F329E3F21208C095
:102360008FEF97EEE3E081509040E040E1F73EC10F
:10237000FFE728E381E0F15020408040E1F736C1DB
:10238000812F86958695837019F0813061F033C175
:10239000EE2021F08F2D912F937002C080E090E00D
:1023A0000E94FC272EC1EE2021F08F2D912F9370DB
:1023B00002C080E090E00E94E62723C1812F837055
:1023C000A9F5E1101CC14F2D429546954770440F69
:1023D000440F8F2D8F7090E09C01042E01C0220FBE
:1023E0000A94EAF7F4FE08C08FE090E001C0880F7D
:1023F0004A95EAF7809501C080E01695169513700E
:10240000123069F088F490916002113019F0822B3B
:10241000892302C0922B892B0E948616F0C0822B42
:10242000909160028927F8CF822BF6CFEE2019F029
:10243000812F817001C08695882309F4E0C04F2D5B
:10244000429546954770440F440F8F2D8F7090E052
:102450009C01042E01C0220F0A94EAF7F4FE08C082
:102460008FE090E001C0880F4A95EAF7809501C09F
:1024700080E0169516951370123059F078F490910B
:102480000302113019F0822B892309C0922B892B6A
:1024900006C0822B90910302892701C0822B0E94E3
:1024A0006B16ADC01F70EE2039F0812F0E947B1695
:1024B0008F2D0E943717A3C08F2D0E943017812FB8
:1024C0000E946F169CC092EFF91659F19F1538F0D3
:1024D000E0EFFE1659F0F1EFFF16E1F069C023EFCF
:1024E000F21631F184EFF81681F162C0EE2071F03E
:1024F000053008F080C01F7181E090E001C0880FB6
:102500001A95EAF79091030289271CC0063008F05B
:1025100072C0F1CFEE2039F0812F8F710E947B16AF
:102520006AC0EE20C9F3812F8F710E946F1663C0BD
:10253000EE2039F01F7181E001C0880F1A95EAF78B
:1025400001C080E00E946B1656C0EE20D1F0809151
:1025500056020E948720809159028770843039F496
:102560000E94A820812F8F710E946F1666C00530CF
:1025700008F063C01F71812F0E947B1663E0812FDA
:1025800010C090915C0280915602892B80935C026E
:10259000053050F00E94A8200E94CC2064E0812FDA
:1025A0008F710E94802249C081E00E94AF2045C007
:1025B000EE2039F0002309F4AFCF8F2D0E94981739
:1025C0001AC0002309F4AFCF99E3F91208C0EFEF66
:1025D000F7EE23E0E150F0402040E1F707C08FE73D
:1025E00098E3E1E081509040E040E1F700C0000056
:1025F0008F2D0E94411788EF8A0D843010F40E94BD
:102600001228BB20A9F08091590280FD11C0F6016B
:1026100012828595859585950E947B16C6010E943C
:10262000A00C809159028595859585950E946F161D
:1026300060E0C6010E94AF2CA5C0B12CE0CF0131F3
:10264000EFE51E0709F051CA82E02FCA0238FFE504
:102650001F0709F40ECB08F01ACB00388FE51807D6
:1026600009F035CB70CC81E08093D5010E9412280F
:1026700081FD36CB89E30E94341832CB02382FE536
:10268000120709F4F6CA08F059C000389FE5190787
:1026900009F426CB0138EFE51E0709F41DCB033FF3
:1026A0002CE51207A1F406E221EE40EE63EF7CE593
:1026B0000AC0073DFCE51F0709F012CB06E221EE38
:1026C00041EE67ED7CE5C6010E947929F2C9043F1D
:1026D0008CE51807A0F4083D9CE5190731F407E2E2
:1026E00025EE45EE68ED7CE5EECF093DECE51E07F5
:1026F00001F708E221E045EE69ED7CE5E4CF053F16
:102700002CE5120731F406E221EE42EE65EF7CE59E
:10271000DACF053F8CE5180730F407E225EE44EEEA
:1027200064EF7CE5D0CF063F9CE5190709F0D8CAD5
:1027300007E225EE46EE66EF7CE5C5CF0338FFE500
:102740001F0749F4F6018281882309F4C9CA82E08F
:102750008093D80114C004382FE5120709F4A1CAE8
:102760009ECF69E285CC8DE2E816F10409F461CAD6
:102770009DE2E91692E0F90609F073CA5ACAF60119
:102780009281B3CA0F900F900F900F90DF91CF916D
:102790001F910F91FF90EF90DF90CF90BF90AF907F
:1027A0009F908F90089580E090E00E94FC2780E049
:1027B00090E00E94E62710925B0210925A020C945D
:1027C0004322CF92DF92FF920F931F93CF93DF9319
:1027D0006C010091030280916002082BC7E0D0E0F9
:1027E00010E0C8010C2E02C0959587950A94E2F777
:1027F00080FD04C02197A8F7F12C09C0FC2EB6017A
:102800008C2F0E94552B0E946D1E019799F38F2DDE
:10281000DF91CF911F910F91FF90DF90CF9008959E
:10282000CF93DF93EC010E94E113BE010E94552B70
:102830000E946D1EDF91CF910895FC0186819781E2
:10284000009719F00E946D1E04C0808191810E9442
:102850001014292F2F70E92FE295EF704E2F50E0C2
:10286000FA013297EE30F105B8F4E558FF4F0C94B9
:10287000EC32803F99F018F4883E70F40FC0843F2A
:1028800059F40CC0883E50F0813F31F407C0822FCC
:10289000869586958695089580E0089581E008954F
:1028A0009F92AF92BF92CF92DF92EF92FF920F93DF
:1028B0001F93CF93DF93CDB7DEB765970FB6F8942C
:1028C000DEBF0FBECDBF8C0185E0F801DE01519661
:1028D00001900D928A95E1F7F801E28090910C0247
:1028E00060910D0240910F02509110024115510567
:1028F00031F06F3F31F481E09F3F19F403C081E074
:1029000001C080E0F82FF1709F2E80FD37C1F801E3
:1029100030812181C380D4807CE0A72E72E0B72E65
:10292000F0900E02F601E41BF50BFF2009F4F5C050
:1029300080911102E83CF10508F0B0C0482F407FBB
:1029400009F05AC062131BC0931319C060911202A0
:1029500070911302F801468157816417750779F465
:10296000FE2CE1100CC08F70806180931102C501B4
:102970000E94A00C80911102F80185833CC1CD28F2
:1029800031F02F3F31F481E03F3F19F403C081E083
:1029900001C080E080FD03C081E08E2502C080E0A0
:1029A00090E0F82FF170FF2E80FF1CC0809155023F
:1029B00040911402841709F4FCC090E0FC0153E03C
:1029C000EE0FFF1F5A95E1F7EB5EFD4F5181251386
:1029D00006C05081531303C05281E51203C0019613
:1029E0008770E8CFFE2CEE2009F405C1809111021A
:1029F0008160809311025EC0621315C0931313C0EF
:102A00004091120250911302F8012681378142173A
:102A1000530749F4E11007C08583C8010E94A00C48
:102A200088E0F80190C0C8010E941D14882381F13C
:102A3000EE2071F120911102822F82958F7090E02B
:102A40000297A4F080910C0290910D029A878987D9
:102A50001B86DD86CC862E87809112029091130210
:102A6000988B8F87CE0109960E94A00C88E0F80110
:102A7000ACE0B2E001900D928A95E1F70E94DC2073
:102A80000AC06217C9F0C8010E941D14811127C035
:102A9000C8010E94A00CFF24F394ADC0482F407FD2
:102AA00081F78CE092E00E94A00C88E0F501119281
:102AB0008A95E9F7F12C9FC09313E5CF409112025C
:102AC00050911302F8012681378142175307D9F636
:102AD000E110D9CF8583C8010E94A00C49C0EE2027
:102AE000B9F220911102822F82958F7090E00297A7
:102AF0000CF4BCCF80910C0290910D029A838983D3
:102B00001B82DD82CC822E8380911202909113026F
:102B100098878F83CE010196A7CFE83CF10540F559
:102B2000FE2CEE2009F4B4CF621314C0931312C02C
:102B30002091120230911302F801868197812817A3
:102B4000390741F488E0ACE0B2E001900D928A953B
:102B5000E1F751C0C8010E941D14811187CF8091F7
:102B60001102816080931102C8010E94A00C43C031
:102B700088E0F50111928A95E9F73DC0EE2009F44D
:102B800087CFC8010E941D14F82E882309F480CF36
:102B900088E0F801ACE0B2E001900D928A95E1F78F
:102BA00080910C0290910D020E9410140E94DC2072
:102BB00022C0398B2A8B89899A890E941014292F67
:102BC00022952F70223028F49F7039F0811105C0B2
:102BD0000BC0243028F49F7049F4805E883020F0C8
:102BE000C8010E94A00C9F2CF92C05C0F80195810A
:102BF000907F99F7F9CF8F2D65960FB6F894DEBFC9
:102C00000FBECDBFDF91CF911F910F91FF90EF903D
:102C1000DF90CF90BF90AF909F9008959E3F61F15D
:102C200028E0929F800D1124682F66956695669521
:102C3000982F977083E0689FB001112440E050E026
:102C400080E0FB01E40FF51FE652FE4F208130E0EB
:102C5000092E02C0369527950A94E2F72170332792
:102C6000042E01C0220F0A94EAF7822B4F5F5F4FB8
:102C70004330510531F7089580E008959E3F51F1AA
:102C800028E0929F800D1124E82FE695E695E695C1
:102C9000877051E001C0550F8A95EAF783E0E89FFD
:102CA000F0011124E652FE4F20E030E070E0408158
:102CB000CB01022E02C0969587950A94E2F78170A7
:102CC000819584278523842781932F5F3F4F23306D
:102CD000310569F70895809303020C94D31321E022
:102CE00030E001C0220F8A95EAF720958091030217
:102CF00082230C946B1621E030E001C0220F8A95EC
:102D0000EAF780910302822B0C946B168093600289
:102D10000C94D31310925C0286E0E6E0F2E0DF014F
:102D20001D928A95E9F70C94D313CF93DF93CDB717
:102D3000DEB760970FB6F894DEBF0FBECDBF298710
:102D40003A874B875C876D877E878F87988BCE010C
:102D500009960E945014811151C088E0FE013996F5
:102D6000DE01119601900D928A95E1F779856A85C9
:102D70004C855D854115510531F06F3F31F481E09F
:102D80007F3F19F403C081E001C080E080FD36C0C0
:102D9000A0911402B0E0CD0101968770992720918F
:102DA000550230E08217930781F179836A835D834E
:102DB0004C8393E0AA0FBB1F9A95E1F7AB5EBD4F22
:102DC00098E0FE01319601900D929A95E1F780937B
:102DD00014020E94D22012C028E0829FC001112458
:102DE0008B5E9D4F0E9450148823E1F08091550224
:102DF00090E0019687709927809355028091550243
:102E0000909114028913E8CF0DC00E948A16109287
:102E1000140210925502ECE0F2E088E0DF011D920E
:102E20008A95E9F760960FB6F894DEBF0FBECDBF66
:102E3000DF91CF910895882341F0809590915B02B6
:102E4000892380935B020C9443220895882339F0F0
:102E500090915B02892B80935B020C94432208952E
:102E6000882321F00E9487200C9443220895882310
:102E700039F090915C02892B80935C020C94432280
:102E80000895882309F453C0682F823869F40E949A
:102E9000122881FF4CC069E384E092E00E94CC27B5
:102EA0000E94432269E30EC0833891F40E941228E5
:102EB00080FF3DC063E584E092E00E94CC270E9441
:102EC000432263E584E092E00E94BF270C944322F2
:102ED000843869F40E94122882FF29C067E484E0E4
:102EE00092E00E94CC270E94432267E4EBCF8CEF54
:102EF000860F813A38F380E2860F883048F4677095
:102F000081E001C0880F6A95EAF70E948720DECF32
:102F10008BE5860F833020F480E090E00C94FC2752
:102F2000685A673120F480E090E00C94E627089519
:102F3000CF93882309F496C0C82F8238B1F40E9439
:102F4000122881FD8FC069E384E092E00E94CC27C3
:102F50000E9443222FEF81EE94E021508040904068
:102F6000E1F700C0000069E317C08338E1F40E9474
:102F7000122880FD77C063E584E092E00E94CC27B0
:102F80000E9443222FEF81EE94E021508040904038
:102F9000E1F700C0000063E584E092E00E94BF27F3
:102FA000CF910C9443228438B1F40E94122882FD00
:102FB00059C067E484E092E00E94CC270E9443223B
:102FC0002FEF81EE94E0215080409040E1F700C067
:102FD000000067E4E1CF8CEF8C0F813A80F4E6E0EB
:102FE000F2E08CE092E02191C217A1F18E179F07C9
:102FF000D1F76C2F84E092E00E94CC27D1CF80E201
:103000008C0F883068F4C77081E090E001C0880FB1
:10301000CA95EAF790915C02892B80935C02C0CF3D
:10302000EBE5EC0FE33040F4F0E0E05CFE4F808134
:1030300090E0CF910C94FC27C85AC73198F4EC2F3C
:10304000F0E0EE0FFF1FED5BFE4F80819181CF918D
:103050000C94E6276C2F84E092E00E94BF270E9428
:103060004322C7CFCF9108951F93CF93DF93182F9B
:10307000893319F0C9E1D0E002C0C0E5D0E0812F6A
:103080000E9498178FE99FE00197F1F700C00000B8
:103090002197C1F7812FDF91CF911F910C94411798
:1030A0008091FA0187FF11C08091E80082FD05C080
:1030B000809102028111F8CF11C08091E8008B77D6
:1030C0000BC080910202882349F08091E80080FFC4
:1030D000F8CF8091E8008E778093E8000895982FCC
:1030E000973068F59093E900981739F07091EC00EB
:1030F0002091ED005091F00003C0242F762F50E076
:1031000021FD02C09F5FECCF3091EB003E7F3093FA
:10311000EB003091ED003D7F3093ED003091EB00FE
:1031200031603093EB007093EC002093ED005093EE
:10313000F0002091EE0027FDE5CF80E008958F702C
:103140008093E90081E0089520910002309101020E
:103150002617370748F06115710539F42091E8000A
:103160002E772093E80001C0B901FC0120E0611531
:10317000710579F1809102028823F1F18530F1F136
:103180008091E80083FD3CC08091E80082FD2EC064
:103190008091E80080FFEBCF2091F3008091F20056
:1031A00090E0922B6115710551F08830910538F44B
:1031B00021912093F100615071090196F3CF21E034
:1031C000089709F020E08091E8008E778093E8006E
:1031D000CECF2111CFCF0AC080910202882361F0A7
:1031E000853061F08091E80083FD0AC08091E8009D
:1031F00082FFF2CF80E0089582E0089583E0089591
:1032000081E00895BC0184E00C940727BC0183E0B1
:103210000C94072780910302982F9670963011F432
:10322000886001C0877F0C946B161F93CF93DF9348
:10323000CDB7DEB7AA970FB6F894DEBF0FBECDBFED
:10324000EAEFF1E08091F100819342E0E230F4078F
:10325000C9F78091FB01833009F462C030F48130FA
:1032600071F0823009F49CC0B3C08A3009F488C080
:103270008B3009F46DC0893009F0AAC020C080915C
:10328000FA01813A09F0A4C08091E800877F809319
:10329000E8008091FE019091FF01892B21F468E004
:1032A0008FEE91E003C060E080E090E070E00E946B
:1032B000A4188091E8008B778093E80089C0809102
:1032C000FA01813209F084C08091FE019091FF01E2
:1032D000009719F0029709F07BC08091E800877F82
:1032E0008093E8008091E80082FD05C08091020291
:1032F0008111F8CF6DC02091F3008091F20090E031
:10330000922B029729F48091F1008B7F813021F478
:103310008091F1008093EE018091E8008B7754C09A
:103320008091FA01813A09F053C08091FE01909199
:10333000FF01892B09F04CC08091E800877F8093C2
:10334000E8008091E80080FFFCCF80910B0137C03E
:103350008091FA018132E1F58091FE019091FF01A7
:10336000892BB1F58091E800877F8093E8000E9467
:1033700050188091FC0180930B010E948A1628C08E
:103380008091FA01813221F58091E800877F809356
:10339000E8000E9450188091FD018093ED0118C053
:1033A0008091FA01813AA1F48091E800877F8093AF
:1033B000E8008091E80080FFFCCF8091ED018093D0
:1033C000F1008091E8008E778093E8000E94501809
:1033D0008091E80083FFE9C18091FA019091FB019F
:1033E000492F50E04A30510508F0DFC1FA01E75794
:1033F000FF4F0C94EC32803821F0823809F0D5C1AF
:1034000008C08091F7019091F801992389F08260BA
:103410000FC08091FE018F70873008F0C6C1809385
:10342000E9008091EB0085FB882780F91092E90084
:103430009091E800977F9093E8008093F1001092BC
:10344000F1007CC1282F2D7F09F0AFC1882319F02E
:10345000823061F0AAC18091FC01813009F0A5C1E0
:10346000933009F080E08093F8012EC08091FC0138
:1034700081112AC08091FE018F702FEF280F263016
:1034800008F093C18093E9002091EB0020FF1CC05D
:10349000933021F48091EB00806214C09091EB0096
:1034A00090619093EB0021E030E0A90102C0440F4D
:1034B000551F8A95E2F74093EA001092EA00809146
:1034C000EB0088608093EB001092E9008091E800A7
:1034D000877F8093E8000E94501867C1811165C101
:1034E0001091FC011F778091E3008078812B8093FD
:1034F000E3008091E800877F8093E8000E945018E5
:103500008091E80080FFFCCF8091E3008068809389
:10351000E300111102C082E001C083E08093020247
:1035200044C18058823008F040C12091FC013091A4
:10353000FD012C3D53E0350779F583E08A838AE26B
:1035400089834FB7F894DE01139620E03EE051E204
:10355000E32FF0E050935700E49120FF03C0E29581
:10356000EF703F5FEF708E2F90E0EA3010F0C7965B
:1035700001C0C0968D939D932F5F243149F74FBFB3
:103580008091E800877F8093E8006AE270E0CE01D6
:1035900001960E94A418C0C08091FE019091FF0185
:1035A000432F552743305105B1F068F441305105A0
:1035B00009F40AC14230510509F0F7C08BE590E0EB
:1035C000E6E9F4E057C04132510589F14232510534
:1035D00009F43CC0EAC0C901992781309105B9F0CE
:1035E00070F082309105D9F0039709F0DEC0E3E076
:1035F000F5E0E4918E2F90E0E3E0F5E038C0E1E7FC
:10360000F5E0E4918E2F90E0E1E7F5E030C0E5E5EC
:10361000F5E0E4918E2F90E0E5E5F5E028C0E1E2E9
:10362000F5E0E4918E2F90E0E1E2F5E020C08330F8
:10363000910508F0BAC0880F991FFC01E65CFE4FA7
:103640000190F081E02D89E090E014C08330910575
:1036500008F0ABC0FC01EE0FFF1FEC5CFE4F0190C9
:10366000F081E02DDC01AF5CBE4F8C9190E00097C3
:1036700009F49BC02091E800277F2093E800209167
:103680000002309101022817390708F4C90140E00F
:10369000009789F120910202222309F43DC02530D0
:1036A000D9F12091E80023FD37C02091E80022FDE8
:1036B0002FC02091E80020FFEBCF4091F300209134
:1036C000F20030E0342B009759F02830310540F4F7
:1036D00044914093F100319601972F5F3F4FF3CF14
:1036E00041E02830310509F040E02091E8002E77D4
:1036F0002093E800CDCF4111CDCF0AC080910202C6
:10370000882351F0853041F08091E80083FD04C0AA
:103710008091E80082FFF2CF8091E8008B77809360
:10372000E80043C0803809F040C08091E800877FFE
:103730008093E8008091F9018093F1008091E80086
:103740008E77C7CE811131C08091FC019091FD012F
:103750009927029754F58091E800877F8093E800CD
:103760001091FC011093F9010E945018111106C02C
:103770008091E30087FD02C081E001C084E0809376
:10378000020242E061EC81E00E946F1842E261ECCB
:1037900084E00E946F1842E261EC82E00E946F18A0
:1037A00042E260EC83E00E946F188091E80083FFA2
:1037B00010C08091E800877F8093E8008091EB0043
:1037C00080628093EB0005C082E190E0E1EFF4E0DD
:1037D00051CFAA960FB6F894DEBF0FBECDBFDF91D2
:1037E000CF911F9108951F920F920FB60F9211243F
:1037F0002F933F934F935F936F937F938F939F93F9
:10380000AF93BF93CF93DF93EF93FF93C091E90002
:10381000CF708091EC00D82FD17080FDD0E810924D
:10382000E9008091F000877F8093F00078940E94F7
:1038300015191092E9008091F00088608093F000E3
:10384000CD2BCF70C093E900FF91EF91DF91CF9125
:10385000BF91AF919F918F917F916F915F914F91A8
:103860003F912F910F900FBE0F901F901895E8ED8C
:10387000F0E080818E7F80831092E2001092DA0067
:103880001092E100A0EEB0E08C9181608C93808179
:103890008F77808319BCA7EDB0E08C918E7F8C93DD
:1038A00080818F7E80831092EC010895CF92DF9209
:1038B000EF92FF920F931F93CF93DF93C8EDD0E069
:1038C00088818F7E8883E7EDF0E08081816080834E
:1038D00084E082BF81E08093EC0188818E7F8883C1
:1038E00002EE10E0F80110821092DA0081EEC82E8C
:1038F000D12CF601108288818F7788838881806837
:10390000888388818F7D888319BC1092020210926F
:10391000F9011092F8011092F70190EEE92EF12CC6
:10392000F70180818B7F808388818160888342E07A
:1039300060E080E00E946F18F60180818E7F8083B6
:10394000F801808181608083808188608083F701B5
:1039500080818E7F8083888180618883DF91CF9191
:103960001F910F91FF90EF90DF90CF9008951F92DD
:103970000F920FB60F9211242F933F934F935F93A3
:103980006F937F938F939F93AF93BF93EF93FF9327
:103990008091E10082FF09C08091E20082FF05C0B2
:1039A0008091E1008B7F8093E1008091DA0080FFBD
:1039B0002AC08091D80080FF26C08091DA008E7FD7
:1039C0008093DA008091D90080FF18C080E189BD22
:1039D00082E189BD09B400FEFDCF81E0809302023F
:1039E0008091EC0181110FC00E94371C0E94561C6F
:1039F0008091E20084608093E20005C019BC1092BF
:103A000002021092EC018091E10080FF17C08091CA
:103A1000E20080FF13C08091E2008E7F8093E2007D
:103A20008091E20080618093E2008091D800806202
:103A30008093D80019BC85E0809302028091E10058
:103A400084FF2EC08091E20084FF2AC080E189BDFE
:103A500082E189BD09B400FEFDCF8091D8008F7D41
:103A60008093D8008091E1008F7E8093E100809167
:103A7000E2008F7E8093E2008091E200816080937B
:103A8000E2008091F901882311F084E007C0809161
:103A9000E30087FD02C081E001C083E08093020261
:103AA0008091E10083FF27C08091E20083FF23C063
:103AB0008091E100877F8093E10082E080930202A1
:103AC0001092F9018091E1008E7F8093E100809156
:103AD000E2008E7F8093E2008091E200806180931B
:103AE000E20042E060E080E00E946F188091F00008
:103AF00088608093F000FF91EF91BF91AF919F910B
:103B00008F917F916F915F914F913F912F910F9086
:103B10000FBE0F901F9018952091E4003091E500A2
:103B200095E64091EC00842F817040FF23C0809186
:103B3000E80080FD1DC080910202882399F0853045
:103B400099F08091EB0085FD11C04091E400509107
:103B5000E5002417350729F3915011F09A01E1CFC0
:103B600084E0089582E0089583E0089581E0089557
:103B700080E008954091E80042FFDDCF0895EF9284
:103B8000FF920F931F93CF93DF937C018B010E94D1
:103B90008C1D811119C0E70101151105A1F080915B
:103BA000E80085FD0AC08091E8008E778093E800E8
:103BB0000E948C1D882381F307C089918093F100B6
:103BC00001501109E9CF80E0DF91CF911F910F9152
:103BD000FF90EF900895CF93209102022430F9F4E2
:103BE000C091E900CF703091EC00232F217030FD9F
:103BF00020E8C22B22E02093E9002091E80020FF7A
:103C00000BC040E050E060E270E00E94BF1D809178
:103C1000E8008E778093E800CF70C093E900CF91E1
:103C2000089580E008959091980192FF0DC0282F8B
:103C30002871283019F4877F846006C0282F2471EA
:103C4000243011F48B7F886093FF0DC0282F2871DA
:103C5000283119F4877E846106C0282F247124310D
:103C600011F48B7E88612091990120FF0DC0382FBF
:103C70003871383019F4877F816006C0382F317170
:103C8000313011F48E7F886021FF0DC0282F2871FC
:103C9000283119F4877E816106C0282F21712131D6
:103CA00011F48E7E886194FD877E0895F894E82F44
:103CB000E295EF70F0E031A1282F2F7081E090E0C5
:103CC00001C0880F2A95EAF7982F9095932391A326
:103CD00092A1892B82A378940895CF93DF938238A1
:103CE000910569F1B0F48133910509F46FC048F48E
:103CF0008932910509F465C08A32910509F46BC0D7
:103D00008AC08533910509F457C089339105B9F00C
:103D100082C0833E910571F138F4803E9105B1F087
:103D2000823E910511F177C0863E9105B9F1873E3B
:103D30009105C9F1843E910509F06DC024C0209120
:103D4000980120FD53C021FD51C065C080919801AC
:103D500080FD46C08091990180FF48C08091980104
:103D600084FD3FC183EE90E03EC18091980182FFC7
:103D70003AC0F4CF8091980182FD35C080919901BD
:103D800080FD34C0EBCF8091990181FF35C08091D7
:103D9000980184FD26C187EE90E025C180919801AD
:103DA00083FF27C0F4CF8091980183FD22C08091CA
:103DB000990181FD21C0EBCF8091980185FD1FC045
:103DC00021C08091980185FD1DC019C08091980186
:103DD00086FD1BC01DC08091980186FD19C015C0CD
:103DE00089E390E000C182EE90E0FDC080EE90E0BB
:103DF000FAC086EE90E0F7C084EE90E0F4C089E26D
:103E000090E0F1C085E390E0EEC08AE290E0EBC084
:103E100081E390E0E8C0811532E5930708F069C0BE
:103E2000811541E5940728F0982F8827816F906AC3
:103E3000DAC0883E910568F5803E910508F0D3C050
:103E4000883A9105B8F4853A910548F0855AE82FEB
:103E5000F0E0E05CFE4F808190E09064C4C081306F
:103E6000910509F4BBC008F4BCC08430910508F486
:103E7000B8C0B9C08F3B910508F0B3C0885AE82F8D
:103E8000F0E0EE0FFF1FED5BFE4F808191819464A7
:103E9000AAC0811520E59207F0F09C0174E03695E8
:103EA00027957A95E1F7922F9370482F437021E080
:103EB00030E002C0220F331F4A95E2F73C68392BED
:103EC0008F70982F9695969540E2949FC00111248B
:103ED000822B932B88C0811530E4930718F09F70D4
:103EE000906A81C09C013A9521153F4108F47BC03E
:103EF00078C0EC01C11586E5D807E8F5C11525E5C0
:103F0000D20748F08C2F0E94131E8F7190E0982FDB
:103F10008827906268C0C11534E5D30728F09C2F2C
:103F20008827846F906A5FC0AE01437055272C2F9D
:103F300026952695C115D34578F481E090E002C01E
:103F4000880F991F4A95E2F740E2249F90011124BF
:103F5000822B932B9C6847C081E090E002C0880FC1
:103F6000991F4A95E2F740E2249F90011124822B89
:103F7000932B9A6838C0C1152AE5D207F8F4C11509
:103F800039E5D30790F08C2F8F700E94131E94E0B8
:103F9000D695C7959A95E1F7CF70D0E0DC2FCC2766
:103FA000D0699E01282BC9011EC0C11548E5D40760
:103FB000C0F09C2F8827806F906A15C0CE01905664
:103FC0008115904270F48D2F8F710E94131E282F3F
:103FD0002F71CE0199279062922B05C081E090E06D
:103FE00002C080E090E0DF91CF910895CF9384E00C
:103FF00090E00E945832C82F82E290E00E9458322E
:104000002C2F30E0A901582BCA01CF91089580E0F0
:1040100090E00E9466328A3E9E4F11F40C94E62294
:1040200080E008956AEE7EEF80E090E00E948A32A0
:1040300060E082E090E00E946C3260E083E090E01B
:104040000E946C321092600260E084E090E00E9476
:104050006C3260E082E290E00E946C3260E085E0C9
:1040600090E00E946C3260E086E090E00E946C324A
:104070006FEF87E090E00E946C3240E050E0BA01C0
:1040800088E090E00E947E3260E08DE090E00E9447
:104090006C3240E050E0BA0188E190E00E947E324C
:1040A00060E087E190E00E946C3240E050E0BA01AD
:1040B0008CE190E00E947E3260E070E080E290E06F
:1040C0000E948A3240E050E0BA0188E190E00E940C
:1040D0007E3280E00E94B9220E94D72240E050E068
:1040E000BA018FE090E00E947E3240E050E0BA01D9
:1040F00083E190E00C947E3280915F02882331F05E
:1041000010925F0210925E0210925D0208958095F7
:1041100090915C02892380935C020895CF93C091B3
:104120009901C2FB992790F9981781F080FBC2F999
:10413000C09399016091980184E090E00E946C32F4
:104140006C2F82E290E0CF910C946C32CF91089565
:10415000109259021092580210925702089520911D
:1041600059028095822380935902982F977041F4C9
:1041700030E0482F082E000C550B2417350721F48A
:104180009091990192FF07C08595859585950E942C
:104190006F160C94A82008958091560281111092F8
:1041A000560208958091550290911402891719F0D2
:1041B0008F5F8770FBCF08951F93CF93DF9380911C
:1041C000110282958F7009F05CC080910E028823E5
:1041D00009F457C0809155021091140260910C02AD
:1041E00070910D02C0910F02D091100291E06F3FCB
:1041F00009F090E0292F811709F443C0209721F09E
:104200007F3F21F030E003C031E001C0322F90E069
:1042100030FD34C0FC0133E0EE0FFF1F3A95E1F7AB
:10422000DF01AB5EBD4F11963C911197371326C04D
:104230003C91361323C012963C91129731111EC047
:1042400013964D915C9114974C1B5D0B483C5105A6
:10425000A8F4809111028F70806180931102E65E54
:10426000FD4F80818F70806180838CE092E00E949E
:10427000A00CDF91CF911F910C94D22001968770F2
:10428000BACFDF91CF911F9108959F92AF92BF92C5
:10429000CF92DF92EF92FF920F931F93CF93DF9312
:1042A00000D000D000D0CDB7DEB7AE014F5F5F4F7A
:1042B0007A0186E0FA0111928A95E9F703E211E0AA
:1042C0005A01CC24C394D12CF80180818F3F09F48A
:1042D00047C0F894E82FE295EF70F0E021A18F70CD
:1042E000A60102C0440F551F8A95E2F7CA01922F1A
:1042F000982B91A392A18095892382A3789400C0E2
:10430000E9E2F1E020E030E0912C41914F3FB1F043
:10431000A42FA295AF70B0E090968C9190E04F7072
:1043200002C0959587954A95E2F780FD07C08C2DD0
:10433000022E01C0880F0A94EAF701C080E0982A93
:104340002F5F3F4F2830310501F7F80180818F3F03
:1043500011F00E94561EF0EAFA95F1F7F5019082ED
:104360000F5F1F4FFFEFAF1ABF0A41E0093214077A
:1043700009F0AACF46E050E0B7018AE991E00E9437
:10438000433311E0009709F410E0892B89F086E0AF
:10439000F701AAE9B1E001900D928A95E1F781E079
:1043A000809363020E948A27909362028093610245
:1043B000809163028823A1F0809161029091620252
:1043C0000E947B27059760F0EAE9F1E0AFECB1E0ED
:1043D00081918D9351E0E03AF507D1F71092630295
:1043E00080911A01882341F18091EF039091F003AD
:1043F000009711F10E947B272091490330914A03D5
:1044000028173907C8F49091ED038091EE039817AF
:1044100059F00E94CA2810924A0310924903109240
:10442000F0031092EF0308C00E944C281092F00392
:104430001092EF030E94AB28812F26960FB6F894B6
:10444000DEBF0FBECDBFDF91CF911F910F91FF90C7
:10445000EF90DF90CF90BF90AF909F900895CF9353
:104460009091990192FD0DC090915F02981749F0CB
:10447000C82F0E948A2790935E0280935D02C093AA
:104480005F02CF91089590915C0280915B02892B2D
:1044900090915A02892B8093040280915F028823B5
:1044A00011F10E948A2720915D0230915E02821BE9
:1044B000930B8838934110F00E947C209091040265
:1044C00080915F02892B80930402E6E0F2E097E09E
:1044D00080E0915029F021912223D9F38F5FF9CF09
:1044E00081110E947C20E091F303F091F403309756
:1044F00031F00280F381E02D84E092E00994089588
:104500009091990192FD10C098E0899F900111242B
:10451000262B209359020E947B160E948A27909393
:1045200058028093570208950C947B160895809149
:104530007302882319F081508093730260916F0297
:104540007091700280917102909172020C94F92F17
:1045500080917302833018F48F5F809373026091AF
:104560006F027091700280917102909172020C94AE
:10457000F92FCF93C82F811102C06FEF01C06CE3F8
:1045800083E290E00E946C32C11102C06FEF01C063
:1045900067E384E290E00E946C32C11102C06FEFC9
:1045A00001C068E185E290E0CF910C946C3280E02C
:1045B0000E94B92260E086E290E00E946C320E9484
:1045C0009A2A0E94EC2981E00C94B92283E290E0BF
:1045D0000E9458328C3381F484E290E00E94583279
:1045E000873351F485E290E00E94583291E088319F
:1045F00009F090E0892F01C080E081700895882340
:1046000011F0FA0101C0FB01099480916F0280FF53
:104610000AC0539A8BB1877F9BB198602FB7F894EB
:10462000E4E7F2E00BC0E4E7F2E0118210821282CC
:10463000339632E0E23FF307C1F7EBCF32E0E23FDF
:10464000F30789F0319148E09BB9000000C037FFC3
:104650008BB9330F000000C000C000C08BB900C090
:104660004A9591F7EBCF2FBF8FE594E00197F1F7D3
:1046700000C000000895EF92FF920F931F93CF9315
:10468000DF938C01C4E7D2E0E12CF12CF8018481A6
:10469000F5E1EF16F1041CF4882351F002C08111FA
:1046A00007C040917202413708F040E79E0102C006
:1046B0009E0140E060917102809170020E941B3067
:1046C0008FEFE81AF80A23969AE2E916F104F1F658
:1046D0000E940523F801848190E00196817099275A
:1046E0008483DF91CF911F910F91FF90EF900895F8
:1046F0008F929F92AF92BF92CF92DF92EF92FF92F2
:104700000F931F93CF93DF93EC014C81042F10E0A4
:104710009801D8010E9401339B01AC010E9417331C
:104720006B017C01E0E2F0E0E01BF10BA5E5B0E0FD
:104730009B01AC010E9417334B015C019F01DF011B
:104740000E94F9329B01AC010E9422339B01AC0113
:104750002C0D3D1D4E1D5F1DC501B4010E94CA32C6
:10476000822FF22E99E2921728F093E0299F900170
:1047700011240DC025E530E0281B3109C901880F3F
:10478000991F280F391F37FF02C02F5F3F4F359504
:104790002795122F109594E7C92E92E0D92E00E0AC
:1047A00085E5E82EEF1801FD02C08E2D01C08F2D8A
:1047B000412F113708F040E79601609171020E9485
:1047C0001B300F5F83E0C80ED11C0A3261F70E94D4
:1047D00005238C81811102C091E003C0803219F45D
:1047E0009FEF9093190190911901890F8C83DF91AC
:1047F000CF911F910F91FF90EF90DF90CF90BF90DE
:10480000AF909F908F9008950F931F93CF93DF9356
:10481000C4E7D2E0FE01118210821282339682E058
:10482000E23FF807C1F700E010E080916D02082E2A
:10483000000C990B08171907ACF080911801082E8D
:10484000000C990B801791076CF040917202413770
:1048500008F040E79E0160917102809170020E9411
:104860001B3003C0198218821A820F5F1F4F2396D4
:104870000A321105D1F60E9405238091170190910B
:104880006D02980F90936D0220911801280F2093CC
:104890001801121614F499321CF0819580931701B7
:1048A000DF91CF911F910F910895BF92CF92DF9228
:1048B000EF92FF920F931F93CF93DF93FC018281BE
:1048C00080FF03C0DD24DA9402C0DD24D39404E722
:1048D00012E0C0E0D0E02AE2B22EF801118210828C
:1048E000128294E0E92EF12CC12C80916C028C0D87
:1048F0008B322CF06B2D0E94A832892F02C087FDCD
:10490000865D082E000C990BC817D907A9F4809171
:1049100072028E9DA0018F9D500D112455954795D3
:1049200055954795413708F040E79801609171022D
:10493000809170020E941B30CD0CF1E0EF1AF1085B
:10494000A1F621960D5F1F4FCA32D10531F60E94A4
:10495000052380916C0291E0D91206C0811102C03A
:1049600089E207C0815005C090E00196BE010E9417
:10497000B63280936C02DF91CF911F910F91FF901F
:10498000EF90DF90CF90BF900895EF92FF921F932A
:10499000CF93DF93EC0184E7E82E82E0F82E10E05D
:1049A00040917202413708F040E78C819701609195
:1049B0007102810F0E941B301A5F83E0E80EF11C28
:1049C0001C3F71F70E9405239A818C8190FF02C0E1
:1049D0008F5F01C081508C83DF91CF911F91FF9039
:1049E000EF90089590916F0290FF0CC0E4E7F2E021
:1049F000818360834283339692E0E23FF907C1F7F7
:104A00000C94052308950F931F93CF93DF9300D049
:104A10001F92CDB7DEB78C0180916E0281110AC062
:104A20009E012F5F3F4F40E76FEF0E941B308A814E
:104A300080936E02F8018481813051F028F0823039
:104A400061F440916E020AC080916E0240E007C09E
:104A500060916E0240E080E003C040E080E060E0F2
:104A60000E94F224F801848190E0019663E070E0F6
:104A70000E94B63284830F900F900F90DF91CF91F8
:104A80001F910F910895CF93DF9300D01F92CDB760
:104A9000DEB790916F0290FF0DC0413708F040E7FC
:104AA0009E012F5F3F4F0E941B304B8169818A819D
:104AB0000E94F2240F900F900F90DF91CF910895F4
:104AC000CF93DF93EC01EFE6F2E0438162818C81CA
:104AD0000E9443258C818F5F8C83DF91CF91089555
:104AE000CF93DF93EC01EC81F0E0E658FA4F44916C
:104AF000EFE6F2E0628181810E9443258C818F5F25
:104B00008C83DF91CF9108955F926F927F928F9205
:104B10009F92AF92BF92CF92DF92EF92FF920F934C
:104B20001F93CF93DF9300D01F92CDB7DEB7082F2E
:104B3000762E142F622E90916F0290FF74C0E92F91
:104B4000E695AE2FB0E0AF58BE4F8C9180936A02CD
:104B50009E7F923081F4413708F040E79E012F5F3D
:104B60003F4F672D802F0E941B304B8169818A81C6
:104B70000E94F22446C0823019F41091720241C0A2
:104B8000863019F4009170023CC08930D9F3893124
:104B9000C1F5E9518E2F8170582EE695F0E0EB5863
:104BA000FA4FA590B49084E7C82E82E0D82EE12C6D
:104BB000F12CBB249AE2892E912CAE9CC001AF9CB3
:104BC000900DBE9C900D1124B4010E942B32802FB9
:104BD000511002C0860F01C0861B412F113708F00B
:104BE00040E79601672D0E941B308FEFE81AF80A04
:104BF00083E0C80ED11C8AE2E816F104F1F60E94A7
:104C00000523009370027092710210937202662065
:104C100051F060916F0270917002809171029091D9
:104C200072020E94F92F0F900F900F90DF91CF9199
:104C30001F910F91FF90EF90DF90CF90BF90AF90BA
:104C40009F908F907F906F905F900895EFE6F2E0D5
:104C5000438120E1421B08F440E021E06281818130
:104C60000C948425EFE6F2E0438120E1420F08F442
:104C70004FEF21E0628181810C948425EFE6F2E020
:104C8000628120E1621B08F460E021E043818181C0
:104C90000C948425EFE6F2E0628120E1620F08F4D3
:104CA0006FEF21E0438181810C948425EFE6F2E0EF
:104CB000818121E04381628180510C948425EFE65B
:104CC000F2E0818121E043816281805F0C94842540
:104CD00060916F02669570E04BE050E08CE091E0EF
:104CE0000E943633892B19F481E080936B020E9475
:104CF0008A279093650280936402089590916F02D1
:104D000090FF36C09170811102C0926006C085325A
:104D100010F0986402C0880F982B90936F0266235E
:104D200051F060916F0270917002809171029091C8
:104D300072020E94F92F60916F02669570E04BE05D
:104D400050E08CE091E00E943633892B19F01092EC
:104D50006B0202C00E94682681E08093670220E017
:104D60004091720260917102809170020C948425CE
:104D700008958091EE01089524E02093E9002FEF3B
:104D80003091E800215035FD06C035ED3A95F1F738
:104D900000002111F5CF2091E80025FF0BC040E075
:104DA00050E066E070E00E94BF1D8091E8008E77C1
:104DB0008093E8000895CF93DF9321E02093E900EA
:104DC0002FEF3091E800215035FD06C035ED3A95C2
:104DD000F1F700002111F5CF2091E80025FF14C064
:104DE000EC0140E050E068E070E00E94BF1D80915F
:104DF000E8008E778093E80088E0FE01AFEEB1E036
:104E000001900D928A95E1F7DF91CF9108959091ED
:104E10000202943029F58093FC037093FE036093A3
:104E2000FD039093E9008FEF9091E800815095FD8C
:104E300006C095ED9A95F1F700008111F5CF8091AC
:104E4000E80085FF0DC040E050E063E070E08CEFCB
:104E500093E00E94BF1D8091E8008E778093E80068
:104E6000089581E08093E00080E28093D800109262
:104E7000C9008FE19EE40197F1F700C0000087E0D0
:104E800090EBDC018093FF0390930004A093010456
:104E9000B09302049CE088E10FB6F894A895809343
:104EA00060000FBE90936000FFCF78941F920F9226
:104EB0000FB60F9211248F939F93AF93BF9380915E
:104EC000F8039091F903A091FA03B091FB030196C6
:104ED000A11DB11D8093F8039093F903A093FA03E9
:104EE000B093FB03BF91AF919F918F910F900FBE35
:104EF0000F901F9018959C014FB7F8948091F8037C
:104F00009091F903A091FA03B091FB034FBF821B6C
:104F1000930B08952FB7F8948091F8039091F903BB
:104F2000A091FA03B091FB032FBF08951F920F9237
:104F30000FB60F9211248F939F93AF93BF938091DD
:104F4000F703811113C08091F8039091F903A091A8
:104F5000FA03B091FB034196A11DB11D8093F803A4
:104F60009093F903A093FA03B093FB03BF91AF9121
:104F70009F918F910F900FBE0F901F9018959C01DD
:104F80002A5F3F4FFC014281461301C01282019605
:104F900082179307B9F708959C01FC0132969FEFA1
:104FA00080E04191461789F09F3F19F4411101C0FB
:104FB000982F8F5F8630A9F79F3F39F0F901E90FED
:104FC000F11D97FDFA956283089508952091F503E8
:104FD0003091F6032817390771F09093F603809308
:104FE000F503E091F303F091F403309721F000848E
:104FF000F185E02D099408952091F1033091F20399
:105000002817390771F09093F2038093F103E09130
:10501000F303F091F403309721F00680F781E02D3F
:1050200009940895E091F303F091F403309721F08F
:105030000190F081E02D099480E00895BC01409139
:10504000ED038091EE03942F981729F1292F30E07A
:10505000F901EE0FFF1FEB51FC4F0190F081E02DA5
:10506000E617F70799F487E0869FF001879FF00D18
:105070001124E355FC4F81E0848394130CC02F5F0F
:105080003F4F237033272093ED0308952F5F3F4F49
:10509000922F9370D9CF08950F931F93CF93DF93DF
:1050A00080914C03882309F451C0C0914B031CE04C
:1050B00080914C03C81708F045C001E00C0F009325
:1050C0004B03D0E01C9FF0011D9FF00D1124E35B0A
:1050D000FC4F9081818123813481232B31F08F3FDC
:1050E00031F481E09F3F19F403C081E001C080E00A
:1050F00080FD26C01C9FD0011D9FB00D1124A35B15
:10510000BC4F16968D919C911797892B31F4189668
:105110008D919C911997019651F4208131814281A2
:10512000538164817581868197810E9495161C9FA9
:10513000F0011D9FF00D1124E35BFC4F14821382DC
:10514000C02FB6CF10924C0310924B03DF91CF913A
:105150001F910F91089510924A0310924903EDEAAE
:10516000F3E08581811102C014821682379683E0B4
:10517000E53EF807B1F708951092F0031092EF039F
:1051800010921A018091EE038093ED030E94AB28E8
:105190000C944C283F924F925F926F927F928F9225
:1051A0009F92AF92BF92CF92DF92EF92FF920F93B6
:1051B0001F93CF93DF93C091ED0397E0892E01E019
:1051C00010E02CE0322E3EEF932E44244394809145
:1051D000EE03C81709F478C0D0E0FE01EE0FFF1F00
:1051E000EB51FC4F80819181889ED001899EB00D4A
:1051F0001124A355BC4F14962C911497211161C012
:1052000050904C03EDE4F3E020E030E0712C5D01C0
:10521000251508F054C0E284F384D501CD90DC90CC
:105220006FEF7FEF612C462D50E0DA01AA0FBB1F14
:10523000AC0DBD1D0D90BC91A02D109731F0EA165C
:10524000FB0609F4BA016394EECF6F3FBFEF7B0713
:1052500091F1D80102C0AA0FBB1F6A95E2F77A2A22
:10526000B80102C0660F771F6A94E2F7AB014150A4
:105270005109672D70E046175707D9F4329EF001A7
:10528000339EF00D1124E35BFC4F889ED001899E74
:10529000B00D1124A355BC4F12962D913C9113973C
:1052A00037832683908291829187808715964C92CE
:1052B00006C0148213822F5F3F4F3C96A9CF0E94F5
:1052C0001E282196C37083CF0E944C28DF91CF9176
:1052D0001F910F91FF90EF90DF90CF90BF90AF9014
:1052E0009F908F907F906F905F904F903F900C9425
:1052F000AB280F931F93CF93DF93C42FD22FFC01C2
:1053000082818823C9F0409348030E948A279093A2
:1053100047038093460380E28C0F883008F057C023
:10532000C77081E001C0880FCA95EAF7DF91CF917D
:105330001F910F910C94371780914803481330C088
:1053400080914603909147030E947B27883C9105FA
:1053500038F510E21D0FCD17B9F080E28C0F8830C0
:1053600040F4C77081E001C0880FCA95EAF70E9437
:105370003017183028F581E09D2F977001C0880FF5
:105380009A95EAF70E943717802F0E943418183038
:10539000F0F4D77081E001C0880FDA95EAF70AC00F
:1053A00080E28C0F883098F4C77081E001C0880FCC
:1053B000CA95EAF7DF91CF911F910F910C943017A6
:1053C000802FDF91CF911F910F910C943418DF91B2
:1053D000CF911F910F910895CF93DF93C3E9D2E04E
:1053E00060E0CE010E946C322196C11584E0D8079E
:1053F000B9F7DF91CF9108950F931F93CF93DF9368
:10540000853068F5633058F5423048F521159CE544
:10541000390731F4E0914203F0914303EF2BF9F0A7
:105420008901282F34E0639FC00111243CE0239FB1
:10543000800D911D1124840F911D840F911DEC018D
:10544000C95FDD4F612FCE010E946C32602FCE010B
:105450000196DF91CF911F910F910C946C32DF91E7
:10546000CF911F910F9108950F931F93CF93DF93C7
:10547000853018F5633008F54230F8F4282F34E011
:10548000639FC00111243CE0239F800D911D1124D6
:10549000840F911D840F911DEC01C95FDD4FCE017A
:1054A0000E94583290E0182F0027CE0101960E94EA
:1054B00058329801282BC90102C080E090E0DF91AA
:1054C000CF911F910F9108950F931F93CF93DF9367
:1054D000853058F5663048F5483038F521159CE59B
:1054E000390731F4E0914203F0914303EF2BE9F0E7
:1054F0008901C42FD0E0CC0FDD1F90E1699FC00D62
:10550000D11D112490E6899FC00DD11D1124612F5A
:10551000CE0187960E946C32602FCE018896DF9173
:10552000CF911F910F910C946C32DF91CF911F910D
:105530000F9108956F927F928F929F92AF92BF9238
:10554000CF92DF92EF92FF920F931F93CF93DF934F
:10555000CDB7DEB72A970FB6F894DEBF0FBECDBF2A
:10556000A0904203B090430381E090E09093430306
:1055700080934203C12CD12C712C612CE12CF12C95
:1055800000E010E047018C0C9D1CF401E00FF11FBE
:10559000EE0FFF1FE658F94F25913491402F662DED
:1055A000872D0E94642A0F5F1F4F0830110569F78D
:1055B00088E0E80EF11C639496E06912E1CF10E0F8
:1055C00021E030E040E0612F872D0E94FC2921E09E
:1055D00030E041E0612F872D0E94FC291F5F1330CE
:1055E00079F77394E0E3CE0ED11CF5E07F12C5CFBE
:1055F000CE0101967C018AE0F70111928A95E9F7C4
:1056000003E412E04AE050E0B801C7010E94903282
:10561000065F1F4F0339F2E01F07A1F7B092430363
:10562000A09242032A960FB6F894DEBF0FBECDBFFC
:10563000DF91CF911F910F91FF90EF90DF90CF906E
:10564000BF90AF909F908F907F906F9008950F9331
:105650001F93CF93DF93853008F56630F8F4483018
:10566000E8F4C42FD0E0CC0FDD1F20E1629FC00D15
:10567000D11D112430E6839FC00DD11D1124CE0110
:1056800087960E94583290E0182F0027CE01889606
:105690000E9458329801282BC90102C080E090E096
:1056A000DF91CF911F910F910895462F20914403D0
:1056B00030914503232B49F4853038F4763028F4B3
:1056C000683018F4672F0C94272B80E090E0089541
:1056D000CF92DF92EF92FF920F931F93CF93DF93BE
:1056E000CDB7DEB72A970FB6F894DEBF0FBECDBF99
:1056F00080E5E2EFF2E0DF011D928A95E9F788E3A9
:10570000EDEAF3E0DF011D928A95E9F782EFC82EFA
:1057100082E0D82E7F0103E412E0F701D182C0823B
:105720004AE050E0B801CE0101960E94483288E07C
:10573000FE013196D60101900D928A95E1F7898597
:105740009A85D70113969C938E931297BAE0CB0E4D
:10575000D11CE7E0EE0EF11C065F1F4F0339F2E0AB
:105760001F07D9F62A960FB6F894DEBF0FBECDBF3D
:10577000DF91CF911F910F91FF90EF90DF90CF902D
:1057800008959C013A9521153F4130F5BC016627EB
:105790007270AC01442754709C012227387094FF2A
:1057A0000FC090FF02C080E101C080E0672B09F0CC
:1057B0008062452B09F08064232B79F0806808957E
:1057C000892F8170672B09F08260452B09F0846076
:1057D000232B19F08860089580E00895DF92EF92FE
:1057E000FF920F931F93CF93DF93E82FF0E0E657DC
:1057F000F74FD490282F26952695269530E0F9016D
:10580000E658F74F0491877010E0082E02C01595F6
:1058100007950A94E2F701701127F901E659F74F4D
:10582000E490F12C082E02C0F594E7940A94E2F774
:1058300091E0E922FF24F901E65AF74FC491D0E044
:1058400002C0D595C7958A95E2F7C170DD2701158D
:10585000110519F081EE0E949817E114F10419F076
:1058600086EE0E9498178D2D0E943418EF2819F0AB
:1058700086EE0E944117012B19F081EE0E9441171C
:10588000CD2B51F08CE2DF91CF911F910F91FF90C2
:10589000EF90DF900C943418DF91CF911F910F910E
:1058A000FF90EF90DF900895EF92FF921F93CF93B8
:1058B000DF93EC011AE08881882309F44AC0813023
:1058C00009F043C08981813041F47E0182E0E80E15
:1058D000F11C8A810E94341809C0823049F47E018B
:1058E000E2E0EE0EF11C8A810E949817E7012FC0BA
:1058F000833041F47E01F2E0EF0EF11C8A810E94B8
:105900004117F4CF843011F0219621C02A812296CC
:1059100080E090E030E0205331092A30310558F41E
:10592000189FA001199F500D1124C901840F951FC4
:1059300021962881EFCF009751F0EFE9FFE03197F2
:10594000F1F700C000000197F6CF0E94EE2B2196E0
:10595000B2CFDF91CF911F91FF90EF9008951F93E9
:10596000CF93DF9300D000D01F92CDB7DEB7FC01FC
:1059700086819781009709F5CF0125E0DE01119618
:1059800001900D922A95E1F7FC01228189819A818B
:10599000222359F0662349F00E94E113182F682F43
:1059A00089819A810E943E1603C00E940E16182F0C
:1059B00069817A81812F0E94552B0F900F900F9053
:1059C0000F900F90DF91CF911F9108950F931F9328
:1059D000CF93DF93C091D601D091D701CE019555D9
:1059E0008F3F910509F058F48C2FC4FF02C08295B7
:1059F000807FDF91CF911F910F910C942F228E0108
:105A0000005E1109CE010830110510F0209729F42D
:105A10000E94C12B0E94371704C00E94C12B0E9414
:105A200026178C2F0E9498178FE798E321E081506A
:105A300090402040E1F700C000008C2F0E944117E9
:105A4000CE010830110510F0CD2B41F40E94C12B7E
:105A5000DF91CF911F910F910C9430170E94C12BB1
:105A6000DF91CF911F910F910C941B171092D501CC
:105A70000E94122881FF03C089E30C943418089512
:105A8000DC01FB0180819181803891053CF08FE73A
:105A90008C93808191818F5791090AC081382FEFB3
:105AA00092074CF481E88C938081918181589F4FBB
:105AB0009183808308958C931182108208956817D2
:105AC00020F4861B682F21E002C0681B20E0469F5F
:105AD000A0011124649FC001659F900D1124917055
