:100000000C947B040C94C2040C94C2040C94C2049F
:100010000C94C2040C94C2040C94C2040C94C20448
:100020000C94C2040C94C2040C945E1B0C949A1A97
:100030000C9485260C94C2040C94C2040C94C20443
:100040000C94C2040C94C2040C94C2040C94C20418
:100050000C94C2040C9438260C94C2040C94C20470
:100060000C94C2040C94C2040C94C2040C94C204F8
:100070000C94C2040C94C2040C94C2040C94C204E8
:100080000C94C2040C94C2040C94C2040C94C204D8
:100090000C94C2040C94C2040C94C2040C94C204C8
:1000A0000C94C2040C94C2040C94C204700B8C0B0C
:1000B000930BCB0BDC0BE70BF70B0A0C490C4E0C2C
:1000C000A80CA80CA80C560CE60CF10C1C0D590D34
:1000D000B60D050E4D0E500E550EF50E5E0F3D136E
:1000E00048134D13521357135C13611366136B13AC
:1000F00070137513FB13FB13341434149614D115B9
:10010000D115D115B414281539153915A218C918E7
:100110007C1AC9187C1A151938197C1A391A491A07
:100120001E1D1E1D311D311D271D311D311D311D8F
:100130001E1D1E1D2C1D311D311D2C1DFD377A5815
:100140005A000004E6D6B446020021011600000061
:10015000742FE5A3E0085302455D003D8889C6542D
:1001600036C3174FE4F1E112FDEF008EFF6F938766
:10017000B42647FBB729D03483DA2C4E8C1ED4A288
:10018000101D9A2C5F0D89D296E2560F1E575FB450
:1001900010F19A9B18602D7EFBA74803850A09BBC6
:1001A00061BA19807BBF8567EF57236FF078893379
:1001B000D06222FCBD0E51E6DEAF7BE8DAA26055CC
:1001C0001D19D1FB286DE36D5BBD4122218BEA63D4
:1001D00083C8A2495A31655DBD002908EFA3B6E185
:1001E0009EAEF3D84A9B2F0D317CDC7AE26D5B8D9D
:1001F0009F4C1A0FEED72802735D24FAE0CD52AD62
:100200005FA9557D24C66E6096EE385461552D3534
:100210003326C0C365397C77239B589B7C90A1BF54
:10022000BD6D204BBF2FE0C2EF0363B5AC02FDD81C
:100230007142E85C47D08B8B08455CE2D1BD93A34B
:100240006E6B7B019B123EA7AB5EB577FDE833C6B4
:10025000F7BB8181344D4831C367B9E33A8438C074
:1002600073722F53E5B769DD775E305F2782C90F60
:10027000FEE70EAAEAE455B91AF196FE8AE7C52E02
:1002800076B72D2C05C44C4C9E75684B1B92247E72
:100290002B906DF9DE48E3E4A467E21B4A6CFA5A3E
:1002A00078AABE7A60553A67389C7FBA3B8D1B129C
:1002B0008E5FB2763748EB7D97222611EBAEEE4E7D
:1002C00087D5FA484DA991F4B5CBB4B735D19F4045
:1002D000D5E312191F76715BA303830EC87AFA73F4
:1002E000CC48F9436FBCADF442CCC64C8DA0FF9E08
:1002F000FAD6F6E65D11F9640DEDB69B5DBBDF9DA8
:10030000C9DF085FCD2BE31E49F9E211DE6CDC701A
:100310007AD4075AFF4099DBBCEA657B2A642CA497
:100320008220E55D181AD31FAF0B6F8A701E4C95A3
:10033000AE69E6EC7CAA614CAE2FD61C5296328C8C
:10034000661C8E0964B52368642875932C911DA0E2
:10035000C9AA1DFB9B345575DFAC63A36274506C56
:10036000FB2CCA5497D6DB2F5D6FDF76D5948A1E9F
:10037000A7855FE6802992D46176588C98975A6851
:1003800026CDB1651D8D8A5C5236D1C421A22A8347
:1003900066E99C0CB0428FBD51715A73ABE82CB02A
:1003A00000000000896E945E7653C6190001E104D6
:1003B000D41000008437DD5EB1C467FB020000008A
:1003C0000004595A0000000001000A000200010068
:1003D0000300020011000300120004001A000500CF
:1003E0001B0006001C0007001D000800200009007B
:1003F0002E200005010980A101850319012AB700FB
:10040000150126B700950175108100C0050C090182
:10041000A101850419012AA002150126A002950157
:1004200075108100C00660FF0961A1010962150015
:1004300026FF009520750881020963150026FF003C
:10044000952075089102C005010906A1010507194B
:10045000E029E715002501950875018102950175D0
:100460000881010507190029FF150026FF009506E0
:100470007508810005081901290595057501910286
:10048000950175039101C009025B00030100A0FA08
:1004900009040000010301010009211101000122EA
:1004A00040000705810308000A0904010002030057
:1004B000000009211101000122220007058203200A
:1004C00000010705030320000109040200010300E5
:1004D00000000921110100012232000705840320D8
:1004E000000A1201000200000008FEFEBBFF01002E
:1004F000010203011C037600690061006C003A00F0
:10050000660036003400630032006200330063008E
:100510000000320373006100640065006B0062003C
:10052000610072006F0075006400690020006600C1
:1005300066006B0062005F00620079006F006D0072
:100540006300750000001A03730061006400650019
:100550006B006200610072006F007500640069004A
:10056000000004030904290014001A000800150003
:1005700017001C0018002B0004611668076409624C
:100580000A000B000D72E1001D001B00060019009F
:10059000050011001000000000000E74370012006A
:1005A000337138002A0000002B0436000C000F784D
:1005B0001300E50034002A01A8004C003100280097
:1005C000015102512C0001001E021F0220022102D3
:1005D0002202230224020100015302530353045355
:1005E000010001002D02010039000100010001009D
:1005F000010001000100000000002E02310226026D
:1006000030023402010000000100010025022F0227
:1006100027020100010001000100010001000100AA
:1006200001000351010035001E001F0020002100C1
:100630002200230024004A005000510052004F00C5
:100640002B0001002D00010001004E004B000100B5
:10065000815F845F825F000000002E0001002600A1
:1006600030000100010000000100835F25002F0021
:10067000270001000100010001000100010001004C
:100680000351010001000100C25CC45CC35C0100B5
:1006900001003A003B000100CB5CC55CC75CC95C53
:1006A00001003F0040000100CC5CC65CC85CCA5C35
:1006B00001004400450000000000410001003D0031
:1006C0004300005C01000000010001003C0042000A
:1006D0003E000100010001000100010001000100D5
:1006E0000100010001000100010001000100010002
:1006F00001000100010001000100010001000100F2
:1007000001000100010001000100010001000100E1
:1007100001000100010000000000010001000100D3
:1007200001000100010000000100010001000100C2
:1007300001000100010001000100010001000100B1
:1007400001000100010000000000000000000000A6
:100750000000000000000000000000000000000099
:10076000000000000000000000007E0F00D4FFFF2A
:10077000FFC70000007800000000000000002A2BE6
:100780002800000000000000000000000000000041
:100790000029000000002C1E3420212224342627AA
:1007A000252E362D3738271E1F20212223242526CB
:1007B0003333362E37381F0405060708090A0B0C99
:1007C0000D0E0F101112131415161718191A1B1CE1
:1007D0001D2F3130232D350405060708090A0B0C9F
:1007E0000D0E0F101112131415161718191A1B1CC1
:1007F0001D2F3130354C00010101010101010101C2
:1008000002020202020202020203030303030303C1
:10081000030404040404040405050505050606068E
:100820000606070707070708080808090909090A4B
:100830000A0A0B0B0B0C0C0C0D0D0D0E0E0E0F0FF0
:100840000F1010111111121213131414151516167E
:100850001717181819191A1A1B1B1C1D1D1E1E1FED
:100860002020212222232424252626272829292A3C
:100870002B2C2D2D2E2F3031323233343536373864
:10088000393A3B3C3D3E3F40414243444546474860
:10089000494A4C4D4E4F50515354555658595A5B36
:1008A0005D5E5F616264656668696B6C6D6F7072D6
:1008B000737577787A7B7D7E8082838587888A8C42
:1008C0008E8F91939596989A9C9EA0A2A3A5A7A976
:1008D000ABADAFB1B3B5B7BABCBEC0C2C4C6C9CB6D
:1008E000CDCFD1D4D6D8DBDDDFE2E4E7E9EBEEF023
:1008F000F3F5F8FAFDFF11241FBECFEFDAE0DEBFFB
:10090000CDBF04B603FE27C080916A0590916B05A8
:10091000A0916C05B0916D058730904BA740B04B0E
:10092000D1F410926A0510926B0510926C0510922A
:100930006D0514BE84B7877F84BF0FB6F894A89561
:1009400080916000886180936000109260000FBE0B
:10095000E0E0F8E3099512E0A0E0B1E0EEE4F4E6AF
:1009600002C005900D92A232B107D9F725E0A2E2AC
:10097000B2E001C01D92AA36B207E1F70E94C4049A
:100980000C9425320C940000CF93DF93CDB7DEB7E3
:10099000E4970FB6F894DEBF0FBECDBF84B7877F54
:1009A00084BF0FB6F894A895809160008861809309
:1009B0006000109260000FBE90E080E80FB6F894DF
:1009C00080936100909361000FBE85B7806885BFFA
:1009D00085B7806885BF85E391E290932302809379
:1009E00022020E94572A0E94DE1A0E94FD1A80915C
:1009F000E20084608093E200789480916003882311
:100A0000A1F01091E9001F709091EC00892F817086
:100A100090FD80E8182B1092E9008091E80083FD9A
:100A20000E94BC171F701093E90082E084BD93E020
:100A300095BD9AEF97BD80936E000E94192F81118A
:100A400002C00E940A2F0EE111E054E2E52E51E0AF
:100A5000F52ED8018D918D018F3F11F00E947A21E2
:100A6000E016F106B1F704E211E04CE2E42E41E0B9
:100A7000F42EF80181918F018F3F11F00E947A21AD
:100A8000E016F106B1F7E6E2F2E08CE292E0AFE3C5
:100A9000B3E011921D928E179F07D9F70E9415247B
:100AA000811102C00E94202482E090E00E9438312F
:100AB0008093B6020E94042490932502809324021E
:100AC0000E9491218FE39CE90197F1F700C000009B
:100AD0000E94912180913F0380FF08C06FEF7FEF5C
:100AE00080E090E00E9474310E94142683E090E040
:100AF0000E9438310E946B1F10928C02E5EAF2E0EE
:100B000085EB92E02FEF3FEF219331938E179F07F4
:100B1000D9F710922C02E5E4F2E085E592E02FEFA0
:100B20003FEF219331938E179F07D9F70E94152429
:100B3000811104C00E9420240E94CD2F46E050E085
:100B40006CE170E085E693E00E94283180916503B6
:100B50008C7F11F40E94CD2F80E091E09093E0040F
:100B60008093DF0430E4232E80916003853009F008
:100B700044C000E112E180916003853009F039C082
:100B800080916003843019F11092E304A8E1B0E091
:100B90000FB6F894A895A09360000FBE2092600055
:100BA00083B7817F846083BF83B7816083BF78947C
:100BB000889583B78E7F83BF0FB6F894A8958091F0
:100BC0006000886180936000109260000FBE809189
:100BD0005603882309F4CFCF0E949121EFE3F3E07D
:100BE00081918111BAC625E433E02E173F07C1F782
:100BF000C2CF0E946F1F0E9401270E949121811184
:100C00000E946D26A7EBB2E0EFE3F3E0C12CD12CFC
:100C1000AC2C81919D91982709F43FC1B12C11E032
:100C2000292F212309F434C1BBA6ACA6082F012328
:100C300081E009F480E08DA70E9479268160782FF9
:100C40009FA78EA74BA55CA56DA58FA50E94D52B50
:100C5000F601E954FD4F808118271083002389F0A5
:100C6000F60123E0EE0FFF1F2A95E1F7E55CFE4F4A
:100C7000EB0DF11D80818F3F21F0382E9924939444
:100C800001C0912C092D10E080912C02D801A80FF1
:100C9000B11D1997ACF188E090E07C01E01AF10AEF
:100CA000B8016F5F7F4F645D7D4FA7018DE292E0D9
:100CB0000E941532B801675F7F4F645D7D4FA701C9
:100CC00085E392E00E941532A701440F551FB80139
:100CD000660F771F675E7F4F645D7D4F85E492E00E
:100CE0000E941532B8016F5E7F4F645D7D4FA70192
:100CF0008DE392E00E94153288E0891980932C02DE
:100D000080912C0290E0A32DB0E09D01220F331FB3
:100D100025593E4FAA0FBB1FBD0164597E4F41E0CC
:100D2000480F9915A8F490E0FC01E45DFD4FD9014E
:100D30005C915183DB015C915187318A880F991F47
:100D4000FC01E45DFD4F128E118E91E0842FE7CF00
:100D500080932C02809165038C7F803209F0B5C0AE
:100D60008FEF8A0D21E02A0DEFEFEB0D91E09B0D47
:100D7000A60163E0440F551F6A95E1F7EB1558F49F
:100D8000DA01A45ABD4FAE0FB11D3C9160E1360FA0
:100D900008F43FEF3C936B2D70E0445A5D4FDA014D
:100DA000A60FB71F3C9110E2310F08F43FEF3C93C0
:100DB000983049F0DA01A90FB11D3C9140E1340FA0
:100DC00008F43FEF3C93263071F130E0EB1580F4EE
:100DD000D90153E0AA0FBB1F5A95E1F7A45ABD4FA2
:100DE000AE0FB11D4C915DE0450F08F44FEF4C93F1
:100DF00043E0220F331F4A95E1F7245A3D4FD901B2
:100E0000A60FB71F4C9150E1450F08F44FEF4C93DC
:100E1000983049F0D901A90FB11D2C913DE0230F65
:100E200008F42FEF2C938A1508F04FC0282F30E0DC
:100E3000EB1590F4A90103E0440F551F0A95E1F763
:100E4000445A5D4FDA01AE0FB11DFD0140815DE0F6
:100E5000450F08F44FEF4083F90113E0EE0FFF1F39
:100E60001A95E1F7E45AFD4FDF01A60FB71F2C9149
:100E700030E1230F08F42FEF2C93983031F1E90F74
:100E8000F11D20813DE0230F08F42FEF20831DC0CA
:100E9000B394110F28E0B212C3CE3FEFC31AD30AA6
:100EA00046E0C416D10409F0B3CE8FEF88AB89AB0E
:100EB0001AAA0E9479268160782F9CAB8BAB48A937
:100EC00059A96AA98CA90E94D52B809155029091AD
:100ED0005602A0915702B09158022FB7F894C090D3
:100EE000E404D090E504E090E604F090E7042FBF1E
:100EF000C81AD90AEA0AFB0A0E946D2660935502B5
:100F0000709356028093570290935802A0912C023E
:100F1000ECE2F2E02A2F30E088248A94982CA12C6D
:100F2000B12C8C189D08AE08BF08A31799F0418D0D
:100F3000528D2A01612C712C84149504A604B704E7
:100F400010F4215004C04C0D5D1D528F418F3F5F46
:100F50003296EBCF20932C0230916503232F237020
:100F600021F0D32ED694D69401C0D12C2091120119
:100F70002130E1F030F02230E9F1233009F446C0AD
:100F800069C010920E0160936103709362038093B5
:100F900063039093640389E2ECE2F2E0ACE8B2E030
:100FA00001900D928A95E1F781E02DC090910B019F
:100FB000D9120DC0832F837090E040910A0150E058
:100FC00021E08417950709F420E0822F01C081E019
:100FD00081708093100180916A0390910F0198179E
:100FE00009F4DAC480930F0140E060E080E00E94E1
:100FF000C12FD2C4D0920B01832F837080930A013A
:101000000E94C62E83E08093120124C08091EB04DD
:1010100081110E94C52F1092EB0440916103509101
:10102000620360916303709164032FB7F894809119
:10103000E4049091E504A091E604B091E7042FBF89
:10104000841B950BA60BB70B4097A105B10510F0BB
:10105000109212010E9401279091B502891721F088
:101060000E9401278093B50280916003843009F0CB
:101070007BCD83E08093E9008091E80082FF74CD0E
:101080008091E80085FF21C00E94331C81111BC0A4
:1010900000E210E0FE0131967F0108C08091F1006E
:1010A000D7018D937D010150110969F08091E8000D
:1010B00085FDF4CF8091E8008B778093E8000E9453
:1010C000331C882399F391E001C090E08091E800FF
:1010D0008B778093E800992309F446CDE0903004A3
:1010E000F09031048981E114F10459F08E3F09F048
:1010F0002FC49A819330A8F19550933008F028C4FA
:1011000030C08B3009F4C9C248F5853009F47EC07F
:10111000B8F4823009F442C030F4813009F016C4CA
:101120001A8289E0B4C3833009F461C0843009F0C5
:101130000DC44C816B818A810E94162A9D832AC42A
:10114000873009F471C008F46CC0883009F4E3C03A
:10115000893009F0FBC30E94C52FFAC3803109F41E
:10116000DEC18E010F5F1F4F813160F48D3009F4B5
:1011700078C108F474C18E3009F477C18F3009F456
:101180009FC1E4C3823109F4CFC108F4CBC18331DC
:1011900009F4F4C18E3F09F497C2D8C38A81823022
:1011A00009F4F1C3833051F0813009F0CFC30E94BC
:1011B0006D269B838C837D836E83CAC380912E04AE
:1011C00090912F04892B09F4C3C380913F038B8333
:1011D000809140038C83809141038D8380914203F1
:1011E0008E83809143038F8380914403D8C08A818A
:1011F000823009F0ABC36B817C818D819E810E941E
:10120000DF3186E290E00E945631A2C32D813E81FB
:101210003227232732274C816B818A810E945329F0
:1012200097C30E94892994C38A81813421F0823432
:1012300009F43BC08DC34B815C8180916503982F7D
:1012400093704115510539F49111109212018C7F60
:10125000809365031FC0911102C0109212018C7F10
:1012600081608093650324EC33E060EF73E0F90163
:10127000329685919491F901A591B4914A175B0733
:1012800031F02C5F3F4F6217730789F780E060E011
:101290000E94932F8D81809369038E8120E0488581
:1012A0006F8190E00E94382F53C34B815C818D8108
:1012B000B3E08B9F900111242E3131050CF048C30F
:1012C000DE011196FA01EE0FFF1FE40FF51FEF5339
:1012D000FD4F20E030E090E02817390708F038C3D0
:1012E0001396B901640F751F6A32710508F030C397
:1012F00012966C911297608313966C911397618389
:1013000014966C911497613708F060E762832F5F41
:101310003F4F3396E1CF8A81823409F442C028F4EA
:10132000803451F0813471F013C3833409F45AC00E
:10133000843409F45AC00CC381E08B831C8280E79B
:101340008D8306C380916503982F9370B1F08695C5
:10135000869590E024EC33E060EF73E0F90132967B
:10136000A591B491F901459154918A179B0741F0D9
:101370002C5F3F4F6217730789F790E080E002C04F
:10138000942F852F9B838C83809169038D8380911B
:1013900066038E83809167038F83809168038887BB
:1013A000D7C20B811C814EE150E06FEF70E0CE019F
:1013B00003960E941E3284EC93E040EF53E0DE017E
:1013C00013966EE1FC01259134910217130728F45E
:1013D000623018F02D933D936250049648175907D8
:1013E00089F7B6C28AE28B839CC18B8190E08A32F6
:1013F00091050CF0ADC2FC01EE0FFF1FE559FE4F49
:1014000020812B83FC01EE0FFF1FE55CFE4F21A91D
:101410002C83FC01E154FE4F20812D832FEF2F837D
:101420002E836BE371E040E050E020E030E0FB0110
:10143000E20FF31FE081F0E08E179F0719F44E834F
:101440002F8386C22F5F3F4F2830310581F74F5FD2
:101450005F4F685F7F4F4630510539F779C280E1B1
:1014600032C281E08A838DE612C2EA80FB80FE24CC
:10147000EF24FE24AC80B12CEDE1AE16B10408F0EF
:1014800067C26801C7018D569D4F9601201B310B25
:101490002A153B0508F05CC2FDE6EF16F1E0FF06F9
:1014A00030F40E943831D60114968C9302C0F601B4
:1014B0001482FFEFEF1AFF0A2FEFC21AD20AE2CF0F
:1014C00080912E0490912F04892B09F441C2EA8067
:1014D000FB80FE24EF24FE24CC80D12C3DE1C316FA
:1014E000D10408F035C25801C7018D569D4F9501B2
:1014F000201B310B2C153D0508F02AC24DE6E416E1
:1015000041E0F40628F4D50114966C910E945631FE
:10151000BFEFEB1AFB0AEFEFAE1ABE0AE5CF0E944F
:10152000DB2816C285E0CFC1EA80FB80FE24EF24D1
:10153000FE24AC80B12CFDE1AF16B10408F008C266
:101540006801C70187969601201B310B2A153B05C0
:1015500008F0FEC120EEE21621E0F20630F40E940F
:101560003831D60114968C9302C0F6011482FFEF35
:10157000EF1AFF0A2FEFC21AD20AE3CFEA80FB80EC
:10158000FE24EF24FE24AC80B12C3DE1A316B1046F
:1015900008F0DEC140EEE41641E0F40608F0D8C1E0
:1015A00080EE91E08E199F098A159B0508F4D0C141
:1015B000370187E2680E711C80912E0490912F04F0
:1015C000892B11F0680160C0E0FE0FC0C70186964C
:1015D0000E94383190E0982F88272D81822B811529
:1015E0009C4531F48FEF8D8303C0C12CD12C03C0F7
:1015F000CC24C394D12CC5018E0D9F1D450180FFC5
:101600001BC0B1E08B1A910855E0452E512C4C0EB1
:101610005D1E480C591CC3018A0D9B1D0E94383168
:10162000F201208130E0322F2227282B21153C4562
:1016300019F48FEFD2018C93F801EC0DFD1D2FEF03
:10164000CF01801B910B8815990508F0BBCF8481D1
:1016500090E0982F88273581832B81159C4511F4C4
:10166000248325833296ECCFE0EEEE16E1E0FE0611
:1016700028F4D60114966C910E945631BFEFEB1AF4
:10168000FB0AEFEFCE1ADE0AC70187969601201BF0
:10169000310B2A153B0540F35BC180912E049091DC
:1016A0002F04892B09F454C1CE0101960E94921C8B
:1016B000FFEF21EE34E0F15020403040E1F700C070
:1016C00000000E94142644C1EA818E2F90E08E30E3
:1016D000910508F03DC1FC01EA5AFF4F0C94D93145
:1016E00088E0E3E1F1E0DE01919601900D928A95A8
:1016F000E1F780E2D8011D928A95E9F784E08983B9
:1017000088E0FE01B196DE01159601900D928A9552
:10171000E1F781E08D871CC188E8898382E08A83B4
:101720001B821C8215C18C8190E0982F88272B8109
:10173000820F911D092E000CAA0BBB0B35E0880F00
:10174000991FAA1FBB1F3A95D1F7AC01BD01405E9E
:101750005F4F6F4F7F4F481759076A077B0708F4A1
:10176000F7C08838E2E09E07A105B10508F0F0C097
:101770004938F2E05F076105710520F048E852E062
:1017800060E070E0481B590BBC01645C7E4FC801EF
:101790000E941F31DDC01B810C8140E0602F812F32
:1017A0000E94232999838A8341E0602F812F0E9420
:1017B00023299B838C83CCC02E813F813227232712
:1017C00032274D816C818B810E94EB28C1C040E2A1
:1017D00050E06FEF70E0C8010E941E3280912E042D
:1017E0008983EA821B821C821D8281E0D3C081E052
:1017F00090E0909331048093300482E390E09093E2
:10180000C0028093BF020E9479269093BE0280930B
:10181000BD029EC0EF2899F110913F0311FB88276C
:1018200080F918238091BD029091BE020E945E262D
:1018300085369105F0F01123E1F00E94792690930E
:10184000BE028093BD028091BF029091C0020197B9
:101850009093C0028093BF02892B89F410923104C7
:101860001092300481E090E090932F0480932E0436
:1018700006C082E390E09093C0028093BF02809103
:101880002E048983809130048A838091BF028B83E8
:101890005FC010922F0410922E045AC040E250E014
:1018A0006FEF70E0C8010E941E3252C08B818330FE
:1018B00061F0843061F181114BC080E2D8011D924A
:1018C0008A95E9F788E08A8343C06C81CE018196CE
:1018D0002AE0FC0111922A95E9F7683060F4FAE0F9
:1018E0006F9FB00111246D5B7D4F4AE050E00E9474
:1018F000283180E001C08FEF89838AE0FE01B19634
:10190000DE01129601900D928A95E1F721C06C815B
:101910008AE0FE013596DE01919601900D928A953E
:10192000E1F7683070F42AE0629FB00111246D5B2A
:101930007D4F4AE050E0CE0181960E947A3180E0EE
:1019400001C08FEF89830E94572A02C08FEF8983DD
:10195000CE0101960E94921C07C909BD19BD09B4A8
:1019600000FEFDCF8091D8008F7D8093D8008091BC
:10197000E00082608093E0008091E00081FDFCCF78
:101980000E946F1FF8C886E290E00E9438311B82E7
:101990001C821D828E83DCCF8D2D90E08B309105D3
:1019A00080F080910E018F5F80930E0182E0809322
:1019B00012018091100181114DCBDD2009F422CB61
:1019C00049CBFC01EC59FF4F0C94D93180911001A7
:1019D000882309F49DC240E060E080E00E94C12FAE
:1019E00097C210910E0189E0189F102D112409E073
:1019F000010F0B3208F00AE26091660370916703F1
:101A0000809168030E948F30F62EE72EC82E1017A3
:101A100008F03EC1E12FF0E0DF01A154BE4F8C91F0
:101A200090910F01982331F02C2D4F2D6E2DCF0169
:101A30000E94C32F1F5FEBCF10910E0189E0189F0A
:101A4000102D112409E0010F0B3208F00AE2E0909A
:101A50006703F0906803C09066036C2D7E2D8F2D78
:101A60000E948F30B62EA72E982E609169036C0DC0
:101A70007E2D8F2D0E948F30F62EE72EC82E101748
:101A800008F006C1812F90E0FC01E154FE4F308147
:101A900020910F01232359F030FF04C02C2D4F2D2E
:101AA0006E2D03C0292D4B2D6A2D0E94C32F1F5F61
:101AB000E6CFF0900E0189E0F89EF02C112469E049
:101AC000E62EEF0C8AE28E1510F45AE2E52E6091B4
:101AD0006903669580916103909162030E9485304D
:101AE000C82EFE1408F010C20F2D10E0F801E154CA
:101AF000FE4F908180910F018923B1F1F801EE0F23
:101B0000FF1FE559FE4F408150E044565109F8014E
:101B1000EE0FFF1FE55CFE4F21A930E02052310996
:101B2000449FB001459F700D700D1124229FC0018C
:101B3000239F900D900D1124860F971F0E942B302C
:101B400090916703A3E08A9FB00111247595679572
:101B50006C0D792F809168030E948F30462F282FBB
:101B6000672FC8010E94C32FF394BBCF10910E01C1
:101B700089E0189F102D112499E0C92EC10EEAE2C8
:101B8000EC1510F48AE2C82E609169036695809185
:101B90006103909162030E948530B82E1C1578F580
:101BA000E12EF12CF701E154FE4F908180910F015D
:101BB000892319F1F701EE0FFF1FE55CFE4F21A904
:101BC00030E020523109F701EE0FFF1FE559FE4FBB
:101BD000408150E04456510960916603709167035B
:101BE000809168030B2D0E945C300E948F30462F3D
:101BF000282F672FC7010E94C32F1F5FCFCF81E01F
:101C0000F9E2FC1508F085C183C110910E0189E04D
:101C1000189F102D112409E0010F0B3208F00AE281
:101C2000E0906703F0906803C090660360916903D9
:101C300066956695669580916103909162030E9416
:101C400085300E94E62F805887FD8195880F682F88
:101C50002CE0629F612D11246C0D7E2D8F2D0E9432
:101C60008F30F62EE72EC82E101790F4E12FF0E0FB
:101C7000DF01A154BE4F8C9190910F01982331F058
:101C80002C2D4F2D6E2DCF010E94C32F1F5FECCF47
:101C900081E00A3208F43DC13BC187E090E302C015
:101CA00085EB9EE20E946E1734C1E0900E0189E040
:101CB000E89E102D1124A9E09A2E910E20E32915FB
:101CC00010F4F0E39F2E80911001882361F040E032
:101CD00060E080E00E94C12F80E3ECE5F2E0DF01EC
:101CE0001D928A95E9F780910E01811115C08091AE
:101CF0005A0290915B020E945E2621E08931910593
:101D000008F420E020935902499730F00E94792688
:101D100090935B0280935A02E12EF12C492C512CB6
:101D2000EAEA8E2EE414F5040CF059C0C70166E00F
:101D300070E00E94A6318B013C0173E0660C771CB9
:101D40007A95E1F7F301E45AFD4FE00FF11FC080EF
:101D5000F301E55CFE4FE00FF11F80818F3F59F1E9
:101D6000A82EB12CF501E154FE4F908180910F0116
:101D7000892309F13C2D25E5321B08F430E07091F0
:101D80006703282D4C2D240F08F42FEF4091680392
:101D900082E0289F200D11242E5F249F212D1124E5
:101DA000682D631B822F0E948F30462F282F672FAC
:101DB000C5010E94C32F80915902882361F02C2D08
:101DC00031E0231B08F420E0C301845A9D4FFC013D
:101DD000E00FF11F20834FEFE41AF40AA3CF81E054
:101DE0009FE2991508F095C093C0C0900E0189E05C
:101DF000C89EC02C112469E0B62EBC0CAAE2AB151B
:101E000010F45AE2B52E2091690331E0230F08F453
:101E10002FEF30E040E050E06FEF7FEF80E090E0A8
:101E20000E94BA318901AA24A394CB1408F041C0BE
:101E3000EC2CF12CF701E154FE4F908180910F01C1
:101E40008923A9F190918C02915097FD15C0292FFB
:101E5000092E000C330BF901E457FD4F8189C8129C
:101E6000F3CF220F331FF901E457FD4F218D328D3F
:101E70002017310748F701C09801609169034A2D86
:101E8000640F08F46FEFC9010E948530AC016091C6
:101E9000660370916703809168030E94E02F0E949F
:101EA0008F30462F282F672FC7010E94C32FC3945E
:101EB000BCCF81E099E29B1560F52AC0F0900E013D
:101EC00089E0F89EF02C112429E0E22EEF0CAAE222
:101ED000AE1510F49AE2E92EFE14B0F40F2D10E0C6
:101EE000F801EE0FFF1FE00FF11FEF53FD4F608170
:101EF000718182810E948F30462F282F672FC80161
:101F00000E94C32FF394E8CF81E0B9E2BE1508F434
:101F100080E090910E019F5F90930E01882309F459
:101F200045CD98C88F929F92AF92BF92CF92DF9289
:101F3000EF92FF920F931F93CF93DF9300D000D0C7
:101F4000CDB7DEB7FC018081918123813481232BC1
:101F500031F09F3F31F491E08F3F19F403C091E0DD
:101F600001C090E090FDE4C66F0161E0CF010E94E6
:101F70009E2B8C01F6018281882309F49AC0980176
:101F800022513F452031310508F07BC08FEF93E0AF
:101F90000E94383181117FC03EEEF32EF00E03E92E
:101FA00012E0FF2071F00115F4E01F0709F473C07F
:101FB000C8010E943831811101C0FA940F5F1F4F90
:101FC000F0CF19821A821B821C82AA24AA9478015B
:101FD0002FEFE21AF20AC8010E94383189831A826F
:101FE000882309F458C0813009F046C0480182E0D6
:101FF000880E911CC7010E9438318A83882309F416
:102000004AC09FEF980F933060F4780193E0E90E97
:10201000F11CC4010E9438318B8381112DC08701CE
:10202000D6CF843011F07401FACFC4010E94383148
:10203000B82E7801E4E0EE0EF11CC80103960E9470
:102040003831BB2041F1882331F1282F30E0215075
:102050003109A29EA001A39E500D11248B2D90E06A
:102060000197840F951F0197D0F2EFE9FFE03197B8
:10207000F1F700C00000F7CFCE0101960E94432B7C
:10208000CECF00319FE5190709F0AFC581E00E946E
:10209000601F0E9463178091D303877009F448C6BC
:1020A000F6018281882309F443C682E00E940E254E
:1020B0003FC60031FFE51F0711F481E005C0013183
:1020C0002FE5120721F482E00E94541FE2CF909185
:1020D0004503911105C090914803992309F4B7C0B5
:1020E00098013056211590E2390720F0305E211515
:1020F000304140F4F6019581907F09F4A8C0780141
:10210000FF2401C07801970130542115354108F4AE
:102110009EC090914803923021F5882369F0809108
:10212000D603982F927219F06894F1F80FC086FFC9
:102130000DC024E1F22A0AC0C70195558F3F9105D1
:1021400011F008F071C580E00E94952481E0809331
:102150004803F0924703E09246038FEF80930C010F
:102160009ACF882309F460C5913009F05FC080914F
:102170000C019CE2E916F104D9F4882329F00E94AD
:102180002B2E10920C0187CF80914603909147032C
:1021900095558F3F910509F018F40E948A2403C0D9
:1021A0008AE20E941921109248030E947B2E4FC0A0
:1021B000EAE2EE16F10421F4815080930C0126C06E
:1021C00087FD34C081110BC0809146039091470375
:1021D00095558F3F910509F010F40E942B2E8091A8
:1021E0000C018F5F80930C01FDE2EF16F10471F09A
:1021F00040F484E0E81AF10894E2E916F10480F46E
:1022000005C0EDE2EE16E2E0FE0651F4F601828131
:10221000882309F409C58091D603811114C0ECC448
:10222000F6018281882309F4FFC40DC09AE2E91601
:10223000F10489F308F06DC5F4E0EF1AF10824E227
:10224000E216F10440F30E947B2E109248030238FC
:10225000FFE51F0751F4F6018281882399F181E09F
:10226000809348038DE290E017C003382FE51207F2
:10227000D8F00338EFE51E0709F43AC50438FFE546
:102280001F0709F0E2C4F60182818823D9F081E0BA
:10229000809348038DE292E0909347038093460336
:1022A0008FEF80930C0141C500388FE5180709F4C2
:1022B00037C101389FE5190709F0C7C4F6018281CB
:1022C0008111A7C4F6019281992309F4B9C1109232
:1022D00034040230FCE51F0708F49CC106312CE5EC
:1022E000120738F098012A5F3C452930310508F083
:1022F00091C10E940424909325028093240200310E
:102300008CE5180709F4C3C008F041C00830ECE5BB
:102310001E0709F49AC0F0F404302CE5120709F402
:1023200087C068F402309CE5190709F477C00330D0
:102330001C4509F0E5C080912402826076C0063019
:10234000FCE51F0709F46EC008F07BC080912402F1
:1023500088606BC00C308CE5180709F485C068F400
:102360000A30ECE51E0709F474C008F079C00E9439
:102370006F1F80912402806858C00E302CE5120730
:1023800009F476C008F07FC0809124028BC00B3F17
:102390009CE5190709F44FC018F50331FCE51F0748
:1023A00009F47DC078F401318CE5180709F473C095
:1023B00002311C4509F0A4C00E946F1F80912402C5
:1023C0008F7733C00531ECE51E0709F472C008F4BD
:1023D00086C00A3F1C4509F093C0809125023EC08B
:1023E0000F3F8CE5180709F45FC058F40D3FECE58A
:1023F0001E0709F444C008F43FC0809125028260A2
:102400002DC001302DE5120709F475C008F45DC038
:1024100002301D4509F074C060E06EC08091240256
:10242000816003C08091240280618093240268C08F
:102430008091240211C08091250282608093250240
:102440005FC0809124028062F0CF8091240280647A
:10245000ECCF8091240288608460E7CF8160EECF6A
:10246000809124028E7FE1CF809124028D7FDDCF89
:1024700080912402877FD9CF8091250218C0809156
:1024800025028D7FDBCF809124028F7ECECF80917D
:1024900024028F7DCACF809124028F7BC6CF80918A
:1024A0002402877F8B7FC1CF809125028D7F8E7F15
:1024B000C5CF8091240282FB222720F991E0922748
:1024C00090FB82F990FB83F9B0CF80912502982F81
:1024D000909591708E7F892B90FB81F9AFCF0E94F0
:1024E0006F1F8091240287FB222720F991E0922719
:1024F00090FB87F99ACF61E08EE090E00E94563120
:10250000609124021091250284E090E00E945631EF
:10251000612F82E290E00E9456310E946F1FBBCD76
:10252000F6018281882309F4CDCE90EFA92E93E0A5
:10253000B92E2AE0922EF5018491882309F45AC01D
:10254000813009F04FC07501FFEFEF1AFF0AF70164
:102550008491813049F47501F2E0EF0EF11CF7012E
:1025600084910E94192141C0823049F47501F2E042
:10257000EF0EF11CF70184910E947D2036C083305C
:1025800049F47501F2E0EF0EF11CF70184910E940D
:1025900026202BC0843049F57501F2E0EF0EF11CC6
:1025A000F701249180E090E030E0205331092A3097
:1025B000310570F4989EA001999E500D1124C90117
:1025C000840F951FFFEFEF1AFF0AF7012491ECCF5C
:1025D000009759F0EFE9FFE03197F1F700C00000F4
:1025E0000197F6CF0E94DD2A75015701FFEFAF1A60
:1025F000BF0AA1CF8091D90381FD64CE0E947926C4
:102600009093D8038093D7038091D90382608093FD
:10261000D90358CE8091D6030631ECE51E0709F5A3
:102620008A7A91E009F490E090934903882311F0AD
:1026300065E301C069E28EE793E00E94BB260EC00D
:1026400006311C4509F08BC080914903882309F4A9
:102650005EC365E38EE793E00E94AE260E94B0243D
:102660001ACD8272F801E25CFC45EB30F10508F00E
:1026700043C0E159FF4F0C94D9318091650391E03B
:10268000892780936503109212019093EB0403CD88
:102690004CEA5FE266EB7FE22CC046EB5FE26CEA5D
:1026A0007FE227C04FE75FE269E87FE222C049E8A6
:1026B0005FE26FE77FE21DC045E65FE262E77FE22F
:1026C00018C042E75FE265E67FE213C04BE45FE2D9
:1026D00068E57FE20EC048E55FE26BE47FE209C097
:1026E0004DE95EE269EA7EE204C049EA5EE26DE934
:1026F0007EE20E94322FCFCC992389F10A35EDE595
:102700001E0741F150F401152CE51207A9F00E3D0A
:102710001C4529F50E942024BECC0B359DE51907E8
:10272000D9F00C351D45D9F48091250282FB88270C
:1027300080F991E0892711C00E946F1FFFEF24E309
:102740008CE0F15020408040E1F700C000000E9482
:102750001426A1CC81E001C080E00E94ED24F601A6
:10276000868197810097B9F4F601828100811181F9
:10277000882349F0C8010E94C61CF82E682FC801A2
:102780000E94231F04C0C8010E94F31EF82EB80146
:102790008F2D0E94442A0E947B22F82E192FF601C9
:1027A000E280058102950F708091D303877099F0C4
:1027B000EE2089F0892F807F803421F080E28F0D18
:1027C000883048F082E00E940E258091D303877004
:1027D000BB24B3948111B12CA12EA2948FE0A82226
:1027E0008A2D90E08C30910508F0DBC1FC01E658A1
:1027F000FF4F0C94D931812F807F1F70882311F0F7
:102800001295107FEE20B9F0112309F4ACC180E2DB
:102810008F0D883010F0F11006C09091D603192B5F
:102820001093D60305C09091D503192B1093D503AF
:102830000E94B02498C18F2D0E942620112309F4F4
:10284000B0C180E28F0D883010F0F11004C0812FEC
:102850000E94A92406C010959091D50319231093C6
:10286000D5030E94B0249DC1812F807F1F708032CC
:1028700011F01295107FFF2021F0F1E0FF1691F189
:102880003BC0EE20D9F00023A9F0013031F4809153
:10289000D903812B0E94952484C1053059F40E94EC
:1028A0008A248091D00318131093D003812F0E94A3
:1028B0001C2077C18091D903812BF9CF002349F0E7
:1028C000013069F48091D603812309F46AC10E9422
:1028D00041250E948A24812F0E94152062C1053063
:1028E000C1F75FC1EE2021F0063008F05AC1DECFFB
:1028F000053008F056C1EFCFEE2019F00023B1F2F9
:1029000032C1002341F329E3F21208C08FEF97EEA2
:10291000E3E081509040E040E1F73EC1FFE728E36B
:1029200081E0F15020408040E1F736C1812F86954B
:102930008695837019F0813061F033C1EE2021F06B
:102940008F2D912F937002C080E090E00E94EB26C3
:102950002EC1EE2021F08F2D912F937002C080E0C8
:1029600090E00E94D52623C1812F8370A9F5E11044
:102970001CC14F2D429546954770440F440F8F2D33
:102980008F7090E09C01042E01C0220F0A94EAF798
:10299000F4FE08C08FE090E001C0880F4A95EAF786
:1029A000809501C080E0169516951370123069F07D
:1029B00088F49091DA03113019F0822B892302C038
:1029C000922B892B0E946B1FF0C0822B9091DA030F
:1029D0008927F8CF822BF6CFEE2019F0812F817056
:1029E00001C08695882309F4E0C04F2D4295469595
:1029F0004770440F440F8F2D8F7090E09C01042E80
:102A000001C0220F0A94EAF7F4FE08C08FE090E0BC
:102A100001C0880F4A95EAF7809501C080E01695BD
:102A200016951370123059F078F490916B031130B1
:102A300019F0822B892309C0922B892B06C0822B87
:102A400090916B03892701C0822B0E94501FADC05B
:102A50001F70EE2039F0812F0E94601F8F2D0E9481
:102A60001C20A3C08F2D0E941520812F0E94541F6F
:102A70009CC092EFF91659F19F1538F0E0EFFE1661
:102A800059F0F1EFFF16E1F069C023EFF21631F1D2
:102A900084EFF81681F162C0EE2071F0053008F085
:102AA00080C01F7181E090E001C0880F1A95EAF79D
:102AB00090916B0389271CC0063008F072C0F1CFDB
:102AC000EE2039F0812F8F710E94601F6AC0EE20C6
:102AD000C9F3812F8F710E94541F63C0EE2039F01B
:102AE0001F7181E001C0880F1A95EAF701C080E0EC
:102AF0000E94501F56C0EE20D1F08091D0030E945A
:102B0000A9248091D3038770843039F40E9407256B
:102B1000812F8F710E94541F66C0053008F063C07A
:102B20001F71812F0E94601F63E0812F10C0909160
:102B3000D6038091D003892B8093D603053050F0C3
:102B40000E9407250E94412564E0812F8F710E9419
:102B50002B2549C081E00E940E2545C0EE2039F0AA
:102B6000002309F4AFCF8F2D0E947D201AC00023CF
:102B700009F4AFCF99E3F91208C0EFEFF7EE23E0C5
:102B8000E150F0402040E1F707C08FE798E3E1E033
:102B900081509040E040E1F700C000008F2D0E947E
:102BA000262088EF8A0D843010F40E940127BB2074
:102BB000A9F08091D30380FD11C0F60112828595A2
:102BC000859585950E94601FC6010E94920F809195
:102BD000D3038595859585950E94541F60E0C601B5
:102BE0000E949E2BA5C0B12CE0CF0131EFE51E075E
:102BF00009F06DCA82E04BCA0238FFE51F0709F4ED
:102C00002ACB08F036CB00388FE5180709F051CBF6
:102C10008CCC81E0809345030E94012781FD52CB3B
:102C200089E30E9419214ECB02382FE5120709F4DF
:102C300012CB08F059C000389FE5190709F442CBC0
:102C40000138EFE51E0709F439CB033F2CE51207E5
:102C5000A1F406E221EE40EE63EF7CE50AC0073DF9
:102C6000FCE51F0709F02ECB06E221EE41EE67EDF1
:102C70007CE5C6010E9468280ECA043F8CE518074F
:102C8000A0F4083D9CE5190731F407E225EE45EE76
:102C900068ED7CE5EECF093DECE51E0701F708E2A3
:102CA00021E045EE69ED7CE5E4CF053F2CE5120718
:102CB00031F406E221EE42EE65EF7CE5DACF053F26
:102CC0008CE5180730F407E225EE44EE64EF7CE56E
:102CD000D0CF063F9CE5190709F0F4CA07E225EEBC
:102CE00046EE66EF7CE5C5CF0338FFE51F0749F4E4
:102CF000F6018281882309F4E5CA82E080934803C3
:102D000014C004382FE5120709F4BDCA9ECF69E24A
:102D1000A1CC8DE2E816F10409F47DCA9DE2E91622
:102D200092E0F90609F08FCA76CAF6019281CFCAFD
:102D30000F900F900F900F90DF91CF911F910F91F7
:102D4000FF90EF90DF90CF90BF90AF909F908F90CB
:102D500008958091580387FF11C08091E80082FD9B
:102D600005C0809160038111F8CF11C08091E80007
:102D70008B770BC080916003882349F08091E80035
:102D800080FFF8CF8091E8008E778093E800089567
:102D9000982F973068F59093E900981739F0709163
:102DA000EC002091ED005091F00003C0242F762F0D
:102DB00050E021FD02C09F5FECCF3091EB003E7FE1
:102DC0003093EB003091ED003D7F3093ED0030917A
:102DD000EB0031603093EB007093EC002093ED003A
:102DE0005093F0002091EE0027FDE5CF80E008959C
:102DF0008F708093E90081E0089520915E03309107
:102E00005F032617370748F06115710539F42091E3
:102E1000E8002E772093E80001C0B901FC0120E012
:102E20006115710579F1809160038823F1F1853096
:102E3000F1F18091E80083FD3CC08091E80082FDC3
:102E40002EC08091E80080FFEBCF2091F3008091AD
:102E5000F20090E0922B6115710551F088309105D8
:102E600038F421912093F100615071090196F3CF5C
:102E700021E0089709F020E08091E8008E778093A8
:102E8000E800CECF2111CFCF0AC080916003882304
:102E900061F0853061F08091E80083FD0AC0809187
:102EA000E80082FFF2CF80E0089582E0089583E099
:102EB000089581E00895BC0184E00C94EA25BC01EA
:102EC00083E00C94EA2580916B03982F96709630DE
:102ED00011F4886001C0877F0C94501FDF92EF923D
:102EE000FF920F931F93CF93DF938C01C0910E013C
:102EF00089E0C89FC02D1124D9E0DC0FDB3208F037
:102F0000DAE2609169036695669521E0620F08F444
:102F10006FEF80916103909162030E948530D82EFB
:102F2000CD17F0F4EC2EF12CF701E154FE4F908117
:102F300080910F01892391F060916603709167037E
:102F4000809168032D2D4C2FF80109950E948F3038
:102F5000462F282F672FC7010E94C32FCF5FE0CFD6
:102F600081E0DA3208F080E0DF91CF911F910F917C
:102F7000FF90EF90DF9008951F93CF93DF93CDB72D
:102F8000DEB7AA970FB6F894DEBF0FBECDBFE8E557
:102F9000F3E08091F100819343E0E036F407C9F754
:102FA00080915903833009F462C030F4813071F0AC
:102FB000823009F49CC0B3C08A3009F488C08B30D9
:102FC00009F46DC0893009F0AAC020C0809158036F
:102FD000813A09F0A4C08091E800877F8093E800DF
:102FE00080915C0390915D03892B21F468E08DE46E
:102FF00093E003C060E080E090E070E00E94FD1686
:103000008091E8008B778093E80089C08091580315
:10301000813209F084C080915C0390915D03009738
:1030200019F0029709F07BC08091E800877F8093B8
:10303000E8008091E80082FD05C080916003811165
:10304000F8CF6DC02091F3008091F20090E0922BB8
:10305000029729F48091F1008B7F813021F48091D7
:10306000F10080934C038091E8008B7754C08091ED
:103070005803813A09F053C080915C0390915D033D
:10308000892B09F04CC08091E800877F8093E8008D
:103090008091E80080FFFCCF80910D0137C08091C6
:1030A00058038132E1F580915C0390915D03892B97
:1030B000B1F58091E800877F8093E8000E94A9160F
:1030C00080915A0380930D010E946F1F28C0809148
:1030D0005803813221F58091E800877F8093E800D2
:1030E0000E94A91680915B0380934B0318C08091C6
:1030F0005803813AA1F48091E800877F8093E8002B
:103100008091E80080FFFCCF80914B038093F10019
:103110008091E8008E778093E8000E94A916809144
:10312000E80083FFE9C18091580390915903492F2A
:1031300050E04A30510508F0DFC1FA01EA57FF4F6D
:103140000C94D931803821F0823809F0D5C108C0FB
:103150008091550390915603992389F082600FC0A6
:1031600080915C038F70873008F0C6C18093E900BE
:103170008091EB0085FB882780F91092E9009091FF
:10318000E800977F9093E8008093F1001092F1009F
:103190007CC1282F2D7F09F0AFC1882319F0823020
:1031A00061F0AAC180915A03813009F0A5C1933022
:1031B00009F080E0809356032EC080915A0381115C
:1031C0002AC080915C038F702FEF280F263008F003
:1031D00093C18093E9002091EB0020FF1CC0933045
:1031E00021F48091EB00806214C09091EB0090611B
:1031F0009093EB0021E030E0A90102C0440F551F7D
:103200008A95E2F74093EA001092EA008091EB0081
:1032100088608093EB001092E9008091E800877F3E
:103220008093E8000E94A91667C1811165C11091C1
:103230005A031F778091E3008078812B8093E3000D
:103240008091E800877F8093E8000E94A916809112
:10325000E80080FFFCCF8091E30080688093E3006A
:10326000111102C082E001C083E08093600344C179
:103270008058823008F040C120915A0330915B039E
:103280002C3D53E0350779F583E08A838AE2898310
:103290004FB7F894DE01139620E03EE051E2E32FB1
:1032A000F0E050935700E49120FF03C0E295EF70E7
:1032B0003F5FEF708E2F90E0EA3010F0C79601C0AC
:1032C000C0968D939D932F5F243149F74FBF809116
:1032D000E800877F8093E8006AE270E0CE01019603
:1032E0000E94FD16C0C080915C0390915D03432F46
:1032F000552743305105B1F068F44130510509F4C8
:103300000AC14230510509F0F7C08BE590E0E7E8CB
:10331000F4E057C04132510589F14232510509F4B8
:103320003CC0EAC0C901992781309105B9F070F01D
:1033300082309105D9F0039709F0DEC0E4EFF4E0A4
:10334000E4918E2F90E0E4EFF4E038C0E2E6F5E09F
:10335000E4918E2F90E0E2E6F5E030C0E6E4F5E09F
:10336000E4918E2F90E0E6E4F5E028C0E2E1F5E09C
:10337000E4918E2F90E0E2E1F5E020C083309105EA
:1033800008F0BAC0880F991FFC01EB5CFE4F01905A
:10339000F081E02D89E090E014C08330910508F0C1
:1033A000ABC0FC01EE0FFF1FE15DFE4F0190F0810D
:1033B000E02DDC01A45DBE4F8C9190E0009709F4F4
:1033C0009BC02091E800277F2093E80020915E03B6
:1033D00030915F032817390708F4C90140E00097CE
:1033E00089F120916003222309F43DC02530D9F1F1
:1033F0002091E80023FD37C02091E80022FD2FC076
:103400002091E80020FFEBCF4091F3002091F200E3
:1034100030E0342B009759F02830310540F44491C6
:103420004093F100319601972F5F3F4FF3CF41E07A
:103430002830310509F040E02091E8002E772093F4
:10344000E800CDCF4111CDCF0AC080916003882321
:1034500051F0853041F08091E80083FD04C08091F7
:10346000E80082FFF2CF8091E8008B778093E8003C
:1034700043C0803809F040C08091E800877F809386
:10348000E800809157038093F1008091E8008E77E7
:10349000C7CE811131C080915A0390915B03992767
:1034A000029754F58091E800877F8093E80010919F
:1034B0005A03109357030E94A916111106C0809158
:1034C000E30087FD02C081E001C084E080936003D7
:1034D00042E061EC81E00E94C81642E261EC84E0C7
:1034E0000E94C81642E261EC82E00E94C81642E2E5
:1034F00060EC83E00E94C8168091E80083FF10C052
:103500008091E800877F8093E8008091EB008062E3
:103510008093EB0005C082E190E0E2EEF4E051CF51
:10352000AA960FB6F894DEBF0FBECDBFDF91CF9144
:103530001F9108951F920F920FB60F9211242F938F
:103540003F934F935F936F937F938F939F93AF932B
:10355000BF93CF93DF93EF93FF93C091E900CF70B8
:103560008091EC00D82FD17080FDD0E81092E90056
:103570008091F000877F8093F00078940E94BC17C0
:103580001092E9008091F00088608093F000CD2BCC
:10359000CF70C093E900FF91EF91DF91CF91BF9180
:1035A000AF919F918F917F916F915F914F913F91DB
:1035B0002F910F900FBE0F901F901895E8EDF0E03F
:1035C00080818E7F80831092E2001092DA00109248
:1035D000E100A0EEB0E08C9181608C9380818F77C8
:1035E000808319BCA7EDB0E08C918E7F8C93808195
:1035F0008F7E808310924A030895CF92DF92EF92DC
:10360000FF920F931F93CF93DF93C8EDD0E0888193
:103610008F7E8883E7EDF0E080818160808384E0A5
:1036200082BF81E080934A0388818E7F888302EE87
:1036300010E0F80110821092DA0081EEC82ED12C31
:10364000F601108288818F778883888180688883DB
:1036500088818F7D888319BC109260031092570374
:10366000109256031092550390EEE92EF12CF701BB
:1036700080818B7F808388818160888342E060E0E5
:1036800080E00E94C816F60180818E7F8083F80159
:10369000808181608083808188608083F701808160
:1036A0008E7F8083888180618883DF91CF911F9195
:1036B0000F91FF90EF90DF90CF9008951F920F929F
:1036C0000FB60F9211242F933F934F935F936F93F5
:1036D0007F938F939F93AF93BF93EF93FF938091CB
:1036E000E10082FF09C08091E20082FF05C0809165
:1036F000E1008B7F8093E1008091DA0080FF2AC097
:103700008091D80080FF26C08091DA008E7F809360
:10371000DA008091D90080FF18C080E189BD82E184
:1037200089BD09B400FEFDCF81E0809360038091E4
:103730004A0381110FC00E94DE1A0E94FD1A809177
:10374000E20084608093E20005C019BC109260031F
:1037500010924A038091E10080FF17C08091E2003F
:1037600080FF13C08091E2008E7F8093E200809101
:10377000E20080618093E2008091D80080628093B3
:10378000D80019BC85E0809360038091E10084FF3C
:103790002EC08091E20084FF2AC080E189BD82E1D1
:1037A00089BD09B400FEFDCF8091D8008F7D809344
:1037B000D8008091E1008F7E8093E1008091E2004B
:1037C0008F7E8093E2008091E20081608093E2002E
:1037D00080915703882311F084E007C08091E300B3
:1037E00087FD02C081E001C083E080936003809187
:1037F000E10083FF27C08091E20083FF23C0809116
:10380000E100877F8093E10082E080936003109263
:1038100057038091E1008E7F8093E1008091E20068
:103820008E7F8093E2008091E20080618093E200CD
:1038300042E060E080E00E94C8168091F00088605D
:103840008093F000FF91EF91BF91AF919F918F9185
:103850007F916F915F914F913F912F910F900FBE8C
:103860000F901F9018952091E4003091E50095E6A7
:103870004091EC00842F817040FF23C08091E800CC
:1038800080FD1DC080916003882399F0853099F0F8
:103890008091EB0085FD11C04091E4005091E5005E
:1038A0002417350729F3915011F09A01E1CF84E0F4
:1038B000089582E0089583E0089581E0089580E00E
:1038C00008954091E80042FFDDCF0895EF92FF9206
:1038D0000F931F93CF93DF937C018B010E94331CC6
:1038E000811119C0E70101151105A1F08091E800CF
:1038F00085FD0AC08091E8008E778093E8000E94E1
:10390000331C882381F307C089918093F100015013
:103910001109E9CF80E0DF91CF911F910F91FF90C6
:10392000EF900895CF93209160032430F9F4C09173
:10393000E900CF703091EC00232F217030FD20E89A
:10394000C22B22E02093E9002091E80020FF0BC069
:1039500040E050E060E270E00E94661C8091E80068
:103960008E778093E800CF70C093E900CF910895DF
:1039700080E090E00E94EB2680E090E00E94D52657
:103980001092D5031092D4030C94B024CF92DF92FE
:10399000FF920F931F93CF93DF936C0100916B0302
:1039A0008091DA03082BC7E0D0E010E0C8010C2EAC
:1039B00002C0959587950A94E2F780FD04C021978F
:1039C000A8F7F12C09C0FC2EB6018C2F0E94442AC6
:1039D0000E947B22019799F38F2DDF91CF911F9148
:1039E0000F91FF90DF90CF900895CF93DF93EC017C
:1039F0000E94C61CBE010E94442A0E947B22DF91C5
:103A0000CF910895FC0186819781009719F00E945B
:103A10007B2204C0808191810E94F51C292F2F7088
:103A2000E92FE295EF704E2F50E0FA013297EE3019
:103A3000F105B8F4E057FF4F0C94D931803F99F06D
:103A400018F4883E70F40FC0843F59F40CC0883ECF
:103A500050F0813F31F407C0822F86958695869578
:103A6000089580E0089581E008959F92AF92BF92FB
:103A7000CF92DF92EF92FF920F931F93CF93DF933A
:103A8000CDB7DEB765970FB6F894DEBF0FBECDBFDA
:103A90008C0185E0F801DE01519601900D928A9526
:103AA000E1F7F801E28090918603609187034091ED
:103AB000890350918A034115510531F06F3F31F46C
:103AC00081E09F3F19F403C081E001C080E0F82F3E
:103AD000F1709F2E80FD37C1F80130812181C380B4
:103AE000D48076E8A72E73E0B72EF0908803F60115
:103AF000E41BF50BFF2009F4F5C080918B03E83C33
:103B0000F10508F0B0C0482F407F09F05AC0621399
:103B10001BC0931319C060918C0370918D03F80141
:103B2000468157816417750779F4FE2CE1100CC0AB
:103B30008F70806180938B03C5010E94920F8091EA
:103B40008B03F80185833CC1CD2831F02F3F31F440
:103B500081E03F3F19F403C081E001C080E080FDB7
:103B600003C081E08E2502C080E090E0F82FF17064
:103B7000FF2E80FF1CC08091CF0340918E038417DD
:103B800009F4FCC090E0FC0153E0EE0FFF1F5A95D2
:103B9000E1F7E157FC4F5181251306C050815313C3
:103BA00003C05281E51203C001968770E8CFFE2C56
:103BB000EE2009F405C180918B03816080938B0313
:103BC0005EC0621315C0931313C040918C035091D3
:103BD0008D03F801268137814217530749F4E1101C
:103BE00007C08583C8010E94920F88E0F80190C049
:103BF000C8010E94021D882381F1EE2071F12091FD
:103C00008B03822F82958F7090E00297A4F08091B1
:103C10008603909187039A8789871B86DD86CC86E9
:103C20002E8780918C0390918D03988B8F87CE0186
:103C300009960E94920F88E0F801A6E8B3E001908F
:103C40000D928A95E1F70E9451250AC06217C9F0CA
:103C5000C8010E94021D811127C0C8010E94920F55
:103C6000FF24F394ADC0482F407F81F786E893E0AE
:103C70000E94920F88E0F50111928A95E9F7F12CE4
:103C80009FC09313E5CF40918C0350918D03F801B1
:103C90002681378142175307D9F6E110D9CF8583A2
:103CA000C8010E94920F49C0EE20B9F220918B0307
:103CB000822F82958F7090E002970CF4BCCF809198
:103CC0008603909187039A8389831B82DD82CC824D
:103CD0002E8380918C0390918D0398878F83CE01E2
:103CE0000196A7CFE83CF10540F5FE2CEE2009F443
:103CF000B4CF621314C0931312C020918C0330917F
:103D00008D03F801868197812817390741F488E0EF
:103D1000A6E8B3E001900D928A95E1F751C0C80181
:103D20000E94021D811187CF80918B038160809357
:103D30008B03C8010E94920F43C088E0F5011192E5
:103D40008A95E9F73DC0EE2009F487CFC8010E94AB
:103D5000021DF82E882309F480CF88E0F801A6E838
:103D6000B3E001900D928A95E1F7809186039091DE
:103D700087030E94F51C0E94512522C0398B2A8B93
:103D800089899A890E94F51C292F22952F7022304B
:103D900028F49F7039F0811105C00BC0243028F43D
:103DA0009F7049F4805E883020F0C8010E94920F15
:103DB0009F2CF92C05C0F8019581907F99F7F9CFD8
:103DC0008F2D65960FB6F894DEBF0FBECDBFDF9185
:103DD000CF911F910F91FF90EF90DF90CF90BF9008
:103DE000AF909F9008959E3F61F128E0929F800DD3
:103DF0001124682F669566956695982F977083E0D5
:103E0000689FB001112440E050E080E0FB01E40F26
:103E1000F51FE459FC4F208130E0092E02C0369591
:103E200027950A94E2F721703327042E01C0220F50
:103E30000A94EAF7822B4F5F5F4F4330510531F709
:103E4000089580E008959E3F51F128E0929F800DF3
:103E50001124E82FE695E695E695877051E001C0BC
:103E6000550F8A95EAF783E0E89FF0011124E459A1
:103E7000FC4F20E030E070E04081CB01022E02C018
:103E8000969587950A94E2F781708195842785231A
:103E9000842781932F5F3F4F2330310569F70895C1
:103EA00080936B030C94B81C21E030E001C0220F1A
:103EB0008A95EAF7209580916B0382230C94501F1A
:103EC00021E030E001C0220F8A95EAF780916B0370
:103ED000822B0C94501F8093DA030C94B81C109220
:103EE000D60386E0E0E8F3E0DF011D928A95E9F76A
:103EF0000C94B81CCF93DF93CDB7DEB760970FB6A5
:103F0000F894DEBF0FBECDBF29873A874B875C8709
:103F10006D877E878F87988BCE0109960E94351D0D
:103F2000811151C088E0FE013996DE0111960190A1
:103F30000D928A95E1F779856A854C855D854115F5
:103F4000510531F06F3F31F481E07F3F19F403C038
:103F500081E001C080E080FD36C0A0918E03B0E01A
:103F6000CD010196877099272091CF0330E0821709
:103F7000930781F179836A835D834C8393E0AA0F71
:103F8000BB1F9A95E1F7A157BC4F98E0FE0131960F
:103F900001900D929A95E1F780938E030E94472538
:103FA00012C028E0829FC001112481579C4F0E94BB
:103FB000351D8823E1F08091CF0390E00196877052
:103FC00099278093CF038091CF0390918E0389131B
:103FD000E8CF0DC00E946F1F10928E031092CF0386
:103FE000E6E8F3E088E0DF011D928A95E9F7609644
:103FF0000FB6F894DEBF0FBECDBFDF91CF9108950D
:10400000882341F080959091D50389238093D5032F
:104010000C94B0240895882339F09091D503892B0E
:104020008093D5030C94B0240895882321F00E9436
:10403000A9240C94B0240895882339F09091D603D4
:10404000892B8093D6030C94B0240895882309F417
:1040500053C0682F823869F40E94012781FF4CC049
:1040600069E38EE793E00E94BB260E94B02469E3D7
:104070000EC0833891F40E94012780FF3DC063E5A4
:104080008EE793E00E94BB260E94B02463E58EE792
:1040900093E00E94AE260C94B024843869F40E9408
:1040A000012782FF29C067E48EE793E00E94BB26C8
:1040B0000E94B02467E4EBCF8CEF860F813A38F38F
:1040C00080E2860F883048F4677081E001C0880F75
:1040D0006A95EAF70E94A924DECF8BE5860F83302C
:1040E00020F480E090E00C94EB26685A673120F4CD
:1040F00080E090E00C94D5260895CF93882309F4AE
:1041000096C0C82F8238B1F40E94012781FD8FC06C
:1041100069E38EE793E00E94BB260E94B0242FEF54
:1041200081EE94E0215080409040E1F700C0000013
:1041300069E317C08338E1F40E94012780FD77C04E
:1041400063E58EE793E00E94BB260E94B0242FEF28
:1041500081EE94E0215080409040E1F700C00000E3
:1041600063E58EE793E00E94AE26CF910C94B024D5
:104170008438B1F40E94012782FD59C067E48EE7BC
:1041800093E00E94BB260E94B0242FEF81EE94E0C2
:10419000215080409040E1F700C0000067E4E1CF8B
:1041A0008CEF8C0F813A80F4E0E8F3E086E893E04E
:1041B0002191C217A1F18E179F07D1F76C2F8EE7BF
:1041C00093E00E94BB26D1CF80E28C0F883068F448
:1041D000C77081E090E001C0880FCA95EAF790911E
:1041E000D603892B8093D603C0CFEBE5EC0FE330E9
:1041F00040F4F0E0E751FE4F808190E0CF910C94C5
:10420000EB26C85AC73198F4EC2FF0E0EE0FFF1FF1
:10421000E451FE4F80819181CF910C94D5266C2F73
:104220008EE793E00E94AE260E94B024C7CFCF91C4
:1042300008951F93CF93DF93182F893319F0C9E1A5
:10424000D0E002C0C0E5D0E0812F0E947D208FE940
:104250009FE00197F1F700C000002197C1F7812F7F
:10426000DF91CF911F910C94262080E008959091CA
:10427000240292FF0DC0282F2871283019F4877F5F
:10428000846006C0282F2471243011F48B7F88604D
:1042900093FF0DC0282F2871283119F4877E84617F
:1042A00006C0282F2471243111F48B7E886120915F
:1042B000250220FF0DC0382F3871383019F4877F60
:1042C000816006C0382F3171313011F48E7F8860E3
:1042D00021FF0DC0282F2871283119F4877E8161B4
:1042E00006C0282F2171213111F48E7E886194FD42
:1042F000877E0895F894E82FE295EF70F0E031A101
:10430000282F2F7081E090E001C0880F2A95EAF7EE
:10431000982F9095932391A392A1892B82A37894AF
:1043200008959F92AF92BF92CF92DF92EF92FF9249
:104330000F931F93CF93DF9300D000D000D0CDB761
:10434000DEB7AE014F5F5F4F7A0186E0FA0111924E
:104350008A95E9F70EE111E05A01CC24C394D12CDF
:10436000F80180818F3F09F447C0F894E82FE29567
:10437000EF70F0E021A18F70A60102C0440F551F1D
:104380008A95E2F7CA01922F982B91A392A180956A
:10439000892382A3789400C0E4E2F1E020E030E0D9
:1043A000912C41914F3FB1F0A42FA295AF70B0E096
:1043B00090968C9190E04F7002C0959587954A95A4
:1043C000E2F780FD07C08C2D022E01C0880F0A94F1
:1043D000EAF701C080E0982A2F5F3F4F283031056F
:1043E00001F7F80180818F3F11F00E947A21F0EAF5
:1043F000FA95F1F7F50190820F5F1F4FFFEFAF1AAB
:10440000BF0A41E00432140709F0AACF46E050E0A9
:10441000B70186E292E00E94083211E0009709F4A9
:1044200010E0892B89F086E0F701A6E2B2E0019066
:104430000D928A95E1F781E08093DD030E94792651
:104440009093DC038093DB038091DD038823A1F04C
:104450008091DB039091DC030E945E26059760F05B
:10446000E6E2F2E0AFE3B3E081918D9352E0EC320B
:10447000F507D1F71092DD0380911101882341F1F6
:104480008091DB049091DC04009711F10E945E267C
:10449000209135043091360428173907C8F49091DB
:1044A000D9048091DA04981759F00E94B927109224
:1044B0003604109235041092DC041092DB0408C01C
:1044C0000E943B271092DC041092DB040E949A2782
:1044D000812F26960FB6F894DEBF0FBECDBFDF91B9
:1044E000CF911F910F91FF90EF90DF90CF90BF90F1
:1044F000AF909F900895CF93DF938238910569F133
:10450000B0F48133910509F46FC048F48932910504
:1045100009F465C08A32910509F46BC08AC08533FD
:10452000910509F457C089339105B9F082C0833EE3
:10453000910571F138F4803E9105B1F0823E91050C
:1045400011F177C0863E9105B9F1873E9105C9F119
:10455000843E910509F06DC024C02091240220FD05
:1045600053C021FD51C065C08091240280FD46C02A
:104570008091250280FF48C08091240284FD3FC1C4
:1045800083EE90E03EC18091240282FF3AC0F4CFD6
:104590008091240282FD35C08091250280FD34C0C7
:1045A000EBCF8091250281FF35C08091240284FDEC
:1045B00026C187EE90E025C18091240283FF27C0A9
:1045C000F4CF8091240283FD22C08091250281FDD9
:1045D00021C0EBCF8091240285FD1FC021C08091B6
:1045E000240285FD1DC019C08091240286FD1BC0D8
:1045F0001DC08091240286FD19C015C089E390E09A
:1046000000C182EE90E0FDC080EE90E0FAC086EE40
:1046100090E0F7C084EE90E0F4C089E290E0F1C051
:1046200085E390E0EEC08AE290E0EBC081E390E0A9
:10463000E8C0811532E5930708F069C0811541E5AE
:10464000940728F0982F8827816F906ADAC0883EF7
:10465000910568F5803E910508F0D3C0883A910530
:10466000B8F4853A910548F0855AE82FF0E0E75113
:10467000FE4F808190E09064C4C08130910509F4C0
:10468000BBC008F4BCC08430910508F4B8C0B9C000
:104690008F3B910508F0B3C0885AE82FF0E0EE0F89
:1046A000FF1FE451FE4F808191819464AAC081155F
:1046B00020E59207F0F09C0174E0369527957A95F5
:1046C000E1F7922F9370482F437021E030E002C051
:1046D000220F331F4A95E2F73C68392B8F70982FD1
:1046E0009695969540E2949FC0011124822B932BBE
:1046F00088C0811530E4930718F09F70906A81C0DC
:104700009C013A9521153F4108F47BC078C0EC012B
:10471000C11586E5D807E8F5C11525E5D20748F0AB
:104720008C2F0E9437218F7190E0982F88279062FC
:1047300068C0C11534E5D30728F09C2F8827846F03
:10474000906A5FC0AE01437055272C2F26952695A1
:10475000C115D34578F481E090E002C0880F991F1D
:104760004A95E2F740E2249F90011124822B932B7B
:104770009C6847C081E090E002C0880F991F4A956D
:10478000E2F740E2249F90011124822B932B9A6838
:1047900038C0C1152AE5D207F8F4C11539E5D307A9
:1047A00090F08C2F8F700E94372194E0D695C7959A
:1047B0009A95E1F7CF70D0E0DC2FCC27D0699E012D
:1047C000282BC9011EC0C11548E5D407C0F09C2F95
:1047D0008827806F906A15C0CE019056811590424F
:1047E00070F48D2F8F710E943721282F2F71CE01E9
:1047F00099279062922B05C081E090E002C080E092
:1048000090E0DF91CF910895CF9384E090E00E94F3
:104810003831C82F82E290E00E9438312C2F30E0EE
:10482000A901582BCA01CF91089580E090E00E9421
:1048300040318A3E9E4F11F40C94192F80E0089568
:104840006AEE7EEF80E090E00E94743160E082E0EA
:1048500090E00E94563160E083E090E00E94563183
:104860001092DA0360E084E090E00E94563160E04C
:1048700082E290E00E94563160E085E090E00E9484
:10488000563160E086E090E00E9456316FEF87E09D
:1048900090E00E94563140E050E0BA0188E090E09C
:1048A0000E94683160E08DE090E00E94563140E067
:1048B00050E0BA0188E190E00E94683160E087E151
:1048C00090E00E94563140E050E0BA018CE190E067
:1048D0000E94683160E070E080E290E00E947431F4
:1048E00040E050E0BA0188E190E00E94683180E049
:1048F0000E94EC2E0E940A2F40E050E0BA018FE0A7
:1049000090E00E94683140E050E0BA0183E190E01D
:104910000C9468318091D903882331F01092D90327
:104920001092D8031092D7030895CF939091250247
:1049300092FD0DC09091D903981749F0C82F0E949D
:1049400079269093D8038093D703C093D903CF914E
:10495000089580959091D60389238093D603089576
:104960009091D6038091D503892B9091D403892B04
:1049700080937E038091D903882311F10E947926C8
:104980002091D7033091D803821B930B8838934131
:1049900010F00E948A2490917E038091D903892B84
:1049A00080937E03E0E8F3E097E080E0915029F007
:1049B00021912223D9F38F5FF9CF81110E948A249C
:1049C000E091DF04F091E004309731F00280F38150
:1049D000E02D8EE793E009940895CF93C0912502CE
:1049E000C2FB992790F9981781F080FBC2F9C09318
:1049F00025026091240284E090E00E9456316C2FE1
:104A000082E290E0CF910C945631CF9108951092AC
:104A1000D3031092D2031092D10308952091D303AF
:104A2000809582238093D303982F977041F430E0D0
:104A3000482F082E000C550B2417350721F49091B0
:104A4000250292FF07C08595859585950E94541F84
:104A50000C94072508959091250292FD10C098E0CE
:104A6000899F90011124262B2093D3030E94601F5D
:104A70000E9479269093D2038093D10308950C94D9
:104A8000601F8091D00381111092D003089580910E
:104A9000CF0390918E03891719F08F5F8770FBCF3A
:104AA00008951F93CF93DF9380918B0382958F702E
:104AB00009F05CC080918803882309F457C0809175
:104AC000CF0310918E036091860370918703C0918C
:104AD0008903D0918A0391E06F3F09F090E0292F7C
:104AE000811709F443C0209721F07F3F21F030E087
:104AF00003C031E001C0322F90E030FD34C0FC0132
:104B000033E0EE0FFF1F3A95E1F7DF01A157BC4FED
:104B100011963C911197371326C03C91361323C050
:104B200012963C91129731111EC013964D915C91D3
:104B300014974C1B5D0B483C5105A8F480918B03E6
:104B40008F70806180938B03EC56FC4F80818F7057
:104B50008061808386E893E00E94920FDF91CF917D
:104B60001F910C94472501968770BACFDF91CF91A2
:104B70001F910895089580914C030895CF93DF937A
:104B800021E02093E9002FEF3091E800215035FD1E
:104B900006C035ED3A95F1F700002111F5CF2091CF
:104BA000E80025FF14C0EC0140E050E068E070E050
:104BB0000E94661C8091E8008E778093E80088E070
:104BC000FE01ADE4B3E001900D928A95E1F7DF912B
:104BD000CF91089590916003943029F58093E80473
:104BE0007093EA046093E9049093E9008FEF909149
:104BF000E800815095FD06C095ED9A95F1F700000B
:104C00008111F5CF8091E80085FF0DC040E050E0B4
:104C100063E070E088EE94E00E94661C8091E800FA
:104C20008E778093E800089581E08093E00080E231
:104C30008093D8001092C9008FE19EE40197F1F7AC
:104C400000C0000087E090EBDC0180936A05909340
:104C50006B05A0936C05B0936D059CE088E10FB6E1
:104C6000F894A895809360000FBE90936000FFCFEA
:104C700078941F920F920FB60F9211248F939F93E7
:104C8000AF93BF938091E4049091E504A091E60472
:104C9000B091E7040196A11DB11D8093E4049093A7
:104CA000E504A093E604B093E704BF91AF919F9110
:104CB0008F910F900FBE0F901F9018959C014FB7CA
:104CC000F8948091E4049091E504A091E604B091F9
:104CD000E7044FBF821B930B08952FB7F8946091A0
:104CE000E4047091E5048091E6049091E7042FBFFD
:104CF00008952FB7F8948091E4049091E504A09171
:104D0000E604B091E7042FBF08951F920F920FB6EB
:104D10000F9211248F939F93AF93BF938091E304DD
:104D2000811113C08091E4049091E504A091E60400
:104D3000B091E7044196A11DB11D8093E4049093C6
:104D4000E504A093E604B093E704BF91AF919F916F
:104D50008F910F900FBE0F901F9018959C012A5FA6
:104D60003F4FFC014281461301C012820196821717
:104D70009307B9F708959C01FC0132969FEF80E0FC
:104D80004191461789F09F3F19F4411101C0982FB6
:104D90008F5F8630A9F79F3F39F0F901E90FF11DC8
:104DA00097FDFA956283089508952091E10430916A
:104DB000E2042817390771F09093E2048093E1042C
:104DC000E091DF04F091E004309721F00084F18558
:104DD000E02D099408952091DD043091DE04281718
:104DE000390771F09093DE048093DD04E091DF04D5
:104DF000F091E004309721F00680F781E02D0994CE
:104E00000895E091DF04F091E004309721F00190E3
:104E1000F081E02D099480E00895BC014091D9040F
:104E20008091DA04942F981729F1292F30E0F901A5
:104E3000EE0FFF1FEF52FB4F0190F081E02DE617C0
:104E4000F70799F487E0869FF001879FF00D112402
:104E5000E756FB4F81E0848394130CC02F5F3F4FD4
:104E6000237033272093D90408952F5F3F4F922F4B
:104E70009370D9CF08950F931F93CF93DF938091B1
:104E80003804882309F451C0C09137041CE0809194
:104E90003804C81708F045C001E00C0F0093370430
:104EA000D0E01C9FF0011D9FF00D1124E75CFB4F2B
:104EB0009081818123813481232B31F08F3F31F424
:104EC00081E09F3F19F403C081E001C080E080FDD4
:104ED00026C01C9FD0011D9FB00D1124A75CBB4FA5
:104EE00016968D919C911797892B31F418968D9178
:104EF0009C911997019651F420813181428153810F
:104F000064817581868197810E947A1F1C9FF001C0
:104F10001D9FF00D1124E75CFB4F14821382C02FFC
:104F2000B6CF1092380410923704DF91CF911F91C1
:104F30000F9108951092360410923504E9E9F4E0D7
:104F40008581811102C014821682379684E0E13D8A
:104F5000F807B1F708951092DC041092DB04109268
:104F600011018091DA048093D9040E949A270C944D
:104F70003B273F924F925F926F927F928F929F92C8
:104F8000AF92BF92CF92DF92EF92FF920F931F9357
:104F9000CF93DF93C091D90497E0892E01E010E010
:104FA0002CE0322E3EEF932E442443948091DA0479
:104FB000C81709F478C0D0E0FE01EE0FFF1FEF52D2
:104FC000FB4F80819181889ED001899EB00D112474
:104FD000A756BB4F14962C911497211161C0509085
:104FE0003804E9E3F4E020E030E0712C5D012515A0
:104FF00008F054C0E284F384D501CD90DC906FEFCB
:105000007FEF612C462D50E0DA01AA0FBB1FAC0DDB
:10501000BD1D0D90BC91A02D109731F0EA16FB0636
:1050200009F4BA016394EECF6F3FBFEF7B0791F1B4
:10503000D80102C0AA0FBB1F6A95E2F77A2AB8010D
:1050400002C0660F771F6A94E2F7AB014150510925
:10505000672D70E046175707D9F4329EF001339E52
:10506000F00D1124E75CFB4F889ED001899EB00DA6
:105070001124A756BB4F12962D913C91139737835D
:105080002683908291829187808715964C9206C0E4
:10509000148213822F5F3F4F3C96A9CF0E940D27A9
:1050A0002196C37083CF0E943B27DF91CF911F9140
:1050B0000F91FF90EF90DF90CF90BF90AF909F90B7
:1050C0008F907F906F905F904F903F900C949A27B5
:1050D0000F931F93CF93DF93C42FD22FFC018281B4
:1050E0008823C9F0409334040E94792690933304B6
:1050F0008093320480E28C0F883008F057C0C7706C
:1051000081E001C0880FCA95EAF7DF91CF911F9126
:105110000F910C941C2080913404481330C080916E
:105120003204909133040E945E26883C910538F544
:1051300010E21D0FCD17B9F080E28C0F883040F4DB
:10514000C77081E001C0880FCA95EAF70E94152058
:10515000183028F581E09D2F977001C0880F9A952F
:10516000EAF70E941C20802F0E9419211830F0F4C9
:10517000D77081E001C0880FDA95EAF70AC080E2B3
:105180008C0F883098F4C77081E001C0880FCA95F1
:10519000EAF7DF91CF911F910F910C941520802F8A
:1051A000DF91CF911F910F910C941921DF91CF9135
:1051B0001F910F910895CF93DF93C3E9D2E060E090
:1051C000CE010E9456312196C11584E0D807B9F767
:1051D000DF91CF9108950F931F93CF93DF93853085
:1051E00068F5633058F5423048F521159CE53907DC
:1051F00031F4E0912E04F0912F04EF2BF9F08901A6
:10520000282F34E0639FC00111243CE0239F800DD0
:10521000911D1124840F911D840F911DEC01C95F14
:10522000DD4F612FCE010E945631602FCE010196D5
:10523000DF91CF911F910F910C945631DF91CF9157
:105240001F910F9108950F931F93CF93DF93853094
:1052500018F5633008F54230F8F4282F34E0639FE6
:10526000C00111243CE0239F800D911D1124840F67
:10527000911D840F911DEC01C95FDD4FCE010E948D
:10528000383190E0182F0027CE0101960E94383166
:105290009801282BC90102C080E090E0DF91CF91F6
:1052A0001F910F9108950F931F93CF93DF93853034
:1052B00058F5663048F5483038F521159CE5390732
:1052C00031F4E0912E04F0912F04EF2BE9F08901E5
:1052D000C42FD0E0CC0FDD1F90E1699FC00DD11D20
:1052E000112490E6899FC00DD11D1124612FCE019C
:1052F00087960E945631602FCE018896DF91CF911C
:105300001F910F910C945631DF91CF911F910F9106
:1053100008956F927F928F929F92AF92BF92CF9299
:10532000DF92EF92FF920F931F93CF93DF93CDB74E
:10533000DEB72A970FB6F894DEBF0FBECDBFA090A0
:105340002E04B0902F0481E090E090932F0480937E
:105350002E04C12CD12C712C612CE12CF12C00E0FD
:1053600010E047018C0C9D1CF401E00FF11FEE0FC3
:10537000FF1FEA59FA4F25913491402F662D872D52
:105380000E9453290F5F1F4F0830110569F788E00D
:10539000E80EF11C639496E06912E1CF10E021E081
:1053A00030E040E0612F872D0E94EB2821E030E0C3
:1053B00041E0612F872D0E94EB281F5F133079F7A2
:1053C0007394E0E3CE0ED11CF5E07F12C5CFCE0181
:1053D00001967C018AE0F70111928A95E9F703E4CE
:1053E00012E04AE050E0B801C7010E947A31065F3E
:1053F0001F4F0339F2E01F07A1F7B0922F04A092CC
:105400002E042A960FB6F894DEBF0FBECDBFDF91F3
:10541000CF911F910F91FF90EF90DF90CF90BF90B1
:10542000AF909F908F907F906F9008950F931F93F0
:10543000CF93DF93853008F56630F8F44830E8F410
:10544000C42FD0E0CC0FDD1F20E1629FC00DD11D25
:10545000112430E6839FC00DD11D1124CE01879603
:105460000E94383190E0182F0027CE0188960E94C4
:1054700038319801282BC90102C080E090E0DF910B
:10548000CF911F910F910895462F209130043091B4
:105490003104232B49F4853038F4763028F4683011
:1054A00018F4672F0C94162A80E090E00895CF92AC
:1054B000DF92EF92FF920F931F93CF93DF93CDB7BD
:1054C000DEB72A970FB6F894DEBF0FBECDBF80E5DA
:1054D000EEEDF3E0DF011D928A95E9F788E3E9E953
:1054E000F4E0DF011D928A95E9F78EEDC82E83E086
:1054F000D82E7F0103E412E0F701D182C0824AE096
:1055000050E0B801CE0101960E94283188E0FE01EA
:105510003196D60101900D928A95E1F789859A8599
:10552000D70113969C938E931297BAE0CB0ED11CA1
:10553000E7E0EE0EF11C065F1F4F0339F2E01F0794
:10554000D9F62A960FB6F894DEBF0FBECDBFDF9115
:10555000CF911F910F91FF90EF90DF90CF90089522
:105560009C013A9521153F4130F5BC0166277270C8
:10557000AC01442754709C012227387094FF0FC05F
:1055800090FF02C080E101C080E0672B09F08062DB
:10559000452B09F08064232B79F080680895892FCA
:1055A0008170672B09F08260452B09F08460232B02
:1055B00019F08860089580E00895DF92EF92FF92DD
:1055C0000F931F93CF93DF93E82FF0E0EA58F84F43
:1055D000D490282F26952695269530E0F901EA5992
:1055E000F84F0491877010E0082E02C015950795BA
:1055F0000A94E2F701701127F901EA5AF84FE49092
:10560000F12C082E02C0F594E7940A94E2F791E099
:10561000E922FF24F901EA5BF84FC491D0E002C00F
:10562000D595C7958A95E2F7C170DD27011511055B
:1056300019F081EE0E947D20E114F10419F086EE4C
:105640000E947D208D2D0E941921EF2819F086EEF1
:105650000E942620012B19F081EE0E942620CD2BDE
:1056600051F08CE2DF91CF911F910F91FF90EF905D
:10567000DF900C941921DF91CF911F910F91FF9032
:10568000EF90DF900895EF92FF921F93CF93DF93F7
:10569000EC011AE08881882309F44AC0813009F0BE
:1056A00043C08981813041F47E0182E0E80EF11C23
:1056B0008A810E94192109C0823049F47E01E2E00A
:1056C000EE0EF11C8A810E947D20E7012FC08330FD
:1056D00041F47E01F2E0EF0EF11C8A810E94262047
:1056E000F4CF843011F0219621C02A81229680E0E7
:1056F00090E030E0205331092A30310558F4189FEA
:10570000A001199F500D1124C901840F951F2196E6
:105710002881EFCF009751F0EFE9FFE03197F1F7E3
:1057200000C000000197F6CF0E94DD2A2196B2CF7B
:10573000DF91CF911F91FF90EF9008951F93CF932A
:10574000DF9300D000D01F92CDB7DEB7FC01868179
:105750009781009709F5CF0125E0DE0111960190B0
:105760000D922A95E1F7FC01228189819A812223F9
:1057700059F0662349F00E94C61C182F682F8981B2
:105780009A810E94231F03C00E94F31E182F698173
:105790007A81812F0E94442A0F900F900F900F90D2
:1057A0000F90DF91CF911F9108952F923F924F92CA
:1057B0005F926F927F928F929F92AF92BF92CF92A1
:1057C000DF92EF92FF920F931F93CF93DF93CDB7AA
:1057D000DEB76A970FB6F894DEBF0FBECDBF498B18
:1057E0005A8B6B8B7C8B8D8B61111092D5038E0144
:1057F000075F1F4F88E0F80111928A95E9F785E06D
:10580000FE017196D80101900D928A95E1F70E94F0
:1058100079262091D1033091D203821B930B8838D3
:10582000934140F08091D30382FB992790F981E066
:10583000892701C080E080FF03C082E00E940E251E
:105840000E9479262091D7033091D803821B930BB5
:105850008838934110F00E948A2499858A852C8586
:105860003D85232B31F08F3F31F481E09F3F19F4C8
:1058700003C081E001C080E080FDCAC161E0C801D1
:105880000E949E2B6C0187EFC8168CE5D80639F470
:105890008B858823B9F081E080931101B9C198EF1D
:1058A000C9169CE5D90631F48B85882359F00E94EE
:1058B000AB27AEC1E9EFCE16ECE5DE0619F48B8519
:1058C000811111C009E914E0712CA12CB12C88249C
:1058D0008394912C55245394CE0101969F8B8E8BEB
:1058E000F7E04F2E49C0809111018823A1F2DFCF4C
:1058F000C616D70609F097019F5F7901292F30E07E
:10590000F901EE0FFF1FE40FF51F60817181611532
:10591000710571F7FFEFEF16FF0609F42DC1F801CD
:105920006481611131C020911101822F81706B84DB
:10593000F80135812681662009F4C6C0882309F460
:10594000C3C0332321F1940102C0220F331F9A9563
:10595000E2F721503109F801868190E028173907D4
:1059600059F17628FFEFAF1ABF0A095F1F4F28E0F1
:10597000A216B10409F402C1F80140815181EE245C
:10598000EA94FE2C90E0BACF20E030E0CECFA40124
:1059900001C0440FEA94EAF7242B268320913504B2
:1059A000309136042233310570F622E330E0309333
:1059B000360420933504C7CF8091DB049091DC043A
:1059C000009729F00E945E26C39708F01EC18091BF
:1059D000D904F091DA04F88FE0E0F0E0288D821726
:1059E00009F460C0282F30E0F901EE0FFF1FEF52DD
:1059F000FB4F20803180429CF001439CF00D11242C
:105A0000E756FB4FF080E18050E090E040E0EF2D62
:105A1000FE2DE40FF11DE40FF11DA081B18110975F
:105A2000D1F0F801F081F98FF801F181FA8F90E05F
:105A3000E98DFA8DE90FF11DE90FF11D608171818A
:105A40006115710531F0A617B70709F451E09F5FA2
:105A5000EFCF4F5FDCCF5523F9F09417C8F0429C8D
:105A6000F001439CF00D1124E756FB4F3097B1F045
:105A700054820E171F0709F474CF9091D90489132B
:105A80000DC0C9010196837099278093D90406C07F
:105A90000115110509F0B9C0E0E0F0E0C901019677
:105AA00083709CCF0E171F0709F45BCF90E0FC01B9
:105AB000EE0FFF1FEF52FB4FB182A0820196837061
:105AC00099278093DA044DCF311112C0A40102C08E
:105AD000440F551F9A95E2F74150510930E04217A3
