:100000000C94F8040C943F050C943F050C943F05A8
:100010000C943F050C943F050C943F050C943F0550
:100020000C943F050C943F050C949E180C94DA1721
:100030000C94E8270C943F050C943F050C943F0565
:100040000C943F050C943F050C943F050C943F0520
:100050000C943F050C949B270C943F050C943F0592
:100060000C943F050C943F050C943F050C943F0500
:100070000C943F050C943F050C943F050C943F05F0
:100080000C943F050C943F050C943F050C943F05E0
:100090000C943F050C943F050C943F050C943F05D0
:1000A0000C943F050C943F050C943F058A0BA00B64
:1000B000A70BDF0BF00BFB0B0B0C1C0C590C5E0C95
:1000C000B80CB80CB80C660C8610AD10B210B71096
:1000D000BC10C110C610CB10D010D510DA106011B2
:1000E000601199119911FB11361336133613191239
:1000F0008D129E129E12E2150916BC170916BC1726
:1001000055167816BC17791789175E1A5E1A711A78
:10011000711A671A711A711A711A5E1A5E1A6C1ABC
:10012000711A711A6C1A00DA0281FFD9F1DB20A46E
:10013000A62EAF00A0C000A1C800AED580A81FD3D6
:1001400000408D14200000047F3F1F64321464328D
:1001500014783C1E1E140A0500AEFD377A585A006A
:100160000004E6D6B4460200210116000000742FF8
:10017000E5A3E0085302455D003D8889C65436C3B7
:10018000174FE4F1E112FDEF008EFF6F9387B42665
:1001900047FBB729D03483DA2C4E8C1ED4A2101D15
:1001A0009A2C5F0D89D296E2560F1E575FB410F15C
:1001B0009A9B18602D7EFBA74803850A09BB61BA8C
:1001C00019807BBF8567EF57236FF0788933D06242
:1001D00022FCBD0E51E6DEAF7BE8DAA260551D19A8
:1001E000D1FB286DE36D5BBD4122218BEA6383C89F
:1001F000A2495A31655DBD002908EFA3B6E3416706
:100200003461A4214241DAB3D5EEB1FFD47A730D43
:10021000BADC2DA553DBC69C1C826411C578129FE5
:100220006B02AEEB1AB15AC2AE640ABB12D1425491
:10023000AC5FEA47341FACB08DDF83919005DA24C0
:10024000F0E6AFBA7AFD3031D023D01F58C5E17542
:10025000AD9E5950CAB8437B7E3617A673D1FA6952
:1002600040BB3404E39FA8F9C7F68E3073B34BB894
:1002700085F10E98A884A22FA49A795D68D656C4F9
:10028000CFDECA253090AE12EB5151E11D3C08F58E
:100290002FF4BF7E7483D267343E34C1E8D858F55A
:1002A000C9C805439E492068F50CA52859632B3E13
:1002B000E2E25BFE578032D60895D2E4C6FC1237E4
:1002C000A3120065CAFB32FF71CC4970B234E33629
:1002D000222ECA0C8BD719E3822FA0F6FAE954E735
:1002E000FD18EC56C54C35C0D92C0D1D27E83CFD3A
:1002F00019E70056BCC11B951A252AD64E778E7C6D
:10030000A6FD00C41BFFD4DCC1A6498236E56932D4
:10031000461309E94221A8C52DF967A1128A47238E
:1003200033907F6774052E8FF72C64431D551FF89B
:100330000F498D09ED91F1B2BDAD5683E21E680DF6
:100340009C079D2FD5CE070FAA48477E7FAC3896D5
:100350006B9DDAD736BD50BEF79A0B6F40057338E8
:100360003B3C52A9105C382114EF9A45310F94247C
:10037000D7836FE19A6BF614B74D622B25964DEB40
:10038000FB481F4076F451DEBEF7CCE1EAF194A6BB
:10039000D4ECDD31B05B34D8E74DECB6A02F9CF146
:1003A0007E380A16E95FA99EB94CCB482C6AE1D584
:1003B000852FD640DF02E8E4B98C3E9C3AED000080
:1003C000000002E97DD1F06893310001E104D4100E
:1003D00000008437DD5EB1C467FB0200000000044A
:1003E000595A2E200005010980A101850319012A0F
:1003F000B700150126B700950175108100C0050CE6
:100400000901A101850419012AA002150126A002F3
:10041000950175108100C00660FF0961A1010962A4
:10042000150026FF00952075088102096315002636
:10043000FF00952075089102C005010906A101057C
:100440000719E029E7150025019508750181029536
:1004500001750881010507190029FF150026FF0015
:10046000950675088100050819012905950575018E
:100470009102950175039101C009025B000301001F
:10048000A0FA090400000103010100092111010083
:10049000012240000705810308000A090401000247
:1004A000030000000921110100012222000705823A
:1004B00003200001070503032000010904020001D5
:1004C0000300000009211101000122320007058408
:1004D0000320000A1201000200000008FEFEBBFF1C
:1004E0000100010203011C037600690061006C0039
:1004F0003A006600360034006300320062003300C8
:1005000063000000320373006100640065006B004B
:100510006200610072006F007500640069002000D5
:10052000660066006B0062005F00620079006F0089
:100530006D006300750000001A0373006100640021
:1005400065006B006200610072006F00750064005E
:100550006900000004030904FFAA7F5540222325F7
:100560002628292A2C2D2F3032333536383A3B3D78
:100570003E4042434547494A4C4E505153555759C6
:100580005A5C5E6062646668696B6D6F71737577E3
:10059000797B7D7F81838587898A8C8E90929496E2
:1005A000989A9C9E9FA1A3A5A7A8AAACAEAFB1B3F1
:1005B000B4B6B8B9BBBCBEBFC1C2C3C5C6C7C9CA41
:1005C000CBCCCDCED0D1D2D2D3D4D5D6D7D7D8D903
:1005D000D9DADADBDBDBDCDCDCDCDCDDDDDDDDDC61
:1005E000DCDCDCDCDBDBDBDADAD9D9D8D7D7D6D573
:1005F000D4D3D2D2D1D0CECDCCCBCAC9C7C6C5C335
:10060000C2C1BFBEBCBBB9B8B6B4B3B1AFAEACAA81
:10061000A8A7A5A3A19F9E9C9A98969492908E8C31
:100620008A89878583817F7D7B79777573716F6D0B
:100630006B6968666462605E5C5A595755535150E5
:100640004E4C4A4947454342403E3D3B3A38363599
:100650003332302F2D2C2A29282625232229001435
:10066000001A000800150017001C0018002B0004D9
:10067000611668076409620A000B000D72E1001D33
:10068000001B00060019000500110010000000000A
:10069000000E7437001200337138002A0000002B5E
:1006A0000436000C000F781300E50034002A01A87E
:1006B000004C0031002800015102512C0001001EA5
:1006C000021F022002210222022302240201000151
:1006D00053025303530453010001002D020100395A
:1006E0000001000100010001000100010000000004
:1006F000002E023102260230023402010000000105
:1007000000010025022F0227020100010001000163
:100710000001000100010001000351010035001E2D
:10072000001F00200021002200230024004A005066
:1007300000510052004F002B0001002D000100016C
:10074000004E004B000100815F845F825F0000006B
:10075000002E000100260030000100010000000111
:1007600000835F25002F0027000100010001000128
:10077000000100010001000351010001000100C25D
:100780005CC45CC35C010001003A003B000100CB8B
:100790005CC55CC75CC95C01003F0040000100CC47
:1007A0005CC65CC85CCA5C010044004500000000F7
:1007B00000410001003D004300005C010000000119
:1007C0000001003C0042003E000100010001000168
:1007D0000001000100010001000100010001000111
:1007E0000001000100010001000100010001000101
:1007F00000010001000100010001000100010001F1
:1008000000010001000100010001000100000000E2
:1008100000010001000100010001000100000001D1
:1008200000010001000100010001000100010001C0
:100830000001000100010001000100010000AF0003
:1008400000000000000000000000000000000000A8
:100850000000000000000000000000000000000098
:100860000000007E0F00D4FFFFFFC70000007800EB
:10087000000000000000002A2B28000000000000FB
:100880000000000000000000000029000000002C13
:100890001E3420212224342627252E362D373827B2
:1008A0001E1F202122232425263333362E37381FBE
:1008B0000405060708090A0B0C0D0E0F1011121380
:1008C0001415161718191A1B1C1D2F3130232D351E
:1008D0000405060708090A0B0C0D0E0F1011121360
:1008E0001415161718191A1B1C1D2F3130354C0002
:1008F00001010101010101010102020202020202E1
:1009000002020303030303030303040404040404B3
:100910000405050505050606060606070707070779
:1009200008080808090909090A0A0A0B0B0B0C0C2C
:100930000C0D0D0D0E0E0E0F0F0F101011111112C8
:100940001213131414151516161717181819191A47
:100950001A1B1B1C1D1D1E1E1F20202122222324AA
:1009600024252626272829292A2B2C2D2D2E2F30E9
:10097000313232333435363738393A3B3C3D3E3FFD
:10098000404142434445464748494A4C4D4E4F50EA
:10099000515354555658595A5B5D5E5F61626465A8
:1009A0006668696B6C6D6F7072737577787A7B7D32
:1009B0007E8082838587888A8C8E8F919395969886
:1009C0009A9C9EA0A2A3A5A7A9ABADAFB1B3B5B7A2
:1009D000BABCBEC0C2C4C6C9CBCDCFD1D4D6D8DB79
:1009E000DDDFE2E4E7E9EBEEF0F3F5F8FAFDFF0016
:1009F00011241FBECFEFDAE0DEBFCDBF04B603FE89
:100A000027C080911A0690911B06A0911C06B091F8
:100A10001D068730904BA740B04BD1F410921A06B8
:100A200010921B0610921C0610921D0614BE84B76D
:100A3000877F84BF0FB6F894A89580916000886185
:100A400080936000109260000FBEE0E0F8E309952B
:100A500011E0A0E0B1E0E0E6F6E602C005900D92FC
:100A6000A63AB107D9F726E0A6EAB1E001C01D9287
:100A7000AA31B207E1F70E9441050C942E330C9481
:100A80000000CF93DF93CDB7DEB7E6970FB6F894AB
:100A9000DEBF0FBECDBF84B7877F84BF0FB6F8948B
:100AA000A89580916000886180936000109260003A
:100AB0000FBE90E080E80FB6F894809361009093A9
:100AC00061000FBE85B7806885BF85B7806885BF28
:100AD00085E79EE19093A7018093A6010E94E02BF9
:100AE0000E941E180E943D188091E200846080934D
:100AF000E2007894809105048823A1F01091E90028
:100B00001F709091EC00892F817090FD80E8182B68
:100B10001092E9008091E80083FD0E94FC141F7090
:100B20001093E90082E084BD93E095BD9AEF97BDF4
:100B300080936E000E944A23811102C00E943B23D1
:100B40000AE211E090E3E92E91E0F92ED8018D91AF
:100B50008D018F3F11F00E94BA1EE016F106B1F729
:100B600000E311E088E3E82E81E0F82EF80181919E
:100B70008F018F3F11F00E94BA1EE016F106B1F707
:100B8000EAEAF1E0A4EEB3E011921D9221E0E03B2D
:100B9000F207D1F70E946B20811102C00E947620DB
:100BA00082E090E00E942F328093D9030E945A2065
:100BB0009093A9018093A8010E94A9218FE39CE949
:100BC0000197F1F700C000000E94A9218091E40381
:100BD00080FF08C06FEF7FEF80E090E00E946132FD
:100BE0000E94772783E090E00E942F320E94AB1C86
:100BF0001092D40380E88093B3010E94F3306DE03B
:100C000070E089E391E00E94D314892B09F03FC082
:100C10008091D40363E070E081FD36C086E391E00B
:100C20000E94D314892B99F56DE070E086E291E083
:100C30000E94D314892B59F50E94D027DC01CB01E7
:100C4000805A9541AF4FBF4F80935B0590935C05F1
:100C5000A0935D05B0935E0580E092E0E4EDF1E0E5
:100C6000DF019C011D9221503040E1F78FEF9FEF93
:100C70009093D7038093D60381E08093600580939F
:100C80005F051092D50303C083E391E0C9CF809143
:100C9000B001811133C00E946B20811104C00E94F9
:100CA00076200E944D3088E090E00E9437326093B9
:100CB00084047093850480938604909387046E7FE8
:100CC00071F40E944D3088E090E00E9437326093CA
:100CD00084047093850480938604909387040E9413
:100CE0002130109280048091840480FF04C060E071
:100CF00086950E94E22681E08093B00180E091E039
:100D000090930F0680930E0622242394312CBE016B
:100D10006F5F7F4F2B0180910504853009F076C00D
:100D2000B0E4FB2EEE24E39400E112E1809105048F
:100D3000853009F056C080910504843009F43FC025
:100D4000109280048091B201811116C0E092B2012C
:100D500080918404982F91709093B1018E7F80933D
:100D600084047FEF80E792E0715080409040E1F78B
:100D700000C000000E94692310921206A8E1B0E0B2
:100D80000FB6F894A895A09360000FBEF092600093
:100D900083B7817F846083BF83B7816083BF78948A
:100DA000889583B78E7F83BF0FB6F894A8958091FE
:100DB0006000886180936000109260000FBE809197
:100DC000FB03882309F4B2CF0E94A921E4EEF3E0EB
:100DD00081918111D1C52AEE33E02E173F07C1F76B
:100DE000A5CF0E94AF1C0E9464281092B20180918E
:100DF000B101882349F08091840481608093840448
:100E000060E086950E94E2260E94CC260E94A921DD
:100E1000D82E81110E94D027EAEDF3E0A4EEB3E0D2
:100E200000E010E0302F2D919191922721F180E088
:100E3000FF24F394492F4F21D1F08BA73CA72F21FA
:100E400081E009F480E08DA70E94DC278160782F83
:100E50009FA78EA74BA55CA56DA58FA50E94B82D59
:100E6000F801E652FC4F8081F826F08219C08F5FAE
:100E7000FF0C8830F9F60F5F1F4F0630110591F611
:100E80008FEF88AB89AB1AAA0E94DC278160782F8C
:100E90009CAB8BAB48A959A96AA98CA90E94B82D13
:100EA00080918004882309F493C080917F04E091AD
:100EB0008404E695E81BE0937B04823059F4F0E06B
:100EC000EC5AFE4FE4910E2F10E0A4EDEA2EA5E2BD
:100ED000FA2E59C0863059F4F0E0EF5AFE4FE491F3
:100EE0000E2F10E0F4ECEF2EF5E2FF2E4CC089300F
:100EF00061F4E695F0E0E25BFE4FE4910E2F10E026
:100F0000E9E2EE2EE5E2FE2E3EC08F3061F4E6957A
:100F1000F0E0E55BFE4FE4910E2F10E079EBE72E59
:100F200074E2F72E30C0853159F4F0E0E85BFE4FF3
:100F3000E4910E2F10E068E6E62E64E2F62E23C060
:100F40008831A1F0833249F4E6E4F1E0059114918F
:100F500057E6E52E55E2F52E16C0843271F000ED0D
:100F600017E04AEFE42E42E2F42E0DC008E210E052
:100F70003CEDE32E33E2F32E06C004EF11E02FE93F
:100F8000E22E23E2F22E80917C04882361F01092FD
:100F90007C040E94DC2790937A0480937904109259
:100FA0007E0410927D040E94DC27E0917904F09188
:100FB0007A048E1B9F0B8F3F9F4750F40E0F1F1F0D
:100FC00010937A040093790489E794E0F701099576
:100FD00080916005882309F410C12091D6033091D7
:100FE000D7032115310509F4DDC08091D5038111A6
:100FF000D9C0682E712CEE24E394F12C082E02C087
:10100000EE0CFF1C0A94E2F7A9014E215F21452B4B
:1010100011F48F5FEECF9091D403930105E0220F7E
:10102000331F0A95E1F790FD12C08295880F8076F4
:1010300080930C01220F232F221F330B3195209315
:101040000F01815E80930D011092100112C0B5E076
:1010500036952795BA95E1F7220F220F220F20939C
:101060000C0110920F01295F20930D0183E0809302
:10107000100124E630E047E050E06AE071E088E7E4
:101080000E94AA31892B09F08DC08091D40380FD84
:1010900023C0C301A5E0880F991FAA95E1F7AC0111
:1010A0004C525E4F04E610E020E230E060E488E756
:1010B0000E94D131892B09F075C00E943E2AE0942C
:1010C000F0948091D6039091D703E822F922F09210
:1010D000D703E092D60366C080E2E4EBF1E0DF01E3
:1010E0001D928A95E9F7F5E0660C771CFA95E1F711
:1010F000ECE3F1E0FEABEDAB48E351E0ADA9BEA9F6
:101100008D91BEABADABFA019191AF019301290F67
:10111000311DB9016C527E4F4B0190E08C549E4FB3
:10112000FC0107E09F01281B390BBB24B39401C0CD
:10113000BB0C2A95EAF7B401C12CDB011D91BD015E
:101140001B21202F2C192770A22E022E000C330BEE
:10115000B12F01C0BB0FAA94EAF7AB2E31952195B0
:1011600031092770332701C016952A95EAF7A12A7D
:101170001081A12AA082C39428E0C212DECF0150C0
:1011800031960F3F79F660E471E08DA99EA968174A
:10119000790709F0B3CF04E610E020E230E044EB39
:1011A00051E084CF80915F05882339F10E94D027D8
:1011B00000915B0510915C0520915D0530915E0505
:1011C000DC01CB01801B910BA20BB30B8F3F9F4F18
:1011D000AF4FBF4790F480916005882371F08091F4
:1011E0005F05882351F062E070E088E591E00E949D
:1011F000D314892B11F410925F05D1100E943E2A5E
:101200000E9464289091D803891721F00E946428D5
:101210008093D80380910504843009F07CCD83E06D
:101220008093E9008091E80082FF75CD8091E8000D
:1012300085FF22C00E94731981111CC000E210E0DA
:101240009E012F5F3F4F790108C08091F100D701C7
:101250008D937D010150110969F08091E80085FDB1
:10126000F4CF8091E8008B778093E8000E94731997
:10127000882399F391E001C090E08091E8008B779A
:101280008093E800992309F446CD00915905109107
:101290005A0589810115110561F08E3F09F068C377
:1012A0008A81833008F42AC28550833008F060C3F5
:1012B00025C28B3009F40CC288F5853009F483C04F
:1012C000B8F4823009F446C030F4813009F04EC3DE
:1012D0001A8289E0ECC2833009F466C0843009F0D8
:1012E00045C34C816B818A810E949F2B9D8361C382
:1012F000873009F476C008F471C0883009F4B3C0AF
:10130000893009F033C36091840470918504809121
:101310008604909187040E943B302AC3803109F4EF
:101320001EC160F48D3009F4C0C008F4BCC08E301A
:1013300009F4BFC08F3009F4E5C018C3823109F445
:1013400013C108F40FC1833109F436C18E3F09F48B
:10135000D5C10CC38A81823009F424C3833051F093
:10136000813009F003C30E94D0279B838C837D8347
:101370006E83FEC28091570590915805892B09F420
:10138000F7C28091E4038B838091E5038C83809185
:10139000E6038D838091E7038E838091E8038F833A
:1013A0008091E9038887E4C28A81823009F0DEC235
:1013B0006B817C818D819E810E94C93286E290E0A2
:1013C0000E944332D5C22D813E8132272327322706
:1013D0004C816B818A810E94DC2ACAC20E94122B36
:1013E000C7C28A818138B1F050F4803809F0C0C298
:1013F00020E04B81609186048091850431C0823861
:1014000059F1833809F0B4C220E0409187046C811F
:101410008B8126C060E08B810E94E2269B818091B7
:101420008404911111C08E7F8093840410928004F3
:10143000BFEFE0E7F2E0B150E040F040E1F700C07C
:1014400000000E94692394C281608093840460E05C
:1014500086950E94E2268CC28B818093880488C284
:101460000E94E82585C28A81813891F030F4803865
:1014700009F07EC2809187041AC2823889F08338CD
:1014800009F076C2809185048B8380918604A6C181
:101490008091840480FF02C0869509C280E007C263
:1014A0008091880404C280E11EC281E08A838DE6B7
:1014B000FEC10A811B81102701271027CC80D12C67
:1014C0002DE1C216D10408F053C27201C8018D5635
:1014D0009D4F9701241935092C153D0508F048C288
:1014E0000D3631E0130730F40E942F32D7011496E5
:1014F0008C9302C0F70114820F5F1F4FFFEFEF1AAA
:10150000FF0AE4CF8091570590915805892B09F483
:101510002FC20A811B81102701271027EC80F12C94
:101520002DE1E216F10408F023C26201C8018D56D4
:101530009D4F9601241935092E153F0508F018C254
:101540000D3631E0130728F4D60114966C910E94F1
:1015500043320F5F1F4FBFEFCB1ADB0AE7CF0E946A
:10156000642A06C285E0BFC10A811B8110270127BA
:101570001027CC80D12CEDE1CE16D10408F0F8C1B3
:101580007201C80187969701241935092C153D056C
:1015900008F0EEC1003EF1E01F0730F40E942F3248
:1015A000D70114968C9302C0F70114820F5F1F4F6E
:1015B000FFEFEF1AFF0AE5CF0A811B8110270127F1
:1015C0001027CC80D12C2DE1C216D10408F0D0C157
:1015D000003E31E0130708F0CBC180EE91E0801BA4
:1015E000910B8C159D0508F4C3C1480167E2860E76
:1015F000911C8091570590915805892B11F072012B
:101600005EC000FF0FC0C80186960E942F3290E096
:10161000982F88272D81822B81159C4531F48FEFDF
:101620008D8303C0E12CF12C03C0EE24E394F12C54
:10163000C8018C0D9D1D560180FF1BC081E0A81ABA
:10164000B10855E0652E712C6C0E7D1E6A0C7B1C5A
:10165000C4018C0D9D1D0E942F32D3012C9130E0CE
:10166000322F2227282B21153C4519F48FEFF30147
:101670008083F201EE0DFF1D2FEFCF018419950934
:101680008A159B0508F0BBCF848190E0982F8827AE
:101690003581832B81159C4511F424832583329653
:1016A000ECCF003E61E0160728F4D70114966C9148
:1016B0000E9443320F5F1F4FBFEFEB1AFB0AC801B6
:1016C00087969701241935092C153D0550F350C113
:1016D0008091570590915805892B09F449C1C201A1
:1016E0000E94D219EFEFF1EE24E0E150F0402040EB
:1016F000E1F700C000000E9477273AC1EA818E2FEF
:1017000090E08E30910508F033C1FC01EA5AFF4F9A
:101710000C94C33288E0E2E2F1E0DE0191960190A0
:101720000D928A95E1F780E2D2011D928A95E9F740
:1017300084E0898388E0FE01B196DE011596F2C04F
:1017400088E8898382E08A831B821C8211C18C8194
:1017500090E0982F88272B81820F911D092E000C75
:10176000AA0BBB0B35E0880F991FAA1FBB1F3A9528
:10177000D1F7AC01BD01405E5F4F6F4F7F4F4817FF
:1017800059076A077B0708F4F3C08838E2E09E0730
:10179000A105B10508F0ECC04938F2E05F0761052A
:1017A000710520F048E852E060E070E0481B590BFA
:1017B000BC01665A7E4FC2010E941632D9C01B81FD
:1017C0000C8140E0602F812F0E94AC2A99838A838C
:1017D00041E0602F812F0E94AC2A9B838C83C8C07C
:1017E0002E813F813227232732274D816C818B81C7
:1017F0000E94742ABDC040E250E06FEF70E0C20169
:101800000E9427338091570589830A831B821C829B
:101810001D8281E0CEC030925A052092590582E3A4
:1018200090E09093E3038093E2030E94DC2790937F
:10183000E1038093E0039CC0012B89F11091E40344
:1018400011FB882780F918238091E0039091E10330
:101850000E94C12785369105E0F01123D1F00E9446
:10186000DC279093E1038093E0038091E203909161
:10187000E30301979093E3038093E203892B79F4C8
:1018800010925A051092590530925805209257052A
:1018900006C082E390E09093E3038093E20380919B
:1018A00057058983809159058A838091E2038B8350
:1018B0005FC010925805109257055AC040E250E0A0
:1018C0006FEF70E0C2010E94273352C08B818330DA
:1018D00061F0843061F181114BC080E2D2011D9230
:1018E0008A95E9F788E08A8343C06C81CE018196AE
:1018F0002AE0FC0111922A95E9F7683060F4FAE0D9
:101900006F9FB00111246D5B7D4F4AE050E00E9453
:101910001F3280E001C08FEF89838AE0FE01B1961B
:10192000DE01129601900D928A95E1F721C06C813B
:101930008AE0FE013596DE01919601900D928A951E
:10194000E1F7683070F42AE0629FB00111246D5B0A
:101950007D4F4AE050E0CE0181960E94673280E0E0
:1019600001C08FEF89830E94E02B02C08FEF898333
:10197000C2010E94D219CFC909BD19BD09B400FE28
:10198000FDCF8091D8008F7D8093D8008091E000BA
:1019900082608093E0008091E00081FDFCCF0E9496
:1019A000AF1CC4C986E290E00E942F321B821C82C9
:1019B0001D828E83DDCF8F929F92AF92BF92CF9286
:1019C000DF92EF92FF920F931F93CF93DF9300D09C
:1019D00000D0CDB7DEB7FC018081918123813481B5
:1019E000232B31F09F3F31F491E08F3F19F403C076
:1019F00091E001C090E090FD00C76F0161E0CF0170
:101A00000E94272D8C01F6018281882309F49AC057
:101A1000980122513F452031310508F07BC08FEFFE
:101A200093E00E942F3281117FC03EEEF32EF00E24
:101A300003E912E0FF2071F00115F4E01F0709F43B
:101A400073C0C8010E942F32811101C0FA940F5F48
:101A50001F4FF0CF19821A821B821C82AA24AA94DB
:101A600078012FEFE21AF20AC8010E942F3289830F
:101A70001A82882309F458C0813009F046C0480111
:101A800082E0880E911CC7010E942F328A8388232E
:101A900009F44AC09FEF980F933060F4780193E007
:101AA000E90EF11CC4010E942F328B8381112DC0DD
:101AB0008701D6CF843011F07401FACFC4010E949F
:101AC0002F32B82E7801E4E0EE0EF11CC801039627
:101AD0000E942F32BB2041F1882331F1282F30E0C2
:101AE00021503109A29EA001A39E500D11248B2DDF
:101AF00090E00197840F951F0197D0F2EFE9FFE086
:101B00003197F1F700C00000F7CFCE0101960E9497
:101B1000CC2CCECF00319FE5190709F0CBC581E071
:101B20000E94A01C0E94C81480916E04877009F462
:101B300064C6F6018281882309F45FC682E00E94B0
:101B400013215BC60031FFE51F0711F481E005C0DA
:101B500001312FE5120721F482E00E94941CE2CFAC
:101B60009091EA03911105C09091ED03992309F436
:101B7000B7C098013056211590E2390720F0305E49
:101B80002115304140F4F6019581907F09F4A8C0F9
:101B90007801FF2401C078019701305421153541A7
:101BA00008F49EC09091ED03923021F5882369F0EE
:101BB00080917104982F927219F06894F1F80FC017
:101BC00086FF0DC024E1F22A0AC0C70195558F3F58
:101BD000910511F008F08DC580E00E94932281E00C
:101BE0008093ED03F092EC03E092EB038FEF809390
:101BF00011019ACF882309F47CC5913009F05FC0A8
:101C0000809111019CE2E916F104D9F4882329F0AE
:101C10000E945E2D1092110187CF8091EB0390916D
:101C2000EC0395558F3F910509F018F40E94E020D0
:101C300003C08AE20E94591E1092ED030E94AE2D4D
:101C40004FC0EAE2EE16F10421F4815080931101B5
:101C500026C087FD34C081110BC08091EB039091A9
:101C6000EC0395558F3F910509F010F40E945E2D0D
:101C7000809111018F5F80931101FDE2EF16F10455
:101C800071F040F484E0E81AF10894E2E916F104F6
:101C900080F405C0EDE2EE16E2E0FE0651F4F60136
:101CA0008281882309F425C580917104811114C0B3
:101CB00008C5F6018281882309F41BC50DC09AE28C
:101CC000E916F10489F308F089C5F4E0EF1AF10888
:101CD00024E2E216F10440F30E94AE2D1092ED03CF
:101CE0000238FFE51F0751F4F6018281882399F13C
:101CF00081E08093ED038DE290E017C003382FE57B
:101D00001207D8F00338EFE51E0709F456C504386A
:101D1000FFE51F0709F0FEC4F60182818823D9F090
:101D200081E08093ED038DE292E09093EC03809349
:101D3000EB038FEF809311015DC500388FE5180725
:101D400009F437C101389FE5190709F0E3C4F6012A
:101D500082818111C3C4F6019281992309F4B9C12A
:101D6000109263050230FCE51F0708F49CC10631A0
:101D70002CE5120738F098012A5F3C4529303105DF
:101D800008F091C10E945A209093A9018093A80164
:101D900000318CE5180709F4C3C008F041C00830D1
:101DA000ECE51E0709F49AC0F0F404302CE51207A4
:101DB00009F487C068F402309CE5190709F477C07C
:101DC00003301C4509F0E5C08091A801826076C00F
:101DD0000630FCE51F0709F46EC008F07BC0809157
:101DE000A80188606BC00C308CE5180709F485C029
:101DF00068F40A30ECE51E0709F474C008F079C0F5
:101E00000E94AF1C8091A801806858C00E302CE55C
:101E1000120709F476C008F07FC08091A8018BC03A
:101E20000B3F9CE5190709F44FC018F50331FCE599
:101E30001F0709F47DC078F401318CE5180709F417
:101E400073C002311C4509F0A4C00E94AF1C8091F0
:101E5000A8018F7733C00531ECE51E0709F472C085
:101E600008F486C00A3F1C4509F093C08091A9017F
:101E70003EC00F3F8CE5180709F45FC058F40D3FD2
:101E8000ECE51E0709F444C008F43FC08091A901A5
:101E900082602DC001302DE5120709F475C008F4E9
:101EA0005DC002301D4509F074C060E06EC08091D5
:101EB000A801816003C08091A80180618093A8017E
:101EC00068C08091A80111C08091A90182608093AF
:101ED000A9015FC08091A8018062F0CF8091A80124
:101EE0008064ECCF8091A80188608460E7CF816036
:101EF000EECF8091A8018E7FE1CF8091A8018D7FE8
:101F0000DDCF8091A801877FD9CF8091A90118C02A
:101F10008091A9018D7FDBCF8091A8018F7ECECFEC
:101F20008091A8018F7DCACF8091A8018F7BC6CFF9
:101F30008091A801877F8B7FC1CF8091A9018D7F80
:101F40008E7FC5CF8091A80182FB222720F991E0E6
:101F5000922790FB82F990FB83F9B0CF8091A90181
:101F6000982F909591708E7F892B90FB81F9AFCF40
:101F70000E94AF1C8091A80187FB222720F991E0E5
:101F8000922790FB87F99ACF61E08EE090E00E9463
:101F900043326091A8011091A90184E090E00E9471
:101FA0004332612F82E290E00E9443320E94AF1CD4
:101FB000BBCDF6018281882309F4CDCE92EEA92E05
:101FC00093E0B92E2AE0922EF5018491882309F43A
:101FD0005AC0813009F04FC07501FFEFEF1AFF0AB8
:101FE000F7018491813049F47501F2E0EF0EF11CA4
:101FF000F70184910E94591E41C0823049F4750155
:10200000F2E0EF0EF11CF70184910E94BD1D36C075
:10201000833049F47501F2E0EF0EF11CF701849171
:102020000E94661D2BC0843049F57501F2E0EF0E69
:10203000F11CF701249180E090E030E02053310959
:102040002A30310570F4989EA001999E500D1124FC
:10205000C901840F951FFFEFEF1AFF0AF7012491C2
:10206000ECCF009759F0EFE9FFE03197F1F700C0AE
:1020700000000197F6CF0E94662C75015701FFEF13
:10208000AF1ABF0AA1CF8091740481FD64CE0E9473
:10209000DC279093730480937204809174048260AF
:1020A0008093740458CE809171040631ECE51E07CC
:1020B00009F58A7A91E009F490E09093EE03882381
:1020C00011F065E301C069E289E194E00E941E28F5
:1020D0000EC006311C4509F0A7C08091EE0388238D
:1020E00009F47AC365E389E194E00E9411280E9413
:1020F000A7221ACD8272F801E25CFC45EB30F105B3
:1021000008F05FC0EC59FF4F0C94C33280918404F7
:1021100080FF1BC08E7F8093840460918404709143
:10212000850480918604909187040E943B30109230
:102130008004EFEFF0E722E0E150F0402040E1F7CB
:1021400000C000000E946923EFCC8160809384046A
:1021500061E086950E94E226E7CC4EE050E367E11D
:1021600070E32CC047E150E36EE070E327C04AEB18
:1021700056E263EC76E222C043EC56E26AEB76E28A
:102180001DC042EA56E26EEA76E218C04EEA56E216
:1021900062EA76E213C04AE856E266E976E20EC0E9
:1021A00046E956E26AE876E209C04BEF52E26CE09B
:1021B00073E204C04CE053E26BEF72E20E946323CF
:1021C000B3CC992389F10A358DE5180741F150F414
:1021D0000115ECE51E07A9F00E3D1C4529F50E94EE
:1021E0007620A2CC0B352DE51207D9F00C351D4514
:1021F000D9F48091A90182FB882780F991E0892791
:1022000011C00E94AF1C9FEFE4E3FCE09150E0405E
:10221000F040E1F700C000000E94772785CC81E004
:1022200001C080E00E94F220F6018681978100972C
:10223000B9F4F601828100811181882349F0C80137
:102240000E94061AF82E682FC8010E94631C04C061
:10225000C8010E94331CF82EB8018F2D0E94CD2B8F
:102260000E94D11EF82E192FF601E28005810295F9
:102270000F7080916E04877099F0EE2089F0892F9D
:10228000807F803421F080E28F0D883048F082E03A
:102290000E94132180916E048770BB24B394811136
:1022A000B12CA12EA2948FE0A8228A2D90E08C3030
:1022B000910508F0DBC1FC01E159FF4F0C94C332DA
:1022C000812F807F1F70882311F01295107FEE20E0
:1022D000B9F0112309F4ACC180E28F0D883010F001
:1022E000F11006C090917104192B1093710405C070
:1022F00090917004192B109370040E94A72298C12A
:102300008F2D0E94661D112309F4B0C180E28F0D4C
:10231000883010F0F11004C0812F0E94EB2006C01D
:102320001095909170041923109370040E94A722B5
:102330009DC1812F807F1F70803211F01295107F18
:10234000FF2021F0F1E0FF1691F13BC0EE20D9F023
:102350000023A9F0013031F480917404812B0E9494
:10236000932284C1053059F40E94E02080916B04CF
:10237000181310936B04812F0E945C1D77C180910C
:102380007404812BF9CF002349F0013069F4809166
:102390007104812309F46AC10E9430210E94E02067
:1023A000812F0E94551D62C10530C1F75FC1EE202B
:1023B00021F0063008F05AC1DECF053008F056C1D2
:1023C000EFCFEE2019F00023B1F232C1002341F328
:1023D00029E3F21208C08FEF97EEE3E081509040BE
:1023E000E040E1F73EC1FFE728E381E0F150204003
:1023F0008040E1F736C1812F86958695837019F06C
:10240000813061F033C1EE2021F08F2D912F937038
:1024100002C080E090E00E944E282EC1EE2021F004
:102420008F2D912F937002C080E090E00E94382899
:1024300023C1812F8370A9F5E1101CC14F2D429556
:1024400046954770440F440F8F2D8F7090E09C018C
:10245000042E01C0220F0A94EAF7F4FE08C08FE0B0
:1024600090E001C0880F4A95EAF7809501C080E0AE
:10247000169516951370123069F088F490917504D2
:10248000113019F0822B892302C0922B892B0E94D4
:10249000AB1CF0C0822B909175048927F8CF822B5A
:1024A000F6CFEE2019F0812F817001C08695882328
:1024B00009F4E0C04F2D429546954770440F440FF4
:1024C0008F2D8F7090E09C01042E01C0220F0A9482
:1024D000EAF7F4FE08C08FE090E001C0880F4A954B
:1024E000EAF7809501C080E01695169513701230BA
:1024F00059F078F490910604113019F0822B892359
:1025000009C0922B892B06C0822B90910604892743
:1025100001C0822B0E94901CADC01F70EE2039F0CC
:10252000812F0E94A01C8F2D0E945C1DA3C08F2DA7
:102530000E94551D812F0E94941C9CC092EFF91699
:1025400059F19F1538F0E0EFFE1659F0F1EFFF1644
:10255000E1F069C023EFF21631F184EFF81681F152
:1025600062C0EE2071F0053008F080C01F7181E07C
:1025700090E001C0880F1A95EAF790910604892728
:102580001CC0063008F072C0F1CFEE2039F0812F68
:102590008F710E94A01C6AC0EE20C9F3812F8F7139
:1025A0000E94941C63C0EE2039F01F7181E001C0CD
:1025B000880F1A95EAF701C080E00E94901C56C06F
:1025C000EE20D1F080916B040E94EB2080916E048C
:1025D0008770843039F40E940C21812F8F710E9402
:1025E000941C66C0053008F063C01F71812F0E94E3
:1025F000A01C63E0812F10C09091710480916B0446
:10260000892B80937104053050F00E940C210E94A8
:10261000302164E0812F8F710E94E42249C081E063
:102620000E94132145C0EE2039F0002309F4AFCFFA
:102630008F2D0E94BD1D1AC0002309F4AFCF99E36E
:10264000F91208C0EFEFF7EE23E0E150F040204030
:10265000E1F707C08FE798E3E1E081509040E04068
:10266000E1F700C000008F2D0E94661D88EF8A0DE3
:10267000843010F40E946428BB20A9F080916E047D
:1026800080FD11C0F60112828595859585950E9481
:10269000A01CC6010E94DB0C80916E048595859577
:1026A00085950E94941C60E0C6010E94272DA5C05C
:1026B000B12CE0CF0131EFE51E0709F051CA82E0ED
:1026C0002FCA0238FFE51F0709F40ECB08F01ACB1A
:1026D00000388FE5180709F035CB70CC81E0809386
:1026E000EA030E94642881FD36CB89E30E94591ECB
:1026F00032CB02382FE5120709F4F6CA08F059C0A8
:1027000000389FE5190709F426CB0138EFE51E07CD
:1027100009F41DCB033F2CE51207A1F406E221EEDC
:1027200040EE63EF7CE50AC0073DFCE51F0709F0BA
:1027300012CB06E221EE41EE67ED7CE5C6010E9478
:10274000CB29F2C9043F8CE51807A0F4083D9CE5AD
:10275000190731F407E225EE45EE68ED7CE5EECF92
:10276000093DECE51E0701F708E221E045EE69EDC1
:102770007CE5E4CF053F2CE5120731F406E221EEBB
:1027800042EE65EF7CE5DACF053F8CE5180730F4C3
:1027900007E225EE44EE64EF7CE5D0CF063F9CE5F2
:1027A000190709F0D8CA07E225EE46EE66EF7CE588
:1027B000C5CF0338FFE51F0749F4F601828188235E
:1027C00009F4C9CA82E08093ED0314C004382FE5F0
:1027D000120709F4A1CA9ECF69E285CC8DE2E81602
:1027E000F10409F461CA9DE2E91692E0F90609F0E4
:1027F00073CA5ACAF6019281B3CA0F900F900F9014
:102800000F90DF91CF911F910F91FF90EF90DF908C
:10281000CF90BF90AF909F908F9008958091FD03CF
:1028200087FF11C08091E80082FD05C080910504FA
:102830008111F8CF11C08091E8008B770BC0809197
:102840000504882349F08091E80080FFF8CF80914B
:10285000E8008E778093E8000895982F973068F508
:102860009093E900981739F07091EC002091ED00F9
:102870005091F00003C0242F762F50E021FD02C0BC
:102880009F5FECCF3091EB003E7F3093EB003091B7
:10289000ED003D7F3093ED003091EB0031603093DF
:1028A000EB007093EC002093ED005093F00020912A
:1028B000EE0027FDE5CF80E008958F708093E9005A
:1028C00081E008952091030430910404261737070E
:1028D00048F06115710539F42091E8002E772093B6
:1028E000E80001C0B901FC0120E06115710579F132
:1028F000809105048823F1F18530F1F18091E800A1
:1029000083FD3CC08091E80082FD2EC08091E800EC
:1029100080FFEBCF2091F3008091F20090E0922BAA
:102920006115710551F08830910538F4219120939B
:10293000F100615071090196F3CF21E0089709F089
:1029400020E08091E8008E778093E800CECF2111BF
:10295000CFCF0AC080910504882361F0853061F0F3
:102960008091E80083FD0AC08091E80082FFF2CFE9
:1029700080E0089582E0089583E0089581E008955D
:10298000BC0184E00C944D27BC0183E00C944D27DE
:1029900080910604982F9670963011F4886001C0DB
:1029A000877F0C94901CEF92FF920F931F93CF930D
:1029B000DF93EC017B0164E670E088E70E94F93068
:1029C0008C01EC0EFD1ECE15DF0561F017FD0AC06F
:1029D000FE01849164E670E00E947A318C012196B8
:1029E000892B89F30E94FE31C801DF91CF911F919D
:1029F0000F91FF90EF9008951F93CF93DF93CDB782
:102A0000DEB7AA970FB6F894DEBF0FBECDBFEDEFCD
:102A1000F3E08091F100819344E0E530F407C9F7D9
:102A20008091FE03833009F462C030F4813071F08C
:102A3000823009F49CC0B3C08A3009F488C08B305E
:102A400009F46DC0893009F0AAC020C08091FD034F
:102A5000813A09F0A4C08091E800877F8093E80064
:102A60008091010490910204892B21F468E082EFA7
:102A700093E003C060E080E090E070E00E946214A8
:102A80008091E8008B778093E80089C08091FD03F6
:102A9000813209F084C08091010490910204009772
:102AA00019F0029709F07BC08091E800877F80933E
:102AB000E8008091E80082FD05C080910504811145
:102AC000F8CF6DC02091F3008091F20090E0922B3E
:102AD000029729F48091F1008B7F813021F480915D
:102AE000F1008093F1038091E8008B7754C08091CE
:102AF000FD03813A09F053C08091010490910204D2
:102B0000892B09F04CC08091E800877F8093E80012
:102B10008091E80080FFFCCF8091120137C0809146
:102B2000FD038132E1F58091010490910204892B2B
:102B3000B1F58091E800877F8093E8000E940E1431
:102B40008091FF03809312010E94AF1C28C08091E6
:102B5000FD03813221F58091E800877F8093E800B2
:102B60000E940E14809100048093F00318C080919D
:102B7000FD03813AA1F48091E800877F8093E8000B
:102B80008091E80080FFFCCF8091F0038093F100FA
:102B90008091E8008E778093E8000E940E14809167
:102BA000E80083FFE9C18091FD039091FE03492F66
:102BB00050E04A30510508F0DFC1FA01E558FF4FF7
:102BC0000C94C332803821F0823809F0D5C108C096
:102BD0008091FA039091FB03992389F082600FC0E2
:102BE000809101048F70873008F0C6C18093E9009E
:102BF0008091EB0085FB882780F91092E900909185
:102C0000E800977F9093E8008093F1001092F10024
:102C10007CC1282F2D7F09F0AFC1882319F08230A5
:102C200061F0AAC18091FF03813009F0A5C1933002
:102C300009F080E08093FB032EC08091FF03811197
:102C40002AC0809101048F702FEF280F263008F0E2
:102C500093C18093E9002091EB0020FF1CC09330CA
:102C600021F48091EB00806214C09091EB009061A0
:102C70009093EB0021E030E0A90102C0440F551F02
:102C80008A95E2F74093EA001092EA008091EB0007
:102C900088608093EB001092E9008091E800877FC4
:102CA0008093E8000E940E1467C1811165C11091E4
:102CB000FF031F778091E3008078812B8093E300EE
:102CC0008091E800877F8093E8000E940E14809135
:102CD000E80080FFFCCF8091E30080688093E300F0
:102CE000111102C082E001C083E08093050444C159
:102CF0008058823008F040C12091FF0330910004D9
:102D00002C3D53E0350779F583E08A838AE2898395
:102D10004FB7F894DE01139620E03EE051E2E32F36
:102D2000F0E050935700E49120FF03C0E295EF706C
:102D30003F5FEF708E2F90E0EA3010F0C79601C031
:102D4000C0968D939D932F5F243149F74FBF80919B
:102D5000E800877F8093E8006AE270E0CE01019688
:102D60000E946214C0C08091010490910204432F1C
:102D7000552743305105B1F068F44130510509F44D
:102D80000AC14230510509F0F7C08BE590E0E9E750
:102D9000F4E057C04132510589F14232510509F43E
:102DA0003CC0EAC0C901992781309105B9F070F0A3
:102DB00082309105D9F0039709F0DEC0E6EEF4E029
:102DC000E4918E2F90E0E6EEF4E038C0E4E5F5E023
:102DD000E4918E2F90E0E4E5F5E030C0E8E3F5E023
:102DE000E4918E2F90E0E8E3F5E028C0E4E0F5E020
:102DF000E4918E2F90E0E4E0F5E020C0833091056F
:102E000008F0BAC0880F991FFC01E75BFE4F0190E4
:102E1000F081E02D89E090E014C08330910508F046
:102E2000ABC0FC01EE0FFF1FED5BFE4F0190F08188
:102E3000E02DDC01A05CBE4F8C9190E0009709F47E
:102E40009BC02091E800277F2093E8002091030495
:102E5000309104042817390708F4C90140E00097AD
:102E600089F120910504222309F43DC02530D9F1D0
:102E70002091E80023FD37C02091E80022FD2FC0FB
:102E80002091E80020FFEBCF4091F3002091F20069
:102E900030E0342B009759F02830310540F444914C
:102EA0004093F100319601972F5F3F4FF3CF41E000
:102EB0002830310509F040E02091E8002E7720937A
:102EC000E800CDCF4111CDCF0AC080910504882301
:102ED00051F0853041F08091E80083FD04C080917D
:102EE000E80082FFF2CF8091E8008B778093E800C2
:102EF00043C0803809F040C08091E800877F80930C
:102F0000E8008091FC038093F1008091E8008E77C7
:102F1000C7CE811131C08091FF03909100049927A1
:102F2000029754F58091E800877F8093E800109124
:102F3000FF031093FC030E940E14111106C0809130
:102F4000E30087FD02C081E001C084E080930504B6
:102F500042E061EC81E00E942D1442E261EC84E0E9
:102F60000E942D1442E261EC82E00E942D1442E2A4
:102F700060EC83E00E942D148091E80083FF10C074
:102F80008091E800877F8093E8008091EB00806269
:102F90008093EB0005C082E190E0E4EDF4E051CFD6
:102FA000AA960FB6F894DEBF0FBECDBFDF91CF91CA
:102FB0001F9108951F920F920FB60F9211242F9315
:102FC0003F934F935F936F937F938F939F93AF93B1
:102FD000BF93CF93DF93EF93FF93C091E900CF703E
:102FE0008091EC00D82FD17080FDD0E81092E900DC
:102FF0008091F000877F8093F00078940E94FC1409
:103000001092E9008091F00088608093F000CD2B51
:10301000CF70C093E900FF91EF91DF91CF91BF9105
:10302000AF919F918F917F916F915F914F913F9160
:103030002F910F900FBE0F901F901895E8EDF0E0C4
:1030400080818E7F80831092E2001092DA001092CD
:10305000E100A0EEB0E08C9181608C9380818F774D
:10306000808319BCA7EDB0E08C918E7F8C9380811A
:103070008F7E80831092EF030895CF92DF92EF92BC
:10308000FF920F931F93CF93DF93C8EDD0E0888119
:103090008F7E8883E7EDF0E080818160808384E02B
:1030A00082BF81E08093EF0388818E7F888302EE68
:1030B00010E0F80110821092DA0081EEC82ED12CB7
:1030C000F601108288818F77888388818068888361
:1030D00088818F7D888319BC109205041092FC03AF
:1030E0001092FB031092FA0390EEE92EF12CF701F7
:1030F00080818B7F808388818160888342E060E06B
:1031000080E00E942D14F60180818E7F8083F8017B
:10311000808181608083808188608083F7018081E5
:103120008E7F8083888180618883DF91CF911F911A
:103130000F91FF90EF90DF90CF9008951F920F9224
:103140000FB60F9211242F933F934F935F936F937A
:103150007F938F939F93AF93BF93EF93FF93809150
:10316000E10082FF09C08091E20082FF05C08091EA
:10317000E1008B7F8093E1008091DA0080FF2AC01C
:103180008091D80080FF26C08091DA008E7F8093E6
:10319000DA008091D90080FF18C080E189BD82E10A
:1031A00089BD09B400FEFDCF81E0809305048091C4
:1031B000EF0381110FC00E941E180E943D188091DC
:1031C000E20084608093E20005C019BC10920504FF
:1031D0001092EF038091E10080FF17C08091E20020
:1031E00080FF13C08091E2008E7F8093E200809187
:1031F000E20080618093E2008091D8008062809339
:10320000D80019BC85E0809305048091E10084FF1B
:103210002EC08091E20084FF2AC080E189BD82E156
:1032200089BD09B400FEFDCF8091D8008F7D8093C9
:10323000D8008091E1008F7E8093E1008091E200D0
:103240008F7E8093E2008091E20081608093E200B3
:103250008091FC03882311F084E007C08091E30093
:1032600087FD02C081E001C083E080930504809166
:10327000E10083FF27C08091E20083FF23C080919B
:10328000E100877F8093E10082E080930504109243
:10329000FC038091E1008E7F8093E1008091E20049
:1032A0008E7F8093E2008091E20080618093E20053
:1032B00042E060E080E00E942D148091F000886080
:1032C0008093F000FF91EF91BF91AF919F918F910B
:1032D0007F916F915F914F913F912F910F900FBE12
:1032E0000F901F9018952091E4003091E50095E62D
:1032F0004091EC00842F817040FF23C08091E80052
:1033000080FD1DC080910504882399F0853099F0D7
:103310008091EB0085FD11C04091E4005091E500E3
:103320002417350729F3915011F09A01E1CF84E079
:10333000089582E0089583E0089581E0089580E093
:1033400008954091E80042FFDDCF0895EF92FF928B
:103350000F931F93CF93DF937C018B010E9473190E
:10336000811119C0E70101151105A1F08091E80054
:1033700085FD0AC08091E8008E778093E8000E9466
:103380007319882381F307C089918093F10001505C
:103390001109E9CF80E0DF91CF911F910F91FF904C
:1033A000EF900895CF93209105042430F9F4C09153
:1033B000E900CF703091EC00232F217030FD20E820
:1033C000C22B22E02093E9002091E80020FF0BC0EF
:1033D00040E050E060E270E00E94A6198091E800B1
:1033E0008E778093E800CF70C093E900CF91089565
:1033F00080E090E00E944E2880E090E00E94382813
:103400001092700410926F040C94A722CF92DF9256
:10341000FF920F931F93CF93DF936C0100910604EB
:1034200080917504082BC7E0D0E010E0C8010C2E95
:1034300002C0959587950A94E2F780FD04C0219714
:10344000A8F7F12C09C0FC2EB6018C2F0E94CD2BC1
:103450000E94D11E019799F38F2DDF91CF911F917B
:103460000F91FF90DF90CF900895CF93DF93EC0101
:103470000E94061ABE010E94CD2B0E94D11EDF9130
:10348000CF910895FC0186819781009719F00E94E1
:10349000D11E04C0808191810E94351A292F2F707E
:1034A000E92FE295EF704E2F50E0FA013297EE309F
:1034B000F105B8F4EB57FF4F0C94C332803F99F0FD
:1034C00018F4883E70F40FC0843F59F40CC0883E55
:1034D00050F0813F31F407C0822F869586958695FE
:1034E000089580E0089581E008959F92AF92BF9281
:1034F000CF92DF92EF92FF920F931F93CF93DF93C0
:10350000CDB7DEB765970FB6F894DEBF0FBECDBF5F
:103510008C0185E0F801DE01519601900D928A95AB
:10352000E1F7F801E280909121046091220440913A
:103530002404509125044115510531F06F3F31F4B9
:1035400081E09F3F19F403C081E001C080E0F82FC3
:10355000F1709F2E80FD37C1F80130812181C38039
:10356000D48071E2A72E74E0B72EF0902304F60108
:10357000E41BF50BFF2009F4F5C080912604E83C1C
:10358000F10508F0B0C0482F407F09F05AC062131F
:103590001BC0931319C06091270470912804F8018F
:1035A000468157816417750779F4FE2CE1100CC031
:1035B0008F70806180932604C5010E94DB0C80918E
:1035C0002604F80185833CC1CD2831F02F3F31F42A
:1035D00081E03F3F19F403C081E001C080E080FD3D
:1035E00003C081E08E2502C080E090E0F82FF170EA
:1035F000FF2E80FF1CC080916A044091290484172B
:1036000009F4FCC090E0FC0153E0EE0FFF1F5A9557
:10361000E1F7E65DFB4F5181251306C0508153133E
:1036200003C05281E51203C001968770E8CFFE2CDB
:10363000EE2009F405C18091260481608093260460
:103640005EC0621315C0931313C0409127045091BC
:103650002804F801268137814217530749F4E11005
:1036600007C08583C8010E94DB0C88E0F80190C088
:10367000C8010E94421A882381F1EE2071F1209145
:103680002604822F82958F7090E00297A4F080919B
:103690002104909122049A8789871B86DD86CC8637
:1036A0002E878091270490912804988B8F87CE01D4
:1036B00009960E94DB0C88E0F801A1E2B4E00190D9
:1036C0000D928A95E1F70E9440210AC06217C9F065
:1036D000C8010E94421A811127C0C8010E94DB0C58
:1036E000FF24F394ADC0482F407F81F781E294E03E
:1036F0000E94DB0C88E0F50111928A95E9F7F12C24
:103700009FC09313E5CF4091270450912804F801FE
:103710002681378142175307D9F6E110D9CF858327
:10372000C8010E94DB0C49C0EE20B9F220912604AA
:10373000822F82958F7090E002970CF4BCCF80911D
:103740002104909122049A8389831B82DD82CC829A
:103750002E83809127049091280498878F83CE012F
:103760000196A7CFE83CF10540F5FE2CEE2009F4C8
:10377000B4CF621314C0931312C020912704309168
:103780002804F801868197812817390741F488E0D9
:10379000A1E2B4E001900D928A95E1F751C0C80111
:1037A0000E94421A811187CF809126048160809304
:1037B0002604C8010E94DB0C43C088E0F501119289
:1037C0008A95E9F73DC0EE2009F487CFC8010E9431
:1037D000421AF82E882309F480CF88E0F801A1E28C
:1037E000B4E001900D928A95E1F7809121049091C7
:1037F00022040E94351A0E94402122C0398B2A8B54
:1038000089899A890E94351A292F22952F70223092
:1038100028F49F7039F0811105C00BC0243028F4C2
:103820009F7049F4805E883020F0C8010E94DB0C54
:103830009F2CF92C05C0F8019581907F99F7F9CF5D
:103840008F2D65960FB6F894DEBF0FBECDBFDF910A
:10385000CF911F910F91FF90EF90DF90CF90BF908D
:10386000AF909F9008959E3F61F128E0929F800D58
:103870001124682F669566956695982F977083E05A
:10388000689FB001112440E050E080E0FB01E40FAC
:10389000F51FE95FFB4F208130E0092E02C036950D
:1038A00027950A94E2F721703327042E01C0220FD6
:1038B0000A94EAF7822B4F5F5F4F4330510531F78F
:1038C000089580E008959E3F51F128E0929F800D79
:1038D0001124E82FE695E695E695877051E001C042
:1038E000550F8A95EAF783E0E89FF0011124E95F1C
:1038F000FB4F20E030E070E04081CB01022E02C09F
:10390000969587950A94E2F781708195842785239F
:10391000842781932F5F3F4F2330310569F7089546
:10392000809306040C94F81921E030E001C0220FC6
:103930008A95EAF720958091060482230C94901CC6
:1039400021E030E001C0220F8A95EAF78091060459
:10395000822B0C94901C809375040C94F81910928F
:10396000710486E0EBE1F4E0DF011D928A95E9F74E
:103970000C94F819CF93DF93CDB7DEB760970FB6ED
:10398000F894DEBF0FBECDBF29873A874B875C878F
:103990006D877E878F87988BCE0109960E94751A56
:1039A000811151C088E0FE013996DE011196019027
:1039B0000D928A95E1F779856A854C855D8541157B
:1039C000510531F06F3F31F481E07F3F19F403C0BE
:1039D00081E001C080E080FD36C0A0912904B0E004
:1039E000CD0101968770992720916A0430E08217F3
:1039F000930781F179836A835D834C8393E0AA0FF7
:103A0000BB1F9A95E1F7A65DBB4F98E0FE0131968A
:103A100001900D929A95E1F7809329040E94362136
:103A200012C028E0829FC0011124865D9B4F0E9436
:103A3000751A8823E1F080916A0490E001968770FE
:103A4000992780936A0480916A04909129048913CC
:103A5000E8CF0DC00E94AF1C1092290410926A0496
:103A6000E1E2F4E088E0DF011D928A95E9F76096D3
:103A70000FB6F894DEBF0FBECDBFDF91CF91089592
:103A8000882341F08095909170048923809370047D
:103A90000C94A7220895882339F090917004892B03
:103AA000809370040C94A7220895882321F00E942B
:103AB000EB200C94A7220895882339F0909171048B
:103AC000892B809371040C94A7220895882309F40C
:103AD00053C0682F823869F40E94642881FF4CC06B
:103AE00069E389E194E00E941E280E94A72269E30D
:103AF0000EC0833891F40E94642880FF3DC063E5C6
:103B000089E194E00E941E280E94A72263E589E1D2
:103B100094E00E9411280C94A722843869F40E9432
:103B2000642882FF29C067E489E194E00E941E288E
:103B30000E94A72267E4EBCF8CEF860F813A38F31F
:103B400080E2860F883048F4677081E001C0880FFA
:103B50006A95EAF70E94EB20DECF8BE5860F833073
:103B600020F480E090E00C944E28685A673120F4ED
:103B700080E090E00C9438280895CF93882309F4CE
:103B800096C0C82F8238B1F40E94642881FD8FC08E
:103B900069E389E194E00E941E280E94A7222FEF8A
:103BA00081EE94E0215080409040E1F700C0000099
:103BB00069E317C08338E1F40E94642880FD77C070
:103BC00063E589E194E00E941E280E94A7222FEF5E
:103BD00081EE94E0215080409040E1F700C0000069
:103BE00063E589E194E00E941128CF910C94A7220B
:103BF0008438B1F40E94642882FD59C067E489E1E9
:103C000094E00E941E280E94A7222FEF81EE94E0EC
:103C1000215080409040E1F700C0000067E4E1CF10
:103C20008CEF8C0F813A80F4EBE1F4E081E294E0D8
:103C30002191C217A1F18E179F07D1F76C2F89E14F
:103C400094E00E941E28D1CF80E28C0F883068F467
:103C5000C77081E090E001C0880FCA95EAF79091A3
:103C60007104892B80937104C0CFEBE5EC0FE33036
:103C700040F4F0E0E15BFE4F808190E0CF910C9446
:103C80004E28C85AC73198F4EC2FF0E0EE0FFF1F12
:103C9000EE5AFE4F80819181CF910C9438286C2F81
:103CA00089E194E00E9411280E94A722C7CFCF91FA
:103CB00008951F93CF93DF93182F893319F0C9E12B
:103CC000D0E002C0C0E5D0E0812F0E94BD1D8FE989
:103CD0009FE00197F1F700C000002197C1F7812F05
:103CE000DF91CF911F910C94661D80E00895909113
:103CF000A80192FF0DC0282F2871283019F4877F62
:103D0000846006C0282F2471243011F48B7F8860D2
:103D100093FF0DC0282F2871283119F4877E846104
:103D200006C0282F2471243111F48B7E88612091E4
:103D3000A90120FF0DC0382F3871383019F4877F62
:103D4000816006C0382F3171313011F48E7F886068
:103D500021FF0DC0282F2871283119F4877E816139
:103D600006C0282F2171213111F48E7E886194FDC7
:103D7000877E0895F894E82FE295EF70F0E031A186
:103D8000282F2F7081E090E001C0880F2A95EAF774
:103D9000982F9095932391A392A1892B82A3789435
:103DA0000895CF93DF938238910569F1B0F48133A0
:103DB000910509F46FC048F48932910509F465C092
:103DC0008A32910509F46BC08AC08533910509F4E4
:103DD00057C089339105B9F082C0833E910571F1D6
:103DE00038F4803E9105B1F0823E910511F177C023
:103DF000863E9105B9F1873E9105C9F1843E910552
:103E000009F06DC024C02091A80120FD53C021FD00
:103E100051C065C08091A80180FD46C08091A90174
:103E200080FF48C08091A80184FD3FC183EE90E0EF
:103E30003EC18091A80182FF3AC0F4CF8091A801D1
:103E400082FD35C08091A90180FD34C0EBCF809107
:103E5000A90181FF35C08091A80184FD26C187EEAC
:103E600090E025C18091A80183FF27C0F4CF809105
:103E7000A80183FD22C08091A90181FD21C0EBCF63
:103E80008091A80185FD1FC021C08091A80185FDFA
:103E90001DC019C08091A80186FD1BC01DC0809166
:103EA000A80186FD19C015C089E390E000C182EE2B
:103EB00090E0FDC080EE90E0FAC086EE90E0F7C0A2
:103EC00084EE90E0F4C089E290E0F1C085E390E0F8
:103ED000EEC08AE290E0EBC081E390E0E8C081159B
:103EE00032E5930708F069C0811541E5940728F091
:103EF000982F8827816F906ADAC0883E910568F50F
:103F0000803E910508F0D3C0883A9105B8F4853A0F
:103F1000910548F0855AE82FF0E0E15BFE4F808183
:103F200090E09064C4C08130910509F4BBC008F4EE
:103F3000BCC08430910508F4B8C0B9C08F3B91056E
:103F400008F0B3C0885AE82FF0E0EE0FFF1FEE5ADA
:103F5000FE4F808191819464AAC0811520E592076B
:103F6000F0F09C0174E0369527957A95E1F7922F51
:103F70009370482F437021E030E002C0220F331FBE
:103F80004A95E2F73C68392B8F70982F9695969555
:103F900040E2949FC0011124822B932B88C081158D
:103FA00030E4930718F09F70906A81C09C013A95A5
:103FB00021153F4108F47BC078C0EC01C11586E5AE
:103FC000D807E8F5C11525E5D20748F08C2F0E94E7
:103FD000771E8F7190E0982F8827906268C0C11576
:103FE00034E5D30728F09C2F8827846F906A5FC040
:103FF000AE01437055272C2F26952695C115D34524
:1040000078F481E090E002C0880F991F4A95E2F7AA
:1040100040E2249F90011124822B932B9C6847C07F
:1040200081E090E002C0880F991F4A95E2F740E2D4
:10403000249F90011124822B932B9A6838C0C115BC
:104040002AE5D207F8F4C11539E5D30790F08C2F93
:104050008F700E94771E94E0D695C7959A95E1F7E8
:10406000CF70D0E0DC2FCC27D0699E01282BC9016E
:104070001EC0C11548E5D407C0F09C2F8827806F6B
:10408000906A15C0CE0190568115904270F48D2F24
:104090008F710E94771E282F2F71CE019927906271
:1040A000922B05C081E090E002C080E090E0DF91BB
:1040B000CF910895CF9384E090E00E942F32C82FD3
:1040C00082E290E00E942F322C2F30E0A901582B81
:1040D000CA01CF91089580E090E00E943D328A3E6F
:1040E0009E4F11F40C944A2380E008956AEE7EEF0F
:1040F00080E090E00E94613260E082E090E00E9407
:10410000433260E083E090E00E94433210927504F5
:1041100060E084E090E00E94433260E082E290E060
:104120000E94433260E085E090E00E94433260E00C
:1041300086E090E00E9443326FEF87E090E00E94BB
:10414000433240E050E0BA0188E090E00E945532EE
:1041500060E08DE090E00E94433240E050E0BA0120
:1041600088E190E00E94553260E087E190E00E9493
:10417000433240E050E0BA018CE190E00E945532B9
:1041800060E070E080E290E00E94613240E050E048
:10419000BA0188E190E00E94553280E00E941D2320
:1041A0000E943B2340E050E0BA018FE090E00E9483
:1041B000553240E050E0BA0183E190E00C94553272
:1041C00080917404882331F0109274041092730467
:1041D00010927204089580959091710489238093C0
:1041E00071040895CF93C091A901C2FB992790F95A
:1041F000981781F080FBC2F9C093A9016091A801D2
:1042000084E090E00E9443326C2F82E290E0CF91F4
:104210000C944332CF91089510926E0410926D0465
:1042200010926C04089520916E04809582238093EF
:104230006E04982F977041F430E0482F082E000C40
:10424000550B2417350721F49091A90192FF07C05F
:104250008595859585950E94941C0C940C21089554
:1042600080916B04811110926B04089580916A040F
:1042700090912904891719F08F5F8770FBCF0895FB
:104280001F93CF93DF938091260482958F7009F05E
:104290005CC080912304882309F457C080916A048C
:1042A000109129046091210470912204C09124048A
:1042B000D091250491E06F3F09F090E0292F8117FC
:1042C00009F443C0209721F07F3F21F030E003C084
:1042D00031E001C0322F90E030FD34C0FC0133E00A
:1042E000EE0FFF1F3A95E1F7DF01A65DBB4F119678
:1042F0003C911197371326C03C91361323C0129678
:104300003C91129731111EC013964D915C911497F8
:104310004C1B5D0B483C5105A8F4809126048F701E
:10432000806180932604E15DFB4F80818F70806106
:10433000808381E294E00E94DB0CDF91CF911F919A
:104340000C94362101968770BACFDF91CF911F91DF
:1043500008959F92AF92BF92CF92DF92EF92FF9219
:104360000F931F93CF93DF9300D000D000D0CDB731
:10437000DEB7AE014F5F5F4F7A0186E0FA0111921E
:104380008A95E9F70AE211E05A01CC24C394D12CB2
:10439000F80180818F3F09F447C0F894E82FE29537
:1043A000EF70F0E021A18F70A60102C0440F551FED
:1043B0008A95E2F7CA01922F982B91A392A180953A
:1043C000892382A3789400C0E0E3F1E020E030E0AC
:1043D000912C41914F3FB1F0A42FA295AF70B0E066
:1043E00090968C9190E04F7002C0959587954A9574
:1043F000E2F780FD07C08C2D022E01C0880F0A94C1
:10440000EAF701C080E0982A2F5F3F4F283031053E
:1044100001F7F80180818F3F11F00E94BA1EF0EA87
:10442000FA95F1F7F50190820F5F1F4FFFEFAF1A7A
:10443000BF0A41E00033140709F0AACF46E050E07C
:10444000B7018AEA91E00E941A3311E0009709F45B
:1044500010E0892B89F086E0F701AAEAB1E001902B
:104460000D928A95E1F781E0809378040E94DC2721
:104470009093770480937604809178048823A1F048
:1044800080917604909177040E94C127059760F08F
:10449000EAEAF1E0A4EEB3E081918D9351E0E03BD4
:1044A000F507D1F71092780480912101882341F11A
:1044B00080910A0690910B06009711F10E94C12786
:1044C000209164053091650528173907C8F490914B
:1044D000080680910906981759F00E941C2910922D
:1044E00065051092640510920B0610920A0608C02A
:1044F0000E949E2810920B0610920A060E94FD2828
:10450000812F26960FB6F894DEBF0FBECDBFDF9188
:10451000CF911F910F91FF90EF90DF90CF90BF90C0
:10452000AF909F900895CF939091A90192FD0DC0F7
:1045300090917404981749F0C82F0E94DC2790933B
:10454000730480937204C0937404CF910895909182
:10455000710480917004892B90916F04892B809352
:10456000190480917404882311F10E94DC272091A2
:10457000720430917304821B930B8838934110F0BE
:104580000E94E0209091190480917404892B8093FB
:104590001904EBE1F4E097E080E0915029F02191DB
:1045A0002223D9F38F5FF9CF81110E94E020E0919F
:1045B0000E06F0910F06309731F00280F381E02D66
:1045C00089E194E0099408959091A90192FD10C0A9
:1045D00098E0899F90011124262B20936E040E945D
:1045E000A01C0E94DC2790936D0480936C040895B6
:1045F0000C94A01C089580918804882319F08150A0
:10460000809388046091840470918504809186046D
:10461000909187040C943B3080918804833018F487
:104620008F5F8093880460918404709185048091E9
:104630008604909187040C943B30CF93C82F81114E
:1046400002C06FEF01C067EC83E290E00E9443324A
:10465000C11102C06FEF01C065E884E290E00E94E2
:104660004332C11102C06FEF01C062E485E290E005
:10467000CF910C94433280E00E941D2360E086E2DB
:1046800090E00E9443320E94122B0E94642A81E033
:104690000C941D2383E290E00E942F32873C81F42A
:1046A00084E290E00E942F32853851F485E290E058
:1046B0000E942F3291E0823409F090E0892F01C0EE
:1046C00080E081700895882311F0FA0101C0FB0198
:1046D00009948091840480FF0AC0539A8BB1877F2C
:1046E0009BB198602FB7F894E9E8F4E00BC0E9E8D3
:1046F000F4E0118210821282339635E0E730F3073E
:10470000C1F7EBCF35E0E730F30789F0319148E0AE
:104710009BB9000000C037FF8BB9330F000000C009
:1047200000C000C08BB900C04A9591F7EBCF2FBFF6
:104730008FE594E00197F1F700C000000895EF9233
:10474000FF920F931F93CF93DF938C01C9E8D4E0BE
:10475000E12CF12CF8018481F5E1EF16F1041CF451
:10476000882351F002C0811107C04091870441376E
:1047700008F040E79E0102C09E0140E0609186047F
:10478000809185040E945D308FEFE81AF80A239625
:104790009AE2E916F104F1F60E946923F801848196
:1047A00090E00196817099278483DF91CF911F91CA
:1047B0000F91FF90EF9008958F929F92AF92BF92CA
:1047C000CF92DF92EF92FF920F931F93CF93DF93DD
:1047D000EC014C81042F10E09801D8010E94D832DE
:1047E0009B01AC010E94EE326B017C01E0E2F0E043
:1047F000E01BF10BA5E5B0E09B01AC010E94EE329D
:104800004B015C019F01DF010E94D0329B01AC0192
:104810000E94F9329B01AC012C0D3D1D4E1D5F1D08
:10482000C501B4010E94A132822FF22E99E29217A3
:1048300028F093E0299F900111240DC025E530E078
:10484000281B3109C901880F991F280F391F37FF0D
:1048500002C02F5F3F4F35952795122F109599E88D
:10486000C92E94E0D92E00E085E5E82EEF1801FD71
:1048700002C08E2D01C08F2D412F113708F040E767
:104880009601609186040E945D300F5F83E0C80E40
:10489000D11C0A3261F70E9469238C81811102C008
:1048A00091E003C0803219F49FEF90932001909122
:1048B0002001890F8C83DF91CF911F910F91FF9081
:1048C000EF90DF90CF90BF90AF909F908F90089522
:1048D0000F931F93CF93DF93C9E8D4E0FE011182B9
:1048E00010821282339685E0E730F807C1F700E0C6
:1048F00010E080918204082E000C990B081719070C
:10490000ACF080911F01082E000C990B80179107C5
:104910006CF040918704413708F040E79E016091B8
:104920008604809185040E945D3003C0198218823C
:104930001A820F5F1F4F23960A321105D1F60E948B
:10494000692380911E0190918204980F90938204B4
:1049500020911F01280F20931F01121614F4993281
:104960001CF0819580931E01DF91CF911F910F91D3
:104970000895BF92CF92DF92EF92FF920F931F9311
:10498000CF93DF93FC01828180FF03C0DD24DA94A2
:1049900002C0DD24D39409E814E0C0E0D0E02AE2AC
:1049A000B22EF80111821082128294E0E92EF12CCD
:1049B000C12C809181048C0D8B322CF06B2D0E94C8
:1049C0007F32892F02C087FD865D082E000C990B6F
:1049D000C817D907A9F4809187048E9DA0018F9DE7
:1049E000500D11245595479555954795413708F039
:1049F00040E7980160918604809185040E945D30B3
:104A0000CD0CF1E0EF1AF108A1F621960D5F1F4FD2
:104A1000CA32D10531F60E9469238091810491E068
:104A2000D91206C0811102C089E207C0815005C0B9
:104A300090E00196BE010E948D3280938104DF9147
:104A4000CF911F910F91FF90EF90DF90CF90BF908B
:104A50000895EF92FF921F93CF93DF93EC0189E8C3
:104A6000E82E84E0F82E10E040918704413708F0EA
:104A700040E78C81970160918604810F0E945D3030
:104A80001A5F83E0E80EF11C1C3F71F70E94692356
:104A90009A818C8190FF02C08F5F01C081508C830E
:104AA000DF91CF911F91FF90EF9008959091840432
:104AB00090FF0CC0E9E8F4E0818360834283339681
:104AC00095E0E730F907C1F70C94692308950F9337
:104AD0001F93CF93DF9300D01F92CDB7DEB78C0129
:104AE0008091830481110AC09E012F5F3F4F40E7F0
:104AF0006FEF0E945D308A8180938304F801848186
:104B0000813051F028F0823061F4409183040AC072
:104B10008091830440E007C06091830440E080E01E
:104B200003C040E080E060E00E945625F8018481E7
:104B300090E0019663E070E00E948D3284830F90D4
:104B40000F900F90DF91CF911F910F910895CF9308
:104B5000DF9300D01F92CDB7DEB79091840490FF11
:104B60000DC0413708F040E79E012F5F3F4F0E9484
:104B70005D304B8169818A810E9456250F900F908C
:104B80000F90DF91CF910895CF93DF93EC01E4E88C
:104B9000F4E0438162818C810E94A7258C818F5F24
:104BA0008C83DF91CF910895CF93DF93EC01EC815B
:104BB000F0E0E35AFA4F4491E4E8F4E06281818145
:104BC0000E94A7258C818F5F8C83DF91CF91089500
:104BD0005F926F927F928F929F92AF92BF92CF928D
:104BE000DF92EF92FF920F931F93CF93DF9300D04A
:104BF0001F92CDB7DEB7082F762E142F622E90911C
:104C0000840490FF74C0E92FE695AE2FB0E0A05861
:104C1000BE4F8C9180937F049E7F923081F4413708
:104C200008F040E79E012F5F3F4F672D802F0E94C5
:104C30005D304B8169818A810E94562546C0823051
:104C400019F41091870441C0863019F4009185044D
:104C50003CC08930D9F38931C1F5E9518E2F81707B
:104C6000582EE695F0E0E85AFA4FA590B49089E8FE
:104C7000C82E84E0D82EE12CF12CBB249AE2892E98
:104C8000912CAE9CC001AF9C900DBE9C900D112448
:104C9000B4010E940232802F511002C0860F01C061
:104CA000861B412F113708F040E79601672D0E94BF
:104CB0005D308FEFE81AF80A83E0C80ED11C8AE253
:104CC000E816F104F1F60E946923009385047092BE
:104CD000860410938704662051F0609184047091DB
:104CE000850480918604909187040E943B300F9048
:104CF0000F900F90DF91CF911F910F91FF90EF9048
:104D0000DF90CF90BF90AF909F908F907F906F90EB
:104D10005F900895E4E8F4E0438120E1421B08F449
:104D200040E021E0628181810C94E825E4E8F4E030
:104D3000438120E1420F08F44FEF21E0628181813D
:104D40000C94E825E4E8F4E0628120E1621B08F4B9
:104D500060E021E0438181810C94E825E4E8F4E0FF
:104D6000628120E1620F08F46FEF21E043818181CD
:104D70000C94E825E4E8F4E0818121E0438162813C
:104D800080510C94E825E4E8F4E0818121E043813E
:104D90006281805F0C94E82560918404669570E0E0
:104DA0004BE050E083E191E00E940D33892B19F430
:104DB00081E0809380040E94DC2790937A048093A2
:104DC000790408959091840490FF36C09170811108
:104DD00002C0926006C0853210F0986402C0880F4D
:104DE000982B90938404662351F060918404709111
:104DF000850480918604909187040E943B306091E5
:104E00008404669570E04BE050E083E191E00E94FD
:104E10000D33892B19F01092800402C00E94CC2619
:104E200081E080937C0420E04091870460918604B7
:104E3000809185040C94E825089508958091F103EC
:104E40000895CF93DF9321E02093E9002FEF309175
:104E5000E800215035FD06C035ED3A95F1F7000028
:104E60002111F5CF2091E80025FF14C0EC0140E0AE
:104E700050E068E070E00E94A6198091E8008E770B
:104E80008093E80088E0FE01A2EFB3E001900D926C
:104E90008A95E1F7DF91CF910895909105049430C0
:104EA00029F580931706709319066093180690935E
:104EB000E9008FEF9091E800815095FD06C095EDD7
:104EC0009A95F1F700008111F5CF8091E80085FFF8
:104ED0000DC040E050E063E070E087E196E00E94A2
:104EE000A6198091E8008E778093E800089581E00C
:104EF0008093E00080E28093D8001092C9008FE197
:104F00009EE40197F1F700C0000087E090EBDC0120
:104F100080931A0690931B06A0931C06B0931D065F
:104F20009CE088E10FB6F894A895809360000FBECE
:104F300090936000FFCF78941F920F920FB60F925C
:104F400011248F939F93AF93BF93809113069091F9
:104F50001406A0911506B09116060196A11DB11D6B
:104F60008093130690931406A0931506B09316062B
:104F7000BF91AF919F918F910F900FBE0F901F9097
:104F800018959C014FB7F8948091130690911406E0
:104F9000A0911506B09116064FBF821B930B089582
:104FA0002FB7F8946091130670911406809115063E
:104FB000909116062FBF08952FB7F894809113068D
:104FC00090911406A0911506B09116062FBF089572
:104FD0001F920F920FB60F9211248F939F93AF934E
:104FE000BF9380911206811113C080911306909196
:104FF0001406A0911506B09116064196A11DB11D8B
:105000008093130690931406A0931506B09316068A
:10501000BF91AF919F918F910F900FBE0F901F90F6
:1050200018959C012A5F3F4FFC014281461301C045
:105030001282019682179307B9F708959C01FC012B
:1050400032969FEF80E04191461789F09F3F19F417
:10505000411101C0982F8F5F8630A9F79F3F39F02B
:10506000F901E90FF11D97FDFA95628308950895FE
:1050700020911006309111062817390771F090938E
:10508000110680931006E0910E06F0910F063097FE
:1050900021F00084F185E02D0994089520910C06FB
:1050A00030910D062817390771F090930D06809303
:1050B0000C06E0910E06F0910F06309721F0068065
:1050C000F781E02D09940895E0910E06F0910F0606
:1050D000309721F00190F081E02D099480E008954F
:1050E000BC014091080680910906942F981729F178
:1050F000292F30E0F901EE0FFF1FE050FA4F019029
:10510000F081E02DE617F70799F487E0869FF0011C
:10511000879FF00D1124E853FA4F81E084839413A4
:105120000CC02F5F3F4F237033272093080608954C
:105130002F5F3F4F922F9370D9CF08950F931F93F6
:10514000CF93DF9380916705882309F451C0C09104
:1051500066051CE080916705C81708F045C001E0AE
:105160000C0F00936605D0E01C9FF0011D9FF00D11
:105170001124E859FA4F9081818123813481232BB6
:1051800031F08F3F31F481E09F3F19F403C081E09B
:1051900001C080E080FD26C01C9FD0011D9FB00D86
:1051A0001124A859BA4F16968D919C911797892B67
:1051B00031F418968D919C911997019651F42081A4
:1051C00031814281538164817581868197810E94FA
:1051D000BA1C1C9FF0011D9FF00D1124E859FA4FD5
:1051E00014821382C02FB6CF109267051092660505
:1051F000DF91CF911F910F91089510926505109244
:105200006405E8ECF5E08581811102C01482168204
:10521000379686E0E030F807B1F7089510920B0654
:1052200010920A06109221018091090680930806C7
:105230000E94FD280C949E283F924F925F926F929D
:105240007F928F929F92AF92BF92CF92DF92EF9216
:10525000FF920F931F93CF93DF93C091080697E0BF
:10526000892E01E010E02CE0322E3EEF932E4424F4
:10527000439480910906C81709F478C0D0E0FE0174
:10528000EE0FFF1FE050FA4F80819181889ED00180
:10529000899EB00D1124A853BA4F14962C911497DF
:1052A000211161C050906705E8E6F5E020E030E0AC
:1052B000712C5D01251508F054C0E284F384D501FA
:1052C000CD90DC906FEF7FEF612C462D50E0DA013E
:1052D000AA0FBB1FAC0DBD1D0D90BC91A02D10974A
:1052E00031F0EA16FB0609F4BA016394EECF6F3F82
:1052F000BFEF7B0791F1D80102C0AA0FBB1F6A95CF
:10530000E2F77A2AB80102C0660F771F6A94E2F7C3
:10531000AB0141505109672D70E046175707D9F48A
:10532000329EF001339EF00D1124E859FA4F889E09
:10533000D001899EB00D1124A853BA4F12962D9119
:105340003C9113973783268390829182918780873F
:1053500015964C9206C0148213822F5F3F4F3C96E5
:10536000A9CF0E9470282196C37083CF0E949E28E7
:10537000DF91CF911F910F91FF90EF90DF90CF9031
:10538000BF90AF909F908F907F906F905F904F9065
:105390003F900C94FD280F931F93CF93DF93C42F5E
:1053A000D22FFC0182818823C9F0409363050E94BB
:1053B000DC27909362058093610580E28C0F883032
:1053C00008F057C0C77081E001C0880FCA95EAF79E
:1053D000DF91CF911F910F910C945C1D809163051B
:1053E000481330C080916105909162050E94C127E9
:1053F000883C910538F510E21D0FCD17B9F080E219
:105400008C0F883040F4C77081E001C0880FCA95C6
:10541000EAF70E94551D183028F581E09D2F9770FE
:1054200001C0880F9A95EAF70E945C1D802F0E94A8
:10543000591E1830F0F4D77081E001C0880FDA955A
:10544000EAF70AC080E28C0F883098F4C77081E0D8
:1054500001C0880FCA95EAF7DF91CF911F910F9194
:105460000C94551D802FDF91CF911F910F910C94BB
:10547000591EDF91CF911F910F9108958091600582
:105480008823F9F00E94D027DC01CB01805A954196
:10549000AF4FBF4F80935B0590935C05A0935D0574
:1054A000B0935E0580915F0581110BC062E070E0F2
:1054B0008DE398E00E94D314892B19F481E0809346
:1054C0005F0580915F050895CF93DF93C3E9D2E034
:1054D00060E0CE010E9443322196C11584E0D807D6
:1054E000B9F7DF91CF9108950F931F93CF93DF9377
:1054F000853068F5633058F5423048F521159CE554
:10550000390731F4E0915705F0915805EF2BF9F088
:105510008901282F34E0639FC00111243CE0239FC0
:10552000800D911D1124840F911D840F911DEC019C
:10553000C95FDD4F612FCE010E944332602FCE0143
:105540000196DF91CF911F910F910C944332DF911F
:10555000CF911F910F9108950F931F93CF93DF93D6
:10556000853018F5633008F54230F8F4282F34E020
:10557000639FC00111243CE0239F800D911D1124E5
:10558000840F911D840F911DEC01C95FDD4FCE0189
:105590000E942F3290E0182F0027CE0101960E9422
:1055A0002F329801282BC90102C080E090E0DF91E2
:1055B000CF911F910F9108950F931F93CF93DF9376
:1055C000853058F5663048F5483038F521159CE5AA
:1055D000390731F4E0915705F0915805EF2BE9F0C8
:1055E0008901C42FD0E0CC0FDD1F90E1699FC00D71
:1055F000D11D112490E6899FC00DD11D1124612F6A
:10560000CE0187960E944332602FCE018896DF91AB
:10561000CF911F910F910C944332DF91CF911F9145
:105620000F9108956F927F928F929F92AF92BF9247
:10563000CF92DF92EF92FF920F931F93CF93DF935E
:10564000CDB7DEB72A970FB6F894DEBF0FBECDBF39
:10565000A0905705B090580581E090E090935805D0
:1056600080935705C12CD12C712C612CE12CF12C8D
:1056700000E010E047018C0C9D1CF401E00FF11FCD
:10568000EE0FFF1FE35AF94F25913491402F662DFD
:10569000872D0E94DC2A0F5F1F4F0830110569F724
:1056A00088E0E80EF11C639496E06912E1CF10E007
:1056B00021E030E040E0612F872D0E94742A21E034
:1056C00030E041E0612F872D0E94742A1F5F133064
:1056D00079F77394E0E3CE0ED11CF5E07F12C5CFCD
:1056E000CE0101967C018AE0F70111928A95E9F7D3
:1056F00003E412E04AE050E0B801C7010E946732BB
:10570000065F1F4F0339F2E01F07A1F7B09258055B
:10571000A09257052A960FB6F894DEBF0FBECDBFF4
:10572000DF91CF911F910F91FF90EF90DF90CF907D
:10573000BF90AF909F908F907F906F9008950F9340
:105740001F93CF93DF93853008F56630F8F4483027
:10575000E8F4C42FD0E0CC0FDD1F20E1629FC00D24
:10576000D11D112430E6839FC00DD11D1124CE011F
:1057700087960E942F3290E0182F0027CE0188963E
:105780000E942F329801282BC90102C080E090E0CE
:10579000DF91CF911F910F910895462F20915905C8
:1057A00030915A05232B49F4853038F4763028F4AB
:1057B000683018F4672F0C949F2B80E090E00895D8
:1057C000CF92DF92EF92FF920F931F93CF93DF93CD
:1057D000CDB7DEB72A970FB6F894DEBF0FBECDBFA8
:1057E00080E5E7E0F5E0DF011D928A95E9F788E3BF
:1057F000E8ECF5E0DF011D928A95E9F787E0C82E15
:1058000085E0D82E7F0103E412E0F701D182C08247
:105810004AE050E0B801CE0101960E941F3288E0B4
:10582000FE013196D60101900D928A95E1F78985A6
:105830009A85D70113969C938E931297BAE0CB0E5C
:10584000D11CE7E0EE0EF11C065F1F4F0339F2E0BA
:105850001F07D9F62A960FB6F894DEBF0FBECDBF4C
:10586000DF91CF911F910F91FF90EF90DF90CF903C
:1058700008959C013A9521153F4130F5BC016627FA
:105880007270AC01442754709C012227387094FF39
:105890000FC090FF02C080E101C080E0672B09F0DB
:1058A0008062452B09F08064232B79F0806808958D
:1058B000892F8170672B09F08260452B09F0846085
:1058C000232B19F08860089580E00895DF92EF920D
:1058D000FF920F931F93CF93DF93E82FF0E0E159EE
:1058E000F74FD490282F26952695269530E0F9017C
:1058F000E15AF74F0491877010E0082E02C0159509
:1059000007950A94E2F701701127F901E15BF74F5F
:10591000E490F12C082E02C0F594E7940A94E2F783
:1059200091E0E922FF24F901E15CF74FC491D0E056
:1059300002C0D595C7958A95E2F7C170DD2701159C
:10594000110519F081EE0E94BD1DE114F10419F05A
:1059500086EE0E94BD1D8D2D0E94591EEF2819F064
:1059600086EE0E94661D012B19F081EE0E94661DD5
:10597000CD2B51F08CE2DF91CF911F910F91FF90D1
:10598000EF90DF900C94591EDF91CF911F910F91F2
:10599000FF90EF90DF900895EF92FF921F93CF93C7
:1059A000DF93EC011AE08881882309F44AC0813032
:1059B00009F043C08981813041F47E0182E0E80E24
:1059C000F11C8A810E94591E09C0823049F47E016F
:1059D000E2E0EE0EF11C8A810E94BD1DE7012FC09E
:1059E000833041F47E01F2E0EF0EF11C8A810E94C7
:1059F000661DF4CF843011F0219621C02A812296B1
:105A000080E090E030E0205331092A30310558F42D
:105A1000189FA001199F500D1124C901840F951FD3
:105A200021962881EFCF009751F0EFE9FFE0319701
:105A3000F1F700C000000197F6CF0E94662C219676
:105A4000B2CFDF91CF911F91FF90EF9008951F93F8
:105A5000CF93DF9300D000D01F92CDB7DEB7FC010B
:105A600086819781009709F5CF0125E0DE01119627
:105A700001900D922A95E1F7FC01228189819A819A
:105A8000222359F0662349F00E94061A182F682F26
:105A900089819A810E94631C03C00E94331C182FC5
:105AA00069817A81812F0E94CD2B0F900F900F90EA
:105AB0000F900F90DF91CF911F9108950F931F9337
:105AC000CF93DF93C091EB03D091EC03CE019555BA
:105AD0008F3F910509F058F48C2FC4FF02C08295C6
