:100000000C94FF030C9446040C9446040C94460490
:100010000C9446040C9446040C9446040C94460438
:100020000C9446040C9446040C94C0160C94FC15D5
:100030000C94DC210C9446040C9446040C94460465
:100040000C9446040C9446040C9446040C94460408
:100050000C9446040C948F210C9446040C94460492
:100060000C9446040C9446040C9446040C944604E8
:100070000C9446040C9446040C9446040C944604D8
:100080000C9446040C9446040C9446040C944604C8
:100090000C9446040C9446040C9446040C944604B8
:1000A0000C9446040C9446040C944604190A2F0A36
:1000B000360A6E0A7F0A8A0A9A0AAB0AE80AED0A29
:1000C000470B470B470BF50A850F850FBE0FBE0F79
:1000D00020105B115B115B113E10B210C310C310F6
:1000E00004142B14DE152B14DE1577149A14DE1568
:1000F0009B15AB15801880189318931889189318BE
:1001000093189318801880188E18931893188E18C7
:1001100000DA0281FFD9F1DB20A4A62EAF00A0C037
:1001200000A1C800AED580A81FD300408D142000C8
:1001300000AEFD377A585A000004E6D6B4460200F5
:10014000210116000000742FE5A3E0085302455D6D
:10015000003D8889C65436C3174FE4F1E112FDEF24
:10016000008EFF6F9387B42647FBB729D03483DA1C
:100170002C4E8C1ED4A2101D9A2C5F0D89D296E2B3
:10018000560F1E575FB410F19A9B18602D7EFBA787
:100190004803850A09BB61BA19807BBF8567EF57A1
:1001A000236FF0788933D06222FCBD0E51E6DEAFBA
:1001B0007BE8DAA260551D19D1FB286DE36D5BBDAC
:1001C0004122218BEA6383C8A2495A31655DBD0093
:1001D0002908EFA3B6E19EAEF3D84A9B2F0D317CE0
:1001E000DC7AE26D5B8D9F4C1A0FEED72802735DAF
:1001F00024FAE0CD52AD5FA9557D24C66E6096EE1F
:10020000385461552D353326C0C365397C77239B1F
:10021000589B7C90A1BFBD6D204BBF2FE0C2EF0368
:1002200063B5AC02FDD87142E85C47D08B8B0845C2
:100230005CE2D1BD93A36E6B7B019B123EA7AB5ECC
:10024000B577FDE833C6F7BB8181344D4831C367CC
:10025000B9E33A8438C073722F53E5B769DD775E2E
:10026000305F2782C90FFEE70EAAEAE455B91AF1FA
:1002700096FE8AE7C52E76B72D2C05C44C4C9E758C
:10028000684B1B92247E2B906DF9DE48E3E4A46753
:10029000E21B4A6CFA5A78AABE7A60553A67389CD3
:1002A0007FBA3B8D1B128E5FB2763748EB7D97226B
:1002B0002611EBAEEE4E87D5FA484DA991F4B5CB99
:1002C000B4B735D19F40D5E312191F76715BA303F4
:1002D000830EC87AFA73CC48F9436FBCADF442CCB4
:1002E000C64C8DA0FF9EFAD6F6E65D11F9640DEDC1
:1002F000B69B5DBBDF9DC9DF085FCD2BE31E49F9CF
:10030000E211DE6CDC707AD4075AFF4099DBBCEA5C
:10031000657B2A642CA48220E55D181AD31FAF0BDD
:100320006F8A701E4C95AE69E6EC7CAA614CAE2FCC
:10033000D61C5296328C661C8E0964B523686428DC
:1003400075932C911DA0C9AA1DFB9B345575DFAC7C
:1003500063A36274506CFB2CCA5497D6DB2F5D6F7D
:10036000DF76D5948A1EA7855FE6802992D46176D0
:10037000588C98975A6826CDB1651D8D8A5C523687
:10038000D1C421A22A8366E99C0CB0428FBD517171
:100390005A73ABE82CB000000000896E945E76536F
:1003A000C6190001E104D41000008437DD5EB1C439
:1003B00067FB020000000004595A2E2000050109C5
:1003C00080A101850319012AB700150126B7009500
:1003D0000175108100C0050C0901A10185041901F6
:1003E0002AA002150126A002950175108100C00601
:1003F00060FF0961A1010962150026FF00952075C3
:100400000881020963150026FF00952075089102F6
:10041000C005010906A101050719E029E715002516
:10042000019508750181029501750881010507197B
:100430000029FF150026FF009506750881000508B4
:100440001901290595057501910295017503910121
:10045000C009025B00030100A0FA090400000103C7
:10046000010100092111010001224000070581035B
:1004700008000A090401000203000000092111011B
:100480000001222200070582032000010705030363
:1004900020000109040200010300000009211101EC
:1004A00000012232000705840320000A1201000225
:1004B00000000008FEFEBBFF0100010203011C0357
:1004C0007600690061006C003A0066003600340076
:1004D00063003200620033006300000032037300E7
:1004E0006100640065006B006200610072006F00D3
:1004F0007500640069002000660066006B00620001
:100500005F00620079006F006D00630075000000FD
:100510001A0373006100640065006B0062006100F3
:1005200072006F0075006400690000000403090494
:10053000AA00A90050014F012B032B01010001006B
:1005400001000100010001000100010001000100A3
:100550000100010001000100010001000100010093
:100560000100010001000100010001002900140048
:100570001A000800150017001C0018002B00046169
:100580001668076409620A000B000D72E1001D0085
:100590001B000600190005001100100000000000FB
:1005A0000E7437001200337138002A0000002B044B
:1005B00036000C000F781300E50034002A01A80073
:1005C0004C0031002800015102512C0001001E0294
:1005D0001F022002210222022302240201000153F1
:1005E000025303530453010001002D02010039009E
:1005F00001000100010001000100010000000000F5
:100600002E023102260230023402010000000100F5
:10061000010025022F022702010001000100010054
:1006200001000100010001000351010035001E001E
:100630001F00200021002200230024004A00500057
:10064000510052004F002B0001002D00010001005D
:100650004E004B000100815F845F825F000000005C
:100660002E00010026003000010001000000010002
:10067000835F25002F002700010001000100010019
:100680000100010001000351010001000100C25CF2
:10069000C45CC35C010001003A003B000100CB5C7C
:1006A000C55CC75CC95C01003F0040000100CC5C38
:1006B000C65CC85CCA5C0100440045000000000044
:1006C000410001003D004300005C0100000001000A
:1006D00001003C0042003E00010001000100010059
:1006E0000100010001000100010001000100010002
:1006F00001000100010001000100010001000100F2
:1007000001000100010001000100010001000100E1
:1007100001000100010001000100010000000000D3
:1007200001000100010001000100010000000100C2
:1007300001000100010001000100010001000100B1
:1007400001000100010001000100010000AF0000F4
:100750000000000000000000000000000000000099
:100760000000000000000000000000000000000089
:1007700000007E0F00D4FFFFFFC7000000780000DC
:100780000000000000002A2B2800000000000000EC
:1007900000000000000000000029000000002C1EE6
:1007A0003420212224342627252E362D3738271EA3
:1007B0001F202122232425263333362E37381F04C9
:1007C00005060708090A0B0C0D0E0F101112131461
:1007D00015161718191A1B1C1D2F3130232D35041F
:1007E00005060708090A0B0C0D0E0F101112131441
:1007F00015161718191A1B1C1D2F3130354C1124D2
:100800001FBECFEFDAE0DEBFCDBF04B603FE27C0C8
:100810008091760590917705A0917805B091790542
:100820008730904BA740B04BD1F4109276051092D0
:100830007705109278051092790514BE84B7877FEA
:1008400084BF0FB6F894A89580916000886180936A
:100850006000109260000FBEE0E0F8E3099511E03F
:10086000A0E0B1E0EAEBF9E502C005900D92A838EE
:10087000B107D9F725E0A8E8B1E001C01D92A6377D
:10088000B207E1F70E9448040C94DB2C0C940000A2
:10089000CF93DF93CDB7DEB7E6970FB6F894DEBF00
:1008A0000FBECDBF84B7877F84BF0FB6F894A895DD
:1008B00080916000886180936000109260000FBE9C
:1008C00090E080E80FB6F894809361009093610007
:1008D0000FBE85B7806885BF85B7806885BF87E90B
:1008E0009CE190938901809388010E94EE250E94EB
:1008F00040160E945F168091E20084608093E200BF
:1009000078948091ED038823A1F01091E9001F7085
:100910009091EC00892F817090FD80E8182B109247
:10092000E9008091E80083FD0E941E131F70109360
:10093000E90082E084BD93E095BD9AEF97BD809376
:100940006E000E94A62A811102C00E94972A0CE123
:1009500011E092E2E92E91E0F92ED8018D918D01FE
:100960008F3F11F00E94DC1CE016F106B1F702E2A5
:1009700011E08AE2E82E81E0F82EF80181918F01E2
:100980008F3F11F00E94DC1CE016F106B1F7ECE895
:10099000F1E0ACECB3E011921D9211E0E239F10705
:1009A000D1F780E090E00E94642C8A3E9E4F21F4B3
:1009B0000E94A62A811102C00E948D1E82E090E052
:1009C0000E945C2C8093C1030E947C1E90938B013B
:1009D00080938A010E94C01F8FE39CE90197F1F781
:1009E00000C000000E94C01F8091CC0380FF08C09F
:1009F0006FEF7FEF80E090E00E94882C0E946B21D7
:100A000083E090E00E945C2C0E94CD1A1092BC03FF
:100A100080E880939B010E94202B6DE070E083E2D0
:100A200091E00E94F512892B09F03FC08091BC0330
:100A300063E070E081FD36C080E291E00E94F51233
:100A4000892B99F56DE070E080E191E00E94F5124C
:100A5000892B59F50E94C421DC01CB01805A9541B4
:100A6000AF4FBF4F8093B7049093B804A093B904DD
:100A7000B093BA0480E092E0ECEBF1E0DF019C017E
:100A80001D9221503040E1F78FEF9FEF9093BF030D
:100A90008093BE0381E08093BC048093BB041092DA
:100AA000BD0303C08DE191E0C9CFBBE98B2EB1E05E
:100AB0009B2E4AE351E02DE331E018E9612E11E06D
:100AC000712E61E070E08614970409F44EC0F901BC
:100AD000A1919F018A2F82958F7090E0FC01F1A077
:100AE000AF70EA2E8B0101C0000FAA95EAF7F02F34
:100AF000F095FF22DC019196FC9291979296AC9131
:100B0000A02BFC01A2A3DA01FD90AD01EF2DE2952F
:100B1000EF70F0E0B1A0BF2DBF70FB2E6B0101C0E4
:100B2000CC0CBA95EAF7DC2CD094DB20D1A2D2A071
:100B3000CD28C2A2DC0190968C9190E002C09595E0
:100B40008795EA94E2F78170E0A1F0E002C0F595A4
:100B5000E795FA94E2F7E0FF02C092E001C090E06E
:100B6000892BF30181933F01AECF80E091E0909318
:100B70006B0580936A0522242394312C8091ED0328
:100B8000853009F044C000E112E18091ED03853029
:100B900009F039C08091ED03843021F110926E0587
:100BA00028E130E060E40FB6F894A8952093600047
:100BB0000FBE6093600083B7817F846083BF83B77B
:100BC000816083BF7894889583B78E7F83BF0FB68B
:100BD000F894A895809160008861809360001092DD
:100BE00060000FBE8091E303882309F4CECF0E94FA
:100BF000C01FECECF3E0819181114EC573E0E23D42
:100C0000F707C9F7C2CF0E94D11A0E9458220E944A
:100C1000C01F482E81110E94C421A2ECB3E0ECEC6D
:100C2000F3E000E010E0302F21919D919227D1F167
:100C300080E0FF24F3944F2D492381F18BA73CA73B
:100C40002F2181E009F480E08DA70E94D0218160EE
:100C5000782F9FA78EA74BA55CA56DA58FA50E9499
:100C60002328F801EE53FC4F8081F826F08265E9D5
:100C7000E62E61E0F62E02E911E078E9A72E71E098
:100C8000B72EEAE38E2EE1E09E2EFDE36F2EF1E01B
:100C90007F2EBEAAADAA512CD12C57C08F5FFF0C5E
:100CA000883049F60F5F1F4F0630110509F0BBCFA2
:100CB0008FEF88AB89AB1AAA0E94D0218160782F70
:100CC0009CAB8BAB48A959A96AA98CA90E9423287F
:100CD000CECF822B932B8E2BF50181935F018F70EA
:100CE000E82FF0E0E65DFE4F9081D7018C91890FEF
:100CF0008C9382300CF45CC0F80180818F5F80831C
:100D000060E08D2D0E94472621E0D7018C918F3F16
:100D10004CF4F80180818150808361E08D2D0E9428
:100D2000472621E0D7018C91082E000C990B62E038
:100D300070E00E94A62CF70181937F01522AD39480
:100D40000F5F1F4FF3E0DF16A9F1ADA9BEA98D918A
:100D5000BEABADABE82FEE0FEE0FD3012D913D01F1
:100D6000A22FA295AF70B0E090968C9190E02F707A
:100D700002C0959587952A95E2F79C01217033274B
:100D8000D4018D914D01A82FA295AF70B0E090963F
:100D90004C9150E08F7002C0559547958A95E2F7C7
:100DA000CA018170992740FF94CF82E090E091CFF3
:100DB00020E0ABCF51100E94C4218091BC04882355
:100DC00009F40EC12091BE033091BF0321153105F6
:100DD00009F4DBC08091BD038111D7C0682E712C4E
:100DE000EE24E394F12C082E02C0EE0CFF1C0A94B2
:100DF000E2F7A9014E215F21452B11F48F5FEECF61
:100E00009091BC03930145E0220F331F4A95E1F70F
:100E100090FD12C08295880F807680930C01220F7E
:100E2000232F221F330B319520930F01815E809376
:100E30000D011092100112C015E0369527951A95F4
:100E4000E1F7220F220F220F20930C0110920F01C5
:100E5000295F20930D0183E08093100124E630E0A8
:100E600047E050E06AE071E088E70E94D72B892BC9
:100E700009F08BC08091BC0380FD23C0C301B5E0A5
:100E8000880F991FBA95E1F7AC0144545E4F04E610
:100E900010E020E230E060E488E70E94FE2B892B1E
:100EA00009F073C00E943224E094F0948091BE0354
:100EB0009091BF03E822F922F092BF03E092BE03B3
:100EC00064C080E2ECE9F1E0DF011D928A95E9F768
:100ED000A5E0660C771CAA95E1F7E4E4F1E0FEAB2F
:100EE000EDAB40E451E0ADA9BEA98D91BEABADAB79
:100EF000FA019191AF019301290F311DB901645499
:100F00007E4F4B0190E084569E4FFC0107E09F010D
:100F1000281B390BCC24C39401C0CC0C2A95EAF7CA
:100F2000B401D12CDB011D91BD011C21202F2D19F5
:100F30002770B22E022E000C330BB12F01C0BB0F55
:100F4000BA94EAF7BB2E31952195310927703327E2
:100F500001C016952A95EAF7B12A1081B12AB0820C
:100F6000D39418E0D112DECF015031960F3F79F6BD
:100F70002DA93EA92854314009F0B5CF04E610E070
:100F800020E230E04CE951E086CF8091BB04882319
:100F900039F10E94C4210091B7041091B804209146
:100FA000B9043091BA04DC01CB01801B910BA20B78
:100FB000B30B8F3F9F4FAF4FBF4790F48091BC045E
:100FC000882371F08091BB04882351F062E070E0C7
:100FD00080E391E00E94F512892B11F41092BB047A
:100FE000411001C051100E9432240E945822909159
:100FF000C003891721F00E9458228093C00380917A
:10100000ED03843009F0BACD83E08093E90080914C
:10101000E80082FFB3CD8091E80085FF23C00E94E5
:10102000951781111DC0F0E2EF2EF12C8E010F5F9C
:101030001F4F09C08091F100D8018D938D01B1E05F
:10104000EB1AF10869F08091E80085FDF3CF8091FB
:10105000E8008B778093E8000E949517882399F326
:1010600091E001C090E08091E8008B778093E800E8
:10107000992309F483CDE090B504F090B6048981FA
:10108000E114F10459F08E3F09F001C39A819330C5
:1010900070F19550933008F0FAC229C08B3009F4F2
:1010A000A5C110F5853009F478C0B0F48230E1F1C3
:1010B00030F4813009F0E9C21A8289E087C28330B6
:1010C00009F45CC0843009F0E0C24C816B818A81F4
:1010D0000E94A4259D83FDC2873009F4D6C208F082
:1010E000D4C20E940625D3C2803109F4C1C08E014A
:1010F0000F5F1F4F813160F48D3009F45BC008F43D
:1011000057C08E3009F45AC08F3009F482C0BDC276
:10111000823109F4B2C008F4AEC0833109F4D7C0FB
:101120008E3F09F47AC1B1C28A81823009F4CAC201
:10113000833051F0813009F0A8C20E94C4219B8302
:101140008C837D836E83A3C28091B1049091B2049D
:10115000892B09F49CC28091CC038B838091CD03B1
:101160008C838091CE038D838091CF038E83809179
:10117000D0038F838091D103888789C28A8182308E
:1011800009F083C26B817C818D819E810E94C02C7D
:1011900086E290E00E946A2C7AC22D813E8132273D
:1011A000232732274C816B818A810E94D0246FC211
:1011B00080E128C281E08A838DE608C2EA80FB8054
:1011C000FE24EF24FE24AC80B12CEDE1AE16B10478
:1011D00008F05DC26801C7018D569D4F9601201B26
:1011E000310B2A153B0508F052C2FDE6EF16F1E07F
:1011F000FF0630F40E945C2CD60114968C9302C03A
:10120000F6011482FFEFEF1AFF0A2FEFC21AD20A7B
:10121000E2CF8091B1049091B204892B09F437C2D6
:10122000EA80FB80FE24EF24FE24CC80D12C3DE11B
:10123000C316D10408F02BC25801C7018D569D4F2B
:101240009501201B310B2C153D0508F020C26DE6E1
:10125000E61661E0F60628F4D50114966C910E941A
:101260006A2CBFEFEB1AFB0AEFEFAE1ABE0AE5CF0E
:101270000E9458240CC285E0C5C1EA80FB80FE2490
:10128000EF24FE24AC80B12CFDE1AF16B10408F0D0
:10129000FEC16801C70187969601201B310B2A15F4
:1012A0003B0508F0F4C120EEE21621E0F20630F42E
:1012B0000E945C2CD60114968C9302C0F601148215
:1012C000FFEFEF1AFF0A2FEFC21AD20AE3CFEA802C
:1012D000FB80FE24EF24FE24AC80B12C3DE1A3165C
:1012E000B10408F0D4C160EEE61661E0F60608F03D
:1012F000CEC180EE91E08E199F098A159B0508F4F6
:10130000C6C1370177E2670E711C8091B1049091DC
:10131000B204892B11F0680160C0E0FE0FC0C70164
:1013200086960E945C2C90E0982F88272D81822B36
:1013300081159C4531F48FEF8D8303C0C12CD12CD6
:1013400003C0CC24C394D12CC7018A0D9B1D450139
:1013500080FF1BC0B1E08B1A910855E0452E512C3F
:101360004C0E5D1E480C591CC3018A0D9B1D0E942A
:101370005C2CF201208130E0322F2227282B21150E
:101380003C4519F48FEFD2018C93F801EC0DFD1D53
:101390002FEFCF01801B910B8815990508F0BBCF6B
:1013A000848190E0982F88273581832B81159C4577
:1013B00011F4248325833296ECCFE0EEEE16E1E0C3
:1013C000FE0628F4D60114966C910E946A2CBFEF99
:1013D000EB1AFB0AEFEFCE1ADE0AC70187969601D9
:1013E000201B310B2A153B0540F351C18091B104FC
:1013F0009091B204892B09F44AC1CE0101960E9452
:10140000F417FFEF11EE24E0F15010402040E1F717
:1014100000C000000E946B213AC1EA818E2F90E04B
:101420008E30910508F033C1FC01EA5AFF4F0C944D
:10143000BA2C88E0E4E1F1E0DE01919601900D9292
:101440008A95E1F780E2D8011D928A95E9F784E058
:10145000898388E0FE01B196DE011596F2C088E826
:10146000898382E08A831B821C8211C18C8190E077
:10147000982F88272B81820F911D092E000CAA0B13
:10148000BB0B35E0880F991FAA1FBB1F3A95D1F7F8
:10149000AC01BD01405E5F4F6F4F7F4F481759074A
:1014A0006A077B0708F4F3C08838E2E09E07A105CD
:1014B000B10508F0ECC04938F2E05F07610571053D
:1014C00020F048E852E060E070E0481B590BBC0196
:1014D0006E5C7E4FC8010E94432CD9C01B810C81D9
:1014E00040E0602F812F0E94A02499838A8341E0ED
:1014F000602F812F0E94A0249B838C83C8C02E81E3
:101500003F813227232732274D816C818B810E94B6
:101510006824BDC040E250E06FEF70E0C8010E9457
:10152000D42C8091B1048983EA821B821C821D82A3
:1015300081E0CFC03092B6042092B50482E390E0FF
:101540009093CB038093CA030E94D0219093C90348
:101550008093C8039CC0EF2889F11091CC0311FB44
:10156000882780F918238091C8039091C9030E94AD
:10157000B52185369105E0F01123D1F00E94D021EC
:101580009093C9038093C8038091CA039091CB03C1
:1015900001979093CB038093CA03892B79F410921F
:1015A000B6041092B5043092B2042092B10406C081
:1015B00082E390E09093CB038093CA038091B104BF
:1015C00089838091B5048A838091CA038B835FC02D
:1015D0001092B2041092B1045AC040E250E06FEF92
:1015E00070E0C8010E94D42C52C08B81833061F01E
:1015F000843061F181114BC080E2D8011D928A953F
:10160000E9F788E08A8343C06C81CE0181962AE0A5
:10161000FC0111922A95E9F7683060F4FAE06F9FB7
:10162000B00111246D5B7D4F4AE050E00E944C2CCC
:1016300080E001C08FEF89838AE0FE01B196DE0170
:10164000129601900D928A95E1F721C06C818AE093
:10165000FE013596DE01919601900D928A95E1F793
:10166000683070F41AE0619FB00111246D5B7D4F0A
:101670004AE050E0CE0181960E948E2C80E001C0AD
:101680008FEF89830E94EE2502C08FEF8983CE0100
:1016900001960E94F41772CA09BD19BD09B400FE73
:1016A000FDCF8091D8008F7D8093D8008091E0009D
:1016B00082608093E0008091E00081FDFCCF0E9479
:1016C000D11A63CA86E290E00E945C2C1B821C82C5
:1016D0001D828E83DCCF8F929F92AF92BF92CF926A
:1016E000DF92EF92FF920F931F93CF93DF9300D07F
:1016F00000D0CDB7DEB7FC01808191812381348198
:10170000232B31F09F3F31F491E08F3F19F403C058
:1017100091E001C090E090FD92C66F0161E0CF01C1
:101720000E9489278C01F6018281882309F49AC0DE
:10173000980122513F452031310508F07BC08FEFE1
:1017400093E00E945C2C81117FC03EEEF32EF00EE0
:1017500003E912E0FF2071F00115F4E01F0709F41E
:1017600073C0C8010E945C2C811101C0FA940F5F04
:101770001F4FF0CF19821A821B821C82AA24AA94BE
:1017800078012FEFE21AF20AC8010E945C2C8983CB
:101790001A82882309F458C0813009F046C04801F4
:1017A00082E0880E911CC7010E945C2C8A838823EA
:1017B00009F44AC09FEF980F933060F4780193E0EA
:1017C000E90EF11CC4010E945C2C8B8381112DC099
:1017D0008701D6CF843011F07401FACFC4010E9482
:1017E0005C2CB82E7801E4E0EE0EF11CC8010396E3
:1017F0000E945C2CBB2041F1882331F1282F30E07E
:1018000021503109A29EA001A39E500D11248B2DC1
:1018100090E00197840F951F0197D0F2EFE9FFE068
:101820003197F1F700C00000F7CFCE0101960E947A
:101830002E27CECF00319FE5190709F060C581E062
:101840000E94C21A0E94EA1280915604877009F41D
:10185000F6C5F6018281882309F4F1C582E00E9471
:101860002A1FEDC50031FFE51F0711F481E005C017
:1018700001312FE5120721F482E00E94B61AE2CF6F
:101880009091D203911105C09091D503992309F449
:10189000B7C098013056211590E2390720F0305E2C
:1018A0002115304140F4F6019581907F09F4A8C0DC
:1018B0007801FF2401C0780197013054211535418A
:1018C00008F49EC09091D503923021F5882369F0E9
:1018D00080915904982F927219F06894F1F80FC012
:1018E00086FF0DC024E1F22A0AC0C70195558F3F3B
:1018F000910511F008F022C580E00E94AA2081E045
:101900008093D503F092D403E092D3038FEF8093BA
:1019100011019ACF882309F411C5913009F05FC0F5
:10192000809111019CE2E916F104D9F4882329F091
:101930000E94F3271092110187CF8091D3039091D9
:10194000D40395558F3F910509F018F40E94F71EB6
:1019500003C08AE20E947B1C1092D5030E941928C2
:101960004FC0EAE2EE16F10421F481508093110198
:1019700026C087FD34C081110BC08091D3039091A4
:10198000D40395558F3F910509F010F40E94F32779
:10199000809111018F5F80931101FDE2EF16F10438
:1019A00071F040F484E0E81AF10894E2E916F104D9
:1019B00080F405C0EDE2EE16E2E0FE0651F4F60119
:1019C0008281882309F4BAC480915904811114C01A
:1019D0009DC4F6018281882309F4B0C40DC09AE247
:1019E000E916F10489F308F01EC5F4E0EF1AF108D6
:1019F00024E2E216F10440F30E9419281092D50364
:101A00000238FFE51F0751F4F6018281882399F11E
:101A100081E08093D5038DE290E017C003382FE575
:101A20001207D8F00338EFE51E0709F4EBC40438B9
:101A3000FFE51F0709F093C4F60182818823D9F0DE
:101A400081E08093D5038DE292E09093D40380935C
:101A5000D3038FEF8093110113C000388FE518076F
:101A600009F436C101389FE5190709F078C4F60179
:101A70008281811158C4F6018281882309F4B8C19A
:101A80001092BF040230FCE51F0708F49BC1063129
:101A90002CE5120730F0C8018A5F9C45099708F0D1
:101AA00091C10E947C1E90938B0180938A0100312A
:101AB0008CE5180709F4C3C008F041C00830ECE514
:101AC0001E0709F49AC0F0F404302CE5120709F45B
:101AD00087C068F402309CE5190709F477C0033029
:101AE0001C4509F0E5C080918A01826076C006300D
:101AF000FCE51F0709F46EC008F07BC080918A01E5
:101B000088606BC00C308CE5180709F485C068F458
:101B10000A30ECE51E0709F474C008F079C00E9491
:101B2000D11A80918A01806858C00E302CE51207C6
:101B300009F476C008F07FC080918A018BC00B3F0A
:101B40009CE5190709F44FC018F50331FCE51F07A0
:101B500009F47DC078F401318CE5180709F473C0ED
:101B600002311C4509F0A4C00E94D11A80918A015B
:101B70008F7733C00531ECE51E0709F472C008F415
:101B800086C00A3F1C4509F093C080918B013EC07E
:101B90000F3F8CE5180709F45FC058F40D3FECE5E2
:101BA0001E0709F444C008F43FC080918B01826095
:101BB0002DC001302DE5120709F475C008F45DC091
:101BC00002301D4509F074C060E06EC080918A014A
:101BD000816003C080918A01806180938A0168C01E
:101BE00080918A0111C080918B01826080938B016A
:101BF0005FC080918A018062F0CF80918A01806409
:101C0000ECCF80918A0188608460E7CF8160EECF5D
:101C100080918A018E7FE1CF80918A018D7FDDCF17
:101C200080918A01877FD9CF80918B0118C08091E4
:101C30008B018D7FDBCF80918A018F7ECECF80910B
:101C40008A018F7DCACF80918A018F7BC6CF809118
:101C50008A01877F8B7FC1CF80918B018D7F8E7FA3
:101C6000C5CF80918A0182FB222720F991E092273B
:101C700090FB82F990FB83F9B0CF80918B01982F74
:101C8000909591708E7F892B90FB81F9AFCF0E9448
:101C9000D11A80918A0187FB222720F991E09227AF
:101CA00090FB87F99ACF61E08EE090E00E946A2C69
:101CB00060918A0110918B0184E090E00E946A2C6F
:101CC000612F82E290E00E946A2C0E94D11ABCCD62
:101CD000F6018281882309F4CECE9AEBA92E93E0F7
:101CE000B92E2AE0922EF5018491882309F45AC076
:101CF000813009F04FC07501FFEFEF1AFF0AF701BD
:101D00008491813049F47501F2E0EF0EF11CF70186
:101D100084910E947B1C41C0823049F47501F2E03D
:101D2000EF0EF11CF70184910E94DF1B36C0833057
:101D300049F47501F2E0EF0EF11CF70184910E9465
:101D4000881B2BC0843049F57501F2E0EF0EF11CC1
:101D5000F701249180E090E030E0205331092A30EF
:101D6000310570F4989EA001999E500D1124C9016F
:101D7000840F951FFFEFEF1AFF0AF7012491ECCFB4
:101D8000009759F0EFE9FFE03197F1F700C000004C
:101D90000197F6CF0E94C82675015701FFEFAF1AD1
:101DA000BF0AA1CF80915C0481FD65CE0E94D02145
:101DB00090935B0480935A0480915C0482608093CA
:101DC0005C0459CE0631ECE51E0711F580915904EB
:101DD0008A7A91E009F490E09093D603882311F079
:101DE00065E301C069E281E094E00E9412220DC027
:101DF00006311C45F1F58091D603882309F411C3FF
:101E000065E381E094E00E9405220E94BE201CCD83
:101E10000A35EDE51E0741F150F401152CE51207D6
:101E2000A9F00E3D1C4529F50E948D1E0DCD0B35E8
:101E30009DE51907D9F00C351D45D9F480918B012A
:101E400082FB882780F991E0892711C00E94D11A6E
:101E5000FFEF24E38CE0F15020408040E1F700C028
:101E600000000E946B21F0CC81E001C080E00E9464
:101E7000091FF601868197810097B9F4F6018281E6
:101E800000811181882349F0C8010E942818F82E8A
:101E9000682FC8010E94851A04C0C8010E94551A03
:101EA000F82EB8018F2D0E94D2250E94F31CF82E27
:101EB000192FF601E280058102950F70809156047A
:101EC000877099F0EE2089F0892F807F803421F08F
:101ED00080E28F0D883048F082E00E942A1F8091B6
:101EE00056048770BB24B3948111B12CA12EA29407
:101EF0008FE0A8228A2D90E08C30910508F0DBC19C
:101F0000FC01EC59FF4F0C94BA2C812F807F1F707D
:101F1000882311F01295107FEE20B9F0112309F4F7
:101F2000ACC180E28F0D883010F0F11006C09091A6
:101F30005904192B1093590405C090915804192B7A
:101F4000109358040E94BE2098C18F2D0E94881BB8
:101F5000112309F4B0C180E28F0D883010F0F11028
:101F600004C0812F0E94021F06C010959091580452
:101F70001923109358040E94BE209DC1812F807F99
:101F80001F70803211F01295107FFF2021F0F1E0D8
:101F9000FF1691F13BC0EE20D9F00023A9F00130EB
:101FA00031F480915C04812B0E94AA2084C1053009
:101FB00059F40E94F71E8091530418131093530490
:101FC000812F0E947E1B77C180915C04812BF9CF09
:101FD000002349F0013069F480915904812309F408
:101FE0006AC10E94471F0E94F71E812F0E94771B23
:101FF00062C10530C1F75FC1EE2021F0063008F064
:102000005AC1DECF053008F056C1EFCFEE2019F0EF
:102010000023B1F232C1002341F329E3F21208C0D8
:102020008FEF97EEE3E081509040E040E1F73EC152
:10203000FFE728E381E0F15020408040E1F736C11E
:10204000812F86958695837019F0813061F033C1B8
:10205000EE2021F08F2D912F937002C080E090E050
:102060000E9442222EC1EE2021F08F2D912F9370DD
:1020700002C080E090E00E942C2223C1812F837057
:10208000A9F5E1101CC14F2D429546954770440FAC
:10209000440F8F2D8F7090E09C01042E01C0220F01
:1020A0000A94EAF7F4FE08C08FE090E001C0880FC0
:1020B0004A95EAF7809501C080E016951695137051
:1020C000123069F088F490916004113019F0822B7D
:1020D000892302C0922B892B0E94CD1AF0C0822B3B
:1020E000909160048927F8CF822BF6CFEE2019F06B
:1020F000812F817001C08695882309F4E0C04F2D9F
:10210000429546954770440F440F8F2D8F7090E095
:102110009C01042E01C0220F0A94EAF7F4FE08C0C5
:102120008FE090E001C0880F4A95EAF7809501C0E2
:1021300080E0169516951370123059F078F490914E
:10214000EE03113019F0822B892309C0922B892BC1
:1021500006C0822B9091EE03892701C0822B0E943A
:10216000B21AADC01F70EE2039F0812F0E94C21A42
:102170008F2D0E947E1BA3C08F2D0E94771B812F65
:102180000E94B61A9CC092EFF91659F19F1538F0CB
:10219000E0EFFE1659F0F1EFFF16E1F069C023EF12
:1021A000F21631F184EFF81681F162C0EE2071F081
:1021B000053008F080C01F7181E090E001C0880FF9
:1021C0001A95EAF79091EE0389271CC0063008F0B3
:1021D00072C0F1CFEE2039F0812F8F710E94C21AA8
:1021E0006AC0EE20C9F3812F8F710E94B61A63C0B6
:1021F000EE2039F01F7181E001C0880F1A95EAF7CF
:1022000001C080E00E94B21A56C0EE20D1F0809149
:1022100053040E94021F809156048770843039F461
:102220000E94231F812F8F710E94B61A66C005304D
:1022300008F063C01F71812F0E94C21A63E0812FD2
:1022400010C09091590480915304892B80935904B4
:10225000053050F00E94231F0E94471F64E0812F29
:102260008F710E94FB2049C081E00E942A1F45C057
:10227000EE2039F0002309F4AFCF8F2D0E94DF1B31
:102280001AC0002309F4AFCF99E3F91208C0EFEFA9
:10229000F7EE23E0E150F0402040E1F707C08FE780
:1022A00098E3E1E081509040E040E1F700C0000099
:1022B0008F2D0E94881B88EF8A0D843010F40E94B5
:1022C0005822BB20A9F08091560480FD11C0F60170
:1022D00012828595859585950E94C21AC6010E9435
:1022E0006B0B809156048595859585950E94B61A4D
:1022F00060E0C6010E948927A2C0B12CE0CF013165
:10230000EFE51E0709F0BCCA82E09ACA0238FFE571
:102310001F0709F479CB08F085CB00388FE5180743
:1023200009F0A0CBDACC81E08093D2030E9458223E
:1023300081FDA1CB89E30E947B1C9DCB02382FE558
:10234000120709F461CB08F059C000389FE519075E
:1023500009F491CB0138EFE51E0709F488CB033F60
:102360002CE51207A1F406E221EE40EE63EF7CE5D6
:102370000AC0073DFCE51F0709F07DCB06E221EE10
:1023800041EE67ED7CE5C6010E94BF235DCA043FB4
:102390008CE51807A0F4083D9CE5190731F407E225
:1023A00025EE45EE68ED7CE5EECF093DECE51E0738
:1023B00001F708E221E045EE69ED7CE5E4CF053F59
:1023C0002CE5120731F406E221EE42EE65EF7CE5E2
:1023D000DACF053F8CE5180730F407E225EE44EE2E
:1023E00064EF7CE5D0CF063F9CE5190709F043CBAD
:1023F00007E225EE46EE66EF7CE5C5CF0338FFE544
:102400001F0749F4F6018281882309F434CB82E066
:102410008093D50335CB04382FE5120709F40CCB94
:102420009ECF69E2EECC8DE2E816F10409F4CCCA45
:102430009DE2E91692E0F90609F0DECAC5CA0F90DE
:102440000F900F900F90DF91CF911F910F91FF9000
:10245000EF90DF90CF90BF90AF909F908F900895B6
:102460008091E50387FF11C08091E80082FD05C0DF
:102470008091ED038111F8CF11C08091E8008B7736
:102480000BC08091ED03882349F08091E80080FF24
:10249000F8CF8091E8008E778093E8000895982F18
:1024A000973068F59093E900981739F07091EC0037
:1024B0002091ED005091F00003C0242F762F50E0C2
:1024C00021FD02C09F5FECCF3091EB003E7F309347
:1024D000EB003091ED003D7F3093ED003091EB004B
:1024E00031603093EB007093EC002093ED0050933B
:1024F000F0002091EE0027FDE5CF80E008958F7079
:102500008093E90081E008952091EB033091EC0382
:102510002617370748F06115710539F42091E80056
:102520002E772093E80001C0B901FC0120E061157D
:10253000710579F18091ED038823F1F18530F1F196
:102540008091E80083FD3CC08091E80082FD2EC0B0
:102550008091E80080FFEBCF2091F3008091F200A2
:1025600090E0922B6115710551F08830910538F497
:1025700021912093F100615071090196F3CF21E080
:10258000089709F020E08091E8008E778093E800BA
:10259000CECF2111CFCF0AC08091ED03882361F007
:1025A000853061F08091E80083FD0AC08091E800E9
:1025B00082FFF2CF80E0089582E0089583E00895DD
:1025C00081E00895BC0184E00C944121BC0183E0CA
:1025D0000C9441218091EE03982F9670963011F45F
:1025E000886001C0877F0C94B21AEF92FF920F931C
:1025F0001F93CF93DF93EC017B0164E670E088E7E3
:102600000E94262B8C01EC0EFD1ECE15DF0561F01D
:1026100017FD0AC0FE01849164E670E00E94A72BBA
:102620008C012196892B89F30E942B2CC801DF9104
:10263000CF911F910F91FF90EF9008951F93CF932B
:10264000DF93CDB7DEB7AA970FB6F894DEBF0FBE03
:10265000CDBFE5EEF3E08091F100819343E0ED3EE4
:10266000F407C9F78091E603833009F462C030F4BF
:10267000813071F0823009F49CC0B3C08A3009F413
:1026800088C08B3009F46DC0893009F0AAC020C021
:102690008091E503813A09F0A4C08091E800877F2A
:1026A0008093E8008091E9039091EA03892B21F45B
:1026B00068E08AED93E003C060E080E090E070E0C5
:1026C0000E9484128091E8008B778093E80089C093
:1026D0008091E503813209F084C08091E9039091F3
:1026E000EA03009719F0029709F07BC08091E80097
:1026F000877F8093E8008091E80082FD05C080918B
:10270000ED038111F8CF6DC02091F3008091F200AC
:1027100090E0922B029729F48091F1008B7F813019
:1027200021F48091F1008093D9038091E8008B77A8
:1027300054C08091E503813A09F053C08091E903C8
:102740009091EA03892B09F04CC08091E800877FC3
:102750008093E8008091E80080FFFCCF8091120117
:1027600037C08091E5038132E1F58091E9039091D2
:10277000EA03892BB1F58091E800877F8093E80018
:102780000E9430128091E703809312010E94D11AB7
:1027900028C08091E503813221F58091E800877F90
:1027A0008093E8000E9430128091E8038093D80360
:1027B00018C08091E503813AA1F48091E800877FF9
:1027C0008093E8008091E80080FFFCCF8091D803DF
:1027D0008093F1008091E8008E778093E8000E945A
:1027E00030128091E80083FFE9C18091E503909168
:1027F000E603492F50E04A30510508F0DFC1FA01E5
:10280000E059FF4F0C94BA2C803821F0823809F03F
:10281000D5C108C08091E2039091E303992389F028
:1028200082600FC08091E9038F70873008F0C6C1C5
:102830008093E9008091EB0085FB882780F9109256
:10284000E9009091E800977F9093E8008093F10071
:102850001092F1007CC1282F2D7F09F0AFC1882391
:1028600019F0823061F0AAC18091E703813009F04C
:10287000A5C1933009F080E08093E3032EC08091DE
:10288000E70381112AC08091E9038F702FEF280F91
:10289000263008F093C18093E9002091EB0020FFDF
:1028A0001CC0933021F48091EB00806214C09091A1
:1028B000EB0090619093EB0021E030E0A90102C0B1
:1028C000440F551F8A95E2F74093EA001092EA0000
:1028D0008091EB0088608093EB001092E90080917A
:1028E000E800877F8093E8000E94301267C1811161
:1028F00065C11091E7031F778091E3008078812BF9
:102900008093E3008091E800877F8093E8000E9435
:1029100030128091E80080FFFCCF8091E300806856
:102920008093E300111102C082E001C083E0809334
:10293000ED0344C18058823008F040C12091E70384
:102940003091E8032C3D53E0350779F583E08A8325
:102950008AE289834FB7F894DE01139620E03EE0C7
:1029600051E2E32FF0E050935700E49120FF03C0C1
:10297000E295EF703F5FEF708E2F90E0EA3010F03D
:10298000C79601C0C0968D939D932F5F243149F760
:102990004FBF8091E800877F8093E8006AE270E093
:1029A000CE0101960E948412C0C08091E9039091EB
:1029B000EA03432F552743305105B1F068F4413005
:1029C000510509F40AC14230510509F0F7C08BE501
:1029D00090E0E1E5F4E057C04132510589F142321F
:1029E000510509F43CC0EAC0C9019927813091051D
:1029F000B9F070F082309105D9F0039709F0DEC08C
:102A0000EEEBF4E0E4918E2F90E0EEEBF4E038C0D2
:102A1000ECE2F5E0E4918E2F90E0ECE2F5E030C0DE
:102A2000E0E1F5E0E4918E2F90E0E0E1F5E028C0F0
:102A3000ECEDF4E0E4918E2F90E0ECEDF4E020C0BA
:102A40008330910508F0BAC0880F991FFC01EF5A36
:102A5000FE4F0190F081E02D89E090E014C08330BA
:102A6000910508F0ABC0FC01EE0FFF1FE55BFE4FC8
:102A70000190F081E02DDC01A85BBE4F8C9190E0CD
:102A8000009709F49BC02091E800277F2093E8007D
:102A90002091EB033091EC032817390708F4C901A2
:102AA00040E0009789F12091ED03222309F43DC015
:102AB0002530D9F12091E80023FD37C02091E800AE
:102AC00022FD2FC02091E80020FFEBCF4091F300C2
:102AD0002091F20030E0342B009759F02830310576
:102AE00040F444914093F100319601972F5F3F4F9E
:102AF000F3CF41E02830310509F040E02091E800B3
:102B00002E772093E800CDCF4111CDCF0AC0809120
:102B1000ED03882351F0853041F08091E80083FD7A
:102B200004C08091E80082FFF2CF8091E8008B77AB
:102B30008093E80043C0803809F040C08091E800ED
:102B4000877F8093E8008091E4038093F100809177
:102B5000E8008E77C7CE811131C08091E703909154
:102B6000E8039927029754F58091E800877F8093C6
:102B7000E8001091E7031093E4030E943012111152
:102B800006C08091E30087FD02C081E001C084E0BF
:102B90008093ED0342E061EC81E00E944F1242E23B
:102BA00061EC84E00E944F1242E261EC82E00E94FC
:102BB0004F1242E260EC83E00E944F128091E800E5
:102BC00083FF10C08091E800877F8093E8008091A8
:102BD000EB0080628093EB0005C082E190E0ECEABC
:102BE000F4E051CFAA960FB6F894DEBF0FBECDBF6A
:102BF000DF91CF911F9108951F920F920FB60F9200
:102C000011242F933F934F935F936F937F938F93F1
:102C10009F93AF93BF93CF93DF93EF93FF93C091B5
:102C2000E900CF708091EC00D82FD17080FDD0E802
:102C30001092E9008091F000877F8093F0007894F3
:102C40000E941E131092E9008091F000886080932A
:102C5000F000CD2BCF70C093E900FF91EF91DF9191
:102C6000CF91BF91AF919F918F917F916F915F9124
:102C70004F913F912F910F900FBE0F901F9018957D
:102C8000E8EDF0E080818E7F80831092E200109268
:102C9000DA001092E100A0EEB0E08C9181608C939C
:102CA00080818F77808319BCA7EDB0E08C918E7FF7
:102CB0008C9380818F7E80831092D7030895CF926A
:102CC000DF92EF92FF920F931F93CF93DF93C8EDA4
:102CD000D0E088818F7E8883E7EDF0E0808181609D
:102CE000808384E082BF81E08093D70388818E7FD8
:102CF000888302EE10E0F80110821092DA0081EE73
:102D0000C82ED12CF601108288818F778883888124
:102D10008068888388818F7D888319BC1092ED0339
:102D20001092E4031092E3031092E20390EEE92E76
:102D3000F12CF70180818B7F80838881816088837B
:102D400042E060E080E00E944F12F60180818E7FB9
:102D50008083F801808181608083808188608083A6
:102D6000F70180818E7F8083888180618883DF91F5
:102D7000CF911F910F91FF90EF90DF90CF9008952A
:102D80001F920F920FB60F9211242F933F934F93E0
:102D90005F936F937F938F939F93AF93BF93EF93C3
:102DA000FF938091E10082FF09C08091E20082FFE1
:102DB00005C08091E1008B7F8093E1008091DA0073
:102DC00080FF2AC08091D80080FF26C08091DA0061
:102DD0008E7F8093DA008091D90080FF18C080E157
:102DE00089BD82E189BD09B400FEFDCF81E08093F9
:102DF000ED038091D70381110FC00E9440160E94FD
:102E00005F168091E20084608093E20005C019BCE7
:102E10001092ED031092D7038091E10080FF17C05C
:102E20008091E20080FF13C08091E2008E7F80934A
:102E3000E2008091E20080618093E2008091D800FE
:102E400080628093D80019BC85E08093ED03809167
:102E5000E10084FF2EC08091E20084FF2AC080E15F
:102E600089BD82E189BD09B400FEFDCF8091D80003
:102E70008F7D8093D8008091E1008F7E8093E10068
:102E80008091E2008F7E8093E2008091E200816079
:102E90008093E2008091E403882311F084E007C06E
:102EA0008091E30087FD02C081E001C083E0809350
:102EB000ED038091E10083FF27C08091E20083FF52
:102EC00023C08091E100877F8093E10082E08093BE
:102ED000ED031092E4038091E1008E7F8093E10086
:102EE0008091E2008E7F8093E2008091E200806119
:102EF0008093E20042E060E080E00E944F12809107
:102F0000F00088608093F000FF91EF91BF91AF9146
:102F10009F918F917F916F915F914F913F912F91F1
:102F20000F900FBE0F901F9018952091E4003091E4
:102F3000E50095E64091EC00842F817040FF23C0AE
:102F40008091E80080FD1DC08091ED03882399F0F9
:102F5000853099F08091EB0085FD11C04091E4002F
:102F60005091E5002417350729F3915011F09A018B
:102F7000E1CF84E0089582E0089583E0089581E040
:102F8000089580E008954091E80042FFDDCF089564
:102F9000EF92FF920F931F93CF93DF937C018B01EE
:102FA0000E949517811119C0E70101151105A1F0C3
:102FB0008091E80085FD0AC08091E8008E778093BB
:102FC000E8000E949517882381F307C089918093B8
:102FD000F10001501109E9CF80E0DF91CF911F91FD
:102FE0000F91FF90EF900895CF932091ED0324303F
:102FF000F9F4C091E900CF703091EC00232F2170DB
:1030000030FD20E8C22B22E02093E9002091E80067
:1030100020FF0BC040E050E060E270E00E94C81763
:103020008091E8008E778093E800CF70C093E9002C
:10303000CF91089580E090E00E94422280E090E0ED
:103040000E942C2210925804109257040C94BE2017
:10305000CF92DF92FF920F931F93CF93DF936C0178
:103060000091EE0380916004082BC7E0D0E010E0EF
:10307000C8010C2E02C0959587950A94E2F780FD51
:1030800004C02197A8F7F12C09C0FC2EB6018C2FA3
:103090000E94D2250E94F31C019799F38F2DDF9196
:1030A000CF911F910F91FF90DF90CF900895CF9314
:1030B000DF93EC010E942818BE010E94D2250E94D5
:1030C000F31CDF91CF910895FC01868197810097D1
:1030D00019F00E94F31C04C0808191810E9457184E
:1030E000292F2F70E92FE295EF704E2F50E0FA0153
:1030F0003297EE30F105B8F4E658FF4F0C94BA2C35
:10310000803F99F018F4883E70F40FC0843F59F462
:103110000CC0883E50F0813F31F407C0822F869565
:1031200086958695089580E0089581E008959F92A0
:10313000AF92BF92CF92DF92EF92FF920F931F93C5
:10314000CF93DF93CDB7DEB765970FB6F894DEBFA8
:103150000FBECDBF8C0185E0F801DE0151960190D4
:103160000D928A95E1F7F801E2809091090460914F
:103170000A0440910C0450910D044115510531F0A1
:103180006F3F31F481E09F3F19F403C081E001C03B
:1031900080E0F82FF1709F2E80FD37C1F80130815B
:1031A0002181C380D48079E0A72E74E0B72EF090FF
:1031B0000B04F601E41BF50BFF2009F4F5C0809128
:1031C0000E04E83CF10508F0B0C0482F407F09F03C
:1031D0005AC062131BC0931319C060910F04709101
:1031E0001004F801468157816417750779F4FE2CA5
:1031F000E1100CC08F70806180930E04C5010E94A5
:103200006B0B80910E04F80185833CC1CD2831F011
:103210002F3F31F481E03F3F19F403C081E001C04A
:1032200080E080FD03C081E08E2502C080E090E058
:10323000F82FF170FF2E80FF1CC080915204409146
:103240001104841709F4FCC090E0FC0153E0EE0F78
:10325000FF1F5A95E1F7EE5EFB4F5181251306C023
:103260005081531303C05281E51203C00196877049
:10327000E8CFFE2CEE2009F405C180910E04816098
:1032800080930E045EC0621315C0931313C0409167
:103290000F0450911004F80126813781421753071B
:1032A00049F4E11007C08583C8010E946B0B88E0D8
:1032B000F80190C0C8010E946418882381F1EE20B3
:1032C00071F120910E04822F82958F7090E0029709
:1032D000A4F08091090490910A049A8789871B863B
:1032E000DD86CC862E8780910F0490911004988BF8
:1032F0008F87CE0109960E946B0B88E0F801A9E048
:10330000B4E001900D928A95E1F70E94571F0AC020
:103310006217C9F0C8010E946418811127C0C80152
:103320000E946B0BFF24F394ADC0482F407F81F7C0
:1033300089E094E00E946B0B88E0F50111928A9578
:10334000E9F7F12C9FC09313E5CF40910F04509102
:103350001004F8012681378142175307D9F6E1108E
:10336000D9CF8583C8010E946B0B49C0EE20B9F20A
:1033700020910E04822F82958F7090E002970CF4BA
:10338000BCCF8091090490910A049A8389831B829F
:10339000DD82CC822E8380910F0490911004988757
:1033A0008F83CE010196A7CFE83CF10540F5FE2CB6
:1033B000EE2009F4B4CF621314C0931312C020910D
:1033C0000F0430911004F80186819781281739077E
:1033D00041F488E0A9E0B4E001900D928A95E1F70C
:1033E00051C0C8010E946418811187CF80910E04DA
:1033F000816080930E04C8010E946B0B43C088E07B
:10340000F50111928A95E9F73DC0EE2009F487CFC6
:10341000C8010E946418F82E882309F480CF88E040
:10342000F801A9E0B4E001900D928A95E1F780914E
:10343000090490910A040E9457180E94571F22C045
:10344000398B2A8B89899A890E945718292F2295AE
:103450002F70223028F49F7039F0811105C00BC005
:10346000243028F49F7049F4805E883020F0C80131
:103470000E946B0B9F2CF92C05C0F8019581907F61
:1034800099F7F9CF8F2D65960FB6F894DEBF0FBE72
:10349000CDBFDF91CF911F910F91FF90EF90DF9003
:1034A000CF90BF90AF909F9008959E3F61F128E02C
:1034B000929F800D1124682F669566956695982FCA
:1034C000977083E0689FB001112440E050E080E0F5
:1034D000FB01E40FF51FE151FC4F208130E0092E84
:1034E00002C0369527950A94E2F721703327042EFF
:1034F00001C0220F0A94EAF7822B4F5F5F4F4330DF
:10350000510531F7089580E008959E3F51F128E07C
:10351000929F800D1124E82FE695E695E695877039
:1035200051E001C0550F8A95EAF783E0E89FF0016A
:103530001124E151FC4F20E030E070E04081CB01EC
:10354000022E02C0969587950A94E2F781708195C4
:1035500084278523842781932F5F3F4F23303105B4
:1035600069F708958093EE030C941A1821E030E077
:1035700001C0220F8A95EAF720958091EE038223FD
:103580000C94B21A21E030E001C0220F8A95EAF7CC
:103590008091EE03822B0C94B21A809360040C94F9
:1035A0001A181092590486E0E3E0F4E0DF011D925E
:1035B0008A95E9F70C941A18CF93DF93CDB7DEB74D
:1035C00060970FB6F894DEBF0FBECDBF29873A874C
:1035D0004B875C876D877E878F87988BCE01099696
:1035E0000E949718811151C088E0FE013996DE01D2
:1035F000119601900D928A95E1F779856A854C853F
:103600005D854115510531F06F3F31F481E07F3F19
:1036100019F403C081E001C080E080FD36C0A091B4
:103620001104B0E0CD0101968770992720915204D2
:1036300030E08217930781F179836A835D834C833D
:1036400093E0AA0FBB1F9A95E1F7AE5EBB4F98E0DF
:10365000FE01319601900D929A95E1F78093110445
:103660000E944D1F12C028E0829FC00111248E5E6F
:103670009B4F0E9497188823E1F08091520490E0BC
:1036800001968770992780935204809152049091FB
:1036900011048913E8CF0DC00E94D11A10921104B1
:1036A00010925204E9E0F4E088E0DF011D928A956F
:1036B000E9F760960FB6F894DEBF0FBECDBFDF917D
:1036C000CF910895882341F08095909158048923E3
:1036D000809358040C94BE200895882339F090916B
:1036E0005804892B809358040C94BE200895882395
:1036F00021F00E94021F0C94BE200895882339F007
:1037000090915904892B809359040C94BE200895FC
:10371000882309F453C0682F823869F40E94582224
:1037200081FF4CC069E381E094E00E9412220E9474
:10373000BE2069E30EC0833891F40E94582280FFB6
:103740003DC063E581E094E00E9412220E94BE2009
:1037500063E581E094E00E9405220C94BE20843849
:1037600069F40E94582282FF29C067E481E094E056
:103770000E9412220E94BE2067E4EBCF8CEF860FDE
:10378000813A38F380E2860F883048F4677081E030
:1037900001C0880F6A95EAF70E94021FDECF8BE511
:1037A000860F833020F480E090E00C944222685A27
:1037B000673120F480E090E00C942C220895CF93A0
:1037C000882309F496C0C82F8238B1F40E94582289
:1037D00081FD8FC069E381E094E00E9412220E9483
:1037E000BE202FEF81EE94E0215080409040E1F721
:1037F00000C0000069E317C08338E1F40E9458223A
:1038000080FD77C063E581E094E00E9412220E946F
:10381000BE202FEF81EE94E0215080409040E1F7F0
:1038200000C0000063E581E094E00E940522CF9192
:103830000C94BE208438B1F40E94582282FD59C0F5
:1038400067E481E094E00E9412220E94BE202FEFE4
:1038500081EE94E0215080409040E1F700C00000EC
:1038600067E4E1CF8CEF8C0F813A80F4E3E0F4E081
:1038700089E094E02191C217A1F18E179F07D1F73B
:103880006C2F81E094E00E941222D1CF80E28C0F55
:10389000883068F4C77081E090E001C0880FCA9555
:1038A000EAF790915904892B80935904C0CFEBE536
:1038B000EC0FE33040F4F0E0E95AFE4F808190E0F5
:1038C000CF910C944222C85AC73198F4EC2FF0E003
:1038D000EE0FFF1FE65AFE4F80819181CF910C942D
:1038E0002C226C2F81E094E00E9405220E94BE20D1
:1038F000C7CFCF9108951F93CF93DF93182F8933AC
:1039000019F0C9E1D0E002C0C0E5D0E0812F0E94EB
:10391000DF1B8FE99FE00197F1F700C000002197BE
:10392000C1F7812FDF91CF911F910C94881B80E00C
:10393000089590918A0192FF0DC0282F2871283098
:1039400019F4877F846006C0282F2471243011F475
:103950008B7F886093FF0DC0282F2871283119F4C0
:10396000877E846106C0282F2471243111F48B7E58
:10397000886120918B0120FF0DC0382F38713830BD
:1039800019F4877F816006C0382F3171313011F40E
:103990008E7F886021FF0DC0282F2871283119F4EF
:1039A000877E816106C0282F2171213111F48E7E1E
:1039B000886194FD877E0895F894E82FE295EF7072
:1039C000F0E031A1282F2F7081E090E001C0880F36
:1039D0002A95EAF7982F9095932391A392A1892B8A
:1039E00082A378940895CF93DF938238910569F18B
:1039F000B0F48133910509F46FC048F48932910520
:103A000009F465C08A32910509F46BC08AC0853318
:103A1000910509F457C089339105B9F082C0833EFE
:103A2000910571F138F4803E9105B1F0823E910527
:103A300011F177C0863E9105B9F1873E9105C9F134
:103A4000843E910509F06DC024C020918A0120FDBB
:103A500053C021FD51C065C080918A0180FD46C0E0
:103A600080918B0180FF48C080918A0184FD3FC115
:103A700083EE90E03EC180918A0182FF3AC0F4CF8C
:103A800080918A0182FD35C080918B0180FD34C018
:103A9000EBCF80918B0181FF35C080918A0184FD3D
:103AA00026C187EE90E025C180918A0183FF27C05F
:103AB000F4CF80918A0183FD22C080918B0181FD2A
:103AC00021C0EBCF80918A0185FD1FC021C080916C
:103AD0008A0185FD1DC019C080918A0186FD1BC029
:103AE0001DC080918A0186FD19C015C089E390E050
:103AF00000C182EE90E0FDC080EE90E0FAC086EE5C
:103B000090E0F7C084EE90E0F4C089E290E0F1C06C
:103B100085E390E0EEC08AE290E0EBC081E390E0C4
:103B2000E8C0811532E5930708F069C0811541E5C9
:103B3000940728F0982F8827816F906ADAC0883E12
:103B4000910568F5803E910508F0D3C0883A91054B
:103B5000B8F4853A910548F0855AE82FF0E0E95A23
:103B6000FE4F808190E09064C4C08130910509F4DB
:103B7000BBC008F4BCC08430910508F4B8C0B9C01B
:103B80008F3B910508F0B3C0885AE82FF0E0EE0FA4
:103B9000FF1FE65AFE4F808191819464AAC081156F
:103BA00020E59207F0F09C0174E0369527957A9510
:103BB000E1F7922F9370482F437021E030E002C06C
:103BC000220F331F4A95E2F73C68392B8F70982FEC
:103BD0009695969540E2949FC0011124822B932BD9
:103BE00088C0811530E4930718F09F70906A81C0F7
:103BF0009C013A9521153F4108F47BC078C0EC0147
:103C0000C11586E5D807E8F5C11525E5D20748F0C6
:103C10008C2F0E94991C8F7190E0982F88279062BA
:103C200068C0C11534E5D30728F09C2F8827846F1E
:103C3000906A5FC0AE01437055272C2F26952695BC
:103C4000C115D34578F481E090E002C0880F991F38
:103C50004A95E2F740E2249F90011124822B932B96
:103C60009C6847C081E090E002C0880F991F4A9588
:103C7000E2F740E2249F90011124822B932B9A6853
:103C800038C0C1152AE5D207F8F4C11539E5D307C4
:103C900090F08C2F8F700E94991C94E0D695C79558
:103CA0009A95E1F7CF70D0E0DC2FCC27D0699E0148
:103CB000282BC9011EC0C11548E5D407C0F09C2FB0
:103CC0008827806F906A15C0CE019056811590426A
:103CD00070F48D2F8F710E94991C282F2F71CE01A7
:103CE00099279062922B05C081E090E002C080E0AD
:103CF00090E0DF91CF910895CF9384E090E00E940F
:103D00005C2CC82F82E290E00E945C2C2C2F30E0CB
:103D1000A901582BCA01CF9108956AEE7EEF80E089
:103D200090E00E94882C60E082E090E00E946A2C83
:103D300060E083E090E00E946A2C1092600460E0F2
:103D400084E090E00E946A2C60E082E290E00E94B1
:103D50006A2C60E085E090E00E946A2C60E086E0DA
:103D600090E00E946A2C6FEF87E090E00E946A2C3E
:103D700040E050E0BA0188E090E00E947C2C60E0D6
:103D80008DE090E00E946A2C40E050E0BA0188E1AA
:103D900090E00E947C2C60E087E190E00E946A2C19
:103DA00040E050E0BA018CE190E00E947C2C60E0A1
:103DB00070E080E290E00E94882C40E050E0BA0180
:103DC00088E190E00E947C2C80E00E94792A0E9489
:103DD000972A40E050E0BA018FE090E00E947C2CEE
:103DE00040E050E0BA0183E190E00C947C2C80919B
:103DF0005C04882331F010925C0410925B041092F2
:103E00005A04089580959091590489238093590408
:103E10000895CF93C0918B01C2FB992790F9981711
:103E200081F080FBC2F9C0938B0160918A0184E02C
:103E300090E00E946A2C6C2F82E290E0CF910C946B
:103E40006A2CCF9108951092560410925504109246
:103E5000540408952091560480958223809356043B
:103E6000982F977041F430E0482F082E000C550B26
:103E70002417350721F490918B0192FF07C0859597
:103E8000859585950E94B61A0C94231F08958091FC
:103E9000530481111092530408958091520490911B
:103EA0001104891719F08F5F8770FBCF08951F9356
:103EB000CF93DF9380910E0482958F7009F05CC0E0
:103EC00080910B04882309F457C08091520410910B
:103ED00011046091090470910A04C0910C04D091FE
:103EE0000D0491E06F3F09F090E0292F811709F44C
:103EF00043C0209721F07F3F21F030E003C031E044
:103F000001C0322F90E030FD34C0FC0133E0EE0FF1
:103F1000FF1F3A95E1F7DF01AE5EBB4F11963C9172
:103F20001197371326C03C91361323C012963C914B
:103F3000129731111EC013964D915C9114974C1B32
:103F40005D0B483C5105A8F480910E048F70806190
:103F500080930E04E95EFB4F80818F7080618083C7
:103F600089E094E00E946B0BDF91CF911F910C943C
:103F70004D1F01968770BACFDF91CF911F910895A1
:103F80009F92AF92BF92CF92DF92EF92FF920F93E8
:103F90001F93CF93DF9300D000D000D0CDB7DEB712
:103FA000AE014F5F5F4F7A0186E0FA0111928A9568
:103FB000E9F70CE111E05A01CC24C394D12CF801AB
:103FC00080818F3F09F447C0F894E82FE295EF70A5
:103FD000F0E021A18F70A60102C0440F551F8A9501
:103FE000E2F7CA01922F982B91A392A18095892381
:103FF00082A3789400C0E2E2F1E020E030E0912C6E
:1040000041914F3FB1F0A42FA295AF70B0E09096D0
:104010008C9190E04F7002C0959587954A95E2F794
:1040200080FD07C08C2D022E01C0880F0A94EAF78C
:1040300001C080E0982A2F5F3F4F2830310501F7FB
:10404000F80180818F3F11F00E94DC1CF0EAFA95A4
:10405000F1F7F50190820F5F1F4FFFEFAF1ABF0A14
:1040600041E00232140709F0AACF46E050E0B70160
:104070008CE891E00E94C72C11E0009709F410E051
:10408000892B89F086E0F701ACE8B1E001900D9250
:104090008A95E1F781E080935F040E94D02190939C
:1040A0005E0480935D0480915F048823A1F0809179
:1040B0005D0490915E040E94B521059760F0ECE8E4
:1040C000F1E0ACECB3E081918D9351E0E239F5077A
:1040D000D1F710925F0480911301882341F1809100
:1040E000660590916705009711F10E94B521209116
:1040F000C0043091C10428173907C8F490916405B1
:1041000080916505981759F00E9410231092C10400
:104110001092C004109267051092660508C00E94B4
:10412000922210926705109266050E94F122812F5B
:1041300026960FB6F894DEBF0FBECDBFDF91CF91AC
:104140001F910F91FF90EF90DF90CF90BF90AF90B5
:104150009F900895CF9390918B0192FD0DC0909107
:104160005C04981749F0C82F0E94D02190935B04FB
:1041700080935A04C0935C04CF91089590915904A0
:1041800080915804892B90915704892B80930104C6
:1041900080915C04882311F10E94D02120915A045F
:1041A00030915B04821B930B8838934110F00E947E
:1041B000F71E9091010480915C04892B8093010487
:1041C000E3E0F4E097E080E0915029F02191222390
:1041D000D9F38F5FF9CF81110E94F71EE0916A0534
:1041E000F0916B05309731F00280F381E02D81E092
:1041F00094E00994089590918B0192FD10C098E08D
:10420000899F90011124262B209356040E94C21AE4
:104210000E94D021909355048093540408950C94E7
:10422000C21A08958091D9030895CF93DF9321E0B6
:104230002093E9002FEF3091E800215035FD06C0B2
:1042400035ED3A95F1F700002111F5CF2091E80006
:1042500025FF14C0EC0140E050E068E070E00E94EF
:10426000C8178091E8008E778093E80088E0FE010F
:10427000AAEDB3E001900D928A95E1F7DF91CF911D
:1042800008959091ED03943029F580937305709310
:104290007505609374059093E9008FEF9091E800A5
:1042A000815095FD06C095ED9A95F1F700008111BA
:1042B000F5CF8091E80085FF0DC040E050E063E05D
:1042C00070E083E795E00E94C8178091E8008E7740
:1042D0008093E800089581E08093E00080E280937D
:1042E000D8001092C9008FE19EE40197F1F700C059
:1042F000000087E090EBDC018093760590937705D2
:10430000A0937805B09379059CE088E10FB6F89406
:10431000A895809360000FBE90936000FFCF7894C3
:104320001F920F920FB60F9211248F939F93AF930A
:10433000BF9380916F0590917005A0917105B09128
:1043400072050196A11DB11D80936F0590937005B4
:10435000A0937105B0937205BF91AF919F918F911A
:104360000F900FBE0F901F9018959C014FB7F894B7
:1043700080916F0590917005A0917105B0917205C3
:104380004FBF821B930B08952FB7F89460916F0570
:104390007091700580917105909172052FBF0895FD
:1043A0002FB7F89480916F0590917005A0917105D9
:1043B000B09172052FBF08951F920F920FB60F9202
:1043C00011248F939F93AF93BF9380916E058111BA
:1043D00013C080916F0590917005A0917105B09107
:1043E00072054196A11DB11D80936F0590937005D4
:1043F000A0937105B0937205BF91AF919F918F917A
:104400000F900FBE0F901F9018959C012A5F3F4F91
:10441000FC014281461301C0128201968217930764
:10442000B9F708959C01FC0132969FEF80E041911D
:10443000461789F09F3F19F4411101C0982F8F5FF3
:104440008630A9F79F3F39F0F901E90FF11D97FD7B
:10445000FA9562830895089520916C0530916D0559
:104460002817390771F090936D0580936C05E091E2
:104470006A05F0916B05309721F00084F185E02DFD
:104480000994089520916805309169052817390726
:1044900071F09093690580936805E0916A05F09149
:1044A0006B05309721F00680F781E02D099408957F
:1044B000E0916A05F0916B05309721F00190F08151
:1044C000E02D099480E00895BC014091640580913D
:1044D0006505942F981729F1292F30E0F901EE0F87
:1044E000FF1FE45AFA4F0190F081E02DE617F7071D
:1044F00099F487E0869FF001879FF00D1124EC5D11
:10450000FA4F81E0848394130CC02F5F3F4F2370D8
:1045100033272093640508952F5F3F4F922F9370A8
:10452000D9CF08950F931F93CF93DF938091C30446
:10453000882309F451C0C091C2041CE08091C304D7
:10454000C81708F045C001E00C0F0093C204D0E08A
:104550001C9FF0011D9FF00D1124EC53FB4F908127
:10456000818123813481232B31F08F3F31F481E02D
:104570009F3F19F403C081E001C080E080FD26C0A8
:104580001C9FD0011D9FB00D1124AC53BB4F16963C
:104590008D919C911797892B31F418968D919C9150
:1045A0001997019651F420813181428153816481B0
:1045B0007581868197810E94DC1A1C9FF0011D9FE6
:1045C000F00D1124EC53FB4F14821382C02FB6CF91
:1045D0001092C3041092C204DF91CF911F910F91EA
:1045E00008951092C1041092C004E4E2F5E08581C0
:1045F000811102C014821682379685E0EC35F807E7
:10460000B1F7089510926705109266051092130194
:1046100080916505809364050E94F1220C9492229A
:104620003F924F925F926F927F928F929F92AF9242
:10463000BF92CF92DF92EF92FF920F931F93CF938F
:10464000DF93C091640597E0892E01E010E02CE033
:10465000322E3EEF932E4424439480916505C81773
:1046600009F478C0D0E0FE01EE0FFF1FE45AFA4FC4
:1046700080819181889ED001899EB00D1124AC5D0E
:10468000BA4F14962C911497211161C05090C30415
:10469000E4ECF4E020E030E0712C5D01251508F039
:1046A00054C0E284F384D501CD90DC906FEF7FEFAE
:1046B000612C462D50E0DA01AA0FBB1FAC0DBD1DC9
:1046C0000D90BC91A02D109731F0EA16FB0609F46D
:1046D000BA016394EECF6F3FBFEF7B0791F1D80132
:1046E00002C0AA0FBB1F6A95E2F77A2AB80102C07E
:1046F000660F771F6A94E2F7AB0141505109672DAD
:1047000070E046175707D9F4329EF001339EF00D42
:104710001124EC53FB4F889ED001899EB00D1124CB
:10472000AC5DBA4F12962D913C9113973783268337
:10473000908291829187808715964C9206C0148250
:1047400013822F5F3F4F3C96A9CF0E94642221968F
:10475000C37083CF0E949222DF91CF911F910F915E
:10476000FF90EF90DF90CF90BF90AF909F908F9091
:104770007F906F905F904F903F900C94F1220F9339
:104780001F93CF93DF93C42FD22FFC018281882304
:10479000C9F04093BF040E94D0219093BE0480933F
:1047A000BD0480E28C0F883008F057C0C77081E0EC
:1047B00001C0880FCA95EAF7DF91CF911F910F9141
:1047C0000C947E1B8091BF04481330C08091BD04BF
:1047D0009091BE040E94B521883C910538F510E205
:1047E0001D0FCD17B9F080E28C0F883040F4C770F0
:1047F00081E001C0880FCA95EAF70E94771B183044
:1048000028F581E09D2F977001C0880F9A95EAF7EF
:104810000E947E1B802F0E947B1C1830F0F4D77002
:1048200081E001C0880FDA95EAF70AC080E28C0FB8
:10483000883098F4C77081E001C0880FCA95EAF704
:10484000DF91CF911F910F910C94771B802FDF91F7
:10485000CF911F910F910C947B1CDF91CF911F91F1
:104860000F9108958091BC048823F9F00E94C4211F
:10487000DC01CB01805A9541AF4FBF4F8093B70405
:104880009093B804A093B904B093BA048091BB0488
:1048900081110BC062E070E08CE497E00E94F51299
:1048A000892B19F481E08093BB048091BB040895A7
:1048B000CF93DF93C3E9D2E060E0CE010E946A2C7F
:1048C0002196C11584E0D807B9F7DF91CF910895FB
:1048D0000F931F93CF93DF93853068F5633058F5BE
:1048E000423048F521159CE5390731F4E091B104D7
:1048F000F091B204EF2BF9F08901282F34E0639F87
:10490000C00111243CE0239F800D911D1124840FD0
:10491000911D840F911DEC01C95FDD4F612FCE0108
:104920000E946A2C602FCE010196DF91CF911F91DA
:104930000F910C946A2CDF91CF911F910F910895E4
:104940000F931F93CF93DF93853018F5633008F5ED
:104950004230F8F4282F34E0639FC00111243CE07A
:10496000239F800D911D1124840F911D840F911D93
:10497000EC01C95FDD4FCE010E945C2C90E0182F46
:104980000027CE0101960E945C2C9801282BC901BA
:1049900002C080E090E0DF91CF911F910F910895C8
:1049A0000F931F93CF93DF93853058F5663048F50A
:1049B000483038F521159CE5390731F4E091B10410
:1049C000F091B204EF2BE9F08901C42FD0E0CC0FB5
:1049D000DD1F90E1699FC00DD11D112490E6899FD4
:1049E000C00DD11D1124612FCE0187960E946A2C23
:1049F000602FCE018896DF91CF911F910F910C947B
:104A00006A2CDF91CF911F910F9108954F925F9281
:104A10006F927F928F929F92AF92BF92CF92DF92CE
:104A2000EF92FF920F931F93CF93DF93CDB7DEB733
:104A30002A970FB6F894DEBF0FBECDBF6090B104C9
:104A40007090B20481E090E09093B2048093B1043E
:104A500090E3A92E95E0B92EC12CD12C512C412CDC
:104A6000E12CF12C00E010E047018C0C9D1CF401BE
:104A7000E00FF11FEE0FFF1FE459FA4F259134911B
:104A8000402F642D852D0E94D0240F5F1F4F0830CA
:104A9000110569F788E0E80EF11C439496E049128D
:104AA000E1CF750110E0F7012591349140E0612FCD
:104AB000852D0E946824F70132962591349141E0BA
:104AC000612F852D0E946824E4E0EE0EF11C1F5F2B
:104AD000133049F7FCE0AF0EB11C539480E3C80ECD
:104AE000D11C95E05912BBCFFE0131967F018AE0BF
:104AF00011928A95E9F703E412E04AE050E0B80128
:104B0000C7010E948E2C065F1F4F0339F2E01F077A
:104B1000A1F77092B2046092B1042A960FB6F8948D
:104B2000DEBF0FBECDBFDF91CF911F910F91FF90E0
:104B3000EF90DF90CF90BF90AF909F908F907F903D
:104B40006F905F904F9008950F931F93CF93DF93D3
:104B5000853008F56630F8F44830E8F4C42FD0E02A
:104B6000CC0FDD1F20E1629FC00DD11D112430E666
:104B7000839FC00DD11D1124CE0187960E945C2C0D
:104B800090E0182F0027CE0188960E945C2C980197
:104B9000282BC90102C080E090E0DF91CF911F91E6
:104BA0000F910895462F2091B5043091B604232B20
:104BB00091F47E3F39F46E3F71F48091B30490918B
:104BC000B4040895853038F4763028F4683018F449
:104BD000672F0C94A42580E090E00895CF92DF9297
:104BE000EF92FF920F931F93CF93DF93CDB7DEB772
:104BF0002A970FB6F894DEBF0FBECDBF80E5E1E681
:104C0000F4E0DF011D928A95E9F788E3E4E2F5E03C
:104C1000DF011D928A95E9F781E6C82E84E0D82E3F
:104C20007F0103E412E0F701D182C0824AE050E044
:104C3000B801CE0101960E944C2C88E0FE0131960D
:104C4000D60101900D928A95E1F789859A85D70161
:104C500013969C938E931297BAE0CB0ED11CE7E08B
:104C6000EE0EF11C065F1F4F0339F2E01F07D9F665
:104C70002A960FB6F894DEBF0FBECDBFDF91CF915D
:104C80001F910F91FF90EF90DF90CF900895AF921A
:104C9000BF92CF92DF92EF92FF920F931F93CF9329
:104CA000DF93B82EA62EC090EE0380916004C82A30
:104CB000C7E0D0E0D12CE12CF12CD701C6010C2E9D
:104CC00004C0B695A795979587950A94D2F780FF6B
:104CD00013C04A2D6B2D8C2F0E94A0248C01813093
:104CE000910551F00E94EF2A8FE39CE90197F1F7BB
:104CF00000C00000C80111C02197F8F64A2D6B2DA5
:104D000080E00E94A024EC010E94EF2A8FE39CE93E
:104D10000197F1F700C00000CE010E94BF2A81E098
:104D2000DF91CF911F910F91FF90EF90DF90CF9087
:104D3000BF90AF9008959C013A9521153F4130F501
:104D4000BC0166277270AC01442754709C01222775
:104D5000387094FF0FC090FF02C080E101C080E076
:104D6000672B09F08062452B09F08064232B79F0D2
:104D700080680895892F8170672B09F08260452B28
:104D800009F08460232B19F08860089580E008956D
:104D9000DF92EF92FF920F931F93CF93DF93E82F51
:104DA000F0E0E258F84FD490282F269526952695C6
:104DB00030E0F901E259F84F0491877010E0082EB5
:104DC00002C0159507950A94E2F701701127F901C1
:104DD000E25AF84FE490F12C082E02C0F594E794C3
:104DE0000A94E2F791E0E922FF24F901E25BF84F2F
:104DF000C491D0E002C0D595C7958A95E2F7C170FD
:104E0000DD270115110519F081EE0E94DF1BE11469
:104E1000F10419F086EE0E94DF1B8D2D0E947B1C91
:104E2000EF2819F086EE0E94881B012B19F081EE05
:104E30000E94881BCD2B51F08CE2DF91CF911F9106
:104E40000F91FF90EF90DF900C947B1CDF91CF913E
:104E50001F910F91FF90EF90DF900895EF92FF92D6
:104E60001F93CF93DF93EC011AE08881882309F424
:104E70004AC0813009F043C08981813041F47E010C
:104E800082E0E80EF11C8A810E947B1C09C08230FE
:104E900049F47E01E2E0EE0EF11C8A810E94DF1BE4
:104EA000E7012FC0833041F47E01F2E0EF0EF11CE8
:104EB0008A810E94881BF4CF843011F0219621C092
:104EC0002A81229680E090E030E0205331092A3098
:104ED000310558F4189FA001199F500D1124C901E4
:104EE000840F951F21962881EFCF009751F0EFE9AD
:104EF000FFE03197F1F700C000000197F6CF0E9464
:104F0000C8262196B2CFDF91CF911F91FF90EF90ED
:104F100008951F93CF93DF9300D000D01F92CDB799
:104F2000DEB7FC0186819781009709F5CF0125E066
:104F3000DE01119601900D922A95E1F7FC01228184
:104F400089819A81222359F0662349F00E9428180A
:104F5000182F682F89819A810E94851A03C00E94A8
:104F6000551A182F69817A81812F0E94D2250F90BE
:104F70000F900F900F900F90DF91CF911F91089598
:104F8000CF93DF93EC010E94881BCE01805E9109D4
:104F9000089710F0209739F4CE010E949B26DF91EC
:104FA000CF910C94771BCE010E949B26DF91CF916D
:104FB0000C94621BCF93DF93EC01805E91090897FC
:104FC00010F0209731F4CE010E949B260E947E1B98
:104FD00005C0CE010E949B260E946D1B8C2FDF9185
:104FE000CF910C94DF1BCF93DF93C091D303D0916B
:104FF000D403CE0195558F3F910509F048F48C2FCD
:10500000C4FF02C08295807FDF91CF910C94AA20CB
:10501000CE010E94DA278FE798E321E0815090408B
:105020002040E1F700C00000CE01DF91CF910C9449
:10503000C0271092D2030E94582281FF03C089E347
:105040000C947B1C08952F923F924F925F926F9227
:105050007F928F929F92AF92BF92CF92DF92EF9208
:10506000FF920F931F93CF93DF93CDB7DEB76A976D
:105070000FB6F894DEBF0FBECDBF498B5A8B6B8B3A
:105080007C8B8D8B6111109258048E01075F1F4F2E
:1050900088E0F80111928A95E9F785E0FE017196A2
:1050A000D80101900D928A95E1F70E94D0212091BC
:1050B000540430915504821B930B8838934140F07F
:1050C0008091560482FB992790F981E0892701C0DD
:1050D00080E080FF03C082E00E942A1F0E94D0214E
:1050E00020915A0430915B04821B930B88389341C2
:1050F00010F00E94F71E99858A852C853D85232B0B
:1051000031F08F3F31F481E09F3F19F403C081E01B
:1051100001C080E080FDCAC161E0C8010E9489270A
:105120006C0187EFC8168CE5D80639F48B85882387
:10513000B9F081E080931301B9C198EFC9169CE5DD
:10514000D90631F48B85882359F00E940223AEC121
:10515000E9EFCE16ECE5DE0619F48B85811111C05E
:1051600004E215E0712CA12CB12C88248394912C9D
:1051700055245394CE0101969F8B8E8BF7E04F2ED2
:1051800049C0809113018823A1F2DFCFC616D7064C
:1051900009F097019F5F7901292F30E0F901EE0FA7
:1051A000FF1FE40FF51F608171816115710571F7B3
:1051B000FFEFEF16FF0609F42DC1F80164816111BC
:1051C00031C020911301822F81706B84F8013581E9
:1051D0002681662009F4C6C0882309F4C3C033239E
:1051E00021F1940102C0220F331F9A95E2F721505A
:1051F0003109F801868190E02817390759F176289E
:10520000FFEFAF1ABF0A095F1F4F28E0A216B104D3
:1052100009F402C1F80140815181EE24EA94FE2C88
:1052200090E0BACF20E030E0CECFA40101C0440F1F
:10523000EA94EAF7242B26832091C0043091C1041C
:105240002233310570F622E330E03093C10420931D
:10525000C004C7CF8091660590916705009729F03B
:105260000E94B521C39708F01EC180916405F0919A
:105270006505F88FE0E0F0E0288D821709F460C042
:10528000282F30E0F901EE0FFF1FE45AFA4F20807B
:105290003180429CF001439CF00D1124EC5DFA4FEB
:1052A000F080E18050E090E040E0EF2DFE2DE40F33
:1052B000F11DE40FF11DA081B1811097D1F0F8012B
:1052C000F081F98FF801F181FA8F90E0E98DFA8D84
:1052D000E90FF11DE90FF11D608171816115710503
:1052E00031F0A617B70709F451E09F5FEFCF4F5F8A
:1052F000DCCF5523F9F09417C8F0429CF001439C91
:10530000F00D1124EC5DFA4F3097B1F054820E1776
:105310001F0709F474CF9091640589130DC0C9016A
:105320000196837099278093640506C001151105C5
:1053300009F0B9C0E0E0F0E0C901019683709CCFAC
:105340000E171F0709F45BCF90E0FC01EE0FFF1F63
:10535000E45AFA4FB182A082019683709927809314
:1053600065054DCF311112C0A40102C0440F551F75
:105370009A95E2F74150510930E042175307E9F599
:105380006623E1F1C5010E94642237C0822F90E0BC
:105390009C0121503109282339230E2C02C09595F8
:1053A00087950A94E2F7232B31F580FF24C0F8019A
:1053B00082819381892BD9F088E0EE89FF8911924F
:1053C0008A95E9F78EEF89838A830E94D0218160D4
:1053D000582F9D838C83F801828193818F839887D6
:1053E00029813A814B816D817E810E94DC1AF8010E
:1053F000158281E003C0817001C080E0940101C08A
:10540000220FEA94EAF72095F80196812923268352
:10541000682EF5CE612CF3CE8B85882381F1772021
:1054200071F10E94D0219093670580936605809169
:10543000C304883008F044C091E0980F9093C304EF
:1054400098E0FE013996DE01119601900D929A9531
:10545000E1F7ECE08E9FC00111248C539B4F28E0B4
:10546000FE013196DC0101900D922A95E1F72FEFB4
:105470003FEFFC0131872087D386C28621C09091FF
:10548000640580916505981719F00E94102308C0E3
:105490000E94922210926705109266050E94F122E6
:1054A000772021F00DC0F8015482A9CE29853A85D4
:1054B0004B855C856D857E858F8598890E94DC1A79
:1054C0006A960FB6F894DEBF0FBECDBFDF91CF91C5
:1054D0001F910F91FF90EF90DF90CF90BF90AF9012
:1054E0009F908F907F906F905F904F903F902F9004
:1054F0000895CF93C82F811102C06FEF01C065ECF2
:1055000083E290E00E946A2CC11102C06FEF01C0DB
:105510006DE084E290E00E946A2CC11102C06FEF3E
:1055200001C06BEF85E290E0CF910C946A2C80E093
:105530000E94792A60E086E290E00E946A2C0E9434
:1055400006250E94582481E00C94792A83E290E099
:105550000E945C2C853C81F484E290E00E945C2CEB
:105560008D3051F485E290E00E945C2C91E08B3FFD
:1055700009F090E0892F01C080E081700895CF93F9
:10558000DF9300D000D01F92CDB7DEB79093B40464
:105590008093B304811520E2920748F40F900F9096
:1055A0000F900F900F90DF91CF910C94C0278EEF4A
:1055B00089838A831B820E94D0218160782F9D83FA
:1055C0008C8349815A816B818D810E9423280F90A1
:1055D0000F900F900F900F90DF91CF910895CF9380
:1055E000DF9300D000D01F92CDB7DEB79093B40404
:1055F0008093B304811520E2920748F40F900F9036
:105600000F900F900F90DF91CF910C94DA278EEFCF
:1056100089838A8381E08B830E94D0218160782FE7
:105620009D838C8349815A816B818D810E942328BF
:105630000F900F900F900F900F90DF91CF910895E2
:105640001092B9008CE08093B80008959F92AF92B9
:10565000BF92CF92DF92EF92FF920F931F93CF935F
:10566000DF93B82EEB010E94D0216C01C431D1052B
:1056700058F0CF3F8FEFD80759F0CE0164E170E0CA
:105680000E942F2C7B0107C0EE24E394F12C03C071
:1056900025E0E22EF12C84E8A82E94EA992E1092AF
:1056A000BC009092BC000E94D0218C018091BC0073
:1056B00087FD08C00E94D021801B910B8E159F058D
:1056C000A8F32AC08091B900887F883041F080918A
:1056D000B900887F803119F00FEF1FEF1FC0B09223
:1056E000BB00A092BC000E94D0218C018091BC0024
:1056F00087FD08C00E94D021801B910B8E159F054D
:10570000A8F30AC08091B900887F883111F08034F5
:1057100019F700E010E00EC00EEF1FEFCF3F8FEF44
:10572000D80709F4BCCFC6010E94B5218C179D078C
:1057300008F4B5CFC801DF91CF911F910F91FF9071
:10574000EF90DF90CF90BF90AF909F9008950F9310
:105750001F93CF93DF93EB018093BB0084E880938A
:10576000BC000E94D0218C018091BC0087FD0EC03E
:10577000CF3F8FEFD807C1F30E94D021801B910B40
:105780008C179D0788F38EEF9FEF0CC02091B90016
:10579000287F81E090E0283211F480E090E091953C
:1057A00081959109DF91CF911F910F910895CF922B
:1057B000DF92EF92FF920F931F93CF93DF936B01D2
:1057C0008A017901B9010E94262BE6010C0D1D1DED
:1057D000C017D10761F424E92093BC00DF91CF9179
:1057E0001F910F91FF90EF90DF90CF90089597FD5C
:1057F000F2CFB70189910E94A72BEACFCF92DF9217
:10580000EF92FF920F931F93CF93DF93C62F6A01FE
:105810007901B8010E94262B97FD11C0B8018C2F89
:105820000E94A72BE601EC0CFD1CCE15DF0539F01C
:1058300097FD05C0B80189910E94A72BF6CF24E9F6
:105840002093BC00DF91CF911F910F91FF90EF90BB
:10585000DF90CF90089584E98093BC000895AA1B3F
:10586000BB1B51E107C0AA1FBB1FA617B70710F04B
:10587000A61BB70B881F991F5A95A9F7809590957D
:10588000BC01CD010895FB01DC0102C005900D9221
:1058900041505040D8F70895DC01CB01FC01F99943
:1058A000FECF06C0F2BDE1BDF89A319600B40D926C
:1058B00041505040B8F70895F999FECF92BD81BD8F
:1058C000F89A992780B50895A8E1B0E042E050E049
:1058D0000C944E2C262FF999FECF92BD81BDF89ADB
:1058E000019700B4021639F01FBA20BD0FB6F89424
:1058F000FA9AF99A0FBE08950396272F0E946B2CEF
:105900000E946A2C252F0E946B2C242F0C946B2C48
:105910000196272F0E946B2C0C946A2CDC01CB0182
:1059200003C02D910E94992C41505040D0F708950A
:10593000262FF999FECF1FBA92BD81BD20BD0FB6AB
:10594000F894FA9AF99A0FBE0196089597FB072EDC
:1059500016F4009407D077FD09D00E942F2C07FC85
:1059600005D03EF4909581959F4F0895709561956F
:105970007F4F0895EE0FFF1F0590F491E02D0994DD
:105980006927962769277827872778270895FB01B5
:10599000DC0104C08D910190801921F441505040E8
:1059A000C8F7881B990B0895DC0101C06D93415025
:0A59B0005040E0F70895F894FFCF8F
:1059BA00122115211121E612E2120021007F220094
:1059CA0003FF0101693CEA84B6CCB4AC92F4F5F663
:1059DA00F7313534C6976694323300FF010001006F
:1059EA0000FFFF0000010001FF0037F1909536919A
:1059FA0000081018181008004022321104EF03BDE5
:105A0A000363047C049C04818283E200E900EA00C7
:105A1A00B500B600B700CD008301CC008A0192011F
:105A2A0094012102230224022502260227022A02C5
:085A3A00B300B4006F0070001E
:00000001FF
