:100000000C9499040C94E0040C94E0040C94E00427
:100010000C94E0040C94E0040C94E0040C94E004D0
:100020000C94E0040C94E0040C94661C0C94A21B49
:100030000C948D270C94E0040C94E0040C94E004E0
:100040000C94E0040C94E0040C94E0040C94E004A0
:100050000C94E0040C9440270C94E0040C94E0040D
:100060000C94E0040C94E0040C94E0040C94E00480
:100070000C94E0040C94E0040C94E0040C94E00470
:100080000C94E0040C94E0040C94E0040C94E00460
:100090000C94E0040C94E0040C94E0040C94E00450
:1000A0000C94E0040C94E0040C94E004A60CC20C44
:1000B000C90C010D120D1D0D2D0D400D7F0D840D70
:1000C000DE0DDE0DDE0D8C0D140E1F0E4A0E860E9B
:1000D0007908120F5A0F5D0F620F00106B10451454
:1000E000501455145A145F14641469146E14731464
:1000F00078147D14031503153C153C159E15D9166F
:10010000D916D916BC15301641164116AA19D1199F
:10011000841BD119841B1D1A401A841B411B511BBF
:10012000261E261E391E391E2F1E391E391E391E47
:10013000261E261E341E391E391E341EFD377A58DF
:100140005A000004E6D6B446020021011600000061
:10015000742FE5A3E0085302455D003D8889C6542D
:1001600036C3174FE4F1E112FDEF008EFF6F938766
:10017000B42647FBB729D03483DA2C4E8C1ED4A288
:10018000101D9A2C5F0D89D296E2560F1E575FB450
:1001900010F19A9B18602D7EFBA74803850A09BBC6
:1001A00061BA19807BBF8567EF57236FF078893379
:1001B000D06222FCBD0E51E6DEAF7BE8DAA26055CC
:1001C0001D19D1FB286DE36D5BBD4122218BEA63D4
:1001D00083C8A2495A31655DBD002908EFA3B6E185
:1001E0009EAEF3D84A9B2F0D317CDC7AE26D5B8D9D
:1001F0009F4C1A0FEED72802735D24FAE0CD52AD62
:100200005FA9557D24C66E6096EE385461552D3534
:100210003326C0C365397C77239B589B7C90A1BF54
:10022000BD6D204BBF2FE0C2EF0363B5AC02FDD81C
:100230007142E85C47D08B8B08455CE2D1BD93A34B
:100240006E6B7B019B123EA7AB5EB577FDE833C6B4
:10025000F7BB8181344D4831C367B9E33A8438C074
:1002600073722F53E5B769DD775E305F2782C90F60
:10027000FEE70EAAEAE455B91AF196FE8AE7C52E02
:1002800076B72D2C05C44C4C9E75684B1B92247E72
:100290002B906DF9DE48E3E4A467E21B4A6CFA5A3E
:1002A00078AABE7A60553A67389C7FBA3B8D1B129C
:1002B0008E5FB2763748EB7D97222611EBAEEE4E7D
:1002C00087D5FA484DA991F4B5CBB4B735D19F4045
:1002D000D5E312191F76715BA303830EC87AFA73F4
:1002E000CC48F9436FBCADF442CCC64C8DA0FF9E08
:1002F000FAD6F6E65D11F9640DEDB69B5DBBDF9DA8
:10030000C9DF085FCD2BE31E49F9E211DE6CDC701A
:100310007AD4075AFF4099DBBCEA657B2A642CA497
:100320008220E55D181AD31FAF0B6F8A701E4C95A3
:10033000AE69E6EC7CAA614CAE2FD61C5296328C8C
:10034000661C8E0964B52368642875932C911DA0E2
:10035000C9AA1DFB9B345575DFAC63A36274506C56
:10036000FB2CCA5497D6DB2F5D6FDF76D5948A1E9F
:10037000A7855FE6802992D46176588C98975A6851
:1003800026CDB1651D8D8A5C5236D1C421A22A8347
:1003900066E99C0CB0428FBD51715A73ABE82CB02A
:1003A00000000000896E945E7653C6190001E104D6
:1003B000D41000008437DD5EB1C467FB020000008A
:1003C0000004595A0000000001000A000200010068
:1003D0000300020011000300120004001A000500CF
:1003E0001B0006001C0007001D000800200009007B
:1003F0002E200005010980A101850319012AB700FB
:10040000150126B700950175108100C0050C090182
:10041000A101850419012AA002150126A002950157
:1004200075108100C00660FF0961A1010962150015
:1004300026FF009520750881020963150026FF003C
:10044000952075089102C005010906A1010507194B
:10045000E029E715002501950875018102950175D0
:100460000881010507190029FF150026FF009506E0
:100470007508810005081901290595057501910286
:10048000950175039101C009025B00030100A0FA08
:1004900009040000010301010009211101000122EA
:1004A00040000705810308000A0904010002030057
:1004B000000009211101000122220007058203200A
:1004C00000010705030320000109040200010300E5
:1004D00000000921110100012232000705840320D8
:1004E000000A1201000200000008FEFEBBFF01002E
:1004F000010203011C037600690061006C003A00F0
:10050000660036003400630032006200330063008E
:100510000000320373006100640065006B0062003C
:10052000610072006F0075006400690020006600C1
:1005300066006B0062005F00620079006F006D0072
:100540006300750000001A03730061006400650019
:100550006B006200610072006F007500640069004A
:10056000000004030904AA00A90050014F012B0355
:100570002B01010001000100010001000100010048
:100580000100010001000100010001000100010063
:100590000100010001000100010001000100010053
:1005A0000100290014001A000800150017001C00A3
:1005B00018002B0004611668076409620A000B002A
:1005C0000D72E1001D001B0006001900050011005E
:1005D0001000000000000E74370012003371380064
:1005E0002A0000002B0436000C000F781300E500F1
:1005F00034002A01A8004C003100280001510251AA
:100600002C0001001E021F022002210222022302EE
:10061000240201000153025303530453010001005B
:100620002D0201003900010001000100010001005C
:100630000100000000002E023102260230023402C6
:10064000010000000100010025022F022702010025
:10065000010001000100010001000100010003513F
:10066000010035001E001F00200021002200230091
:1006700024004A005000510052004F002B0001009E
:100680002D00010001004E004B000100815F845FDE
:10069000825F000000002E000100260030000100F3
:1006A000010000000100835F25002F0027000100EA
:1006B00001000100010001000100010003510100DF
:1006C00001000100C25CC45CC35C010001003A008F
:1006D0003B000100CB5CC55CC75CC95C01003F000E
:1006E00040000100CC5CC65CC85CCA5C01004400F0
:1006F000450000000000410001003D004300005C97
:1007000001000000010001003C0042003E00010029
:1007100001000100010001000100010001000100D1
:1007200001000100010001000100010001000100C1
:1007300001000100010001000100010001000100B1
:1007400001000100010001000100010001000100A1
:100750000100000000000100010001000100010093
:100760000100000001000100010001000100010082
:100770000100010001000100010001000100010071
:100780000100000000000000000000000000000068
:100790000000000000000000000000000000000059
:1007A0000000000000007E0F00D4FFFFFFC7000024
:1007B000007800000000000000002A2B2800000044
:1007C0000000000000000000000000000029000000
:1007D00000002C1E3420212224342627252E362DDD
:1007E0003738271E1F202122232425263333362E77
:1007F00037381F0405060708090A0B0C0D0E0F10E9
:100800001112131415161718191A1B1C1D2F31302D
:10081000232D350405060708090A0B0C0D0E0F10D1
:100820001112131415161718191A1B1C1D2F31300D
:10083000354C000101010101010101010202020226
:10084000020202020203030303030303030404047A
:100850000404040405050505050606060606070743
:1008600007070708080808090909090A0A0A0B0BFB
:100870000B0C0C0C0D0D0D0E0E0E0F0F0F1010119A
:100880001111121213131414151516161717181820
:1008900019191A1A1B1B1C1D1D1E1E1F2020212288
:1008A00022232424252626272829292A2B2C2D2DCE
:1008B0002E2F30313232333435363738393A3B3CEB
:1008C0003D3E3F404142434445464748494A4C4DDE
:1008D0004E4F50515354555658595A5B5D5E5F61A7
:1008E0006264656668696B6C6D6F7072737577783A
:1008F0007A7B7D7E8082838587888A8C8E8F919398
:100900009596989A9C9EA0A2A3A5A7A9ABADAFB1BE
:10091000B3B5B7BABCBEC0C2C4C6C9CBCDCFD1D4A3
:10092000D6D8DBDDDFE2E4E7E9EBEEF0F3F5F8FA49
:10093000FDFF11241FBECFEFDAE0DEBFCDBF04B64E
:1009400003FE27C080918B0590918C05A0918D05A9
:10095000B0918E058730904BA740B04BD1F41092E8
:100960008B0510928C0510928D0510928E0514BE89
:1009700084B7877F84BF0FB6F894A89580916000F4
:10098000886180936000109260000FBEE0E0F8E3A1
:10099000099512E0A0E0B1E0EEE0F8E602C00590B3
:1009A0000D92A833B107D9F725E0A8E3B2E001C062
:1009B0001D92AB38B207E1F70E94E2040C940534B3
:1009C0000C940000CF93DF93CDB7DEB7E4970FB65A
:1009D000F894DEBF0FBECDBF84B7877F84BF0FB64C
:1009E000F894A895809160008861809360001092CF
:1009F00060000FBE90E080E80FB6F894809361002D
:100A0000909361000FBE85B7806885BF85B7806809
:100A100085BF8DE392E290933902809338020E9461
:100A2000792B0E94E61B0E94051C8091E2008460E5
:100A30008093E200789480917F038823A1F0109145
:100A4000E9001F709091EC00892F817090FD80E883
:100A5000182B1092E9008091E80083FD0E94C418D1
:100A60001F701093E90082E084BD93E095BD9AEF7A
:100A700097BD80936E000E94F930811102C00E94E0
:100A8000EA300EE111E0E4E2EE2EE1E0FE2ED801C4
:100A90008D918D018F3F11F00E948222E016F106A8
:100AA000B1F704E211E07CE2E72E71E0F72EF801E5
:100AB00081918F018F3F11F00E948222E016F10692
:100AC000B1F7ECE3F2E082E492E0AEE5B3E011923C
:100AD0001D928E179F07D9F70E941D25811102C014
:100AE0000E94282582E090E00E9418338093D5026E
:100AF0000E940C2590933B0280933A020E94992217
:100B00008FE39CE90197F1F700C000000E94992251
:100B100080915E0380FF08C06FEF7FEF80E090E080
:100B20000E9454330E941C2783E090E00E941833F7
:100B30000E9473201092A202EBEBF2E08BEC92E0A9
:100B40002FEF3FEF219331938E179F07D9F7109224
:100B50004202EBE5F2E08BE692E02FEF3FEF2193CC
:100B600031938E179F07D9F70E941D25811104C06C
:100B70000E9428250E94AD3146E050E06CE170E013
:100B800084E893E00E940833809184038C7F11F401
:100B90000E94AD3144ED842E42E0942E4CE351E0AE
:100BA0002FE331E061ED662E62E0762E61E070E0C9
:100BB0008614970409F44EC0F901A1919F018A2F70
:100BC00082958F7090E0FC01F1A0AF70BA2E8B017E
:100BD00001C0000FAA95EAF7F02FF095FF22DC0183
:100BE0009196FC9291979296AC91A02BFC01A2A3B6
:100BF000DA01ED90AD01EE2DE295EF70F0E0F1A09D
:100C0000BE2DBF70EB2E6B0101C0CC0CBA95EAF77C
:100C1000DC2CD094FD20F1A2F2A0FC28F2A2DC0191
:100C200090968C9190E002C095958795BA94E2F7E2
:100C30008170E0A1F0E002C0F595E795EA94E2F753
:100C4000E0FF02C092E001C090E0892BF3018193A4
:100C50003F01AECF80E091E09093010580930005C5
:100C600030E4232E80917F03853009F044C000E1F9
:100C700012E180917F03853009F039C080917F03B4
:100C8000843019F11092040528E130E00FB6F89491
:100C9000A895209360000FBE2092600083B7817FEB
:100CA000846083BF83B7816083BF7894889583B75E
:100CB0008E7F83BF0FB6F894A895809160008861FD
:100CC00080936000109260000FBE809175038823AE
:100CD00009F4CFCF0E949922EEE5F3E081918111D2
:100CE00073C784E693E08E179F07C1F7C2CF0E94B7
:100CF00077200E9409280E94992281110E9475275D
:100D0000A6EDB2E0EEE5F3E0C12CD12CAC2C819144
:100D10009D91982709F43FC1B12C11E0292F21237F
:100D200009F434C1BBA6ACA6082F012381E009F465
:100D300080E08DA70E9481278160782F9FA78EA7D2
:100D40004BA55CA56DA58FA50E944B2DF601EA521F
:100D5000FD4F808118271083002389F0F60123E0DE
:100D6000EE0FFF1F2A95E1F7EF5AFE4FEB0DF11D35
:100D700080818F3F21F0382E9924939401C0912CCB
:100D8000092D10E080914202D801A80FB11D1997DA
:100D9000ACF188E090E07C01E01AF10AB8016F5FE5
:100DA0007F4F6E5B7D4FA70183E492E00E94F53395
:100DB000B801675F7F4F6E5B7D4FA7018BE492E0C8
:100DC0000E94F533A701440F551FB801660F771F26
:100DD000675E7F4F6E5B7D4F8BE592E00E94F5333F
:100DE000B8016F5E7F4F6E5B7D4FA70183E592E098
:100DF0000E94F53388E08919809342028091420273
:100E000090E0A32DB0E09D01220F331F2F573E4FDE
:100E1000AA0FBB1FBD016E577E4F41E0480F9915C9
:100E2000A8F490E0FC01EE5BFD4FD9015C91518389
:100E3000DB015C915187318A880F991FFC01EE5BC1
:100E4000FD4F128E118E91E0842FE7CF80934202E6
:100E5000809184038C7F803209F0B5C08FEF8A0DBA
:100E600021E02A0DEFEFEB0D91E09B0DA60163E071
:100E7000440F551F6A95E1F7EB1558F4DA01AE58A7
:100E8000BD4FAE0FB11D3C9160E1360F08F43FEF4E
:100E90003C936B2D70E04E585D4FDA01A60FB71FE3
:100EA0003C9110E2310F08F43FEF3C93983049F049
:100EB000DA01A90FB11D3C9140E1340F08F43FEF76
:100EC0003C93263071F130E0EB1580F4D90153E00A
:100ED000AA0FBB1F5A95E1F7AE58BD4FAE0FB11D1B
:100EE0004C915DE0450F08F44FEF4C9343E0220F27
:100EF000331F4A95E1F72E583D4FD901A60FB71F72
:100F00004C9150E1450F08F44FEF4C93983049F065
:100F1000D901A90FB11D2C913DE0230F08F42FEF4B
:100F20002C938A1508F04FC0282F30E0EB1590F471
:100F3000A90103E0440F551F0A95E1F74E585D4F94
:100F4000DA01AE0FB11DFD0140815DE0450F08F4EF
:100F50004FEF4083F90113E0EE0FFF1F1A95E1F701
:100F6000EE58FD4FDF01A60FB71F2C9130E1230F84
:100F700008F42FEF2C93983031F1E90FF11D208107
:100F80003DE0230F08F42FEF20831DC0B394110F11
:100F900028E0B212C3CE3FEFC31AD30A46E0C4160C
:100FA000D10409F0B3CE8FEF88AB89AB1AAA0E94A7
:100FB00081278160782F9CAB8BAB48A959A96AA97E
:100FC0008CA90E944B2D80916B0290916C02A09194
:100FD0006D02B0916E022FB7F894C0900505D090C5
:100FE0000605E0900705F09008052FBFC81AD90A3A
:100FF000EA0AFB0A0E94752760936B0270936C02E9
:1010000080936D0290936E02A0914202E2E4F2E0BE
:101010002A2F30E088248A94982CA12CB12C8C188B
:101020009D08AE08BF08A31799F0418D528D2A0183
:10103000612C712C84149504A604B70410F421507B
:1010400004C04C0D5D1D528F418F3F5F3296EBCF38
:101050002093420230918403232F237021F0E32E4A
:10106000E694E69401C0E12C209112012130E9F0D0
:1010700038F0223009F472C0233009F478C09BC0E4
:1010800010920E016093800370938103809382031A
:101090009093830389E2E2E4F2E0A2EAB2E00190F5
:1010A0000D928A95E1F781E056C090910B01E9120B
:1010B0000DC0832F837090E040910A0150E021E041
:1010C0008417950709F420E0822F01C081E0817028
:1010D000809310018091890390910F01981709F472
:1010E00093C580930F0140E060E080E00E94A13151
:1010F0008BC510910E0189E0189F102D112429E055
:10110000F22EF10EEAE2EF1510F49AE2F92E609158
:101110008803669580918003909181030E946532D7
:10112000B82E1F1508F44FC681E0F9E2FF1510F440
:101130000C94971090910E019F5F90930E01811176
:101140003AC082E08093120180911001811133C076
:10115000E11031C083E0809312012DC0E0920B01B9
:10116000832F837080930A010E944530F3CF8091D2
:101170000C0581110E94A53110920C05409180034D
:101180005091810360918203709183032FB7F8948B
:101190008091050590910605A0910705B09108057D
:1011A0002FBF841B950BA60BB70B4097A105B1056C
:1011B00010F0109212010EECE02E02E0F02E0BEC7B
:1011C00012E081ED682E82E0782E9CE3492E91E0BA
:1011D000592E2FE3C22E21E0D22E5301812C912CC7
:1011E000F50181915F01E82FEE0FEE0FD6012D91F1
:1011F0006D01A22FA295AF70B0E090968C9190E017
:101200002F7002C0959587952A95E2F79C01217071
:101210003327D2018D912D01A82FA295AF70B0E098
:1012200090964C9150E08F7002C0559547958A95E5
:10123000E2F7CA018170992740FF02C082E090E086
:10124000822B932B8E2BF30181933F018F70E82F1C
:10125000F0E0E45DFE4F9081D7018C91890F8C9373
:10126000823054F0F80180818F5F808360E0892DA7
:101270000E94D22B21E001C020E0D7018C918F3F4A
:101280004CF4F80180818150808361E0892D0E94B7
:10129000D22B21E0D7018C91082E000C990B62E033
:1012A00070E00E948633F70181937F01822A939434
:1012B0000F5F1F4FF3E09F1293CF81100E9475279D
:1012C0000E9409289091D402891721F00E940928D0
:1012D0008093D40280917F03843009F0C3CC83E0F3
:1012E0008093E9008091E80082FFBCCC8091E80007
:1012F00085FF22C00E943B1D81111CC000E210E04E
:101300009E012F5F3F4F790108C08091F100D70106
:101310008D937D010150110969F08091E80085FDF0
:10132000F4CF8091E8008B778093E8000E943B1D0A
:10133000882399F391E001C090E08091E8008B77D9
:101340008093E800992309F48DCCE0905104F0904B
:1013500052048981E114F10459F08E3F09F02EC442
:101360009A819330A8F19550933008F027C430C08B
:101370008B3009F4C8C248F5853009F47EC0B8F452
:10138000823009F442C030F4813009F015C41A8269
:1013900089E0B3C3833009F461C0843009F00CC420
:1013A0004C816B818A810E942F2B9D832BC48730B7
:1013B00009F471C008F46CC0883009F4E3C08930C6
:1013C00009F0FAC30E94A531F9C3803109F4DDC1E7
:1013D0008E010F5F1F4F813160F48D3009F477C1AA
:1013E00008F473C18E3009F476C18F3009F49EC1C0
:1013F000E3C3823109F4CEC108F4CAC1833109F4D0
:10140000F3C18E3F09F496C2D7C38A81823009F4B2
:10141000F2C3833051F0813009F0CEC30E947527AA
:101420009B838C837D836E83C9C380914D0490918F
:101430004E04892B09F4C2C380915E038B83809193
:101440005F038C83809160038D83809161038E8321
:10145000809162038F8380916303D8C08A81823038
:1014600009F0AAC36B817C818D819E810E94BF336C
:1014700086E290E00E943633A1C32D813E8132275F
:10148000232732274C816B818A810E945B2A96C375
:101490000E94912A93C38A81813421F0823409F415
:1014A0003BC08CC34B815C8180918403982F9370E7
:1014B0004115510539F49111109212018C7F8093DE
:1014C00084031FC0911102C0109212018C7F8160B1
:1014D0008093840324EC33E060EF73E0F9013296EB
:1014E00085919491F901A591B4914A175B0731F068
:1014F0002C5F3F4F6217730789F780E060E00E941E
:1015000073318D81809388038E8120E048856F81BF
:1015100090E00E94183152C34B815C818D81B3E011
:101520008B9F900111242E3131050CF047C3DE0151
:101530001196FA01EE0FFF1FE40FF51FE052FD4F69
:1015400020E030E090E02817390708F037C3139601
:10155000BA01620F731F6A32710508F02FC3129629
:101560006C911297608313966C9113976183149614
:101570006C911497613708F060E762832F5F3F4FEB
:101580003396E1CF8A81823409F442C028F4803452
:1015900051F0813471F012C3833409F459C084349A
:1015A00009F459C00BC381E08B831C8280E78D83D3
:1015B00005C380918403982F9370B1F0869586952A
:1015C00090E024EC33E060EF73E0F9013296A591EE
:1015D000B491F901459154918A179B0741F02C5F12
:1015E0003F4F6217730789F790E080E002C0942FA5
:1015F000852F9B838C83809188038D8380918503C5
:101600008E83809186038F83809187038887D6C2DB
:101610000B811C814EE150E06FEF70E0CE0103962C
:101620000E94FE3384EC93E0DE0113962EE1FC0170
:10163000459154910417150728F4223018F04D9362
:101640005D9322500496E3E0803F9E0781F7B6C287
:101650008AE28B839CC18B8190E08A3291050CF0E9
:10166000ADC2FC01EE0FFF1FEF57FE4F20812B8311
:10167000FC01EE0FFF1FEF5AFE4F21A92C83FC0146
:10168000EB52FE4F20812D832FEF2F832E8361E5B8
:1016900071E040E050E020E030E0FB01E20FF31F9A
:1016A000E081F0E08E179F0719F44E832F8386C2E6
:1016B0002F5F3F4F2830310581F74F5F5F4F685FE5
:1016C0007F4F4630510539F779C280E132C281E05F
:1016D0008A838DE612C2EA80FB80FE24EF24FE247A
:1016E000AC80B12CFDE1AF16B10408F067C268010F
:1016F000C7018D569D4F9601201B310B2A153B05C6
:1017000008F05CC22DE6E21621E0F20630F40E94F9
:101710001833D60114968C9302C0F6011482FFEFA1
:10172000EF1AFF0A2FEFC21AD20AE2CF80914D04BE
:1017300090914E04892B09F441C2EA80FB80FE247B
:10174000EF24FE24CC80D12C3DE1C316D10408F057
:1017500035C25801C7018D569D4F9501201B310B95
:101760002C153D0508F02AC24DE6E41641E0F406CA
:1017700028F4D50114966C910E943633BFEFEB1A12
:10178000FB0AEFEFAE1ABE0AE5CF0E94E32916C2AC
:1017900085E0CFC1EA80FB80FE24EF24FE24AC80EC
:1017A000B12CFDE1AF16B10408F008C26801C70111
:1017B00087969601201B310B2A153B0508F0FEC1C8
:1017C00020EEE21621E0F20630F40E941833D60132
:1017D00014968C9302C0F6011482FFEFEF1AFF0AF1
:1017E0002FEFC21AD20AE3CFEA80FB80FE24EF2457
:1017F000FE24AC80B12C3DE1A316B10408F0DEC19B
:1018000040EEE41641E0F40608F0D8C180EE91E025
:101810008E199F098A159B0508F4D0C1370187E20C
:10182000680E711C80914D0490914E04892B11F02B
:10183000680160C0E0FE0FC0C70186960E941833A1
:1018400090E0982F88272D81822B81159C4531F4BB
:101850008FEF8D8303C0C12CD12C03C0CC24C39443
:10186000D12CC7018A0D9B1D450180FF1BC0B1E033
:101870008B1A910855E0452E512C4C0E5D1E480CDC
:10188000591CC3018A0D9B1D0E941833F20120814F
:1018900030E0322F2227282B21153C4519F48FEFF9
:1018A000D2018C93F801EC0DFD1D2FEFCF01801BB1
:1018B000910B8815990508F0BBCF848190E0982F93
:1018C00088273581832B81159C4511F4248325833A
:1018D0003296ECCFE0EEEE16E1E0FE0628F4D601FB
:1018E00014966C910E943633BFEFEB1AFB0AEFEFB0
:1018F000CE1ADE0AC70187969601201B310B2A15E6
:101900003B0540F35BC180914D0490914E04892BBF
:1019100009F454C1CE0101960E949A1DFFEF11EE09
:1019200024E0F15010402040E1F700C000000E9488
:101930001C2744C1EA818E2F90E08E30910508F07B
:101940003DC1FC01EA5AFF4F0C94B93388E0E3E152
:10195000F1E0DE01919601900D928A95E1F780E227
:10196000D8011D928A95E9F784E0898388E0FE0119
:10197000B196DE01159601900D928A95E1F781E00E
:101980008D871CC188E8898382E08A831B821C8240
:1019900015C18C8190E0982F88272B81820F911D93
:1019A000092E000CAA0BBB0B35E0880F991FAA1F4C
:1019B000BB1F3A95D1F7AC01BD01405E5F4F6F4F41
:1019C0007F4F481759076A077B0708F4F7C0883824
:1019D000E2E09E07A105B10508F0F0C04938F2E049
:1019E0005F076105710520F048E852E060E070E0B3
:1019F000481B590BBC01645C7E4FC8010E94FF323A
:101A0000DDC01B810C8140E0602F812F0E942B2ABA
:101A100099838A8341E0602F812F0E942B2A9B8328
:101A20008C83CCC02E813F813227232732274D81E2
:101A30006C818B810E94F329C1C040E250E06FEFBE
:101A400070E0C8010E94FE3380914D048983EA82D0
:101A50001B821C821D8281E0D5C081E090E09093C2
:101A600052048093510482E390E09093DF028093CC
:101A7000DE020E9481279093DD028093DC029EC0EB
:101A8000EF2899F110915E0311FB882780F9182344
:101A90008091DC029091DD020E94662785369105D7
:101AA000F0F01123E1F00E9481279093DD028093F2
:101AB000DC028091DE029091DF0201979093DF02B9
:101AC0008093DE02892B89F4109252041092510403
:101AD00081E090E090934E0480934D0406C082E331
:101AE00090E09093DF028093DE0280914D04898321
:101AF000809151048A838091DE028B835FC01092B3
:101B00004E0410924D045AC040E250E06FEF70E076
:101B1000C8010E94FE3352C08B81833061F0843053
:101B200061F181114BC080E2D8011D928A95E9F7DD
:101B300088E08A8343C06C81CE0181962AE0FC0153
:101B400011922A95E9F7683060F4FAE06F9FB001CE
:101B500011246D5B7D4F4AE050E00E94083380E025
:101B600001C08FEF89838AE0FE01B196DE011296F3
:101B700001900D928A95E1F721C06C818AE0FE0107
:101B80003596DE01919601900D928A95E1F76830C5
:101B900070F41AE0619FB00111246D5B7D4F4AE043
:101BA00050E0CE0181960E945A3380E001C08FEF51
:101BB00089830E94792B02C08FEF8983CE01019621
:101BC0000E949A1D0C94320609BD19BD09B400FE8D
:101BD000FDCF8091D8008F7D8093D8008091E00068
:101BE00082608093E0008091E00081FDFCCF0E9444
:101BF00077200C94390686E290E00E9418331B820D
:101C00001C821D828E83DACF8E2D90E08B30910561
:101C100030F080910E018F5F80930E0192CAFC011B
:101C2000EC59FF4F0C94B93380911001882309F4CB
:101C30007EC240E060E080E00E94A13178C2109155
:101C40000E0189E0189F102D112409E0010F0B32BD
:101C500008F00AE260918503709186038091870302
:101C60000E946F32F62ED72EC82E101708F01DC115
:101C7000E12FF0E0DF01AB52BE4F8C9190910F014C
:101C8000982331F02C2D4F2D6D2DCF010E94A331C3
:101C90001F5FEBCF10910E0189E0189F102D1124CA
:101CA00009E0010F0B3208F00AE2D0908603F090B1
:101CB0008703C0908503B6018F2D0E946F32B62E28
:101CC000A72E982E609188036C0D7D2D8F2D0E947C
:101CD0006F32F62ED72EC82E101708F0E6C0812FCF
:101CE00090E0FC01EB52FE4F308120910F01232345
:101CF00059F030FF04C02C2D4F2D6D2D03C0292D20
:101D00004B2D6A2D0E94A3311F5FE6CFF0900E018C
:101D100089E0F89EF02C1124A9E0DA2EDF0C8AE28B
:101D20008D1510F4FAE2DF2E60918803669580919C
:101D30008003909181030E946532C82EFD1408F043
:101D4000F0C10F2D10E0F801EB52FE4F9081809111
:101D50000F018923B1F1F801EE0FFF1FEF57FE4F7E
:101D6000408150E044565109F801EE0FFF1FEF5A31
:101D7000FE4F21A930E020523109449FB001459F18
:101D8000700D700D1124229FC001239F900D900DA6
:101D90001124860F971F0E940B3290918603A3E0B7
:101DA0008A9FB0011124759567956C0D792F8091EC
:101DB00087030E946F32462F282F672FC8010E9489
:101DC000A331F394BBCFC12ED12CF601EB52FE4FC1
:101DD000908180910F01892319F1F601EE0FFF1F09
:101DE000EF5AFE4F21A930E020523109F601EE0FE3
:101DF000FF1FEF57FE4F408150E04456510960915C
:101E0000850370918603809187030B2D0E943C32DD
:101E10000E946F32462F282F672FC6010E94A331E0
:101E20001F5F7FC910910E0189E0189F102D1124AA
:101E300009E0010F0B3208F00AE2D0908603F0901F
:101E40008703C090850360918803669566956695C3
:101E500080918003909181030E9465320E94C63177
:101E6000805887FD8195880F682F2CE0629F612D37
:101E700011246C0D7D2D8F2D0E946F32F62ED72EE2
:101E8000C82E101790F4E12FF0E0DF01AB52BE4FE7
:101E90008C9190910F01982331F02C2D4F2D6D2DA9
:101EA000CF010E94A3311F5FECCF81E00A3208F41A
:101EB00041C93DC187EE91E302C084E390E30E94F3
:101EC000761838C900910E0189E0089F002D112471
:101ED00019E0712E700E10E3171510F4B0E37B2E8D
:101EE00080911001882361F040E060E080E00E9472
:101EF000A13180E3E2E7F2E0DF011D928A95E9F784
:101F000080910E01811115C0809170029091710233
:101F10000E94662721E08931910508F420E0209392
:101F20006F02499730F00E9481279093710280934D
:101F3000700210E0472C512CAAEA6A2E04151505F0
:101F40000CF058C0C80166E070E00E9486335B0167
:101F50006C01F3E0CC0CDD1CFA95E1F7F601EE58CC
:101F6000FD4FE60FF71FF080F601EF5AFE4FE60F28
:101F7000F71F80818F3F59F1882E912CF401EB528D
:101F8000FE4F908180910F01892309F13F2D25E5B6
:101F9000321B08F430E070918603262D4F2D240F5C
:101FA00008F42FEF4091870382E0289F200D112431
:101FB0002E5F249F212D1124662D631B822F0E94EA
:101FC0006F32462F282F672FC4010E94A3318091C2
:101FD0006F02882361F02F2D31E0231B08F420E0ED
:101FE000C6018E589D4FFC01EA0DFB1D20830F5F3B
:101FF0001F4FA4CF81E04FE2471508F09BC897C060
:10200000F0900E0189E0F89EF02C1124E9E0BE2E3C
:10201000BF0C8AE28B1510F47AE2B72E2091880368
:1020200031E0230F08F42FEF30E040E050E06FEF95
:102030007FEF80E090E00E949A338901AA24A39464
:10204000FB1408F041C0CF2CD12CF601EB52FE4F0F
:10205000908180910F018923A9F19091A202915062
:1020600097FD15C0292F092E000C330BF901EE55F1
:10207000FD4F8189F812F3CF220F331FF901EE557E
:10208000FD4F218D328D2017310748F701C098018F
:10209000609188034A2D640F08F46FEFC9010E9414
:1020A0006532AC016091850370918603809187034E
:1020B0000E94C0310E946F32462F282F672FC60121
:1020C0000E94A331F394BCCF81E099E29B1510F0FC
:1020D0000C949A082CC0F0900E0189E0F89EF02C28
:1020E000112459E0D52EDF0CAAE2AD1510F44AE216
:1020F000D42EFD14B0F40F2D10E0F801EE0FFF1FE9
:10210000E00FF11FE052FD4F6081718182810E94DA
:102110006F32462F282F672FC8010E94A331F394F6
:10212000E8CF81E0B9E2BD1510F00C949A0880E088
:102130000C949A088F929F92AF92BF92CF92DF92A7
:10214000EF92FF920F931F93CF93DF9300D000D0B5
:10215000CDB7DEB7FC018081918123813481232BAF
:1021600031F09F3F31F491E08F3F19F403C091E0CB
:1021700001C090E090FDE4C66F0161E0CF010E94D4
:10218000142D8C01F6018281882309F49AC09801EC
:1021900022513F452031310508F07BC08FEF93E09D
:1021A0000E94183381117FC03EEEF32EF00E03E93A
:1021B00012E0FF2071F00115F4E01F0709F473C06D
:1021C000C8010E941833811101C0FA940F5F1F4F9C
:1021D000F0CF19821A821B821C82AA24AA94780149
:1021E0002FEFE21AF20AC8010E94183389831A827B
:1021F000882309F458C0813009F046C0480182E0C4
:10220000880E911CC7010E9418338A83882309F421
:102210004AC09FEF980F933060F4780193E0E90E85
:10222000F11CC4010E9418338B8381112DC08701DA
:10223000D6CF843011F07401FACFC4010E94183354
:10224000B82E7801E4E0EE0EF11CC80103960E945E
:102250001833BB2041F1882331F1282F30E0215081
:102260003109A29EA001A39E500D11248B2D90E058
:102270000197840F951F0197D0F2EFE9FFE03197A6
:10228000F1F700C00000F7CFCE0101960E94B92CF3
:10229000CECF00319FE5190709F0AFC581E00E945C
:1022A00068200E946B188091F203877009F448C679
:1022B000F6018281882309F443C682E00E94162633
:1022C0003FC60031FFE51F0711F481E005C0013171
:1022D0002FE5120721F482E00E945C20E2CF90916A
:1022E0006403911105C090916703992309F4B7C065
:1022F00098013056211590E2390720F0305E211503
:10230000304140F4F6019581907F09F4A8C078012E
:10231000FF2401C07801970130542115354108F49C
:102320009EC090916703923021F5882369F08091D7
:10233000F503982F927219F06894F1F80FC086FF98
:102340000DC024E1F22A0AC0C70195558F3F9105BF
:1023500011F008F071C580E00E949D2581E0809316
:102360006703F0926603E09265038FEF80930C01A0
:102370009ACF882309F460C5913009F05FC080913D
:102380000C019CE2E916F104D9F4882329F00E949B
:10239000D42F10920C0187CF809165039091660332
:1023A00095558F3F910509F018F40E94922503C0BE
:1023B0008AE20E942122109267030E94FA2F4FC0E6
:1023C000EAE2EE16F10421F4815080930C0126C05C
:1023D00087FD34C081110BC0809165039091660325
:1023E00095558F3F910509F010F40E94D42F8091EC
:1023F0000C018F5F80930C01FDE2EF16F10471F088
:1024000040F484E0E81AF10894E2E916F10480F45B
:1024100005C0EDE2EE16E2E0FE0651F4F60182811F
:10242000882309F409C58091F503811114C0ECC417
:10243000F6018281882309F4FFC40DC09AE2E916EF
:10244000F10489F308F06DC5F4E0EF1AF10824E215
:10245000E216F10440F30E94FA2F1092670302384B
:10246000FFE51F0751F4F6018281882399F181E08D
:10247000809367038DE290E017C003382FE51207C1
:10248000D8F00338EFE51E0709F43AC50438FFE534
:102490001F0709F0E2C4F60182818823D9F081E0A8
:1024A000809367038DE292E09093660380936503C7
:1024B0008FEF80930C0141C500388FE5180709F4B0
:1024C00037C101389FE5190709F0C7C4F6018281B9
:1024D0008111A7C4F6019281992309F4B9C1109220
:1024E00055040230FCE51F0708F49CC106312CE5B9
:1024F000120738F098012A5F3C452930310508F071
:1025000091C10E940C2590933B0280933A020031C6
:102510008CE5180709F4C3C008F041C00830ECE5A9
:102520001E0709F49AC0F0F404302CE5120709F4F0
:1025300087C068F402309CE5190709F477C00330BE
:102540001C4509F0E5C080913A02826076C00630F1
:10255000FCE51F0709F46EC008F07BC080913A02C9
:1025600088606BC00C308CE5180709F485C068F4EE
:102570000A30ECE51E0709F474C008F079C00E9427
:10258000772080913A02806858C00E302CE51207FF
:1025900009F476C008F07FC080913A028BC00B3FEF
:1025A0009CE5190709F44FC018F50331FCE51F0736
:1025B00009F47DC078F401318CE5180709F473C083
:1025C00002311C4509F0A4C00E94772080913A0294
:1025D0008F7733C00531ECE51E0709F472C008F4AB
:1025E00086C00A3F1C4509F093C080913B023EC063
:1025F0000F3F8CE5180709F45FC058F40D3FECE578
:102600001E0709F444C008F43FC080913B02826079
:102610002DC001302DE5120709F475C008F45DC026
:1026200002301D4509F074C060E06EC080913A022E
:10263000816003C080913A02806180933A0268C051
:1026400080913A0211C080913B02826080933B02EC
:102650005FC080913A028062F0CF80913A0280643C
:10266000ECCF80913A0288608460E7CF8160EECF42
:1026700080913A028E7FE1CF80913A028D7FDDCF4B
:1026800080913A02877FD9CF80913B0218C0809118
:102690003B028D7FDBCF80913A028F7ECECF80913F
:1026A0003A028F7DCACF80913A028F7BC6CF80914C
:1026B0003A02877F8B7FC1CF80913B028D7F8E7FD7
:1026C000C5CF80913A0282FB222720F991E0922720
:1026D00090FB82F990FB83F9B0CF80913B02982F59
:1026E000909591708E7F892B90FB81F9AFCF0E94DE
:1026F000772080913A0287FB222720F991E09227E8
:1027000090FB87F99ACF61E08EE090E00E9436332B
:1027100060913A0210913B0284E090E00E943633CF
:10272000612F82E290E00E9436330E947720BBCD79
:10273000F6018281882309F4CDCE90EFA92E93E093
:10274000B92E2AE0922EF5018491882309F45AC00B
:10275000813009F04FC07501FFEFEF1AFF0AF70152
:102760008491813049F47501F2E0EF0EF11CF7011C
:1027700084910E94212241C0823049F47501F2E027
:10278000EF0EF11CF70184910E94852136C0833041
:1027900049F47501F2E0EF0EF11CF70184910E94FB
:1027A0002E212BC0843049F57501F2E0EF0EF11CAB
:1027B000F701249180E090E030E0205331092A3085
:1027C000310570F4989EA001999E500D1124C90105
:1027D000840F951FFFEFEF1AFF0AF7012491ECCF4A
:1027E000009759F0EFE9FFE03197F1F700C00000E2
:1027F0000197F6CF0E94532C75015701FFEFAF1AD6
:10280000BF0AA1CF8091F80381FD64CE0E94812789
:102810009093F7038093F6038091F803826080938E
:10282000F80358CE8091F5030631ECE51E0709F553
:102830008A7A91E009F490E090936803882311F07C
:1028400065E301C069E28DE993E00E94C3270EC0F1
:1028500006311C4509F08BC080916803882309F478
:102860005EC365E38DE993E00E94B6270E94B82518
:102870001ACD8272F801E25CFC45EB30F10508F0FC
:1028800043C0E159FF4F0C94B9338091840391E028
:102890008927809384031092120190930C0503CD35
:1028A0004CE851E366E971E32CC046E951E36CE87A
:1028B00071E327C04FE551E369E671E322C049E6C1
:1028C00051E36FE571E31DC045E451E362E571E357
:1028D00018C042E551E365E471E313C04BE251E3F4
:1028E00068E371E30EC048E351E36BE271E309C0B2
:1028F0004CE150E368E270E304C048E250E36CE16D
:1029000070E30E941231CFCC992389F10A35EDE5AD
:102910001E0741F150F401152CE51207A9F00E3DF8
:102920001C4529F50E942825BECC0B359DE51907CD
:10293000D9F00C351D45D9F480913B0282FB8827E4
:1029400080F991E0892711C00E947720FFEF24E3EE
:102950008CE0F15020408040E1F700C000000E9470
:102960001C27A1CC81E001C080E00E94F525F60182
:10297000868197810097B9F4F601828100811181E7
:10298000882349F0C8010E94CE1DF82E682FC80187
:102990000E942B2004C0C8010E94FB1FF82EB80122
:1029A0008F2D0E945D2B0E948323F82E192FF60194
:1029B000E280058102950F708091F203877099F093
:1029C000EE2089F0892F807F803421F080E28F0D06
:1029D000883048F082E00E9416268091F2038770CA
:1029E000BB24B3948111B12CA12EA2948FE0A82214
:1029F0008A2D90E08C30910508F0DBC1FC01E6588F
:102A0000FF4F0C94B933812F807F1F70882311F002
:102A10001295107FEE20B9F0112309F4ACC180E2C9
:102A20008F0D883010F0F11006C09091F503192B2E
:102A30001093F50305C09091F403192B1093F40340
:102A40000E94B82598C18F2D0E942E21112309F4D0
:102A5000B0C180E28F0D883010F0F11004C0812FDA
:102A60000E94B12506C010959091F403192310938C
:102A7000F4030E94B8259DC1812F807F1F70803292
:102A800011F01295107FFF2021F0F1E0FF1691F177
:102A90003BC0EE20D9F00023A9F0013031F4809141
:102AA000F803812B0E949D2584C1053059F40E94B2
:102AB00092258091EF0318131093EF03812F0E944A
:102AC000242177C18091F803812BF9CF002349F0AD
:102AD000013069F48091F503812309F46AC10E94F1
:102AE00049260E949225812F0E941D2162C1053036
:102AF000C1F75FC1EE2021F0063008F05AC1DECFE9
:102B0000053008F056C1EFCFEE2019F00023B1F2E6
:102B100032C1002341F329E3F21208C08FEF97EE90
:102B2000E3E081509040E040E1F73EC1FFE728E359
:102B300081E0F15020408040E1F736C1812F869539
:102B40008695837019F0813061F033C1EE2021F059
:102B50008F2D912F937002C080E090E00E94F327A8
:102B60002EC1EE2021F08F2D912F937002C080E0B6
:102B700090E00E94DD2723C1812F8370A9F5E11029
:102B80001CC14F2D429546954770440F440F8F2D21
:102B90008F7090E09C01042E01C0220F0A94EAF786
:102BA000F4FE08C08FE090E001C0880F4A95EAF774
:102BB000809501C080E0169516951370123069F06B
:102BC00088F49091FC03113019F0822B892302C004
:102BD000922B892B0E947320F0C0822B9091FC03D2
:102BE0008927F8CF822BF6CFEE2019F0812F817044
:102BF00001C08695882309F4E0C04F2D4295469583
:102C00004770440F440F8F2D8F7090E09C01042E6D
:102C100001C0220F0A94EAF7F4FE08C08FE090E0AA
:102C200001C0880F4A95EAF7809501C080E01695AB
:102C300016951370123059F078F490918A03113080
:102C400019F0822B892309C0922B892B06C0822B75
:102C500090918A03892701C0822B0E945820ADC021
:102C60001F70EE2039F0812F0E9468208F2D0E9466
:102C70002421A3C08F2D0E941D21812F0E945C2042
:102C80009CC092EFF91659F19F1538F0E0EFFE164F
:102C900059F0F1EFFF16E1F069C023EFF21631F1C0
:102CA00084EFF81681F162C0EE2071F0053008F073
:102CB00080C01F7181E090E001C0880F1A95EAF78B
:102CC00090918A0389271CC0063008F072C0F1CFAA
:102CD000EE2039F0812F8F710E9468206AC0EE20AB
:102CE000C9F3812F8F710E945C2063C0EE2039F000
:102CF0001F7181E001C0880F1A95EAF701C080E0DA
:102D00000E94582056C0EE20D1F08091EF030E941F
:102D1000B1258091F2038770843039F40E940F2628
:102D2000812F8F710E945C2066C0053008F063C05F
:102D30001F71812F0E94682063E0812F10C0909145
:102D4000F5038091EF03892B8093F503053050F054
:102D50000E940F260E94492664E0812F8F710E94F5
:102D6000332649C081E00E94162645C0EE2039F086
:102D7000002309F4AFCF8F2D0E9485211AC00023B4
:102D800009F4AFCF99E3F91208C0EFEFF7EE23E0B3
:102D9000E150F0402040E1F707C08FE798E3E1E021
:102DA00081509040E040E1F700C000008F2D0E946C
:102DB0002E2188EF8A0D843010F40E940928BB2050
:102DC000A9F08091F20380FD11C0F6011282859571
:102DD000859585950E946820C6010E949A10809171
:102DE000F2038595859585950E945C2060E0C6017B
:102DF0000E94142DA5C0B12CE0CF0131EFE51E07D4
:102E000009F06DCA82E04BCA0238FFE51F0709F4DA
:102E10002ACB08F036CB00388FE5180709F051CBE4
:102E20008CCC81E0809364030E94092881FD52CB01
:102E300089E30E9421224ECB02382FE5120709F4C4
:102E400012CB08F059C000389FE5190709F442CBAE
:102E50000138EFE51E0709F439CB033F2CE51207D3
:102E6000A1F406E221EE40EE63EF7CE50AC0073DE7
:102E7000FCE51F0709F02ECB06E221EE41EE67EDDF
:102E80007CE5C6010E9470290ECA043F8CE5180734
:102E9000A0F4083D9CE5190731F407E225EE45EE64
:102EA00068ED7CE5EECF093DECE51E0701F708E291
:102EB00021E045EE69ED7CE5E4CF053F2CE5120706
:102EC00031F406E221EE42EE65EF7CE5DACF053F14
:102ED0008CE5180730F407E225EE44EE64EF7CE55C
:102EE000D0CF063F9CE5190709F0F4CA07E225EEAA
:102EF00046EE66EF7CE5C5CF0338FFE51F0749F4D2
:102F0000F6018281882309F4E5CA82E08093670391
:102F100014C004382FE5120709F4BDCA9ECF69E238
:102F2000A1CC8DE2E816F10409F47DCA9DE2E91610
:102F300092E0F90609F08FCA76CAF6019281CFCAEB
:102F40000F900F900F900F90DF91CF911F910F91E5
:102F5000FF90EF90DF90CF90BF90AF909F908F90B9
:102F600008958091770387FF11C08091E80082FD6A
:102F700005C080917F038111F8CF11C08091E800D6
:102F80008B770BC080917F03882349F08091E80004
:102F900080FFF8CF8091E8008E778093E800089555
:102FA000982F973068F59093E900981739F0709151
:102FB000EC002091ED005091F00003C0242F762FFB
:102FC00050E021FD02C09F5FECCF3091EB003E7FCF
:102FD0003093EB003091ED003D7F3093ED00309168
:102FE000EB0031603093EB007093EC002093ED0028
:102FF0005093F0002091EE0027FDE5CF80E008958A
:103000008F708093E90081E0089520917D033091D5
:103010007E032617370748F06115710539F42091B2
:10302000E8002E772093E80001C0B901FC0120E000
:103030006115710579F180917F038823F1F1853065
:10304000F1F18091E80083FD3CC08091E80082FDB1
:103050002EC08091E80080FFEBCF2091F30080919B
:10306000F20090E0922B6115710551F088309105C6
:1030700038F421912093F100615071090196F3CF4A
:1030800021E0089709F020E08091E8008E77809396
:10309000E800CECF2111CFCF0AC080917F038823D3
:1030A00061F0853061F08091E80083FD0AC0809175
:1030B000E80082FFF2CF80E0089582E0089583E087
:1030C000089581E00895BC0184E00C94F226BC01CF
:1030D00083E00C94F22680918A03982F96709630A4
:1030E00011F4886001C0877F0C945820DF92EF9222
:1030F000FF920F931F93CF93DF938C01C0910E012A
:1031000089E0C89FC02D1124D9E0DC0FDB3208F024
:10311000DAE2609188036695669521E0620F08F413
:103120006FEF80918003909181030E946532D82EC9
:10313000CD17F0F4EC2EF12CF701EB52FE4F9081FD
:1031400080910F01892391F060918503709186032E
:10315000809187032D2D4C2FF80109950E946F3225
:10316000462F282F672FC7010E94A331CF5FE0CFE2
:1031700081E0DA3208F080E0DF91CF911F910F916A
:10318000FF90EF90DF9008951F93CF93DF93CDB71B
:10319000DEB7AA970FB6F894DEBF0FBECDBFE7E744
:1031A000F3E08091F100819343E0EF37F407C9F732
:1031B00080917803833009F462C030F4813071F07B
:1031C000823009F49CC0B3C08A3009F488C08B30C7
:1031D00009F46DC0893009F0AAC020C0809177033E
:1031E000813A09F0A4C08091E800877F8093E800CD
:1031F00080917B0390917C03892B21F468E08CE61D
:1032000093E003C060E080E090E070E00E94051869
:103210008091E8008B778093E80089C080917703E4
:10322000813209F084C080917B0390917C030097E8
:1032300019F0029709F07BC08091E800877F8093A6
:10324000E8008091E80082FD05C080917F03811134
:10325000F8CF6DC02091F3008091F20090E0922BA6
:10326000029729F48091F1008B7F813021F48091C5
:10327000F10080936B038091E8008B7754C08091BC
:103280007703813A09F053C080917B0390917C03CE
:10329000892B09F04CC08091E800877F8093E8007B
:1032A0008091E80080FFFCCF80910D0137C08091B4
:1032B00077038132E1F580917B0390917C03892B28
:1032C000B1F58091E800877F8093E8000E94B117F4
:1032D0008091790380930D010E94772028C080910E
:1032E0007703813221F58091E800877F8093E800A1
:1032F0000E94B11780917A0380936A0318C080916D
:103300007703813AA1F48091E800877F8093E800F9
:103310008091E80080FFFCCF80916A038093F100E8
:103320008091E8008E778093E8000E94B117809129
:10333000E80083FFE9C18091770390917803492FDA
:1033400050E04A30510508F0DFC1FA01EA57FF4F5B
:103350000C94B933803821F0823809F0D5C108C007
:103360008091740390917503992389F082600FC056
:1033700080917B038F70873008F0C6C18093E9008D
:103380008091EB0085FB882780F91092E9009091ED
:10339000E800977F9093E8008093F1001092F1008D
:1033A0007CC1282F2D7F09F0AFC1882319F082300E
:1033B00061F0AAC180917903813009F0A5C19330F1
:1033C00009F080E0809375032EC08091790381110C
:1033D0002AC080917B038F702FEF280F263008F0D2
:1033E00093C18093E9002091EB0020FF1CC0933033
:1033F00021F48091EB00806214C09091EB00906109
:103400009093EB0021E030E0A90102C0440F551F6A
:103410008A95E2F74093EA001092EA008091EB006F
:1034200088608093EB001092E9008091E800877F2C
:103430008093E8000E94B11767C1811165C11091A6
:1034400079031F778091E3008078812B8093E300DC
:103450008091E800877F8093E8000E94B1178091F7
:10346000E80080FFFCCF8091E30080688093E30058
:10347000111102C082E001C083E080937F0344C148
:103480008058823008F040C12091790330917A034E
:103490002C3D53E0350779F583E08A838AE28983FE
:1034A0004FB7F894DE01139620E03EE051E2E32F9F
:1034B000F0E050935700E49120FF03C0E295EF70D5
:1034C0003F5FEF708E2F90E0EA3010F0C79601C09A
:1034D000C0968D939D932F5F243149F74FBF809104
:1034E000E800877F8093E8006AE270E0CE010196F1
:1034F0000E940518C0C080917B0390917C03432FEC
:10350000552743305105B1F068F44130510509F4B5
:103510000AC14230510509F0F7C08BE590E0E7E8B9
:10352000F4E057C04132510589F14232510509F4A6
:103530003CC0EAC0C901992781309105B9F070F00B
:1035400082309105D9F0039709F0DEC0E4EFF4E092
:10355000E4918E2F90E0E4EFF4E038C0E2E6F5E08D
:10356000E4918E2F90E0E2E6F5E030C0E6E4F5E08D
:10357000E4918E2F90E0E6E4F5E028C0E2E1F5E08A
:10358000E4918E2F90E0E2E1F5E020C083309105D8
:1035900008F0BAC0880F991FFC01E55BFE4F01904F
:1035A000F081E02D89E090E014C08330910508F0AF
:1035B000ABC0FC01EE0FFF1FEB5BFE4F0190F081F3
:1035C000E02DDC01AE5BBE4F8C9190E0009709F4DA
:1035D0009BC02091E800277F2093E80020917D0385
:1035E00030917E032817390708F4C90140E000979D
:1035F00089F120917F03222309F43DC02530D9F1C0
:103600002091E80023FD37C02091E80022FD2FC063
:103610002091E80020FFEBCF4091F3002091F200D1
:1036200030E0342B009759F02830310540F44491B4
:103630004093F100319601972F5F3F4FF3CF41E068
:103640002830310509F040E02091E8002E772093E2
:10365000E800CDCF4111CDCF0AC080917F038823F0
:1036600051F0853041F08091E80083FD04C08091E5
:10367000E80082FFF2CF8091E8008B778093E8002A
:1036800043C0803809F040C08091E800877F809374
:10369000E800809176038093F1008091E8008E77B6
:1036A000C7CE811131C08091790390917A03992717
:1036B000029754F58091E800877F8093E80010918D
:1036C0007903109376030E94B117111106C08091FF
:1036D000E30087FD02C081E001C084E080937F03A6
:1036E00042E061EC81E00E94D01742E261EC84E0AC
:1036F0000E94D01742E261EC82E00E94D01742E2C1
:1037000060EC83E00E94D0178091E80083FF10C036
:103710008091E800877F8093E8008091EB008062D1
:103720008093EB0005C082E190E0E2EEF4E051CF3F
:10373000AA960FB6F894DEBF0FBECDBFDF91CF9132
:103740001F9108951F920F920FB60F9211242F937D
:103750003F934F935F936F937F938F939F93AF9319
:10376000BF93CF93DF93EF93FF93C091E900CF70A6
:103770008091EC00D82FD17080FDD0E81092E90044
:103780008091F000877F8093F00078940E94C418A5
:103790001092E9008091F00088608093F000CD2BBA
:1037A000CF70C093E900FF91EF91DF91CF91BF916E
:1037B000AF919F918F917F916F915F914F913F91C9
:1037C0002F910F900FBE0F901F901895E8EDF0E02D
:1037D00080818E7F80831092E2001092DA00109236
:1037E000E100A0EEB0E08C9181608C9380818F77B6
:1037F000808319BCA7EDB0E08C918E7F8C93808183
:103800008F7E8083109269030895CF92DF92EF92AA
:10381000FF920F931F93CF93DF93C8EDD0E0888181
:103820008F7E8883E7EDF0E080818160808384E093
:1038300082BF81E08093690388818E7F888302EE56
:1038400010E0F80110821092DA0081EEC82ED12C1F
:10385000F601108288818F778883888180688883C9
:1038600088818F7D888319BC10927F031092760324
:10387000109275031092740390EEE92EF12CF7016B
:1038800080818B7F808388818160888342E060E0D3
:1038900080E00E94D017F60180818E7F8083F8013E
:1038A000808181608083808188608083F70180814E
:1038B0008E7F8083888180618883DF91CF911F9183
:1038C0000F91FF90EF90DF90CF9008951F920F928D
:1038D0000FB60F9211242F933F934F935F936F93E3
:1038E0007F938F939F93AF93BF93EF93FF938091B9
:1038F000E10082FF09C08091E20082FF05C0809153
:10390000E1008B7F8093E1008091DA0080FF2AC084
:103910008091D80080FF26C08091DA008E7F80934E
:10392000DA008091D90080FF18C080E189BD82E172
:1039300089BD09B400FEFDCF81E080937F038091B3
:10394000690381110FC00E94E61B0E94051C809133
:10395000E20084608093E20005C019BC10927F03EE
:10396000109269038091E10080FF17C08091E2000E
:1039700080FF13C08091E2008E7F8093E2008091EF
:10398000E20080618093E2008091D80080628093A1
:10399000D80019BC85E080937F038091E10084FF0B
:1039A0002EC08091E20084FF2AC080E189BD82E1BF
:1039B00089BD09B400FEFDCF8091D8008F7D809332
:1039C000D8008091E1008F7E8093E1008091E20039
:1039D0008F7E8093E2008091E20081608093E2001C
:1039E00080917603882311F084E007C08091E30082
:1039F00087FD02C081E001C083E080937F03809156
:103A0000E10083FF27C08091E20083FF23C0809103
:103A1000E100877F8093E10082E080937F03109232
:103A200076038091E1008E7F8093E1008091E20037
:103A30008E7F8093E2008091E20080618093E200BB
:103A400042E060E080E00E94D0178091F000886042
:103A50008093F000FF91EF91BF91AF919F918F9173
:103A60007F916F915F914F913F912F910F900FBE7A
:103A70000F901F9018952091E4003091E50095E695
:103A80004091EC00842F817040FF23C08091E800BA
:103A900080FD1DC080917F03882399F0853099F0C7
:103AA0008091EB0085FD11C04091E4005091E5004C
:103AB0002417350729F3915011F09A01E1CF84E0E2
:103AC000089582E0089583E0089581E0089580E0FC
:103AD00008954091E80042FFDDCF0895EF92FF92F4
:103AE0000F931F93CF93DF937C018B010E943B1DAB
:103AF000811119C0E70101151105A1F08091E800BD
:103B000085FD0AC08091E8008E778093E8000E94CE
:103B10003B1D882381F307C089918093F1000150F8
:103B20001109E9CF80E0DF91CF911F910F91FF90B4
:103B3000EF900895CF9320917F032430F9F4C09142
:103B4000E900CF703091EC00232F217030FD20E888
:103B5000C22B22E02093E9002091E80020FF0BC057
:103B600040E050E060E270E00E946E1D8091E8004D
:103B70008E778093E800CF70C093E900CF910895CD
:103B800080E090E00E94F32780E090E00E94DD2733
:103B90001092F4031092F3030C94B825CF92DF92A5
:103BA000FF920F931F93CF93DF936C0100918A03D1
:103BB0008091FC03082BC7E0D0E010E0C8010C2E78
:103BC00002C0959587950A94E2F780FD04C021977D
:103BD000A8F7F12C09C0FC2EB6018C2F0E945D2B9A
:103BE0000E948323019799F38F2DDF91CF911F912D
:103BF0000F91FF90DF90CF900895CF93DF93EC016A
:103C00000E94CE1DBE010E945D2B0E948323DF9186
:103C1000CF910895FC0186819781009719F00E9449
:103C2000832304C0808191810E94FD1D292F2F7064
:103C3000E92FE295EF704E2F50E0FA013297EE3007
:103C4000F105B8F4E057FF4F0C94B933803F99F079
:103C500018F4883E70F40FC0843F59F40CC0883EBD
:103C600050F0813F31F407C0822F86958695869566
:103C7000089580E0089581E008959F92AF92BF92E9
:103C8000CF92DF92EF92FF920F931F93CF93DF9328
:103C9000CDB7DEB765970FB6F894DEBF0FBECDBFC8
:103CA0008C0185E0F801DE01519601900D928A9514
:103CB000E1F7F801E2809091A5036091A60340919D
:103CC000A8035091A9034115510531F06F3F31F41C
:103CD00081E09F3F19F403C081E001C080E0F82F2C
:103CE000F1709F2E80FD37C1F80130812181C380A2
:103CF000D48075EAA72E73E0B72EF090A703F601E3
:103D0000E41BF50BFF2009F4F5C08091AA03E83C01
:103D1000F10508F0B0C0482F407F09F05AC0621387
:103D20001BC0931319C06091AB037091AC03F801F1
:103D3000468157816417750779F4FE2CE1100CC099
:103D40008F7080618093AA03C5010E949A108091B0
:103D5000AA03F80185833CC1CD2831F02F3F31F40F
:103D600081E03F3F19F403C081E001C080E080FDA5
:103D700003C081E08E2502C080E090E0F82FF17052
:103D8000FF2E80FF1CC08091EE034091AD0384178D
:103D900009F4FCC090E0FC0153E0EE0FFF1F5A95C0
:103DA000E1F7E255FC4F5181251306C050815313B2
:103DB00003C05281E51203C001968770E8CFFE2C44
:103DC000EE2009F405C18091AA0381608093AA03C3
:103DD0005EC0621315C0931313C04091AB035091A2
:103DE000AC03F801268137814217530749F4E110EB
:103DF00007C08583C8010E949A1088E0F80190C02E
:103E0000C8010E940A1E882381F1EE2071F12091E1
:103E1000AA03822F82958F7090E00297A4F0809180
:103E2000A5039091A6039A8789871B86DD86CC8699
:103E30002E878091AB039091AC03988B8F87CE0136
:103E400009960E949A1088E0F801A5EAB3E0019073
:103E50000D928A95E1F70E9459260AC06217C9F0AF
:103E6000C8010E940A1E811127C0C8010E949A1031
:103E7000FF24F394ADC0482F407F81F785EA93E09B
:103E80000E949A1088E0F50111928A95E9F7F12CC9
:103E90009FC09313E5CF4091AB035091AC03F80161
:103EA0002681378142175307D9F6E110D9CF858390
:103EB000C8010E949A1049C0EE20B9F22091AA03CD
:103EC000822F82958F7090E002970CF4BCCF809186
:103ED000A5039091A6039A8389831B82DD82CC82FD
:103EE0002E838091AB039091AC0398878F83CE0192
:103EF0000196A7CFE83CF10540F5FE2CEE2009F431
:103F0000B4CF621314C0931312C02091AB0330914D
:103F1000AC03F801868197812817390741F488E0BE
:103F2000A5EAB3E001900D928A95E1F751C0C8016E
:103F30000E940A1E811187CF8091AA03816080931D
:103F4000AA03C8010E949A1043C088E0F5011192AB
:103F50008A95E9F73DC0EE2009F487CFC8010E9499
:103F60000A1EF82E882309F480CF88E0F801A5EA1C
:103F7000B3E001900D928A95E1F78091A5039091AD
:103F8000A6030E94FD1D0E94592622C0398B2A8B50
:103F900089899A890E94FD1D292F22952F70223030
:103FA00028F49F7039F0811105C00BC0243028F42B
:103FB0009F7049F4805E883020F0C8010E949A10FA
:103FC0009F2CF92C05C0F8019581907F99F7F9CFC6
:103FD0008F2D65960FB6F894DEBF0FBECDBFDF9173
:103FE000CF911F910F91FF90EF90DF90CF90BF90F6
:103FF000AF909F9008959E3F61F128E0929F800DC1
:104000001124682F669566956695982F977083E0C2
:10401000689FB001112440E050E080E0FB01E40F14
:10402000F51FE557FC4F208130E0092E02C0369580
:1040300027950A94E2F721703327042E01C0220F3E
:104040000A94EAF7822B4F5F5F4F4330510531F7F7
:10405000089580E008959E3F51F128E0929F800DE1
:104060001124E82FE695E695E695877051E001C0AA
:10407000550F8A95EAF783E0E89FF0011124E55790
:10408000FC4F20E030E070E04081CB01022E02C006
:10409000969587950A94E2F7817081958427852308
:1040A000842781932F5F3F4F2330310569F70895AF
:1040B00080938A030C94C01D21E030E001C0220FE0
:1040C0008A95EAF7209580918A0382230C945820E0
:1040D00021E030E001C0220F8A95EAF780918A033F
:1040E000822B0C9458208093FC030C94C01D1092DA
:1040F000F50386E0EFE9F3E0DF011D928A95E9F729
:104100000C94C01DCF93DF93CDB7DEB760970FB689
:10411000F894DEBF0FBECDBF29873A874B875C87F7
:104120006D877E878F87988BCE0109960E943D1EF2
:10413000811151C088E0FE013996DE01119601908F
:104140000D928A95E1F779856A854C855D854115E3
:10415000510531F06F3F31F481E07F3F19F403C026
:1041600081E001C080E080FD36C0A091AD03B0E0E9
:10417000CD010196877099272091EE0330E08217D8
:10418000930781F179836A835D834C8393E0AA0F5F
:10419000BB1F9A95E1F7A255BC4F98E0FE013196FE
:1041A00001900D929A95E1F78093AD030E944F26FE
:1041B00012C028E0829FC001112482559C4F0E94AA
:1041C0003D1E8823E1F08091EE0390E00196877018
:1041D00099278093EE038091EE039091AD038913AC
:1041E000E8CF0DC00E9477201092AD031092EE032D
:1041F000E5EAF3E088E0DF011D928A95E9F7609631
:104200000FB6F894DEBF0FBECDBFDF91CF910895FA
:10421000882341F080959091F40389238093F403DF
:104220000C94B8250895882339F09091F403892BD4
:104230008093F4030C94B8250895882321F00E94FC
:10424000B1250C94B8250895882339F09091F50391
:10425000892B8093F5030C94B8250895882309F4DD
:1042600053C0682F823869F40E94092881FF4CC02E
:1042700069E38DE993E00E94C3270E94B82569E3B2
:104280000EC0833891F40E94092880FF3DC063E589
:104290008DE993E00E94C3270E94B82563E58DE96C
:1042A00093E00E94B6270C94B825843869F40E94E4
:1042B000092882FF29C067E48DE993E00E94C327A3
:1042C0000E94B82567E4EBCF8CEF860F813A38F374
:1042D00080E2860F883048F4677081E001C0880F63
:1042E0006A95EAF70E94B125DECF8BE5860F833011
:1042F00020F480E090E00C94F327685A673120F4B2
:1043000080E090E00C94DD270895CF93882309F492
:1043100096C0C82F8238B1F40E94092881FD8FC051
:1043200069E38DE993E00E94C3270E94B8252FEF2F
:1043300081EE94E0215080409040E1F700C0000001
:1043400069E317C08338E1F40E94092880FD77C033
:1043500063E58DE993E00E94C3270E94B8252FEF03
:1043600081EE94E0215080409040E1F700C00000D1
:1043700063E58DE993E00E94B627CF910C94B825B0
:104380008438B1F40E94092882FD59C067E48DE9A0
:1043900093E00E94C3270E94B8252FEF81EE94E09E
:1043A000215080409040E1F700C0000067E4E1CF79
:1043B0008CEF8C0F813A80F4EFE9F3E085EA93E02B
:1043C0002191C217A1F18E179F07D1F76C2F8DE9AC
:1043D00093E00E94C327D1CF80E28C0F883068F42D
:1043E000C77081E090E001C0880FCA95EAF790910C
:1043F000F503892B8093F503C0CFEBE5EC0FE33099
:1044000040F4F0E0E150FE4F808190E0CF910C94B9
:10441000F327C85AC73198F4EC2FF0E0EE0FFF1FD6
:10442000EE5FFD4F80819181CF910C94DD276C2F41
:104430008DE993E00E94B6270E94B825C7CFCF919F
:1044400008951F93CF93DF93182F893319F0C9E193
:10445000D0E002C0C0E5D0E0812F0E9485218FE925
:104460009FE00197F1F700C000002197C1F7812F6D
:10447000DF91CF911F910C942E2180E008959091AF
:104480003A0292FF0DC0282F2871283019F4877F37
:10449000846006C0282F2471243011F48B7F88603B
:1044A00093FF0DC0282F2871283119F4877E84616D
:1044B00006C0282F2471243111F48B7E886120914D
:1044C0003B0220FF0DC0382F3871383019F4877F38
:1044D000816006C0382F3171313011F48E7F8860D1
:1044E00021FF0DC0282F2871283119F4877E8161A2
:1044F00006C0282F2171213111F48E7E886194FD30
:10450000877E0895F894E82FE295EF70F0E031A1EE
:10451000282F2F7081E090E001C0880F2A95EAF7DC
:10452000982F9095932391A392A1892B82A378949D
:1045300008959F92AF92BF92CF92DF92EF92FF9237
:104540000F931F93CF93DF9300D000D000D0CDB74F
:10455000DEB7AE014F5F5F4F7A0186E0FA0111923C
:104560008A95E9F70EE111E05A01CC24C394D12CCD
:10457000F80180818F3F09F447C0F894E82FE29555
:10458000EF70F0E021A18F70A60102C0440F551F0B
:104590008A95E2F7CA01922F982B91A392A1809558
:1045A000892382A3789400C0E4E2F1E020E030E0C7
:1045B000912C41914F3FB1F0A42FA295AF70B0E084
:1045C00090968C9190E04F7002C0959587954A9592
:1045D000E2F780FD07C08C2D022E01C0880F0A94DF
:1045E000EAF701C080E0982A2F5F3F4F283031055D
:1045F00001F7F80180818F3F11F00E948222F0EADA
:10460000FA95F1F7F50190820F5F1F4FFFEFAF1A98
:10461000BF0A41E00432140709F0AACF46E050E097
:10462000B7018CE392E00E94E83311E0009709F4AF
:1046300010E0892B89F086E0F701ACE3B2E001904D
:104640000D928A95E1F781E08093FB030E94812718
:104650009093FA038093F9038091FB038823A1F0E0
:104660008091F9039091FA030E946627059760F004
:10467000ECE3F2E0AEE5B3E081918D9352E0E234F9
:10468000F507D1F71092FB0380911101882341F1C6
:104690008091FC049091FD04009711F10E9466271F
:1046A000209156043091570428173907C8F4909187
:1046B000FA048091FB04981759F00E94C1281092C7
:1046C0005704109256041092FD041092FC0408C086
:1046D0000E9443281092FD041092FC040E94A2281C
:1046E000812F26960FB6F894DEBF0FBECDBFDF91A7
:1046F000CF911F910F91FF90EF90DF90CF90BF90DF
:10470000AF909F900895CF93DF938238910569F120
:10471000B0F48133910509F46FC048F489329105F2
:1047200009F465C08A32910509F46BC08AC08533EB
:10473000910509F457C089339105B9F082C0833ED1
:10474000910571F138F4803E9105B1F0823E9105FA
:1047500011F177C0863E9105B9F1873E9105C9F107
:10476000843E910509F06DC024C020913A0220FDDD
:1047700053C021FD51C065C080913A0280FD46C002
:1047800080913B0280FF48C080913A0284FD3FC186
:1047900083EE90E03EC180913A0282FF3AC0F4CFAE
:1047A00080913A0282FD35C080913B0280FD34C089
:1047B000EBCF80913B0281FF35C080913A0284FDAE
:1047C00026C187EE90E025C180913A0283FF27C081
:1047D000F4CF80913A0283FD22C080913B0281FD9B
:1047E00021C0EBCF80913A0285FD1FC021C080918E
:1047F0003A0285FD1DC019C080913A0286FD1BC09A
:104800001DC080913A0286FD19C015C089E390E071
:1048100000C182EE90E0FDC080EE90E0FAC086EE2E
:1048200090E0F7C084EE90E0F4C089E290E0F1C03F
:1048300085E390E0EEC08AE290E0EBC081E390E097
:10484000E8C0811532E5930708F069C0811541E59C
:10485000940728F0982F8827816F906ADAC0883EE5
:10486000910568F5803E910508F0D3C0883A91051E
:10487000B8F4853A910548F0855AE82FF0E0E15008
:10488000FE4F808190E09064C4C08130910509F4AE
:10489000BBC008F4BCC08430910508F4B8C0B9C0EE
:1048A0008F3B910508F0B3C0885AE82FF0E0EE0F77
:1048B000FF1FEE5FFD4F808191819464AAC0811536
:1048C00020E59207F0F09C0174E0369527957A95E3
:1048D000E1F7922F9370482F437021E030E002C03F
:1048E000220F331F4A95E2F73C68392B8F70982FBF
:1048F0009695969540E2949FC0011124822B932BAC
:1049000088C0811530E4930718F09F70906A81C0C9
:104910009C013A9521153F4108F47BC078C0EC0119
:10492000C11586E5D807E8F5C11525E5D20748F099
:104930008C2F0E943F228F7190E0982F88279062E1
:1049400068C0C11534E5D30728F09C2F8827846FF1
:10495000906A5FC0AE01437055272C2F269526958F
:10496000C115D34578F481E090E002C0880F991F0B
:104970004A95E2F740E2249F90011124822B932B69
:104980009C6847C081E090E002C0880F991F4A955B
:10499000E2F740E2249F90011124822B932B9A6826
:1049A00038C0C1152AE5D207F8F4C11539E5D30797
:1049B00090F08C2F8F700E943F2294E0D695C7957F
:1049C0009A95E1F7CF70D0E0DC2FCC27D0699E011B
:1049D000282BC9011EC0C11548E5D407C0F09C2F83
:1049E0008827806F906A15C0CE019056811590423D
:1049F00070F48D2F8F710E943F22282F2F71CE01CE
:104A000099279062922B05C081E090E002C080E07F
:104A100090E0DF91CF910895CF9384E090E00E94E1
:104A20001833C82F82E290E00E9418332C2F30E018
:104A3000A901582BCA01CF91089580E090E00E940F
:104A400020338A3E9E4F11F40C94F93080E0089593
:104A50006AEE7EEF80E090E00E94543360E082E0F6
:104A600090E00E94363360E083E090E00E943633AD
:104A70001092FC0360E084E090E00E94363360E036
:104A800082E290E00E94363360E085E090E00E9490
:104A9000363360E086E090E00E9436336FEF87E0C7
:104AA00090E00E94363340E050E0BA0188E090E0A8
:104AB0000E94483360E08DE090E00E94363340E091
:104AC00050E0BA0188E190E00E94483360E087E15D
:104AD00090E00E94363340E050E0BA018CE190E073
:104AE0000E94483360E070E080E290E00E9454331E
:104AF00040E050E0BA0188E190E00E94483380E055
:104B00000E94CC300E94EA3040E050E0BA018FE0D1
:104B100090E00E94483340E050E0BA0183E190E029
:104B20000C9448338091F803882331F01092F803F5
:104B30001092F7031092F6030895CF9390913B02E1
:104B400092FD0DC09091F803981749F0C82F0E946C
:104B500081279093F7038093F603C093F803CF91D6
:104B6000089580959091F50389238093F503089526
:104B70009091F5038091F403892B9091F303892B95
:104B800080939D038091F803882311F10E9481276F
:104B90002091F6033091F703821B930B88389341E1
:104BA00010F00E94922590919D038091F803892B2B
:104BB00080939D03EFE9F3E097E080E0915029F0C6
:104BC00021912223D9F38F5FF9CF81110E94922581
:104BD000E0910005F0910105309731F00280F381FA
:104BE000E02D8DE993E009940895CF93C0913B02A5
:104BF000C2FB992790F9981781F080FBC2F9C09306
:104C00003B0260913A0284E090E00E9436336C2FC0
:104C100082E290E0CF910C943633CF9108951092B8
:104C2000F2031092F1031092F00308952091F20321
:104C3000809582238093F203982F977041F430E09F
:104C4000482F082E000C550B2417350721F490919E
:104C50003B0292FF07C08595859585950E945C2053
:104C60000C940F26089590913B0292FD10C098E09D
:104C7000899F90011124262B2093F2030E94682023
:104C80000E9481279093F1038093F00308950C9480
:104C900068208091EF0381111092EF0308958091B5
:104CA000EE039091AD03891719F08F5F8770FBCFEA
:104CB00008951F93CF93DF938091AA0382958F70FD
:104CC00009F05CC08091A703882309F457C0809144
:104CD000EE031091AD036091A5037091A603C091FE
:104CE000A803D091A90391E06F3F09F090E0292F2C
:104CF000811709F443C0209721F07F3F21F030E075
:104D000003C031E001C0322F90E030FD34C0FC011F
:104D100033E0EE0FFF1F3A95E1F7DF01A255BC4FDC
:104D200011963C911197371326C03C91361323C03E
:104D300012963C91129731111EC013964D915C91C1
:104D400014974C1B5D0B483C5105A8F48091AA03B5
:104D50008F7080618093AA03ED54FC4F80818F7027
:104D60008061808385EA93E00E949A10DF91CF9161
:104D70001F910C944F2601968770BACFDF91CF9187
:104D80001F910895089580916B030895CF93DF9349
:104D900021E02093E9002FEF3091E800215035FD0C
:104DA00006C035ED3A95F1F700002111F5CF2091BD
:104DB000E80025FF14C0EC0140E050E068E070E03E
:104DC0000E946E1D8091E8008E778093E80088E055
:104DD000FE01ACE6B3E001900D928A95E1F7DF9118
:104DE000CF91089590917F03943029F58093090520
:104DF00070930B0560930A059093E9008FEF9091F3
:104E0000E800815095FD06C095ED9A95F1F70000F8
:104E10008111F5CF8091E80085FF0DC040E050E0A2
:104E200063E070E089E095E00E946E1D8091E800EB
:104E30008E778093E800089581E08093E00080E21F
:104E40008093D8001092C9008FE19EE40197F1F79A
:104E500000C0000087E090EBDC0180938B0590930D
:104E60008C05A0938D05B0938E059CE088E10FB66C
:104E7000F894A895809360000FBE90936000FFCFD8
:104E800078941F920F920FB60F9211248F939F93D5
:104E9000AF93BF938091050590910605A0910705FA
:104EA000B09108050196A11DB11D80930505909351
:104EB0000605A0930705B0930805BF91AF919F9198
:104EC0008F910F900FBE0F901F9018959C014FB7B8
:104ED000F8948091050590910605A0910705B09181
:104EE00008054FBF821B930B08952FB7F89460916C
:104EF00005057091060580910705909108052FBF63
:104F000008952FB7F8948091050590910605A0911A
:104F10000705B09108052FBF08951F920F920FB695
:104F20000F9211248F939F93AF93BF9380910405A9
:104F3000811113C08091050590910605A091070588
:104F4000B09108054196A11DB11D80930505909370
:104F50000605A0930705B0930805BF91AF919F91F7
:104F60008F910F900FBE0F901F9018959C012A5F94
:104F70003F4FFC014281461301C012820196821705
:104F80009307B9F708959C01FC0132969FEF80E0EA
:104F90004191461789F09F3F19F4411101C0982FA4
:104FA0008F5F8630A9F79F3F39F0F901E90FF11DB6
:104FB00097FDFA9562830895089520910205309136
:104FC00003052817390771F09093030580930205B4
:104FD000E0910005F0910105309721F00084F18502
:104FE000E02D099408952091FE043091FF042817C4
:104FF000390771F09093FF048093FE04E09100055F
:10500000F0910105309721F00680F781E02D099499
:105010000895E0910005F0910105309721F001908D
:10502000F081E02D099480E00895BC014091FA04DC
:105030008091FB04942F981729F1292F30E0F90172
:10504000EE0FFF1FEE50FB4F0190F081E02DE617B1
:10505000F70799F487E0869FF001879FF00D1124F0
:10506000E654FB4F81E0848394130CC02F5F3F4FC5
:10507000237033272093FA0408952F5F3F4F922F18
:105080009370D9CF08950F931F93CF93DF9380919F
:105090005904882309F451C0C09158041CE0809140
:1050A0005904C81708F045C001E00C0F00935804DC
:1050B000D0E01C9FF0011D9FF00D1124E65AFB4F1C
:1050C0009081818123813481232B31F08F3F31F412
:1050D00081E09F3F19F403C081E001C080E080FDC2
:1050E00026C01C9FD0011D9FB00D1124A65ABB4F96
:1050F00016968D919C911797892B31F418968D9166
:105100009C911997019651F42081318142815381FC
:1051100064817581868197810E9482201C9FF001A5
:105120001D9FF00D1124E65AFB4F14821382C02FED
:10513000B6CF1092590410925804DF91CF911F916D
:105140000F9108951092570410925604EAEBF4E080
:105150008581811102C014821682379684E0E23F75
:10516000F807B1F708951092FD041092FC04109214
:1051700011018091FB048093FA040E94A2280C94F0
:1051800043283F924F925F926F927F928F929F92AD
:10519000AF92BF92CF92DF92EF92FF920F931F9345
:1051A000CF93DF93C091FA0497E0892E01E010E0DD
:1051B0002CE0322E3EEF932E442443948091FB0446
:1051C000C81709F478C0D0E0FE01EE0FFF1FEE50C3
:1051D000FB4F80819181889ED001899EB00D112462
:1051E000A654BB4F14962C911497211161C0509076
:1051F0005904EAE5F4E020E030E0712C5D0125156A
:1052000008F054C0E284F384D501CD90DC906FEFB8
:105210007FEF612C462D50E0DA01AA0FBB1FAC0DC9
:10522000BD1D0D90BC91A02D109731F0EA16FB0624
:1052300009F4BA016394EECF6F3FBFEF7B0791F1A2
:10524000D80102C0AA0FBB1F6A95E2F77A2AB801FB
:1052500002C0660F771F6A94E2F7AB014150510913
:10526000672D70E046175707D9F4329EF001339E40
:10527000F00D1124E65AFB4F889ED001899EB00D97
:105280001124A654BB4F12962D913C91139737834E
:105290002683908291829187808715964C9206C0D2
:1052A000148213822F5F3F4F3C96A9CF0E9415288E
:1052B0002196C37083CF0E944328DF91CF911F9125
:1052C0000F91FF90EF90DF90CF90BF90AF909F90A5
:1052D0008F907F906F905F904F903F900C94A2289A
:1052E0000F931F93CF93DF93C42FD22FFC018281A2
:1052F0008823C9F0409355040E9481279093540459
:105300008093530480E28C0F883008F057C0C77038
:1053100081E001C0880FCA95EAF7DF91CF911F9114
:105320000F910C94242180915504481330C0809132
:105330005304909154040E946627883C910538F5E7
:1053400010E21D0FCD17B9F080E28C0F883040F4C9
:10535000C77081E001C0880FCA95EAF70E941D213D
:10536000183028F581E09D2F977001C0880F9A951D
:10537000EAF70E942421802F0E9421221830F0F4A5
:10538000D77081E001C0880FDA95EAF70AC080E2A1
:105390008C0F883098F4C77081E001C0880FCA95DF
:1053A000EAF7DF91CF911F910F910C941D21802F6F
:1053B000DF91CF911F910F910C942122DF91CF911A
:1053C0001F910F910895CF93DF93C3E9D2E060E07E
:1053D000CE010E9436332196C11584E0D807B9F773
:1053E000DF91CF9108950F931F93CF93DF93853073
:1053F00068F5633058F5423048F521159CE53907CA
:1054000031F4E0914D04F0914E04EF2BF9F0890155
:10541000282F34E0639FC00111243CE0239F800DBE
:10542000911D1124840F911D840F911DEC01C95F02
:10543000DD4F612FCE010E943633602FCE010196E1
:10544000DF91CF911F910F910C943633DF91CF9163
:105450001F910F9108950F931F93CF93DF93853082
:1054600018F5633008F54230F8F4282F34E0639FD4
:10547000C00111243CE0239F800D911D1124840F55
:10548000911D840F911DEC01C95FDD4FCE010E947B
:10549000183390E0182F0027CE0101960E94183390
:1054A0009801282BC90102C080E090E0DF91CF91E4
:1054B0001F910F9108950F931F93CF93DF93853022
:1054C00058F5663048F5483038F521159CE5390720
:1054D00031F4E0914D04F0914E04EF2BE9F0890195
:1054E000C42FD0E0CC0FDD1F90E1699FC00DD11D0E
:1054F000112490E6899FC00DD11D1124612FCE018A
:1055000087960E943633602FCE018896DF91CF9127
:105510001F910F910C943633DF91CF911F910F9112
:1055200008954F925F926F927F928F929F92AF9267
:10553000BF92CF92DF92EF92FF920F931F93CF9380
:10554000DF93CDB7DEB72A970FB6F894DEBF0FBE54
:10555000CDBF60904D0470904E0481E090E0909338
:105560004E0480934D0496E6A92E95E0B92EC12CE9
:10557000D12C512C412CE12CF12C00E010E0470102
:105580008C0C9D1CF401E00FF11FEE0FFF1FEE5578
:10559000FA4F25913491402F642D852D0E945B2A6E
:1055A0000F5F1F4F0830110569F788E0E80EF11C06
:1055B000439496E04912E1CF750110E0F70125917F
:1055C000349140E0612F852D0E94F329F701329636
:1055D0002591349141E0612F852D0E94F329E4E06B
:1055E000EE0EF11C1F5F133049F7FCE0AF0EB11C4B
:1055F000539480E3C80ED11C95E05912BBCFFE0135
:1056000031967F018AE011928A95E9F703E412E06E
:105610004AE050E0B801C7010E945A33065F1F4FAD
:105620000339F2E01F07A1F770924E0460924D0417
:105630002A960FB6F894DEBF0FBECDBFDF91CF9193
:105640001F910F91FF90EF90DF90CF90BF90AF90A0
:105650009F908F907F906F905F904F9008950F93E1
:105660001F93CF93DF93853008F56630F8F4483008
:10567000E8F4C42FD0E0CC0FDD1F20E1629FC00D05
:10568000D11D112430E6839FC00DD11D1124CE0100
:1056900087960E94183390E0182F0027CE01889635
:1056A0000E9418339801282BC90102C080E090E0C5
:1056B000DF91CF911F910F910895462F20915104B2
:1056C00030915204232B91F47E3F39F46E3F71F4F4
:1056D00080914F04909150040895853038F47630CD
:1056E00028F4683018F4672F0C942F2B80E090E09A
:1056F0000895CF92DF92EF92FF920F931F93CF9373
:10570000DF93CDB7DEB72A970FB6F894DEBF0FBE92
:10571000CDBF80E5EDEFF3E0DF011D928A95E9F75B
:1057200088E3EAEBF4E0DF011D928A95E9F78DEF5B
:10573000C82E83E0D82E7F0103E412E0F701D18266
:10574000C0824AE050E0B801CE0101960E940833C1
:1057500088E0FE013196D60101900D928A95E1F71D
:1057600089859A85D70113969C938E931297BAE0F8
:10577000CB0ED11CE7E0EE0EF11C065F1F4F033984
:10578000F2E01F07D9F62A960FB6F894DEBF0FBED7
:10579000CDBFDF91CF911F910F91FF90EF90DF90E0
:1057A000CF900895AF92BF92CF92DF92EF92FF9287
:1057B0000F931F93CF93DF93B82EA62EC0908A032A
:1057C0008091FC03C82AC7E0D0E0D12CE12CF12C59
:1057D000D701C6010C2E04C0B695A795979587955D
:1057E0000A94D2F780FF13C04A2D6B2D8C2F0E9494
:1057F0002B2A8C018130910551F00E949B308FE360
:105800009CE90197F1F700C00000C80111C0219781
:10581000F8F64A2D6B2D80E00E942B2AEC010E94A5
:105820009B308FE39CE90197F1F700C00000CE01A7
:105830000E946B3081E0DF91CF911F910F91FF901B
:10584000EF90DF90CF90BF90AF9008959C013A9574
:1058500021153F4130F5BC0166277270AC01442729
:1058600054709C012227387094FF0FC090FF02C033
:1058700080E101C080E0672B09F08062452B09F0D0
:105880008064232B79F080680895892F8170672BBD
:1058900009F08260452B09F08460232B19F08860A1
:1058A000089580E00895DF92EF92FF920F931F9387
:1058B000CF93DF93E82FF0E0EE54F84FD490282FE9
:1058C00026952695269530E0F901EE55F84F04917E
:1058D000877010E0082E02C0159507950A94E2F72C
:1058E00001701127F901EE56F84FE490F12C082EC3
:1058F00002C0F594E7940A94E2F791E0E922FF24CC
:10590000F901EE57F84FC491D0E002C0D595C79584
:105910008A95E2F7C170DD270115110519F081EEB6
:105920000E948521E114F10419F086EE0E94852180
:105930008D2D0E942122EF2819F086EE0E942E2143
:10594000012B19F081EE0E942E21CD2B51F08CE21B
:10595000DF91CF911F910F91FF90EF90DF900C940A
:105960002122DF91CF911F910F91FF90EF90DF9057
:105970000895EF92FF921F93CF93DF93EC011AE00B
:105980008881882309F44AC0813009F043C08981A5
:10599000813041F47E0182E0E80EF11C8A810E9490
:1059A000212209C0823049F47E01E2E0EE0EF11CB2
:1059B0008A810E948521E7012FC0833041F47E0156
:1059C000F2E0EF0EF11C8A810E942E21F4CF843088
:1059D00011F0219621C02A81229680E090E030E0EB
:1059E000205331092A30310558F4189FA001199F1E
:1059F000500D1124C901840F951F21962881EFCFE6
:105A0000009751F0EFE9FFE03197F1F700C0000097
:105A10000197F6CF0E94532C2196B2CFDF91CF9100
:105A20001F91FF90EF9008951F93CF93DF9300D0C5
:105A300000D01F92CDB7DEB7FC0186819781009719
:105A400009F5CF0125E0DE01119601900D922A950E
:105A5000E1F7FC01228189819A81222359F0662392
:105A600049F00E94CE1D182F682F89819A810E94CB
:105A70002B2003C00E94FB1F182F69817A81812F80
:105A80000E945D2B0F900F900F900F900F90DF9161
:105A9000CF911F9108952F923F924F925F926F92F4
:105AA0007F928F929F92AF92BF92CF92DF92EF92AE
:105AB000FF920F931F93CF93DF93CDB7DEB76A9713
:105AC0000FB6F894DEBF0FBECDBF498B5A8B6B8BE0
:105AD0007C8B8D8B61111092F4038E01075F1F4F39
