:100000000C94AB040C94F2040C94F2040C94F204DF
:100010000C94F2040C94F2040C94F2040C94F20488
:100020000C94F2040C94F2040C94621F0C94171EAE
:100030000C9406210C94F2040C94F2040C94F20437
:100040000C94F2040C94F2040C94F2040C94F20458
:100050000C94F2040C94B9200C94F2040C94F20465
:100060000C94F2040C94F2040C94F2040C94F20438
:100070000C94F2040C94F2040C94F2040C94F20428
:100080000C94F2040C94F2040C94F2040C94F20418
:100090000C94F2040C94F2040C94F2040C94F20408
:1000A0000C94F2040C94F2040C94F204200E3C0E16
:1000B000430E7B0E8C0E970EA70EBA0EF90EFE0E97
:1000C000580F580F580F060F8E0F990FC40FD808EE
:1000D00043109210DB10DE10E4108711F211CC15E2
:1000E000D715DC15E115E615EB15F015F515FA1524
:1000F000FF1504168A168A16C316C316251760182C
:10010000601860184317B717C817C8179E199E19AB
:10011000B119B119A719B119B119B1199E199E19BF
:10012000AC19B119B119AC19FF2E262FD930262FD1
:10013000D930722F952FD9309630A63000DA02814F
:10014000FFD9F1DB20A4A62EAF00A0C000A1C800FB
:10015000AED580A81FD300408D14200000AEFD371F
:100160007A585A000004E6D6B4460200210116006F
:100170000000742FE5A3E0085302455D003D888927
:10018000C65436C3174FE4F1E112FDEF008EFF6F46
:100190009387B42647FBB729D03483DA2C4E8C1EC4
:1001A000D4A2101D9A2C5F0D89D296E2560F1E57CD
:1001B0005FB410F19A9B18602D7EFBA74803850A57
:1001C00009BB61BA19807BBF8567EF57236FF07851
:1001D0008933D06222FCBD0E51E6DEAF7BE8DAA2A5
:1001E00060551D19D1FB286DE36D5BBD4122218B4C
:1001F000EA6383C8A2495A31655DBD002908EFA3AF
:10020000B6E19EAEF3D84A9B2F0D317CDC7AE26DCD
:100210005B8D9F4C1A0FEED72802735D24FAE0CD58
:1002200052AD5FA9557D24C66E6096EE3854615577
:100230002D353326C0C365397C77239B589B7C9032
:10024000A1BFBD6D204BBF2FE0C2EF0363B5AC0271
:10025000FDD87142E85C47D08B8B08455CE2D1BD8C
:1002600093A36E6B7B019B123EA7AB5EB577FDE857
:1002700033C6F7BB8181344D4831C367B9E33A8453
:1002800038C073722F53E5B769DD775E305F278220
:10029000C90FFEE70EAAEAE455B91AF196FE8AE7FD
:1002A000C52E76B72D2C05C44C4C9E75684B1B9201
:1002B000247E2B906DF9DE48E3E4A467E21B4A6CD0
:1002C000FA5A78AABE7A60553A67389C7FBA3B8D55
:1002D0001B128E5FB2763748EB7D97222611EBAE6C
:1002E000EE4E87D5FA484DA991F4B5CBB4B735D1C8
:1002F0009F40D5E312191F76715BA303830EC87A62
:10030000FA73CC48F9436FBCADF442CCC64C8DA017
:10031000FF9EFAD6F6E65D11F9640DEDB69B5DBB66
:10032000DF9DC9DF085FCD2BE31E49F9E211DE6CCA
:10033000DC707AD4075AFF4099DBBCEA657B2A64FB
:100340002CA48220E55D181AD31FAF0B6F8A701E94
:100350004C95AE69E6EC7CAA614CAE2FD61C529649
:10036000328C661C8E0964B52368642875932C91C1
:100370001DA0C9AA1DFB9B345575DFAC63A3627435
:10038000506CFB2CCA5497D6DB2F5D6FDF76D5946B
:100390008A1EA7855FE6802992D46176588C98974B
:1003A0005A6826CDB1651D8D8A5C5236D1C421A212
:1003B0002A8366E99C0CB0428FBD51715A73ABE839
:1003C0002CB000000000896E945E7653C6190001BF
:1003D000E104D41000008437DD5EB1C467FB020085
:1003E00000000004595A0000000001000A00020049
:1003F00001000300020011000300120004001A00B3
:1004000005001B0006001C0007001D00080020005E
:1004100009002E2000AA00A90050014F012B032B38
:1004200001010001000100010001000100010001C3
:1004300000010001000100010001000100010001B4
:1004400000010001000100010001000100010001A4
:1004500000290014001A000800150017001C0018DD
:10046000002B0004611668076409620A000B000D86
:1004700072E1001D001B00060019000500110010AC
:1004800000000000000E7437001200337138002A9B
:100490000000002B0436000C000F781300E5003438
:1004A000002A01A8004C0031002800015102512C03
:1004B0000001001E021F0220022102220223022448
:1004C0000201000153025303530453010001002DA4
:1004D00002010039000100010001000100010001DA
:1004E00000000000002E0231022602300234020118
:1004F0000000000100010025022F02270201000177
:100500000001000100010001000100010003510190
:100510000035001E001F00200021002200230024BF
:10052000004A005000510052004F002B0001002DE6
:1005300000010001004E004B000100815F845F82DA
:100540005F000000002E00010026003000010001C5
:100550000000000100835F25002F0027000100013B
:100560000001000100010001000100035101000130
:10057000000100C25CC45CC35C010001003A003BA6
:10058000000100CB5CC55CC75CC95C01003F00405A
:10059000000100CC5CC65CC85CCA5C01004400453C
:1005A0000000000000410001003D004300005C012C
:1005B000000000010001003C0042003E000100017B
:1005C0000001000100010001000100010001000123
:1005D0000001000100010001000100010001000113
:1005E0000001000100010001000100010001000103
:1005F00000010001000100010001000100010001F3
:1006000000000000000100010001000100010001E4
:1006100000000001000100010001000100010001D3
:1006200000010001000100010001000100010001C2
:100630000000AF00010101010101010101020202FC
:10064000020202020202030303030303030304047E
:100650000404040404050505050506060606060748
:100660000707070708080808090909090A0A0A0B01
:100670000B0B0C0C0C0D0D0D0E0E0E0F0F0F1010A2
:100680001111111212131314141515161617171829
:100690001819191A1A1B1B1C1D1D1E1E1F20202194
:1006A0002222232424252626272829292A2B2C2DDB
:1006B0002D2E2F30313232333435363738393A3BFC
:1006C0003C3D3E3F404142434445464748494A4CF1
:1006D0004D4E4F50515354555658595A5B5D5E5FBD
:1006E000616264656668696B6C6D6F707273757753
:1006F000787A7B7D7E8082838587888A8C8E8F91B5
:10070000939596989A9C9EA0A2A3A5A7A9ABADAFDE
:10071000B1B3B5B7BABCBEC0C2C4C6C9CBCDCFD1C8
:10072000D4D6D8DBDDDFE2E4E7E9EBEEF0F3F5F871
:10073000FAFDFF05010980A101850319012AB7000F
:10074000150126B700950175108100C0050C09013F
:10075000A101850419012AA002150126A002950114
:1007600075108100C00660FF0961A10109621500D2
:1007700026FF009520750881020963150026FF00F9
:10078000952075089102C005010906A10105071908
:10079000E029E7150025019508750181029501758D
:1007A0000881010507190029FF150026FF0095069D
:1007B0007508810005081901290595057501910243
:1007C000950175039101C009025B00030100A0FAC5
:1007D00009040000010301010009211101000122A7
:1007E00040000705810308000A0904010002030014
:1007F00000000921110100012222000705820320C7
:1008000000010705030320000109040200010300A1
:100810000000092111010001223200070584032094
:10082000000A1201000200000008FEFEBBFF0100EA
:10083000010203011C037600690061006C003A00AC
:10084000660036003400630032006200330063004B
:100850000000320373006100640065006B006200F9
:10086000610072006F00750064006900200066007E
:1008700066006B0062005F00620079006F006D002F
:100880006300750000001A037300610064006500D6
:100890006B006200610072006F0075006400690007
:1008A0000000040309040000000000000000000034
:1008B0000000000000000000000000000000000038
:1008C000000000000000000000007E0F00D4FFFFC9
:1008D000FFC70000007800000000000000002A2B85
:1008E00028000000000000000000000000000000E0
:1008F0000029000000002C1E342021222434262749
:10090000252E362D3738271E1F2021222324252669
:100910003333362E37381F0405060708090A0B0C37
:100920000D0E0F101112131415161718191A1B1C7F
:100930001D2F3130232D350405060708090A0B0C3D
:100940000D0E0F101112131415161718191A1B1C5F
:100950001D2F3130354C11241FBECFEFDAE0DEBF42
:10096000CDBF04B603FE27C08091C6079091C7078C
:10097000A091C807B091C9078730904BA740B04BF2
:10098000D1F41092C6071092C7071092C8071092B0
:10099000C90714BE84B7877F84BF0FB6F894A895A3
:1009A00080916000886180936000109260000FBEAB
:1009B000E0E0F8E3099512E0A0E0B1E0E8EDFDE643
:1009C00002C005900D92A834B107D9F727E0A8E43A
:1009D000B2E001C01D92A63CB207E1F70E94F40408
:1009E0000C94EA360C940000CF93DF93CDB7DEB7BA
:1009F000E8970FB6F894DEBF0FBECDBF84B7877FF0
:100A000084BF0FB6F894A8958091600088618093A8
:100A10006000109260000FBE90E080E80FB6F8947E
:100A200080936100909361000FBE85B7806885BF99
:100A300085B7806885BF8CE494E2909349028093E7
:100A400048020E94042A0E945B1E0E94011F80919E
:100A5000E20084608093E20078948091BA07882352
:100A6000A1F01091E9001F709091EC00892F817026
:100A700090FD80E8182B1092E9008091E80083FD3A
:100A80000E94192E1F701093E90082E084BD93E04C
:100A900095BD9AEF97BD80936E000E948A2A8111BE
:100AA00002C00E947B2A05E211E09BE2E92E91E060
:100AB000F92ED8018D918D018F3F11F00E94912464
:100AC000E016F106B1F70BE211E083E3E82E81E0D6
:100AD000F82EF80181918F018F3F11F00E9491242F
:100AE000E016F106B1F7ECE4F2E082E592E0A3E96A
:100AF000B5E011921D928E179F07D9F70E944226EA
:100B0000811102C00E944D2682E090E00E941136C1
:100B100080930A050E94312690934B0280934A02EB
:100B20000E9480278FE39CE90197F1F700C0000045
:100B30000E9480278091930580FF08C06FEF7FEFB0
:100B400080E090E00E944D360E94952083E090E086
:100B50000E9411360E94EB1B1092B202EBECF2E005
:100B60008BED92E02FEF3FEF219331938E179F078C
:100B7000D9F710925202EBE6F2E08FEF9FEF8193EC
:100B80009193A2E0EB37FA07D1F70E944226811138
:100B900004C00E944D260E943E2B46E050E06CE1CE
:100BA00070E08FEB97E00E9401368091BF078C7F49
:100BB00011F40E943E2B1092050580E88093E40218
:100BC0000E94D5346DE070E08FE491E00E94502DDA
:100BD000892B09F03FC08091050563E070E081FD3D
:100BE00036C08CE491E00E94502D892B99F56DE080
:100BF00070E08CE391E00E94502D892B59F50E9402
:100C0000EE20DC01CB01805A9541AF4FBF4F80935E
:100C1000B6059093B705A093B805B093B90580E0E9
:100C200092E0E5E0F3E0DF019C011D9221503040AD
:100C3000E1F78FEF9FEF909308058093070581E020
:100C40008093BB058093BA051092060503C089E422
:100C500091E0C9CF14EE812E12E0912E43E451E0D1
:100C600026E431E001EE602E02E0702E61E070E0DB
:100C70008614970409F44EC0F901A1919F018A2FAF
:100C800082958F7090E0FC01F1A0AF70BA2E8B01BD
:100C900001C0000FAA95EAF7F02FF095FF22DC01C2
:100CA0009196FC9291979296AC91A02BFC01A2A3F5
:100CB000DA01ED90AD01EE2DE295EF70F0E0F1A0DC
:100CC000BE2DBF70EB2E6B0101C0CC0CBA95EAF7BC
:100CD000DC2CD094FD20F1A2F2A0FC28F2A2DC01D1
:100CE00090968C9190E002C095958795BA94E2F722
:100CF0008170E0A1F0E002C0F595E795EA94E2F793
:100D0000E0FF02C092E001C090E0892BF3018193E3
:100D10003F01AECF80E091E090936A068093690630
:100D20008091BA07853009F047C0B0E4FB2E00E19E
:100D300012E18091BA07853009F03AC08091BA0774
:100D4000843019F110926D0628E130E00FB6F89466
:100D5000A895209360000FBEF092600083B7817F5A
:100D6000846083BF83B7816083BF7894889583B79D
:100D70008E7F83BF0FB6F894A8958091600088613C
:100D800080936000109260000FBE8091B0078823AE
:100D900009F4CFCF0E948027E3E9F5E0819181112A
:100DA0000C945E0F49E955E04E175F07B9F7C1CFC4
:100DB0000E94EF1B0E9482210E9480278FAB81112D
:100DC0000E94EE20ABE0B5E0E3E9F5E000E010E0E2
:100DD000A02EE1908D918E2509F43EC1B12CFF2407
:100DE000F394982F9F2109F432C1BBA6ACA6EF2043
:100DF00081E009F480E08DA70E94FA208160782FBD
:100E00009FA78EA74BA55CA56DA58FA50E947F32DD
:100E1000F801E55FFA4F8081F826F082EE2089F034
:100E2000F801A3E0EE0FFF1FAA95E1F7E756FE4F8A
:100E3000EB0DF11D80818F3F21F088AF99249394B1
:100E400001C0912CE92CF12C80915202D701A80FFE
:100E5000B11D1997ACF188E090E06C01CE18DF0865
:100E6000B7016F5F7F4F6E5A7D4FA60183E592E019
:100E70000E94DA36B701675F7F4F6E5A7D4FA60139
:100E80008BE592E00E94DA36A601440F551FB701A8
:100E9000660F771F675E7F4F6E5A7D4F8BE692E03D
:100EA0000E94DA36B7016F5E7F4F6E5A7D4FA60102
:100EB00083E692E00E94DA3688E089198093520234
:100EC0008091520290E0E8ADAE2FB0E09D01220F7C
:100ED000331F27533E4FAA0FBB1FBD0166537E4FE2
:100EE00041E0480F9915B0F490E0FC01EE5AFD4F37
:100EF000D9015C915183DB015C915187B8ADB18B15
:100F0000880F991FFC01EE5AFD4F128E118E91E051
:100F1000842FE6CF809352028091BF078C7F80326E
:100F200009F0B0C08FEF8A0D21E02A0D6FEF6B0D35
:100F300091E09B0DB3E0000F111FBA95E1F76B151F
:100F400058F4F801EE57FD4FE60FF11D308140E1F6
:100F5000340F08F43FEF30834B2D50E00E571D4FF8
:100F6000F801E40FF51F308170E2370F08F43FEF0E
:100F70003083983049F0F801E90FF11D308170E1BC
:100F8000370F08F43FEF3083263071F130E06B15F6
:100F900080F4F901A3E0EE0FFF1FAA95E1F7EE57E9
:100FA000FD4FE60FF11D70811DE0710F08F47FEF1A
:100FB0007083E3E0220F331FEA95E1F72E573D4F90
:100FC000F901E40FF51F708110E1710F08F47FEF54
:100FD0007083983049F0F901E90FF11D20813DE05F
:100FE000230F08F42FEF20838A1508F04BC0282F19
:100FF00030E06B1580F4F90173E0EE0FFF1F7A9576
:10100000E1F7EE57FD4FE60FF11D60817DE0670FC0
:1010100008F46FEF608363E0220F331F6A95E1F7F6
:101020002E573D4FF901E40FF51F408150E1450F68
:1010300008F44FEF4083983029F1F901E90FF11DD1
:1010400020813DE0230F08F42FEF20831BC0B394D1
:10105000FF0C28E0B212C5CE0F5F1F4F06301105FE
:1010600009F0B6CE8FEF88AB89AB1AAA0E94FA209E
:101070008160782F9CAB8BAB48A959A96AA98CA930
:101080000E947F3280917B0290917C02A0917D0230
:10109000B0917E022FB7F894C0906E06D0906F0684
:1010A000E0907006F09071062FBFC81AD90AEA0ABC
:1010B000FB0A0E94EE2060937B0270937C02809377
:1010C0007D0290937E02A0915202E2E5F2E02A2F87
:1010D00030E088248A94982CA12CB12C8C189D087F
:1010E000AE08BF08A31799F0418D528D2A01612CDB
:1010F000712C84149504A604B70410F4215004C084
:101100004C0D5D1D528F418F3F5F3296EBCF209388
:1011100052023091BF07232F237021F0E32EE69473
:10112000E69401C0E12C209115012130E9F038F05E
:10113000223009F472C0233009F478C09BC01092A9
:1011400017016093BB077093BC078093BD07909312
:10115000BE0789E2E2E5F2E0A2EBB2E001900D9277
:101160008A95E1F781E056C090910B01E9120DC01C
:10117000832F837090E040910A0150E021E08417B2
:10118000950709F420E0822F01C081E081708093EF
:1011900019018091C40790911801981709F4AEC6FF
:1011A0008093180140E060E080E00E94322BA6C6E8
:1011B000F090170189E0F89EF02C112409E0D02E60
:1011C000DF0C3AE23D1510F41AE2D12E6091C3070C
:1011D00066958091BB079091BC070E94F62BC82EA4
:1011E000FD1408F40EC781E059E25D1510F40C946B
:1011F0001E12909117019F5F9093170181113AC0C1
:1012000082E08093150180911901811133C0E110B2
:1012100031C083E0809315012DC0E0920B01832F34
:10122000837080930A010E941229F3CF8091D50622
:1012300081110E94362B1092D5064091BB07509128
:10124000BC076091BD077091BE072FB7F8948091DD
:101250006E0690916F06A0917006B09171062FBF37
:10126000841B950BA60BB70B4097A105B10510F099
:10127000109215011EEDE12E12E0F12E0BED12E0A1
:1012800081EE882E82E0982EA3E4B1E0BEABADAB38
:1012900096E4692E91E0792E5401D12CC12C22E0E4
:1012A000222E312CF50181915F01E82FEE0FEE0F18
:1012B000D3012D913D01A22FA295AF70B0E0909681
:1012C0008C9190E02F7002C0959587952A95E2F752
:1012D0009C0121703327ADA9BEA98D91BEABADABEA
:1012E000A82FA295AF70B0E090964C9150E08F700F
:1012F00002C0559547958A95E2F7CA0181709927F2
:1013000040FF02C082E090E0822B932B8E2BF401F1
:1013100081934F018F70E82FF0E0ED5CFE4F9081DC
:10132000D7018C91890F8C93823054F0F801808121
:101330008F5F808360E08C2D0E94F12C21E001C042
:1013400020E0D7018C918F3F4CF4F80180818150CF
:10135000808361E08C2D0E94F12C21E0D7018C91DB
:10136000082E000C990BB1010E946B36F701819396
:101370007F01D22AC3940F5F1F4FF3E0CF1292CFA9
:10138000D1100E94EE208091BB05882309F40CC186
:1013900020910705309108052115310509F4D9C0C0
:1013A000809106058111D5C0082F10E0EE24E3944A
:1013B000F12C082E02C0EE0CFF1C0A94E2F7A901E2
:1013C0004E215F21452B11F48F5FEECF90910505E3
:1013D0009801A5E0220F331FAA95E1F790FD12C0F6
:1013E0008295880F807680930E01220F232F221F73
:1013F000330B319520931101815E80930F01109280
:10140000120112C0E5E036952795EA95E1F7220F23
:10141000220F220F20930E0110921101295F2093B9
:101420000F0183E08093120124E630E047E050E0B2
:101430006CE071E088E70E948C35892B09F089C047
:101440008091050580FD22C0A80175E0440F551F5D
:101450007A95E1F74B5F5C4F04E610E020E230E064
:1014600060E488E70E94B335892B09F072C00E94BE
:101470005C23E094F0948091070590910805E822A0
:10148000F922F0920805E092070563C080E2E5EEDC
:10149000F2E0DF011D928A95E9F7A80135E0440FDB
:1014A000551F3A95E1F76DE4462E61E0562E09E4AA
:1014B00011E0F20181912F01D8019D918D01BA01B6
:1014C000690F711D6B5F7C4F90E08B519D4FFC014C
:1014D00027E0922E9F01281B390B7724739401C0BB
:1014E000770C2A95EAF75B01812CD501CD905D013F
:1014F000C720292D28192770622E022E000C330BCD
:10150000BC2D01C0BB0F6A94EAF76B2E3195219573
:1015100031092770332701C0C6942A95EAF76C2851
:10152000C0806C286082839428E08212DECF9A9477
:1015300031963FEF9312CECF81E5481681E05806F1
:1015400009F0B7CF04E610E020E230E045EE52E0CB
:1015500087CF8091BA05882339F10E94EE2000914F
:10156000B6051091B7052091B8053091B905DC0199
:10157000CB01801B910BA20BB30B8F3F9F4FAF4F43
:10158000BF4790F48091BB05882371F08091BA0524
:10159000882351F062E070E08CE591E00E94502DCC
:1015A000892B11F41092BA05FFA9F11101C0D110D5
:1015B0000E945C230E94822190910905891721F0E5
:1015C0000E948221809309058091BA07843009F036
:1015D000A7CB83E08093E9008091E80082FFA0CB55
:1015E0008091E80085FF22C00E947A1E81111CC0F4
:1015F00000E210E09E012F5F3F4F790108C080910B
:10160000F100D7018D937D010150110969F080919E
:10161000E80085FDF4CF8091E8008B778093E800A7
:101620000E947A1E882399F391E001C090E0809196
:10163000E8008B778093E800992309F471CBE09060
:10164000B405F090B5058981E114F10459F08E3F9D
:1016500009F02EC49A819330A8F19550933008F088
:1016600027C430C08B3009F4C8C248F5853009F46E
:101670007EC0B8F4823009F442C030F4813009F001
:1016800015C41A8289E0B3C3833009F461C0843081
:1016900009F00CC44C816B818A810E94D6299D83FC
:1016A0002BC4873009F471C008F46CC0883009F489
:1016B000E3C0893009F0FAC30E94362BF9C38031A8
:1016C00009F4DDC18E010F5F1F4F813160F48D3051
:1016D00009F477C108F473C18E3009F476C18F30F4
:1016E00009F49EC1E3C3823109F4CEC108F4CAC132
:1016F000833109F4F3C18E3F09F496C2D7C38A81BE
:10170000823009F4F2C3833051F0813009F0CEC346
:101710000E94EE209B838C837D836E83C9C380915E
:10172000B0059091B105892B09F4C2C3809193054E
:101730008B83809194058C83809195058D83809116
:1017400096058E83809197058F8380919805D8C0E8
:101750008A81823009F0AAC36B817C818D819E8150
:101760000E94A43686E290E00E942F36A1C32D810C
:101770003E813227232732274C816B818A810E9448
:10178000A02996C30E94AE2393C38A81813421F09D
:10179000823409F43BC08CC34B815C818091BF07CC
:1017A000982F93704115510539F49111109215013C
:1017B0008C7F8093BF071FC0911102C0109215014A
:1017C0008C7F81608093BF0726EE33E062E174E096
:1017D000F901329685919491F901A591B4914A1736
:1017E0005B0731F02C5F3F4F6217730789F780E08A
:1017F00060E00E94042B8D818093C3078E8120E0DE
:1018000048856F8190E00E94A92A52C34B815C8178
:101810008D81B3E08B9F900111242E3131050CF0A6
:1018200047C3DE011196FA01EE0FFF1FE40FF51F0B
:10183000EB5EFA4F20E030E090E02817390708F01F
:1018400037C31396BA01620F731F6A32710508F02D
:101850002FC312966C911297608313966C91139715
:10186000618314966C911497613708F060E7628386
:101870002F5F3F4F3396E1CF8A81823409F442C013
:1018800028F4803451F0813471F012C3833409F4A8
:1018900059C0843409F459C00BC381E08B831C8286
:1018A00080E78D8305C38091BF07982F9370B1F0B7
:1018B0008695869590E026EE33E062E174E0F901CA
:1018C0003296A591B491F901459154918A179B07DD
:1018D00041F02C5F3F4F6217730789F790E080E07B
:1018E00002C0942F852F9B838C838091C3078D83A7
:1018F0008091C0078E838091C1078F838091C2073A
:101900008887D6C20B811C814EE150E06FEF70E0FA
:10191000CE0103960E94E33686EE93E0DE01139635
:101920002EE1FC01459154910417150728F422304B
:1019300018F04D935D9322500496E4E082319E07A7
:1019400081F7B6C28AE28B839CC18B8190E08A3298
:1019500091050CF0ADC2FC01EE0FFF1FE753FE4FE7
:1019600020812B83FC01EE0FFF1FE756FE4F21A9BC
:101970002C83FC01E35EFD4F20812D832FEF2F830D
:101980002E8369E971E040E050E020E030E0FB01A7
:10199000E20FF31FE081F0E08E179F0719F44E83EA
:1019A0002F8386C22F5F3F4F2830310581F74F5F6D
:1019B0005F4F685F7F4F4630510539F779C280E14C
:1019C00032C281E08A838DE612C2EA80FB80FE2467
:1019D000EF24FE24AC80B12CFDE1AF16B10408F079
:1019E00067C26801C7018D569D4F9601201B310BC0
:1019F0002A153B0508F05CC22DE6E21621E0F2064E
:101A000030F40E941136D60114968C9302C0F60170
:101A10001482FFEFEF1AFF0A2FEFC21AD20AE2CFA9
:101A20008091B0059091B105892B09F441C2EA80FB
:101A3000FB80FE24EF24FE24CC80D12C3DE1C31694
:101A4000D10408F035C25801C7018D569D4F95014C
:101A5000201B310B2C153D0508F02AC24DE6E4167B
:101A600041E0F40628F4D50114966C910E942F36BB
:101A7000BFEFEB1AFB0AEFEFAE1ABE0AE5CF0E94EA
:101A8000822316C285E0CFC1EA80FB80FE24EF24CA
:101A9000FE24AC80B12CFDE1AF16B10408F008C201
:101AA0006801C70187969601201B310B2A153B055B
:101AB00008F0FEC120EEE21621E0F20630F40E94AA
:101AC0001136D60114968C9302C0F6011482FFEFF2
:101AD000EF1AFF0A2FEFC21AD20AE3CFEA80FB8087
:101AE000FE24EF24FE24AC80B12C3DE1A316B1040A
:101AF00008F0DEC140EEE41641E0F40608F0D8C17B
:101B000080EE91E08E199F098A159B0508F4D0C1DB
:101B1000370157E2650E711C8091B0059091B105B7
:101B2000892B11F0680160C0E0FE0FC0C7018696E6
:101B30000E94113690E0982F88272D81822B8115E5
:101B40009C4531F48FEF8D8303C0C12CD12C03C091
:101B5000CC24C394D12CC7018A0D9B1D450180FF65
:101B60001BC0B1E08B1A910855E0452E512C4C0E4C
:101B70005D1E480C591CC3018A0D9B1D0E94113625
:101B8000F201208130E0322F2227282B21153C45FD
:101B900019F48FEFD2018C93F801EC0DFD1D2FEF9E
:101BA000CF01801B910B8815990508F0BBCF84816C
:101BB00090E0982F88273581832B81159C4511F45F
:101BC000248325833296ECCFE0EEEE16E1E0FE06AC
:101BD00028F4D60114966C910E942F36BFEFEB1AB1
:101BE000FB0AEFEFCE1ADE0AC70187969601201B8B
:101BF000310B2A153B0540F35BC18091B0059091F4
:101C0000B105892B09F454C1CE0101960E94F32D30
:101C1000FFEF11EE24E0F15010402040E1F700C04A
:101C200000000E94952044C1EA818E2F90E08E3002
:101C3000910508F03DC1FC01EA5AFF4F0C949E3615
:101C400088E0EAE1F1E0DE01919601900D928A953B
:101C5000E1F780E2D8011D928A95E9F784E0898353
:101C600088E0FE01B196DE01159601900D928A95ED
:101C7000E1F781E08D871CC188E8898382E08A834F
:101C80001B821C8215C18C8190E0982F88272B81A4
:101C9000820F911D092E000CAA0BBB0B35E0880F9B
:101CA000991FAA1FBB1F3A95D1F7AC01BD01405E39
:101CB0005F4F6F4F7F4F481759076A077B0708F43C
:101CC000F7C08838E2E09E07A105B10508F0F0C032
:101CD0004938F2E05F076105710520F048E852E0FD
:101CE00060E070E0481B590BBC01625A7E4FC8018E
:101CF0000E94F835DDC01B810C8140E0602F812FF0
:101D00000E94702999838A8341E0602F812F0E946D
:101D100070299B838C83CCC02E813F81322723275F
:101D200032274D816C818B810E943829C1C040E2ED
:101D300050E06FEF70E0C8010E94E3368091B0057B
:101D40008983EA821B821C821D8281E0D5C021E04A
:101D500030E03093B5052093B40582E390E0909392
:101D60001405809313050E94FA2090931205809326
:101D700011059EC0EF2899F11091930511FB88275A
:101D800080F9182380911105909112050E94DF209F
:101D900085369105F0F01123E1F00E94FA2090932E
:101DA00012058093110580911305909114050197F8
:101DB0009093140580931305892B89F41092B5052F
:101DC0001092B40541E050E05093B1054093B00546
:101DD00006C082E390E090931405809313058091F0
:101DE000B00589838091B4058A83809113058B8324
:101DF0005FC01092B1051092B0055AC040E250E0A9
:101E00006FEF70E0C8010E94E33652C08B818330CF
:101E100061F0843061F181114BC080E2D8011D92E4
:101E20008A95E9F788E08A8343C06C81CE01819668
:101E30002AE0FC0111922A95E9F7683060F4FAE093
:101E40006F9FB00111246D5B7D4F4AE050E00E940E
:101E5000013680E001C08FEF89838AE0FE01B196F0
:101E6000DE01129601900D928A95E1F721C06C81F6
:101E70008AE0FE013596DE01919601900D928A95D9
:101E8000E1F7683070F41AE0619FB00111246D5BD6
:101E90007D4F4AE050E0CE0181960E94533680E0AB
:101EA00001C08FEF89830E94042A02C08FEF8983CB
:101EB000CE0101960E94F32D0C94900609BD19BD28
:101EC00009B400FEFDCF8091D8008F7D8093D800AB
:101ED0008091E00082608093E0008091E00081FDCD
:101EE000FCCF0E94EF1B0C94990686E290E00E94C2
:101EF00011361B821C821D828E83DACF8E2D90E0DC
:101F00008B30910530F0809117018F5F809317011E
:101F100077C9FC01EC59FF4F0C949E368091190152
:101F2000882309F48BC240E060E080E00E94322BFD
:101F300085C21091170189E0189F102D112409E026
:101F4000010F0B3208F00AE26091C0077091C107DF
:101F50008091C2070E94002CF62ED72EC82E101793
:101F600008F023C1E12FF0E0DF01A35EBD4F8C91AB
:101F700090911801982331F02C2D4F2D6D2DCF010C
:101F80000E94342B1F5FEBCF1091170189E0189F3F
:101F9000102D112409E0010F0B3208F00AE2D09055
:101FA000C107F090C207C090C007B6018F2D0E94F4
:101FB000002CB62EA72E982E6091C3076C0D7D2D98
:101FC0008F2D0E94002CF62ED72EC82E101708F049
:101FD000ECC0E12FF0E0DF01A35EBD4F8C9190914A
:101FE0001801982361F080FF04C02C2D4F2D6D2D1A
:101FF00003C0292D4B2D6A2DCF010E94342B1F5F6A
:10200000E5CF0F2D10E0F801E35EFD4F9081809148
:1020100018018923B1F1F801EE0FFF1FE753FE4FBE
:10202000408150E044565109F801EE0FFF1FE7567A
:10203000FE4F21A930E020523109449FB001459F55
:10204000700D700D1124229FC001239F900D900DE3
:102050001124860F971F0E949C2B9091C10743E08B
:10206000849FB0011124759567956C0D792F80912F
:10207000C2070E94002C462F282F672FC8010E94FC
:10208000342BF394ADC81091170189E0189F102DDF
:10209000112469E0F62EF10E8AE28F1510F45AE24F
:1020A000F52E6091C30766958091BB079091BC07A0
:1020B0000E94F62BB82E1F1578F5C12ED12CF601F3
:1020C000E35EFD4F908180911801892319F1F6019B
:1020D000EE0FFF1FE756FE4F21A930E020523109D5
:1020E000F601EE0FFF1FE753FE4F408150E04456CC
:1020F00051096091C0077091C1078091C2070B2DF3
:102100000E94CD2B0E94002C462F282F672FC6013E
:102110000E94342B1F5FCFCF81E099E29F1508F01A
:1021200068C88CC11091170189E0189F102D1124E7
:1021300009E0010F0B3208F00AE2D090C107F090DD
:10214000C207C090C0076091C30766956695669503
:102150008091BB079091BC070E94F62B0E94572BE1
:10216000805887FD8195880F682F2CE0629F612D34
:1021700011246C0D7D2D8F2D0E94002CF62ED72E54
:10218000C82E101790F4E12FF0E0DF01A35EBD4FE1
:102190008C9190911801982331F02C2D4F2D6D2D9D
:1021A000CF010E94342B1F5FECCF81E00A3210F484
:1021B0000C94F90843C188E79BE202C081E099E2F0
:1021C0000E94792D0C94F9080091170189E0089F6D
:1021D000002D112419E0100F1DAB113310F010E386
:1021E0001DAB80911901882361F040E060E080E040
:1021F0000E94322B80E3E2E8F2E0DF011D928A9533
:10220000E9F780911701811115C0809180029091AA
:1022100081020E94DF2021E08931910508F420E04D
:1022200020937F02499730F00E94FA209093810218
:102230008093800210E0BDA96B2E712CA6E02A2E9F
:10224000312CB5E55B2E8AEA482E061517050CF0F1
:1022500057C0C801B1010E946B365B016C01F3E00D
:10226000CC0CDD1CFA95E1F7F601EE57FD4FE60FB9
:10227000F71FF080F601E756FE4FE60FF71F80814B
:102280008F3F59F1882E912CF401E35EFD4F908130
:1022900080911801892309F13F2D252D321B08F467
:1022A00030E07091C107242D4F2D240F08F42FEF3B
:1022B0004091C20752E0259F200D11242E5F249FDC
:1022C000212D1124642D631B822F0E94002C462F88
:1022D000282F672FC4010E94342B80917F0288230E
:1022E00061F02F2D31E0231B08F420E0C6018E574A
:1022F0009D4FFC01EA0DFB1D20830F5F1F4FA5CFF3
:1023000081E01DA9103310F40C94F90897C0F090E7
:10231000170189E0F89EF02C1124E9E0BE2EBF0CD5
:102320002AE22B1510F47AE2B72E2091C30731E090
:10233000230F08F42FEF30E040E050E06FEF7FEF25
:1023400080E090E00E947F368901AA24A394FB14C8
:1023500008F041C0CF2CD12CF601E35EFD4F9081F7
:10236000809118018923A9F19091B202915097FDB3
:1023700015C0292F092E000C330BF901EE54FD4F27
:102380008189F812F3CF220F331FF901EE54FD4F6C
:10239000218D328D2017310748F701C098016091D7
:1023A000C3074A2D640F08F46FEFC9010E94F62B92
:1023B000AC016091C0077091C1078091C2070E9473
:1023C000512B0E94002C462F282F672FC6010E94F8
:1023D000342BF394BCCF81E059E25B1510F00C94E0
:1023E000F9082CC0F090170189E0F89EF02C112418
:1023F00059E0D52EDF0C8AE28D1510F44AE2D42E76
:10240000FD14B0F40F2D10E0F801EE0FFF1FE00FE8
:10241000F11FEB5EFA4F6081718182810E94002C76
:10242000462F282F672FC8010E94342BF394E8CF42
:1024300081E099E29D1510F00C94F90880E00C946D
:10244000F9088F929F92AF92BF92CF92DF92EF9254
:10245000FF920F931F93CF93DF9300D000D0CDB79F
:10246000DEB7FC018081918123813481232B31F0FF
:102470009F3F31F491E08F3F19F403C091E001C018
:1024800090E090FDE4C66F0161E0CF010E94E5316C
:102490008C01F6018281882309F49AC098012251A7
:1024A0003F452031310508F07BC08FEF93E00E945B
:1024B000113681117FC03EEEF32EF00E03E912E0DB
:1024C000FF2071F00115F4E01F0709F473C0C80183
:1024D0000E941136811101C0FA940F5F1F4FF0CF97
:1024E00019821A821B821C82AA24AA9478012FEFD7
:1024F000E21AF20AC8010E94113689831A828823DF
:1025000009F458C0813009F046C0480182E0880EC5
:10251000911CC7010E9411368A83882309F44AC09E
:102520009FEF980F933060F4780193E0E90EF11C6F
:10253000C4010E9411368B8381112DC08701D6CF33
:10254000843011F07401FACFC4010E941136B82E04
:102550007801E4E0EE0EF11CC80103960E941136EA
:10256000BB2041F1882331F1282F30E0215031097F
:10257000A29EA001A39E500D11248B2D90E00197E7
:10258000840F951F0197D0F2EFE9FFE03197F1F743
:1025900000C00000F7CFCE0101960E948A31CECF55
:1025A00000319FE5190709F0AFC581E00E94E01BEB
:1025B0000E94452D8091CB06877009F448C6F6012C
:1025C0008281882309F443C682E00E94EA263FC63E
:1025D0000031FFE51F0711F481E005C001312FE54F
:1025E000120721F482E00E94D41BE2CF909199055A
:1025F000911105C090919C05992309F4B7C09801E9
:102600003056211590E2390720F0305E2115304117
:1026100040F4F6019581907F09F4A8C07801FF2469
:1026200001C07801970130542115354108F49EC04E
:1026300090919C05923021F5882369F08091CE0617
:10264000982F927219F06894F1F80FC086FF0DC0B0
:1026500024E1F22A0AC0C70195558F3F910511F078
:1026600008F071C580E00E946A2881E080939C0593
:10267000F0929B05E0929A058FEF809313019ACF19
:10268000882309F460C5913009F05FC0809113017F
:102690009CE2E916F104D9F4882329F00E944F3214
:1026A0001092130187CF80919A0590919B059555C3
:1026B0008F3F910509F018F40E94B72603C08AE203
:1026C0000E94991D10929C050E9475324FC0EAE24B
:1026D000EE16F10421F481508093130126C087FD8A
:1026E00034C081110BC080919A0590919B0595553E
:1026F0008F3F910509F010F40E944F328091130131
:102700008F5F80931301FDE2EF16F10471F040F446
:1027100084E0E81AF10894E2E916F10480F405C0B7
:10272000EDE2EE16E2E0FE0651F4F6018281882326
:1027300009F409C58091CE06811114C0ECC4F601DC
:102740008281882309F4FFC40DC09AE2E916F104DE
:1027500089F308F06DC5F4E0EF1AF10824E2E216FF
:10276000F10440F30E94753210929C050238FFE597
:102770001F0751F4F6018281882399F181E080934B
:102780009C058DE290E017C003382FE51207D8F0C2
:102790000338EFE51E0709F43AC50438FFE51F07C3
:1027A00009F0E2C4F60182818823D9F081E08093A8
:1027B0009C058DE292E090939B0580939A058FEFA4
:1027C0008093130141C500388FE5180709F437C11C
:1027D00001389FE5190709F0C7C4F601828181110C
:1027E000A7C4F6019281992309F4B9C11092BE05DC
:1027F0000230FCE51F0708F49CC106312CE51207E6
:1028000038F098012A5F3C452930310508F091C124
:102810000E94312690934B0280934A0200318CE54E
:10282000180709F4C3C008F041C00830ECE51E07E2
:1028300009F49AC0F0F404302CE5120709F487C0BB
:1028400068F402309CE5190709F477C003301C4591
:1028500009F0E5C080914A02826076C00630FCE54E
:102860001F0709F46EC008F07BC080914A0288609F
:102870006BC00C308CE5180709F485C068F40A3089
:10288000ECE51E0709F474C008F079C00E94EF1B44
:1028900080914A02806858C00E302CE5120709F476
:1028A00076C008F07FC080914A028BC00B3F9CE548
:1028B000190709F44FC018F50331FCE51F0709F4A7
:1028C0007DC078F401318CE5180709F473C002313A
:1028D0001C4509F0A4C00E94EF1B80914A028F772B
:1028E00033C00531ECE51E0709F472C008F486C058
:1028F0000A3F1C4509F093C080914B023EC00F3F38
:102900008CE5180709F45FC058F40D3FECE51E078D
:1029100009F444C008F43FC080914B0282602DC08E
:1029200001302DE5120709F475C008F45DC00230CE
:102930001D4509F074C060E06EC080914A0281605C
:1029400003C080914A02806180934A0268C08091EE
:102950004A0211C080914B02826080934B025FC09B
:1029600080914A028062F0CF80914A028064ECCF6D
:1029700080914A0288608460E7CF8160EECF8091C9
:102980004A028E7FE1CF80914A028D7FDDCF809118
:102990004A02877FD9CF80914B0218C080914B02A9
:1029A0008D7FDBCF80914A028F7ECECF80914A020D
:1029B0008F7DCACF80914A028F7BC6CF80914A0219
:1029C000877F8B7FC1CF80914B028D7F8E7FC5CF5C
:1029D00080914A0282FB222720F991E0922790FB06
:1029E00082F990FB83F9B0CF80914B02982F90959C
:1029F00091708E7F892B90FB81F9AFCF0E94EF1BE6
:102A000080914A0287FB222720F991E0922790FBD0
:102A100087F99ACF61E08EE090E00E942F366091B6
:102A20004A0210914B0284E090E00E942F36612F01
:102A300082E290E00E942F360E94EF1BBBCDF60190
:102A40008281882309F4CDCE92E1A92E94E0B92E9B
:102A50002AE0922EF5018491882309F45AC081302E
:102A600009F04FC07501FFEFEF1AFF0AF7018491DB
:102A7000813049F47501F2E0EF0EF11CF701849109
:102A80000E94991D41C0823049F47501F2E0EF0EB9
:102A9000F11CF70184910E94FD1C36C0833049F47B
:102AA0007501F2E0EF0EF11CF70184910E94A61C63
:102AB0002BC0843049F57501F2E0EF0EF11CF701EF
:102AC000249180E090E030E0205331092A30310534
:102AD00070F4989EA001999E500D1124C901840F95
:102AE000951FFFEFEF1AFF0AF7012491ECCF009733
:102AF00059F0EFE9FFE03197F1F700C000000197CE
:102B0000F6CF0E94243175015701FFEFAF1ABF0ABB
:102B1000A1CF8091D10681FD64CE0E94FA209093CE
:102B2000D0068093CF068091D10682608093D10633
:102B300058CE8091CE060631ECE51E0709F58A7A5B
:102B400091E009F490E090939D05882311F065E3EE
:102B500001C069E286E796E00E943C210EC0063182
:102B60001C4509F08BC080919D05882309F45EC344
:102B700065E386E796E00E942F210E947E281ACD09
:102B80008272F801E25CFC45EB30F10508F043C0CD
:102B9000E159FF4F0C949E368091BF0791E0892741
:102BA0008093BF07109215019093D50603CD4DE198
:102BB0005BE267E27BE22CC047E25BE26DE17BE235
:102BC00027C040EF5AE26AEF7AE222C04AEF5AE2A7
:102BD00060EF7AE21DC046ED5AE263EE7AE218C079
:102BE00043EE5AE266ED7AE213C04CEB5AE269EC2E
:102BF0007AE20EC049EC5AE26CEB7AE209C049EE87
:102C000058E265EF78E204C045EF58E269EE78E2F9
:102C10000E94A32ACFCC992389F10A35EDE51E073E
:102C200041F150F401152CE51207A9F00E3D1C45A9
:102C300029F50E944D26BECC0B359DE51907D9F02C
:102C40000C351D45D9F480914B0282FB882780F911
:102C500091E0892711C00E94EF1BFFEF24E38CE075
:102C6000F15020408040E1F700C000000E94952014
:102C7000A1CC81E001C080E00E94C926F6018681D6
:102C800097810097B9F4F601828100811181882330
:102C900049F0C8010E944619F82E682FC8010E9409
:102CA000A31B04C0C8010E94731BF82EB8018F2D0E
:102CB0000E9492230E94A824F82E192FF601E28088
:102CC000058102950F708091CB06877099F0EE20F8
:102CD00089F0892F807F803421F080E28F0D883049
:102CE00048F082E00E94EA268091CB068770BB24E0
:102CF000B3948111B12CA12EA2948FE0A8228A2D29
:102D000090E08C30910508F0DBC1FC01E658FF4FE4
:102D10000C949E36812F807F1F70882311F01295AE
:102D2000107FEE20B9F0112309F4ACC180E28F0DC1
:102D3000883010F0F11006C09091CE06192B109338
:102D4000CE0605C09091CD06192B1093CD060E949A
:102D50007E2898C18F2D0E94A61C112309F4B0C1B2
:102D600080E28F0D883010F0F11004C0812F0E9496
:102D7000C22606C010959091CD0619231093CD065A
:102D80000E947E289DC1812F807F1F70803211F0AC
:102D90001295107FFF2021F0F1E0FF1691F13BC06A
:102DA000EE20D9F00023A9F0013031F48091D10652
:102DB000812B0E946A2884C1053059F40E94B726ED
:102DC0008091C80618131093C806812F0E949C1C7E
:102DD00077C18091D106812BF9CF002349F00130D2
:102DE00069F48091CE06812309F46AC10E94072705
:102DF0000E94B726812F0E94951C62C10530C1F741
:102E00005FC1EE2021F0063008F05AC1DECF053058
:102E100008F056C1EFCFEE2019F00023B1F232C115
:102E2000002341F329E3F21208C08FEF97EEE3E0AD
:102E300081509040E040E1F73EC1FFE728E381E0A8
:102E4000F15020408040E1F736C1812F869586956C
:102E5000837019F0813061F033C1EE2021F08F2DA5
:102E6000912F937002C080E090E00E946C212EC1EF
:102E7000EE2021F08F2D912F937002C080E090E022
:102E80000E94562123C1812F8370A9F5E1101CC136
:102E90004F2D429546954770440F440F8F2D8F70EC
:102EA00090E09C01042E01C0220F0A94EAF7F4FE80
:102EB00008C08FE090E001C0880F4A95EAF780953E
:102EC00001C080E0169516951370123069F088F4F1
:102ED00090915407113019F0822B892302C0922B54
:102EE000892B0E94EB1BF0C0822B909154078927FD
:102EF000F8CF822BF6CFEE2019F0812F817001C020
:102F00008695882309F4E0C04F2D42954695477079
:102F1000440F440F8F2D8F7090E09C01042E01C050
:102F2000220F0A94EAF7F4FE08C08FE090E001C097
:102F3000880F4A95EAF7809501C080E016951695AE
:102F40001370123059F078F49091C507113019F0D0
:102F5000822B892309C0922B892B06C0822B90914A
:102F6000C507892701C0822B0E94D01BADC01F70EE
:102F7000EE2039F0812F0E94E01B8F2D0E949C1CB7
:102F8000A3C08F2D0E94951C812F0E94D41B9CC032
:102F900092EFF91659F19F1538F0E0EFFE1659F04F
:102FA000F1EFFF16E1F069C023EFF21631F184EF83
:102FB000F81681F162C0EE2071F0053008F080C093
:102FC0001F7181E090E001C0880F1A95EAF7909197
:102FD000C50789271CC0063008F072C0F1CFEE206B
:102FE00039F0812F8F710E94E01B6AC0EE20C9F377
:102FF000812F8F710E94D41B63C0EE2039F01F71A6
:1030000081E001C0880F1A95EAF701C080E00E94B4
:10301000D01B56C0EE20D1F08091C8060E94C22677
:103020008091CB068770843039F40E94E326812F8B
:103030008F710E94D41B66C0053008F063C01F71F9
:10304000812F0E94E01B63E0812F10C09091CE067B
:103050008091C806892B8093CE06053050F00E94DF
:10306000E3260E94072764E0812F8F710E94BB280E
:1030700049C081E00E94EA2645C0EE2039F00023D5
:1030800009F4AFCF8F2D0E94FD1C1AC0002309F454
:10309000AFCF99E3F91208C0EFEFF7EE23E0E1506C
:1030A000F0402040E1F707C08FE798E3E1E081506E
:1030B0009040E040E1F700C000008F2D0E94A61C68
:1030C00088EF8A0D843010F40E948221BB20A9F081
:1030D0008091CB0680FD11C0F60112828595859501
:1030E00085950E94E01BC6010E9421128091CB06AB
:1030F0008595859585950E94D41B60E0C6010E9448
:10310000E531A5C0B12CE0CF0131EFE51E0709F094
:103110006DCA82E04BCA0238FFE51F0709F42ACBCB
:1031200008F036CB00388FE5180709F051CB8CCC6E
:1031300081E0809399050E94822181FD52CB89E331
:103140000E94991D4ECB02382FE5120709F412CBCD
:1031500008F059C000389FE5190709F442CB01383F
:10316000EFE51E0709F439CB033F2CE51207A1F464
:1031700006E221EE40EE63EF7CE50AC0073DFCE588
:103180001F0709F02ECB06E221EE41EE67ED7CE54C
:10319000C6010E94E9220ECA043F8CE51807A0F47C
:1031A000083D9CE5190731F407E225EE45EE68ED90
:1031B0007CE5EECF093DECE51E0701F708E221E0D2
:1031C00045EE69ED7CE5E4CF053F2CE5120731F4CF
:1031D00006E221EE42EE65EF7CE5DACF053F8CE5B5
:1031E000180730F407E225EE44EE64EF7CE5D0CF1B
:1031F000063F9CE5190709F0F4CA07E225EE46EE02
:1032000066EF7CE5C5CF0338FFE51F0749F4F601FB
:103210008281882309F4E5CA82E080939C0514C06A
:1032200004382FE5120709F4BDCA9ECF69E2A1CC8C
:103230008DE2E816F10409F47DCA9DE2E91692E0F8
:10324000F90609F08FCA76CAF6019281CFCA0F90AB
:103250000F900F900F90DF91CF911F910F91FF90E2
:10326000EF90DF90CF90BF90AF909F908F90089598
:1032700080E090E00E946C2180E090E00E94562166
:103280001092CD061092CC060C947E28CF92DF923D
:10329000FF920F931F93CF93DF936C010091C507AB
:1032A00080915407082BC7E0D0E010E0C8010C2E35
:1032B00002C0959587950A94E2F780FD04C0219796
:1032C000A8F7F12C09C0FC2EB6018C2F0E94922386
:1032D0000E94A824019799F38F2DDF91CF911F9120
:1032E0000F91FF90DF90CF900895CF93DF93EC0183
:1032F0000E944619BE010E9492230E94A824DF91D9
:10330000CF910895FC0186819781009719F00E9462
:10331000A82404C0808191810E947519292F2F70E3
:10332000E92FE295EF704E2F50E0FA013297EE3020
:10333000F105B8F4EA57FF4F0C949E36803F99F0A0
:1033400018F4883E70F40FC0843F59F40CC0883ED6
:1033500050F0813F31F407C0822F8695869586957F
:10336000089580E0089581E008959F92AF92BF9202
:10337000CF92DF92EF92FF920F931F93CF93DF9341
:10338000CDB7DEB765970FB6F894DEBF0FBECDBFE1
:103390008C0185E0F801DE01519601900D928A952D
:1033A000E1F7F801E28090917E0660917F064091FE
:1033B0008106509182064115510531F06F3F31F47D
:1033C00081E09F3F19F403C081E001C080E0F82F45
:1033D000F1709F2E80FD37C1F80130812181C380BB
:1033E000D4807EE7A72E76E0B72EF0908006F60117
:1033F000E41BF50BFF2009F4F5C080918306E83C3F
:10340000F10508F0B0C0482F407F09F05AC06213A0
:103410001BC0931319C06091840670918506F80152
:10342000468157816417750779F4FE2CE1100CC0B2
:103430008F70806180938306C5010E942112809164
:103440008306F80185833CC1CD2831F02F3F31F44C
:1034500081E03F3F19F403C081E001C080E080FDBE
:1034600003C081E08E2502C080E090E0F82FF1706B
:10347000FF2E80FF1CC08091C706409186068417EE
:1034800009F4FCC090E0FC0153E0EE0FFF1F5A95D9
:10349000E1F7E957F94F5181251306C050815313C5
:1034A00003C05281E51203C001968770E8CFFE2C5D
:1034B000EE2009F405C18091830681608093830624
:1034C0005EC0621315C0931313C0409184065091DF
:1034D0008506F801268137814217530749F4E11028
:1034E00007C08583C8010E94211288E0F80190C0BE
:1034F000C8010E948219882381F1EE2071F1209188
:103500008306822F82958F7090E00297A4F08091BD
:103510007E0690917F069A8789871B86DD86CC86FA
:103520002E878091840690918506988B8F87CE0197
:1035300009960E94211288E0F801AEE7B6E00190FA
:103540000D928A95E1F70E9417270AC06217C9F009
:10355000C8010E948219811127C0C8010E9421124E
:10356000FF24F394ADC0482F407F81F78EE796E0AB
:103570000E94211288E0F50111928A95E9F7F12C59
:103580009FC09313E5CF4091840650918506F801C2
:103590002681378142175307D9F6E110D9CF8583A9
:1035A000C8010E94211249C0EE20B9F22091830681
:1035B000822F82958F7090E002970CF4BCCF80919F
:1035C0007E0690917F069A8389831B82DD82CC825E
:1035D0002E83809184069091850698878F83CE01F3
:1035E0000196A7CFE83CF10540F5FE2CEE2009F44A
:1035F000B4CF621314C0931312C02091840630918B
:103600008506F801868197812817390741F488E0FB
:10361000AEE7B6E001900D928A95E1F751C0C8017E
:103620000E948219811187CF8091830681608093E7
:103630008306C8010E94211243C088E0F50111925F
:103640008A95E9F73DC0EE2009F487CFC8010E94B2
:103650008219F82E882309F480CF88E0F801AEE7BC
:10366000B6E001900D928A95E1F780917E069091E7
:103670007F060E9475190E94172722C0398B2A8B5A
:1036800089899A890E947519292F22952F702230D5
:1036900028F49F7039F0811105C00BC0243028F444
:1036A0009F7049F4805E883020F0C8010E9421128A
:1036B0009F2CF92C05C0F8019581907F99F7F9CFDF
:1036C0008F2D65960FB6F894DEBF0FBECDBFDF918C
:1036D000CF911F910F91FF90EF90DF90CF90BF900F
:1036E000AF909F9008959E3F61F128E0929F800DDA
:1036F0001124682F669566956695982F977083E0DC
:10370000689FB001112440E050E080E0FB01E40F2D
:10371000F51FE256FA4F208130E0092E02C036959F
:1037200027950A94E2F721703327042E01C0220F57
:103730000A94EAF7822B4F5F5F4F4330510531F710
:10374000089580E008959E3F51F128E0929F800DFA
:103750001124E82FE695E695E695877051E001C0C3
:10376000550F8A95EAF783E0E89FF0011124E256AD
:10377000FA4F20E030E070E04081CB01022E02C021
:10378000969587950A94E2F7817081958427852321
:10379000842781932F5F3F4F2330310569F70895C8
:1037A0008093C5070C94381921E030E001C0220F46
:1037B0008A95EAF720958091C50782230C94D01B47
:1037C00021E030E001C0220F8A95EAF78091C50719
:1037D000822B0C94D01B809354070C9438191092B0
:1037E000CE0686E0E8E7F6E0DF011D928A95E9F76C
:1037F0000C943819CF93DF93CDB7DEB760970FB62F
:10380000F894DEBF0FBECDBF29873A874B875C8710
:103810006D877E878F87988BCE0109960E94B51998
:10382000811151C088E0FE013996DE0111960190A8
:103830000D928A95E1F779856A854C855D854115FC
:10384000510531F06F3F31F481E07F3F19F403C03F
:1038500081E001C080E080FD36C0A0918606B0E026
:10386000CD010196877099272091C70630E0821715
:10387000930781F179836A835D834C8393E0AA0F78
:10388000BB1F9A95E1F7A957B94F98E0FE01319611
:1038900001900D929A95E1F7809386060E940D277C
:1038A00012C028E0829FC00111248957994F0E94BD
:1038B000B5198823E1F08091C70690E001968770E2
:1038C00099278093C7068091C70690918606891331
:1038D000E8CF0DC00E94EF1B109286061092C7061B
:1038E000EEE7F6E088E0DF011D928A95E9F7609641
:1038F0000FB6F894DEBF0FBECDBFDF91CF91089514
:10390000882341F080959091CD0689238093CD0640
:103910000C947E280895882339F09091CD06892B48
:103920008093CD060C947E280895882321F00E9470
:10393000C2260C947E280895882339F09091CE06F3
:10394000892B8093CE060C947E280895882309F451
:1039500053C0682F823869F40E94822181FF4CC0D5
:1039600069E386E796E00E943C210E947E2869E395
:103970000EC0833891F40E94822180FF3DC063E530
:1039800086E796E00E943C210E947E2863E586E758
:1039900096E00E942F210C947E28843869F40E94BE
:1039A000822182FF29C067E486E796E00E943C21DD
:1039B0000E947E2867E4EBCF8CEF860F813A38F3C4
:1039C00080E2860F883048F4677081E001C0880F7C
:1039D0006A95EAF70E94C226DECF8BE5860F833018
:1039E00020F480E090E00C946C21685A673120F458
:1039F00080E090E00C9456210895CF93882309F439
:103A000096C0C82F8238B1F40E94822181FD8FC0F8
:103A100069E386E796E00E943C210E947E282FEF12
:103A200081EE94E0215080409040E1F700C000001A
:103A300069E317C08338E1F40E94822180FD77C0DA
:103A400063E586E796E00E943C210E947E282FEFE6
:103A500081EE94E0215080409040E1F700C00000EA
:103A600063E586E796E00E942F21CF910C947E2893
:103A70008438B1F40E94822182FD59C067E486E750
:103A800096E00E943C210E947E282FEF81EE94E078
:103A9000215080409040E1F700C0000067E4E1CF92
:103AA0008CEF8C0F813A80F4E8E7F6E08EE796E041
:103AB0002191C217A1F18E179F07D1F76C2F86E7CE
:103AC00096E00E943C21D1CF80E28C0F883068F4D0
:103AD000C77081E090E001C0880FCA95EAF7909125
:103AE000CE06892B8093CE06C0CFEBE5EC0FE330FA
:103AF00040F4F0E0EF5AFE4F808190E0CF910C94BB
:103B00006C21C85AC73198F4EC2FF0E0EE0FFF1F7C
:103B1000EC5AFE4F80819181CF910C9456216C2FED
:103B200086E796E00E942F210E947E28C7CFCF9182
:103B300008951F93CF93DF93182F893319F0C9E1AC
:103B4000D0E002C0C0E5D0E0812F0E94FD1C8FE9CB
:103B50009FE00197F1F700C000002197C1F7812F86
:103B6000DF91CF911F910C94A61C08958091A60718
:103B700008959091BA07943029F580937206709356
:103B80007406609373069093E9008FEF9091E800BC
:103B9000815095FD06C095ED9A95F1F700008111D1
:103BA000F5CF8091E80085FF0DC040E050E063E074
:103BB00070E082E796E00E94C72D8091E8008E7742
:103BC0008093E8000895BC0184E00C94B91DBC0109
:103BD00083E00C94B91DCF93DF9321E02093E9009B
:103BE0002FEF3091E800215035FD06C035ED3A95B4
:103BF000F1F700002111F5CF2091E80025FF14C056
:103C0000EC0140E050E068E070E00E94C72D809138
:103C1000E8008E778093E80088E0FE01A7EAB7E02D
:103C200001900D928A95E1F7DF91CF9108951F924F
:103C30000F920FB60F9211242F933F934F935F93E0
:103C40006F937F938F939F93AF93BF93CF93DF93A4
:103C5000EF93FF93C091E900CF708091EC00D82FD3
:103C6000D17080FDD0E81092E9008091F000877F4C
:103C70008093F00078940E94192E1092E9008091B0
:103C8000F00088608093F000CD2BCF70C093E900E6
:103C9000FF91EF91DF91CF91BF91AF919F918F9164
:103CA0007F916F915F914F913F912F910F900FBE38
:103CB0000F901F901895E8EDF0E080818E7F808353
:103CC0001092E2001092DA001092E100A0EEB0E053
:103CD0008C9181608C9380818F77808319BCA7ED54
:103CE000B0E08C918E7F8C9380818F7E8083109248
:103CF000750608952091E4003091E50095E6409125
:103D0000EC00842F817040FF23C08091E80080FD8B
:103D10001DC08091BA07882399F0853099F0809171
:103D2000EB0085FD11C04091E4005091E50024179F
:103D3000350729F3915011F09A01E1CF84E00895FD
:103D400082E0089583E0089581E0089580E0089579
:103D50004091E80042FFDDCF08958091B20787FFD0
:103D600011C08091E80082FD05C08091BA078111E1
:103D7000F8CF11C08091E8008B770BC08091BA0713
:103D8000882349F08091E80080FFF8CF8091E80017
:103D90008E778093E8000895982F973068F5909378
:103DA000E900981739F07091EC002091ED005091E6
:103DB000F00003C0242F762F50E021FD02C09F5F4A
:103DC000ECCF3091EB003E7F3093EB003091ED0073
:103DD0003D7F3093ED003091EB0031603093EB008C
:103DE0007093EC002093ED005093F0002091EE00D2
:103DF00027FDE5CF80E008958F708093E90081E092
:103E00000895CF92DF92EF92FF920F931F93CF937B
:103E1000DF93C8EDD0E088818F7E8883E7EDF0E006
:103E200080818160808384E082BF81E08093750619
:103E300088818E7F888302EE10E0F8011082109254
:103E4000DA0081EEC82ED12CF601108288818F779E
:103E5000888388818068888388818F7D888319BC66
:103E60001092BA071092B1071092B0071092AF07E4
:103E700090EEE92EF12CF70180818B7F8083888181
:103E80008160888342E060E080E00E94CC1EF60101
:103E900080818E7F8083F801808181608083808132
:103EA00088608083F70180818E7F80838881806134
:103EB0008883DF91CF911F910F91FF90EF90DF905A
:103EC000CF9008951F920F920FB60F9211242F9347
:103ED0003F934F935F936F937F938F939F93AF9392
:103EE000BF93EF93FF938091E10082FF09C080911F
:103EF000E20082FF05C08091E1008B7F8093E100AA
:103F00008091DA0080FF2AC08091D80080FF26C00F
:103F10008091DA008E7F8093DA008091D90080FF53
:103F200018C080E189BD82E189BD09B400FEFDCFE2
:103F300081E08093BA078091750681110FC00E94BD
:103F40005B1E0E94011F8091E20084608093E2006A
:103F500005C019BC1092BA07109275068091E10055
:103F600080FF17C08091E20080FF13C08091E200C3
:103F70008E7F8093E2008091E20080618093E20076
:103F80008091D80080628093D80019BC85E080932E
:103F9000BA078091E10084FF2EC08091E20084FF87
:103FA0002AC080E189BD82E189BD09B400FEFDCF50
:103FB0008091D8008F7D8093D8008091E1008F7E22
:103FC0008093E1008091E2008F7E8093E2008091F7
:103FD000E20081608093E2008091B107882311F0B4
:103FE00084E007C08091E30087FD02C081E001C04A
:103FF00083E08093BA078091E10083FF27C080911E
:10400000E20083FF23C08091E100877F8093E1007D
:1040100082E08093BA071092B1078091E1008E7F11
:104020008093E1008091E2008E7F8093E200809196
:10403000E20080618093E20042E060E080E00E9464
:10404000CC1E8091F00088608093F000FF91EF918A
:10405000BF91AF919F918F917F916F915F914F91A0
:104060003F912F910F900FBE0F901F9018952091A8
:10407000B8073091B9072617370748F06115710561
:1040800039F42091E8002E772093E80001C0B901AF
:10409000FC0120E06115710579F18091BA07882350
:1040A000F1F18530F1F18091E80083FD3CC0809111
:1040B000E80082FD2EC08091E80080FFEBCF2091C8
:1040C000F3008091F20090E0922B6115710551F0A0
:1040D0008830910538F421912093F10061507109E5
:1040E0000196F3CF21E0089709F020E08091E800E5
:1040F0008E778093E800CECF2111CFCF0AC0809178
:10410000BA07882361F0853061F08091E80083FD73
:104110000AC08091E80082FFF2CF80E0089582E03B
:10412000089583E0089581E0089581E08093E000A0
:1041300080E28093D8001092C9008FE19EE401973D
:10414000F1F700C0000087E090EBDC018093C60728
:104150009093C707A093C807B093C9079CE088E174
:104160000FB6F894A895809360000FBE90936000FE
:10417000FFCF78941F920F920FB60F9211248F9356
:104180009F93AF93BF9380916E0690916F06A0911D
:104190007006B09171060196A11DB11D80936E0647
:1041A00090936F06A0937006B0937106BF91AF9184
:1041B0009F918F910F900FBE0F901F9018959C01AB
:1041C0004FB7F89480916E0690916F06A09170069B
:1041D000B09171064FBF821B930B08952FB7F894CF
:1041E00060916E0670916F068091700690917106D5
:1041F0002FBF08952FB7F89480916E0690916F06A7
:10420000A0917006B09171062FBF08951F920F9272
:104210000FB60F9211248F939F93AF93BF9380910A
:104220006D06811113C080916E0690916F06A0916A
:104230007006B09171064196A11DB11D80936E0666
:1042400090936F06A0937006B0937106BF91AF91E3
:104250009F918F910F900FBE0F901F9018959C010A
:104260002A5F3F4FFC014281461301C01282019632
:1042700082179307B9F708959C01FC0132969FEFCE
:1042800080E04191461789F09F3F19F4411101C028
:10429000982F8F5F8630A9F79F3F39F0F901E90F1A
:1042A000F11D97FDFA9562830895089520916B069C
:1042B00030916C062817390771F090936C06809343
:1042C0006B06E0916906F0916A06309721F0008450
:1042D000F185E02D099408952091670630916806D4
:1042E0002817390771F09093680680936706E0916C
:1042F0006906F0916A06309721F00680F781E02D7B
:1043000009940895E0916906F0916A06309721F0CA
:104310000190F081E02D099480E00895BC01409166
:10432000630680916406942F981729F1292F30E0B5
:10433000F901EE0FFF1FE55AF94F0190F081E02DD2
:10434000E617F70799F487E0869FF001879FF00D45
:104350001124ED5DF94F81E0848394130CC02F5F2D
:104360003F4F237033272093630608952F5F3F4FFD
:10437000922F9370D9CF08950F931F93CF93DF930C
:104380008091C205882309F451C0C091C1051CE089
:104390008091C205C81708F045C001E00C0F0093DA
:1043A000C105D0E01C9FF0011D9FF00D1124ED53BD
:1043B000FA4F9081818123813481232B31F08F3F0B
:1043C00031F481E09F3F19F403C081E001C080E037
:1043D00080FD26C01C9FD0011D9FB00D1124AD5340
:1043E000BA4F16968D919C911797892B31F4189698
:1043F0008D919C911997019651F4208131814281D0
:10440000538164817581868197810E94FA1B1C9F6C
:10441000F0011D9FF00D1124ED53FA4F1482138209
:10442000C02FB6CF1092C2051092C105DF91CF9177
:104430001F910F9108951092C0051092BF05E3E2FD
:10444000F6E08581811102C014821682379686E0DB
:10445000EB35F807B1F708951092660610926506DD
:104460001092140180916406809363060E941B22BF
:104470000C94BC213F924F925F926F927F928F92E9
:104480009F92AF92BF92CF92DF92EF92FF920F93E3
:104490001F93CF93DF93C091630697E0892E01E0CD
:1044A00010E02CE0322E3EEF932E44244394809172
:1044B0006406C81709F478C0D0E0FE01EE0FFF1FB4
:1044C000E55AF94F80819181889ED001899EB00D77
:1044D0001124AD5DB94F14962C911497211161C030
:1044E0005090C205E3ECF5E020E030E0712C5D0176
:1044F000251508F054C0E284F384D501CD90DC90FA
:104500006FEF7FEF612C462D50E0DA01AA0FBB1F41
:10451000AC0DBD1D0D90BC91A02D109731F0EA1689
:10452000FB0609F4BA016394EECF6F3FBFEF7B0740
:1045300091F1D80102C0AA0FBB1F6A95E2F77A2A4F
:10454000B80102C0660F771F6A94E2F7AB014150D1
:104550005109672D70E046175707D9F4329EF001D4
:10456000339EF00D1124ED53FA4F889ED001899EA1
:10457000B00D1124AD5DB94F12962D913C9113975A
:1045800037832683908291829187808715964C92FB
:1045900006C0148213822F5F3F4F3C96A9CF0E9422
:1045A0008E212196C37083CF0E94BC21DF91CF91D1
:1045B0001F910F91FF90EF90DF90CF90BF90AF9041
:1045C0009F908F907F906F905F904F903F900C9452
:1045D0001B220F931F93CF93DF93C42FD22FFC0185
:1045E00082818823C9F04093BE050E94FA209093EF
:1045F000BD058093BC0580E28C0F883008F057C061
:10460000C77081E001C0880FCA95EAF7DF91CF91AA
:104610001F910F910C949C1C8091BE05481330C0D3
:104620008091BC059091BD050E94DF20883C9105DA
:1046300038F510E21D0FCD17B9F080E28C0F8830ED
:1046400040F4C77081E001C0880FCA95EAF70E9464
:10465000951C183028F581E09D2F977001C0880FB8
:104660009A95EAF70E949C1C802F0E94991D183091
:10467000F0F4D77081E001C0880FDA95EAF70AC03C
:1046800080E28C0F883098F4C77081E001C0880FF9
:10469000CA95EAF7DF91CF911F910F910C94951C69
:1046A000802FDF91CF911F910F910C94991DDF9175
:1046B000CF911F910F9108958091BB058823F9F048
:1046C0000E94EE20DC01CB01805A9541AF4FBF4FD5
:1046D0008093B6059093B705A093B805B093B9053C
:1046E0008091BA0581110BC062E070E081E396E031
:1046F0000E94502D892B19F481E08093BA05809196
:10470000BA050895CF93DF93C3E9D2E060E0CE010C
:104710000E942F362196C11584E0D807B9F7DF91A2
:10472000CF910895462F2091B4053091B505232BE4
:1047300091F47E3F39F46E3F71F48091B20590910F
:10474000B3050895853038F4763028F4683018F4CD
:10475000672F0C94D62980E090E008954F925F92E5
:104760006F927F928F929F92AF92BF92CF92DF9281
:10477000EF92FF920F931F93CF93DF93CDB7DEB7E6
:104780002A970FB6F894DEBF0FBECDBF6090B0057C
:104790007090B10581E090E09093B1058093B005F1
:1047A00095E1A92E94E0B92EC12CD12C512C412C8D
:1047B000E12CF12C00E010E047018C0C9D1CF40171
:1047C000E00FF11FEE0FFF1FEF5AFB4F25913491C1
:1047D000402F642D852D0E94A0290F5F1F4F0830A8
:1047E000110569F788E0E80EF11C439496E0491240
:1047F000E1CF750110E0F7012591349140E0612F80
:10480000852D0E943829F70132962591349141E097
:10481000612F852D0E943829E4E0EE0EF11C1F5F08
:10482000133049F7FCE0AF0EB11C539480E3C80E7F
:10483000D11C95E05912BBCFFE0131967F018AE071
:1048400011928A95E9F703E412E04AE050E0B801DA
:10485000C7010E945336065F1F4F0339F2E01F075E
:10486000A1F77092B1056092B0052A960FB6F89440
:10487000DEBF0FBECDBFDF91CF911F910F91FF9093
:10488000EF90DF90CF90BF90AF909F908F907F90F0
:104890006F905F904F90089580E0089590914A0244
:1048A00092FF0DC0282F2871283019F4877F84606B
:1048B00006C0282F2471243011F48B7F886093FF69
:1048C0000DC0282F2871283119F4877E846106C015
:1048D000282F2471243111F48B7E886120914B02A2
:1048E00020FF0DC0382F3871383019F4877F816070
:1048F00006C0382F3171313011F48E7F886021FF6E
:104900000DC0282F2871283119F4877E816106C0D7
:10491000282F2171213111F48E7E886194FD877ECC
:104920000895F894E82FE295EF70F0E031A1282F78
:104930002F7081E090E001C0880F2A95EAF7982F48
:104940009095932391A392A1892B82A378940895A3
:10495000CF93DF938238910569F1B0F481339105EB
:1049600009F46FC048F48932910509F465C08A32B0
:10497000910509F46BC08AC08533910509F457C0CD
:1049800089339105B9F082C0833E910571F138F405
:10499000803E9105B1F0823E910511F177C0863ECF
:1049A0009105B9F1873E9105C9F1843E910509F061
:1049B0006DC024C020914A0220FD53C021FD51C08A
:1049C00065C080914A0280FD46C080914B0280FF05
:1049D00048C080914A0284FD3FC183EE90E03EC111
:1049E00080914A0282FF3AC0F4CF80914A0282FD50
:1049F00035C080914B0280FD34C0EBCF80914B02DB
:104A000081FF35C080914A0284FD26C187EE90E087
:104A100025C180914A0283FF27C0F4CF80914A02CA
:104A200083FD22C080914B0281FD21C0EBCF80919C
:104A30004A0285FD1FC021C080914A0285FD1DC02C
:104A400019C080914A0286FD1BC01DC080914A0298
:104A500086FD19C015C089E390E000C182EE90E0A8
:104A6000FDC080EE90E0FAC086EE90E0F7C084EEE4
:104A700090E0F4C089E290E0F1C085E390E0EEC000
:104A80008AE290E0EBC081E390E0E8C0811532E576
:104A9000930708F069C0811541E5940728F0982F25
:104AA0008827816F906ADAC0883E910568F5803E5C
:104AB000910508F0D3C0883A9105B8F4853A91057C
:104AC00048F0855AE82FF0E0EF5AFE4F808190E0E1
:104AD0009064C4C08130910509F4BBC008F4BCC027
:104AE0008430910508F4B8C0B9C08F3B910508F037
:104AF000B3C0885AE82FF0E0EE0FFF1FEC5AFE4FCC
:104B0000808191819464AAC0811520E59207F0F01C
:104B10009C0174E0369527957A95E1F7922F937072
:104B2000482F437021E030E002C0220F331F4A9526
:104B3000E2F73C68392B8F70982F9695969540E256
:104B4000949FC0011124822B932B88C0811530E4DF
:104B5000930718F09F70906A81C09C013A952115C7
:104B60003F4108F47BC078C0EC01C11586E5D80749
:104B7000E8F5C11525E5D20748F08C2F0E944E2498
:104B80008F7190E0982F8827906268C0C11534E536
:104B9000D30728F09C2F8827846F906A5FC0AE01EE
:104BA000437055272C2F26952695C115D34578F4AB
:104BB00081E090E002C0880F991F4A95E2F740E239
:104BC000249F90011124822B932B9C6847C081E085
:104BD00090E002C0880F991F4A95E2F740E2249FB7
:104BE00090011124822B932B9A6838C0C1152AE5B5
:104BF000D207F8F4C11539E5D30790F08C2F8F70E8
:104C00000E944E2494E0D695C7959A95E1F7CF700F
:104C1000D0E0DC2FCC27D0699E01282BC9011EC013
:104C2000C11548E5D407C0F09C2F8827806F906A93
:104C300015C0CE0190568115904270F48D2F8F7162
:104C40000E944E24282F2F71CE0199279062922B1B
:104C500005C081E090E002C080E090E0DF91CF915C
:104C60000895CF9384E090E00E941136C82F82E22D
:104C700090E00E9411362C2F30E0A901582BCA0178
:104C8000CF91089580E090E00E9419368A3E9E4FB1
:104C900011F40C948A2A80E008956AEE7EEF80E099
:104CA00090E00E944D3660E082E090E00E942F3656
:104CB00060E083E090E00E942F361092540760E09D
:104CC00084E090E00E942F3660E082E290E00E9453
:104CD0002F3660E085E090E00E942F3660E086E0AD
:104CE00090E00E942F366FEF87E090E00E942F3611
:104CF00040E050E0BA0188E090E00E94413660E078
:104D00008DE090E00E942F3640E050E0BA0188E14B
:104D100090E00E94413660E087E190E00E942F36EB
:104D200040E050E0BA018CE190E00E94413660E042
:104D300070E080E290E00E944D3640E050E0BA0121
:104D400088E190E00E94413680E00E945D2A0E9446
:104D50007B2A40E050E0BA018FE090E00E944136AB
:104D600040E050E0BA0183E190E00C94413680913C
:104D7000D106882331F01092D1061092D0061092FD
:104D8000CF06089580959091CE0689238093CE0614
:104D90000895CF93C0914B02C2FB992790F99817C1
:104DA00081F080FBC2F9C0934B0260914A0284E01B
:104DB00090E00E942F366C2F82E290E0CF910C940D
:104DC0002F36CF9108951092CB061092CA061092FA
:104DD000C90608952091CB06809582238093CB0647
:104DE000982F977041F430E0482F082E000C550B97
:104DF0002417350721F490914B0292FF07C0859547
:104E0000859585950E94D41B0C94E3260895809186
:104E1000C80681111092C80608958091C706909126
:104E20008606891719F08F5F8770FBCF08951F934F
:104E3000CF93DF938091830682958F7009F05CC0D9
:104E400080918006882309F457C08091C70610918D
:104E5000860660917E0670917F06C0918106D09192
:104E6000820691E06F3F09F090E0292F811709F445
:104E700043C0209721F07F3F21F030E003C031E0B4
:104E800001C0322F90E030FD34C0FC0133E0EE0F62
:104E9000FF1F3A95E1F7DF01A957B94F11963C91F1
:104EA0001197371326C03C91361323C012963C91BC
:104EB000129731111EC013964D915C9114974C1BA3
:104EC0005D0B483C5105A8F4809183068F7080618A
:104ED00080938306E457F94F80818F7080618083CF
:104EE0008EE796E00E942112DF91CF911F910C94E2
:104EF0000D2701968770BACFDF91CF911F9108954A
:104F00009F92AF92BF92CF92DF92EF92FF920F9358
:104F10001F93CF93DF9300D000D000D0CDB7DEB782
:104F2000AE014F5F5F4F7A0186E0FA0111928A95D8
:104F3000E9F705E211E05A01CC24C394D12CF80121
:104F400080818F3F09F447C0F894E82FE295EF7015
:104F5000F0E021A18F70A60102C0440F551F8A9571
:104F6000E2F7CA01922F982B91A392A180958923F1
:104F700082A3789400C0EBE2F1E020E030E0912CD5
:104F800041914F3FB1F0A42FA295AF70B0E0909641
:104F90008C9190E04F7002C0959587954A95E2F705
:104FA00080FD07C08C2D022E01C0880F0A94EAF7FD
:104FB00001C080E0982A2F5F3F4F2830310501F76C
:104FC000F80180818F3F11F00E949124F0EAFA9558
:104FD000F1F7F50190820F5F1F4FFFEFAF1ABF0A85
:104FE00041E00B32140709F0AACF46E050E0B701C8
:104FF0008CE492E00E94CD3611E0009709F410E0B5
:10500000892B89F086E0F701ACE4B2E001900D92C3
:105010008A95E1F781E08093D4060E94FA2090936C
:10502000D3068093D2068091D4068823A1F0809184
:10503000D2069091D3060E94DF20059760F0ECE441
:10504000F2E0A3E9B5E081918D9352E0E235F507F6
:10505000D1F71092D40680911401882341F18091F8
:10506000650690916606009711F10E94DF2020915D
:10507000BF053091C00528173907C8F49091630621
:1050800080916406981759F00E943A221092C00548
:105090001092BF05109266061092650608C00E9425
:1050A000BC2110926606109265060E941B22812F79
:1050B00026960FB6F894DEBF0FBECDBFDF91CF911D
:1050C0001F910F91FF90EF90DF90CF90BF90AF9026
:1050D0009F900895CF9390914B0292FD0DC09091B7
:1050E000D106981749F0C82F0E94FA209093D00655
:1050F0008093CF06C093D106CF9108959091CE06AC
:105100008091CD06892B9091CC06892B80937606D1
:105110008091D106882311F10E94FA202091CF06B8
:105120003091D006821B930B8838934110F00E9477
:10513000B726909176068091D106892B80937606CA
:10514000E8E7F6E097E080E0915029F021912223F2
:10515000D9F38F5FF9CF81110E94B726E0916906DC
:10516000F0916A06309731F00280F381E02D86E7F6
:1051700096E00994089590914B0292FD10C098E03A
:10518000899F90011124262B2093CB060E94E01BBF
:105190000E94FA209093CA068093C90608950C9441
:1051A000E01BE6EDF6E097E0E435F90729F08183AE
:1051B000608342833396F7CF0895FC01EE0FFF1F03
:1051C0008E0F9F1FFC01EA52F94F618340832283B7
:1051D0000895EFEBF7E0248130E1231B08F420E091
:1051E000248381E08093D5060895EFEBF7E02481D6
:1051F00030E1230F08F42FEF248381E08093D5065C
:105200000895E42FF0E0EE0FFF1FE753FE4F90816B
:10521000921B97FD9195292F38E1239F212D112471
:10522000620F0895539A8BB1877F9BB198602FB717
:10523000F894E6EDF6E037E0E435F30789F03191D4
:1052400048E09BB9000000C037FF8BB9330F000066
:1052500000C000C000C08BB900C04A9591F7EBCFE9
:105260002FBF8FE594E00197F1F700C0000008958B
:105270000F931F93CF93DF93853068F5633058F514
:10528000423048F521159CE5390731F4E091B0052D
:10529000F091B105EF2BF9F08901282F34E0639FDD
:1052A000C00111243CE0239F800D911D1124840F27
:1052B000911D840F911DEC01C95FDD4F612FCE015F
:1052C0000E942F36602FCE010196DF91CF911F9162
:1052D0000F910C942F36DF91CF911F910F9108956C
:1052E0000F931F93CF93DF93853018F5633008F544
:1052F0004230F8F4282F34E0639FC00111243CE0D1
:10530000239F800D911D1124840F911D840F911DE9
:10531000EC01C95FDD4FCE010E94113690E0182FDD
:105320000027CE0101960E9411369801282BC90151
:1053300002C080E090E0DF91CF911F910F9108951E
:105340000F931F93CF93DF93853058F5663048F560
:10535000483038F521159CE5390731F4E091B00566
:10536000F091B105EF2BE9F08901C42FD0E0CC0F0B
:10537000DD1F90E1699FC00DD11D112490E6899F2A
:10538000C00DD11D1124612FCE0187960E942F36AA
:10539000602FCE018896DF91CF911F910F910C94D1
:1053A0002F36DF91CF911F910F9108950F931F9387
:1053B000CF93DF93853008F56630F8F44830E8F491
:1053C000C42FD0E0CC0FDD1F20E1629FC00DD11DA6
:1053D000112430E6839FC00DD11D1124CE01879684
:1053E0000E94113690E0182F0027CE0188960E9467
:1053F00011369801282BC90102C080E090E0DF91AE
:10540000CF911F910F910895CF92DF92EF92FF926B
:105410000F931F93CF93DF93CDB7DEB72A970FB6C5
:10542000F894DEBF0FBECDBF80E5E5E5F7E0DF0114
:105430001D928A95E9F788E3E3E2F6E0DF011D9229
:105440008A95E9F785E5C82E87E0D82E7F0103E429
:1054500012E0F701D182C0824AE050E0B801CE01EB
:1054600001960E94013688E0FE013196D601019036
:105470000D928A95E1F789859A85D70113969C93B9
:105480008E931297BAE0CB0ED11CE7E0EE0EF11C22
:10549000065F1F4F0339F2E01F07D9F62A960FB6B1
:1054A000F894DEBF0FBECDBFDF91CF911F910F915A
:1054B000FF90EF90DF90CF900895CF93C82F811188
:1054C00002C06FEF01C066EC83E290E00E942F36CD
:1054D000C11102C06FEF01C06EE284E290E00E9451
:1054E0002F36C11102C06FEF01C067E885E290E07E
:1054F000CF910C942F3680E00E945D2A60E086E216
:1055000090E00E942F360E94AE230E94822381E009
:105510000C945D2A83E290E00E941136863C81F46F
:1055200084E290E00E9411368E3251F485E290E0E0
:105530000E94113691E0873809F090E0892F01C070
:1055400080E081700895882311F0FA0101C0FB0109
:1055500009949091BF07937071F08093C007609396
:10556000C107413708F040E74093C2078091D50654
:10557000282B2093D5060895EFEBF7E0438120E137
:10558000421B08F440E0818121E0628190E00C94AC
:10559000A92AEFEBF7E0438120E1420F08F44FEF37
:1055A000818121E0628190E00C94A92AEFEBF7E081
:1055B000628120E1621B08F460E0818121E0438187
:1055C00090E00C94A92AEFEBF7E0628120E1620FF2
:1055D00008F46FEF818121E0438190E00C94A92AC7
:1055E000EFEBF7E0818190E021E043816281089751
:1055F0000C94A92AEFEBF7E0818190E021E0438150
:10560000628108960C94A92A9091BF079370A1F02B
:10561000811102C0946007C08B3010F0986203C003
:10562000880F880F982B9093BF07109215018091D7
:10563000D506682B6093D50608958091BF0786959F
:105640008695815009F48AE061E00C94042B8091E6
:10565000BF07869586958F5F8B3008F081E061E00B
:105660000C94042B0C94D1280C94DD2846E050E0D7
:105670006CE170E08FEB97E00C941F36EFEBF7E0F6
:1056800085E080838091220190912301A0912401E3
:1056900081839283A3838FE784838FEF85830C9428
:1056A000362B22E8241B08F420E0620F0895482FCF
:1056B000982F46FD9095E92FEF739F7046FD9F5FF1
:1056C000E295EF70EE0FF0E0EE57FE4F2181299F3B
:1056D000802D212D112482958F702295207F822B81
:1056E0003081982F930F892F47FD81958058089519
:1056F0000F931F93CF93DF93D62F072F182FC42F0D
:10570000822F0E94572BEC2FF0E0EE0FFF1FE75384
:10571000FE4F90819058890F87FD8195880F682FE3
:105720002CE0629F612D11246D0F702F812FDF916E
:10573000CF911F910F910895BC018230910508F41B
:105740000895613E8EE1780748F49B0195E0369517
:1057500027959A95E1F748E0420F01C04FEF91E09D
:10576000242F30E0290F311D35952795229FF00118
:10577000239FF00DF00D11246E177F0718F44FEFE3
:10578000420F04C02F3F39F091E0920F491740F7C4
:105790008FEF890F08958FEF08950F93CF93DF93C5
:1057A000D72FC82F47FD4195E2E3F0E0CF01841BDE
:1057B000910947FD9395889FB001899F700D700DE9
:1057C0001124229FC001239F900D900D1124860F5C
:1057D000971F0E949C2B682F660F860F682F600F03
:1057E0007D2F8C2FDF91CF910F91089520E030E035
:1057F000869F212D969F200D311D1124C9010895EA
:10580000CF92DF92EF92FF920F931F93CF93DF938C
:10581000F62E472FE82FF0E0711106C0ED5CF94F2E
:105820008491782F682F73C0272F30E0ED5CF94FFB
:10583000E491FE2F0E2F10E056E0659FC001112469
:10584000CFEFD0E0BE010E94E4355BEA5603C00111
:10585000579F900D11248F0D911D8F0D911D982F25
:10586000990F980F7E01E21AF30AE09ED001E19EA3
:10587000B00DF09EB00D11248B2F499FA001112473
:10588000452F55277E01E41AF50AE09EA001E19E0E
:10589000500DF09E500D11246E01C91AD108C29E00
:1058A0007001C39EF00CD29EF00C11242F2D3327D3
:1058B000C21BD30BC09F9001C19F300DD09F300DF4
:1058C0001124932F6230710591F048F46115710530
:1058D000E1F061307105B9F49E2FE52F16C06430F8
:1058E000710569F040F06630710579F00CC09E2FAB
:1058F000EB2F832F0AC0EB2F8F2F952F06C09B2FE6
:105900008E2FE32F02C09B2F852F7E2F692FDF91D3
:10591000CF911F910F91FF90EF90DF90CF9008955E
:10592000CF93DF9300D000D01F92CDB7DEB7909316
:10593000B3058093B205811520E2920748F40F90D9
:105940000F900F900F900F90DF91CF910C941C321D
:105950008EEF89838A831B820E94FA208160782FD0
:105960009D838C8349815A816B818D810E947F3216
:105970000F900F900F900F900F90DF91CF9108959F
:10598000CF93DF9300D000D01F92CDB7DEB79093B6
:10599000B3058093B205811520E2920748F40F9079
:1059A0000F900F900F900F90DF91CF910C943632A3
:1059B0008EEF89838A8381E08B830E94FA20816045
:1059C000782F9D838C8349815A816B818D810E94C0
:1059D0007F320F900F900F900F900F90DF91CF912B
:1059E0000895AF92BF92CF92DF92EF92FF920F9302
:1059F0001F93CF93DF93B82EA62EC090C50780913A
:105A00005407C82AC7E0D0E0D12CE12CF12CD701F3
:105A1000C6010C2E04C0B695A795979587950A9454
:105A2000D2F780FF13C04A2D6B2D8C2F0E94702956
:105A30008C018130910551F00E94C02C8FE39CE9CC
:105A40000197F1F700C00000C80111C02197F8F6D6
:105A50004A2D6B2D80E00E947029EC010E94C02C21
:105A60008FE39CE90197F1F700C00000CE010E948E
:105A7000902C81E0DF91CF911F910F91FF90EF90DB
:105A8000DF90CF90BF90AF9008958091C507982F79
:105A90009670963011F4886001C0877F0C94D01BFB
:105AA000EF92FF920F931F93CF93DF93EC017B0153
:105AB00064E670E088E70E94DB348C01EC0EFD1E8A
:105AC000CE15DF0561F017FD0AC0FE01849164E682
:105AD00070E00E945C358C012196892B89F30E942D
