:100000000C948D040C94D4040C94D4040C94D40457
:100010000C94D4040C94D4040C94D4040C94D40400
:100020000C94D4040C94D4040C94471E0C94FC1C23
:100030000C94EB1F0C94D4040C94D4040C94D404AE
:100040000C94D4040C94D4040C94D4040C94D404D0
:100050000C94D4040C949E1F0C94D4040C94D404DB
:100060000C94D4040C94D4040C94D4040C94D404B0
:100070000C94D4040C94D4040C94D4040C94D404A0
:100080000C94D4040C94D4040C94D4040C94D40490
:100090000C94D4040C94D4040C94D4040C94D40480
:1000A0000C94D4040C94D4040C94D404E60C020DE7
:1000B000090D410D520D5D0D6D0D7E0DBB0DC00D79
:1000C0001A0E1A0E1A0EC80D5A0E650E900ECE0E8E
:1000D0002B0F7A0FC20FC50FCA0F6810D110B114C1
:1000E000BC14C114C614CB14D014D514DA14DF1404
:1000F000E414E9146F156F15A815A8150A1645170D
:100100004517451728169C16AD16AD16831883188B
:10011000961896188C18961896189618831883189F
:100120009118961896189118152D3C2DEF2E3C2DF0
:10013000EF2E882DAB2DEF2EAC2EBC2E00DA0281D7
:10014000FFD9F1DB20A4A62EAF00A0C000A1C800FB
:10015000AED580A81FD300408D14200000AEFD371F
:100160007A585A000004E6D6B4460200210116006F
:100170000000742FE5A3E0085302455D003D888927
:10018000C65436C3174FE4F1E112FDEF008EFF6F46
:100190009387B42647FBB729D03483DA2C4E8C1EC4
:1001A000D4A2101D9A2C5F0D89D296E2560F1E57CD
:1001B0005FB410F19A9B18602D7EFBA74803850A57
:1001C00009BB61BA19807BBF8567EF57236FF07851
:1001D0008933D06222FCBD0E51E6DEAF7BE8DAA2A5
:1001E00060551D19D1FB286DE36D5BBD4122218B4C
:1001F000EA6383C8A2495A31655DBD002908EFA3AF
:10020000B6E19EAEF3D84A9B2F0D317CDC7AE26DCD
:100210005B8D9F4C1A0FEED72802735D24FAE0CD58
:1002200052AD5FA9557D24C66E6096EE3854615577
:100230002D353326C0C365397C77239B589B7C9032
:10024000A1BFBD6D204BBF2FE0C2EF0363B5AC0271
:10025000FDD87142E85C47D08B8B08455CE2D1BD8C
:1002600093A36E6B7B019B123EA7AB5EB577FDE857
:1002700033C6F7BB8181344D4831C367B9E33A8453
:1002800038C073722F53E5B769DD775E305F278220
:10029000C90FFEE70EAAEAE455B91AF196FE8AE7FD
:1002A000C52E76B72D2C05C44C4C9E75684B1B9201
:1002B000247E2B906DF9DE48E3E4A467E21B4A6CD0
:1002C000FA5A78AABE7A60553A67389C7FBA3B8D55
:1002D0001B128E5FB2763748EB7D97222611EBAE6C
:1002E000EE4E87D5FA484DA991F4B5CBB4B735D1C8
:1002F0009F40D5E312191F76715BA303830EC87A62
:10030000FA73CC48F9436FBCADF442CCC64C8DA017
:10031000FF9EFAD6F6E65D11F9640DEDB69B5DBB66
:10032000DF9DC9DF085FCD2BE31E49F9E211DE6CCA
:10033000DC707AD4075AFF4099DBBCEA657B2A64FB
:100340002CA48220E55D181AD31FAF0B6F8A701E94
:100350004C95AE69E6EC7CAA614CAE2FD61C529649
:10036000328C661C8E0964B52368642875932C91C1
:100370001DA0C9AA1DFB9B345575DFAC63A3627435
:10038000506CFB2CCA5497D6DB2F5D6FDF76D5946B
:100390008A1EA7855FE6802992D46176588C98974B
:1003A0005A6826CDB1651D8D8A5C5236D1C421A212
:1003B0002A8366E99C0CB0428FBD51715A73ABE839
:1003C0002CB000000000896E945E7653C6190001BF
:1003D000E104D41000008437DD5EB1C467FB020085
:1003E00000000004595A0000000001000A00020049
:1003F00001000300020011000300120004001A00B3
:1004000005001B0006001C0007001D00080020005E
:1004100009002E2000290014001A000800150017FA
:10042000001C0018002B0004611668076409620AAA
:10043000000B000D72E1001D001B000600190005F5
:100440000011001000000000000E7437001200338D
:100450007138002A0000002B0436000C000F7813BE
:1004600000E50034002A01A8004C003100280001FA
:100470005102512C0001001E021F02200221022203
:1004800002230224020100015302530353045301C7
:100490000001002D020100390001000100010001EE
:1004A0000001000100000000002E0231022602308F
:1004B000023402010000000100010025022F022782
:1004C0000201000100010001000100010001000122
:1004D000000351010035001E001F002000210022F2
:1004E00000230024004A005000510052004F002B0E
:1004F0000001002D00010001004E004B00010081B1
:100500005F845F825F000000002E00010026003043
:10051000000100010000000100835F25002F00277B
:1005200000010001000100010001000100010003C1
:1005300051010001000100C25CC45CC35C01000108
:10054000003A003B000100CB5CC55CC75CC95C01A4
:10055000003F0040000100CC5CC65CC85CCA5C0186
:10056000004400450000000000410001003D004340
:1005700000005C01000000010001003C0042003E60
:100580000001000100010001000100010001000163
:100590000001000100010001000100010001000153
:1005A0000001000100010001000100010001000143
:1005B0000001000100010001000100010001000133
:1005C0000001000100000000000100010001000125
:1005D0000001000100000001000100010001000114
:1005E0000001000100010001000100010001000103
:1005F000000100010000AF00010101010101010142
:1006000001020202020202020202030303030303C5
:100610000303040404040404040505050505060693
:100620000606060707070707080808080909090951
:100630000A0A0A0B0B0B0C0C0C0D0D0D0E0E0E0FF7
:100640000F0F101011111112121313141415151687
:10065000161717181819191A1A1B1B1C1D1D1E1EF8
:100660001F20202122222324242526262728292949
:100670002A2B2C2D2D2E2F30313232333435363774
:1006800038393A3B3C3D3E3F404142434445464772
:1006900048494A4C4D4E4F50515354555658595A4B
:1006A0005B5D5E5F616264656668696B6C6D6F70EF
:1006B00072737577787A7B7D7E8082838587888A5E
:1006C0008C8E8F91939596989A9C9EA0A2A3A5A795
:1006D000A9ABADAFB1B3B5B7BABCBEC0C2C4C6C991
:1006E000CBCDCFD1D4D6D8DBDDDFE2E4E7E9EBEE4A
:1006F000F0F3F5F8FAFDFF05010980A10185031962
:10070000012AB700150126B700950175108100C0B8
:10071000050C0901A101850419012AA00215012671
:10072000A002950175108100C00660FF0961A1015A
:100730000962150026FF00952075088102096315DE
:100740000026FF00952075089102C005010906A149
:1007500001050719E029E7150025019508750181B4
:10076000029501750881010507190029FF1500266A
:10077000FF009506750881000508190129059505F2
:1007800075019102950175039101C009025B000397
:100790000100A0FA09040000010301010009211170
:1007A0000100012240000705810308000A09040135
:1007B00000020300000009211101000122220007AC
:1007C000058203200001070503032000010904023C
:1007D000000103000000092111010001223200077D
:1007E00005840320000A1201000200000008FEFE3A
:1007F000BBFF0100010203011C03760069006100D8
:100800006C003A006600360034006300320062007B
:100810003300630000003203730061006400650070
:100820006B006200610072006F0075006400690077
:100830002000660066006B0062005F0062007900C5
:100840006F006D006300750000001A037300610003
:10085000640065006B006200610072006F0075004B
:1008600064006900000004030904000000000000A7
:100870000000000000000000000000000000000078
:1008800000000000000000000000000000007E0FDB
:1008900000D4FFFFFFC70000007800000000000048
:1008A00000002A2B280000000000000000000000CB
:1008B000000000000029000000002C1E342021222E
:1008C00024342627252E362D3738271E1F20212297
:1008D000232425263333362E37381F040506070810
:1008E000090A0B0C0D0E0F10111213141516171800
:1008F000191A1B1C1D2F3130232D3504050607083E
:10090000090A0B0C0D0E0F101112131415161718DF
:10091000191A1B1C1D2F3130354C11241FBECFEF6F
:10092000DAE0DEBFCDBF04B603FE27C08091A50785
:100930009091A607A091A707B091A8078730904B88
:10094000A740B04BD1F41092A5071092A6071092C1
:10095000A7071092A80714BE84B7877F84BF0FB67D
:10096000F894A8958091600088618093600010924F
:1009700060000FBEE0E0F8E3099512E0A0E0B1E00E
:10098000E2EFF9E602C005900D92A233B107D9F764
:1009900027E0A2E3B2E001C01D92A53AB207E1F759
:1009A0000E94D6040C94F7340C940000CF93DF938C
:1009B000CDB7DEB7E6970FB6F894DEBF0FBECDBF5A
:1009C00084B7877F84BF0FB6F894A89580916000A4
:1009D000886180936000109260000FBE90E080E814
:1009E0000FB6F89480936100909361000FBE85B7B5
:1009F000806885BF85B7806885BF87E193E2909363
:100A00003302809332020E94CF280E94401D0E9430
:100A1000E61D8091E20084608093E20078948091EA
:100A200099078823A1F01091E9001F709091EC00C4
:100A3000892F817090FD80E8182B1092E900809139
:100A4000E80083FD0E942F2C1F701093E90082E0C4
:100A500084BD93E095BD9AEF97BD80936E000E9490
:100A60005529811102C00E94462905E211E09BE24E
:100A7000E92E91E0F92ED8018D918D018F3F11F073
:100A80000E945C23E016F106B1F70BE211E083E36C
:100A9000E82E81E0F82EF80181918F018F3F11F04F
:100AA0000E945C23E016F106B1F7E6E3F2E08CE386
:100AB00092E0A4E7B5E011921D928E179F07D9F737
:100AC0000E940D25811102C00E94182582E090E04D
:100AD0000E941E348093EB040E94FC249093350204
:100AE000809334020E944B268FE39CE90197F1F733
:100AF00000C000000E944B268091740580FF08C052
:100B00006FEF7FEF80E090E00E945A340E947A1FDE
:100B100083E090E00E941E340E94D01A10929C0242
:100B2000E5EBF2E085EC92E02FEF3FEF219331937C
:100B30008E179F07D9F710923C02E5E5F2E085E6B3
:100B400092E02FEF3FEF219331938E179F07D9F754
:100B50000E940D25811104C00E9418250E94092AB7
:100B600046E050E06CE170E08EE997E00E940E34C0
:100B700080919E078C7F11F40E94092A1092E6044E
:100B800080E88093C5020E94E2326DE070E08FE45D
:100B900091E00E94662B892B09F03FC08091E6040A
:100BA00063E070E081FD36C08CE491E00E94662B2A
:100BB000892B99F56DE070E08CE391E00E94662B43
:100BC000892B59F50E94D31FDC01CB01805A954136
:100BD000AF4FBF4F8093950590939605A0939705CF
:100BE000B093980580E092E0E6EEF2E0DF019C0130
:100BF0001D9221503040E1F78FEF9FEF9093E90471
:100C00008093E80481E080939A058093990510927F
:100C1000E70403C089E491E0C9CF80E091E09093BC
:100C200049068093480622242394312C8091990709
:100C3000853009F047C0B0E4FB2E00E112E180915D
:100C40009907853009F03AC080919907843019F1ED
:100C500010924C0648E150E00FB6F894A8954093E6
:100C600060000FBEF092600083B7817F846083BF15
:100C700083B7816083BF7894889583B78E7F83BF65
:100C80000FB6F894A8958091600088618093600009
:100C9000109260000FBE80918F07882309F4CFCF98
:100CA0000E944B26E4E7F5E0819181110C94200E1F
:100CB0008AE795E08E179F07B9F7C1CF0E94D41A33
:100CC0000E9467200E944B26D82E81110E94D31FBC
:100CD000ACEEB4E0E4E7F5E000E010E0902EE19047
:100CE0008D918E2509F43EC1C12CFF24F394982FD9
:100CF0009F2109F432C1CBA69CA6EF2081E009F424
:100D000080E08DA70E94DF1F8160782F9FA78EA7AC
:100D10004BA55CA56DA58FA50E948C30F801E45110
:100D2000FB4F8081F826F082EE2089F0F801A3E0E5
:100D3000EE0FFF1FAA95E1F7ED57FE4FEC0DF11DE9
:100D400080818F3F21F08EAB8824839401C0812C59
:100D5000E82CF12C80913C02D701A80FB11D199706
:100D6000ACF188E090E05C01AE18BF08B7016F5F9E
:100D70007F4F645C7D4FA5018DE392E00E94E734D4
:100D8000B701675F7F4F645C7D4FA50185E492E00A
:100D90000E94E734A501440F551FB701660F771F66
:100DA000675E7F4F645C7D4F85E592E00E94E7348B
:100DB000B7016F5E7F4F645C7D4FA5018DE492E0CB
:100DC0000E94E73488E0881980933C0280913C02BD
:100DD00090E0EEA9AE2FB0E09D01220F331F2D54FD
:100DE0003E4FAA0FBB1FBD016C547E4F41E0480F20
:100DF0009815B0F490E0FC01E45CFD4FD9015C91E2
:100E00005183DB015C915187BEA9B18B880F991F7B
:100E1000FC01E45CFD4F128E118E91E0842FE6CF31
:100E200080933C0280919E078C7F803209F0B0C095
:100E30008FEF890D21E0290D6FEF6C0D91E09C0D76
:100E4000B3E0000F111FBA95E1F76C1558F4F801E3
:100E5000E459FD4FE60FF11D308140E1340F08F4F5
:100E60003FEF30834C2D50E004591D4FF801E40F43
:100E7000F51F308170E2370F08F43FEF3083983070
:100E800049F0F801E90FF11D308170E1370F08F4E6
:100E90003FEF3083263071F130E06C1580F4F901BA
:100EA000A3E0EE0FFF1FAA95E1F7E459FD4FE60F0F
:100EB000F11D70811DE0710F08F47FEF708373E006
:100EC000220F331F7A95E1F724593D4FF901E40FC2
:100ED000F51F708110E1710F08F47FEF7083983077
:100EE00049F0F901E90FF11D20813DE0230F08F4DD
:100EF0002FEF2083891508F04BC0282F30E06C15A8
:100F000080F4F90103E0EE0FFF1F0A95E1F7E459C1
:100F1000FD4FE60FF11D60817DE0670F08F46FEF74
:100F2000608313E0220F331F1A95E1F724593D4FD8
:100F3000F901E40FF51F408150E1450F08F44FEF30
:100F40004083983029F1F901E90FF11D20813DE03E
:100F5000230F08F42FEF20831BC0C394FF0C28E05D
:100F6000C212C5CE0F5F1F4F0630110509F0B6CE75
:100F70008FEF88AB89AB1AAA0E94DF1F8160782FA0
:100F80009CAB8BAB48A959A96AA98CA90E948C304B
:100F90008091650290916602A0916702B09168020B
:100FA0002FB7F89480904D0690904E06A0904F0673
:100FB000B09050062FBF881A990AAA0ABB0A0E944D
:100FC000D31F6093650270936602809367029093CB
:100FD0006802A0913C02ECE3F2E02A2F30E04424C6
:100FE0004A94542C612C712C481859086A087B08C3
:100FF000A31799F0418D528D7A0100E010E04E1454
:101000005F046006710610F4215004C0480D591D9C
:10101000528F418F3F5F3296EBCF20933C0230914D
:101020009E07232F237021F0E32EE694E69401C05F
:10103000E12C209115012130E1F030F02230E9F16E
:10104000233009F446C069C01092170160939A07D3
:1010500070939B0780939C0790939D0789E2ECE334
:10106000F2E0ACE9B2E001900D928A95E1F781E0FF
:101070002DC090910B01E9120DC0832F837090E079
:1010800040910A0150E021E08417950709F420E01F
:10109000822F01C081E08170809319018091A307A4
:1010A00090911801981709F4EBC58093180140E05E
:1010B00060E080E00E94FD29E3C5E0920B01832FF0
:1010C000837080930A010E94DD2783E080931501DD
:1010D00024C08091B50681110E94012A1092B506A4
:1010E00040919A0750919B0760919C0770919D07D2
:1010F0002FB7F89480914D0690914E06A0914F061F
:10110000B09150062FBF841B950BA60BB70B4097D1
:10111000A105B10510F01092150180919A05882360
:1011200009F40CC12091E8043091E904211531053E
:1011300009F4D9C08091E7048111D5C0082F10E0CF
:10114000EE24E394F12C082E02C0EE0CFF1C0A944E
:10115000E2F7A9014E215F21452B11F48F5FEECFFD
:101160009091E6049801A5E0220F331FAA95E1F7BC
:1011700090FD12C08295880F807680930E01220F19
:10118000232F221F330B319520931101815E809311
:101190000F011092120112C0E5E036952795EA95ED
:1011A000E1F7220F220F220F20930E01109211015E
:1011B000295F20930F0183E08093120124E630E041
:1011C00047E050E06CE071E088E70E949933892B9A
:1011D00009F089C08091E60480FD22C0A80175E075
:1011E000440F551F7A95E1F74A515D4F04E610E030
:1011F00020E230E060E488E70E94C033892B09F0E8
:1012000072C00E944122E094F0948091E804909191
:10121000E904E822F922F092E904E092E80463C0CC
:1012200080E2E6ECF2E0DF011D928A95E9F7A80181
:1012300035E0440F551F3A95E1F767E3462E61E02C
:10124000562E03E311E0F20181912F01D8019D9107
:101250008D01BA01690F711D6A517D4F90E08A536B
:101260009D4FFC0127E0922E9F01281B390B77240C
:10127000739401C0770C2A95EAF75B01812CD501A4
:10128000CD905D01C720292D28192770622E022ECE
:10129000000C330BBC2D01C0BB0F6A94EAF76B2E18
:1012A0003195219531092770332701C0C6942A95BD
:1012B000EAF76C28C0806C286082839428E0821250
:1012C000DECF9A9431963FEF9312CECF8BE3481640
:1012D00081E0580609F0B7CF04E610E020E230E0E4
:1012E00046EC52E087CF80919905882339F10E941E
:1012F000D31F009195051091960520919705309187
:101300009805DC01CB01801B910BA20BB30B8F3F27
:101310009F4FAF4FBF4790F480919A05882371F09B
:1013200080919905882351F062E070E08CE591E0AE
:101330000E94662B892B11F410929905D1100E94FE
:1013400041220E9467209091EA04891721F00E94AF
:1013500067208093EA0480919907843009F066CC75
:1013600083E08093E9008091E80082FF5FCC809168
:10137000E80085FF22C00E945F1D81111CC000E2B1
:1013800010E09E012F5F3F4F790108C08091F1006E
:10139000D7018D937D010150110969F08091E8001A
:1013A00085FDF4CF8091E8008B778093E8000E9460
:1013B0005F1D882399F391E001C090E08091E800DF
:1013C0008B778093E800992309F430CCE090930563
:1013D000F09094058981E114F10459F08E3F09F0F1
:1013E00029C49A819330A8F19550933008F022C413
:1013F00030C08B3009F4C7C248F5853009F47EC08F
:10140000B8F4823009F442C030F4813009F010C4DD
:101410001A8289E0AEC3833009F461C0843009F0D8
:1014200007C44C816B818A810E94A1289D8326C4B8
:10143000873009F471C008F46CC0883009F4E2C048
:10144000893009F0F5C30E94012AF4C3803109F400
:10145000DCC18E010F5F1F4F813160F48D3009F4C4
:1014600076C108F472C18E3009F475C18F3009F469
:101470009DC1DEC3823109F4CDC108F4C9C18331F5
:1014800009F4F2C18E3F09F495C2D2C38A81823039
:1014900009F4EDC3833051F0813009F0C9C30E94D3
:1014A000D31F9B838C837D836E83C4C380919105FE
:1014B00090919205892B09F4BDC3809174058B83AB
:1014C000809175058C83809176058D838091770559
:1014D0008E83809178058F8380917905D7C08A812A
:1014E000823009F0A5C36B817C818D819E810E9431
:1014F000B13486E290E00E943C349CC32D813E8151
:101500003227232732274C816B818A810E946B28E6
:1015100091C30E948A228EC38A81813421F0823451
:1015200009F43AC087C32B813C8180919E07982F94
:1015300093702115310539F49111109215018C7FAA
:1015400080939E071EC0911102C0109215018C7FDE
:10155000816080939E0746EE53E0FA0132968591B2
:101560009491FA01659174912617370739F04C5F11
:101570005F4FB4E042315B0781F780E060E00E949A
:10158000CF298D818093A2078E8120E048856F81CD
:1015900090E00E9474294EC34B815C818D81E3E011
:1015A0008E9F900111242E3131050CF043C3DE01D2
:1015B0001196FA01EE0FFF1FE40FF51FEA50FB4FE3
:1015C00020E030E090E02817390708F033C3139685
:1015D000B901640F751F6A32710508F02BC31296AA
:1015E0006C911297608313966C9113976183149694
:1015F0006C911497613708F060E762832F5F3F4F6B
:101600003396E1CF8A81823409F442C028F48034D1
:1016100051F0813471F00EC3833409F459C084341D
:1016200009F459C007C381E08B831C8280E78D8356
:1016300001C380919E07982F9370B1F0869586958F
:1016400090E026EE33E062E174E0F9013296A59174
:10165000B491F901459154918A179B0741F02C5F91
:101660003F4F6217730789F790E080E002C0942F24
:10167000852F9B838C838091A2078D8380919F0708
:101680008E838091A0078F838091A1078887D2C223
:101690000B811C814EE150E06FEF70E0CE010396AC
:1016A0000E94F03486EE93E0DE0113962EE1FC01F9
:1016B000459154910417150728F4223018F04D93E2
:1016C0005D9322500496F4E082319F0781F7B2C205
:1016D0008AE28B839CC18B8190E08A3291050CF069
:1016E000A9C2FC01EE0FFF1FED54FE4F20812B839A
:1016F000FC01EE0FFF1FED57FE4F21A92C83FC01CB
:10170000E95FFD4F20812D832FEF2F832E8363E828
:1017100071E040E050E020E030E0FB01E20FF31F19
:10172000E081F0E08E179F0719F44E832F8382C269
:101730002F5F3F4F2830310581F74F5F5F4F685F64
:101740007F4F4630510539F775C280E12EC281E0E6
:101750008A838DE60EC2EA80FB80FE24EF24FE24FD
:10176000AC80B12C2DE1A216B10408F063C268016F
:10177000C7018D569D4F9601201B310B2A153B0545
:1017800008F058C23DE6E31631E0F30630F40E945B
:101790001E34D60114968C9302C0F6011482FFEF1A
:1017A000EF1AFF0A2FEFC21AD20AE2CF80919105F9
:1017B00090919205892B09F43DC2EA80FB80FE24BA
:1017C000EF24FE24CC80D12C3DE1C316D10408F0D7
:1017D00031C25801C7018D569D4F9501201B310B19
:1017E0002C153D0508F026C24DE6E41641E0F4064E
:1017F00028F4D50114966C910E943C34BFEFEB1A8B
:10180000FB0AEFEFAE1ABE0AE5CF0E94672212C2B2
:1018100085E0CBC1EA80FB80FE24EF24FE24AC806F
:10182000B12CFDE1AF16B10408F004C26801C70194
:1018300087969601201B310B2A153B0508F0FAC14B
:1018400020EEE21621E0F20630F40E941E34D601AA
:1018500014968C9302C0F6011482FFEFEF1AFF0A70
:101860002FEFC21AD20AE3CFEA80FB80FE24EF24D6
:10187000FE24AC80B12C3DE1A316B10408F0DAC11E
:1018800040EEE41641E0F40608F0D4C180EE91E0A9
:101890008E199F098A159B0508F4CCC1370157E2C0
:1018A000650E711C8091910590919205892B11F024
:1018B000680160C0E0FE0FC0C70186960E941E341A
:1018C00090E0982F88272D81822B81159C4531F43B
:1018D0008FEF8D8303C0C12CD12C03C0CC24C394C3
:1018E000D12CC5018E0D9F1D450180FF1BC0B1E0AD
:1018F0008B1A910855E0452E512C4C0E5D1E480C5C
:10190000591CC3018A0D9B1D0E941E34F2012081C7
:1019100030E0322F2227282B21153C4519F48FEF78
:10192000D2018C93F801EC0DFD1D2FEFCF01801B30
:10193000910B8815990508F0BBCF848190E0982F12
:1019400088273581832B81159C4511F424832583B9
:101950003296ECCFE0EEEE16E1E0FE0628F4D6017A
:1019600014966C910E943C34BFEFEB1AFB0AEFEF28
:10197000CE1ADE0AC70187969601201B310B2A1565
:101980003B0540F357C18091910590919205892BB9
:1019900009F450C1CE0101960E94092CFFEF21EEFF
:1019A00034E0F15020403040E1F700C000000E94D8
:1019B0007A1F40C1EA818E2F90E08E30910508F0A9
:1019C00039C1FC01EA5AFF4F0C94AB3488E0EAE1DC
:1019D000F1E0DE01919601900D928A95E1F780E2A7
:1019E000D8011D928A95E9F784E0898388E0FE0199
:1019F000B196DE01159601900D928A95E1F781E08E
:101A00008D8718C188E8898382E08A831B821C82C3
:101A100011C18C8190E0982F88272B81820F911D16
:101A2000092E000CAA0BBB0B35E0880F991FAA1FCB
:101A3000BB1F3A95D1F7AC01BD01405E5F4F6F4FC0
:101A40007F4F481759076A077B0708F4F3C08838A7
:101A5000E2E09E07A105B10508F0ECC04938F2E0CC
:101A60005F076105710520F048E852E060E070E032
:101A7000481B590BBC01625A7E4FC8010E940534B5
:101A8000D9C01B810C8140E0602F812F0E943B2830
:101A900099838A8341E0602F812F0E943B289B839A
:101AA0008C83C8C02E813F813227232732274D8166
:101AB0006C818B810E940328BDC040E250E06FEF33
:101AC00070E0C8010E94F034809191058983EA8218
:101AD0001B821C821D8281E0D1C03092940520922D
:101AE000930582E390E09093F5048093F4040E94C0
:101AF000DF1F9093F3048093F2049CC0EF2889F1D8
:101B00001091740511FB882780F918238091F20445
:101B10009091F3040E94C41F85369105E0F01123D3
:101B2000D1F00E94DF1F9093F3048093F204809120
:101B3000F4049091F50401979093F5048093F404D4
:101B4000892B79F4109294051092930530929205A6
:101B50002092910506C082E390E09093F504809373
:101B6000F404809191058983809193058A83809103
:101B7000F4048B835FC010929205109291055AC0B5
:101B800040E250E06FEF70E0C8010E94F03452C0B4
:101B90008B81833061F0843061F181114BC080E230
:101BA000D8011D928A95E9F788E08A8343C06C8149
:101BB000CE0181962AE0FC0111922A95E9F768305E
:101BC00060F4FAE06F9FB00111246D5B7D4F4AE035
:101BD00050E00E940E3480E001C08FEF89838AE0DC
:101BE000FE01B196DE01129601900D928A95E1F701
:101BF00021C06C818AE0FE013596DE01919601904C
:101C00000D928A95E1F7683070F42AE0629FB00186
:101C100011246D5B7D4F4AE050E0CE0181960E9419
:101C2000603480E001C08FEF89830E94CF2802C01A
:101C30008FEF8983CE0101960E94092C0C94160621
:101C400009BD19BD09B400FEFDCF8091D8008F7D7C
:101C50008093D8008091E00082608093E0008091C2
:101C6000E00081FDFCCF0E94D41A0C941F0686E28E
:101C700090E00E941E341B821C821D828E83DACF6C
:101C80008E2D90E08B30910580F0809117018F5F51
:101C90008093170182E080931501809119018111D1
:101CA0003CCAEE2009F411CA38CAFC01EC59FF4FB6
:101CB0000C94AB3480911901882309F49CC240E054
:101CC00060E080E00E94FD2996C21091170189E032
:101CD000189F102D112409E0010F0B3208F00AE2C1
:101CE00060919F077091A0078091A1070E94CB2A65
:101CF000F62EC72EB82E101708F03FC1E12FF0E0E6
:101D0000DF01A95FBD4F8C9190911801982331F0AC
:101D10002B2D4F2D6C2DCF010E94FF291F5FEBCF84
:101D20001091170189E0189F102D112409E0010F6F
:101D30000B3208F00AE2C090A007F090A107B09023
:101D40009F076B2D7C2D8F2D0E94CB2AA62E972EC0
:101D5000882E6091A2076B0D7C2D8F2D0E94CB2ABF
:101D6000F62EC72EB82E101708F007C1E12FF0E0AD
:101D7000DF01A95FBD4F8C9190911801982361F00C
:101D800080FF04C02B2D4F2D6C2D03C0282D4A2D14
:101D9000692DCF010E94FF291F5FE5CFF090170149
:101DA00089E0F89EF02C112459E0C52ECF0C3AE2C0
:101DB0003C1510F44AE2C42E6091A207669580910A
:101DC0009A0790919B070E94C12AB82EFC1408F034
:101DD000E3C10F2D10E0F801E95FFD4F9081809184
:101DE00018018923B1F1F801EE0FFF1FED54FE4FEA
:101DF000408150E044565109F801EE0FFF1FED57A6
:101E0000FE4F21A930E020523109449FB001459F87
:101E1000700D700D1124229FC001239F900D900D15
:101E20001124860F971F0E94672A9091A00743E014
:101E3000849FB0011124759567956B0D792F809162
:101E4000A1070E94CB2A462F282F672FC8010E9486
:101E5000FF29F394BBCF1091170189E0189F102D33
:101E6000112489E0F82EF10E8AE28F1510F40AE2AF
:101E7000F02E6091A207669580919A0790919B073A
:101E80000E94C12AC82E1F1578F5A12EB12CF5018C
:101E9000E95FFD4F908180911801892319F1F501C7
:101EA000EE0FFF1FED57FE4F21A930E02052310900
:101EB000F501EE0FFF1FED54FE4F408150E04456F8
:101EC000510960919F077091A0078091A1070C2D87
:101ED0000E94982A0E94CB2A462F282F672FC501DF
:101EE0000E94FF291F5FCFCF81E099E29F1508F084
:101EF00083C181C11091170189E0189F102D112411
:101F000009E0010F0B3208F00AE2C090A007F09040
:101F1000A107B0909F076091A207669566956695A8
:101F200080919A0790919B070E94C12A0E94222AC1
:101F3000805887FD8195880F682F2CE0629F612D66
:101F400011246B0D7C2D8F2D0E94CB2AF62EC72ECF
:101F5000B82E101790F4E12FF0E0DF01A95FBD4F1C
:101F60008C9190911801982331F02B2D4F2D6C2DD1
:101F7000CF010E94FF291F5FECCF81E00A3208F4F5
:101F80003BC139C183E49AE202C08CEC97E20E9423
:101F90008F2B32C10091170189E0089F002D112479
:101FA000A9E0A00FADABA13310F0B0E3BDAB8091C1
:101FB0001901882361F040E060E080E00E94FD2983
:101FC00080E3ECE6F2E0DF011D928A95E9F780916B
:101FD0001701811115C080916A0290916B020E94D5
:101FE000C41F21E08931910508F420E020936902A3
:101FF000499730F00E94DF1F90936B0280936A0232
:1020000010E0BDA94B2E512CEAEACE2E0415150581
:102010000CF058C0C80166E070E00E9478344B01B3
:102020005C0173E0AA0CBB1C7A95E1F7F501E45959
:10203000FD4FE80DF91DF080F501ED57FE4FE80D5D
:10204000F91D80818F3F59F1682E712CF301E95FF2
:10205000FD4F908180911801892309F13F2D25E5DD
:10206000321B08F430E07091A0072C2D4F2D240F67
:1020700008F42FEF4091A10752E0259F200D112475
:102080002E5F249F212D11246C2D631B822F0E9413
:10209000CB2A462F282F672FC3010E94FF2980914A
:1020A0006902882361F02F2D31E0231B08F420E022
:1020B000C50184599D4FFC01E80DF91D20830F5F78
:1020C0001F4FA4CF81E04DA9403308F495C093C0C1
:1020D000F090170189E0F89EF02C112469E0C62EDB
:1020E000CF0C5AE25C1510F45AE2C52E2091A207DB
:1020F00031E0230F08F42FEF30E040E050E06FEFC5
:102100007FEF80E090E00E948C34890199249394C1
:10211000FC1408F041C0AF2CB12CF501E95FFD4F74
:102120009081809118018923A9F190919C0291508E
:1021300097FD15C0292F092E000C330BF901E45629
:10214000FD4F8189F812F3CF220F331FF901E456B6
:10215000FD4F218D328D2017310748F701C09801BE
:102160006091A207492D640F08F46FEFC9010E9426
:10217000C12AAC0160919F077091A0078091A107CF
:102180000E941C2A0E94CB2A462F282F672FC501A8
:102190000E94FF29F394BCCF81E059E25C1560F501
:1021A0002AC0F090170189E0F89EF02C112429E054
:1021B000C22ECF0C8AE28C1510F49AE2C92EFC14C0
:1021C000B0F40F2D10E0F801EE0FFF1FE00FF11F2C
:1021D000EA50FB4F6081718182810E94CB2A462F99
:1021E000282F672FC8010E94FF29F394E8CF81E0D0
:1021F00099E29C1508F480E0909117019F5F9093FD
:102200001701882309F446CD0C948D088F929F9274
:10221000AF92BF92CF92DF92EF92FF920F931F93F4
:10222000CF93DF9300D000D0CDB7DEB7FC01808123
:10223000918123813481232B31F09F3F31F491E050
:102240008F3F19F403C091E001C090E090FDE4C617
:102250006F0161E0CF010E94FB2F8C01F6018281AA
:10226000882309F49AC0980122513F452031310555
:1022700008F07BC08FEF93E00E941E3481117FC075
:102280003EEEF32EF00E03E912E0FF2071F001158F
:10229000F4E01F0709F473C0C8010E941E348111C5
:1022A00001C0FA940F5F1F4FF0CF19821A821B8270
:1022B0001C82AA24AA9478012FEFE21AF20AC8011C
:1022C0000E941E3489831A82882309F458C0813001
:1022D00009F046C0480182E0880E911CC7010E94A7
:1022E0001E348A83882309F44AC09FEF980F9330E5
:1022F00060F4780193E0E90EF11CC4010E941E34E1
:102300008B8381112DC08701D6CF843011F07401E9
:10231000FACFC4010E941E34B82E7801E4E0EE0E1C
:10232000F11CC80103960E941E34BB2041F1882392
:1023300031F1282F30E021503109A29EA001A39E47
:10234000500D11248B2D90E00197840F951F01975C
:10235000D0F2EFE9FFE03197F1F700C00000F7CFCE
:10236000CE0101960E94A02FCECF00319FE5190724
:1023700009F0AFC581E00E94C51A0E945B2B8091D5
:10238000AA06877009F448C6F6018281882309F4F9
:1023900043C682E00E94B5253FC60031FFE51F0716
:1023A00011F481E005C001312FE5120721F482E02C
:1023B0000E94B91AE2CF90917A05911105C09091CF
:1023C0007D05992309F4B7C098013056211590E294
:1023D000390720F0305E2115304140F4F601958137
:1023E000907F09F4A8C07801FF2401C0780197010B
:1023F00030542115354108F49EC090917D059230EE
:1024000021F5882369F08091AD06982F927219F01A
:102410006894F1F80FC086FF0DC024E1F22A0AC0CB
:10242000C70195558F3F910511F008F071C580E007
:102430000E94352781E080937D05F0927C05E09233
:102440007B058FEF809313019ACF882309F460C531
:10245000913009F05FC0809113019CE2E916F1040C
:10246000D9F4882329F00E9432301092130187CFCB
:1024700080917B0590917C0595558F3F910509F0E2
:1024800018F40E94822503C08AE20E947E1C1092EA
:102490007D050E9482304FC0EAE2EE16F10421F47D
:1024A00081508093130126C087FD34C081110BC079
:1024B00080917B0590917C0595558F3F910509F0A2
:1024C00010F40E943230809113018F5F80931301CA
:1024D000FDE2EF16F10471F040F484E0E81AF1082F
:1024E00094E2E916F10480F405C0EDE2EE16E2E0B4
:1024F000FE0651F4F6018281882309F409C5809112
:10250000AD06811114C0ECC4F6018281882309F460
:10251000FFC40DC09AE2E916F10489F308F06DC515
:10252000F4E0EF1AF10824E2E216F10440F30E940D
:10253000823010927D050238FFE51F0751F4F60145
:102540008281882399F181E080937D058DE290E07E
:1025500017C003382FE51207D8F00338EFE51E0740
:1025600009F43AC50438FFE51F0709F0E2C4F60193
:1025700082818823D9F081E080937D058DE292E00D
:1025800090937C0580937B058FEF8093130141C569
:1025900000388FE5180709F437C101389FE519079E
:1025A00009F0C7C4F60182818111A7C4F6019281A6
:1025B000992309F4B9C110929D050230FCE51F076B
:1025C00008F49CC106312CE5120738F098012A5F07
:1025D0003C452930310508F091C10E94FC249093BC
:1025E00035028093340200318CE5180709F4C3C02A
:1025F00008F041C00830ECE51E0709F49AC0F0F479
:1026000004302CE5120709F487C068F402309CE519
:10261000190709F477C003301C4509F0E5C0809123
:102620003402826076C00630FCE51F0709F46EC0F4
:1026300008F07BC08091340288606BC00C308CE560
:10264000180709F485C068F40A30ECE51E0709F4A0
:1026500074C008F079C00E94D41A80913402806856
:1026600058C00E302CE5120709F476C008F07FC080
:10267000809134028BC00B3F9CE5190709F44FC0D1
:1026800018F50331FCE51F0709F47DC078F401312A
:102690008CE5180709F473C002311C4509F0A4C089
:1026A0000E94D41A809134028F7733C00531ECE553
:1026B0001E0709F472C008F486C00A3F1C4509F0E1
:1026C00093C0809135023EC00F3F8CE5180709F496
:1026D0005FC058F40D3FECE51E0709F444C008F450
:1026E0003FC08091350282602DC001302DE5120778
:1026F00009F475C008F45DC002301D4509F074C0CE
:1027000060E06EC080913402816003C08091340229
:1027100080618093340268C08091340211C080913E
:1027200035028260809335025FC0809134028062FE
:10273000F0CF809134028064ECCF809134028860C5
:102740008460E7CF8160EECF809134028E7FE1CF4D
:10275000809134028D7FDDCF80913402877FD9CF85
:102760008091350218C0809135028D7FDBCF80913A
:1027700034028F7ECECF809134028F7DCACF80917C
:1027800034028F7BC6CF80913402877F8B7FC1CF8D
:10279000809135028D7F8E7FC5CF8091340282FB80
:1027A000222720F991E0922790FB82F990FB83F990
:1027B000B0CF80913502982F909591708E7F892BA4
:1027C00090FB81F9AFCF0E94D41A8091340287FB2D
:1027D000222720F991E0922790FB87F99ACF61E0B8
:1027E0008EE090E00E943C346091340210913502FA
:1027F00084E090E00E943C34612F82E290E00E94ED
:102800003C340E94D41ABBCDF6018281882309F49E
:10281000CDCE92E1A92E94E0B92E2AE0922EF501B8
:102820008491882309F45AC0813009F04FC07501A2
:10283000FFEFEF1AFF0AF7018491813049F4750127
:10284000F2E0EF0EF11CF70184910E947E1C41C062
:10285000823049F47501F2E0EF0EF11CF70184912A
:102860000E94E21B36C0833049F47501F2E0EF0E9E
:10287000F11CF70184910E948B1B2BC0843049F519
:102880007501F2E0EF0EF11CF701249180E090E079
:1028900030E0205331092A30310570F4989EA001B0
:1028A000999E500D1124C901840F951FFFEFEF1A57
:1028B000FF0AF7012491ECCF009759F0EFE9FFE010
:1028C0003197F1F700C000000197F6CF0E943A2F30
:1028D00075015701FFEFAF1ABF0AA1CF8091B00673
:1028E00081FD64CE0E94DF1F9093AF068093AE06F9
:1028F0008091B00682608093B00658CE8091AD067C
:102900000631ECE51E0709F58A7A91E009F490E0BA
:1029100090937E05882311F065E301C069E285E5A7
:1029200096E00E9421200EC006311C4509F08BC0A4
:1029300080917E05882309F45EC365E385E596E012
:102940000E9414200E9449271ACD8272F801E25C8D
:10295000FC45EB30F10508F043C0E159FF4F0C9402
:10296000AB3480919E0791E0892780939E07109257
:1029700015019093B50603CD48EE59E262EF79E276
:102980002CC042EF59E268EE79E227C04BEB59E2E6
:1029900065EC79E222C045EC59E26BEB79E21DC0AF
:1029A00041EA59E26EEA79E218C04EEA59E261EA78
:1029B00079E213C047E859E264E979E20EC044E9DC
:1029C00059E267E879E209C044EB57E260EC77E24C
:1029D00004C040EC57E264EB77E20E946E29CFCC52
:1029E000992389F10A35EDE51E0741F150F40115EF
:1029F0002CE51207A9F00E3D1C4529F50E9418256B
:102A0000BECC0B359DE51907D9F00C351D45D9F421
:102A10008091350282FB882780F991E0892711C0D7
:102A20000E94D41AFFEF24E38CE0F1502040804054
:102A3000E1F700C000000E947A1FA1CC81E001C034
:102A400080E00E949425F601868197810097B9F471
:102A5000F601828100811181882349F0C8010E941A
:102A60002B18F82E682FC8010E94881A04C0C801CC
:102A70000E94581AF82EB8018F2D0E9477220E94CA
:102A80007323F82E192FF601E280058102950F704D
:102A90008091AA06877099F0EE2089F0892F807FB7
:102AA000803421F080E28F0D883048F082E00E946F
:102AB000B5258091AA068770BB24B3948111B12CEF
:102AC000A12EA2948FE0A8228A2D90E08C3091054F
:102AD00008F0DBC1FC01E658FF4F0C94AB34812FAA
:102AE000807F1F70882311F01295107FEE20B9F0BF
:102AF000112309F4ACC180E28F0D883010F0F11081
:102B000006C09091AD06192B1093AD0605C09091AB
:102B1000AC06192B1093AC060E94492798C18F2D43
:102B20000E948B1B112309F4B0C180E28F0D883005
:102B300010F0F11004C0812F0E948D2506C0109561
:102B40009091AC0619231093AC060E9449279DC1B1
:102B5000812F807F1F70803211F01295107FFF202F
:102B600021F0F1E0FF1691F13BC0EE20D9F00023F7
:102B7000A9F0013031F48091B006812B0E943527F5
:102B800084C1053059F40E9482258091A70618134C
:102B90001093A706812F0E94811B77C18091B006F8
:102BA000812BF9CF002349F0013069F48091AD0603
:102BB000812309F46AC10E94D2250E948225812FB7
:102BC0000E947A1B62C10530C1F75FC1EE2021F07F
:102BD000063008F05AC1DECF053008F056C1EFCFFD
:102BE000EE2019F00023B1F232C1002341F329E3B2
:102BF000F21208C08FEF97EEE3E081509040E04082
:102C0000E1F73EC1FFE728E381E0F150204080403A
:102C1000E1F736C1812F86958695837019F0813052
:102C200061F033C1EE2021F08F2D912F937002C0FF
:102C300080E090E00E9451202EC1EE2021F08F2DE7
:102C4000912F937002C080E090E00E943B2023C14E
:102C5000812F8370A9F5E1101CC14F2D4295469537
:102C60004770440F440F8F2D8F7090E09C01042E0D
:102C700001C0220F0A94EAF7F4FE08C08FE090E04A
:102C800001C0880F4A95EAF7809501C080E016954B
:102C900016951370123069F088F49091B1061130D6
:102CA00019F0822B892302C0922B892B0E94D01A03
:102CB000F0C0822B9091B1068927F8CF822BF6CFF6
:102CC000EE2019F0812F817001C08695882309F4C8
:102CD000E0C04F2D429546954770440F440F8F2D0D
:102CE0008F7090E09C01042E01C0220F0A94EAF735
:102CF000F4FE08C08FE090E001C0880F4A95EAF723
:102D0000809501C080E0169516951370123059F029
:102D100078F49091A407113019F0822B892309C00F
:102D2000922B892B06C0822B9091A407892701C082
:102D3000822B0E94B51AADC01F70EE2039F0812F92
:102D40000E94C51A8F2D0E94811BA3C08F2D0E9447
:102D50007A1B812F0E94B91A9CC092EFF91659F183
:102D60009F1538F0E0EFFE1659F0F1EFFF16E1F095
:102D700069C023EFF21631F184EFF81681F162C0D9
:102D8000EE2071F0053008F080C01F7181E090E006
:102D900001C0880F1A95EAF79091A40789271CC0F3
:102DA000063008F072C0F1CFEE2039F0812F8F711C
:102DB0000E94C51A6AC0EE20C9F3812F8F710E944C
:102DC000B91A63C0EE2039F01F7181E001C0880F8D
:102DD0001A95EAF701C080E00E94B51A56C0EE20AD
:102DE000D1F08091A7060E948D258091AA06877058
:102DF000843039F40E94AE25812F8F710E94B91A58
:102E000066C0053008F063C01F71812F0E94C51A8B
:102E100063E0812F10C09091AD068091A706892BA9
:102E20008093AD06053050F00E94AE250E94D22559
:102E300064E0812F8F710E94862749C081E00E9443
:102E4000B52545C0EE2039F0002309F4AFCF8F2D12
:102E50000E94E21B1AC0002309F4AFCF99E3F912D4
:102E600008C0EFEFF7EE23E0E150F0402040E1F73B
:102E700007C08FE798E3E1E081509040E040E1F740
:102E800000C000008F2D0E948B1B88EF8A0D8430BC
:102E900010F40E946720BB20A9F08091AA0680FD53
:102EA00011C0F60112828595859585950E94C51AF7
:102EB000C6010E9406118091AA0685958595859583
:102EC0000E94B91A60E0C6010E94FB2FA5C0B12C78
:102ED000E0CF0131EFE51E0709F06DCA82E04BCA71
:102EE0000238FFE51F0709F42ACB08F036CB00387B
:102EF0008FE5180709F051CB8CCC81E080937A05DF
:102F00000E94672081FD52CB89E30E947E1C4ECB3C
:102F100002382FE5120709F412CB08F059C0003827
:102F20009FE5190709F442CB0138EFE51E0709F4C4
:102F300039CB033F2CE51207A1F406E221EE40EE67
:102F400063EF7CE50AC0073DFCE51F0709F02ECBC7
:102F500006E221EE41EE67ED7CE5C6010E94CE213E
:102F60000ECA043F8CE51807A0F4083D9CE519073C
:102F700031F407E225EE45EE68ED7CE5EECF093D44
:102F8000ECE51E0701F708E221E045EE69ED7CE57E
:102F9000E4CF053F2CE5120731F406E221EE42EEC4
:102FA00065EF7CE5DACF053F8CE5180730F407E2E2
:102FB00025EE44EE64EF7CE5D0CF063F9CE5190793
:102FC00009F0F4CA07E225EE46EE66EF7CE5C5CFD0
:102FD0000338FFE51F0749F4F6018281882309F4CD
:102FE000E5CA82E080937D0514C004382FE51207FE
:102FF00009F4BDCA9ECF69E2A1CC8DE2E816F104C6
:1030000009F47DCA9DE2E91692E0F90609F08FCA3B
:1030100076CAF6019281CFCA0F900F900F900F9051
:10302000DF91CF911F910F91FF90EF90DF90CF90A4
:10303000BF90AF909F908F90089580E090E00E94A5
:10304000512080E090E00E943B201092AC0610924C
:10305000AB060C944927CF92DF92FF920F931F93F8
:10306000CF93DF936C010091A4078091B106082BE8
:10307000C7E0D0E010E0C8010C2E02C095958795FE
:103080000A94E2F780FD04C02197A8F7F12C09C04B
:10309000FC2EB6018C2F0E9477220E947323019789
:1030A00099F38F2DDF91CF911F910F91FF90DF90BA
:1030B000CF900895CF93DF93EC010E942B18BE01AF
:1030C0000E9477220E947323DF91CF910895FC0123
:1030D00086819781009719F00E94732304C0808134
:1030E00091810E945A18292F2F70E92FE295EF70D5
:1030F0004E2F50E0FA013297EE30F105B8F4EA575E
:10310000FF4F0C94AB34803F99F018F4883E70F474
:103110000FC0843F59F40CC0883E50F0813F31F419
:1031200007C0822F869586958695089580E008953C
:1031300081E008959F92AF92BF92CF92DF92EF927B
:10314000FF920F931F93CF93DF93CDB7DEB76597B1
:103150000FB6F894DEBF0FBECDBF8C0185E0F8013D
:10316000DE01519601900D928A95E1F7F801E28017
:1031700090915D0660915E064091600650916106F7
:103180004115510531F06F3F31F481E09F3F19F453
:1031900003C081E001C080E0F82FF1709F2E80FD18
:1031A00037C1F80130812181C380D4807DE5A72E0D
:1031B00076E0B72EF0905F06F601E41BF50BFF20DA
:1031C00009F4F5C080916206E83CF10508F0B0C052
:1031D000482F407F09F05AC062131BC0931319C0D7
:1031E0006091630670916406F80146815781641707
:1031F000750779F4FE2CE1100CC08F70806180930C
:103200006206C5010E94061180916206F80185835D
:103210003CC1CD2831F02F3F31F481E03F3F19F41C
:1032200003C081E001C080E080FD03C081E08E2505
:1032300002C080E090E0F82FF170FF2E80FF1CC0EC
:103240008091A60640916506841709F4FCC090E0C1
:10325000FC0153E0EE0FFF1F5A95E1F7EA59F94FD1
:103260005181251306C05081531303C05281E512CA
:1032700003C001968770E8CFFE2CEE2009F405C14B
:10328000809162068160809362065EC0621315C001
:10329000931313C04091630650916406F801268190
:1032A00037814217530749F4E11007C08583C801ED
:1032B0000E94061188E0F80190C0C8010E946718BA
:1032C000882381F1EE2071F120916206822F829590
:1032D0008F7090E00297A4F080915D0690915E0659
:1032E0009A8789871B86DD86CC862E878091630628
:1032F00090916406988B8F87CE0109960E940611E3
:1033000088E0F801ADE5B6E001900D928A95E1F70D
:103310000E94E2250AC06217C9F0C8010E9467181E
:10332000811127C0C8010E940611FF24F394ADC08B
:10333000482F407F81F78DE596E00E94061188E0D6
:10334000F50111928A95E9F7F12C9FC09313E5CF0F
:103350004091630650916406F80126813781421737
:103360005307D9F6E110D9CF8583C8010E94061111
:1033700049C0EE20B9F220916206822F82958F70AB
:1033800090E002970CF4BCCF80915D0690915E06B0
:103390009A8389831B82DD82CC822E83809163068F
:1033A0009091640698878F83CE010196A7CFE83C61
:1033B000F10540F5FE2CEE2009F4B4CF621314C0E1
:1033C000931312C02091630630916406F801868140
:1033D00097812817390741F488E0ADE5B6E0019000
:1033E0000D928A95E1F751C0C8010E9467188111BA
:1033F00087CF80916206816080936206C8010E9437
:10340000061143C088E0F50111928A95E9F73DC0A5
:10341000EE2009F487CFC8010E946718F82E882390
:1034200009F480CF88E0F801ADE5B6E001900D9297
:103430008A95E1F780915D0690915E060E945A1888
:103440000E94E22522C0398B2A8B89899A890E94A1
:103450005A18292F22952F70223028F49F7039F0A6
:10346000811105C00BC0243028F49F7049F4805EA0
:10347000883020F0C8010E9406119F2CF92C05C04D
:10348000F8019581907F99F7F9CF8F2D65960FB64A
:10349000F894DEBF0FBECDBFDF91CF911F910F918A
:1034A000FF90EF90DF90CF90BF90AF909F900895E6
:1034B0009E3F61F128E0929F800D1124682F669550
:1034C00066956695982F977083E0689FB0011124E8
:1034D00040E050E080E0FB01E40FF51FE158FA4FB7
:1034E000208130E0092E02C0369527950A94E2F734
:1034F00021703327042E01C0220F0A94EAF7822B91
:103500004F5F5F4F4330510531F7089580E00895D4
:103510009E3F51F128E0929F800D1124E82FE695FF
:10352000E695E695877051E001C0550F8A95EAF758
:1035300083E0E89FF0011124E158FA4F20E030E0E9
:1035400070E04081CB01022E02C0969587950A94C7
:10355000E2F78170819584278523842781932F5FEB
:103560003F4F2330310569F708958093A4070C94E9
:103570001D1821E030E001C0220F8A95EAF720955E
:103580008091A40782230C94B51A21E030E001C099
:10359000220F8A95EAF78091A407822B0C94B51A22
:1035A0008093B1060C941D181092AD0686E0E7E5F5
:1035B000F6E0DF011D928A95E9F70C941D18CF9370
:1035C000DF93CDB7DEB760970FB6F894DEBF0FBEBE
:1035D000CDBF29873A874B875C876D877E878F872A
:1035E000988BCE0109960E949A18811151C088E0EB
:1035F000FE013996DE01119601900D928A95E1F750
:1036000079856A854C855D854115510531F06F3F9F
:1036100031F481E07F3F19F403C081E001C080E014
:1036200080FD36C0A0916506B0E0CD01019687709F
:1036300099272091A60630E08217930781F17983BC
:103640006A835D834C8393E0AA0FBB1F9A95E1F7D1
:10365000AA59B94F98E0FE01319601900D929A95C2
:10366000E1F7809365060E94D82512C028E0829F6A
:10367000C00111248A59994F0E949A188823E1F0B9
:103680008091A60690E00196877099278093A60600
:103690008091A606909165068913E8CF0DC00E941F
:1036A000D41A109265061092A606EDE5F6E088E0C1
:1036B000DF011D928A95E9F760960FB6F894DEBF98
:1036C0000FBECDBFDF91CF910895882341F0809543
:1036D0009091AC0689238093AC060C9449270895F9
:1036E000882339F09091AC06892B8093AC060C941A
:1036F00049270895882321F00E948D250C9449279D
:103700000895882339F09091AD06892B8093AD06FA
:103710000C9449270895882309F453C0682F8238F0
:1037200069F40E94672081FF4CC069E385E596E05B
:103730000E9421200E94492769E30EC0833891F43A
:103740000E94672080FF3DC063E585E596E00E940A
:1037500021200E94492763E585E596E00E94142018
:103760000C944927843869F40E94672082FF29C09D
:1037700067E485E596E00E9421200E94492767E4DE
:10378000EBCF8CEF860F813A38F380E2860F8830DA
:1037900048F4677081E001C0880F6A95EAF70E94DB
:1037A0008D25DECF8BE5860F833020F480E090E01E
:1037B0000C945120685A673120F480E090E00C941A
:1037C0003B200895CF93882309F496C0C82F8238F0
:1037D000B1F40E94672081FD8FC069E385E596E022
:1037E0000E9421200E9449272FEF81EE94E0215072
:1037F00080409040E1F700C0000069E317C08338C3
:10380000E1F40E94672080FD77C063E585E596E0DE
:103810000E9421200E9449272FEF81EE94E0215041
:1038200080409040E1F700C0000063E585E596E048
:103830000E941420CF910C9449278438B1F40E943F
:10384000672082FD59C067E485E596E00E9421204B
:103850000E9449272FEF81EE94E021508040904054
:10386000E1F700C0000067E4E1CF8CEF8C0F813AF4
:1038700080F4E7E5F6E08DE596E02191C217A1F12D
:103880008E179F07D1F76C2F85E596E00E942120C7
:10389000D1CF80E28C0F883068F4C77081E090E06F
:1038A00001C0880FCA95EAF79091AD06892B8093E5
:1038B000AD06C0CFEBE5EC0FE33040F4F0E0E55CA3
:1038C000FE4F808190E0CF910C945120C85AC731AF
:1038D00098F4EC2FF0E0EE0FFF1FE25CFE4F8081CA
:1038E0009181CF910C943B206C2F85E596E00E944E
:1038F00014200E944927C7CFCF9108951F93CF93DB
:10390000DF93182F893319F0C9E1D0E002C0C0E578
:10391000D0E0812F0E94E21B8FE99FE00197F1F731
:1039200000C000002197C1F7812FDF91CF911F9137
:103930000C948B1B089580918507089590919907A9
:10394000943029F580935106709353066093520684
:103950009093E9008FEF9091E800815095FD06C0AB
:1039600095ED9A95F1F700008111F5CF8091E8006F
:1039700085FF0DC040E050E063E070E081E596E037
:103980000E94DD2B8091E8008E778093E8000895F7
:10399000BC0184E00C949E1CBC0183E00C949E1C32
:1039A000CF93DF9321E02093E9002FEF3091E800DF
:1039B000215035FD06C035ED3A95F1F70000211193
:1039C000F5CF2091E80025FF14C0EC0140E050E065
:1039D00068E070E00E94DD2B8091E8008E77809394
:1039E000E80088E0FE01A6E8B7E001900D928A9514
:1039F000E1F7DF91CF9108951F920F920FB60F92CA
:103A000011242F933F934F935F936F937F938F93E3
:103A10009F93AF93BF93CF93DF93EF93FF93C091A7
:103A2000E900CF708091EC00D82FD17080FDD0E8F4
:103A30001092E9008091F000877F8093F0007894E5
:103A40000E942F2C1092E9008091F00088608093F2
:103A5000F000CD2BCF70C093E900FF91EF91DF9183
:103A6000CF91BF91AF919F918F917F916F915F9116
:103A70004F913F912F910F900FBE0F901F9018956F
:103A8000E8EDF0E080818E7F80831092E20010925A
:103A9000DA001092E100A0EEB0E08C9181608C938E
:103AA00080818F77808319BCA7EDB0E08C918E7FE9
:103AB0008C9380818F7E808310925406089520918C
:103AC000E4003091E50095E64091EC00842F817090
:103AD00040FF23C08091E80080FD1DC080919907C0
:103AE000882399F0853099F08091EB0085FD11C015
:103AF0004091E4005091E5002417350729F39150D7
:103B000011F09A01E1CF84E0089582E0089583E006
:103B1000089581E0089580E008954091E80042FF13
:103B2000DDCF08958091910787FF11C08091E80053
:103B300082FD05C0809199078111F8CF11C0809155
:103B4000E8008B770BC080919907882349F080911A
:103B5000E80080FFF8CF8091E8008E778093E8003E
:103B60000895982F973068F59093E900981739F0E9
:103B70007091EC002091ED005091F00003C0242FD3
:103B8000762F50E021FD02C09F5FECCF3091EB001B
:103B90003E7F3093EB003091ED003D7F3093ED00A0
:103BA0003091EB0031603093EB007093EC00209388
:103BB000ED005093F0002091EE0027FDE5CF80E06E
:103BC00008958F708093E90081E00895CF92DF928D
:103BD000EF92FF920F931F93CF93DF93C8EDD0E046
:103BE00088818F7E8883E7EDF0E08081816080832B
:103BF00084E082BF81E08093540688818E7F888331
:103C000002EE10E0F80110821092DA0081EEC82E68
:103C1000D12CF601108288818F7788838881806813
:103C2000888388818F7D888319BC109299071092B0
:103C3000900710928F0710928E0790EEE92EF12CCC
:103C4000F70180818B7F808388818160888342E057
:103C500060E080E00E94B11DF60180818E7F80834C
:103C6000F801808181608083808188608083F70192
:103C700080818E7F8083888180618883DF91CF916E
:103C80001F910F91FF90EF90DF90CF9008951F92BA
:103C90000F920FB60F9211242F933F934F935F9380
:103CA0006F937F938F939F93AF93BF93EF93FF9304
:103CB0008091E10082FF09C08091E20082FF05C08F
:103CC0008091E1008B7F8093E1008091DA0080FF9A
:103CD0002AC08091D80080FF26C08091DA008E7FB4
:103CE0008093DA008091D90080FF18C080E189BDFF
:103CF00082E189BD09B400FEFDCF81E08093990780
:103D00008091540681110FC00E94401D0E94E61D43
:103D10008091E20084608093E20005C019BC10929B
:103D20009907109254068091E10080FF17C080919E
:103D3000E20080FF13C08091E2008E7F8093E2005A
:103D40008091E20080618093E2008091D8008062DF
:103D50008093D80019BC85E0809399078091E10099
:103D600084FF2EC08091E20084FF2AC080E189BDDB
:103D700082E189BD09B400FEFDCF8091D8008F7D1E
:103D80008093D8008091E1008F7E8093E100809144
:103D9000E2008F7E8093E2008091E2008160809358
:103DA000E20080919007882311F084E007C08091A1
:103DB000E30087FD02C081E001C083E080939907A2
:103DC0008091E10083FF27C08091E20083FF23C040
:103DD0008091E100877F8093E10082E080939907E2
:103DE000109290078091E1008E7F8093E100809196
:103DF000E2008E7F8093E2008091E20080618093F8
:103E0000E20042E060E080E00E94B11D8091F0009D
:103E100088608093F000FF91EF91BF91AF919F91E7
:103E20008F917F916F915F914F913F912F910F9063
:103E30000FBE0F901F90189520919707309198070B
:103E40002617370748F06115710539F42091E8000D
:103E50002E772093E80001C0B901FC0120E0611534
:103E6000710579F1809199078823F1F18530F1F19D
:103E70008091E80083FD3CC08091E80082FD2EC067
:103E80008091E80080FFEBCF2091F3008091F20059
:103E900090E0922B6115710551F08830910538F44E
:103EA00021912093F100615071090196F3CF21E037
:103EB000089709F020E08091E8008E778093E80071
:103EC000CECF2111CFCF0AC080919907882361F00E
:103ED000853061F08091E80083FD0AC08091E800A0
:103EE00082FFF2CF80E0089582E0089583E0089594
:103EF00081E0089581E08093E00080E28093D80023
:103F00001092C9008FE19EE40197F1F700C0000014
:103F100087E090EBDC018093A5079093A607A09320
:103F2000A707B093A8079CE088E10FB6F894A8957E
:103F3000809360000FBE90936000FFCF78941F9233
:103F40000F920FB60F9211248F939F93AF93BF934D
:103F500080914D0690914E06A0914F06B09150066B
:103F60000196A11DB11D80934D0690934E06A0931E
:103F70004F06B0935006BF91AF919F918F910F90D4
:103F80000FBE0F901F9018959C014FB7F894809129
:103F90004D0690914E06A0914F06B09150064FBF2E
:103FA000821B930B08952FB7F89460914D06709182
:103FB0004E0680914F06909150062FBF08952FB75F
:103FC000F89480914D0690914E06A0914F06B091C5
:103FD00050062FBF08951F920F920FB60F92112413
:103FE0008F939F93AF93BF9380914C06811113C021
:103FF00080914D0690914E06A0914F06B0915006CB
:104000004196A11DB11D80934D0690934E06A0933D
:104010004F06B0935006BF91AF919F918F910F9033
:104020000FBE0F901F9018959C012A5F3F4FFC0117
:104030004281461301C01282019682179307B9F795
:1040400008959C01FC0132969FEF80E04191461754
:1040500089F09F3F19F4411101C0982F8F5F86307E
:10406000A9F79F3F39F0F901E90FF11D97FDFA9586
:1040700062830895089520914A0630914B062817CF
:10408000390771F090934B0680934A06E0914806F9
:10409000F0914906309721F00084F185E02D0994D4
:1040A000089520914606309147062817390771F088
:1040B0009093470680934606E0914806F0914906A2
:1040C000309721F00680F781E02D09940895E09162
:1040D0004806F0914906309721F00190F081E02DDB
:1040E000099480E00895BC01409142068091430606
:1040F000942F981729F1292F30E0F901EE0FFF1FB7
:10410000E65CF94F0190F081E02DE617F70799F48E
:1041100087E0869FF001879FF00D1124EE5FF94F35
:1041200081E0848394130CC02F5F3F4F23703327AB
:104130002093420608952F5F3F4F922F9370D9CF5F
:1041400008950F931F93CF93DF938091A105882348
:1041500009F451C0C091A0051CE08091A105C817C9
:1041600008F045C001E00C0F0093A005D0E01C9FB3
:10417000F0011D9FF00D1124EE55FA4F90818181C1
:1041800023813481232B31F08F3F31F481E09F3F35
:1041900019F403C081E001C080E080FD26C01C9FAF
:1041A000D0011D9FB00D1124AE55BA4F16968D91BA
:1041B0009C911797892B31F418968D919C911997A2
:1041C000019651F42081318142815381648175814E
:1041D000868197810E94DF1A1C9FF0011D9FF00DC0
:1041E0001124EE55FA4F14821382C02FB6CF1092CD
:1041F000A1051092A005DF91CF911F910F91089515
:1042000010929F0510929E05E2E0F6E085818111F3
:1042100002C014821682379686E0EA33F807B1F7B7
:104220000895109245061092440610921401809150
:104230004306809342060E9400210C94A1203F92E5
:104240004F925F926F927F928F929F92AF92BF92A6
:10425000CF92DF92EF92FF920F931F93CF93DF9352
:10426000C091420697E0892E01E010E02CE0322E4A
:104270003EEF932E4424439480914306C81709F4DB
:1042800078C0D0E0FE01EE0FFF1FE65CF94F8081A1
:104290009181889ED001899EB00D1124AE5FB94FE7
:1042A00014962C911497211161C05090A105E2EA57
:1042B000F5E020E030E0712C5D01251508F054C0D8
:1042C000E284F384D501CD90DC906FEF7FEF612C19
:1042D000462D50E0DA01AA0FBB1FAC0DBD1D0D909D
:1042E000BC91A02D109731F0EA16FB0609F4BA0133
:1042F0006394EECF6F3FBFEF7B0791F1D80102C00F
:10430000AA0FBB1F6A95E2F77A2AB80102C0660FAE
:10431000771F6A94E2F7AB0141505109672D70E0B5
:1043200046175707D9F4329EF001339EF00D112441
:10433000EE55FA4F889ED001899EB00D1124AE5FD4
:10434000B94F12962D913C91139737832683908213
:1043500091829187808715964C9206C014821382B1
:104360002F5F3F4F3C96A9CF0E9473202196C370C8
:1043700083CF0E94A120DF91CF911F910F91FF90D9
:10438000EF90DF90CF90BF90AF909F908F907F90F5
:104390006F905F904F903F900C9400210F931F936C
:1043A000CF93DF93C42FD22FFC0182818823C9F0E1
:1043B00040939D050E94DF1F90939C0580939B0571
:1043C00080E28C0F883008F057C0C77081E001C0D0
:1043D000880FCA95EAF7DF91CF911F910F910C9446
:1043E000811B80919D05481330C080919B05909161
:1043F0009C050E94C41F883C910538F510E21D0FF2
:10440000CD17B9F080E28C0F883040F4C77081E09E
:1044100001C0880FCA95EAF70E947A1B183028F568
:1044200081E09D2F977001C0880F9A95EAF70E944E
:10443000811B802F0E947E1C1830F0F4D77081E021
:1044400001C0880FDA95EAF70AC080E28C0F883045
:1044500098F4C77081E001C0880FCA95EAF7DF9130
:10446000CF911F910F910C947A1B802FDF91CF91E8
:104470001F910F910C947E1CDF91CF911F910F9192
:10448000089580919A058823F9F00E94D31FDC01DA
:10449000CB01805A9541AF4FBF4F809395059093C4
:1044A0009605A0939705B093980580919905811181
:1044B0000BC062E070E085EF95E00E94662B892BCF
:1044C00019F481E080939905809199050895CF931F
:1044D000DF93C3E9D2E060E0CE010E943C34219634
:1044E000C11584E0D807B9F7DF91CF910895462F21
:1044F0002091930530919405232B49F4853038F4AD
:10450000763028F4683018F4672F0C94A12880E0E6
:1045100090E008956F927F928F929F92AF92BF9298
:10452000CF92DF92EF92FF920F931F93CF93DF937F
:10453000CDB7DEB72A970FB6F894DEBF0FBECDBF5A
:10454000A0909105B090920581E090E09093920543
:1045500080939105C12CD12C712C612CE12CF12C74
:1045600000E010E047018C0C9D1CF401E00FF11FEE
:10457000EE0FFF1FEB5EFB4F25913491402F662D10
:10458000872D0E946B280F5F1F4F0830110569F7B8
:1045900088E0E80EF11C639496E06912E1CF10E028
:1045A00021E030E040E0612F872D0E94032821E0C8
:1045B00030E041E0612F872D0E9403281F5F1330F8
:1045C00079F77394E0E3CE0ED11CF5E07F12C5CFEE
:1045D000CE0101967C018AE0F70111928A95E9F7F4
:1045E00003E412E04AE050E0B801C7010E946034E1
:1045F000065F1F4F0339F2E01F07A1F7B092920543
:10460000A09291052A960FB6F894DEBF0FBECDBFDB
:10461000DF91CF911F910F91FF90EF90DF90CF909E
:10462000BF90AF909F908F907F906F90089580E0A3
:1046300008959091340292FF0DC0282F28712830E0
:1046400019F4877F846006C0282F2471243011F468
:104650008B7F886093FF0DC0282F2871283119F4B3
:10466000877E846106C0282F2471243111F48B7E4B
:1046700088612091350220FF0DC0382F3871383005
:1046800019F4877F816006C0382F3171313011F401
:104690008E7F886021FF0DC0282F2871283119F4E2
:1046A000877E816106C0282F2171213111F48E7E11
:1046B000886194FD877E0895F894E82FE295EF7065
:1046C000F0E031A1282F2F7081E090E001C0880F29
:1046D0002A95EAF7982F9095932391A392A1892B7D
:1046E00082A378940895CF93DF938238910569F17E
:1046F000B0F48133910509F46FC048F48932910513
:1047000009F465C08A32910509F46BC08AC085330B
:10471000910509F457C089339105B9F082C0833EF1
:10472000910571F138F4803E9105B1F0823E91051A
:1047300011F177C0863E9105B9F1873E9105C9F127
:10474000843E910509F06DC024C02091340220FD03
:1047500053C021FD51C065C08091340280FD46C028
:104760008091350280FF48C08091340284FD3FC1B2
:1047700083EE90E03EC18091340282FF3AC0F4CFD4
:104780008091340282FD35C08091350280FD34C0B5
:10479000EBCF8091350281FF35C08091340284FDDA
:1047A00026C187EE90E025C18091340283FF27C0A7
:1047B000F4CF8091340283FD22C08091350281FDC7
:1047C00021C0EBCF8091340285FD1FC021C08091B4
:1047D000340285FD1DC019C08091340286FD1BC0C6
:1047E0001DC08091340286FD19C015C089E390E098
:1047F00000C182EE90E0FDC080EE90E0FAC086EE4F
:1048000090E0F7C084EE90E0F4C089E290E0F1C05F
:1048100085E390E0EEC08AE290E0EBC081E390E0B7
:10482000E8C0811532E5930708F069C0811541E5BC
:10483000940728F0982F8827816F906ADAC0883E05
:10484000910568F5803E910508F0D3C0883A91053E
:10485000B8F4853A910548F0855AE82FF0E0E55C18
:10486000FE4F808190E09064C4C08130910509F4CE
:10487000BBC008F4BCC08430910508F4B8C0B9C00E
:104880008F3B910508F0B3C0885AE82FF0E0EE0F97
:10489000FF1FE25CFE4F808191819464AAC0811564
:1048A00020E59207F0F09C0174E0369527957A9503
:1048B000E1F7922F9370482F437021E030E002C05F
:1048C000220F331F4A95E2F73C68392B8F70982FDF
:1048D0009695969540E2949FC0011124822B932BCC
:1048E00088C0811530E4930718F09F70906A81C0EA
:1048F0009C013A9521153F4108F47BC078C0EC013A
:10490000C11586E5D807E8F5C11525E5D20748F0B9
:104910008C2F0E9419238F7190E0982F8827906226
:1049200068C0C11534E5D30728F09C2F8827846F11
:10493000906A5FC0AE01437055272C2F26952695AF
:10494000C115D34578F481E090E002C0880F991F2B
:104950004A95E2F740E2249F90011124822B932B89
:104960009C6847C081E090E002C0880F991F4A957B
:10497000E2F740E2249F90011124822B932B9A6846
:1049800038C0C1152AE5D207F8F4C11539E5D307B7
:1049900090F08C2F8F700E94192394E0D695C795C4
:1049A0009A95E1F7CF70D0E0DC2FCC27D0699E013B
:1049B000282BC9011EC0C11548E5D407C0F09C2FA3
:1049C0008827806F906A15C0CE019056811590425D
:1049D00070F48D2F8F710E941923282F2F71CE0113
:1049E00099279062922B05C081E090E002C080E0A0
:1049F00090E0DF91CF910895CF9384E090E00E9402
:104A00001E34C82F82E290E00E941E342C2F30E02A
:104A1000A901582BCA01CF91089580E090E00E942F
:104A200026348A3E9E4F11F40C94552980E0089557
:104A30006AEE7EEF80E090E00E945A3460E082E00F
:104A400090E00E943C3460E083E090E00E943C34BF
:104A50001092B10660E084E090E00E943C3460E097
:104A600082E290E00E943C3460E085E090E00E94A9
:104A70003C3460E086E090E00E943C346FEF87E0D9
:104A800090E00E943C3440E050E0BA0188E090E0C1
:104A90000E944E3460E08DE090E00E943C3440E0A3
:104AA00050E0BA0188E190E00E944E3460E087E176
:104AB00090E00E943C3440E050E0BA018CE190E08C
:104AC0000E944E3460E070E080E290E00E945A3430
:104AD00040E050E0BA0188E190E00E944E3480E06E
:104AE0000E9428290E94462940E050E0BA018FE048
:104AF00090E00E944E3440E050E0BA0183E190E043
:104B00000C944E348091B006882331F01092B00698
:104B10001092AF061092AE06089580959091AD0662
:104B200089238093AD060895CF93C0913502C2FBCF
:104B3000992790F9981781F080FBC2F9C09335024C
:104B40006091340284E090E00E943C346C2F82E259
:104B500090E0CF910C943C34CF9108951092AA0626
:104B60001092A9061092A80608952091AA06809591
:104B700082238093AA06982F977041F430E0482F43
:104B8000082E000C550B2417350721F4909135029F
:104B900092FF07C08595859585950E94B91A0C945A
:104BA000AE2508958091A70681111092A706089559
:104BB0008091A60690916506891719F08F5F87701E
:104BC000FBCF08951F93CF93DF9380916206829568
:104BD0008F7009F05CC080915F06882309F457C08C
:104BE0008091A6061091650660915D0670915E0643
:104BF000C0916006D091610691E06F3F09F090E0AE
:104C0000292F811709F443C0209721F07F3F21F01D
:104C100030E003C031E001C0322F90E030FD34C0FD
:104C2000FC0133E0EE0FFF1F3A95E1F7DF01AA59CF
:104C3000B94F11963C911197371326C03C9136130A
:104C400023C012963C91129731111EC013964D91BC
:104C50005C9114974C1B5D0B483C5105A8F4809166
:104C600062068F70806180936206E559F94F8081FA
:104C70008F70806180838DE596E00E940611DF9140
:104C8000CF911F910C94D82501968770BACFDF91F0
:104C9000CF911F9108959F92AF92BF92CF92DF92D2
:104CA000EF92FF920F931F93CF93DF9300D000D02A
:104CB00000D0CDB7DEB7AE014F5F5F4F7A0186E01F
:104CC000FA0111928A95E9F705E211E05A01CC2424
:104CD000C394D12CF80180818F3F09F447C0F89428
:104CE000E82FE295EF70F0E021A18F70A60102C0DD
:104CF000440F551F8A95E2F7CA01922F982B91A372
:104D000092A18095892382A3789400C0EBE2F1E020
:104D100020E030E0912C41914F3FB1F0A42FA295BB
:104D2000AF70B0E090968C9190E04F7002C0959576
:104D300087954A95E2F780FD07C08C2D022E01C0B1
:104D4000880F0A94EAF701C080E0982A2F5F3F4F4E
:104D50002830310501F7F80180818F3F11F00E9462
:104D60005C23F0EAFA95F1F7F50190820F5F1F4F8F
:104D7000FFEFAF1ABF0A41E00B32140709F0AACFC8
:104D800046E050E0B70186E392E00E94DA3411E099
:104D9000009709F410E0892B89F086E0F701A6E37B
:104DA000B2E001900D928A95E1F781E08093B4061C
:104DB0000E94DF1F9093B3068093B2068091B406E1
:104DC0008823A1F08091B2069091B3060E94C41F7F
:104DD000059760F0E6E3F2E0A4E7B5E081918D93FA
:104DE00052E0EC33F507D1F71092B406809114012C
:104DF000882341F18091440690914506009711F176
:104E00000E94C41F20919E0530919F0528173907E5
:104E1000C8F49091420680914306981759F00E9479
:104E20001F2110929F0510929E0510924506109228
:104E3000440608C00E94A120109245061092440624
:104E40000E940021812F26960FB6F894DEBF0FBE78
:104E5000CDBFDF91CF911F910F91FF90EF90DF9029
:104E6000CF90BF90AF909F900895CF9390913502CF
:104E700092FD0DC09091B006981749F0C82F0E947E
:104E8000DF1F9093AF068093AE06C093B006CF911C
:104E900008959091AD068091AC06892B9091AB0658
:104EA000892B809355068091B006882311F10E94CA
:104EB000DF1F2091AE063091AF06821B930B88381E
:104EC000934110F00E948225909155068091B00682
:104ED000892B80935506E7E5F6E097E080E0915056
:104EE00029F021912223D9F38F5FF9CF81110E94FC
:104EF0008225E0914806F0914906309731F0028012
:104F0000F381E02D85E596E00994089590913502AE
:104F100092FD10C098E0899F90011124262B2093C8
:104F2000AA060E94C51A0E94DF1F9093A9068093CB
:104F3000A80608950C94C51AE6EBF6E097E0E43372
:104F4000F90729F08183608342833396F7CF089570
:104F5000FC01EE0FFF1F8E0F9F1FFC01EA54F94F5B
:104F60006183408322830895EEE9F7E0248130E1F4
:104F7000231B08F420E0248381E08093B506089584
:104F8000EEE9F7E0248130E1230F08F42FEF2483CA
:104F900081E08093B5060895E42FF0E0EE0FFF1F47
:104FA000ED54FE4F9081921B97FD9195292F38E18A
:104FB000239F212D1124620F0895539A8BB1877F6F
:104FC0009BB198602FB7F894E6EBF6E037E0E43356
:104FD000F30789F0319148E09BB9000000C037FF2A
:104FE0008BB9330F000000C000C000C08BB900C0F7
:104FF0004A9591F7EBCF2FBF8FE594E00197F1F73A
:1050000000C0000008950F931F93CF93DF93853066
:1050100068F5633058F5423048F521159CE53907AD
:1050200031F4E0919105F0919205EF2BF9F08901AF
:10503000282F34E0639FC00111243CE0239F800DA2
:10504000911D1124840F911D840F911DEC01C95FE6
:10505000DD4F612FCE010E943C34602FCE010196BE
:10506000DF91CF911F910F910C943C34DF91CF9140
:105070001F910F9108950F931F93CF93DF93853066
:1050800018F5633008F54230F8F4282F34E0639FB8
:10509000C00111243CE0239F800D911D1124840F39
:1050A000911D840F911DEC01C95FDD4FCE010E945F
:1050B0001E3490E0182F0027CE0101960E941E3466
:1050C0009801282BC90102C080E090E0DF91CF91C8
:1050D0001F910F9108950F931F93CF93DF93853006
:1050E00058F5663048F5483038F521159CE5390704
:1050F00031F4E0919105F0919205EF2BE9F08901EF
:10510000C42FD0E0CC0FDD1F90E1699FC00DD11DF1
:10511000112490E6899FC00DD11D1124612FCE016D
:1051200087960E943C34602FCE018896DF91CF9104
:105130001F910F910C943C34DF91CF911F910F91EF
:1051400008950F931F93CF93DF93853008F5663052
:10515000F8F44830E8F4C42FD0E0CC0FDD1F20E194
:10516000629FC00DD11D112430E6839FC00DD11D5B
:105170001124CE0187960E941E3490E0182F00273C
:10518000CE0188960E941E349801282BC90102C0C6
:1051900080E090E0DF91CF911F910F910895CF9221
:1051A000DF92EF92FF920F931F93CF93DF93CDB7D0
:1051B000DEB72A970FB6F894DEBF0FBECDBF80E5ED
:1051C000E4E3F7E0DF011D928A95E9F788E3E2E086
:1051D000F6E0DF011D928A95E9F784E3C82E87E0A7
:1051E000D82E7F0103E412E0F701D182C0824AE0A9
:1051F00050E0B801CE0101960E940E3488E0FE0115
:105200003196D60101900D928A95E1F789859A85AC
:10521000D70113969C938E931297BAE0CB0ED11CB4
:10522000E7E0EE0EF11C065F1F4F0339F2E01F07A7
:10523000D9F62A960FB6F894DEBF0FBECDBFDF9128
:10524000CF911F910F91FF90EF90DF90CF90089535
:10525000CF93C82F811102C06FEF01C06BE583E2CD
:1052600090E00E943C34C11102C06FEF01C062EBBC
:1052700084E290E00E943C34C11102C06FEF01C093
:1052800060E385E290E0CF910C943C3480E00E9492
:10529000282960E086E290E00E943C340E948A2245
:1052A0000E94672281E00C94282983E290E00E940A
:1052B0001E348B3581F484E290E00E941E34823BE0
:1052C00051F485E290E00E941E3491E0803309F0B1
:1052D00090E0892F01C080E081700895882311F04B
:1052E000FA0101C0FB01099490919E07937071F03F
:1052F00080939F076093A007413708F040E74093F1
:10530000A1078091B506282B2093B5060895EEE9F4
:10531000F7E0438120E1421B08F440E0818121E075
:10532000628190E00C947429EEE9F7E0438120E17A
:10533000420F08F44FEF818121E0628190E00C94EC
:105340007429EEE9F7E0628120E1621B08F460E075
:10535000818121E0438190E00C947429EEE9F7E02B
:10536000628120E1620F08F46FEF818121E04381C7
:1053700090E00C947429EEE9F7E0818190E021E05F
:105380004381628108970C947429EEE9F7E08181EA
:1053900090E021E04381628108960C9474299091F9
:1053A0009E079370A1F0811102C0946007C08B30FA
:1053B00010F0986203C0880F880F982B90939E0777
:1053C000109215018091B506682B6093B50608957B
:1053D00080919E0786958695815009F48AE061E068
:1053E0000C94CF2980919E07869586958F5F8B3090
:1053F00008F081E061E00C94CF290C949C270C9478
:10540000A82746E050E06CE170E08EE997E00C944C
:105410002C34EEE9F7E085E08083809122019091C1
:105420002301A091240181839283A3838FE7848346
:105430008FEF85830C94012A22E8241B08F420E0D6
:10544000620F0895482F982F46FD9095E92FEF732E
:105450009F7046FD9F5FE295EF70EE0FF0E0E4591C
:10546000FE4F2181299F802D212D112482958F703F
:105470002295207F822B3081982F930F892F47FD13
:105480008195805808950F931F93CF93DF93D62F64
:10549000072F182FC42F822F0E94222AEC2FF0E012
:1054A000EE0FFF1FED54FE4F90819058890F87FD3E
:1054B0008195880F682F2CE0629F612D11246D0F5C
:1054C000702F812FDF91CF911F910F910895BC0113
:1054D0008230910508F40895613E8EE1780748F422
:1054E0009B0195E0369527959A95E1F748E0420FA4
:1054F00001C04FEF91E0242F30E0290F311D359589
:105500002795229FF001239FF00DF00D11246E17B7
:105510007F0718F44FEF420F04C02F3F39F091E09E
:10552000920F491740F78FEF890F08958FEF089575
:105530000F93CF93DF93D72FC82F47FD4195E2E319
:10554000F0E0CF01841B910947FD9395889FB0013E
:10555000899F700D700D1124229FC001239F900D13
:10556000900D1124860F971F0E94672A682F660FDF
:10557000860F682F600F7D2F8C2FDF91CF910F91B9
:10558000089520E030E0869F212D969F200D311D4B
:105590001124C9010895CF92DF92EF92FF920F93E9
:1055A0001F93CF93DF93F62E472FE82FF0E0711172
:1055B00006C0E950FA4F8491782F682F73C0272FC7
:1055C00030E0E950FA4FE491FE2F0E2F10E056E044
:1055D000659FC0011124CFEFD0E0BE010E94F133DE
:1055E0005BEA5603C001579F900D11248F0D911D4A
:1055F0008F0D911D982F990F980F7E01E21AF30AD3
:10560000E09ED001E19EB00DF09EB00D11248B2FD5
:10561000499FA0011124452F55277E01E41AF50A60
:10562000E09EA001E19E500DF09E500D11246E01F0
:10563000C91AD108C29E7001C39EF00CD29EF00C14
:1056400011242F2D3327C21BD30BC09F9001C19F64
:10565000300DD09F300D1124932F6230710591F0E1
:1056600048F461157105E1F061307105B9F49E2FC0
:10567000E52F16C06430710569F040F066307105A1
:1056800079F00CC09E2FEB2F832F0AC0EB2F8F2FAA
:10569000952F06C09B2F8E2FE32F02C09B2F852FA7
:1056A0007E2F692FDF91CF911F910F91FF90EF9087
:1056B000DF90CF9008958091A407982F9670963030
:1056C00011F4886001C0877F0C94B51AEF92FF92A5
:1056D0000F931F93CF93DF93EC017B0164E670E09F
:1056E00088E70E94E8328C01EC0EFD1ECE15DF0526
:1056F00061F017FD0AC0FE01849164E670E00E942B
:1057000069338C012196892B89F30E94ED33C801FE
:10571000DF91CF911F910F91FF90EF900895DF924D
:10572000EF92FF920F931F93CF93DF938C01C09161
:10573000170189E0C89FC02D1124D9E0DC0FDB32AE
:1057400008F0DAE26091A2076695669521E0620FA3
:1057500008F46FEF80919A0790919B070E94C12AED
:10576000D82ECD17F0F4EC2EF12CF701E95FFD4FA8
:10577000908180911801892391F060919F07709129
:10578000A0078091A1072D2D4C2FF80109950E94AB
:10579000CB2A462F282F672FC7010E94FF29CF5FF2
:1057A000E0CF81E0DA3208F080E0DF91CF911F9105
:1057B0000F91FF90EF90DF900895EF92FF920F937B
:1057C0001F93CF93DF937C018B010E945F1D81119A
:1057D00019C0E70101151105A1F08091E80085FDD0
:1057E0000AC08091E8008E778093E8000E945F1DD8
:1057F000882381F307C089918093F100015011093A
:10580000E9CF80E0DF91CF911F910F91FF90EF9052
:105810000895CF93209199072430F9F4C091E900BD
:10582000CF703091EC00232F217030FD20E8C22B87
:1058300022E02093E9002091E80020FF0BC040E027
:1058400050E060E270E00E94DD2B8091E8008E77EE
:105850008093E800CF70C093E900CF9108951F9323
:10586000CF93DF93CDB7DEB7AA970FB6F894DEBF1C
:105870000FBECDBFE1E9F7E08091F100819347E0F1
:10588000E939F407C9F780919207833009F462C0BF
:1058900030F4813071F0823009F49CC0B3C08A309A
:1058A00009F488C08B3009F46DC0893009F0AAC0B2
:1058B00020C080919107813A09F0A4C08091E8004E
:1058C000877F8093E8008091950790919607892BB8
:1058D00021F468E086E897E003C060E080E090E0B3
:1058E00070E00E941C1F8091E8008B778093E80095
:1058F00089C080919107813209F084C08091950719
:1059000090919607009719F0029709F07BC080915B
:10591000E800877F8093E8008091E80082FD05C061
:10592000809199078111F8CF6DC02091F30080918B
:10593000F20090E0922B029729F48091F1008B7F86
:10594000813021F48091F100809385078091E800F7
:105950008B7754C080919107813A09F053C08091B0
:10596000950790919607892B09F04CC08091E8002B
:10597000877F8093E8008091E80080FFFCCF8091D2
:10598000160137C0809191078132E1F5809195072A
:1059900090919607892BB1F58091E800877F8093DD
:1059A000E8000E94921D80919307809316010E9447
:1059B000D41A28C080919107813221F58091E800A6
:1059C000877F8093E8000E94921D809194078093C6
:1059D000840718C080919107813AA1F48091E80072
:1059E000877F8093E8008091E80080FFFCCF809162
:1059F00084078093F1008091E8008E778093E8001F
:105A00000E94921D8091E80083FFE9C18091910777
:105A100090919207492F50E04A30510508F0DFC1BC
:105A2000FA01EC56FF4F0C94AB34803821F08238E9
:105A300009F0D5C108C080918E0790918F079923F6
:105A400089F082600FC0809195078F70873008F0D1
:105A5000C6C18093E9008091EB0085FB882780F91F
:105A60001092E9009091E800977F9093E80080936E
:105A7000F1001092F1007CC1282F2D7F09F0AFC1F9
:105A8000882319F0823061F0AAC180919307813098
:105A900009F0A5C1933009F080E080938F072EC0F4
:105AA0008091930781112AC0809195078F702FEF05
:105AB000280F263008F093C18093E9002091EB0075
:105AC00020FF1CC0933021F48091EB00806214C051
:105AD0009091EB0090619093EB0021E030E0A90100
