:100000000C94CF030C9416040C9416040C94160450
:100010000C9416040C9416040C9416040C941604F8
:100020000C9416040C9416040C9420140C945C1379
:100030000C9409230C9416040C9416040C941604C6
:100040000C9416040C9416040C9416040C941604C8
:100050000C9416040C94FC150C9416040C941604C1
:100060000C9416040C9416040C9416040C941604A8
:100070000C9416040C9416040C9416040C94160498
:100080000C9416040C9416040C9416040C94160488
:100090000C9416040C9416040C9416040C94160478
:1000A0000C9416040C9416040C94160432083208AE
:1000B0006B086B08CD08080A080A080AEB085F09F4
:1000C00070097009680E7E0E850EBD0ECE0ED90E1B
:1000D000E90EFC0E3B0F400F9A0F9A0F9A0F480F34
:1000E00064118B113E138B113E13D711FA113E137D
:1000F000FB120B13A316A316B616B616AC16B6163D
:10010000B616B616A316A316B116B616B616B116BF
:100110002E2000FD377A585A000004E6D6B4460275
:1001200000210116000000742FE5A3E008530245EA
:100130005D003D8889C65436C3174FE4F1E112FDD6
:10014000EF008EFF6F9387B42647FBB729D0348327
:10015000DA2C4E8C1ED4A2101D9A2C5F0D89D296DB
:10016000E2560F1E575FB410F19A9B18602D7EFB6C
:10017000A74803850A09BB61BA19807BBF8567EF71
:1001800057236FF0788933D06222FCBD0E51E6DE32
:10019000AF7BE8DAA260551D19D1FB286DE36D5BDA
:1001A000BD4122218BEA6383C8A2495A31655DBDF6
:1001B000002908EFA3B6E19EAEF3D84A9B2F0D317C
:1001C0007CDC7AE26D5B8D9F4C1A0FEED7280273B0
:1001D0005D24FAE0CD52AD5FA9557D24C66E6096D0
:1001E000EE385461552D353326C0C365397C7723ED
:1001F0009B589B7C90A1BFBD6D204BBF2FE0C2EFF1
:100200000363B5AC02FDD87142E85C47D08B8B0824
:10021000455CE2D1BD93A36E6B7B019B123EA7AB05
:100220005EB577FDE833C6F7BB8181344D4831C3F5
:1002300067B9E33A8438C073722F53E5B769DD7745
:100240005E305F2782C90FFEE70EAAEAE455B91AAD
:10025000F196FE8AE7C52E76B72D2C05C44C4C9E30
:1002600075684B1B92247E2B906DF9DE48E3E4A465
:1002700067E21B4A6CFA5A78AABE7A60553A673828
:100280009C7FBA3B8D1B128E5FB2763748EB7D9711
:10029000222611EBAEEE4E87D5FA484DA991F4B562
:1002A000CBB4B735D19F40D5E312191F76715BA34C
:1002B00003830EC87AFA73CC48F9436FBCADF4429D
:1002C000CCC64C8DA0FF9EFAD6F6E65D11F9640D02
:1002D000EDB69B5DBBDF9DC9DF085FCD2BE31E49FB
:1002E000F9E211DE6CDC707AD4075AFF4099DBBC6E
:1002F000EA657B2A642CA48220E55D181AD31FAF1F
:100300000B6F8A701E4C95AE69E6EC7CAA614CAE10
:100310002FD61C5296328C661C8E0964B5236864F5
:100320002875932C911DA0C9AA1DFB9B345575DF20
:10033000AC63A36274506CFB2CCA5497D6DB2F5D60
:100340006FDF76D5948A1EA7855FE6802992D461F7
:1003500076588C98975A6826CDB1651D8D8A5C5267
:1003600036D1C421A22A8366E99C0CB0428FBD51CC
:10037000715A73ABE82CB000000000896E945E7671
:1003800053C6190001E104D41000008437DD5EB1CA
:10039000C467FB020000000004595A05010980A14E
:1003A00001850319012AB700150126B700950175CB
:1003B000108100C0050C0901A101850419012AA0C2
:1003C00002150126A002950175108100C00660FF8C
:1003D0000961A1010962150026FF009520750881B9
:1003E000020963150026FF00952075089102C005DB
:1003F000010906A101050719E029E7150025019566
:100400000875018102950175088101050719002908
:10041000FF150026FF0095067508810005081901E3
:100420002905950575019102950175039101C00992
:10043000025B00030100A0FA0904000001030101AE
:100440000009211101000122400007058103080075
:100450000A09040100020300000009211101000142
:100460002222000705820320000107050303200064
:10047000010904020001030000000921110100012B
:100480002232000705840320000A12010002000046
:100490000008FEFEBBFF0100010203011C03760001
:1004A000690061006C003A006600360034006300A9
:1004B0003200620033006300000032037300610009
:1004C000640065006B006200610072006F007500DF
:1004D000640069002000660066006B0062005F0037
:1004E000620079006F006D006300750000001A0360
:1004F00073006100640065006B00620061007200BF
:100500006F00750064006900000004030904000026
:1005100000000000000000000000000000000000DB
:1005200000000000000000000000000000000000CB
:1005300000007E0F00D4FFFFFFC70000007800001E
:100540000000000000002A2B28000000000000002E
:1005500000000000000000000029000000002C1E28
:100560003420212224342627252E362D3738271EE5
:100570001F202122232425263333362E37381F040B
:1005800005060708090A0B0C0D0E0F1011121314A3
:1005900015161718191A1B1C1D2F3130232D350461
:1005A00005060708090A0B0C0D0E0F101112131483
:1005B00015161718191A1B1C1D2F3130354C290020
:1005C00014001A000800150017001C0018002B006A
:1005D00004611668076409620A000B000D72E100ED
:1005E0001D001B000600190005001100100000008E
:1005F00000000E7437001200337138002A0000002A
:100600002B0436000C000F781300E50034002A019B
:10061000A8004C0031002800015102512C000100BB
:100620001E021F02200221022202230224020100D4
:100630000153025303530453010001002D02010032
:10064000390001000100010001000100010000006B
:1006500000002E02310226023002340201000000A6
:100660000100010025022F02270201000100010004
:1006700001000100010001000100035101003500EB
:100680001E001F00200021002200230024004A0039
:100690005000510052004F002B0001002D000100BE
:1006A00001004E004B000100815F845F825F00000B
:1006B00000002E00010026003000010001000000B3
:1006C0000100835F25002F002700010001000100C9
:1006D00001000100010001000351010001000100BF
:1006E000C25CC45CC35C010001003A003B00010035
:1006F000CB5CC55CC75CC95C01003F0040000100E9
:10070000CC5CC65CC85CCA5C0100440045000000CB
:100710000000410001003D004300005C01000000BA
:10072000010001003C0042003E0001000100010008
:1007300001000100010001000100010001000100B1
:1007400001000100010001000100010001000100A1
:100750000100010001000100010001000100010091
:100760000100010001000100010001000100000082
:100770000000010001000100010001000100000073
:100780000100010001000100010001000100010061
:10079000010001000100010001000100010011241D
:1007A0001FBECFEFDAE0DEBFCDBF04B603FE27C029
:1007B00080911C0390911D03A0911E03B0911F0313
:1007C0008730904BA740B04BD1F410921C0310928D
:1007D0001D0310921E0310921F0314BE84B7877F5F
:1007E00084BF0FB6F894A8958091600088618093CB
:1007F0006000109260000FBEE0E0F8E3099511E0A0
:10080000A0E0B1E0E0E0F0E502C005900D92A43672
:10081000B107D9F723E0A4E6B1E001C01D92AC31E5
:10082000B207E1F70E94DD0A0C94FE270C94000049
:100830008F929F92AF92BF92CF92DF92EF92FF92F0
:100840000F931F93CF93DF9300D000D0CDB7DEB7C7
:10085000FC018081918123813481232B31F09F3FE2
:1008600031F491E08F3F19F403C091E001C090E0B2
:1008700090FD92C66F0161E0CF010E9422208C01A1
:10088000F6018281882309F49AC0980122513F45DC
:100890002031310508F07BC08FEF93E00E94932751
:1008A00081117FC03EEEF32EF00E03E912E0FF202F
:1008B00071F00115F4E01F0709F473C0C8010E942C
:1008C0009327811101C0FA940F5F1F4FF0CF198257
:1008D0001A821B821C82AA24AA9478012FEFE21AA2
:1008E000F20AC8010E94932789831A82882309F497
:1008F00058C0813009F046C0480182E0880E911C42
:10090000C7010E9493278A83882309F44AC09FEF76
:10091000980F933060F4780193E0E90EF11CC40164
:100920000E9493278B8381112DC08701D6CF8430FD
:1009300011F07401FACFC4010E949327B82E7801F8
:10094000E4E0EE0EF11CC80103960E949327BB2041
:1009500041F1882331F1282F30E021503109A29E46
:10096000A001A39E500D11248B2D90E00197840FC0
:10097000951F0197D0F2EFE9FFE03197F1F700C042
:100980000000F7CFCE0101960E94C71FCECF0031E5
:100990009FE5190709F060C581E00E94E5180E94F3
:1009A000731080910B02877009F4F6C5F6018281FD
:1009B000882309F4F1C582E00E94881EEDC500314C
:1009C000FFE51F0711F481E005C001312FE5120793
:1009D00021F482E00E94D918E2CF90916601911132
:1009E00005C090916901992309F4B7C09801305668
:1009F000211590E2390720F0305E2115304140F496
:100A0000F6019581907F09F4A8C07801FF2401C008
:100A10007801970130542115354108F49EC090911A
:100A20006901923021F5882369F080910E02982F98
:100A3000927219F06894F1F80FC086FF0DC024E19E
:100A4000F22A0AC0C70195558F3F910511F008F0B1
:100A500022C580E00E940F1E81E080936901F09220
:100A60006801E09267018FEF809300019ACF88239D
:100A700009F411C5913009F05FC0809100019CE23A
:100A8000E916F104D9F4882329F00E94AF221092CC
:100A9000000187CF809167019091680195558F3F44
:100AA000910509F018F40E94041E03C08AE20E9416
:100AB0009E1A109269010E94FF224FC0EAE2EE16D0
:100AC000F10421F481508093000126C087FD34C0D9
:100AD00081110BC0809167019091680195558F3FFE
:100AE000910509F010F40E94AF22809100018F5F00
:100AF00080930001FDE2EF16F10471F040F484E010
:100B0000E81AF10894E2E916F10480F405C0EDE278
:100B1000EE16E2E0FE0651F4F6018281882309F424
:100B2000BAC480910E02811114C09DC4F601828165
:100B3000882309F4B0C40DC09AE2E916F10489F3E0
:100B400008F01EC5F4E0EF1AF10824E2E216F10401
:100B500040F30E94FF22109269010238FFE51F074F
:100B600051F4F6018281882399F181E08093690133
:100B70008DE290E017C003382FE51207D8F0033854
:100B8000EFE51E0709F4EBC40438FFE51F0709F081
:100B900093C4F60182818823D9F081E080936901B2
:100BA0008DE292E090936801809367018FEF8093CC
:100BB000000113C000388FE5180709F436C1013869
:100BC0009FE5190709F078C4F6018281811158C4A4
:100BD000F6018281882309F4B8C110926C020230B8
:100BE000FCE51F0708F49BC106312CE5120730F025
:100BF000C8018A5F9C45099708F091C10E94891D30
:100C000090936C0180936B0100318CE5180709F417
:100C1000C3C008F041C00830ECE51E0709F49AC0D3
:100C2000F0F404302CE5120709F487C068F40230B0
:100C30009CE5190709F477C003301C4509F0E5C0AD
:100C400080916B01826076C00630FCE51F0709F4D5
:100C50006EC008F07BC080916B0188606BC00C3067
:100C60008CE5180709F485C068F40A30ECE51E0726
:100C700009F474C008F079C00E94F41880916B01E7
:100C8000806858C00E302CE5120709F476C008F0D1
:100C90007FC080916B018BC00B3F9CE5190709F465
:100CA0004FC018F50331FCE51F0709F47DC078F447
:100CB00001318CE5180709F473C002311C4509F0B5
:100CC000A4C00E94F41880916B018F7733C0053166
:100CD000ECE51E0709F472C008F486C00A3F1C4503
:100CE00009F093C080916C013EC00F3F8CE518075E
:100CF00009F45FC058F40D3FECE51E0709F444C049
:100D000008F43FC080916C0182602DC001302DE558
:100D1000120709F475C008F45DC002301D4509F0E2
:100D200074C060E06EC080916B01816003C08091EF
:100D30006B01806180936B0168C080916B0111C071
:100D400080916C01826080936C015FC080916B0127
:100D50008062F0CF80916B018064ECCF80916B0159
:100D600088608460E7CF8160EECF80916B018E7FD9
:100D7000E1CF80916B018D7FDDCF80916B01877F0B
:100D8000D9CF80916C0118C080916C018D7FDBCF31
:100D900080916B018F7ECECF80916B018F7DCACF0A
:100DA00080916B018F7BC6CF80916B01877F8B7F9A
:100DB000C1CF80916C018D7F8E7FC5CF80916B01FB
:100DC00082FB222720F991E0922790FB82F990FB89
:100DD00083F9B0CF80916C01982F909591708E7FA0
:100DE000892B90FB81F9AFCF0E94F41880916B01A1
:100DF00087FB222720F991E0922790FB87F99ACF71
:100E000061E08EE090E00E94A12760916B0110915B
:100E10006C0184E090E00E94A127612F82E290E0C3
:100E20000E94A1270E94F418BCCDF601828188237C
:100E300009F4CECE90E1A92E91E0B92E2AE0922EAF
:100E4000F5018491882309F45AC0813009F04FC01C
:100E50007501FFEFEF1AFF0AF7018491813049F421
:100E60007501F2E0EF0EF11CF70184910E949E1AC9
:100E700041C0823049F47501F2E0EF0EF11CF70138
:100E800084910E94021A36C0833049F47501F2E061
:100E9000EF0EF11CF70184910E94AB192BC0843036
:100EA00049F57501F2E0EF0EF11CF701249180E0A5
:100EB00090E030E0205331092A30310570F4989EDB
:100EC000A001999E500D1124C901840F951FFFEFB9
:100ED000EF1AFF0AF7012491ECCF009759F0EFE9E0
:100EE000FFE03197F1F700C000000197F6CF0E94B4
:100EF000611F75015701FFEFAF1ABF0AA1CF8091A3
:100F0000110281FD65CE0E943116909310028093EC
:100F10000F028091110282608093110259CE063136
:100F2000ECE51E0711F580910E028A7A91E009F432
:100F300090E090936A01882311F065E301C069E2B3
:100F400086EB91E00E943F230DC006311C45F1F570
:100F500080916A01882309F411C365E386EB91E06F
:100F60000E9432230E942A1E1CCD0A35EDE51E0781
:100F700041F150F401152CE51207A9F00E3D1C4576
:100F800029F50E949A1D0DCD0B359DE51907D9F065
:100F90000C351D45D9F480916C0182FB882780F9BE
:100FA00091E0892711C00E94F418FFEF24E38CE040
:100FB000F15020408040E1F700C000000E94D815A9
:100FC000F0CC81E001C080E00E94671EF6018681BE
:100FD00097810097B9F4F6018281008111818823FD
:100FE00049F0C8010E944B16F82E682FC8010E94D4
:100FF000A81804C0C8010E947818F82EB8018F2DD7
:101000000E94C8260E94001CF82E192FF601E280CB
:10101000058102950F7080910B02877099F0EE2088
:1010200089F0892F807F803421F080E28F0D883015
:1010300048F082E00E94881E80910B028770BB24DA
:10104000B3948111B12CA12EA2948FE0A8228A2DF5
:1010500090E08C30910508F0DBC1FC01EA5AFF4FAB
:101060000C94DD27812F807F1F70882311F012954B
:10107000107FEE20B9F0112309F4ACC180E28F0D8E
:10108000883010F0F11006C090910E02192B1093C9
:101090000E0205C090910D02192B10930D020E94B3
:1010A0002A1E98C18F2D0E94AB19112309F4B0C1DB
:1010B00080E28F0D883010F0F11004C0812F0E9463
:1010C000231E06C0109590910D02192310930D0256
:1010D0000E942A1E9DC1812F807F1F70803211F0D7
:1010E0001295107FFF2021F0F1E0FF1691F13BC037
:1010F000EE20D9F00023A9F0013031F480911102E3
:10110000812B0E940F1E84C1053059F40E94041ED9
:1011100080910802181310930802812F0E94A119D0
:1011200077C180911102812BF9CF002349F0013062
:1011300069F480910E02812309F46AC10E94BB1EEA
:101140000E94041E812F0E949A1962C10530C1F7C6
:101150005FC1EE2021F0063008F05AC1DECF053025
:1011600008F056C1EFCFEE2019F00023B1F232C1E2
:10117000002341F329E3F21208C08FEF97EEE3E07A
:1011800081509040E040E1F73EC1FFE728E381E075
:10119000F15020408040E1F736C1812F8695869539
:1011A000837019F0813061F033C1EE2021F08F2D72
:1011B000912F937002C080E090E00E946F232EC1B7
:1011C000EE2021F08F2D912F937002C080E090E0EF
:1011D0000E94592323C1812F8370A9F5E1101CC1FE
:1011E0004F2D429546954770440F440F8F2D8F70B9
:1011F00090E09C01042E01C0220F0A94EAF7F4FE4D
:1012000008C08FE090E001C0880F4A95EAF780950A
:1012100001C080E0169516951370123069F088F4BD
:1012200090911202113019F0822B892302C0922B67
:10123000892B0E94F018F0C0822B9091120289270E
:10124000F8CF822BF6CFEE2019F0812F817001C0EC
:101250008695882309F4E0C04F2D42954695477046
:10126000440F440F8F2D8F7090E09C01042E01C01D
:10127000220F0A94EAF7F4FE08C08FE090E001C064
:10128000880F4A95EAF7809501C080E0169516957B
:101290001370123059F078F49091A301113019F0C5
:1012A000822B892309C0922B892B06C0822B909117
:1012B000A301892701C0822B0E94D518ADC01F70E1
:1012C000EE2039F0812F0E94E5188F2D0E94A11980
:1012D000A3C08F2D0E949A19812F0E94D9189CC0FB
:1012E00092EFF91659F19F1538F0E0EFFE1659F01C
:1012F000F1EFFF16E1F069C023EFF21631F184EF50
:10130000F81681F162C0EE2071F0053008F080C05F
:101310001F7181E090E001C0880F1A95EAF7909163
:10132000A30189271CC0063008F072C0F1CFEE205F
:1013300039F0812F8F710E94E5186AC0EE20C9F341
:10134000812F8F710E94D91863C0EE2039F01F7170
:1013500081E001C0880F1A95EAF701C080E00E9481
:10136000D51856C0EE20D1F0809108020E94231EAD
:1013700080910B028770843039F40E94811E812F86
:101380008F710E94D91866C0053008F063C01F71C4
:10139000812F0E94E51863E0812F10C090910E020A
:1013A00080910802892B80930E02053050F00E9434
:1013B000811E0E94BB1E64E0812F8F710E94A51EBA
:1013C00049C081E00E94881E45C0EE2039F000230C
:1013D00009F4AFCF8F2D0E94021A1AC0002309F41E
:1013E000AFCF99E3F91208C0EFEFF7EE23E0E15039
:1013F000F0402040E1F707C08FE798E3E1E081503B
:101400009040E040E1F700C000008F2D0E94AB1932
:1014100088EF8A0D843010F40E948523BB20A9F048
:1014200080910B0280FD11C0F60112828595859591
:1014300085950E94E518C6010E94180480910B0250
:101440008595859585950E94D91860E0C6010E9412
:101450002220A2C0B12CE0CF0131EFE51E0709F038
:10146000BCCA82E09ACA0238FFE51F0709F479CBAB
:1014700008F085CB00388FE5180709F0A0CBDACC4F
:1014800081E0809366010E94852381FDA1CB89E3E1
:101490000E949E1A9DCB02382FE5120709F461CBFA
:1014A00008F059C000389FE5190709F491CB0138BD
:1014B000EFE51E0709F488CB033F2CE51207A1F4E2
:1014C00006E221EE40EE63EF7CE50AC0073DFCE555
:1014D0001F0709F07DCB06E221EE41EE67ED7CE5CA
:1014E000C6010E94EC245DCA043F8CE51807A0F4F5
:1014F000083D9CE5190731F407E225EE45EE68ED5D
:101500007CE5EECF093DECE51E0701F708E221E09E
:1015100045EE69ED7CE5E4CF053F2CE5120731F49B
:1015200006E221EE42EE65EF7CE5DACF053F8CE581
:10153000180730F407E225EE44EE64EF7CE5D0CFE7
:10154000063F9CE5190709F043CB07E225EE46EE7E
:1015500066EF7CE5C5CF0338FFE51F0749F4F601C8
:101560008281882309F434CB82E08093690135CBF2
:1015700004382FE5120709F40CCB9ECF69E2EECCBC
:101580008DE2E816F10409F4CCCA9DE2E91692E076
:10159000F90609F0DECAC5CA0F900F900F900F90A0
:1015A000DF91CF911F910F91FF90EF90DF90CF903F
:1015B000BF90AF909F908F900895CF93DF93CDB75A
:1015C000DEB7E4970FB6F894DEBF0FBECDBF84B789
:1015D000877F84BF0FB6F894A895809160008861DA
:1015E00080936000109260000FBE90E080E80FB61C
:1015F000F89480936100909361000FBE85B7806876
:1016000085BF85B7806885BF8AEB9AE190936501B5
:10161000809364010E94DB260E94A0130E94BF13E6
:101620008091E20084608093E20078948091A2012E
:101630008823A1F01091E9001F709091EC00892F90
:10164000817090FD80E8182B1092E9008091E800ED
:1016500083FD0E947E101F701093E90082E084BD1C
:1016600093E095BD9AEF97BD80936E000E9461272D
:10167000811102C00E94522705E111E08BE1E82EA2
:1016800081E0F82EF80181918F018F3F11F00E94C7
:10169000FF1AE016F106B1F70BE111E0F8018191B4
:1016A0008F018F3F11F00E94FF1AF1E003321F07F4
:1016B000A9F7EDE6F1E0AFE7B1E011921D9221E06C
:1016C000E337F207D1F780E090E00E949B278A3E43
:1016D0009E4F21F40E946127811102C00E949A1D31
:1016E00082E090E00E949327809374010E94891DFC
:1016F00090936C0180936B010E94161B8FE39CE911
:101700000197F1F700C000000E94161B80917F0135
:1017100080FF08C06FEF7FEF80E090E00E94BF275E
:101720000E94D81583E090E00E9493270E94F01851
:1017300081E091E0909318038093170315E8212E20
:1017400011E0312E8E010F5F1F4F8091A201853075
:1017500009F045C0A0E1EA2EB2E1FB2E8091A20182
:10176000853009F038C08091A201843021F11092B7
:101770001B03E8E1F0E020E40FB6F894A895E093AD
:1017800060000FBE2093600083B7817F846083BFB9
:1017900083B7816083BF7894889583B78E7F83BF3A
:1017A0000FB6F894A89580916000886180936000DE
:1017B000109260000FBE80919801882309F4CECF6B
:1017C0000E94161BEFE7F1E081918111B7C32E163D
:1017D0003F06D1F7C3CF0E94F4180E9485230E94D0
:1017E000161B882359F08FB7F894409185015091CA
:1017F000860160918701709188018FBFA5E7B1E0F4
:10180000EFE7F1E0E12CF12C3E2D21919D91922703
:1018100021F180E0DD24D394492F4D21D1F08BA715
:101820003CA72D2181E009F480E08DA70E943116AC
:101830008160782F9FA78EA74BA55CA56DA58FA56E
:101840000E945920F701EB58FE4F8081D826D082A4
:101850001BC08F5FDD0C8830F9F63FEFE31AF30A07
:1018600086E0E816F10481F68FEF88AB89AB1AAAFF
:101870000E9431168160782F9CAB8BAB48A959A987
:101880006AA98CA90E9459200E9485239091730116
:10189000891721F00E948523809373018091A20112
:1018A000843009F052CF83E08093E9008091E80012
:1018B00082FF4BCF8091E80085FF23C00E94F51482
:1018C00081111DC0F0E2CF2ED12CFE0131967F0197
:1018D00009C08091F100F70181937F01F1E0CF1AF7
:1018E000D10869F08091E80085FDF3CF8091E80090
:1018F0008B778093E8000E94F514882399F391E098
:1019000001C090E08091E8008B778093E8009923F4
:1019100009F41BCFE0906802F09069028981E1141C
:10192000F10461F08E3F09F005C38A81833008F429
:10193000C3C18550833008F0FDC2BEC18B3009F4AD
:10194000A5C108F5853009F47CC0A8F48230B9F14E
:1019500030F4813009F0ECC21A8289E08AC2833007
:1019600009F45EC0843009F0E3C24C816B818A8146
:101970000E949A2664C0873009F4DAC208F0D8C2FF
:101980000E940D26D7C2803109F4C4C060F48D30A6
:1019900009F464C008F460C08E3009F463C08F306D
:1019A00009F48AC0C5C2823109F4B9C008F4B5C0CF
:1019B000833109F4DDC08E3F09F47EC1B9C28A814A
:1019C000823009F4D1C2833089F0813009F0B0C28D
:1019D0002FB7F8948091850190918601A09187019D
:1019E000B09188012FBFBB83AC8329C08091660270
:1019F00090916702892B09F49DC280917F018B83AE
:101A0000809180018C83809181018D8380918201FE
:101A10008E83809183018F838091840188878AC21D
:101A20008A81823009F084C26B817C818D819E81A4
:101A30000E94E32786E290E00E94A1277BC29D835B
:101A40009AC22D813E813227232732274C816B8118
:101A50008A810E94D7256EC280E127C281E08A83F5
:101A60008DE607C2EA80FB80FE24EF24FE24AC80D2
:101A7000B12C2DE1A216B10408F05CC26801C701C7
:101A80008D569D4F9601201B310B2A153B0508F002
:101A900051C23DE6E31631E0F30628F40E94932795
:101AA000F601848302C0F6011482FFEFEF1AFF0AE9
:101AB0002FEFC21AD20AE3CF80916602909167029B
:101AC000892B09F437C2EA80FB80FE24EF24FE2430
:101AD000CC80D12C3DE1C316D10408F02BC25801B3
:101AE000C7018D569D4F9501201B310B2C153D05CF
:101AF00008F020C2EDE6EE16E1E0FE0620F4F50166
:101B000064810E94A127FFEFEF1AFF0A2FEFA21AAC
:101B1000B20AE6CF0E945F250DC285E0C6C1EA8009
:101B2000FB80FE24EF24FE24AC80B12C3DE1A31603
:101B3000B10408F0FFC16801C70187969601201B18
:101B4000310B2A153B0508F0F5C1E0EEEE16E1E099
:101B5000FE0628F40E949327F601848302C0F60152
:101B60001482FFEFEF1AFF0A2FEFC21AD20AE4CF56
:101B7000EA80FB80FE24EF24FE24AC80B12C3DE102
:101B8000A316B10408F0D6C180EEE81681E0F8068D
:101B900008F0D0C180EE91E08E199F098A159B054F
:101BA00008F4C8C1370197E2690E711C8091660282
:101BB00090916702892B11F068015FC0E0FE0FC0B1
:101BC000C70186960E94932790E0982F88272D8141
:101BD000822B81159C4531F48FEF8D8303C0C12C7E
:101BE000D12C03C0CC24C394D12CC5018E0D9F1DD4
:101BF000450180FF1BC0F1E08F1A910855E0452E8A
:101C0000512C4C0E5D1E480C591CC3018A0D9B1DA6
:101C10000E949327F201208130E0322F2227282BC7
:101C200021153C4519F48FEFF2018083F801EC0D8A
:101C3000FD1D2FEFCF01801B910B8815990508F032
:101C4000BBCF848190E0982F88273581832B811525
:101C50009C4511F4248325833296ECCFE0EEEE16FA
:101C6000E1E0FE0620F4F60164810E94A127FFEF67
:101C7000EF1AFF0A2FEFC21AD20AC7018796960100
:101C8000201B310B2A153B0548F354C18091660295
:101C900090916702892B09F44DC1C8010E94541527
:101CA0003FEF81EE94E0315080409040E1F700C07A
:101CB00000000E94D8153EC1EA818E2F90E08E3040
:101CC000910508F037C1FC01EE59FF4F0C94DD2758
:101CD00088E0EDE0F1E0DE01919601900D928A95A9
:101CE000E1F780E2F80111928A95E9F784E08983AF
:101CF00088E0FE01B196DE011596F6C088E889837A
:101D000082E08A831B821C8215C18C8190E0982F0F
:101D100088272B81820F911D092E000CAA0BBB0B6B
:101D200035E0880F991FAA1FBB1F3A95D1F7AC0168
:101D3000BD01405E5F4F6F4F7F4F481759076A07DD
:101D40007B0708F4F7C08838F2E09F07A105B105CA
:101D500008F0F0C0493822E052076105710520F013
:101D600048E852E060E070E0481B590BBC016D5E32
:101D70007E4FC8010E947A27DDC0FB80EC8040E0E6
:101D80006E2D8F2D0E94A72599838A8341E06E2DA9
:101D90008F2D0E94A7259B838C83CCC02E813F81F1
:101DA0003227232732274D816C818B810E946F253A
:101DB000C1C040E250E06FEF70E0C8010E94F72719
:101DC000809166028983EA821B821C821D8281E0E7
:101DD000D2C081E090E0909369028093680282E330
:101DE00090E090937E0180937D010E943116909344
:101DF0007C0180937B019EC0EF2899F1F0907F01D8
:101E0000F1FA882780F9F82280917B0190917C017A
:101E10000E94221685369105F0F0FF20E1F00E9425
:101E2000311690937C0180937B0180917D0190918C
:101E30007E01019790937E0180937D01892B89F427
:101E4000109269021092680281E090E0909367021C
:101E50008093660206C082E390E090937E018093B7
:101E60007D01809166028983809168028A838091D6
:101E70007D018B835FC010926702109266025AC088
:101E800040E250E06FEF70E0C8010E94F72752C0B7
:101E90008B81833061F0843061F181114BC080E22D
:101EA000F80111928A95E9F788E08A8343C06C8132
:101EB000CE0181962AE0FC0111922A95E9F768305B
:101EC00060F4FAE06F9FB00111246D5B7D4F4AE032
:101ED00050E00E94832780E001C08FEF89838AE071
:101EE000FE01B196DE01129601900D928A95E1F7FE
:101EF00021C06C818AE0FE013596DE019196019049
:101F00000D928A95E1F7683070F42AE0629FB00183
:101F100011246D5B7D4F4AE050E0CE0181960E9416
:101F2000C52780E001C08FEF89830E94DB2602C0B5
:101F30008FEF8983C8010E94541507CCE9BCF9BC16
:101F400009B400FEFDCF8091D8008F7D8093D8002A
:101F50008091E00082608093E0008091E00081FD4C
:101F6000FCCF0E94F418FACB86E290E00E949327FF
:101F70001B821C821D828E83DDCF80919A0187FF98
:101F800011C08091E80082FD05C08091A2018111FD
:101F9000F8CF11C08091E8008B770BC08091A2012F
:101FA000882349F08091E80080FFF8CF8091E80015
:101FB0008E778093E8000895982F973068F5909376
:101FC000E900981739F07091EC002091ED005091E4
:101FD000F00003C0242F762F50E021FD02C09F5F48
:101FE000ECCF3091EB003E7F3093EB003091ED0071
:101FF0003D7F3093ED003091EB0031603093EB008A
:102000007093EC002093ED005093F0002091EE00CF
:1020100027FDE5CF80E008958F708093E90081E08F
:1020200008952091A0013091A1012617370748F0AB
:102030006115710539F42091E8002E772093E800AE
:1020400001C0B901FC0120E06115710579F18091B1
:10205000A2018823F1F18530F1F18091E80083FD40
:102060003CC08091E80082FD2EC08091E80080FF96
:10207000EBCF2091F3008091F20090E0922B61155C
:10208000710551F08830910538F421912093F100C9
:10209000615071090196F3CF21E0089709F020E023
:1020A0008091E8008E778093E800CECF2111CFCFCA
:1020B0000AC08091A201882361F0853061F080918F
:1020C000E80083FD0AC08091E80082FFF2CF80E043
:1020D000089582E0089583E0089581E008950895C9
:1020E00080918E0108958091A301982F967096306B
:1020F00011F4886001C0877F0C94D5181F93CF938B
:10210000DF93CDB7DEB7AA970FB6F894DEBF0FBE48
:10211000CDBFEAE9F1E08091F100819341E0E23A3C
:10212000F407C9F780919B01833009F462C030F451
:10213000813071F0823009F49CC0B3C08A3009F458
:1021400088C08B3009F46DC0893009F0AAC020C066
:1021500080919A01813A09F0A4C08091E800877FBC
:102160008093E80080919E0190919F01892B21F43A
:1021700068E08FE891E003C060E080E090E070E00C
:102180000E9411108091E8008B778093E80089C04D
:1021900080919A01813209F084C080919E019091D2
:1021A0009F01009719F0029709F07BC08091E80029
:1021B000877F8093E8008091E80082FD05C08091D0
:1021C000A2018111F8CF6DC02091F3008091F2003F
:1021D00090E0922B029729F48091F1008B7F81305F
:1021E00021F48091F10080938E018091E8008B773B
:1021F00054C080919A01813A09F053C080919E01A8
:1022000090919F01892B09F04CC08091E800877F55
:102210008093E8008091E80080FFFCCF80910B0163
:1022200037C080919A018132E1F580919E019091B1
:102230009F01892BB1F58091E800877F8093E800AA
:102240000E94BD0F80919C0180930B010E94F418A5
:1022500028C080919A01813221F58091E800877F22
:102260008093E8000E94BD0F80919D0180938D01B5
:1022700018C080919A01813AA1F48091E800877F8B
:102280008093E8008091E80080FFFCCF80918D0171
:102290008093F1008091E8008E778093E8000E949F
:1022A000BD0F8091E80083FFE9C180919A01909170
:1022B0009B01492F50E04A30510508F0DFC1FA0177
:1022C000E059FF4F0C94DD27803821F0823809F067
:1022D000D5C108C08091970190919801992389F008
:1022E00082600FC080919E018F70873008F0C6C158
:1022F0008093E9008091EB0085FB882780F910929C
:10230000E9009091E800977F9093E8008093F100B6
:102310001092F1007CC1282F2D7F09F0AFC18823D6
:1023200019F0823061F0AAC180919C01813009F0DE
:10233000A5C1933009F080E0809398012EC0809170
:102340009C0181112AC080919E018F702FEF280F70
:10235000263008F093C18093E9002091EB0020FF24
:102360001CC0933021F48091EB00806214C09091E6
:10237000EB0090619093EB0021E030E0A90102C0F6
:10238000440F551F8A95E2F74093EA001092EA0045
:102390008091EB0088608093EB001092E9008091BF
:1023A000E800877F8093E8000E94BD0F67C181111C
:1023B00065C110919C011F778091E3008078812B8B
:1023C0008093E3008091E800877F8093E8000E947B
:1023D000BD0F8091E80080FFFCCF8091E300806812
:1023E0008093E300111102C082E001C083E080937A
:1023F000A20144C18058823008F040C120919C0164
:1024000030919D012C3D53E0350779F583E08A83B7
:102410008AE289834FB7F894DE01139620E03EE00C
:1024200051E2E32FF0E050935700E49120FF03C006
:10243000E295EF703F5FEF708E2F90E0EA3010F082
:10244000C79601C0C0968D939D932F5F243149F7A5
:102450004FBF8091E800877F8093E8006AE270E0D8
:10246000CE0101960E941110C0C080919E019091F2
:102470009F01432F552743305105B1F068F4413097
:10248000510509F40AC14230510509F0F7C08BE546
:1024900090E0EFE2F4E057C04132510589F1423259
:1024A000510509F43CC0EAC0C90199278130910562
:1024B000B9F070F082309105D9F0039709F0DEC0D1
:1024C000ECE9F4E0E4918E2F90E0ECE9F4E038C020
:1024D000EAE0F5E0E4918E2F90E0EAE0F5E030C02C
:1024E000EEEEF4E0E4918E2F90E0EEEEF4E028C002
:1024F000EAEBF4E0E4918E2F90E0EAEBF4E020C008
:102500008330910508F0BAC0880F991FFC01E45D83
:10251000FE4F0190F081E02D89E090E014C08330FF
:10252000910508F0ABC0FC01EE0FFF1FEA5DFE4F06
:102530000190F081E02DDC01AD5DBE4F8C9190E00B
:10254000009709F49BC02091E800277F2093E800C2
:102550002091A0013091A1012817390708F4C90181
:1025600040E0009789F12091A201222309F43DC0A7
:102570002530D9F12091E80023FD37C02091E800F3
:1025800022FD2FC02091E80020FFEBCF4091F30007
:102590002091F20030E0342B009759F028303105BB
:1025A00040F444914093F100319601972F5F3F4FE3
:1025B000F3CF41E02830310509F040E02091E800F8
:1025C0002E772093E800CDCF4111CDCF0AC0809166
:1025D000A201882351F0853041F08091E80083FD0D
:1025E00004C08091E80082FFF2CF8091E8008B77F1
:1025F0008093E80043C0803809F040C08091E80033
:10260000877F8093E800809199018093F100809109
:10261000E8008E77C7CE811131C080919C019091E6
:102620009D019927029754F58091E800877F809358
:10263000E80010919C01109399010E94BD0F1111A7
:1026400006C08091E30087FD02C081E001C084E004
:102650008093A20142E061EC81E00E94DC0F42E243
:1026600061EC84E00E94DC0F42E261EC82E00E94B7
:10267000DC0F42E260EC83E00E94DC0F8091E80016
:1026800083FF10C08091E800877F8093E8008091ED
:10269000EB0080628093EB0005C082E190E0EAE805
:1026A000F4E051CFAA960FB6F894DEBF0FBECDBFAF
:1026B000DF91CF911F9108951F920F920FB60F9245
:1026C00011242F933F934F935F936F937F938F9337
:1026D0009F93AF93BF93CF93DF93EF93FF93C091FB
:1026E000E900CF708091EC00D82FD17080FDD0E848
:1026F0001092E9008091F000877F8093F000789439
:102700000E947E101092E9008091F0008860809312
:10271000F000CD2BCF70C093E900FF91EF91DF91D6
:10272000CF91BF91AF919F918F917F916F915F9169
:102730004F913F912F910F900FBE0F901F901895C2
:10274000E8EDF0E080818E7F80831092E2001092AD
:10275000DA001092E100A0EEB0E08C9181608C93E1
:1027600080818F77808319BCA7EDB0E08C918E7F3C
:102770008C9380818F7E808310928C010895CF92FC
:10278000DF92EF92FF920F931F93CF93DF93C8EDE9
:10279000D0E088818F7E8883E7EDF0E080818160E2
:1027A000808384E082BF81E080938C0188818E7F6A
:1027B000888302EE10E0F80110821092DA0081EEB8
:1027C000C82ED12CF601108288818F77888388816A
:1027D0008068888388818F7D888319BC1092A201CC
:1027E00010929901109298011092970190EEE92EA3
:1027F000F12CF70180818B7F8083888181608883C1
:1028000042E060E080E00E94DC0FF60180818E7F74
:102810008083F801808181608083808188608083EB
:10282000F70180818E7F8083888180618883DF913A
:10283000CF911F910F91FF90EF90DF90CF9008956F
:102840001F920F920FB60F9211242F933F934F9325
:102850005F936F937F938F939F93AF93BF93EF9308
:10286000FF938091E10082FF09C08091E20082FF26
:1028700005C08091E1008B7F8093E1008091DA00B8
:1028800080FF2AC08091D80080FF26C08091DA00A6
:102890008E7F8093DA008091D90080FF18C080E19C
:1028A00089BD82E189BD09B400FEFDCF81E080933E
:1028B000A20180918C0181110FC00E94A0130E947F
:1028C000BF138091E20084608093E20005C019BCD0
:1028D0001092A20110928C018091E10080FF17C03C
:1028E0008091E20080FF13C08091E2008E7F809390
:1028F000E2008091E20080618093E2008091D80044
:1029000080628093D80019BC85E08093A2018091F9
:10291000E10084FF2EC08091E20084FF2AC080E1A4
:1029200089BD82E189BD09B400FEFDCF8091D80048
:102930008F7D8093D8008091E1008F7E8093E100AD
:102940008091E2008F7E8093E2008091E2008160BE
:102950008093E20080919901882311F084E007C000
:102960008091E30087FD02C081E001C083E0809395
:10297000A2018091E10083FF27C08091E20083FFE4
:1029800023C08091E100877F8093E10082E0809303
:10299000A201109299018091E1008E7F8093E10065
:1029A0008091E2008E7F8093E2008091E20080615E
:1029B0008093E20042E060E080E00E94DC0F8091C2
:1029C000F00088608093F000FF91EF91BF91AF918C
:1029D0009F918F917F916F915F914F913F912F9137
:1029E0000F900FBE0F901F9018952091E40030912A
:1029F000E50095E64091EC00842F817040FF23C0F4
:102A00008091E80080FD1DC08091A201882399F08B
:102A1000853099F08091EB0085FD11C04091E40074
:102A20005091E5002417350729F3915011F09A01D0
:102A3000E1CF84E0089582E0089583E0089581E085
:102A4000089580E008954091E80042FFDDCF0895A9
:102A5000EF92FF920F931F93CF93DF937C018B0133
:102A60000E94F514811119C0E70101151105A1F0AB
:102A70008091E80085FD0AC08091E8008E77809300
:102A8000E8000E94F514882381F307C089918093A0
:102A9000F10001501109E9CF80E0DF91CF911F9142
:102AA0000F91FF90EF900895CF932091A2012430D1
:102AB000F9F4C091E900CF703091EC00232F217020
:102AC00030FD20E8C22B22E02093E9002091E800AD
:102AD00020FF0BC040E050E060E270E00E9428154B
:102AE0008091E8008E778093E800CF70C093E90072
:102AF000CF9108959091A201943029F58093890196
:102B000070938B0160938A019093E9008FEF90910D
:102B1000E800815095FD06C095ED9A95F1F700000B
:102B20008111F5CF8091E80085FF0DC040E050E0B5
:102B300063E070E089E891E00E9428158091E80048
:102B40008E778093E8000895BC0184E00C947A1598
:102B5000BC0183E00C947A15CF93DF9321E020939E
:102B6000E9002FEF3091E800215035FD06C035ED2A
:102B70003A95F1F700002111F5CF2091E80025FFEB
:102B800014C0EC0140E050E068E070E00E942815BD
:102B90008091E8008E778093E80088E0FE01AFE83E
:102BA000B1E001900D928A95E1F7DF91CF91089500
:102BB00081E08093E00080E28093D8001092C90009
:102BC0008FE19EE40197F1F700C0000087E090EBF1
:102BD000DC0180931C0390931D03A0931E03B0930C
:102BE0001F039CE088E10FB6F894A89580936000DD
:102BF0000FBE90936000FFCF78941F920F920FB694
:102C00000F9211248F939F93AF93BF93809185016F
:102C100090918601A0918701B09188010196A11D34
:102C2000B11D8093850190938601A0938701B09395
:102C30008801BF91AF919F918F910F900FBE0F9020
:102C40001F9018959C014FB7F89480918501909141
:102C50008601A0918701B09188014FBF821B930B21
:102C600008952FB7F8948091850190918601A091E5
:102C70008701B09188012FBF089580E090E00E9405
:102C80006F2380E090E00E94592310920D02109271
:102C90000C020C942A1ECF92DF92FF920F931F9387
:102CA000CF93DF936C010091A30180911202082B56
:102CB000C7E0D0E010E0C8010C2E02C095958795C2
:102CC0000A94E2F780FD04C02197A8F7F12C09C00F
:102CD000FC2EB6018C2F0E94C8260E94001C019772
:102CE00099F38F2DDF91CF911F910F91FF90DF907E
:102CF000CF900895CF93DF93EC010E944B16BE0155
:102D00000E94C8260E94001CDF91CF910895FC010B
:102D100086819781009719F00E94001C04C0808171
:102D200091810E947A16292F2F70E92FE295EF707A
:102D30004E2F50E0FA013297EE30F105B8F4E65824
:102D4000FF4F0C94DD27803F99F018F4883E70F413
:102D50000FC0843F59F40CC0883E50F0813F31F4DD
:102D600007C0822F869586958695089580E0089500
:102D700081E008959F92AF92BF92CF92DF92EF923F
:102D8000FF920F931F93CF93DF93CDB7DEB7659775
:102D90000FB6F894DEBF0FBECDBF8C0185E0F80101
:102DA000DE01519601900D928A95E1F7F801E280DB
:102DB0009091BE016091BF014091C1015091C2014B
:102DC0004115510531F06F3F31F481E09F3F19F417
:102DD00003C081E001C080E0F82FF1709F2E80FDDC
:102DE00037C1F80130812181C380D4807EEBA72ECA
:102DF00071E0B72EF090C001F601E41BF50BFF2047
:102E000009F4F5C08091C301E83CF10508F0B0C0B9
:102E1000482F407F09F05AC062131BC0931319C09A
:102E20006091C4017091C501F80146815781641712
:102E3000750779F4FE2CE1100CC08F7080618093CF
:102E4000C301C5010E9418048091C301F801858364
:102E50003CC1CD2831F02F3F31F481E03F3F19F4E0
:102E600003C081E001C080E080FD03C081E08E25C9
:102E700002C080E090E0F82FF170FF2E80FF1CC0B0
:102E8000809107024091C601841709F4FCC090E0CC
:102E9000FC0153E0EE0FFF1F5A95E1F7E953FE4F97
:102EA0005181251306C05081531303C05281E5128E
:102EB00003C001968770E8CFFE2CEE2009F405C10F
:102EC0008091C30181608093C3015EC0621315C00D
:102ED000931313C04091C4015091C501F80126819C
:102EE00037814217530749F4E11007C08583C801B1
:102EF0000E94180488E0F80190C0C8010E9487165B
:102F0000882381F1EE2071F12091C301822F8295F7
:102F10008F7090E00297A4F08091BE019091BF0164
:102F20009A8789871B86DD86CC862E878091C4018F
:102F30009091C501988B8F87CE0109960E94180445
:102F400088E0F801AEEBB1E001900D928A95E1F7CF
:102F50000E94CB1E0AC06217C9F0C8010E948716E2
:102F6000811127C0C8010E941804FF24F394ADC04A
:102F7000482F407F81F78EEB91E00E94180488E093
:102F8000F50111928A95E9F7F12C9FC09313E5CFD3
:102F90004091C4015091C501F80126813781421743
:102FA0005307D9F6E110D9CF8583C8010E941804D0
:102FB00049C0EE20B9F22091C301822F82958F7013
:102FC00090E002970CF4BCCF8091BE019091BF01BC
:102FD0009A8389831B82DD82CC822E838091C401F7
:102FE0009091C50198878F83CE010196A7CFE83CC9
:102FF000F10540F5FE2CEE2009F4B4CF621314C0A5
:10300000931312C02091C4013091C501F80186814B
:1030100097812817390741F488E0AEEBB1E00190C1
:103020000D928A95E1F751C0C8010E94871681115F
:1030300087CF8091C30181608093C301C8010E9442
:10304000180443C088E0F50111928A95E9F73DC064
:10305000EE2009F487CFC8010E948716F82E882336
:1030600009F480CF88E0F801AEEBB1E001900D9259
:103070008A95E1F78091BE019091BF010E947A1676
:103080000E94CB1E22C0398B2A8B89899A890E9483
:103090007A16292F22952F70223028F49F7039F04C
:1030A000811105C00BC0243028F49F7049F4805E64
:1030B000883020F0C8010E9418049F2CF92C05C00C
:1030C000F8019581907F99F7F9CF8F2D65960FB60E
:1030D000F894DEBF0FBECDBFDF91CF911F910F914E
:1030E000FF90EF90DF90CF90BF90AF909F900895AA
:1030F0009E3F61F128E0929F800D1124682F669514
:1031000066956695982F977083E0689FB0011124AB
:1031100040E050E080E0FB01E40FF51FEC55FE4F6E
:10312000208130E0092E02C0369527950A94E2F7F7
:1031300021703327042E01C0220F0A94EAF7822B54
:103140004F5F5F4F4330510531F7089580E0089598
:103150009E3F51F128E0929F800D1124E82FE695C3
:10316000E695E695877051E001C0550F8A95EAF71C
:1031700083E0E89FF0011124EC55FE4F20E030E0A1
:1031800070E04081CB01022E02C0969587950A948B
:10319000E2F78170819584278523842781932F5FAF
:1031A0003F4F2330310569F708958093A3010C94B4
:1031B0003D1621E030E001C0220F8A95EAF7209504
:1031C0008091A30182230C94D51821E030E001C046
:1031D000220F8A95EAF78091A301822B0C94D518CF
:1031E000809312020C943D1610920E0286E0E8EBDA
:1031F000F1E0DF011D928A95E9F70C943D16CF931B
:10320000DF93CDB7DEB760970FB6F894DEBF0FBE81
:10321000CDBF29873A874B875C876D877E878F87ED
:10322000988BCE0109960E94BA16811151C088E090
:10323000FE013996DE01119601900D928A95E1F713
:1032400079856A854C855D854115510531F06F3F63
:1032500031F481E07F3F19F403C081E001C080E0D8
:1032600080FD36C0A091C601B0E0CD010196877007
:1032700099272091070230E08217930781F1798323
:103280006A835D834C8393E0AA0FBB1F9A95E1F795
:10329000A953BE4F98E0FE01319601900D929A9588
:1032A000E1F78093C6010E94C11E12C028E0829FF0
:1032B000C001112489539E4F0E94BA168823E1F061
:1032C0008091070290E0019687709927809307020A
:1032D000809107029091C6018913E8CF0DC00E942A
:1032E000F4181092C60110920702EEEBF1E088E0AC
:1032F000DF011D928A95E9F760960FB6F894DEBF5C
:103300000FBECDBFDF91CF910895882341F0809506
:1033100090910D02892380930D020C942A1E08952A
:10332000882339F090910D02892B80930D020C9423
:103330002A1E0895882321F00E94231E0C942A1E21
:103340000895882339F090910E02892B80930E0204
:103350000C942A1E0895882309F453C0682F8238DC
:1033600069F40E94852381FF4CC069E386EB91E0FC
:103370000E943F230E942A1E69E30EC0833891F405
:103380000E94852380FF3DC063E586EB91E00E94AB
:103390003F230E942A1E63E586EB91E00E943223C0
:1033A0000C942A1E843869F40E94852382FF29C068
:1033B00067E486EB91E00E943F230E942A1E67E4A7
:1033C000EBCF8CEF860F813A38F380E2860F88309E
:1033D00048F4677081E001C0880F6A95EAF70E949F
:1033E000231EDECF8BE5860F833020F480E090E053
:1033F0000C946F23685A673120F480E090E00C94BD
:1034000059230895CF93882309F496C0C82F823892
:10341000B1F40E94852381FD8FC069E386EB91E0C2
:103420000E943F230E942A1E2FEF81EE94E021503C
:1034300080409040E1F700C0000069E317C0833886
:10344000E1F40E94852380FD77C063E586EB91E07F
:103450000E943F230E942A1E2FEF81EE94E021500C
:1034600080409040E1F700C0000063E586EB91E00A
:103470000E943223CF910C942A1E8438B1F40E940A
:10348000852382FD59C067E486EB91E00E943F23CB
:103490000E942A1E2FEF81EE94E021508040904040
:1034A000E1F700C0000067E4E1CF8CEF8C0F813AB8
:1034B00080F4E8EBF1E08EEB91E02191C217A1F1ED
:1034C0008E179F07D1F76C2F86EB91E00E943F2368
:1034D000D1CF80E28C0F883068F4C77081E090E033
:1034E00001C0880FCA95EAF790910E02892B80934C
:1034F0000E02C0CFEBE5EC0FE33040F4F0E0EE5C01
:10350000FE4F808190E0CF910C946F23C85AC73151
:1035100098F4EC2FF0E0EE0FFF1FEB5CFE4F808184
:103520009181CF910C9459236C2F86EB91E00E94EE
:1035300032230E942A1EC7CFCF9108951F93CF93A5
:10354000DF93182F893319F0C9E1D0E002C0C0E53C
:10355000D0E0812F0E94021A8FE99FE00197F1F7D6
:1035600000C000002197C1F7812FDF91CF911F91FB
:103570000C94AB1980E0089590916B0192FF0DC0FF
:10358000282F2871283019F4877F846006C0282FDF
:103590002471243011F48B7F886093FF0DC0282F95
:1035A0002871283119F4877E846106C0282F247180
:1035B000243111F48B7E886120916C0120FF0DC0B5
:1035C000382F3871383019F4877F816006C0382F62
:1035D0003171313011F48E7F886021FF0DC0282FAA
:1035E0002871283119F4877E816106C0282F217146
:1035F000213111F48E7E886194FD877E0895F894C0
:10360000E82FE295EF70F0E031A1282F2F7081E0D4
:1036100090E001C0880F2A95EAF7982F90959323A0
:1036200091A392A1892B82A3789408959F92AF923F
:10363000BF92CF92DF92EF92FF920F931F93CF939F
:10364000DF9300D000D000D0CDB7DEB7AE014F5F22
:103650005F4F7A0186E0FA0111928A95E9F705E158
:1036600011E05A01CC24C394D12CF80180818F3F02
:1036700009F447C0F894E82FE295EF70F0E021A13B
:103680008F70A60102C0440F551F8A95E2F7CA0148
:10369000922F982B91A392A18095892382A378944D
:1036A00000C0EBE1F1E020E030E0912C41914F3F90
:1036B000B1F0A42FA295AF70B0E090968C9190E0FD
:1036C0004F7002C0959587954A95E2F780FD07C037
:1036D0008C2D022E01C0880F0A94EAF701C080E009
:1036E000982A2F5F3F4F2830310501F7F80180817C
:1036F0008F3F11F00E94FF1AF0EAFA95F1F7F501F9
:1037000090820F5F1F4FFFEFAF1ABF0A41E00B31EE
:10371000140709F0AACF46E050E0B7018DE691E02A
:103720000E94EA2711E0009709F410E0892B89F044
:1037300086E0F701ADE6B1E001900D928A95E1F7E0
:1037400081E0809315020E943116909314028093B9
:103750001302809115028823A1F0809113029091A9
:1037600014020E942216059760F0EDE6F1E0AFE743
:10377000B1E081918D9351E0E337F507D1F71092D5
:10378000150280910C01882341F1809113039091DF
:103790001403009711F10E94221620916D023091BE
:1037A0006E0228173907C8F4909111038091120313
:1037B000981759F00E943D2410926E0210926D02EB
:1037C000109214031092130308C00E94BF2310929A
:1037D0001403109213030E941E24812F26960FB605
:1037E000F894DEBF0FBECDBFDF91CF911F910F9137
:1037F000FF90EF90DF90CF90BF90AF909F90089593
:10380000CF93DF938238910569F1B0F4813391054C
:1038100009F46FC048F48932910509F465C08A3211
:10382000910509F46BC08AC08533910509F457C02E
:1038300089339105B9F082C0833E910571F138F466
:10384000803E9105B1F0823E910511F177C0863E30
:103850009105B9F1873E9105C9F1843E910509F0C2
:103860006DC024C020916B0120FD53C021FD51C0CB
:1038700065C080916B0180FD46C080916C0180FF26
:1038800048C080916B0184FD3FC183EE90E03EC152
:1038900080916B0182FF3AC0F4CF80916B0182FD71
:1038A00035C080916C0180FD34C0EBCF80916C01FC
:1038B00081FF35C080916B0184FD26C187EE90E0C9
:1038C00025C180916B0183FF27C0F4CF80916B01EC
:1038D00083FD22C080916C0181FD21C0EBCF8091DE
:1038E0006B0185FD1FC021C080916B0185FD1DC04E
:1038F00019C080916B0186FD1BC01DC080916B01BA
:1039000086FD19C015C089E390E000C182EE90E009
:10391000FDC080EE90E0FAC086EE90E0F7C084EE45
:1039200090E0F4C089E290E0F1C085E390E0EEC061
:103930008AE290E0EBC081E390E0E8C0811532E5D7
:10394000930708F069C0811541E5940728F0982F86
:103950008827816F906ADAC0883E910568F5803EBD
:10396000910508F0D3C0883A9105B8F4853A9105DD
:1039700048F0855AE82FF0E0EE5CFE4F808190E041
:103980009064C4C08130910509F4BBC008F4BCC088
:103990008430910508F4B8C0B9C08F3B910508F098
:1039A000B3C0885AE82FF0E0EE0FFF1FEB5CFE4F2C
:1039B000808191819464AAC0811520E59207F0F07E
:1039C0009C0174E0369527957A95E1F7922F9370D4
:1039D000482F437021E030E002C0220F331F4A9588
:1039E000E2F73C68392B8F70982F9695969540E2B8
:1039F000949FC0011124822B932B88C0811530E441
:103A0000930718F09F70906A81C09C013A95211528
:103A10003F4108F47BC078C0EC01C11586E5D807AA
:103A2000E8F5C11525E5D20748F08C2F0E94BC1A95
:103A30008F7190E0982F8827906268C0C11534E597
:103A4000D30728F09C2F8827846F906A5FC0AE014F
:103A5000437055272C2F26952695C115D34578F40C
:103A600081E090E002C0880F991F4A95E2F740E29A
:103A7000249F90011124822B932B9C6847C081E0E6
:103A800090E002C0880F991F4A95E2F740E2249F18
:103A900090011124822B932B9A6838C0C1152AE516
:103AA000D207F8F4C11539E5D30790F08C2F8F7049
:103AB0000E94BC1A94E0D695C7959A95E1F7CF700D
:103AC000D0E0DC2FCC27D0699E01282BC9011EC075
:103AD000C11548E5D407C0F09C2F8827806F906AF5
:103AE00015C0CE0190568115904270F48D2F8F71C4
:103AF0000E94BC1A282F2F71CE0199279062922B19
:103B000005C081E090E002C080E090E0DF91CF91BD
:103B10000895CF9384E090E00E949327C82F82E21B
:103B200090E00E9493272C2F30E0A901582BCA0166
:103B3000CF9108956AEE7EEF80E090E00E94BF276B
:103B400060E082E090E00E94A12760E083E090E0E6
:103B50000E94A1271092120260E084E090E00E948F
:103B6000A12760E082E290E00E94A12760E085E06A
:103B700090E00E94A12760E086E090E00E94A127EB
:103B80006FEF87E090E00E94A12740E050E0BA018B
:103B900088E090E00E94B32760E08DE090E00E9412
:103BA000A12740E050E0BA0188E190E00E94B327ED
:103BB00060E087E190E00E94A12740E050E0BA0178
:103BC0008CE190E00E94B32760E070E080E290E03A
:103BD0000E94BF2740E050E0BA0188E190E00E94D7
:103BE000B32780E00E9434270E94522740E050E033
:103BF000BA018FE090E00E94B32740E050E0BA01A4
:103C000083E190E00C94B32780911102882331F076
:103C1000109211021092100210920F020895CF9389
:103C200090916C0192FD0DC090911102981749F08E
:103C3000C82F0E9431169093100280930F02C093F8
:103C40001102CF910895809590910E02892380935F
:103C50000E02089590910E0280910D02892B909191
:103C60000C02892B8093B60180911102882311F1F7
:103C70000E94311620910F0230911002821B930B8B
:103C80008838934110F00E94041E9091B6018091F3
:103C90001102892B8093B601E8EBF1E097E080E018
:103CA000915029F021912223D9F38F5FF9CF81110F
:103CB0000E94041EE0911703F0911803309731F031
:103CC0000280F381E02D86EB91E009940895CF9373
:103CD000C0916C01C2FB992790F9981781F080FB85
:103CE000C2F9C0936C0160916B0184E090E00E9486
:103CF000A1276C2F82E290E0CF910C94A127CF9165
:103D0000089510920B0210920A021092090208956F
:103D100020910B028095822380930B02982F97703D
:103D200041F430E0482F082E000C550B24173507BE
:103D300021F490916C0192FF07C08595859585953A
:103D40000E94D9180C94811E089590916C0192FDE7
:103D500010C098E0899F90011124262B20930B021C
:103D60000E94E5180E94311690930A02809309027E
:103D700008950C94E51880910802811110920802B0
:103D80000895809107029091C601891719F08F5FFD
:103D90008770FBCF08951F93CF93DF938091C3016A
:103DA00082958F7009F05CC08091C001882309F46E
:103DB00057C0809107021091C6016091BE017091B9
:103DC000BF01C091C101D091C20191E06F3F09F0E4
:103DD00090E0292F811709F443C0209721F07F3FFD
:103DE00021F030E003C031E001C0322F90E030FD1F
:103DF00034C0FC0133E0EE0FFF1F3A95E1F7DF011D
:103E0000A953BE4F11963C911197371326C03C9190
:103E1000361323C012963C91129731111EC013968F
:103E20004D915C9114974C1B5D0B483C5105A8F4D7
:103E30008091C3018F7080618093C301E453FE4F72
:103E400080818F70806180838EEB91E00E941804E6
:103E5000DF91CF911F910C94C11E01968770BACF4C
:103E6000DF91CF911F9108959C013A9521153F4113
:103E700030F5BC0166277270AC01442754709C0178
:103E80002227387094FF0FC090FF02C080E101C06C
:103E900080E0672B09F08062452B09F08064232BBA
:103EA00079F080680895892F8170672B09F082600E
:103EB000452B09F08460232B19F08860089580E079
:103EC0000895DF92EF92FF920F931F93CF93DF93AA
:103ED000E82FF0E0E25CFA4FD490282F2695269543
:103EE000269530E0F901E25DFA4F0491877010E009
:103EF000082E02C0159507950A94E2F70170112764
:103F0000F901E25EFA4FE490F12C082E02C0F5941C
:103F1000E7940A94E2F791E0E922FF24F901E25FD5
:103F2000FA4FC491D0E002C0D595C7958A95E2F7C3
:103F3000C170DD270115110519F081EE0E94021AEA
:103F4000E114F10419F086EE0E94021A8D2D0E94F0
:103F50009E1AEF2819F086EE0E94AB19012B19F07A
:103F600081EE0E94AB19CD2B51F08CE2DF91CF9105
:103F70001F910F91FF90EF90DF900C949E1ADF91AC
:103F8000CF911F910F91FF90EF90DF900895EF92E6
:103F9000FF921F93CF93DF93EC011AE0888188236F
:103FA00009F44AC0813009F043C08981813041F46D
:103FB0007E0182E0E80EF11C8A810E949E1A09C0EF
:103FC000823049F47E01E2E0EE0EF11C8A810E940B
:103FD000021AE7012FC0833041F47E01F2E0EF0EB8
:103FE000F11C8A810E94AB19F4CF843011F0219624
:103FF00021C02A81229680E090E030E020533109F0
:104000002A30310558F4189FA001199F500D112432
:10401000C901840F951F21962881EFCF009751F099
:10402000EFE9FFE03197F1F700C000000197F6CF0C
:104030000E94611F2196B2CFDF91CF911F91FF9017
:10404000EF9008951F93CF93DF9300D000D01F927D
:10405000CDB7DEB7FC0186819781009709F5CF01C6
:1040600025E0DE01119601900D922A95E1F7FC0101
:10407000228189819A81222359F0662349F00E9486
:104080004B16182F682F89819A810E94A81803C0A7
:104090000E947818182F69817A81812F0E94C82682
:1040A0000F900F900F900F900F90DF91CF911F9175
:1040B00008952F923F924F925F926F927F928F92CC
:1040C0009F92AF92BF92CF92DF92EF92FF920F93A7
:1040D0001F93CF93DF93CDB7DEB76A970FB6F894EF
:1040E000DEBF0FBECDBF498B5A8B6B8B7C8B8D8B0C
:1040F000611110920D028E01075F1F4F88E0F801D9
:1041000011928A95E9F785E0FE017196D801019038
:104110000D928A95E1F70E943116209109023091A3
:104120000A02821B930B8838934140F080910B0266
:1041300082FB992790F981E0892701C080E080FF08
:1041400003C082E00E94881E0E94311620910F0257
:1041500030911002821B930B8838934110F00E941B
:10416000041E99858A852C853D85232B31F08F3F50
:1041700031F481E09F3F19F403C081E001C080E089
:1041800080FDCAC161E0C8010E9422206C0187EF56
:10419000C8168CE5D80639F48B858823B9F081E000
:1041A00080930C01B9C198EFC9169CE5D90631F48A
:1041B0008B85882359F00E942F24AEC1E9EFCE16DB
:1041C000ECE5DE0619F48B85811111C001ED12E0DA
:1041D000712CA12CB12C88248394912C55245394B8
:1041E000CE0101969F8B8E8BF7E04F2E49C08091B8
:1041F0000C018823A1F2DFCFC616D70609F097017C
:104200009F5F7901292F30E0F901EE0FFF1FE40FC6
:10421000F51F608171816115710571F7FFEFEF1670
:10422000FF0609F42DC1F8016481611131C02091AC
:104230000C01822F81706B84F80135812681662004
:1042400009F4C6C0882309F4C3C0332321F19401C3
:1042500002C0220F331F9A95E2F721503109F8016D
:10426000868190E02817390759F17628FFEFAF1AB9
:10427000BF0A095F1F4F28E0A216B10409F402C16A
:10428000F80140815181EE24EA94FE2C90E0BACFEF
:1042900020E030E0CECFA40101C0440FEA94EAF759
:1042A000242B268320916D0230916E02223331053A
:1042B00070F622E330E030936E0220936D02C7CF98
:1042C0008091130390911403009729F00E94221605
:1042D000C39708F01EC180911103F0911203F88F6B
:1042E000E0E0F0E0288D821709F460C0282F30E06C
:1042F000F901EE0FFF1FE75FFC4F20803180429CE9
:10430000F001439CF00D1124EF52FD4FF080E1804D
:1043100050E090E040E0EF2DFE2DE40FF11DE40FA2
:10432000F11DA081B1811097D1F0F801F081F98FD2
:10433000F801F181FA8F90E0E98DFA8DE90FF11D16
:10434000E90FF11D608171816115710531F0A617CA
:10435000B70709F451E09F5FEFCF4F5FDCCF5523E4
:10436000F9F09417C8F0429CF001439CF00D112421
:10437000EF52FD4F3097B1F054820E171F0709F42A
:1043800074CF9091110389130DC0C90101968370F8
:1043900099278093110306C00115110509F0B9C0D2
:1043A000E0E0F0E0C901019683709CCF0E171F0773
:1043B00009F45BCF90E0FC01EE0FFF1FE75FFC4FBD
:1043C000B182A082019683709927809312034DCF0A
:1043D000311112C0A40102C0440F551F9A95E2F793
:1043E0004150510930E042175307E9F56623E1F1E6
:1043F000C5010E94912337C0822F90E09C0121507B
:104400003109282339230E2C02C0959587950A94EB
:10441000E2F7232B31F580FF24C0F80182819381DC
:10442000892BD9F088E0EE89FF8911928A95E9F706
:104430008EEF89838A830E9431168160582F9D8375
:104440008C83F801828193818F83988729813A81B7
:104450004B816D817E810E94FF18F801158281E0F9
:1044600003C0817001C080E0940101C0220FEA9472
:10447000EAF72095F801968129232683682EF5CE48
:10448000612CF3CE8B85882381F1772071F10E9416
:104490003116909314038093130380917002883037
:1044A00008F044C091E0980F9093700298E0FE01EC
:1044B0003996DE01119601900D929A95E1F7ECE0A4
:1044C0008E9FC00111248F589D4F28E0FE01319628
:1044D000DC0101900D922A95E1F72FEF3FEFFC01EF
:1044E00031872087D386C28621C0909111038091A5
:1044F0001203981719F00E943D2408C00E94BF23A0
:1045000010921403109213030E941E24772021F0AE
:104510000DC0F8015482A9CE29853A854B855C856A
:104520006D857E858F8598890E94FF186A960FB6E3
:10453000F894DEBF0FBECDBFDF91CF911F910F91D9
:10454000FF90EF90DF90CF90BF90AF909F908F90B3
:104550007F906F905F904F903F902F9008950F93B2
:104560001F93CF93DF93C0916701D0916801CE0173
:1045700095558F3F910509F058F48C2FC4FF02C068
:104580008295807FDF91CF911F910F910C940F1E28
:104590008E01005E1109CE010830110510F0209740
:1045A00029F40E94341F0E94A11904C00E94341FE4
:1045B0000E9490198C2F0E94021A8FE798E321E045
:1045C000815090402040E1F700C000008C2F0E94F5
:1045D000AB19CE010830110510F0CD2B41F40E942B
:1045E000341FDF91CF911F910F910C949A190E9463
:1045F000341FDF91CF911F910F910C948519109268
:1046000066010E94852381FF03C089E30C949E1AF2
:1046100008951F920F920FB60F9211248F939F93BC
:10462000AF93BF9380911B03811113C080918501CB
:1046300090918601A0918701B09188014196A11DBA
:10464000B11D8093850190938601A0938701B0935B
:104650008801BF91AF919F918F910F900FBE0F90E6
:104660001F9018959C012A5F3F4FFC014281461321
:1046700001C01282019682179307B9F708959C0131
:10468000FC0132969FEF80E04191461789F09F3FF1
:1046900019F4411101C0982F8F5F8630A9F79F3F11
:1046A00039F0F901E90FF11D97FDFA95628308953C
:1046B00008952091190330911A032817390771F0D2
:1046C00090931A0380931903E0911703F091180354
:1046D000309721F00084F185E02D09940895209110
:1046E0001503309116032817390771F090931603BC
:1046F00080931503E0911703F0911803309721F090
:104700000680F781E02D09940895E0911703F09158
:104710001803309721F00190F081E02D099480E09A
:104720000895BC014091110380911203942F9817B2
:1047300029F1292F30E0F901EE0FFF1FE75FFC4F51
:104740000190F081E02DE617F70799F487E0869F46
:10475000F001879FF00D1124EF52FD4F81E084831B
:1047600094130CC02F5F3F4F237033272093110306
:1047700008952F5F3F4F922F9370D9CF08950F93D5
:104780001F93CF93DF9380917002882309F451C067
:10479000C0916F021CE080917002C81708F045C0FC
:1047A00001E00C0F00936F02D0E01C9FF0011D9FF1
:1047B000F00D1124EF58FD4F9081818123813481C8
:1047C000232B31F08F3F31F481E09F3F19F403C078
:1047D00081E001C080E080FD26C01C9FD0011D9FAC
:1047E000B00D1124AF58BD4F16968D919C9117971F
:1047F000892B31F418968D919C911997019651F45B
:1048000020813181428153816481758186819781C4
:104810000E94FF181C9FF0011D9FF00D1124EF58FE
:10482000FD4F14821382C02FB6CF109270021092E7
:104830006F02DF91CF911F910F91089510926E0238
:1048400010926D02E1EDF2E08581811102C01482C7
:104850001682379683E0E930F807B1F70895109291
:1048600014031092130310920C0180911203809391
:1048700011030E941E240C94BF233F924F925F921B
:104880006F927F928F929F92AF92BF92CF92DF9260
:10489000EF92FF920F931F93CF93DF93C091110379
:1048A00097E0892E01E010E02CE0322E3EEF932EAF
:1048B0004424439480911203C81709F478C0D0E0CF
:1048C000FE01EE0FFF1FE75FFC4F80819181889E04
:1048D000D001899EB00D1124AF52BD4F14962C917A
:1048E0001497211161C050907002E1E7F2E020E0DE
:1048F00030E0712C5D01251508F054C0E284F3848A
:10490000D501CD90DC906FEF7FEF612C462D50E00C
:10491000DA01AA0FBB1FAC0DBD1D0D90BC91A02DDF
:10492000109731F0EA16FB0609F4BA016394EECF52
:104930006F3FBFEF7B0791F1D80102C0AA0FBB1FE9
:104940006A95E2F77A2AB80102C0660F771F6A9467
:10495000E2F7AB0141505109672D70E04617570748
:10496000D9F4329EF001339EF00D1124EF58FD4F23
:10497000889ED001899EB00D1124AF52BD4F129672
:104980002D913C9113973783268390829182918752
:10499000808715964C9206C0148213822F5F3F4F7A
:1049A0003C96A9CF0E9491232196C37083CF0E9489
:1049B000BF23DF91CF911F910F91FF90EF90DF9078
:1049C000CF90BF90AF909F908F907F906F905F90AF
:1049D0004F903F900C941E240F931F93CF93DF931F
:1049E000C42FD22FFC0182818823C9F040936C022E
:1049F0000E94311690936B0280936A0280E28C0FC2
:104A0000883008F057C0C77081E001C0880FCA9590
:104A1000EAF7DF91CF911F910F910C94A11980912A
:104A20006C02481330C080916A0290916B020E9420
:104A30002216883C910538F510E21D0FCD17B9F00C
:104A400080E28C0F883040F4C77081E001C0880F8D
:104A5000CA95EAF70E949A19183028F581E09D2F2F
:104A6000977001C0880F9A95EAF70E94A119802FCC
:104A70000E949E1A1830F0F4D77081E001C0880FB0
:104A8000DA95EAF70AC080E28C0F883098F4C77094
:104A900081E001C0880FCA95EAF7DF91CF911F919D
:104AA0000F910C949A19802FDF91CF911F910F9144
:104AB0000C949E1ADF91CF911F910F910895CF937F
:104AC000DF93C3E9D2E060E0CE010E94A1272196E6
:104AD000C11584E0D807B9F7DF91CF9108950F93FE
:104AE0001F93CF93DF93853068F5633058F54230DC
:104AF00048F521159CE5390731F4E0916602F09103
:104B00006702EF2BF9F08901282F34E0639FC00181
:104B100011243CE0239F800D911D1124840F911DD1
:104B2000840F911DEC01C95FDD4F612FCE010E9402
:104B3000A127602FCE010196DF91CF911F910F9198
:104B40000C94A127DF91CF911F910F9108950F939E
:104B50001F93CF93DF93853018F5633008F542300B
:104B6000F8F4282F34E0639FC00111243CE0239F18
:104B7000800D911D1124840F911D840F911DEC0156
:104B8000C95FDD4FCE010E94932790E0182F0027C8
:104B9000CE0101960E9493279801282BC90102C0DB
:104BA00080E090E0DF91CF911F910F9108950F93D6
:104BB0001F93CF93DF93853058F5663048F5483022
:104BC00038F521159CE5390731F4E0916602F09142
:104BD0006702EF2BE9F08901C42FD0E0CC0FDD1F75
:104BE00090E1699FC00DD11D112490E6899FC00DF1
:104BF000D11D1124612FCE0187960E94A127602F1D
:104C0000CE018896DF91CF911F910F910C94A1272F
:104C1000DF91CF911F910F9108956F927F928F92A4
:104C20009F92AF92BF92CF92DF92EF92FF920F933B
:104C30001F93CF93DF93CDB7DEB72A970FB6F894C3
:104C4000DEBF0FBECDBFA0906602B090670281E0CC
:104C500090E09093670280936602C12CD12C712C56
:104C6000612CE12CF12C00E010E047018C0C9D1C24
:104C7000F401E00FF11FEE0FFF1FE254FA4F2591F0
:104C80003491402F662D872D0E94D7250F5F1F4F2F
:104C90000830110569F788E0E80EF11C639496E08E
:104CA0006912E1CF10E021E030E040E0612F872D74
:104CB0000E946F2521E030E041E0612F872D0E94A6
:104CC0006F251F5F133079F77394E0E3CE0ED11C8C
:104CD000F5E07F12C5CFCE0101967C018AE0F70195
:104CE00011928A95E9F703E412E04AE050E0B80136
:104CF000C7010E94C527065F1F4F0339F2E01F0757
:104D0000A1F7B0926702A09266022A960FB6F894B5
:104D1000DEBF0FBECDBFDF91CF911F910F91FF90EE
:104D2000EF90DF90CF90BF90AF909F908F907F904B
:104D30006F9008950F931F93CF93DF93853008F5FD
:104D40006630F8F44830E8F4C42FD0E0CC0FDD1F13
:104D500020E1629FC00DD11D112430E6839FC00D5C
:104D6000D11D1124CE0187960E94932790E0182F21
:104D70000027CE0188960E9493279801282BC9010D
:104D800002C080E090E0DF91CF911F910F910895D4
:104D9000462F2091680230916902232B49F4853017
:104DA00038F4763028F4683018F4672F0C949A267B
:104DB00080E090E00895CF92DF92EF92FF920F9300
:104DC0001F93CF93DF93CDB7DEB72A970FB6F89432
:104DD000DEBF0FBECDBF80E5E6E1F2E0DF011D9250
:104DE0008A95E9F788E3E1EDF2E0DF011D928A950B
:104DF000E9F786E1C82E82E0D82E7F0103E412E0B5
:104E0000F701D182C0824AE050E0B801CE0101969C
:104E10000E94832788E0FE013196D60101900D9211
:104E20008A95E1F789859A85D70113969C938E938D
:104E30001297BAE0CB0ED11CE7E0EE0EF11C065F34
:104E40001F4F0339F2E01F07D9F62A960FB6F894E0
:104E5000DEBF0FBECDBFDF91CF911F910F91FF90AD
:104E6000EF90DF90CF900895CF93C82F811102C0AB
:104E70006FEF01C06DEC83E290E00E94A127C111A9
:104E800002C06FEF01C063E984E290E00E94A127B5
:104E9000C11102C06FEF01C064E585E290E0CF91DF
:104EA0000C94A12780E00E94342760E086E290E025
:104EB0000E94A1270E940D260E945F2581E00C948C
:104EC000342783E290E00E9493278D3C81F484E2B2
:104ED00090E00E949327833951F485E290E00E948C
:104EE000932791E0843509F090E0892F01C080E09C
:104EF00081700895FB01DC0102C005900D924150C4
:104F00005040D8F70895DC01CB01FC01F999FECFA0
:104F100006C0F2BDE1BDF89A319600B40D92415041
:104F20005040B8F70895F999FECF92BD81BDF89A27
:104F3000992780B50895A8E1B0E042E050E00C94D4
:104F40008527262FF999FECF92BD81BDF89A01974A
:104F500000B4021639F01FBA20BD0FB6F894FA9AC1
:104F6000F99A0FBE08950396272F0E94A2270E9448
:104F7000A127252F0E94A227242F0C94A227019657
:104F8000272F0E94A2270C94A127DC01CB0103C08C
:104F90002D910E94D02741505040D0F70895262FE0
:104FA000F999FECF1FBA92BD81BD20BD0FB6F8940E
:104FB000FA9AF99A0FBE01960895EE0FFF1F059019
:104FC000F491E02D09946927962769277827872788
:104FD00078270895FB01DC0104C08D9101908019B0
:104FE00021F441505040C8F7881B990B0895DC010B
:104FF00001C06D9341505040E0F70895F894FFCF01
:10500000FF7010AC156F10A815A4150101693CEADA
:1050100084B6CCB4AC92F4F5F6F7313534C6976665
:10502000943233402232EF03CD039B0341045A04F0
:105030007A04818283E200E900EA00B500B600B795
:1050400000CD008301CC008A01920194012102234A
:105050000224022502260227022A02B300B4006FAE
:0450600000700000DC
:00000001FF
