:100000000C94D9030C9420040C9420040C94200428
:100010000C9420040C9420040C9420040C942004D0
:100020000C9420040C9420040C94A0150C94DC1463
:100030000C94BC200C9420040C9420040C942004F8
:100040000C9420040C9420040C9420040C942004A0
:100050000C9420040C946F200C9420040C94200425
:100060000C9420040C9420040C9420040C94200480
:100070000C9420040C9420040C9420040C94200470
:100080000C9420040C9420040C9420040C94200460
:100090000C9420040C9420040C9420040C94200450
:1000A0000C9420040C9420040C9420043C083C087C
:1000B00075087508D708120A120A120AF5086909A4
:1000C0007A097A09BF0FD50FDC0F141025103010F4
:1000D000401051108E109310ED10ED10ED109B108C
:1000E000E4120B13BE140B13BE1457137A13BE1471
:1000F0007B148B14601760177317731769177317C6
:1001000073177317601760176E17731773176E17CF
:100110002E200000DA0281FFD9F1DB20A4A62EAF49
:1001200000A0C000A1C800AED580A81FD300408D9C
:1001300014200000AEFD377A585A000004E6D6B409
:10014000460200210116000000742FE5A3E0083EDE
:1001500002365D003D8889C65436C3174FE4F1E18D
:1001600012FDEF008EFF6F9387B42647FBB729D0AF
:100170003483DA2C4E8C1ED4A2101D9A2C5F0D896C
:10018000D296E2560F1E575FB410F19A9B18602D5D
:100190007EFBA74803850A09BB61BA19807BBF6A49
:1001A000FCD562B5A0586062FEDF691F04CDA0E2F5
:1001B0009C23EC78E2646D4A1E774902D002F31A60
:1001C000C740B2B25A20298464FA7CF834888B6A1A
:1001D000A3EB8E2D44BC6D26964284E783747DEAA2
:1001E000FA4E0C1EC311C0B49F1AECBB2E3D4A4AF6
:1001F000B2CABF993A479558A76B88ABC6E95BEB83
:10020000BEC82DB73BA2C5931D03DD5D4CEC54A7C2
:10021000830E429471213D3BB82E257304C4457E64
:100220006454FDEE69E3C81334CF2DF27873F7AF51
:1002300070587839E192163E0BBEEDACBD9B328210
:100240000D14AD774B4EAA33D5D96F79BD2934053E
:10025000B1888D638B83CADD277E61ECCA5215D1CC
:10026000CD88067CEDD6699F61749BB0B6B36D7D79
:100270007F64A4994234587F9F9F1B8B5C7E4EA75E
:1002800040596B067D2C760B1A0BB45DC6D37AF3FE
:100290003C3982F61891FCA04353F678108653DA65
:1002A0001F91F90D059B052EAB5E55664C99D0CA82
:1002B000F3C80A28FA9DF2EC76C320EBB052EB2784
:1002C00079D1FE5EC3119C7DF8FE6ED9541E1D5D72
:1002D000CCDE841CA99596E4590D725301850D6AF4
:1002E000ABC4D9A15496272C701783AF2FA7C9A7E9
:1002F0008188F315AEE444A97896109803F24693EA
:10030000B9387EFBD6CCC3BCA6C2DAD1D5E1476FE3
:1003100006BF8BA8EC1AF0C90267F7BAB2C2D23294
:100320003A52BFD588862379C4F36DB19341D2BBCD
:100330002A77745FD1B6423837CB8C98F2193AE7F6
:100340002BF9A8D7CD7249B4B05CA5FD99AA09C311
:10035000A08DB0B7DDF325F6F41DDFDD90E6CE54B9
:100360002C771703C631168D814709DA505FB0E04C
:1003700099446B0B976BDD9B9337699DA10990584E
:1003800017A585BBD29DDA73BDB1000000A1044D55
:100390001C85E5BAE60001D204BF100000853214C6
:1003A00030B1C467FB020000000004595A0501097E
:1003B00080A101850319012AB700150126B7009510
:1003C0000175108100C0050C0901A1018504190106
:1003D0002AA002150126A002950175108100C00611
:1003E00060FF0961A1010962150026FF00952075D3
:1003F0000881020963150026FF0095207508910207
:10040000C005010906A101050719E029E715002526
:10041000019508750181029501750881010507198B
:100420000029FF150026FF009506750881000508C4
:100430001901290595057501910295017503910131
:10044000C009025B00030100A0FA090400000103D7
:10045000010100092111010001224000070581036B
:1004600008000A090401000203000000092111012B
:100470000001222200070582032000010705030373
:1004800020000109040200010300000009211101FC
:1004900000012232000705840320000A1201000235
:1004A00000000008FEFEBBFF0100010203011C0367
:1004B0007600690061006C003A0066003600340086
:1004C00063003200620033006300000032037300F7
:1004D0006100640065006B006200610072006F00E3
:1004E0007500640069002000660066006B00620011
:1004F0005F00620079006F006D006300750000000E
:100500001A0373006100640065006B006200610003
:1005100072006F00750064006900000004030904A4
:10052000290014001A000800150017001C0018000C
:100530002B0004611668076409620A000B000D7243
:10054000E1001D001B00060019000500110010004D
:10055000000000000E7437001200337138002A00CA
:1005600000002B0436000C000F781300E500340067
:100570002A01A8004C0031002800015102512C0032
:1005800001001E021F022002210222022302240275
:1005900001000153025303530453010001002D02D3
:1005A000010039000100010001000100010001000B
:1005B000000000002E023102260230023402010047
:1005C00000000100010025022F02270201000100A6
:1005D00001000100010001000100010003510100C0
:1005E00035001E001F0020002100220023002400EF
:1005F0004A005000510052004F002B0001002D0016
:10060000010001004E004B000100815F845F825FAA
:10061000000000002E000100260030000100010053
:1006200000000100835F25002F002700010001006A
:10063000010001000100010001000351010001005F
:100640000100C25CC45CC35C010001003A003B00D5
:100650000100CB5CC55CC75CC95C01003F00400089
:100660000100CC5CC65CC85CCA5C0100440045006B
:1006700000000000410001003D004300005C01005B
:100680000000010001003C0042003E0001000100AA
:100690000100010001000100010001000100010052
:1006A0000100010001000100010001000100010042
:1006B0000100010001000100010001000100010032
:1006C0000100010001000100010001000100010022
:1006D0000000000001000100010001000100010014
:1006E0000000010001000100010001000100010003
:1006F00001000100010001000100010001000100F2
:1007000000AF00000000000000000000000000003A
:1007100000000000000000000000000000000000D9
:100720000000000000007E0F00D4FFFFFFC70000A4
:10073000007800000000000000002A2B28000000C4
:100740000000000000000000000000000029000080
:1007500000002C1E3420212224342627252E362D5D
:100760003738271E1F202122232425263333362EF7
:1007700037381F0405060708090A0B0C0D0E0F1069
:100780001112131415161718191A1B1C1D2F3130AE
:10079000232D350405060708090A0B0C0D0E0F1052
:1007A0001112131415161718191A1B1C1D2F31308E
:1007B000354C11241FBECFEFDAE0DEBFCDBF04B64B
:1007C00003FE27C08091550590915605A0915705CD
:1007D000B09158058730904BA740B04BD1F41092A0
:1007E000550510925605109257051092580514BEE3
:1007F00084B7877F84BF0FB6F894A8958091600076
:10080000886180936000109260000FBEE0E0F8E322
:10081000099511E0A0E0B1E0E2EAF5E502C005903B
:100820000D92A237B107D9F725E0A2E7B1E001C0E8
:100830001D92A535B207E1F70E94E70A0C94CF2A72
:100840000C9400008F929F92AF92BF92CF92DF9252
:10085000EF92FF920F931F93CF93DF9300D000D0BE
:10086000CDB7DEB7FC018081918123813481232BB8
:1008700031F09F3F31F491E08F3F19F403C091E0D4
:1008800001C090E090FD92C66F0161E0CF010E942F
:10089000FB258C01F6018281882309F49AC0980116
:1008A00022513F452031310508F07BC08FEF93E0A6
:1008B0000E94642A81117FC03EEEF32EF00E03E900
:1008C00012E0FF2071F00115F4E01F0709F473C076
:1008D000C8010E94642A811101C0FA940F5F1F4F62
:1008E000F0CF19821A821B821C82AA24AA94780152
:1008F0002FEFE21AF20AC8010E94642A89831A8241
:10090000882309F458C0813009F046C0480182E0CC
:10091000880E911CC7010E94642A8A83882309F4E7
:100920004AC09FEF980F933060F4780193E0E90E8E
:10093000F11CC4010E94642A8B8381112DC08701A0
:10094000D6CF843011F07401FACFC4010E94642A1A
:10095000B82E7801E4E0EE0EF11CC80103960E9467
:10096000642ABB2041F1882331F1282F30E0215047
:100970003109A29EA001A39E500D11248B2D90E061
:100980000197840F951F0197D0F2EFE9FFE03197AF
:10099000F1F700C00000F7CFCE0101960E94A0251C
:1009A000CECF00319FE5190709F060C581E00E94B4
:1009B000A2190E94CA1180913704877009F4F6C504
:1009C000F6018281882309F4F1C582E00E940A1EA3
:1009D000EDC50031FFE51F0711F481E005C00131CD
:1009E0002FE5120721F482E00E949619E2CF909140
:1009F0007401911105C090917701992309F4B7C052
:100A000098013056211590E2390720F0305E21150B
:100A1000304140F4F6019581907F09F4A8C0780137
:100A2000FF2401C07801970130542115354108F4A5
:100A30009EC090917701923021F5882369F08091D2
:100A40003A04982F927219F06894F1F80FC086FF5B
:100A50000DC024E1F22A0AC0C70195558F3F9105C8
:100A600011F008F022C580E00E948A1F81E0809387
:100A70007701F0927601E09275018FEF809300018B
:100A80009ACF882309F411C5913009F05FC0809195
:100A900000019CE2E916F104D9F4882329F00E94B0
:100AA00032261092000187CF8091750190917601D6
:100AB00095558F3F910509F018F40E94D71D03C08A
:100AC0008AE20E945B1B109277010E9482264FC02F
:100AD000EAE2EE16F10421F481508093000126C071
:100AE00087FD34C081110BC0809175019091760112
:100AF00095558F3F910509F010F40E9432268091A0
:100B000000018F5F80930001FDE2EF16F10471F0A8
:100B100040F484E0E81AF10894E2E916F10480F464
:100B200005C0EDE2EE16E2E0FE0651F4F601828128
:100B3000882309F4BAC480913A04811114C09DC479
:100B4000F6018281882309F4B0C40DC09AE2E91647
:100B5000F10489F308F01EC5F4E0EF1AF10824E26D
:100B6000E216F10440F30E948226109277010238C7
:100B7000FFE51F0751F4F6018281882399F181E096
:100B8000809377018DE290E017C003382FE51207BC
:100B9000D8F00338EFE51E0709F4EBC40438FFE58D
:100BA0001F0709F093C4F60182818823D9F081E000
:100BB000809377018DE292E09093760180937501A6
:100BC0008FEF8093000113C000388FE5180709F4F8
:100BD00036C101389FE5190709F078C4F601828112
:100BE000811158C4F6018281882309F4B8C110929A
:100BF0009E040230FCE51F0708F49BC106312CE57A
:100C0000120730F0C8018A5F9C45099708F091C12E
:100C10000E945C1D90937A018093790100318CE5EC
:100C2000180709F4C3C008F041C00830ECE51E07FE
:100C300009F49AC0F0F404302CE5120709F487C0D7
:100C400068F402309CE5190709F477C003301C45AD
:100C500009F0E5C080917901826076C00630FCE53C
:100C60001F0709F46EC008F07BC08091790188608D
:100C70006BC00C308CE5180709F485C068F40A30A5
:100C8000ECE51E0709F474C008F079C00E94B119A0
:100C900080917901806858C00E302CE5120709F464
:100CA00076C008F07FC0809179018BC00B3F9CE536
:100CB000190709F44FC018F50331FCE51F0709F4C3
:100CC0007DC078F401318CE5180709F473C0023156
:100CD0001C4509F0A4C00E94B119809179018F7759
:100CE00033C00531ECE51E0709F472C008F486C074
:100CF0000A3F1C4509F093C080917A013EC00F3F26
:100D00008CE5180709F45FC058F40D3FECE51E07A9
:100D100009F444C008F43FC080917A0182602DC07C
:100D200001302DE5120709F475C008F45DC00230EA
:100D30001D4509F074C060E06EC08091790181604A
:100D400003C08091790180618093790168C08091AE
:100D5000790111C080917A01826080937A015FC02D
:100D6000809179018062F0CF809179018064ECCF2D
:100D70008091790188608460E7CF8160EECF8091B7
:100D800079018E7FE1CF809179018D7FDDCF8091D8
:100D90007901877FD9CF80917A0118C080917A013B
:100DA0008D7FDBCF809179018F7ECECF80917901CD
:100DB0008F7DCACF809179018F7BC6CF80917901D9
:100DC000877F8B7FC1CF80917A018D7F8E7FC5CF4A
:100DD0008091790182FB222720F991E0922790FBF4
:100DE00082F990FB83F9B0CF80917A01982F90958A
:100DF00091708E7F892B90FB81F9AFCF0E94B11942
:100E00008091790187FB222720F991E0922790FBBE
:100E100087F99ACF61E08EE090E00E94722A60919B
:100E2000790110917A0184E090E00E94722A612F8A
:100E300082E290E00E94722A0E94B119BCCDF601B4
:100E40008281882309F4CECE90E1A92E91E0B92EBB
:100E50002AE0922EF5018491882309F45AC081304A
:100E600009F04FC07501FFEFEF1AFF0AF7018491F7
:100E7000813049F47501F2E0EF0EF11CF701849125
:100E80000E945B1B41C0823049F47501F2E0EF0E15
:100E9000F11CF70184910E94BF1A36C0833049F4D7
:100EA0007501F2E0EF0EF11CF70184910E94681ABF
:100EB0002BC0843049F57501F2E0EF0EF11CF7010B
:100EC000249180E090E030E0205331092A30310550
:100ED00070F4989EA001999E500D1124C901840FB1
:100EE000951FFFEFEF1AFF0AF7012491ECCF00974F
:100EF00059F0EFE9FFE03197F1F700C000000197EA
:100F0000F6CF0E943A2575015701FFEFAF1ABF0ACD
:100F1000A1CF80913D0481FD65CE0E94B0209093C9
:100F20003C0480933B0480913D04826080933D04A7
:100F300059CE0631ECE51E0711F580913A048A7A04
:100F400091E009F490E090937801882311F065E333
:100F500001C069E282EE93E00E94F2200DC00631EA
:100F60001C45F1F580917801882309F411C365E3EC
:100F700082EE93E00E94E5200E949E1F1CCD0A3560
:100F8000EDE51E0741F150F401152CE51207A9F01B
:100F90000E3D1C4529F50E946D1D0DCD0B359DE5BF
:100FA0001907D9F00C351D45D9F480917A0182FBDF
:100FB000882780F991E0892711C00E94B119FFEFBD
:100FC00024E38CE0F15020408040E1F700C00000B5
:100FD0000E944B20F0CC81E001C080E00E94E91D1E
:100FE000F601868197810097B9F4F601828100812C
:100FF0001181882349F0C8010E940817F82E682F34
:10100000C8010E94651904C0C8010E943519F82E54
:10101000B8018F2D0E94A1240E94D31BF82E192FF6
:10102000F601E280058102950F7080913704877088
:1010300099F0EE2089F0892F807F803421F080E2C2
:101040008F0D883048F082E00E940A1E809137049C
:101050008770BB24B3948111B12CA12EA2948FE090
:10106000A8228A2D90E08C30910508F0DBC1FC01AC
:10107000EA5AFF4F0C94AE2A812F807F1F7088237D
:1010800011F01295107FEE20B9F0112309F4ACC1D4
:1010900080E28F0D883010F0F11006C090913A0474
:1010A000192B10933A0405C090913904192B109311
:1010B00039040E949E1F98C18F2D0E94681A112327
:1010C00009F4B0C180E28F0D883010F0F11004C037
:1010D000812F0E94E21D06C01095909139041923BA
:1010E000109339040E949E1F9DC1812F807F1F7025
:1010F000803211F01295107FFF2021F0F1E0FF16F1
:1011000091F13BC0EE20D9F00023A9F0013031F479
:1011100080913D04812B0E948A1F84C1053059F4BF
:101120000E94D71D80913404181310933404812F2A
:101130000E945E1A77C180913D04812BF9CF002374
:1011400049F0013069F480913A04812309F46AC1BD
:101150000E94271E0E94D71D812F0E94571A62C12C
:101160000530C1F75FC1EE2021F0063008F05AC10A
:10117000DECF053008F056C1EFCFEE2019F0002386
:10118000B1F232C1002341F329E3F21208C08FEF1C
:1011900097EEE3E081509040E040E1F73EC1FFE789
:1011A00028E381E0F15020408040E1F736C1812FF3
:1011B00086958695837019F0813061F033C1EE20F9
:1011C00021F08F2D912F937002C080E090E00E945B
:1011D00022212EC1EE2021F08F2D912F937002C07D
:1011E00080E090E00E940C2123C1812F8370A9F53B
:1011F000E1101CC14F2D429546954770440F440F96
:101200008F2D8F7090E09C01042E01C0220F0A9454
:10121000EAF7F4FE08C08FE090E001C0880F4A951D
:10122000EAF7809501C080E016951695137012308C
:1012300069F088F490913E04113019F0822B8923D3
:1012400002C0922B892B0E94AD19F0C0822B909185
:101250003E048927F8CF822BF6CFEE2019F0812F9C
:10126000817001C08695882309F4E0C04F2D429516
:1012700046954770440F440F8F2D8F7090E09C016E
:10128000042E01C0220F0A94EAF7F4FE08C08FE092
:1012900090E001C0880F4A95EAF7809501C080E090
:1012A000169516951370123059F078F49091CF037B
:1012B000113019F0822B892309C0922B892B06C08B
:1012C000822B9091CF03892701C0822B0E94921913
:1012D000ADC01F70EE2039F0812F0E94A2198F2D12
:1012E0000E945E1AA3C08F2D0E94571A812F0E9460
:1012F00096199CC092EFF91659F19F1538F0E0EF5E
:10130000FE1659F0F1EFFF16E1F069C023EFF21677
:1013100031F184EFF81681F162C0EE2071F00530F2
:1013200008F080C01F7181E090E001C0880F1A951D
:10133000EAF79091CF0389271CC0063008F072C0ED
:10134000F1CFEE2039F0812F8F710E94A2196AC06F
:10135000EE20C9F3812F8F710E94961963C0EE2091
:1013600039F01F7181E001C0880F1A95EAF701C0BA
:1013700080E00E94921956C0EE20D1F08091340492
:101380000E94E21D809137048770843039F40E94F6
:10139000031E812F8F710E94961966C0053008F0D8
:1013A00063C01F71812F0E94A21963E0812F10C0BA
:1013B00090913A0480913404892B80933A0405304B
:1013C00050F00E94031E0E94271E64E0812F8F713F
:1013D0000E94DB1F49C081E00E940A1E45C0EE202A
:1013E00039F0002309F4AFCF8F2D0E94BF1A1AC025
:1013F000002309F4AFCF99E3F91208C0EFEFF7EE3D
:1014000023E0E150F0402040E1F707C08FE798E388
:10141000E1E081509040E040E1F700C000008F2DF6
:101420000E94681A88EF8A0D843010F40E943821D7
:10143000BB20A9F08091370480FD11C0F601128213
:101440008595859585950E94A219C6010E94220462
:10145000809137048595859585950E94961960E061
:10146000C6010E94FB25A2C0B12CE0CF0131EFE5FF
:101470001E0709F0BCCA82E09ACA0238FFE51F07BE
:1014800009F479CB08F085CB00388FE5180709F00F
:10149000A0CBDACC81E0809374010E94382181FDD9
:1014A000A1CB89E30E945B1B9DCB02382FE512077D
:1014B00009F461CB08F059C000389FE5190709F419
:1014C00091CB0138EFE51E0709F488CB033F2CE5EB
:1014D0001207A1F406E221EE40EE63EF7CE50AC0BC
:1014E000073DFCE51F0709F07DCB06E221EE41EE4A
:1014F00067ED7CE5C6010E949F225DCA043F8CE532
:101500001807A0F4083D9CE5190731F407E225EE21
:1015100045EE68ED7CE5EECF093DECE51E0701F7F1
:1015200008E221E045EE69ED7CE5E4CF053F2CE5DE
:10153000120731F406E221EE42EE65EF7CE5DACFE8
:10154000053F8CE5180730F407E225EE44EE64EF22
:101550007CE5D0CF063F9CE5190709F043CB07E2B5
:1015600025EE46EE66EF7CE5C5CF0338FFE51F07A5
:1015700049F4F6018281882309F434CB82E0809318
:10158000770135CB04382FE5120709F40CCB9ECF39
:1015900069E2EECC8DE2E816F10409F4CCCA9DE2D2
:1015A000E91692E0F90609F0DECAC5CA0F900F905D
:1015B0000F900F90DF91CF911F910F91FF90EF90BF
:1015C000DF90CF90BF90AF909F908F900895CF9372
:1015D000DF93CDB7DEB7E6970FB6F894DEBF0FBE48
:1015E000CDBF84B7877F84BF0FB6F894A89580914C
:1015F0006000886180936000109260000FBE90E0F0
:1016000080E80FB6F89480936100909361000FBE5C
:1016100085B7806885BF85B7806885BF87E79BE110
:1016200090937301809372010E94B4240E9420154C
:101630000E943F158091E20084608093E2007894DC
:101640008091CE038823A1F01091E9001F70909142
:10165000EC00892F817090FD80E8182B1092E90032
:101660008091E80083FD0E94FE111F701093E90035
:1016700082E084BD93E095BD9AEF97BD80936E00A4
:101680000E940F29811102C00E9400290CE111E083
:1016900072E2E72E71E0F72ED8018D918D018F3F18
:1016A00011F00E94BC1BE016F106B1F702E211E056
:1016B000F80181918F018F3F11F00E94BC1BF1E076
:1016C0000A321F07A9F7EBE7F1E081E891E0A2EB0E
:1016D000B3E011921D928E179F07D9F780E090E03A
:1016E0000E946C2A8A3E9E4F21F40E940F2981118C
:1016F00002C00E946D1D82E090E00E94642A8093E7
:10170000A7030E945C1D90937A01809379010E9447
:10171000A01E8FE39CE90197F1F700C000000E9432
:10172000A01E8091B20380FF08C06FEF7FEF80E0C2
:1017300090E00E94902A0E944B2083E090E00E945B
:10174000642A0E94AD191092A20380E8809381015F
:101750000E9428296DE070E086E291E00E94D51198
:10176000892B09F03FC08091A20363E070E081FD06
:1017700036C083E291E00E94D511892B99F56DE086
:1017800070E083E191E00E94D511892B59F50E9408
:10179000A420DC01CB01805A9541AF4FBF4F80930D
:1017A000960490939704A0939804B093990480E0D2
:1017B00092E0E2EAF1E0DF019C011D92215030400D
:1017C000E1F78FEF9FEF9093A5038093A40381E04F
:1017D00080939B0480939A041092A30303C080E239
:1017E00091E0C9CF81E091E090934A05809349054B
:1017F00022242394312CBE016F5F7F4F2B018091F7
:10180000CE03853009F044C000E112E18091CE039F
:10181000853009F039C08091CE03843021F11092D7
:101820004D0588E190E0A0E40FB6F894A895809368
:1018300060000FBEA093600083B7817F846083BF88
:1018400083B7816083BF7894889583B78E7F83BF89
:101850000FB6F894A895809160008861809360002D
:10186000109260000FBE8091C403882309F4CECF8C
:101870000E94A01EE2EBF3E081918111B2C4B3E0BB
:10188000E83BFB07C9F7C2CF0E94B1190E9438217B
:101890000E94A01ED82E81110E94A420E8EAF3E045
:1018A000A2EBB3E000E010E0302F2D919191922750
:1018B00021F180E0FF24F394492F4F21D1F08BA731
:1018C0003CA72F2181E009F480E08DA70E94B02081
:1018D0008160782F9FA78EA74BA55CA56DA58FA5CE
:1018E0000E948C26F801E855FC4F8081F826F08292
:1018F00019C08F5FFF0C8830F9F60F5F1F4F06305D
:10190000110591F68FEF88AB89AB1AAA0E94B0201F
:101910008160782F9CAB8BAB48A959A96AA98CA987
:101920000E948C2680919B04882309F40EC120918B
:10193000A4033091A5032115310509F4DBC0809182
:10194000A3038111D7C0682E712CEE24E394F12CEF
:10195000082E02C0EE0CFF1C0A94E2F7A9014E21EA
:101960005F21452B11F48F5FEECF9091A20393017D
:1019700045E0220F331F4A95E1F790FD12C0829592
:10198000880F807680930D01220F232F221F330BA7
:10199000319520931001815E80930E011092110108
:1019A00012C015E0369527951A95E1F7220F220F00
:1019B000220F20930D0110921001295F20930E0138
:1019C00083E08093110124E630E047E050E06BE0D3
:1019D00071E088E70E94DF29892B09F08BC0809194
:1019E000A20380FD23C0C301B5E0880F991FBA95FB
:1019F000E1F7AC014E555E4F04E610E020E230E026
:101A000060E488E70E94062A892B09F073C00E94CF
:101A10001223E094F0948091A4039091A503E8220E
:101A2000F922F092A503E092A40364C080E2E2E808
:101A3000F1E0DF011D928A95E9F7A5E0660C771CBD
:101A4000AA95E1F7EEE2F1E0FEABEDAB4AE251E040
:101A5000ADA9BEA98D91BEABADABFA019191AF011D
:101A60009301290F311DB9016E557E4F4B0190E056
:101A70008E579E4FFC0107E09F01281B390BBB24AA
:101A8000B39401C0BB0C2A95EAF7B401C12CDB0169
:101A90001D91BD011B21202F2C192770A22E022E73
:101AA000000C330BB12F01C0BB0FAA94EAF7AB2E89
:101AB0003195219531092770332701C016952A9554
:101AC000EAF7A12A1081A12AA082C39428E0C212B9
:101AD000DECF015031960F3F79F66DA97EA9625392
:101AE000714009F0B5CF04E610E020E230E042E8B2
:101AF00051E086CF80919A04882339F10E94A42076
:101B000000919604109197042091980430919904C3
:101B1000DC01CB01801B910BA20BB30B8F3F9F4FBE
:101B2000AF4FBF4790F480919B04882371F0809160
:101B30009A04882351F062E070E083E391E00E9410
:101B4000D511892B11F410929A04D1100E941223FE
:101B50000E9438219091A603891721F00E94382114
:101B60008093A6038091CE03843009F048CE83E0B1
:101B70008093E9008091E80082FF41CE8091E800E7
:101B800085FF23C00E94751681111DC0F0E2EF2E63
:101B9000F12C8E010F5F1F4F09C08091F100D80119
:101BA0008D938D01B1E0EB1AF10869F08091E800A6
:101BB00085FDF3CF8091E8008B778093E8000E9449
:101BC0007516882399F391E001C090E08091E800B8
:101BD0008B778093E800992309F411CE0091940447
:101BE0001091950489810115110561F08E3F09F06E
:101BF000F4C28A81833008F4B6C18550833008F07E
:101C0000ECC2B1C18B3009F498C110F5853009F4EC
:101C100074C0B0F48230C1F130F4813009F0DBC21D
:101C20001A8289E079C2833009F458C0843009F0FF
:101C3000D2C24C816B818A810E9473249D83EEC243
:101C4000873009F4C8C208F0C6C20E94E623C5C2A4
:101C5000803109F4B9C060F48D3009F45BC008F438
:101C600057C08E3009F45AC08F3009F480C0B3C217
:101C7000823109F4AEC008F4AAC0833109F4D1C09E
:101C80008E3F09F470C1A7C28A81823009F4BFC2B5
:101C9000833051F0813009F09EC20E94A4209B83C2
:101CA0008C837D836E8399C280919204909193047A
:101CB000892B09F492C28091B2038B838091B30384
:101CC0008C838091B4038D838091B5038E83809142
:101CD000B6038F838091B70388877FC28A81823061
:101CE00009F079C26B817C818D819E810E94B42A2A
:101CF00086E290E00E94722A70C22D813E813227D6
:101D0000232732274C816B818A810E94B02365C2D0
:101D100080E11EC281E08A838DE6FEC10A811B81BB
:101D2000102701271027CC80D12CEDE1CE16D1044D
:101D300008F053C27201C8018D569D4F97012419B6
:101D400035092C153D0508F048C20D36F1E01F0796
:101D500030F40E94642AD70114968C9302C0F701D4
:101D600014820F5F1F4FFFEFEF1AFF0AE4CF80913D
:101D7000920490919304892B09F42FC20A811B814C
:101D8000102701271027EC80F12C2DE1E216F10439
:101D900008F023C26201C8018D569D4F9601241997
:101DA00035092E153F0508F018C20D3631E013072E
:101DB00028F4D60114966C910E94722A0F5F1F4F6F
:101DC000BFEFCB1ADB0AE7CF0E94382306C285E0BB
:101DD000BFC10A811B81102701271027CC80D12C7D
:101DE000EDE1CE16D10408F0F8C17201C801879662
:101DF0009701241935092C153D0508F0EEC1003E68
:101E0000F1E01F0730F40E94642AD70114968C93E6
:101E100002C0F70114820F5F1F4FFFEFEF1AFF0A96
:101E2000E5CF0A811B81102701271027CC80D12CF8
:101E30002DE1C216D10408F0D0C1003E31E01307F5
:101E400008F0CBC180EE91E0801B910B8C159D05B5
:101E500008F4C3C1480167E2860E911C8091920488
:101E600090919304892B11F072015EC000FF0FC0A6
:101E7000C80186960E94642A90E0982F88272D81B9
:101E8000822B81159C4531F48FEF8D8303C0E12CAB
:101E9000F12C03C0EE24E394F12CC601800F911FB6
:101EA000560180FF1BC081E0A81AB10855E0652EDD
:101EB000712C6C0E7D1E6A0C7B1CC4018C0D9D1D4B
:101EC0000E94642AD3012C9130E0322F2227282B44
:101ED00021153C4519F48FEFF3018083F201EE0DDB
:101EE000FF1D2FEFCF01841995098A159B0508F076
:101EF000BBCF848190E0982F88273581832B811573
:101F00009C4511F4248325833296ECCF003E61E09A
:101F1000160728F4D70114966C910E94722A0F5F5D
:101F20001F4FBFEFEB1AFB0AC801879697012419D0
:101F300035092C153D0550F350C1809192049091C4
:101F40009304892B09F449C1C2010E94D416EFEF12
:101F5000F1EE24E0E150F0402040E1F700C0000045
:101F60000E944B203AC1EA818E2F90E08E3091057D
:101F700008F033C1FC01EE59FF4F0C94AE2A88E003
:101F8000E4E1F1E0DE01919601900D928A95E1F78E
:101F900080E2D2011D928A95E9F784E0898388E086
:101FA000FE01B196DE011596F2C088E7898382E0D2
:101FB0008A831B821C8211C18C8190E0982F882714
:101FC0002B81820F911D092E000CAA0BBB0B35E053
:101FD000880F991FAA1FBB1F3A95D1F7AC01BD010D
:101FE000405E5F4F6F4F7F4F481759076A077B0767
:101FF00008F4F3C08837E2E09E07A105B10508F0B8
:10200000ECC04937F2E05F076105710520F048E751
:1020100052E060E070E0481B590BBC016B5C7E4FE6
:10202000C2010E944B2AD9C01B810C8140E0602F65
:10203000812F0E94802399838A8341E0602F812F22
:102040000E9480239B838C83C8C02E813F813227CE
:10205000232732274D816C818B810E944823BDC08C
:1020600040E250E06FEF70E0C2010E94C82A809108
:10207000920489830A831B821C821D8281E0CEC068
:10208000309295042092940482E390E09093B103FF
:102090008093B0030E94B0209093AF038093AE036F
:1020A0009CC0012B89F11091B20311FB882780F9A4
:1020B00018238091AE039091AF030E94952085363E
:1020C0009105E0F01123D1F00E94B0209093AF036E
:1020D0008093AE038091B0039091B10301979093E8
:1020E000B1038093B003892B79F410929504109278
:1020F0009404309293042092920406C082E390E00C
:102100009093B1038093B00380919204898380916E
:1021100094048A838091B0038B835FC010929304F0
:10212000109292045AC040E250E06FEF70E0C2019A
:102130000E94C82A52C08B81833061F0843061F1E3
:1021400081114BC080E2D2011D928A95E9F788E0A7
:102150008A8343C06C81CE0181962AE0FC011192F2
:102160002A95E9F7683060F4FAE06F9FB001112416
:102170006D5B7D4F4AE050E00E94542A80E001C030
:102180008FEF89838AE0FE01B196DE0112960190FD
:102190000D928A95E1F721C06C818AE0FE013596A7
:1021A000DE01919601900D928A95E1F7683070F406
:1021B0002AE0629FB00111246D5B7D4F4AE050E040
:1021C000CE0181960E94962A80E001C08FEF89831C
:1021D0000E94B42402C08FEF8983C2010E94D416EA
:1021E0000ECB09BD19BD09B400FEFDCF8091D8000A
:1021F0008F7D8093D8008091E00082608093E00022
:102200008091E00081FDFCCF0E94B119FFCA86E2F7
:1022100090E00E94642A1B821C821D828E83DDCF87
:102220008091C60387FF11C08091E80082FD05C040
:102230008091CE038111F8CF11C08091E8008B7797
:102240000BC08091CE03882349F08091E80080FF85
:10225000F8CF8091E8008E778093E8000895982F5A
:10226000973068F59093E900981739F07091EC0079
:102270002091ED005091F00003C0242F762F50E004
:1022800021FD02C09F5FECCF3091EB003E7F309389
:10229000EB003091ED003D7F3093ED003091EB008D
:1022A00031603093EB007093EC002093ED0050937D
:1022B000F0002091EE0027FDE5CF80E008958F70BB
:1022C0008093E90081E008952091CC033091CD0303
:1022D0002617370748F06115710539F42091E80099
:1022E0002E772093E80001C0B901FC0120E06115C0
:1022F000710579F18091CE038823F1F18530F1F1F8
:102300008091E80083FD3CC08091E80082FD2EC0F2
:102310008091E80080FFEBCF2091F3008091F200E4
:1023200090E0922B6115710551F08830910538F4D9
:1023300021912093F100615071090196F3CF21E0C2
:10234000089709F020E08091E8008E778093E800FC
:10235000CECF2111CFCF0AC08091CE03882361F068
:10236000853061F08091E80083FD0AC08091E8002B
:1023700082FFF2CF80E0089582E0089583E008951F
:1023800081E00895BC0184E00C942120BC0183E02D
:102390000C9421208091CF03982F9670963011F4E1
:1023A000886001C0877F0C949219EF92FF920F937F
:1023B0001F93CF93DF93EC017B0164E670E088E725
:1023C0000E942E298C01EC0EFD1ECE15DF0561F05A
:1023D00017FD0AC0FE01849164E670E00E94AF29F7
:1023E0008C012196892B89F30E94332AC801DF9141
:1023F000CF911F910F91FF90EF9008951F93CF936E
:10240000DF93CDB7DEB7AA970FB6F894DEBF0FBE45
:10241000CDBFE6ECF3E08091F100819343E0EE3C28
:10242000F407C9F78091C703833009F462C030F420
:10243000813071F0823009F49CC0B3C08A3009F455
:1024400088C08B3009F46DC0893009F0AAC020C063
:102450008091C603813A09F0A4C08091E800877F8B
:102460008093E8008091CA039091CB03892B21F4DB
:1024700068E08BEB93E003C060E080E090E070E008
:102480000E9464118091E8008B778093E80089C0F6
:102490008091C603813209F084C08091CA03909173
:1024A000CB03009719F0029709F07BC08091E800F8
:1024B000877F8093E8008091E80082FD05C08091CD
:1024C000CE038111F8CF6DC02091F3008091F2000E
:1024D00090E0922B029729F48091F1008B7F81305C
:1024E00021F48091F1008093BA038091E8008B770A
:1024F00054C08091C603813A09F053C08091CA0349
:102500009091CB03892B09F04CC08091E800877F24
:102510008093E8008091E80080FFFCCF8091120159
:1025200037C08091C6038132E1F58091CA03909152
:10253000CB03892BB1F58091E800877F8093E80079
:102540000E9410118091C803809312010E94B1195A
:1025500028C08091C603813221F58091E800877FF1
:102560008093E8000E9410118091C9038093B90301
:1025700018C08091C603813AA1F48091E800877F5A
:102580008093E8008091E80080FFFCCF8091B90340
:102590008093F1008091E8008E778093E8000E949C
:1025A00010118091E80083FFE9C18091C6039091EA
:1025B000C703492F50E04A30510508F0DFC1FA0146
:1025C000E059FF4F0C94AE2A803821F0823809F090
:1025D000D5C108C08091C3039091C403992389F0A9
:1025E00082600FC08091CA038F70873008F0C6C127
:1025F0008093E9008091EB0085FB882780F9109299
:10260000E9009091E800977F9093E8008093F100B3
:102610001092F1007CC1282F2D7F09F0AFC18823D3
:1026200019F0823061F0AAC18091C803813009F0AD
:10263000A5C1933009F080E08093C4032EC080913F
:10264000C80381112AC08091CA038F702FEF280F11
:10265000263008F093C18093E9002091EB0020FF21
:102660001CC0933021F48091EB00806214C09091E3
:10267000EB0090619093EB0021E030E0A90102C0F3
:10268000440F551F8A95E2F74093EA001092EA0042
:102690008091EB0088608093EB001092E9008091BC
:1026A000E800877F8093E8000E94101167C18111C4
:1026B00065C11091C8031F778091E3008078812B5A
:1026C0008093E3008091E800877F8093E8000E9478
:1026D00010118091E80080FFFCCF8091E3008068BA
:1026E0008093E300111102C082E001C083E0809377
:1026F000CE0344C18058823008F040C12091C80305
:102700003091C9032C3D53E0350779F583E08A8386
:102710008AE289834FB7F894DE01139620E03EE009
:1027200051E2E32FF0E050935700E49120FF03C003
:10273000E295EF703F5FEF708E2F90E0EA3010F07F
:10274000C79601C0C0968D939D932F5F243149F7A2
:102750004FBF8091E800877F8093E8006AE270E0D5
:10276000CE0101960E946411C0C08091CA0390916D
:10277000CB03432F552743305105B1F068F4413066
:10278000510509F40AC14230510509F0F7C08BE543
:1027900090E0E1E4F4E057C04132510589F1423262
:1027A000510509F43CC0EAC0C9019927813091055F
:1027B000B9F070F082309105D9F0039709F0DEC0CE
:1027C000EEEAF4E0E4918E2F90E0EEEAF4E038C017
:1027D000ECE1F5E0E4918E2F90E0ECE1F5E030C023
:1027E000E0E0F5E0E4918E2F90E0E0E0F5E028C035
:1027F000ECECF4E0E4918E2F90E0ECECF4E020C0FF
:102800008330910508F0BAC0880F991FFC01E55C80
:10281000FE4F0190F081E02D89E090E014C08330FC
:10282000910508F0ABC0FC01EE0FFF1FEB5CFE4F03
:102830000190F081E02DDC01AE5CBE4F8C9190E008
:10284000009709F49BC02091E800277F2093E800BF
:102850002091CC033091CD032817390708F4C90122
:1028600040E0009789F12091CE03222309F43DC076
:102870002530D9F12091E80023FD37C02091E800F0
:1028800022FD2FC02091E80020FFEBCF4091F30004
:102890002091F20030E0342B009759F028303105B8
:1028A00040F444914093F100319601972F5F3F4FE0
:1028B000F3CF41E02830310509F040E02091E800F5
:1028C0002E772093E800CDCF4111CDCF0AC0809163
:1028D000CE03882351F0853041F08091E80083FDDC
:1028E00004C08091E80082FFF2CF8091E8008B77EE
:1028F0008093E80043C0803809F040C08091E80030
:10290000877F8093E8008091C5038093F1008091D8
:10291000E8008E77C7CE811131C08091C8039091B5
:10292000C9039927029754F58091E800877F809327
:10293000E8001091C8031093C5030E9410111111F3
:1029400006C08091E30087FD02C081E001C084E001
:102950008093CE0342E061EC81E00E942F1142E2BD
:1029600061EC84E00E942F1142E261EC82E00E945F
:102970002F1142E260EC83E00E942F118091E80069
:1029800083FF10C08091E800877F8093E8008091EA
:10299000EB0080628093EB0005C082E190E0ECE9FF
:1029A000F4E051CFAA960FB6F894DEBF0FBECDBFAC
:1029B000DF91CF911F9108951F920F920FB60F9242
:1029C00011242F933F934F935F936F937F938F9334
:1029D0009F93AF93BF93CF93DF93EF93FF93C091F8
:1029E000E900CF708091EC00D82FD17080FDD0E845
:1029F0001092E9008091F000877F8093F000789436
:102A00000E94FE111092E9008091F000886080938E
:102A1000F000CD2BCF70C093E900FF91EF91DF91D3
:102A2000CF91BF91AF919F918F917F916F915F9166
:102A30004F913F912F910F900FBE0F901F901895BF
:102A4000E8EDF0E080818E7F80831092E2001092AA
:102A5000DA001092E100A0EEB0E08C9181608C93DE
:102A600080818F77808319BCA7EDB0E08C918E7F39
:102A70008C9380818F7E80831092B8030895CF92CB
:102A8000DF92EF92FF920F931F93CF93DF93C8EDE6
:102A9000D0E088818F7E8883E7EDF0E080818160DF
:102AA000808384E082BF81E08093B80388818E7F39
:102AB000888302EE10E0F80110821092DA0081EEB5
:102AC000C82ED12CF601108288818F778883888167
:102AD0008068888388818F7D888319BC1092CE039B
:102AE0001092C5031092C4031092C30390EEE92E16
:102AF000F12CF70180818B7F8083888181608883BE
:102B000042E060E080E00E942F11F60180818E7F1C
:102B10008083F801808181608083808188608083E8
:102B2000F70180818E7F8083888180618883DF9137
:102B3000CF911F910F91FF90EF90DF90CF9008956C
:102B40001F920F920FB60F9211242F933F934F9322
:102B50005F936F937F938F939F93AF93BF93EF9305
:102B6000FF938091E10082FF09C08091E20082FF23
:102B700005C08091E1008B7F8093E1008091DA00B5
:102B800080FF2AC08091D80080FF26C08091DA00A3
:102B90008E7F8093DA008091D90080FF18C080E199
:102BA00089BD82E189BD09B400FEFDCF81E080933B
:102BB000CE038091B80381110FC00E9420150E949E
:102BC0003F158091E20084608093E20005C019BC4B
:102BD0001092CE031092B8038091E10080FF17C0DD
:102BE0008091E20080FF13C08091E2008E7F80938D
:102BF000E2008091E20080618093E2008091D80041
:102C000080628093D80019BC85E08093CE038091C8
:102C1000E10084FF2EC08091E20084FF2AC080E1A1
:102C200089BD82E189BD09B400FEFDCF8091D80045
:102C30008F7D8093D8008091E1008F7E8093E100AA
:102C40008091E2008F7E8093E2008091E2008160BB
:102C50008093E2008091C503882311F084E007C0CF
:102C60008091E30087FD02C081E001C083E0809392
:102C7000CE038091E10083FF27C08091E20083FFB3
:102C800023C08091E100877F8093E10082E0809300
:102C9000CE031092C5038091E1008E7F8093E10006
:102CA0008091E2008E7F8093E2008091E20080615B
:102CB0008093E20042E060E080E00E942F1180916A
:102CC000F00088608093F000FF91EF91BF91AF9189
:102CD0009F918F917F916F915F914F913F912F9134
:102CE0000F900FBE0F901F9018952091E400309127
:102CF000E50095E64091EC00842F817040FF23C0F1
:102D00008091E80080FD1DC08091CE03882399F05A
:102D1000853099F08091EB0085FD11C04091E40071
:102D20005091E5002417350729F3915011F09A01CD
:102D3000E1CF84E0089582E0089583E0089581E082
:102D4000089580E008954091E80042FFDDCF0895A6
:102D5000EF92FF920F931F93CF93DF937C018B0130
:102D60000E947516811119C0E70101151105A1F026
:102D70008091E80085FD0AC08091E8008E778093FD
:102D8000E8000E947516882381F307C0899180931B
:102D9000F10001501109E9CF80E0DF91CF911F913F
:102DA0000F91FF90EF900895CF932091CE032430A0
:102DB000F9F4C091E900CF703091EC00232F21701D
:102DC00030FD20E8C22B22E02093E9002091E800AA
:102DD00020FF0BC040E050E060E270E00E94A816C7
:102DE0008091E8008E778093E800CF70C093E9006F
:102DF000CF91089580E090E00E94222180E090E051
:102E00000E940C2110923904109238040C949E1FD9
:102E1000CF92DF92FF920F931F93CF93DF936C01BA
:102E20000091CF0380913E04082BC7E0D0E010E072
:102E3000C8010C2E02C0959587950A94E2F780FD93
:102E400004C02197A8F7F12C09C0FC2EB6018C2FE5
:102E50000E94A1240E94D31B019799F38F2DDF912B
:102E6000CF911F910F91FF90DF90CF900895CF9356
:102E7000DF93EC010E940817BE010E94A1240E946A
:102E8000D31BDF91CF910895FC0186819781009734
:102E900019F00E94D31B04C0808191810E943717D2
:102EA000292F2F70E92FE295EF704E2F50E0FA0195
:102EB0003297EE30F105B8F4E658FF4F0C94AE2A85
:102EC000803F99F018F4883E70F40FC0843F59F4A5
:102ED0000CC0883E50F0813F31F407C0822F8695A8
:102EE00086958695089580E0089581E008959F92E3
:102EF000AF92BF92CF92DF92EF92FF920F931F9308
:102F0000CF93DF93CDB7DEB765970FB6F894DEBFEA
:102F10000FBECDBF8C0185E0F801DE015196019016
:102F20000D928A95E1F7F801E2809091EA036091B1
:102F3000EB034091ED035091EE034115510531F043
:102F40006F3F31F481E09F3F19F403C081E001C07D
:102F500080E0F82FF1709F2E80FD37C1F80130819D
:102F60002181C380D4807AEEA72E73E0B72EF09033
:102F7000EC03F601E41BF50BFF2009F4F5C080918A
:102F8000EF03E83CF10508F0B0C0482F407F09F09E
:102F90005AC062131BC0931319C06091F003709163
:102FA000F103F801468157816417750779F4FE2C07
:102FB000E1100CC08F7080618093EF03C5010E9407
:102FC00022048091EF03F80185833CC1CD2831F0C4
:102FD0002F3F31F481E03F3F19F403C081E001C08D
:102FE00080E080FD03C081E08E2502C080E090E09B
:102FF000F82FF170FF2E80FF1CC0809133044091A8
:10300000F203841709F4FCC090E0FC0153E0EE0FDA
:10301000FF1F5A95E1F7ED50FC4F5181251306C073
:103020005081531303C05281E51203C0019687708B
:10303000E8CFFE2CEE2009F405C18091EF038160FA
:103040008093EF035EC0621315C0931313C04091C9
:10305000F0035091F103F80126813781421753079D
:1030600049F4E11007C08583C8010E94220488E06A
:10307000F80190C0C8010E944417882381F1EE2016
:1030800071F12091EF03822F82958F7090E002976B
:10309000A4F08091EA039091EB039A8789871B86BD
:1030A000DD86CC862E878091F0039091F103988B7A
:1030B0008F87CE0109960E94220488E0F801AAEECB
:1030C000B3E001900D928A95E1F70E94371E0AC085
:1030D0006217C9F0C8010E944417811127C0C801B6
:1030E0000E942204FF24F394ADC0482F407F81F753
:1030F0008AEE93E00E94220488E0F50111928A95FD
:10310000E9F7F12C9FC09313E5CF4091F003509164
:10311000F103F8012681378142175307D9F6E110F0
:10312000D9CF8583C8010E94220449C0EE20B9F29C
:103130002091EF03822F82958F7090E002970CF41C
:10314000BCCF8091EA039091EB039A8389831B8221
:10315000DD82CC822E838091F0039091F1039887D9
:103160008F83CE010196A7CFE83CF10540F5FE2CF8
:10317000EE2009F4B4CF621314C0931312C020914F
:10318000F0033091F103F801868197812817390700
:1031900041F488E0AAEEB3E001900D928A95E1F740
:1031A00051C0C8010E944417811187CF8091EF035D
:1031B00081608093EF03C8010E94220443C088E02D
:1031C000F50111928A95E9F73DC0EE2009F487CF09
:1031D000C8010E944417F82E882309F480CF88E0A4
:1031E000F801AAEEB3E001900D928A95E1F7809183
:1031F000EA039091EB030E9437170E94371E22C00A
:10320000398B2A8B89899A890E943717292F229511
:103210002F70223028F49F7039F0811105C00BC047
:10322000243028F49F7049F4805E883020F0C80173
:103230000E9422049F2CF92C05C0F8019581907FF3
:1032400099F7F9CF8F2D65960FB6F894DEBF0FBEB4
:10325000CDBFDF91CF911F910F91FF90EF90DF9045
:10326000CF90BF90AF909F9008959E3F61F128E06E
:10327000929F800D1124682F669566956695982F0C
:10328000977083E0689FB001112440E050E080E037
:10329000FB01E40FF51FE053FC4F208130E0092EC5
:1032A00002C0369527950A94E2F721703327042E41
:1032B00001C0220F0A94EAF7822B4F5F5F4F433021
:1032C000510531F7089580E008959E3F51F128E0BF
:1032D000929F800D1124E82FE695E695E69587707C
:1032E00051E001C0550F8A95EAF783E0E89FF001AD
:1032F0001124E053FC4F20E030E070E04081CB012E
:10330000022E02C0969587950A94E2F78170819506
:1033100084278523842781932F5F3F4F23303105F6
:1033200069F708958093CF030C94FA1621E030E0FA
:1033300001C0220F8A95EAF720958091CF0382235E
:103340000C94921921E030E001C0220F8A95EAF72F
:103350008091CF03822B0C94921980933E040C949D
:10336000FA1610923A0486E0E4EEF3E0DF011D92D3
:103370008A95E9F70C94FA16CF93DF93CDB7DEB7B1
:1033800060970FB6F894DEBF0FBECDBF29873A878E
:103390004B875C876D877E878F87988BCE010996D8
:1033A0000E947717811151C088E0FE013996DE0135
:1033B000119601900D928A95E1F779856A854C8581
:1033C0005D854115510531F06F3F31F481E07F3F5C
:1033D00019F403C081E001C080E080FD36C0A091F7
:1033E000F203B0E0CD010196877099272091330454
:1033F00030E08217930781F179836A835D834C8380
:1034000093E0AA0FBB1F9A95E1F7AD50BC4F98E02F
:10341000FE01319601900D929A95E1F78093F203A7
:103420000E942D1E12C028E0829FC00111248D50E1
:103430009C4F0E9477178823E1F08091330490E03D
:10344000019687709927809333048091330490917B
:10345000F2038913E8CF0DC00E94B1191092F20354
:1034600010923304EAEEF3E088E0DF011D928A95C2
:10347000E9F760960FB6F894DEBF0FBECDBFDF91BF
:10348000CF910895882341F0809590913904892344
:10349000809339040C949E1F0895882339F09091ED
:1034A0003904892B809339040C949E1F0895882336
:1034B00021F00E94E21D0C949E1F0895882339F08C
:1034C00090913A04892B80933A040C949E1F08959E
:1034D000882309F453C0682F823869F40E94382188
:1034E00081FF4CC069E382EE93E00E94F2200E94CB
:1034F0009E1F69E30EC0833891F40E94382180FF3B
:103500003DC063E582EE93E00E94F2200E949E1F80
:1035100063E582EE93E00E94E5200C949E1F8438C0
:1035200069F40E94382182FF29C067E482EE93E0AB
:103530000E94F2200E949E1F67E4EBCF8CEF860F63
:10354000813A38F380E2860F883048F4677081E072
:1035500001C0880F6A95EAF70E94E21DDECF8BE575
:10356000860F833020F480E090E00C942221685A8A
:10357000673120F480E090E00C940C210895CF9303
:10358000882309F496C0C82F8238B1F40E943821EC
:1035900081FD8FC069E382EE93E00E94F2200E94D9
:1035A0009E1F2FEF81EE94E0215080409040E1F784
:1035B00000C0000069E317C08338E1F40E9438219D
:1035C00080FD77C063E582EE93E00E94F2200E94C6
:1035D0009E1F2FEF81EE94E0215080409040E1F754
:1035E00000C0000063E582EE93E00E94E520CF91E9
:1035F0000C949E1F8438B1F40E94382182FD59C07A
:1036000067E482EE93E00E94F2200E949E1F2FEF5B
:1036100081EE94E0215080409040E1F700C000002E
:1036200067E4E1CF8CEF8C0F813A80F4E4EEF3E0B5
:103630008AEE93E02191C217A1F18E179F07D1F76F
:103640006C2F82EE93E00E94F220D1CF80E28C0FAB
:10365000883068F4C77081E090E001C0880FCA9597
:10366000EAF790913A04892B80933A04C0CFEBE5B6
:10367000EC0FE33040F4F0E0EF5BFE4F808190E030
:10368000CF910C942221C85AC73198F4EC2FF0E066
:10369000EE0FFF1FEC5BFE4F80819181CF910C9468
:1036A0000C216C2F82EE93E00E94E5200E949E1F69
:1036B000C7CFCF9108951F93CF93DF93182F8933EE
:1036C00019F0C9E1D0E002C0C0E5D0E0812F0E942E
:1036D000BF1A8FE99FE00197F1F700C00000219722
:1036E000C1F7812FDF91CF911F910C94681A80E070
:1036F00008959091790192FF0DC0282F28712830EC
:1037000019F4877F846006C0282F2471243011F4B7
:103710008B7F886093FF0DC0282F2871283119F402
:10372000877E846106C0282F2471243111F48B7E9A
:10373000886120917A0120FF0DC0382F3871383010
:1037400019F4877F816006C0382F3171313011F450
:103750008E7F886021FF0DC0282F2871283119F431
:10376000877E816106C0282F2171213111F48E7E60
:10377000886194FD877E0895F894E82FE295EF70B4
:10378000F0E031A1282F2F7081E090E001C0880F78
:103790002A95EAF7982F9095932391A392A1892BCC
:1037A00082A378940895CF93DF938238910569F1CD
:1037B000B0F48133910509F46FC048F48932910562
:1037C00009F465C08A32910509F46BC08AC085335B
:1037D000910509F457C089339105B9F082C0833E41
:1037E000910571F138F4803E9105B1F0823E91056A
:1037F00011F177C0863E9105B9F1873E9105C9F177
:10380000843E910509F06DC024C02091790120FD0E
:1038100053C021FD51C065C08091790180FD46C033
:1038200080917A0180FF48C08091790184FD3FC179
:1038300083EE90E03EC18091790182FF3AC0F4CFDF
:103840008091790182FD35C080917A0180FD34C07C
:10385000EBCF80917A0181FF35C08091790184FDA1
:1038600026C187EE90E025C18091790183FF27C0B2
:10387000F4CF8091790183FD22C080917A0181FD8E
:1038800021C0EBCF8091790185FD1FC021C08091BF
:10389000790185FD1DC019C08091790186FD1BC08D
:1038A0001DC08091790186FD19C015C089E390E0A3
:1038B00000C182EE90E0FDC080EE90E0FAC086EE9E
:1038C00090E0F7C084EE90E0F4C089E290E0F1C0AF
:1038D00085E390E0EEC08AE290E0EBC081E390E007
:1038E000E8C0811532E5930708F069C0811541E50C
:1038F000940728F0982F8827816F906ADAC0883E55
:10390000910568F5803E910508F0D3C0883A91058D
:10391000B8F4853A910548F0855AE82FF0E0EF5B5E
:10392000FE4F808190E09064C4C08130910509F41D
:10393000BBC008F4BCC08430910508F4B8C0B9C05D
:103940008F3B910508F0B3C0885AE82FF0E0EE0FE6
:10395000FF1FEC5BFE4F808191819464AAC08115AA
:1039600020E59207F0F09C0174E0369527957A9552
:10397000E1F7922F9370482F437021E030E002C0AE
:10398000220F331F4A95E2F73C68392B8F70982F2E
:103990009695969540E2949FC0011124822B932B1B
:1039A00088C0811530E4930718F09F70906A81C039
:1039B0009C013A9521153F4108F47BC078C0EC0189
:1039C000C11586E5D807E8F5C11525E5D20748F009
:1039D0008C2F0E94791B8F7190E0982F882790621E
:1039E00068C0C11534E5D30728F09C2F8827846F61
:1039F000906A5FC0AE01437055272C2F26952695FF
:103A0000C115D34578F481E090E002C0880F991F7A
:103A10004A95E2F740E2249F90011124822B932BD8
:103A20009C6847C081E090E002C0880F991F4A95CA
:103A3000E2F740E2249F90011124822B932B9A6895
:103A400038C0C1152AE5D207F8F4C11539E5D30706
:103A500090F08C2F8F700E94791B94E0D695C795BB
:103A60009A95E1F7CF70D0E0DC2FCC27D0699E018A
:103A7000282BC9011EC0C11548E5D407C0F09C2FF2
:103A80008827806F906A15C0CE01905681159042AC
:103A900070F48D2F8F710E94791B282F2F71CE010A
:103AA00099279062922B05C081E090E002C080E0EF
:103AB00090E0DF91CF910895CF9384E090E00E9451
:103AC000642AC82F82E290E00E94642A2C2F30E002
:103AD000A901582BCA01CF9108956AEE7EEF80E0CC
:103AE00090E00E94902A60E082E090E00E94722ABA
:103AF00060E083E090E00E94722A10923E0460E051
:103B000084E090E00E94722A60E082E290E00E94ED
:103B1000722A60E085E090E00E94722A60E086E010
:103B200090E00E94722A6FEF87E090E00E94722A74
:103B300040E050E0BA0188E090E00E94842A60E012
:103B40008DE090E00E94722A40E050E0BA0188E1E6
:103B500090E00E94842A60E087E190E00E94722A4F
:103B600040E050E0BA018CE190E00E94842A60E0DD
:103B700070E080E290E00E94902A40E050E0BA01BC
:103B800088E190E00E94842A80E00E94E2280E945E
:103B9000002940E050E0BA018FE090E00E94842AC2
:103BA00040E050E0BA0183E190E00C94842A8091D7
:103BB0003D04882331F010923D0410923C04109291
:103BC0003B040895809590913A04892380933A04A8
:103BD0000895CF93C0917A01C2FB992790F9981765
:103BE00081F080FBC2F9C0937A016091790184E091
:103BF00090E00E94722A6C2F82E290E0CF910C94A8
:103C0000722ACF91089510923704109236041092C0
:103C100035040895209137048095822380933704DA
:103C2000982F977041F430E0482F082E000C550B68
:103C30002417350721F490917A0192FF07C08595EA
:103C4000859585950E9496190C94031E0895809180
:103C500034048111109234040895809133049091BA
:103C6000F203891719F08F5F8770FBCF08951F93B8
:103C7000CF93DF938091EF0382958F7009F05CC042
:103C80008091EC03882309F457C08091330410918C
:103C9000F2036091EA037091EB03C091ED03D091C0
:103CA000EE0391E06F3F09F090E0292F811709F4AE
:103CB00043C0209721F07F3F21F030E003C031E086
:103CC00001C0322F90E030FD34C0FC0133E0EE0F34
:103CD000FF1F3A95E1F7DF01AD50BC4F11963C91C3
:103CE0001197371326C03C91361323C012963C918E
:103CF000129731111EC013964D915C9114974C1B75
:103D00005D0B483C5105A8F48091EF038F708061F2
:103D10008093EF03E850FC4F80818F708061808337
:103D20008AEE93E00E942204DF91CF911F910C94C0
:103D30002D1E01968770BACFDF91CF911F91089504
:103D40009F92AF92BF92CF92DF92EF92FF920F932A
:103D50001F93CF93DF9300D000D000D0CDB7DEB754
:103D6000AE014F5F5F4F7A0186E0FA0111928A95AA
:103D7000E9F70CE111E05A01CC24C394D12CF801ED
:103D800080818F3F09F447C0F894E82FE295EF70E7
:103D9000F0E021A18F70A60102C0440F551F8A9543
:103DA000E2F7CA01922F982B91A392A180958923C3
:103DB00082A3789400C0E2E2F1E020E030E0912CB0
:103DC00041914F3FB1F0A42FA295AF70B0E0909613
:103DD0008C9190E04F7002C0959587954A95E2F7D7
:103DE00080FD07C08C2D022E01C0880F0A94EAF7CF
:103DF00001C080E0982A2F5F3F4F2830310501F73E
:103E0000F80180818F3F11F00E94BC1BF0EAFA9507
:103E1000F1F7F50190820F5F1F4FFFEFAF1ABF0A56
:103E200041E00232140709F0AACF46E050E0B701A2
:103E30008BE791E00E94BB2A11E0009709F410E0A3
:103E4000892B89F086E0F701ABE7B1E001900D9294
:103E50008A95E1F781E0809341040E94B02090931D
:103E6000400480933F04809141048823A1F0809115
:103E70003F04909140040E949520059760F0EBE785
:103E8000F1E0A2EBB3E081918D9351E0E138F507C9
:103E9000D1F71092410480911301882341F1809160
:103EA000450590914605009711F10E9495202091BB
:103EB0009F043091A00428173907C8F49091430556
:103EC00080914405981759F00E94F0211092A004A7
:103ED00010929F04109246051092450508C00E945A
:103EE000722110924605109245050E94D121812F22
:103EF00026960FB6F894DEBF0FBECDBFDF91CF91EF
:103F00001F910F91FF90EF90DF90CF90BF90AF90F7
:103F10009F900895CF9390917A0192FD0DC090915A
:103F20003D04981749F0C82F0E94B02090933C049C
:103F300080933B04C0933D04CF91089590913A043F
:103F400080913904892B90913804892B8093E20366
:103F500080913D04882311F10E94B02020913B0400
:103F600030913C04821B930B8838934110F00E94DF
:103F7000D71D9091E20380913D04892B8093E20349
:103F8000E4EEF3E097E080E0915029F021912223C4
:103F9000D9F38F5FF9CF81110E94D71DE0914905B8
:103FA000F0914A05309731F00280F381E02D82EEE6
:103FB00093E00994089590917A0192FD10C098E0E1
:103FC000899F90011124262B209337040E94A21967
:103FD0000E94B020909336048093350408950C9489
:103FE000A21908958091BA030895CF93DF9321E039
:103FF0002093E9002FEF3091E800215035FD06C0F5
:1040000035ED3A95F1F700002111F5CF2091E80048
:1040100025FF14C0EC0140E050E068E070E00E9431
:10402000A8168091E8008E778093E80088E0FE0172
:10403000ABEBB3E001900D928A95E1F7DF91CF9160
:1040400008959091CE03943029F580935205709392
:104050005405609353059093E9008FEF9091E80029
:10406000815095FD06C095ED9A95F1F700008111FC
:10407000F5CF8091E80085FF0DC040E050E063E09F
:1040800070E082E595E00E94A8168091E8008E77A6
:104090008093E800089581E08093E00080E28093BF
:1040A000D8001092C9008FE19EE40197F1F700C09B
:1040B000000087E090EBDC01809355059093560556
:1040C000A0935705B09358059CE088E10FB6F8948B
:1040D000A895809360000FBE90936000FFCF789406
:1040E0001F920F920FB60F9211248F939F93AF934D
:1040F000BF9380914E0590914F05A0915005B091CE
:1041000051050196A11DB11D80934E0590934F0559
:10411000A0935005B0935105BF91AF919F918F919E
:104120000F900FBE0F901F9018959C014FB7F894F9
:1041300080914E0590914F05A0915005B091510589
:104140004FBF821B930B08952FB7F89460914E05D3
:1041500070914F0580915005909151052FBF0895A2
:104160002FB7F89480914E0590914F05A09150057E
:10417000B09151052FBF08951F920F920FB60F9265
:1041800011248F939F93AF93BF9380914D0581111D
:1041900013C080914E0590914F05A0915005B091AC
:1041A00051054196A11DB11D80934E0590934F0579
:1041B000A0935005B0935105BF91AF919F918F91FE
:1041C0000F900FBE0F901F9018959C012A5F3F4FD4
:1041D000FC014281461301C01282019682179307A7
:1041E000B9F708959C01FC0132969FEF80E0419160
:1041F000461789F09F3F19F4411101C0982F8F5F36
:104200008630A9F79F3F39F0F901E90FF11D97FDBD
:10421000FA9562830895089520914B0530914C05DD
:104220002817390771F090934C0580934B05E09166
:104230004905F0914A05309721F00084F185E02D81
:1042400009940895209147053091480528173907AA
:1042500071F09093480580934705E0914905F091EE
:104260004A05309721F00680F781E02D09940895E2
:10427000E0914905F0914A05309721F00190F081D5
:10428000E02D099480E00895BC01409143058091A0
:104290004405942F981729F1292F30E0F901EE0FEA
:1042A000FF1FE55CFA4F0190F081E02DE617F7075C
:1042B00099F487E0869FF001879FF00D1124ED5F50
:1042C000FA4F81E0848394130CC02F5F3F4F23701B
:1042D00033272093430508952F5F3F4F922F93700C
:1042E000D9CF08950F931F93CF93DF938091A204AA
:1042F000882309F451C0C091A1041CE08091A2045C
:10430000C81708F045C001E00C0F0093A104D0E0ED
:104310001C9FF0011D9FF00D1124ED55FB4F908166
:10432000818123813481232B31F08F3F31F481E06F
:104330009F3F19F403C081E001C080E080FD26C0EA
:104340001C9FD0011D9FB00D1124AD55BB4F16967B
:104350008D919C911797892B31F418968D919C9192
:104360001997019651F420813181428153816481F2
:104370007581868197810E94BC191C9FF0011D9F49
:10438000F00D1124ED55FB4F14821382C02FB6CFD0
:104390001092A2041092A104DF91CF911F910F916E
:1043A00008951092A00410929F04E3E0F5E0858147
:1043B000811102C014821682379685E0EB33F8072C
:1043C000B1F7089510924605109245051092130119
:1043D00080914405809343050E94D1210C94722161
:1043E0003F924F925F926F927F928F929F92AF9285
:1043F000BF92CF92DF92EF92FF920F931F93CF93D2
:10440000DF93C091430597E0892E01E010E02CE096
:10441000322E3EEF932E4424439480914405C817D6
:1044200009F478C0D0E0FE01EE0FFF1FE55CFA4F03
:1044300080819181889ED001899EB00D1124AD5F4D
:10444000BA4F14962C911497211161C05090A20478
:10445000E3EAF4E020E030E0712C5D01251508F07E
:1044600054C0E284F384D501CD90DC906FEF7FEFF0
:10447000612C462D50E0DA01AA0FBB1FAC0DBD1D0B
:104480000D90BC91A02D109731F0EA16FB0609F4AF
:10449000BA016394EECF6F3FBFEF7B0791F1D80174
:1044A00002C0AA0FBB1F6A95E2F77A2AB80102C0C0
:1044B000660F771F6A94E2F7AB0141505109672DEF
:1044C00070E046175707D9F4329EF001339EF00D85
:1044D0001124ED55FB4F889ED001899EB00D11240B
:1044E000AD5FBA4F12962D913C9113973783268377
:1044F000908291829187808715964C9206C0148293
:1045000013822F5F3F4F3C96A9CF0E9444212196F2
:10451000C37083CF0E947221DF91CF911F910F91C1
:10452000FF90EF90DF90CF90BF90AF909F908F90D3
:104530007F906F905F904F903F900C94D1210F939C
:104540001F93CF93DF93C42FD22FFC018281882346
:10455000C9F040939E040E94B02090939D048093E4
:104560009C0480E28C0F883008F057C0C77081E04F
:1045700001C0880FCA95EAF7DF91CF911F910F9183
:104580000C945E1A80919E04481330C080919C0464
:1045900090919D040E949520883C910538F510E289
:1045A0001D0FCD17B9F080E28C0F883040F4C77032
:1045B00081E001C0880FCA95EAF70E94571A1830A7
:1045C00028F581E09D2F977001C0880F9A95EAF732
:1045D0000E945E1A802F0E945B1B1830F0F4D77087
:1045E00081E001C0880FDA95EAF70AC080E28C0FFB
:1045F000883098F4C77081E001C0880FCA95EAF747
:10460000DF91CF911F910F910C94571A802FDF915A
:10461000CF911F910F910C945B1BDF91CF911F9154
:104620000F91089580919B048823F9F00E94A420A3
:10463000DC01CB01805A9541AF4FBF4F8093960468
:1046400090939704A0939804B093990480919A044E
:1046500081110BC062E070E080E097E00E94D5110C
:10466000892B19F481E080939A0480919A0408952B
:10467000CF93DF93C3E9D2E060E0CE010E94722ABB
:104680002196C11584E0D807B9F7DF91CF9108953D
:104690000F931F93CF93DF93853068F5633058F500
:1046A000423048F521159CE5390731F4E091920438
:1046B000F0919304EF2BF9F08901282F34E0639FE8
:1046C000C00111243CE0239F800D911D1124840F13
:1046D000911D840F911DEC01C95FDD4F612FCE014B
:1046E0000E94722A602FCE010196DF91CF911F9117
:1046F0000F910C94722ADF91CF911F910F91089521
:104700000F931F93CF93DF93853018F5633008F52F
:104710004230F8F4282F34E0639FC00111243CE0BC
:10472000239F800D911D1124840F911D840F911DD5
:10473000EC01C95FDD4FCE010E94642A90E0182F82
:104740000027CE0101960E94642A9801282BC901F6
:1047500002C080E090E0DF91CF911F910F9108950A
:104760000F931F93CF93DF93853058F5663048F54C
:10477000483038F521159CE5390731F4E091920471
:10478000F0919304EF2BE9F08901C42FD0E0CC0F16
:10479000DD1F90E1699FC00DD11D112490E6899F16
:1047A000C00DD11D1124612FCE0187960E94722A5F
:1047B000602FCE018896DF91CF911F910F910C94BD
:1047C000722ADF91CF911F910F9108956F927F927E
:1047D0008F929F92AF92BF92CF92DF92EF92FF9211
:1047E0000F931F93CF93DF93CDB7DEB72A970FB602
:1047F000F894DEBF0FBECDBFA0909204B09093049A
:1048000081E090E09093930480939204C12CD12C8A
:10481000712C612CE12CF12C00E010E047018C0C94
:104820009D1CF401E00FF11FEE0FFF1FE05EFA4F39
:1048300025913491402F662D872D0E94B0230F5F64
:104840001F4F0830110569F788E0E80EF11C6394EA
:1048500096E06912E1CF10E021E030E040E0612F06
:10486000872D0E94482321E030E041E0612F872D11
:104870000E9448231F5F133079F77394E0E3CE0E54
:10488000D11CF5E07F12C5CFCE0101967C018AE0F4
:10489000F70111928A95E9F703E412E04AE050E04B
:1048A000B801C7010E94962A065F1F4F0339F2E044
:1048B0001F07A1F7B0929304A09292042A960FB614
:1048C000F894DEBF0FBECDBFDF91CF911F910F9146
:1048D000FF90EF90DF90CF90BF90AF909F908F9020
:1048E0007F906F9008950F931F93CF93DF93853040
:1048F00008F56630F8F44830E8F4C42FD0E0CC0F67
:10490000DD1F20E1629FC00DD11D112430E6839F81
:10491000C00DD11D1124CE0187960E94642A90E01B
:10492000182F0027CE0188960E94642A9801282B10
:10493000C90102C080E090E0DF91CF911F910F91FB
:104940000895462F2091940430919504232B49F427
:10495000853038F4763028F4683018F4672F0C94DA
:10496000732480E090E00895CF92DF92EF92FF925F
:104970000F931F93CF93DF93CDB7DEB72A970FB670
:10498000F894DEBF0FBECDBF80E5E2E4F4E0DF01C6
:104990001D928A95E9F788E3E3E0F5E0DF011D92D7
:1049A0008A95E9F782E4C82E84E0D82E7F0103E4DB
:1049B00012E0F701D182C0824AE050E0B801CE0196
:1049C00001960E94542A88E0FE013196D60101909A
:1049D0000D928A95E1F789859A85D70113969C9364
:1049E0008E931297BAE0CB0ED11CE7E0EE0EF11CCD
:1049F000065F1F4F0339F2E01F07D9F62A960FB65C
:104A0000F894DEBF0FBECDBFDF91CF911F910F9104
:104A1000FF90EF90DF90CF9008959C013A9521157B
:104A20003F4130F5BC0166277270AC0144275470D9
:104A30009C012227387094FF0FC090FF02C080E1D4
:104A400001C080E0672B09F08062452B09F080648B
:104A5000232B79F080680895892F8170672B09F0E6
:104A60008260452B09F08460232B19F0886008953B
:104A700080E00895DF92EF92FF920F931F93CF9300
:104A8000DF93E82FF0E0EE5CF84FD490282F2695C6
:104A90002695269530E0F901EE5DF84F0491877078
:104AA00010E0082E02C0159507950A94E2F70170F0
:104AB0001127F901EE5EF84FE490F12C082E02C0A8
:104AC000F594E7940A94E2F791E0E922FF24F901D2
:104AD000EE5FF84FC491D0E002C0D595C7958A9596
:104AE000E2F7C170DD270115110519F081EE0E9472
:104AF000BF1AE114F10419F086EE0E94BF1A8D2D41
:104B00000E945B1BEF2819F086EE0E94681A012BA9
:104B100019F081EE0E94681ACD2B51F08CE2DF91E2
:104B2000CF911F910F91FF90EF90DF900C945B1B42
:104B3000DF91CF911F910F91FF90EF90DF9008953B
:104B4000EF92FF921F93CF93DF93EC011AE08881DD
:104B5000882309F44AC0813009F043C0898181303B
:104B600041F47E0182E0E80EF11C8A810E945B1B09
:104B700009C0823049F47E01E2E0EE0EF11C8A8128
:104B80000E94BF1AE7012FC0833041F47E01F2E09A
:104B9000EF0EF11C8A810E94681AF4CF843011F064
:104BA000219621C02A81229680E090E030E02053B7
:104BB00031092A30310558F4189FA001199F500D72
:104BC0001124C901840F951F21962881EFCF0097EA
:104BD00051F0EFE9FFE03197F1F700C000000197D5
:104BE000F6CF0E943A252196B2CFDF91CF911F9147
:104BF000FF90EF9008951F93CF93DF9300D000D0E4
:104C00001F92CDB7DEB7FC0186819781009709F529
:104C1000CF0125E0DE01119601900D922A95E1F772
:104C2000FC01228189819A81222359F0662349F06F
:104C30000E940817182F682F89819A810E94651990
:104C400003C00E943519182F69817A81812F0E9433
:104C5000A1240F900F900F900F900F90DF91CF91A4
:104C60001F9108950F931F93CF93DF93C091750108
:104C7000D0917601CE0195558F3F910509F058F4FA
:104C80008C2FC4FF02C08295807FDF91CF911F914E
:104C90000F910C948A1F8E01005E1109CE0108301D
:104CA000110510F0209729F40E940D250E945E1A2C
:104CB00004C00E940D250E944D1A8C2F0E94BF1A1D
:104CC0008FE798E321E0815090402040E1F700C059
:104CD00000008C2F0E94681ACE010830110510F0D8
:104CE000CD2B41F40E940D25DF91CF911F910F91A3
:104CF0000C94571A0E940D25DF91CF911F910F91AF
:104D00000C94421A109274010E94382181FF03C052
:104D100089E30C945B1B08952F923F924F925F9210
:104D20006F927F928F929F92AF92BF92CF92DF92BB
:104D3000EF92FF920F931F93CF93DF93CDB7DEB720
:104D40006A970FB6F894DEBF0FBECDBF498B5A8B62
:104D50006B8B7C8B8D8B6111109239048E01075FF8
:104D60001F4F88E0F80111928A95E9F785E0FE016E
:104D70007196D80101900D928A95E1F70E94B020BA
:104D80002091350430913604821B930B883893416F
:104D900040F08091370482FB992790F981E08927C0
:104DA00001C080E080FF03C082E00E940A1E0E94D2
:104DB000B02020913B0430913C04821B930B883837
:104DC000934110F00E94D71D99858A852C853D85D9
:104DD000232B31F08F3F31F481E09F3F19F403C062
:104DE00081E001C080E080FDCAC161E0C8010E948D
:104DF000FB256C0187EFC8168CE5D80639F48B8546
:104E00008823B9F081E080931301B9C198EFC916E6
:104E10009CE5D90631F48B85882359F00E94E22164
:104E2000AEC1E9EFCE16ECE5DE0619F48B858111F3
:104E300011C003E015E0712CA12CB12C88248394BF
:104E4000912C55245394CE0101969F8B8E8BF7E0C5
:104E50004F2E49C0809113018823A1F2DFCFC616DF
:104E6000D70609F097019F5F7901292F30E0F901FA
:104E7000EE0FFF1FE40FF51F608171816115710551
:104E800071F7FFEFEF16FF0609F42DC1F8016481F9
:104E9000611131C020911301822F81706B84F80160
:104EA00035812681662009F4C6C0882309F4C3C071
:104EB000332321F1940102C0220F331F9A95E2F7A8
:104EC00021503109F801868190E02817390759F1FE
:104ED0007628FFEFAF1ABF0A095F1F4F28E0A2161E
:104EE000B10409F402C1F80140815181EE24EA9431
:104EF000FE2C90E0BACF20E030E0CECFA40101C07C
:104F0000440FEA94EAF7242B268320919F043091E2
:104F1000A0042233310570F622E330E03093A00480
:104F200020939F04C7CF8091450590914605009737
:104F300029F00E949520C39708F01EC18091430577
:104F4000F0914405F88FE0E0F0E0288D821709F435
:104F500060C0282F30E0F901EE0FFF1FE55CFA4F2B
:104F600020803180429CF001439CF00D1124ED5FC4
:104F7000FA4FF080E18050E090E040E0EF2DFE2D10
:104F8000E40FF11DE40FF11DA081B1811097D1F064
:104F9000F801F081F98FF801F181FA8F90E0E98D45
:104FA000FA8DE90FF11DE90FF11D60817181611525
:104FB000710531F0A617B70709F451E09F5FEFCFF5
:104FC0004F5FDCCF5523F9F09417C8F0429CF001F5
:104FD000439CF00D1124ED5FFA4F3097B1F05482ED
:104FE0000E171F0709F474CF9091430589130DC064
:104FF000C9010196837099278093430506C0011566
:10500000110509F0B9C0E0E0F0E0C9010196837034
:105010009CCF0E171F0709F45BCF90E0FC01EE0F49
:10502000FF1FE55CFA4FB182A08201968370992739
:10503000809344054DCF311112C0A40102C0440F2A
:10504000551F9A95E2F74150510930E04217530736
:10505000E9F56623E1F1C5010E94442137C0822FA2
:1050600090E09C0121503109282339230E2C02C0E5
:10507000959587950A94E2F7232B31F580FF24C09C
:10508000F80182819381892BD9F088E0EE89FF892C
:1050900011928A95E9F78EEF89838A830E94B02066
:1050A0008160582F9D838C83F801828193818F8347
:1050B000988729813A814B816D817E810E94BC193C
:1050C000F801158281E003C0817001C080E0940185
:1050D00001C0220FEA94EAF72095F801968129236E
:1050E0002683682EF5CE612CF3CE8B85882381F143
:1050F000772071F10E94B02090934605809345057A
:105100008091A204883008F044C091E0980F9093F9
:10511000A20498E0FE013996DE01119601900D92ED
:105120009A95E1F7ECE08E9FC00111248D559B4FBD
:1051300028E0FE013196DC0101900D922A95E1F7FD
:105140002FEF3FEFFC0131872087D386C28621C035
:105150009091430580914405981719F00E94F02121
:1051600008C00E94722110924605109245050E94C7
:10517000D121772021F00DC0F8015482A9CE2985D4
:105180003A854B855C856D857E858F8598890E94E3
:10519000BC196A960FB6F894DEBF0FBECDBFDF9183
:1051A000CF911F910F91FF90EF90DF90CF90BF9024
:1051B000AF909F908F907F906F905F904F903F90B7
:1051C0002F900895CF93C82F811102C06FEF01C0B7
:1051D00062EC83E290E00E94722AC11102C06FEF7C
:1051E00001C06FE084E290E00E94722AC11102C007
:1051F0006FEF01C06CE285E290E0CF910C94722ACF
:1052000080E00E94E22860E086E290E00E94722A3C
:105210000E94E6230E94382381E00C94E22883E276
:1052200090E00E94642A823C81F484E290E00E9433
:10523000642A8F3051F485E290E00E94642A91E064
:105240008C3209F090E0892F01C080E081700895D0
:105250001092B9008CE08093B80008959F92AF92AD
:10526000BF92CF92DF92EF92FF920F931F93CF9353
:10527000DF93B82EEB010E94B0206C01C431D10540
:1052800058F0CF3F8FEFD80759F0CE0164E170E0BE
:105290000E94372A7B0107C0EE24E394F12C03C05F
:1052A00025E0E22EF12C84E8A82E94EA992E1092A3
:1052B000BC009092BC000E94B0208C018091BC0088
:1052C00087FD08C00E94B020801B910B8E159F05A2
:1052D000A8F32AC08091B900887F883041F080917E
:1052E000B900887F803119F00FEF1FEF1FC0B09217
:1052F000BB00A092BC000E94B0208C018091BC0039
:1053000087FD08C00E94B020801B910B8E159F0561
:10531000A8F30AC08091B900887F883111F08034E9
:1053200019F700E010E00EC00EEF1FEFCF3F8FEF38
:10533000D80709F4BCCFC6010E9495208C179D07A1
:1053400008F4B5CFC801DF91CF911F910F91FF9065
:10535000EF90DF90CF90BF90AF909F9008950F9304
:105360001F93CF93DF93EB018093BB0084E880937E
:10537000BC000E94B0208C018091BC0087FD0EC053
:10538000CF3F8FEFD807C1F30E94B020801B910B55
:105390008C179D0788F38EEF9FEF0CC02091B9000A
:1053A000287F81E090E0283211F480E090E0919530
:1053B00081959109DF91CF911F910F910895CF921F
:1053C000DF92EF92FF920F931F93CF93DF936B01C6
:1053D0008A017901B9010E942E29E6010C0D1D1DDB
:1053E000C017D10761F424E92093BC00DF91CF916D
:1053F0001F910F91FF90EF90DF90CF90089597FD50
:10540000F2CFB70189910E94AF29EACFCF92DF9204
:10541000EF92FF920F931F93CF93DF93C62F6A01F2
:105420007901B8010E942E2997FD11C0B8018C2F77
:105430000E94AF29E601EC0CFD1CCE15DF0539F00A
:1054400097FD05C0B80189910E94AF29F6CF24E9E4
:105450002093BC00DF91CF911F910F91FF90EF90AF
:10546000DF90CF90089584E98093BC000895AA1B33
:10547000BB1B51E107C0AA1FBB1FA617B70710F03F
:10548000A61BB70B881F991F5A95A9F78095909571
:10549000BC01CD010895FB01DC0102C005900D9215
:1054A00041505040D8F70895DC01CB01FC01F99937
:1054B000FECF06C0F2BDE1BDF89A319600B40D9260
:1054C00041505040B8F70895F999FECF92BD81BD83
:1054D000F89A992780B50895A8E1B0E042E050E03D
:1054E0000C94562A262FF999FECF92BD81BDF89AC9
:1054F000019700B4021639F01FBA20BD0FB6F89418
:10550000FA9AF99A0FBE08950396272F0E94732ADC
:105510000E94722A252F0E94732A242F0C94732A2A
:105520000196272F0E94732A0C94722ADC01CB016A
:1055300003C02D910E94A12A41505040D0F70895F8
:10554000262FF999FECF1FBA92BD81BD20BD0FB69F
:10555000F894FA9AF99A0FBE01960895EE0FFF1F7C
:105560000590F491E02D09946927962769277827FB
:10557000872778270895FB01DC0104C08D910190F5
:10558000801921F441505040C8F7881B990B0895A9
:10559000DC0101C06D9341505040E0F70895F8944C
:0255A000FFCF3B
:1055A200FFF21FF51FF11FC611C2110021007F2259
:1055B20000030101693CEA84B6CCB4AC92F4F5F67E
:1055C200F7313534C6976694323300081018181034
:1055D20008004022320104DF03AD0353046C048C43
:1055E20004818283E200E900EA00B500B600B70058
:1055F200CD008301CC008A01920194012102230291
:1056020024022502260227022A02B300B4006F00F8
:02561200700026
:00000001FF
