:100000000C9415040C945C040C945C040C945C0437
:100010000C945C040C945C040C945C040C945C04E0
:100020000C945C040C945C040C94CC1A0C94081A88
:100030000C9489210C945C040C945C040C945C0476
:100040000C945C040C945C040C945C040C945C04B0
:100050000C945C040C943C210C945C040C945C04A3
:100060000C945C040C945C040C945C040C945C0490
:100070000C945C040C945C040C945C040C945C0480
:100080000C945C040C945C040C945C040C945C0470
:100090000C945C040C945C040C945C040C945C0460
:1000A0000C945C040C945C040C945C04CE09E4098C
:1000B000EB09230A340A3F0A4F0A620AA10AA60A78
:1000C000000B000B000BAE0A3D0F3D0F760F760FB5
:1000D000D80F131113111311F60F6A107B107B1038
:1000E0004E124E12611261125712611261126112A8
:1000F0004E124E125C12611261125C121018371807
:10010000EA193718EA198318A618EA19A719B719AE
:10011000FD377A585A000004E6D6B44602002101A1
:1001200016000000742FE5A3E0085302455D003D72
:100130008889C65436C3174FE4F1E112FDEF008EF3
:10014000FF6F9387B42647FBB729D03483DA2C4E50
:100150008C1ED4A2101D9A2C5F0D89D296E2560FE8
:100160001E575FB410F19A9B18602D7EFBA74803C1
:10017000850A09BB61BA19807BBF8567EF57236F7A
:10018000F0788933D06222FCBD0E51E6DEAF7BE809
:10019000DAA260551D19D1FB286DE36D5BBD4122CC
:1001A000218BEA6383C8A2495A31655DBD002908E5
:1001B000EFA3B6E19EAEF3D84A9B2F0D317CDC7ADB
:1001C000E26D5B8D9F4C1A0FEED72802735D24FA07
:1001D000E0CD52AD5FA9557D24C66E6096EE3854D1
:1001E00061552D353326C0C365397C77239B589BD9
:1001F0007C90A1BFBD6D204BBF2FE0C2EF0363B564
:10020000AC02FDD87142E85C47D08B8B08455CE2BC
:10021000D1BD93A36E6B7B019B123EA7AB5EB577FE
:10022000FDE833C6F7BB8181344D4831C367B9E37C
:100230003A8438C073722F53E5B769DD775E305F5B
:100240002782C90FFEE70EAAEAE455B91AF196FE15
:100250008AE7C52E76B72D2C05C44C4C9E75684B8D
:100260001B92247E2B906DF9DE48E3E4A467E21B29
:100270004A6CFA5A78AABE7A60553A67389C7FBAB7
:100280003B8D1B128E5FB2763748EB7D972226118D
:10029000EBAEEE4E87D5FA484DA991F4B5CBB4B785
:1002A00035D19F40D5E312191F76715BA303830EEE
:1002B000C87AFA73CC48F9436FBCADF442CCC64C53
:1002C0008DA0FF9EFAD6F6E65D11F9640DEDB69BA2
:1002D0005DBBDF9DC9DF085FCD2BE31E49F9E2114D
:1002E000DE6CDC707AD4075AFF4099DBBCEA657B90
:1002F0002A642CA48220E55D181AD31FAF0B6F8AE5
:10030000701E4C95AE69E6EC7CAA614CAE2FD61CF3
:100310005296328C661C8E0964B5236864287593E6
:100320002C911DA0C9AA1DFB9B345575DFAC63A39E
:100330006274506CFB2CCA5497D6DB2F5D6FDF764E
:10034000D5948A1EA7855FE6802992D46176588C61
:1003500098975A6826CDB1651D8D8A5C5236D1C4F6
:1003600021A22A8366E99C0CB0428FBD51715A7359
:10037000ABE82CB000000000896E945E7653C6197D
:100380000001E104D41000008437DD5EB1C467FBD6
:10039000020000000004595A2E200005010902A1A4
:1003A0000185020901A1000509190129051500258A
:1003B000019505750181029501750381010501090A
:1003C0003009311581257F95027508810609381598
:1003D00081257F950175088106050C0A3802158173
:1003E000257F950175088106C0C005010980A1011E
:1003F000850319012AB700150126B700950175106C
:100400008100C0050C0901A101850419012AA0027F
:10041000150126A002950175108100C00660FF0934
:1004200061A1010962150026FF009520750881026F
:100430000963150026FF00952075089102C005018B
:100440000906A101050719E029E71500250195080E
:10045000750181029501750881010507190029FFC1
:10046000150026FF00950675088100050819012969
:1004700005950575019102950175039101C0090269
:100480005B00030100A0FA09040000010301010060
:100490000921110100012240000705810308000A1B
:1004A00009040100020300000009211101000122DA
:1004B0002200070582032000010705030320000135
:1004C00009040200010300000009211101000122BA
:1004D00081000705840320000A12010002000000C9
:1004E00008FEFEBBFF0100010203011C0376006948
:1004F0000061006C003A0066003600340063003290
:100500000062003300630000003203730061006486
:100510000065006B006200610072006F007500648E
:100520000069002000660066006B0062005F0062E8
:100530000079006F006D006300750000001A0373FE
:10054000006100640065006B006200610072006F72
:1005500000750064006900000004030904AA00A9F2
:100560000050014F012B032B01010001000100018C
:100570000001000100010001000100010001000173
:100580000001000100010001000100010001000163
:10059000000100010001000100290014001A0008F8
:1005A00000150017001C0018002B000461166807D6
:1005B0006409620A000B000D72E1001D001B0006B9
:1005C000001900050011001000000000000E743733
:1005D000001200337138002A0000002B0436000C92
:1005E000000F781300E50034002A01A8004C003108
:1005F000002800015102512C0001001E021F0220A0
:1006000002210222022302240201000153025303A9
:10061000530453010001002D0201003900010001C3
:10062000000100010001000100000000002E023165
:100630000226023002340201000000010001002500
:10064000022F022702010001000100010001000148
:1006500000010001000351010035001E001F0020B1
:100660000021002200230024004A005000510052C3
:10067000004F002B0001002D00010001004E004B37
:10068000000100815F845F825F000000002E000196
:1006900000260030000100010000000100835F25FA
:1006A000002F0027000100010001000100010001EE
:1006B0000001000351010001000100C25CC45CC3E1
:1006C0005C010001003A003B000100CB5CC55CC747
:1006D0005CC95C01003F0040000100CC5CC65CC806
:1006E0005CCA5C01004400450000000000410001BC
:1006F000003D004300005C01000000010001003CDF
:100700000042003E00010001000100010001000163
:1007100000010001000100010001000100010001D1
:1007200000010001000100010001000100010001C1
:1007300000010001000100010001000100010001B1
:1007400000010001000100010000000000010001A3
:100750000001000100010001000000010001000192
:100760000001000100010001000100010001000181
:100770000001000100010001000000000000000075
:100780000000000000000000000000000000000069
:10079000000000000000000000000000007E0F00CC
:1007A000D4FFFFFFC7000000780000000000000039
:1007B000002A2B28000000000000000000000000BC
:1007C0000000000029000000002C1E3420212224FB
:1007D000342627252E362D3738271E1F2021222389
:1007E0002425263333362E37381F0405060708091B
:1007F0000A0B0C0D0E0F10111213141516171819E1
:100800001A1B1C1D2F3130232D350405060708093E
:100810000A0B0C0D0E0F10111213141516171819C0
:100820001A1B1C1D2F3130354C0011241FBECFEF79
:10083000DAE0DEBFCDBF04B603FE27C080915D03C2
:1008400090915E03A0915F03B09160038730904B5D
:10085000A740B04BD1F410925D0310925E0310924A
:100860005F031092600314BE84B7877F84BF0FB606
:10087000F894A89580916000886180936000109240
:1008800060000FBEE0E0F8E3099511E0A0E0B1E000
:10089000EAE0FAE502C005900D92AA37B107D9F750
:1008A00023E0AAE7B1E001C01D92AD35B207E1F740
:1008B0000E945E040C94032D0C940000CF93DF93F0
:1008C000CDB7DEB7C654D1090FB6F894DEBF0FBE60
:1008D000CDBF84B7877F84BF0FB6F894A895809169
:1008E0006000886180936000109260000FBE90E00D
:1008F00080E80FB6F89480936100909361000FBE7A
:1009000085B7806885BF85B7806885BF86E29CE132
:1009100090937B0180937A010E9475250E944C1A66
:100920000E946B1A8091E20084608093E2007894C8
:100930008091EC018823A1F01091E9001F70909143
:10094000EC00892F817090FD80E8182B1092E9004F
:100950008091E80083FD0E942A171F701093E90020
:1009600082E084BD93E095BD9AEF97BD80936E00C1
:100970000E94632A811102C00E94542A05E111E0FD
:10098000EBE1EE2EE1E0FE2ED8018D918D018F3F3F
:1009900011F00E946B1CE016F106B1F70BE111E0BB
:1009A00073E2E72E71E0F72EF80181918F018F3FFE
:1009B00011F00E946B1CE016F106B1F7EEE7F1E0D2
:1009C000A9EBB1E011921D9211E0E438F107D1F7E3
:1009D00080E090E00E948C2C8A3E9E4F21F40E9481
:1009E000632A811102C00E941C1E82E090E00E94D6
:1009F000842C8093AE010E940B1E90937D01809306
:100A00007C010E944F1F8FE39CE90197F1F700C022
:100A100000000E944F1F8091B90180FF08C06FEF56
:100A20007FEF80E090E00E94B02C0E94182183E0CC
:100A300090E00E94842C0E949B142DE8822E21E0DD
:100A4000922E43E351E026E331E06AE8662E61E04E
:100A5000762E61E070E08614970409F44EC0F90127
:100A6000A1919F018A2F82958F7090E0FC01F1A0E7
:100A7000AF70EA2E8B0101C0000FAA95EAF7F02FA4
:100A8000F095FF22DC019196FC9291979296AC91A1
:100A9000A02BFC01A2A3DA01FD90AD01EF2DE295A0
:100AA000EF70F0E0B1A0BF2DBF70FB2E6B0101C055
:100AB000CC0CBA95EAF7DC2CD094DB20D1A2D2A0E2
:100AC000CD28C2A2DC0190968C9190E002C0959551
:100AD0008795EA94E2F78170E0A1F0E002C0F59515
:100AE000E795FA94E2F7E0FF02C092E001C090E0DF
:100AF000892BF30181933F01AECF0E94DD2A198239
:100B00001A821B821C8204E610E024E030E0CE0151
:100B100001961C01AC0160E084E10E94DE2B80E0C4
:100B200091E090935203809351038091EC018530C2
:100B300009F045C000E112E18091EC01853009F037
:100B40003AC08091EC01843021F110925503A8E164
:100B5000B0E0E0E40FB6F894A895A09360000FBE53
:100B6000E093600083B7817F846083BF83B7816037
:100B700083BF7894889583B78E7F83BF0FB6F89430
:100B8000A895809160008861809360001092600059
:100B90000FBE8091E201882309F4CECF0E944F1F3F
:100BA000E9EBF1E0819181112FC52FEB31E02E1798
:100BB0003F07C1F7C1CF0E949F140E9405220E94E7
:100BC0004F1F81110E947121AFEAB1E0E9EBF1E022
:100BD00000E010E0302F21919D91922709F43DC053
:100BE00080E0FF24F394492F4F2199F18DAF3EAF60
:100BF0002F2181E009F480E08FAF0E947D21816088
:100C0000782F22969FAF8EAF22974DAD5EAD6FAD20
:100C100022968FAD22970E94E027F801E155FE4F02
:100C20008081F826F082A7E8EA2EA1E0FA2E04E8F7
:100C300011E0BAE86B2EB1E07B2E83E3882E81E0D1
:100C4000982E96E3A92E91E0B92E6301412C512CE8
:100C500067C08F5FFF0C883031F60F5F1F4F063083
:100C6000110509F0B7CF8FEF23968FAF2397249606
:100C70008FAF249725961FAE25970E947D21816016
:100C8000782F27969FAF8EAF279723964FAD239748
:100C900024965FAD249725966FAD259727968FAD47
:100CA00027970E94E027BFCF822B932B8E2BF30137
:100CB00081933F018F70E82FF0E0ED5DFE4F908152
:100CC000D7018C91890F8C9382300CF45AC0F801B3
:100CD00080818F5F808360E0852D0E94CE2521E09A
:100CE000D7018C918F3F4CF4F80180818150808333
:100CF00061E0852D0E94CE2521E0D7018C91082E40
:100D0000000C990B62E070E00E94CE2CF7018193F9
:100D10007F01422A53940F5F1F4FF3E05F1699F152
:100D2000D6018D916D01E82FEE0FEE0FD5012D91BB
:100D30005D01A22FA295AF70B0E090968C9190E0EB
:100D40002F7002C0959587952A95E2F79C01217036
:100D50003327D4018D914D01A82FA295AF70B0E03B
:100D600090964C9150E08F7002C0559547958A95AA
:100D7000E2F7CA018170992740FF96CF82E090E0A8
:100D800093CF20E0ADCF41100E9471218091AC0142
:100D90008A3008F0EBC08091AA019091AB010E94CB
:100DA0006221089708F4E2C004E610E025E030E094
:100DB00045EA51E064E084E10E940B2C892B09F0A4
:100DC0006BC01092AC0186E0E3E9F1E0DE01D19660
:100DD00001900D928A95E1F786E0FE01F196DE0121
:100DE000D79601900D928A95E1F786E0FE01F7967D
:100DF000AFE9B1E001900D928A95E1F79091A901D8
:100E00008091A00197FD3EC08E7F8093A0018091CC
:100E10009D0190919E01009799F545E06091A50193
:100E20008091A6010E94C92720919B0130919C01CD
:100E3000820F931F90939C0180939B0145E06091EA
:100E4000A7018091A8010E94C927209199013091A2
:100E50009A01820F931F90939A018093990169E9F7
:100E600071E081EA91E00E94AA276BE971E082EAD1
:100E700091E00E94AA271092A4011092A30111C030
:100E8000019705C081608093A00184E190E0909378
:100E90009E0180939D0105C08091AC018F5F80937E
:100EA000AC0186E0EFE9F1E0DE019B9601900D9246
:100EB0008A95E1F786E0FE01BB96A3E9B1E00190D7
:100EC0000D928A95E1F730919501209196019091CC
:100ED00097018091980170918F01609190014091EC
:100EE000910150919201F0919401E0918E01FE13D5
:100EF00012C0332311F073130EC0222311F06213BA
:100F00000AC0882311F0581306C0992331F081E0FC
:100F1000491304C002C081E001C080E080FF0FC01F
:100F2000E0915103F0915203309749F082E08093B1
:100F300093010480F581E02D83E991E009951092F9
:100F4000950110929601109297011092980186E0F7
:100F5000E3E9F1E0ADE8B1E001900D928A95E1F7A7
:100F60000E947D219093AB018093AA010E940522EB
:100F70009091AD01891721F00E9405228093AD0167
:100F80008091EC01843009F0D0CD83E08093E900BA
:100F90008091E80082FFC9CD8091E80085FF21C0E3
:100FA0000E94A11B81111BC0F0E2EF2EF12C8101E8
:100FB00009C08091F100D8018D938D01B1E0EB1A49
:100FC000F10869F08091E80085FDF3CF8091E80099
:100FD0008B778093E8000E94A11B882399F391E00E
:100FE00001C090E08091E8008B778093E80099231E
:100FF00009F49BCD0091A2021091A30289810115F1
:10100000110561F08E3F09F0FBC29A81933008F41C
:1010100040C09550933008F0F3C23BC08B3009F4C8
:101020009BC110F5853009F477C0B0F48230D9F156
:1010300030F4813009F0E2C21A8289E080C2833044
:1010400009F45BC0843009F0D9C24C816B818A817C
:101050000E942B259D83F5C2873009F4CFC208F08A
:10106000CDC20E948D24CCC2803109F4BCC060F492
:101070008D3009F45EC008F45AC08E3009F45DC0AA
:101080008F3009F483C0BAC2823109F4B1C008F4C8
:10109000ADC0FE0131965F01833109F4D1C08E3FAE
:1010A00009F470C1ABC28A81823009F4C3C28330B3
:1010B00051F0813009F0A2C20E9471219B838C8380
:1010C0007D836E839DC280919E0290919F02892BA9
:1010D00009F496C28091B9018B838091BA018C8307
:1010E0008091BB018D838091BC018E838091BD0175
:1010F0008F838091BE01888783C28A81823009F004
:101100007DC26B817C818D819E810E94E82C86E26C
:1011100090E00E94922C74C22D813E8132272327B9
:1011200032274C816B818A810E94572469C280E1F9
:1011300022C281E08A838DE602C20A811B811027C8
:1011400001271027CC80D12CFDE1CF16D10408F067
:1011500057C27101C8018D569D4F9701221933095D
:101160002C153D0508F04CC20D3621E0120730F475
:101170000E94842CD70114968C9302C0F70114822C
:101180000F5F1F4FFFEFEF1AFF0AE4CF80919E021F
:1011900090919F02892B09F433C20A811B81102789
:1011A00001271027EC80F12C2DE1E216F10408F064
:1011B00027C26101C8018D569D4F9601221933093E
:1011C0002E153F0508F01CC20D3631E0130728F438
:1011D000D60114966C910E94922C0F5F1F4FBFEFA7
:1011E000CB1ADB0AE7CF0E94DF230AC285E0C3C126
:1011F0000A811B81102701271027CC80D12CEDE11B
:10120000CE16D10408F0FCC17101C8018796970180
:10121000221933092C153D0508F0F2C1003EF1E01A
:101220001F0730F40E94842CD70114968C9302C0BF
:10123000F70114820F5F1F4FFFEFEF1AFF0AE5CF90
:101240000A811B81102701271027CC80D12C2DE18A
:10125000C216D10408F0D4C1003E31E0130708F0F3
:10126000CFC180EE91E0801B910B8C159D0508F499
:10127000C7C1380187E2680E711C80919E0290916F
:101280009F02892B11F071015EC000FF0FC0C801E1
:1012900086960E94842C90E0982F88272D81822B9F
:1012A00081159C4531F48FEF8D8303C0E12CF12C27
:1012B00003C0EE24E394F12CC8018C0D9D1D460162
:1012C00080FF1BC0B1E08B1A910855E0452E512CD0
:1012D0004C0E5D1E480C591CC3018C0D9D1D0E94B7
:1012E000842CF201208130E0322F2227282B211577
:1012F0003C4519F48FEFD2018C93F501EE0DFF1DE3
:101300002FEFCF018A199B098815990508F0BBCFEB
:10131000848190E0982F88273581832B81159C4507
:1013200011F4248325833296ECCF003EE1E01E07C2
:1013300028F4D70114966C910E94922C0F5F1F4FD6
:10134000BFEFEB1AFB0AC8018796970122193309F0
:101350002C153D0550F354C180919E0290919F023F
:10136000892B09F44DC1C1010E94001CEFEFF1EE81
:1013700014E0E150F0401040E1F700C000000E948E
:1013800018213EC1EA818E2F90E08E30910508F041
:1013900037C1FC01EA5AFF4F0C94E22C88E0EDE0E3
:1013A000F1E0DE01919601900D928A95E1F780E2DD
:1013B000D1011D928A95E9F784E0898388E0FE01D6
:1013C000B196DE011596F6C088E8898382E08A83AB
:1013D0001B821C8215C18C8190E0982F88272B815D
:1013E000820F911D092E000CAA0BBB0B35E0880F54
:1013F000991FAA1FBB1F3A95D1F7AC01BD01405EF2
:101400005F4F6F4F7F4F481759076A077B0708F4F4
:10141000F7C08838E2E09E07A105B10508F0F0C0EA
:101420004938F2E05F076105710520F048E852E0B5
:1014300060E070E0481B590BBC01605F7E4FC50146
:101440000E946B2CDDC01B810C8140E0602F812F3E
:101450000E94272499838A8341E0602F812F0E9474
:1014600027249B838C83CCC02E813F813227232766
:1014700032274D816C818B810E94EF23C1C040E2F5
:1014800050E06FEF70E0C1010E94FC2C80919E0241
:1014900089830A831B821C821D8281E0D2C081E085
:1014A00090E09093A3028093A20282E390E0909355
:1014B000B8018093B7010E947D219093B60180937B
:1014C000B5019EC0012B99F11091B90111FB88273C
:1014D00080F918238091B5019091B6010E94622194
:1014E00085369105F0F01123E1F00E947D21909363
:1014F000B6018093B5018091B7019091B801019731
:101500009093B8018093B701892B89F41092A302BC
:101510001092A20281E090E090939F0280939E023D
:1015200006C082E390E09093B8018093B701809168
:101530009E0289838091A2028A838091B7018B8366
:101540005FC010929F0210929E025AC040E250E08B
:101550006FEF70E0C1010E94FC2C52C08B81833080
:1015600061F0843061F181114BC080E2D5011D92A0
:101570008A95E9F788E08A8343C06C81CE01819621
:101580002AE0FC0111922A95E9F7683060F4FAE04C
:101590006F9FB00111246D5B7D4F4AE050E00E94C7
:1015A000742C80E001C08FEF89838AE0FE01B19640
:1015B000DE01129601900D928A95E1F721C06C81AF
:1015C0008AE0FE013596DE01919601900D928A9592
:1015D000E1F7683070F41AE0619FB00111246D5B8F
:1015E0007D4F4AE050E0CE0181960E94B62C80E00B
:1015F00001C08FEF89830E94752502C08FEF898318
:10160000C1010E94001C91CA09BD19BD09B400FEA8
:10161000FDCF8091D8008F7D8093D8008091E0002D
:1016200082608093E0008091E00081FDFCCF0E9409
:101630009F1482CA86E290E00E94842C1B821C8246
:101640001D828E83DDCF8F929F92AF92BF92CF92F9
:10165000DF92EF92FF920F931F93CF93DF9300D00F
:1016600000D0CDB7DEB7FC01808191812381348128
:10167000232B31F09F3F31F491E08F3F19F403C0E9
:1016800091E001C090E090FD92C66F0161E0CF0152
:101690000E9410278C01F6018281882309F49AC0E8
:1016A000980122513F452031310508F07BC08FEF72
:1016B00093E00E94842C81117FC03EEEF32EF00E49
:1016C00003E912E0FF2071F00115F4E01F0709F4AF
:1016D00073C0C8010E94842C811101C0FA940F5F6D
:1016E0001F4FF0CF19821A821B821C82AA24AA944F
:1016F00078012FEFE21AF20AC8010E94842C898334
:101700001A82882309F458C0813009F046C0480184
:1017100082E0880E911CC7010E94842C8A83882352
:1017200009F44AC09FEF980F933060F4780193E07A
:10173000E90EF11CC4010E94842C8B8381112DC001
:101740008701D6CF843011F07401FACFC4010E9412
:10175000842CB82E7801E4E0EE0EF11CC80103964B
:101760000E94842CBB2041F1882331F1282F30E0E6
:1017700021503109A29EA001A39E500D11248B2D52
:1017800090E00197840F951F0197D0F2EFE9FFE0F9
:101790003197F1F700C00000F7CFCE0101960E940B
:1017A000B526CECF00319FE5190709F060C581E06D
:1017B0000E9490140E941F1780914302877009F4C1
:1017C000F6C5F6018281882309F4F1C582E00E9402
:1017D000B91EEDC50031FFE51F0711F481E005C01A
:1017E00001312FE5120721F482E00E948414E2CF38
:1017F0009091BF01911105C09091C201992309F404
:10180000B7C098013056211590E2390720F0305EBC
:101810002115304140F4F6019581907F09F4A8C06C
:101820007801FF2401C0780197013054211535411A
:1018300008F49EC09091C201923021F5882369F08E
:1018400080914602982F927219F06894F1F80FC0B7
:1018500086FF0DC024E1F22A0AC0C70195558F3FCB
:10186000910511F008F022C580E00E94392081E046
:101870008093C201F092C101E092C0018FEF80938A
:101880000A019ACF882309F411C5913009F05FC08D
:1018900080910A019CE2E916F104D9F4882329F029
:1018A0000E947A2710920A0187CF8091C0019091FF
:1018B000C10195558F3F910509F018F40E94861ECD
:1018C00003C08AE20E9449161092C2010E94A0271A
:1018D0004FC0EAE2EE16F10421F4815080930A0130
:1018E00026C087FD34C081110BC08091C00190914A
:1018F000C10195558F3F910509F010F40E947A2798
:1019000080910A018F5F80930A01FDE2EF16F104D6
:1019100071F040F484E0E81AF10894E2E916F10469
:1019200080F405C0EDE2EE16E2E0FE0651F4F601A9
:101930008281882309F4BAC480914602811114C0BF
:101940009DC4F6018281882309F4B0C40DC09AE2D7
:10195000E916F10489F308F01EC5F4E0EF1AF10866
:1019600024E2E216F10440F30E94A0271092C20183
:101970000238FFE51F0751F4F6018281882399F1AF
:1019800081E08093C2018DE290E017C003382FE51B
:101990001207D8F00338EFE51E0709F4EBC404384A
:1019A000FFE51F0709F093C4F60182818823D9F06F
:1019B00081E08093C2018DE292E09093C101809317
:1019C000C0018FEF80930A0113C000388FE518071C
:1019D00009F436C101389FE5190709F078C4F6010A
:1019E0008281811158C4F6018281882309F4B8C12B
:1019F0001092A6020230FCE51F0708F49BC10631D5
:101A00002CE5120730F0C8018A5F9C45099708F061
:101A100091C10E940B1E90937D0180937C01003147
:101A20008CE5180709F4C3C008F041C00830ECE5A4
:101A30001E0709F49AC0F0F404302CE5120709F4EB
:101A400087C068F402309CE5190709F477C00330B9
:101A50001C4509F0E5C080917C01826076C00630AB
:101A6000FCE51F0709F46EC008F07BC080917C0183
:101A700088606BC00C308CE5180709F485C068F4E9
:101A80000A30ECE51E0709F474C008F079C00E9422
:101A90009F1480917C01806858C00E302CE512079D
:101AA00009F476C008F07FC080917C018BC00B3FA9
:101AB0009CE5190709F44FC018F50331FCE51F0731
:101AC00009F47DC078F401318CE5180709F473C07E
:101AD00002311C4509F0A4C00E949F1480917C0132
:101AE0008F7733C00531ECE51E0709F472C008F4A6
:101AF00086C00A3F1C4509F093C080917D013EC01D
:101B00000F3F8CE5180709F45FC058F40D3FECE572
:101B10001E0709F444C008F43FC080917D01826033
:101B20002DC001302DE5120709F475C008F45DC021
:101B300002301D4509F074C060E06EC080917C01E8
:101B4000816003C080917C01806180937C0168C0CA
:101B500080917C0111C080917D01826080937D0124
:101B60005FC080917C018062F0CF80917C018064B5
:101B7000ECCF80917C0188608460E7CF8160EECFFC
:101B800080917C018E7FE1CF80917C018D7FDDCFC4
:101B900080917C01877FD9CF80917D0118C0809191
:101BA0007D018D7FDBCF80917C018F7ECECF8091B8
:101BB0007C018F7DCACF80917C018F7BC6CF8091C5
:101BC0007C01877F8B7FC1CF80917D018D7F8E7F50
:101BD000C5CF80917C0182FB222720F991E09227DA
:101BE00090FB82F990FB83F9B0CF80917D01982F13
:101BF000909591708E7F892B90FB81F9AFCF0E94D9
:101C00009F1480917C0187FB222720F991E0922785
:101C100090FB87F99ACF61E08EE090E00E94922CD1
:101C200060917C0110917D0184E090E00E94922CF3
:101C3000612F82E290E00E94922C0E949F14BCCD02
:101C4000F6018281882309F4CECE98E9A92E93E08B
:101C5000B92E2AE0922EF5018491882309F45AC006
:101C6000813009F04FC07501FFEFEF1AFF0AF7014D
:101C70008491813049F47501F2E0EF0EF11CF70117
:101C800084910E94491641C0823049F47501F2E006
:101C9000EF0EF11CF70184910E94AD1536C0833020
:101CA00049F47501F2E0EF0EF11CF70184910E94F6
:101CB00056152BC0843049F57501F2E0EF0EF11C8A
:101CC000F701249180E090E030E0205331092A3080
:101CD000310570F4989EA001999E500D1124C90100
:101CE000840F951FFFEFEF1AFF0AF7012491ECCF45
:101CF000009759F0EFE9FFE03197F1F700C00000DD
:101D00000197F6CF0E944F2675015701FFEFAF1ADA
:101D1000BF0AA1CF8091490281FD65CE0E947D213D
:101D20009093480280934702809149028260809399
:101D3000490259CE0631ECE51E0711F580914602A5
:101D40008A7A91E009F490E09093C301882311F01E
:101D500065E301C069E28EEE91E00E94BF210DC0F3
:101D600006311C45F1F58091C301882309F411C3A4
:101D700065E38EEE91E00E94B2210E944D201CCDC1
:101D80000A35EDE51E0741F150F401152CE5120767
:101D9000A9F00E3D1C4529F50E941C1E0DCD0B35EA
:101DA0009DE51907D9F00C351D45D9F480917D01C9
:101DB00082FB882780F991E0892711C00E949F1437
:101DC000FFEF24E38CE0F15020408040E1F700C0B9
:101DD00000000E941821F0CC81E001C080E00E9448
:101DE000981EF601868197810097B9F4F6018281E9
:101DF00000811181882349F0C8010E94F611F82E54
:101E0000682FC8010E94531404C0C8010E94231403
:101E1000F82EB8018F2D0E9459250E94821CF82EA1
:101E2000192FF601E280058102950F70809143021F
:101E3000877099F0EE2089F0892F807F803421F01F
:101E400080E28F0D883048F082E00E94B91E8091B8
:101E500043028770BB24B3948111B12CA12EA294AC
:101E60008FE0A8228A2D90E08C30910508F0DBC12C
:101E7000FC01EC59FF4F0C94E22C812F807F1F70E6
:101E8000882311F01295107FEE20B9F0112309F488
:101E9000ACC180E28F0D883010F0F11006C0909137
:101EA0004602192B1093460205C090914502192B4A
:101EB000109345020E944D2098C18F2D0E94561507
:101EC000112309F4B0C180E28F0D883010F0F110B9
:101ED00004C0812F0E94911E06C01095909145026A
:101EE0001923109345020E944D209DC1812F807FB0
:101EF0001F70803211F01295107FFF2021F0F1E069
:101F0000FF1691F13BC0EE20D9F00023A9F001307B
:101F100031F480914902812B0E94392084C105301F
:101F200059F40E94861E80914002181310934002BB
:101F3000812F0E944C1577C180914902812BF9CFE6
:101F4000002349F0013069F480914602812309F4AD
:101F50006AC10E94D61E0E94861E812F0E944515CE
:101F600062C10530C1F75FC1EE2021F0063008F0F4
:101F70005AC1DECF053008F056C1EFCFEE2019F080
:101F80000023B1F232C1002341F329E3F21208C069
:101F90008FEF97EEE3E081509040E040E1F73EC1E3
:101FA000FFE728E381E0F15020408040E1F736C1AF
:101FB000812F86958695837019F0813061F033C149
:101FC000EE2021F08F2D912F937002C080E090E0E1
:101FD0000E94EF212EC1EE2021F08F2D912F9370C2
:101FE00002C080E090E00E94D92123C1812F83703C
:101FF000A9F5E1101CC14F2D429546954770440F3D
:10200000440F8F2D8F7090E09C01042E01C0220F91
:102010000A94EAF7F4FE08C08FE090E001C0880F50
:102020004A95EAF7809501C080E0169516951370E1
:10203000123069F088F490914D02113019F0822B22
:10204000892302C0922B892B0E949B14F0C0822B03
:1020500090914D028927F8CF822BF6CFEE2019F010
:10206000812F817001C08695882309F4E0C04F2D2F
:10207000429546954770440F440F8F2D8F7090E026
:102080009C01042E01C0220F0A94EAF7F4FE08C056
:102090008FE090E001C0880F4A95EAF7809501C073
:1020A00080E0169516951370123059F078F49091DF
:1020B000ED01113019F0822B892309C0922B892B55
:1020C00006C0822B9091ED01892701C0822B0E94CE
:1020D0008014ADC01F70EE2039F0812F0E94901443
:1020E0008F2D0E944C15A3C08F2D0E944515812F66
:1020F0000E9484149CC092EFF91659F19F1538F094
:10210000E0EFFE1659F0F1EFFF16E1F069C023EFA2
:10211000F21631F184EFF81681F162C0EE2071F011
:10212000053008F080C01F7181E090E001C0880F89
:102130001A95EAF79091ED0189271CC0063008F046
:1021400072C0F1CFEE2039F0812F8F710E94901470
:102150006AC0EE20C9F3812F8F710E94841463C07E
:10216000EE2039F01F7181E001C0880F1A95EAF75F
:1021700001C080E00E94801456C0EE20D1F0809112
:1021800040020E94911E809143028770843039F48E
:102190000E94B21E812F8F710E94841466C0053088
:1021A00008F063C01F71812F0E94901463E0812F9B
:1021B00010C09091460280914002892B8093460284
:1021C000053050F00E94B21E0E94D61E64E0812F9E
:1021D0008F710E948A2049C081E00E94B91E45C0CB
:1021E000EE2039F0002309F4AFCF8F2D0E94AD15FA
:1021F0001AC0002309F4AFCF99E3F91208C0EFEF3A
:10220000F7EE23E0E150F0402040E1F707C08FE710
:1022100098E3E1E081509040E040E1F700C0000029
:102220008F2D0E94561588EF8A0D843010F40E947D
:102230000522BB20A9F08091430280FD11C0F60168
:1022400012828595859585950E949014C6010E94FD
:10225000230B809143028595859585950E94841472
:1022600060E0C6010E941027A2C0B12CE0CF01316E
:10227000EFE51E0709F0BCCA82E09ACA0238FFE502
:102280001F0709F479CB08F085CB00388FE51807D4
:1022900009F0A0CBDACC81E08093BF010E94052237
:1022A00081FDA1CB89E30E9449169DCB02382FE521
:1022B000120709F461CB08F059C000389FE51907EF
:1022C00009F491CB0138EFE51E0709F488CB033FF1
:1022D0002CE51207A1F406E221EE40EE63EF7CE567
:1022E0000AC0073DFCE51F0709F07DCB06E221EEA1
:1022F00041EE67ED7CE5C6010E946C235DCA043F98
:102300008CE51807A0F4083D9CE5190731F407E2B5
:1023100025EE45EE68ED7CE5EECF093DECE51E07C8
:1023200001F708E221E045EE69ED7CE5E4CF053FE9
:102330002CE5120731F406E221EE42EE65EF7CE572
:10234000DACF053F8CE5180730F407E225EE44EEBE
:1023500064EF7CE5D0CF063F9CE5190709F043CB3D
:1023600007E225EE46EE66EF7CE5C5CF0338FFE5D4
:102370001F0749F4F6018281882309F434CB82E0F7
:102380008093C20135CB04382FE5120709F40CCB3A
:102390009ECF69E2EECC8DE2E816F10409F4CCCAD6
:1023A0009DE2E91692E0F90609F0DECAC5CA0F906F
:1023B0000F900F900F90DF91CF911F910F91FF9091
:1023C000EF90DF90CF90BF90AF909F908F90089547
:1023D00080E090E00E94EF2180E090E00E94D9210F
:1023E00010924502109244020C944D20CF92DF923D
:1023F000FF920F931F93CF93DF936C010091ED0138
:1024000080914D02082BC7E0D0E010E0C8010C2EEF
:1024100002C0959587950A94E2F780FD04C0219744
:10242000A8F7F12C09C0FC2EB6018C2F0E9459256B
:102430000E94821C019799F38F2DDF91CF911F91FC
:102440000F91FF90DF90CF900895CF93DF93EC0131
:102450000E94F611BE010E9459250E94821CDF9144
:10246000CF910895FC0186819781009719F00E9411
:10247000821C04C0808191810E942512292F2F7017
:10248000E92FE295EF704E2F50E0FA013297EE30CF
:10249000F105B8F4E059FF4F0C94E22C803F99F01D
:1024A00018F4883E70F40FC0843F59F40CC0883E85
:1024B00050F0813F31F407C0822F8695869586952E
:1024C000089580E0089581E008959F92AF92BF92B1
:1024D000CF92DF92EF92FF920F931F93CF93DF93F0
:1024E000CDB7DEB765970FB6F894DEBF0FBECDBF90
:1024F0008C0185E0F801DE01519601900D928A95DC
:10250000E1F7F801E2809091F6016091F7014091C6
:10251000F9015091FA014115510531F06F3F31F445
:1025200081E09F3F19F403C081E001C080E0F82FF3
:10253000F1709F2E80FD37C1F80130812181C38069
:10254000D48076EFA72E71E0B72EF090F801F60157
:10255000E41BF50BFF2009F4F5C08091FB01E83C7A
:10256000F10508F0B0C0482F407F09F05AC062134F
:102570001BC0931319C06091FC017091FD01F8011B
:10258000468157816417750779F4FE2CE1100CC061
:102590008F7080618093FB01C5010E94230B8091A5
:1025A000FB01F80185833CC1CD2831F02F3F31F488
:1025B00081E03F3F19F403C081E001C080E080FD6D
:1025C00003C081E08E2502C080E090E0F82FF1701A
:1025D000FF2E80FF1CC080913F024091FE018417B6
:1025E00009F4FCC090E0FC0153E0EE0FFF1F5A9588
:1025F000E1F7E150FE4F5181251306C0508153137E
:1026000003C05281E51203C001968770E8CFFE2C0B
:10261000EE2009F405C18091FB0181608093FB01EC
:102620005EC0621315C0931313C04091FC0150911A
:10263000FD01F801268137814217530749F4E11063
:1026400007C08583C8010E94230B88E0F80190C071
:10265000C8010E943212882381F1EE2071F120918D
:10266000FB01822F82958F7090E00297A4F08091F9
:10267000F6019091F7019A8789871B86DD86CC86C3
:102680002E878091FC019091FD01988B8F87CE0160
:1026900009960E94230B88E0F801A6EFB1E00190B3
:1026A0000D928A95E1F70E94E61E0AC06217C9F0F2
:1026B000C8010E943212811127C0C8010E94230B59
:1026C000FF24F394ADC0482F407F81F786EF91E05F
:1026D0000E94230B88E0F50111928A95E9F7F12C0D
:1026E0009FC09313E5CF4091FC015091FD01F8018B
:1026F0002681378142175307D9F6E110D9CF858358
:10270000C8010E94230B49C0EE20B9F22091FB01C1
:10271000822F82958F7090E002970CF4BCCF80914D
:10272000F6019091F7019A8389831B82DD82CC8226
:102730002E838091FC019091FD0198878F83CE01BB
:102740000196A7CFE83CF10540F5FE2CEE2009F4F8
:10275000B4CF621314C0931312C02091FC013091C6
:10276000FD01F801868197812817390741F488E037
:10277000A6EFB1E001900D928A95E1F751C0C80132
:102780000E943212811187CF8091FB01816080937A
:10279000FB01C8010E94230B43C088E0F5011192A0
:1027A0008A95E9F73DC0EE2009F487CFC8010E9461
:1027B0003212F82E882309F480CF88E0F801A6EFC2
:1027C000B1E001900D928A95E1F78091F601909128
:1027D000F7010E9425120E94E61E22C0398B2A8B27
:1027E00089899A890E942512292F22952F702230DB
:1027F00028F49F7039F0811105C00BC0243028F4F3
:102800009F7049F4805E883020F0C8010E94230B3D
:102810009F2CF92C05C0F8019581907F99F7F9CF8D
:102820008F2D65960FB6F894DEBF0FBECDBFDF913A
:10283000CF911F910F91FF90EF90DF90CF90BF90BD
:10284000AF909F9008959E3F61F128E0929F800D88
:102850001124682F669566956695982F977083E08A
:10286000689FB001112440E050E080E0FB01E40FDC
:10287000F51FEC53FE4F208130E0092E02C0369543
:1028800027950A94E2F721703327042E01C0220F06
:102890000A94EAF7822B4F5F5F4F4330510531F7BF
:1028A000089580E008959E3F51F128E0929F800DA9
:1028B0001124E82FE695E695E695877051E001C072
:1028C000550F8A95EAF783E0E89FF0011124EC5355
:1028D000FE4F20E030E070E04081CB01022E02C0CC
:1028E000969587950A94E2F78170819584278523D0
:1028F000842781932F5F3F4F2330310569F7089577
:102900008093ED010C94E81121E030E001C0220F2A
:102910008A95EAF720958091ED0182230C9480142A
:1029200021E030E001C0220F8A95EAF78091ED01A5
:10293000822B0C94801480934D020C94E811109219
:10294000460286E0E0EFF1E0DF011D928A95E9F7AB
:102950000C94E811CF93DF93CDB7DEB760970FB635
:10296000F894DEBF0FBECDBF29873A874B875C87BF
:102970006D877E878F87988BCE0109960E9465129E
:10298000811151C088E0FE013996DE011196019057
:102990000D928A95E1F779856A854C855D854115AB
:1029A000510531F06F3F31F481E07F3F19F403C0EE
:1029B00081E001C080E080FD36C0A091FE01B0E062
:1029C000CD0101968770992720913F0230E0821750
:1029D000930781F179836A835D834C8393E0AA0F27
:1029E000BB1F9A95E1F7A150BE4F98E0FE013196CA
:1029F00001900D929A95E1F78093FE010E94DC1EF2
:102A000012C028E0829FC001112481509E4F0E9475
:102A100065128823E1F080913F0290E00196877073
:102A2000992780933F0280913F029091FE01891384
:102A3000E8CF0DC00E949F141092FE0110923F0239
:102A4000E6EFF1E088E0DF011D928A95E9F76096F4
:102A50000FB6F894DEBF0FBECDBFDF91CF910895C2
:102A6000882341F080959091450289238093450207
:102A70000C944D200895882339F090914502892BBC
:102A8000809345020C944D200895882321F00E94E4
:102A9000911E0C944D200895882339F090914602A0
:102AA000892B809346020C944D200895882309F4C5
:102AB00053C0682F823869F40E94052281FF4CC000
:102AC00069E38EEE91E00E94BF210E944D2069E3F0
:102AD0000EC0833891F40E94052280FF3DC063E55B
:102AE0008EEE91E00E94BF210E944D2063E58EEEA4
:102AF00091E00E94B2210C944D20843869F40E9428
:102B0000052282FF29C067E48EEE91E00E94BF217A
:102B10000E944D2067E4EBCF8CEF860F813A38F3AB
:102B200080E2860F883048F4677081E001C0880F2A
:102B30006A95EAF70E94911EDECF8BE5860F8330FF
:102B400020F480E090E00C94EF21685A673120F483
:102B500080E090E00C94D9210895CF93882309F464
:102B600096C0C82F8238B1F40E94052281FD8FC023
:102B700069E38EEE91E00E94BF210E944D202FEF6D
:102B800081EE94E0215080409040E1F700C00000C9
:102B900069E317C08338E1F40E94052280FD77C005
:102BA00063E58EEE91E00E94BF210E944D202FEF41
:102BB00081EE94E0215080409040E1F700C0000099
:102BC00063E58EEE91E00E94B221CF910C944D20EE
:102BD0008438B1F40E94052282FD59C067E48EEE6C
:102BE00091E00E94BF210E944D202FEF81EE94E0E2
:102BF000215080409040E1F700C0000067E4E1CF41
:102C00008CEF8C0F813A80F4E0EFF1E086EF91E0F9
:102C10002191C217A1F18E179F07D1F76C2F8EEE6D
:102C200091E00E94BF21D1CF80E28C0F883068F400
:102C3000C77081E090E001C0880FCA95EAF79091D3
:102C40004602892B80934602C0CFEBE5EC0FE330C0
:102C500040F4F0E0E85BFE4F808190E0CF910C946F
:102C6000EF21C85AC73198F4EC2FF0E0EE0FFF1FA8
:102C7000E55BFE4F80819181CF910C94D9216C2F1F
:102C80008EEE91E00E94B2210E944D20C7CFCF91DD
:102C900008951F93CF93DF93182F893319F0C9E15B
:102CA000D0E002C0C0E5D0E0812F0E94AD158FE9D1
:102CB0009FE00197F1F700C000002197C1F7812F35
:102CC000DF91CF911F910C9456158091E40187FFFD
:102CD00011C08091E80082FD05C08091EC01811156
:102CE000F8CF11C08091E8008B770BC08091EC0188
:102CF000882349F08091E80080FFF8CF8091E800B8
:102D00008E778093E8000895982F973068F5909318
:102D1000E900981739F07091EC002091ED00509186
:102D2000F00003C0242F762F50E021FD02C09F5FEA
:102D3000ECCF3091EB003E7F3093EB003091ED0013
:102D40003D7F3093ED003091EB0031603093EB002C
:102D50007093EC002093ED005093F0002091EE0072
:102D600027FDE5CF80E008958F708093E90081E032
:102D700008952091EA013091EB012617370748F0BA
:102D80006115710539F42091E8002E772093E80051
:102D900001C0B901FC0120E06115710579F1809154
:102DA000EC018823F1F18530F1F18091E80083FD99
:102DB0003CC08091E80082FD2EC08091E80080FF39
:102DC000EBCF2091F3008091F20090E0922B6115FF
:102DD000710551F08830910538F421912093F1006C
:102DE000615071090196F3CF21E0089709F020E0C6
:102DF0008091E8008E778093E800CECF2111CFCF6D
:102E00000AC08091EC01882361F0853061F08091E7
:102E1000E80083FD0AC08091E80082FFF2CF80E0E5
:102E2000089582E0089583E0089581E00895BC014B
:102E300084E00C94EE20BC0183E00C94EE208091A1
:102E4000ED01982F9670963011F4886001C0877F4D
:102E50000C9480141F93CF93DF93CDB7DEB7AA975E
:102E60000FB6F894DEBF0FBECDBFE4EEF1E0809167
:102E7000F100819341E0EC3EF407C9F78091E50150
:102E8000833009F462C030F4813071F0823009F48B
:102E90009CC0B3C08A3009F488C08B3009F46DC07F
:102EA000893009F0AAC020C08091E401813A09F07C
:102EB000A4C08091E800877F8093E8008091E801BA
:102EC0009091E901892B21F468E089ED91E003C03C
:102ED00060E080E090E070E00E94B9168091E80028
:102EE0008B778093E80089C08091E401813209F0FA
:102EF00084C08091E8019091E901009719F0029750
:102F000009F07BC08091E800877F8093E800809182
:102F1000E80082FD05C08091EC018111F8CF6DC001
:102F20002091F3008091F20090E0922B029729F417
:102F30008091F1008B7F813021F48091F1008093AA
:102F4000D8018091E8008B7754C08091E401813AE8
:102F500009F053C08091E8019091E901892B09F0B3
:102F60004CC08091E800877F8093E8008091E80062
:102F700080FFFCCF80910B0137C08091E40181324A
:102F8000E1F58091E8019091E901892BB1F58091FB
:102F9000E800877F8093E8000E9465168091E60133
:102FA00080930B010E949F1428C08091E40181321C
:102FB00021F58091E800877F8093E8000E946516E4
:102FC0008091E7018093D70118C08091E401813A94
:102FD000A1F48091E800877F8093E8008091E80069
:102FE00080FFFCCF8091D7018093F1008091E800B1
:102FF0008E778093E8000E9465168091E80083FF39
:10300000E9C18091E4019091E501492F50E04A30F7
:10301000510508F0DFC1FA01E258FF4F0C94E22C91
:10302000803821F0823809F0D5C108C08091E101D3
:103030009091E201992389F082600FC08091E801AC
:103040008F70873008F0C6C18093E9008091EB0053
:1030500085FB882780F91092E9009091E800977F1E
:103060009093E8008093F1001092F1007CC1282F2A
:103070002D7F09F0AFC1882319F0823061F0AAC119
:103080008091E601813009F0A5C1933009F080E01C
:103090008093E2012EC08091E60181112AC08091C7
:1030A000E8018F702FEF280F263008F093C180932E
:1030B000E9002091EB0020FF1CC0933021F48091A7
:1030C000EB00806214C09091EB0090619093EB0054
:1030D00021E030E0A90102C0440F551F8A95E2F7B4
:1030E0004093EA001092EA008091EB0088608093A0
:1030F000EB001092E9008091E800877F8093E80060
:103100000E94651667C1811165C11091E6011F77A4
:103110008091E3008078812B8093E3008091E80028
:10312000877F8093E8000E9465168091E80080FF09
:10313000FCCF8091E30080688093E300111102C00E
:1031400082E001C083E08093EC0144C1805882306A
:1031500008F040C12091E6013091E7012C3D53E099
:10316000350779F583E08A838AE289834FB7F8943B
:10317000DE01139620E03EE051E2E32FF0E05093B1
:103180005700E49120FF03C0E295EF703F5FEF70BE
:103190008E2F90E0EA3010F0C79601C0C0968D9354
:1031A0009D932F5F243149F74FBF8091E800877FBF
:1031B0008093E8006AE270E0CE0101960E94B916A1
:1031C000C0C08091E8019091E901432F5527433019
:1031D0005105B1F068F44130510509F40AC142309B
:1031E000510509F0F7C08BE590E0EEE7F4E057C039
:1031F0004132510589F14232510509F43CC0EAC01F
:10320000C901992781309105B9F070F0823091059C
:10321000D9F0039709F0DEC0EBEEF4E0E4918E2FD5
:1032200090E0EBEEF4E038C0E9E5F5E0E4918E2FB4
:1032300090E0E9E5F5E030C0EDE3F5E0E4918E2FB4
:1032400090E0EDE3F5E028C0E9E0F5E0E4918E2FB1
:1032500090E0E9E0F5E020C08330910508F0BAC0C5
:10326000880F991FFC01EE5BFE4F0190F081E02D6D
:1032700089E090E014C08330910508F0ABC0FC01F8
:10328000EE0FFF1FE45CFE4F0190F081E02DDC01AA
:10329000A75CBE4F8C9190E0009709F49BC02091F1
:1032A000E800277F2093E8002091EA013091EB01AC
:1032B0002817390708F4C90140E0009789F12091E7
:1032C000EC01222309F43DC02530D9F12091E8001A
:1032D00023FD37C02091E80022FD2FC02091E80097
:1032E00020FFEBCF4091F3002091F20030E0342B2F
:1032F000009759F02830310540F444914093F10093
:10330000319601972F5F3F4FF3CF41E028303105D1
:1033100009F040E02091E8002E772093E800CDCF1F
:103320004111CDCF0AC08091EC01882351F0853046
:1033300041F08091E80083FD04C08091E80082FFA5
:10334000F2CF8091E8008B778093E80043C080380B
:1033500009F040C08091E800877F8093E800809169
:10336000E3018093F1008091E8008E77C7CE811150
:1033700031C08091E6019091E7019927029754F5B9
:103380008091E800877F8093E8001091E601109318
:10339000E3010E946516111106C08091E30087FDCC
:1033A00002C081E001C084E08093EC0142E061EC66
:1033B00081E00E94841642E261EC84E00E9484165F
:1033C00042E261EC82E00E94841642E260EC83E01B
:1033D0000E9484168091E80083FF10C08091E8006D
:1033E000877F8093E8008091EB0080628093EB0000
:1033F00005C082E190E0E9EDF4E051CFAA960FB666
:10340000F894DEBF0FBECDBFDF91CF911F9108951D
:103410001F920F920FB60F9211242F933F934F9349
:103420005F936F937F938F939F93AF93BF93CF934C
:10343000DF93EF93FF93C091E900CF708091EC0090
:10344000D82FD17080FDD0E81092E9008091F00073
:10345000877F8093F00078940E942A171092E900E9
:103460008091F00088608093F000CD2BCF70C093E6
:10347000E900FF91EF91DF91CF91BF91AF919F91C3
:103480008F917F916F915F914F913F912F910F900D
:103490000FBE0F901F901895E8EDF0E080818E7FB1
:1034A00080831092E2001092DA001092E100A0EE08
:1034B000B0E08C9181608C9380818F77808319BC80
:1034C000A7EDB0E08C918E7F8C9380818F7E80837E
:1034D0001092D6010895CF92DF92EF92FF920F9350
:1034E0001F93CF93DF93C8EDD0E088818F7E8883D0
:1034F000E7EDF0E080818160808384E082BF81E03D
:103500008093D60188818E7F888302EE10E0F801D7
:1035100010821092DA0081EEC82ED12CF6011082B2
:1035200088818F77888388818068888388818F7D70
:10353000888319BC1092EC011092E3011092E20111
:103540001092E10190EEE92EF12CF70180818B7F42
:10355000808388818160888342E060E080E00E940F
:103560008416F60180818E7F8083F80180818160DE
:103570008083808188608083F70180818E7F808353
:10358000888180618883DF91CF911F910F91FF9097
:10359000EF90DF90CF9008951F920F920FB60F9289
:1035A00011242F933F934F935F936F937F938F9348
:1035B0009F93AF93BF93EF93FF938091E10082FFBE
:1035C00009C08091E20082FF05C08091E1008B7FFD
:1035D0008093E1008091DA0080FF2AC08091D800BA
:1035E00080FF26C08091DA008E7F8093DA00809180
:1035F000D90080FF18C080E189BD82E189BD09B48E
:1036000000FEFDCF81E08093EC018091D601811115
:103610000FC00E944C1A0E946B1A8091E2008460D5
:103620008093E20005C019BC1092EC011092D60103
:103630008091E10080FF17C08091E20080FF13C0FD
:103640008091E2008E7F8093E2008091E2008061B1
:103650008093E2008091D80080628093D80019BCEA
:1036600085E08093EC018091E10084FF2EC0809181
:10367000E20084FF2AC080E189BD82E189BD09B4EE
:1036800000FEFDCF8091D8008F7D8093D80080917F
:10369000E1008F7E8093E1008091E2008F7E809335
:1036A000E2008091E20081608093E2008091E3017A
:1036B000882311F084E007C08091E30087FD02C0F9
:1036C00081E001C083E08093EC018091E10083FF01
:1036D00027C08091E20083FF23C08091E100877FB3
:1036E0008093E10082E08093EC011092E3018091ED
:1036F000E1008E7F8093E1008091E2008E7F8093D5
:10370000E2008091E20080618093E20042E060E0AC
:1037100080E00E9484168091F00088608093F00021
:10372000FF91EF91BF91AF919F918F917F916F9199
:103730005F914F913F912F910F900FBE0F901F906F
:1037400018952091E4003091E50095E64091EC0059
:10375000842F817040FF23C08091E80080FD1DC050
:103760008091EC01882399F0853099F08091EB00ED
:1037700085FD11C04091E4005091E5002417350704
:1037800029F3915011F09A01E1CF84E0089582E08D
:10379000089583E0089581E0089580E008954091C0
:1037A000E80042FFDDCF0895EF92FF920F931F9341
:1037B000CF93DF937C018B010E94A11B811119C063
:1037C000E70101151105A1F08091E80085FD0AC00F
:1037D0008091E8008E778093E8000E94A11B8823E7
:1037E00081F307C089918093F10001501109E9CF5D
:1037F00080E0DF91CF911F910F91FF90EF9008959E
:10380000CF932091EC012430F9F4C091E900CF70FE
:103810003091EC00232F217030FD20E8C22B22E0F4
:103820002093E9002091E80020FF0BC040E050E029
:1038300060E270E00E94D41B8091E8008E77809354
:10384000E800CF70C093E900CF91089580E008951B
:1038500090917C0192FF0DC0282F2871283019F417
:10386000877F846006C0282F2471243011F48B7F59
:10387000886093FF0DC0282F2871283119F4877EA6
:10388000846106C0282F2471243111F48B7E886155
:1038900020917D0120FF0DC0382F3871383019F488
:1038A000877F816006C0382F3171313011F48E7FEF
:1038B000886021FF0DC0282F2871283119F4877ED8
:1038C000816106C0282F2171213111F48E7E88611B
:1038D00094FD877E0895F894E82FE295EF70F0E06C
:1038E00031A1282F2F7081E090E001C0880F2A9528
:1038F000EAF7982F9095932391A392A1892B82A305
:1039000078940895CF93DF938238910569F1B0F4EC
:103910008133910509F46FC048F48932910509F4A7
:1039200065C08A32910509F46BC08AC08533910560
:1039300009F457C089339105B9F082C0833E9105DF
:1039400071F138F4803E9105B1F0823E910511F19C
:1039500077C0863E9105B9F1873E9105C9F1843E55
:10396000910509F06DC024C020917C0120FD53C059
:1039700021FD51C065C080917C0180FD46C08091D1
:103980007D0180FF48C080917C0184FD3FC183EEB2
:1039900090E03EC180917C0182FF3AC0F4CF8091DB
:1039A0007C0182FD35C080917D0180FD34C0EBCF6C
:1039B00080917D0181FF35C080917C0184FD26C10D
:1039C00087EE90E025C180917C0183FF27C0F4CF72
:1039D00080917C0183FD22C080917D0181FD21C009
:1039E000EBCF80917C0185FD1FC021C080917C01BF
:1039F00085FD1DC019C080917C0186FD1BC01DC0C6
:103A000080917C0186FD19C015C089E390E000C15A
:103A100082EE90E0FDC080EE90E0FAC086EE90E08D
:103A2000F7C084EE90E0F4C089E290E0F1C085E355
:103A300090E0EEC08AE290E0EBC081E390E0E8C065
:103A4000811532E5930708F069C0811541E59407B7
:103A500028F0982F8827816F906ADAC0883E9105F8
:103A600068F5803E910508F0D3C0883A9105B8F416
:103A7000853A910548F0855AE82FF0E0E85BFE4F63
:103A8000808190E09064C4C08130910509F4BBC08E
:103A900008F4BCC08430910508F4B8C0B9C08F3BAD
:103AA000910508F0B3C0885AE82FF0E0EE0FFF1F31
:103AB000E55BFE4F808191819464AAC0811520E569
:103AC0009207F0F09C0174E0369527957A95E1F71E
:103AD000922F9370482F437021E030E002C0220FF4
:103AE000331F4A95E2F73C68392B8F70982F9695D3
:103AF000969540E2949FC0011124822B932B88C09D
:103B0000811530E4930718F09F70906A81C09C0182
:103B10003A9521153F4108F47BC078C0EC01C115EE
:103B200086E5D807E8F5C11525E5D20748F08C2FC2
:103B30000E94281C8F7190E0982F8827906268C09F
:103B4000C11534E5D30728F09C2F8827846F906A2D
:103B50005FC0AE01437055272C2F26952695C115C1
:103B6000D34578F481E090E002C0880F991F4A9510
:103B7000E2F740E2249F90011124822B932B9C6852
:103B800047C081E090E002C0880F991F4A95E2F794
:103B900040E2249F90011124822B932B9A6838C015
:103BA000C1152AE5D207F8F4C11539E5D30790F01D
:103BB0008C2F8F700E94281C94E0D695C7959A95FB
:103BC000E1F7CF70D0E0DC2FCC27D0699E01282B05
:103BD000C9011EC0C11548E5D407C0F09C2F882735
:103BE000806F906A15C0CE0190568115904270F496
:103BF0008D2F8F710E94281C282F2F71CE0199279D
:103C00009062922B05C081E090E002C080E090E0DD
:103C1000DF91CF910895CF9384E090E00E94842CAF
:103C2000C82F82E290E00E94842C2C2F30E0A90162
:103C3000582BCA01CF9108956AEE7EEF80E090E0A4
:103C40000E94B02C60E082E090E00E94922C60E044
:103C500083E090E00E94922C10924D0260E084E09C
:103C600090E00E94922C60E082E290E00E94922C10
:103C700060E085E090E00E94922C60E086E090E0B9
:103C80000E94922C6FEF87E090E00E94922C40E01F
:103C900050E0BA0188E090E00E94A42C60E08DE042
:103CA00090E00E94922C40E050E0BA0188E190E060
:103CB0000E94A42C60E087E190E00E94922C40E0FA
:103CC00050E0BA018CE190E00E94A42C60E070E02A
:103CD00080E290E00E94B02C40E050E0BA0188E120
:103CE00090E00E94A42C80E00E94362A0E94542A70
:103CF00040E050E0BA018FE090E00E94A42C40E048
:103D000050E0BA0183E190E00C94A42C8091490228
:103D1000882331F010924902109248021092470213
:103D200008958095909146028923809346020895D4
:103D3000CF93C0917D01C2FB992790F9981781F02C
:103D400080FBC2F9C0937D0160917C0184E090E02A
:103D50000E94922C6C2F82E290E0CF910C94922CD6
:103D6000CF910895109243021092420210924102A4
:103D70000895209143028095822380934302982FD7
:103D8000977041F430E0482F082E000C550B241793
:103D9000350721F490917D0192FF07C085958595A7
:103DA00085950E9484140C94B21E0895809140025F
:103DB000811110924002089580913F029091FE017E
:103DC000891719F08F5F8770FBCF08951F93CF93EA
:103DD000DF938091FB0182958F7009F05CC0809128
:103DE000F801882309F457C080913F021091FE0129
:103DF0006091F6017091F701C091F901D091FA013B
:103E000091E06F3F09F090E0292F811709F443C03A
:103E1000209721F07F3F21F030E003C031E001C066
:103E2000322F90E030FD34C0FC0133E0EE0FFF1F75
:103E30003A95E1F7DF01A150BE4F11963C911197E1
:103E4000371326C03C91361323C012963C9112972B
:103E500031111EC013964D915C9114974C1B5D0B54
:103E6000483C5105A8F48091FB018F7080618093DC
:103E7000FB01EC5FFD4F80818F708061808386EF56
:103E800091E00E94230BDF91CF911F910C94DC1ED7
:103E900001968770BACFDF91CF911F9108959F92BD
:103EA000AF92BF92CF92DF92EF92FF920F931F9348
:103EB000CF93DF9300D000D000D0CDB7DEB7AE01F6
:103EC0004F5F5F4F7A0186E0FA0111928A95E9F718
:103ED00005E111E05A01CC24C394D12CF801808172
:103EE0008F3F09F447C0F894E82FE295EF70F0E0B7
:103EF00021A18F70A60102C0440F551F8A95E2F7D9
:103F0000CA01922F982B91A392A18095892382A315
:103F1000789400C0EBE1F1E020E030E0912C419199
:103F20004F3FB1F0A42FA295AF70B0E090968C9166
:103F300090E04F7002C0959587954A95E2F780FD15
:103F400007C08C2D022E01C0880F0A94EAF701C029
:103F500080E0982A2F5F3F4F2830310501F7F801A4
:103F600080818F3F11F00E946B1CF0EAFA95F1F707
:103F7000F50190820F5F1F4FFFEFAF1ABF0A41E0BC
:103F80000B31140709F0AACF46E050E0B7018EE7E5
:103F900091E00E94EF2C11E0009709F410E0892BCA
:103FA00089F086E0F701AEE7B1E001900D928A95C5
:103FB000E1F781E080934C020E947D2190934B02B7
:103FC00080934A0280914C028823A1F080914A029A
:103FD00090914B020E946221059760F0EEE7F1E0BC
:103FE000A9EBB1E081918D9351E0E438F507D1F769
:103FF00010924C0280910C01882341F180914D0375
:1040000090914E03009711F10E9462212091A70226
:104010003091A80228173907C8F490914B0380917A
:104020004C03981759F00E94BD221092A8021092DA
:10403000A70210924E0310924D0308C00E943F2227
:1040400010924E0310924D030E949E22812F2696BD
:104050000FB6F894DEBF0FBECDBFDF91CF911F9199
:104060000F91FF90EF90DF90CF90BF90AF909F9017
:104070000895CF9390917D0192FD0DC090914902DA
:10408000981749F0C82F0E947D2190934802809391
:104090004702C0934902CF910895909146028091C2
:1040A0004502892B90914402892B8093EE018091E7
:1040B0004902882311F10E947D212091470230910D
:1040C0004802821B930B8838934110F00E94861E91
:1040D0009091EE0180914902892B8093EE01E0EFEF
:1040E000F1E097E080E0915029F021912223D9F36B
:1040F0008F5FF9CF81110E94861EE0915103F091EC
:104100005203309731F00280F381E02D8EEE91E082
:104110000994089590917D0192FD10C098E0899FC7
:1041200090011124262B209343020E9490140E9498
:104130007D21909342028093410208950C94901443
:104140008091D801089524E02093E9002FEF309169
:10415000E800215035FD06C035ED3A95F1F7000035
:104160002111F5CF2091E80025FF0BC040E050E081
:1041700066E070E00E94D41B8091E8008E77809307
:10418000E8000895CF93DF9321E02093E9002FEF1B
:104190003091E800215035FD06C035ED3A95F1F734
:1041A00000002111F5CF2091E80025FF14C0EC019B
:1041B00040E050E068E070E00E94D41B8091E8008D
:1041C0008E778093E80088E0FE01A9EDB1E00190D0
:1041D0000D928A95E1F7DF91CF9108959091EC01CE
:1041E000943029F580935A0370935C0360935B03CA
:1041F0009093E9008FEF9091E800815095FD06C003
:1042000095ED9A95F1F700008111F5CF8091E800C6
:1042100085FF0DC040E050E063E070E08AE593E088
:104220000E94D41B8091E8008E778093E800089567
:1042300081E08093E00080E28093D8001092C90072
:104240008FE19EE40197F1F700C0000087E090EB5A
:10425000DC0180935D0390935E03A0935F03B093B2
:1042600060039CE088E10FB6F894A8958093600005
:104270000FBE90936000FFCF78941F920F920FB6FD
:104280000F9211248F939F93AF93BF938091560306
:1042900090915703A0915803B09159030196A11D25
:1042A000B11D8093560390935703A0935803B09386
:1042B0005903BF91AF919F918F910F900FBE0F90B7
:1042C0001F9018959C014FB7F894809156039091D8
:1042D0005703A0915803B09159034FBF821B930B12
:1042E00008952FB7F8946091560370915703809109
:1042F0005803909159032FBF08952FB7F8948091D8
:10430000560390915703A0915803B09159032FBFC2
:1043100008951F920F920FB60F9211248F939F93BF
:10432000AF93BF9380915503811113C080915603C1
:1043300090915703A0915803B09159034196A11D44
:10434000B11D8093560390935703A0935803B093E5
:104350005903BF91AF919F918F910F900FBE0F9016
:104360001F9018959C012A5F3F4FFC014281461324
:1043700001C01282019682179307B9F708959C0134
:10438000FC0132969FEF80E04191461789F09F3FF4
:1043900019F4411101C0982F8F5F8630A9F79F3F14
:1043A00039F0F901E90FF11D97FDFA95628308953F
:1043B000089520915303309154032817390771F061
:1043C0009093540380935303E0915103F09152036F
:1043D000309721F00084F185E02D09940895209113
:1043E0004F03309150032817390771F09093500311
:1043F00080934F03E0915103F0915203309721F0E5
:104400000680F781E02D09940895E0915103F09121
:104410005203309721F00190F081E02D099480E063
:104420000895BC0140914B0380914C03942F981741
:1044300029F1292F30E0F901EE0FFF1FED5BFC4F52
:104440000190F081E02DE617F70799F487E0869F49
:10445000F001879FF00D1124E55FFC4F81E084831C
:1044600094130CC02F5F3F4F2370332720934B03CF
:1044700008952F5F3F4F922F9370D9CF08950F93D8
:104480001F93CF93DF938091AA02882309F451C030
:10449000C091A9021CE08091AA02C81708F045C08B
:1044A00001E00C0F0093A902D0E01C9FF0011D9FBA
:1044B000F00D1124E555FD4F9081818123813481D8
:1044C000232B31F08F3F31F481E09F3F19F403C07B
:1044D00081E001C080E080FD26C01C9FD0011D9FAF
:1044E000B00D1124A555BD4F16968D919C9117972F
:1044F000892B31F418968D919C911997019651F45E
:1045000020813181428153816481758186819781C7
:104510000E94AA141C9FF0011D9FF00D1124E55567
:10452000FD4F14821382C02FB6CF1092AA021092B0
:10453000A902DF91CF911F910F9108951092A802C7
:104540001092A702EBE0F3E08581811102C0148292
:104550001682379683E0E334F807B1F70895109296
:104560004E0310924D0310920C0180914C038093E6
:104570004B030E949E220C943F223F924F925F92E7
:104580006F927F928F929F92AF92BF92CF92DF9263
:10459000EF92FF920F931F93CF93DF93C0914B0342
:1045A00097E0892E01E010E02CE0322E3EEF932EB2
:1045B0004424439480914C03C81709F478C0D0E098
:1045C000FE01EE0FFF1FED5BFC4F80819181889E05
:1045D000D001899EB00D1124A55FBC4F14962C917B
:1045E0001497211161C05090AA02EBEAF2E020E09A
:1045F00030E0712C5D01251508F054C0E284F3848D
:10460000D501CD90DC906FEF7FEF612C462D50E00F
:10461000DA01AA0FBB1FAC0DBD1D0D90BC91A02DE2
:10462000109731F0EA16FB0609F4BA016394EECF55
:104630006F3FBFEF7B0791F1D80102C0AA0FBB1FEC
:104640006A95E2F77A2AB80102C0660F771F6A946A
:10465000E2F7AB0141505109672D70E0461757074B
:10466000D9F4329EF001339EF00D1124E555FD4F33
:10467000889ED001899EB00D1124A55FBC4F129673
:104680002D913C9113973783268390829182918755
:10469000808715964C9206C0148213822F5F3F4F7D
:1046A0003C96A9CF0E9411222196C37083CF0E940D
:1046B0003F22DF91CF911F910F91FF90EF90DF90FC
:1046C000CF90BF90AF909F908F907F906F905F90B2
:1046D0004F903F900C949E220F931F93CF93DF93A4
:1046E000C42FD22FFC0182818823C9F04093A602F7
:1046F0000E947D219093A5028093A40280E28C0FFA
:10470000883008F057C0C77081E001C0880FCA9593
:10471000EAF7DF91CF911F910F910C944C15809186
:10472000A602481330C08091A4029091A5020E9475
:104730006221883C910538F510E21D0FCD17B9F0C4
:1047400080E28C0F883040F4C77081E001C0880F90
:10475000CA95EAF70E944515183028F581E09D2F8B
:10476000977001C0880F9A95EAF70E944C15802F28
:104770000E9449161830F0F4D77081E001C0880F0C
:10478000DA95EAF70AC080E28C0F883098F4C77097
:1047900081E001C0880FCA95EAF7DF91CF911F91A0
:1047A0000F910C944515802FDF91CF911F910F91A0
:1047B0000C944916DF91CF911F910F910895CF93DB
:1047C000DF93C3E9D2E060E0CE010E94922C2196F3
:1047D000C11584E0D807B9F7DF91CF9108950F9301
:1047E0001F93CF93DF93853068F5633058F54230DF
:1047F00048F521159CE5390731F4E0919E02F091CE
:104800009F02EF2BF9F08901282F34E0639FC0014C
:1048100011243CE0239F800D911D1124840F911DD4
:10482000840F911DEC01C95FDD4F612FCE010E9405
:10483000922C602FCE010196DF91CF911F910F91A5
:104840000C94922CDF91CF911F910F9108950F93AB
:104850001F93CF93DF93853018F5633008F542300E
:10486000F8F4282F34E0639FC00111243CE0239F1B
:10487000800D911D1124840F911D840F911DEC0159
:10488000C95FDD4FCE010E94842C90E0182F0027D5
:10489000CE0101960E94842C9801282BC90102C0E8
:1048A00080E090E0DF91CF911F910F9108950F93D9
:1048B0001F93CF93DF93853058F5663048F5483025
:1048C00038F521159CE5390731F4E0919E02F0910D
:1048D0009F02EF2BE9F08901C42FD0E0CC0FDD1F40
:1048E00090E1699FC00DD11D112490E6899FC00DF4
:1048F000D11D1124612FCE0187960E94922C602F2A
:10490000CE018896DF91CF911F910F910C94922C3C
:10491000DF91CF911F910F9108954F925F926F9207
:104920007F928F929F92AF92BF92CF92DF92EF923F
:10493000FF920F931F93CF93DF93CDB7DEB72A97E4
:104940000FB6F894DEBF0FBECDBF60909E02709090
:104950009F0281E090E090939F0280939E029DE5EC
:10496000A92E95E0B92EC12CD12C512C412CE12C33
:10497000F12C00E010E047018C0C9D1CF401E00FCD
:10498000F11FEE0FFF1FE756FA4F25913491402F8C
:10499000642D852D0E9457240F5F1F4F083011058D
:1049A00069F788E0E80EF11C439496E04912E1CFE4
:1049B000750110E0F7012591349140E0612F852DBC
:1049C0000E94EF23F70132962591349141E0612F47
:1049D000852D0E94EF23E4E0EE0EF11C1F5F1330E3
:1049E00049F7FCE0AF0EB11C539480E3C80ED11C14
:1049F00095E05912BBCFFE0131967F018AE01192FA
:104A00008A95E9F703E412E04AE050E0B801C701F3
:104A10000E94B62C065F1F4F0339F2E01F07A1F773
:104A200070929F0260929E022A960FB6F894DEBFA3
:104A30000FBECDBFDF91CF911F910F91FF90EF90EF
:104A4000DF90CF90BF90AF909F908F907F906F90AE
:104A50005F904F9008950F931F93CF93DF9385300E
:104A600008F56630F8F44830E8F4C42FD0E0CC0FF5
:104A7000DD1F20E1629FC00DD11D112430E6839F10
:104A8000C00DD11D1124CE0187960E94842C90E088
:104A9000182F0027CE0188960E94842C9801282B7D
:104AA000C90102C080E090E0DF91CF911F910F918A
:104AB0000895462F2091A2023091A302232B91F456
:104AC0007E3F39F46E3F71F48091A0029091A10273
:104AD0000895853038F4763028F4683018F4672F5C
:104AE0000C942B2580E090E00895CF92DF92EF9216
:104AF000FF920F931F93CF93DF93CDB7DEB72A9723
:104B00000FB6F894DEBF0FBECDBF80E5EEE4F2E055
:104B1000DF011D928A95E9F788E3EBE0F3E0DF011E
:104B20001D928A95E9F78EE4C82E82E0D82E7F0187
:104B300003E412E0F701D182C0824AE050E0B801FC
:104B4000CE0101960E94742C88E0FE013196D601B8
:104B500001900D928A95E1F789859A85D701139680
:104B60009C938E931297BAE0CB0ED11CE7E0EE0E29
:104B7000F11C065F1F4F0339F2E01F07D9F62A9692
:104B80000FB6F894DEBF0FBECDBFDF91CF911F915E
:104B90000F91FF90EF90DF90CF900895AF92BF926A
:104BA000CF92DF92EF92FF920F931F93CF93DF93F9
:104BB000B82EA62EC090ED0180914D02C82AC7E004
:104BC000D0E0D12CE12CF12CD701C6010C2E04C071
:104BD000B695A795979587950A94D2F780FF13C04D
:104BE0004A2D6B2D8C2F0E9427248C01813091053A
:104BF00051F00E94AC2A8FE39CE90197F1F700C0C5
:104C00000000C80111C02197F8F64A2D6B2D80E0F5
:104C10000E942724EC010E94AC2A8FE39CE90197B3
:104C2000F1F700C00000CE010E947C2A81E0DF91F4
:104C3000CF911F910F91FF90EF90DF90CF90BF9099
:104C4000AF9008959C013A9521153F4130F5BC0184
:104C500066277270AC01442754709C01222738707B
:104C600094FF0FC090FF02C080E101C080E0672B7D
:104C700009F08062452B09F08064232B79F080686D
:104C80000895892F8170672B09F08260452B09F008
:104C90008460232B19F08860089580E00895DF92E6
:104CA000EF92FF920F931F93CF93DF93E82FF0E0E3
:104CB000E755F84FD490282F26952695269530E075
:104CC000F901E756F84F0491877010E0082E02C0F2
:104CD000159507950A94E2F701701127F901E75736
:104CE000F84FE490F12C082E02C0F594E7940A9452
:104CF000E2F791E0E922FF24F901E758F84FC49167
:104D0000D0E002C0D595C7958A95E2F7C170DD273E
:104D10000115110519F081EE0E94AD15E114F104A1
:104D200019F086EE0E94AD158D2D0E944916EF28D0
:104D300019F086EE0E945615012B19F081EE0E94A3
:104D40005615CD2B51F08CE2DF91CF911F910F9131
:104D5000FF90EF90DF900C944916DF91CF911F9157
:104D60000F91FF90EF90DF900895EF92FF921F93C5
:104D7000CF93DF93EC011AE08881882309F44AC0BD
:104D8000813009F043C08981813041F47E0182E0A5
:104D9000E80EF11C8A810E94491609C0823049F44C
:104DA0007E01E2E0EE0EF11C8A810E94AD15E70162
:104DB0002FC0833041F47E01F2E0EF0EF11C8A81B6
:104DC0000E945615F4CF843011F0219621C02A811B
:104DD000229680E090E030E0205331092A303105FE
:104DE00058F4189FA001199F500D1124C901840F78
:104DF000951F21962881EFCF009751F0EFE9FFE052
:104E00003197F1F700C000000197F6CF0E944F26BE
:104E10002196B2CFDF91CF911F91FF90EF9008952F
:104E20001F93CF93DF9300D000D01F92CDB7DEB792
:104E3000FC0186819781009709F5CF0125E0DE010D
:104E4000119601900D922A95E1F7FC01228189814A
:104E50009A81222359F0662349F00E94F611182FF7
:104E6000682F89819A810E94531403C00E942314E1
:104E7000182F69817A81812F0E9459250F900F90F8
:104E80000F900F900F90DF91CF911F910895CF93C6
:104E9000DF93EC010E945615CE01805E91090897C0
:104EA00010F0209739F4CE010E942226DF91CF9195
:104EB0000C944515CE010E942226DF91CF910C94CF
:104EC0003015CF93DF93EC01805E9109089710F0C5
:104ED000209731F4CE010E9422260E944C1505C075
:104EE000CE010E9422260E943B158C2FDF91CF918C
:104EF0000C94AD15CF93DF93C091C001D091C10147
:104F0000CE0195558F3F910509F048F48C2FC4FFD1
:104F100002C08295807FDF91CF910C943920CE0121
:104F20000E9461278FE798E321E081509040204064
:104F3000E1F700C00000CE01DF91CF910C9447272C
:104F40001092BF010E94052281FF03C089E30C94E7
:104F500049160895DC01FB0180819181803891051B
:104F60003CF08FE78C93808191818F5791090AC023
:104F700081382FEF92074CF481E88C9380819181E6
:104F800081589F4F9183808308958C931182108262
:104F90000895681720F4861B682F21E002C0681B63
:104FA00020E0469FA0011124649FC001659F900DE1
:104FB00011249170222319F09195819591090895FA
:104FC0002F923F924F925F926F927F928F929F9219
:104FD000AF92BF92CF92DF92EF92FF920F931F9307
:104FE000CF93DF93CDB7DEB76A970FB6F894DEBFE5
:104FF0000FBECDBF498B5A8B6B8B7C8B8D8B611118
:10500000109245028E01075F1F4F88E0F801119250
:105010008A95E9F785E0FE017196D80101900D921D
:105020008A95E1F70E947D21209141023091420250
:10503000821B930B8838934140F08091430282FB9E
:10504000992790F981E0892701C080E080FF03C0A3
:1050500082E00E94B91E0E947D212091470230917A
:105060004802821B930B8838934110F00E94861EE1
:1050700099858A852C853D85232B31F08F3F31F42E
:1050800081E09F3F19F403C081E001C080E080FD12
:10509000CAC161E0C8010E9410276C0187EFC816E1
:1050A0008CE5D80639F48B858823B9F081E08093AC
:1050B0000C01B9C198EFC9169CE5D90631F48B856E
:1050C000882359F00E94AF22AEC1E9EFCE16ECE57D
:1050D000DE0619F48B85811111C00BE013E0712CF1
:1050E000A12CB12C88248394912C55245394CE0167
:1050F00001969F8B8E8BF7E04F2E49C080910C015B
:105100008823A1F2DFCFC616D70609F097019F5F6B
:105110007901292F30E0F901EE0FFF1FE40FF51F91
:10512000608171816115710571F7FFEFEF16FF0660
:1051300009F42DC1F8016481611131C020910C0185
:10514000822F81706B84F80135812681662009F4F5
:10515000C6C0882309F4C3C0332321F1940102C0DF
:10516000220F331F9A95E2F721503109F801868109
:1051700090E02817390759F17628FFEFAF1ABF0AD8
:10518000095F1F4F28E0A216B10409F402C1F8011B
:1051900040815181EE24EA94FE2C90E0BACF20E0C9
:1051A00030E0CECFA40101C0440FEA94EAF7242BEB
:1051B00026832091A7023091A8022233310570F690
:1051C00022E330E03093A8022093A702C7CF80915A
:1051D0004D0390914E03009729F00E946221C397DE
:1051E00008F01EC180914B03F0914C03F88FE0E072
:1051F000F0E0288D821709F460C0282F30E0F90113
:10520000EE0FFF1FED5BFC4F20803180429CF001D0
:10521000439CF00D1124E55FFC4FF080E18050E0ED
:1052200090E040E0EF2DFE2DE40FF11DE40FF11DA5
:10523000A081B1811097D1F0F801F081F98FF801C8
:10524000F181FA8F90E0E98DFA8DE90FF11DE90FF8
:10525000F11D608171816115710531F0A617B707E5
:1052600009F451E09F5FEFCF4F5FDCCF5523F9F09A
:105270009417C8F0429CF001439CF00D1124E55FA7
:10528000FC4F3097B1F054820E171F0709F474CF0A
:1052900090914B0389130DC0C90101968370992722
:1052A00080934B0306C00115110509F0B9C0E0E079
:1052B000F0E0C901019683709CCF0E171F0709F417
:1052C0005BCF90E0FC01EE0FFF1FED5BFC4FB18266
:1052D000A08201968370992780934C034DCF3111A2
:1052E00012C0A40102C0440F551F9A95E2F7415025
:1052F000510930E042175307E9F56623E1F1C50192
:105300000E94112237C0822F90E09C012150310968
:10531000282339230E2C02C0959587950A94E2F72D
:10532000232B31F580FF24C0F80182819381892BE2
:10533000D9F088E0EE89FF8911928A95E9F78EEF1E
:1053400089838A830E947D218160582F9D838C836D
:10535000F801828193818F83988729813A814B81DB
:105360006D817E810E94AA14F801158281E003C03C
:10537000817001C080E0940101C0220FEA94EAF735
:105380002095F801968129232683682EF5CE612C7D
:10539000F3CE8B85882381F1772071F10E947D21E6
:1053A00090934E0380934D038091AA02883008F0B9
:1053B00044C091E0980F9093AA0298E0FE013996BC
:1053C000DE01119601900D929A95E1F7ECE08E9F27
:1053D000C001112485559D4F28E0FE013196DC0166
:1053E00001900D922A95E1F72FEF3FEFFC013187F5
:1053F0002087D386C28621C090914B0380914C03B5
:10540000981719F00E94BD2208C00E943F221092F6
:105410004E0310924D030E949E22772021F00DC072
:10542000F8015482A9CE29853A854B855C856D8526
:105430007E858F8598890E94AA146A960FB6F89483
:10544000DEBF0FBECDBFDF91CF911F910F91FF90B7
:10545000EF90DF90CF90BF90AF909F908F907F9014
:105460006F905F904F903F902F900895CF93C82FEB
:10547000811102C06FEF01C061E483E290E00E94FD
:10548000922CC11102C06FEF01C069E784E290E085
:105490000E94922CC11102C06FEF01C063ED85E242
:1054A00090E0CF910C94922C80E00E94362A60E02C
:1054B00086E290E00E94922C0E948D240E94DF23BD
:1054C00081E00C94362A83E290E00E94842C81349F
:1054D00081F484E290E00E94842C893751F485E2C3
:1054E00090E00E94842C91E0833D09F090E0892FA8
:1054F00001C080E081700895CF93DF9300D000D089
:105500001F92CDB7DEB79093A1028093A0028115C0
:1055100020E2920748F40F900F900F900F900F9099
:10552000DF91CF910C9447278EEF89838A831B826A
:105530000E947D218160782F9D838C8349815A81CF
:105540006B818D810E94E0270F900F900F900F903C
:105550000F90DF91CF910895CF93DF9300D000D0CB
:105560001F92CDB7DEB79093A1028093A002811560
:1055700020E2920748F40F900F900F900F900F9039
:10558000DF91CF910C9461278EEF89838A8381E02C
:105590008B830E947D218160782F9D838C8349813C
:1055A0005A816B818D810E94E0270F900F900F90A0
:1055B0000F900F90DF91CF9108951092B9008CE079
:1055C0008093B80008959F92AF92BF92CF92DF92DE
:1055D000EF92FF920F931F93CF93DF93B82EEB01BF
:1055E0000E947D216C01C431D10558F0CF3F8FEF6F
:1055F000D80759F0CE0164E170E00E94572C7B017E
:1056000007C0EE24E394F12C03C025E0E22EF12C38
:1056100084E8A82E94EA992E1092BC009092BC00C7
:105620000E947D218C018091BC0087FD08C00E94F2
:105630007D21801B910B8E159F05A8F32AC08091B8
:10564000B900887F883041F08091B900887F80312F
:1056500019F00FEF1FEF1FC0B092BB00A092BC006B
:105660000E947D218C018091BC0087FD08C00E94B2
:105670007D21801B910B8E159F05A8F30AC0809198
:10568000B900887F883111F0803419F700E010E00C
:105690000EC00EEF1FEFCF3F8FEFD80709F4BCCF3E
:1056A000C6010E9462218C179D0708F4B5CFC8017E
:1056B000DF91CF911F910F91FF90EF90DF90CF90EE
:1056C000BF90AF909F9008950F931F93CF93DF9358
:1056D000EB018093BB0084E88093BC000E947D2195
:1056E0008C018091BC0087FD0EC0CF3F8FEFD807A3
:1056F000C1F30E947D21801B910B8C179D0788F3BD
:105700008EEF9FEF0CC02091B900287F81E090E0E0
:10571000283211F480E090E0919581959109DF9114
:10572000CF911F910F9108950F931F93CF93DF9304
:10573000EC0184EC8093BC000E947D218C0180915F
:10574000BC0087FD0EC0CF3F8FEFD807C1F30E948A
:105750007D21801B910B8C179D0788F38EEF9FEFA7
:1057600003C08091BB0090E0DF91CF911F910F911A
:1057700008950F931F93CF93DF93EC0184E88093F8
:10578000BC000E947D218C018091BC0087FD0EC071
:10579000CF3F8FEFD807C1F30E947D21801B910B73
:1057A0008C179D0788F38EEF9FEF03C08091BB009D
:1057B00090E0DF91CF911F910F910895CF92DF92EA
:1057C000EF92FF920F931F93CF93DF93C62F6A013F
:1057D0007901B8010E94E32A97FD11C0B8018C2F0E
:1057E0000E94642BE601EC0CFD1CCE15DF0539F0A0
:1057F00097FD05C0B80189910E94642BF6CF24E97A
:105800002093BC00DF91CF911F910F91FF90EF90FB
:10581000DF90CF900895CF92DF92EF92FF920F9397
:105820001F93CF93DF93D82EC62E7A01E901B801DA
:105830000E94E32A97FD2AC0B8018C2D0E94642B98
:1058400097FD24C0B8018D2D81600E94E32A670175
:10585000219796012E193F092C173D0768F497FDF3
:1058600015C0C8010E94942B97FD02C0F6018083E9
:10587000FFEFCF1ADF0AEDCF97FD08C0C8010E94E5
:10588000B92B97FD03C0CE0DDF1D888324E920933B
:10589000BC001816190614F480E090E0DF91CF9157
:1058A0001F910F91FF90EF90DF90CF900895AA1B6A
:1058B000BB1B51E107C0AA1FBB1FA617B70710F0FB
:1058C000A61BB70B881F991F5A95A9F7809590952D
:1058D000BC01CD010895FB01DC0102C005900D92D1
:1058E00041505040D8F70895DC01CB01FC01F999F3
:1058F000FECF06C0F2BDE1BDF89A319600B40D921C
:1059000041505040B8F70895F999FECF92BD81BD3E
:10591000F89A992780B50895A8E1B0E042E050E0F8
:105920000C94762C262FF999FECF92BD81BDF89A62
:10593000019700B4021639F01FBA20BD0FB6F894D3
:10594000FA9AF99A0FBE08950396272F0E94932C76
:105950000E94922C252F0E94932C242F0C94932C80
:105960000196272F0E94932C0C94922CDC01CB01E2
:1059700003C02D910E94C12C41505040D0F7089592
:10598000262FF999FECF1FBA92BD81BD20BD0FB65B
:10599000F894FA9AF99A0FBE0196089597FB072E8C
:1059A00016F4009407D077FD09D00E94572C07FC0D
:1059B00005D03EF4909581959F4F0895709561951F
:1059C0007F4F0895EE0FFF1F0590F491E02D09948D
:1059D0006927962769277827872778270895FB0165
:1059E000DC0104C08D910190801921F44150504098
:1059F000C8F7881B990B0895DC0101C06D934150D5
:0A5A00005040E0F70895F894FFCF3E
:105A0A00A020C220A3201B171717FF0101693CEA37
:105A1A0084B6CCB4AC92F4F5F6F7313534C6976651
:105A2A0094323300FF0100010000FFFF0000010073
:105A3A0001FF0037F1909536914022813E041C0403
:105A4A009B039004A904C904818283E200E900EA65
:105A5A0000B500B600B700CD008301CC008A0192E0
:105A6A000194012102230224022502260227022A86
:0A5A7A0002B300B4006F00700000DA
:00000001FF
