:100000000C94ED030C9434040C9434040C943404D8
:100010000C9434040C9434040C9434040C94340480
:100020000C9434040C9434040C9419150C94551449
:100030000C949A200C9434040C9434040C943404DE
:100040000C9434040C9434040C9434040C94340450
:100050000C9434040C94F5160C9434040C9434046D
:100060000C9434040C9434040C9434040C94340430
:100070000C9434040C9434040C9434040C94340420
:100080000C9434040C9434040C9434040C94340410
:100090000C9434040C9434040C9434040C94340400
:1000A0000C9434040C9434040C9434045008500818
:1000B00089088908EB08260A260A260A09097D0903
:1000C0008E098E09600F760F7D0FB50FC60FD10F09
:1000D000E10FF40F3310381092109210921040106C
:1000E0005D128412371484123714D012F3123714AD
:1000F000F41304149C179C17AF17AF17A517AF176D
:10010000AF17AF179C179C17AA17AF17AF17AA17EF
:100110002E2000FD377A585A000004E6D6B4460275
:1001200000210116000000742FE5A3E008530245EA
:100130005D003D8889C65436C3174FE4F1E112FDD6
:10014000EF008EFF6F9387B42647FBB729D0348327
:10015000DA2C4E8C1ED4A2101D9A2C5F0D89D296DB
:10016000E2560F1E575FB410F19A9B18602D7EFB6C
:10017000A74803850A09BB61BA19807BBF8567EF71
:1001800057236FF0788933D06222FCBD0E51E6DE32
:10019000AF7BE8DAA260551D19D1FB286DE36D5BDA
:1001A000BD4122218BEA6383C8A2495A31655DBDF6
:1001B000002908EFA3B6E341673461A4214241DA84
:1001C000B3D5EEB1FFD47A730DBADC2DA553DBC6DF
:1001D0009C1C826411C578129F6B02AEEB1AB15A57
:1001E000C2AE640ABB12D14254AC5FEA47341FACC2
:1001F000B08DDF83919005DA24F0E6AFBA7AFD3056
:1002000031D023D01F58C5E175AD9E5950CAB843AF
:100210007B7E3617A673D1FA6940BB3404E39FA8EE
:10022000F9C7F68E3073B34BB885F10E98A884A247
:100230002FA49A795D68D656C4CFDECA253090AE19
:1002400012EB5151E11D3C08F52FF4BF7E7483D2AF
:1002500067343E34C1E8D858F5C9C805439E4920E3
:1002600068F50CA52859632B3EE2E25BFE5780320D
:10027000D60895D2E4C6FC1237A3120065CAFB3239
:10028000FF71CC4970B234E336222ECA0C8BD719D9
:10029000E3822FA0F6FAE954E7FD18EC56C54C3579
:1002A000C0D92C0D1D27E83CFD19E70056BCC11B29
:1002B000951A252AD64E778E7CA6FD00C41BFFD446
:1002C000DCC1A6498236E56932461309E94221A814
:1002D000C52DF967A1128A472333907F6774052ED5
:1002E0008FF72C64431D551FF80F498D09ED91F1CF
:1002F000B2BDAD5683E21E680D9C079D2FD5CE077B
:100300000FAA48477E7FAC38966B9DDAD736BD5032
:10031000BEF79A0B6F400573383B3C52A9105C380E
:100320002114EF9A45310F9424D7836FE19A6BF62D
:1003300014B74D622B25964DEBFB481F4076F451C8
:10034000DEBEF7CCE1EAF194A6D4ECDD31B05B344B
:10035000D8E74DECB6A02F9CF17E380A16E95FA9CC
:100360009EB94CCB482C6AE1D5852FD640DF02E8F8
:10037000E4B98C3E9C3AED0000000002E97DD1F02A
:100380006893310001E104D41000008437DD5EB1D0
:10039000C467FB020000000004595A05010980A14E
:1003A00001850319012AB700150126B700950175CB
:1003B000108100C0050C0901A101850419012AA0C2
:1003C00002150126A002950175108100C00660FF8C
:1003D0000961A1010962150026FF009520750881B9
:1003E000020963150026FF00952075089102C005DB
:1003F000010906A101050719E029E7150025019566
:100400000875018102950175088101050719002908
:10041000FF150026FF0095067508810005081901E3
:100420002905950575019102950175039101C00992
:10043000025B00030100A0FA0904000001030101AE
:100440000009211101000122400007058103080075
:100450000A09040100020300000009211101000142
:100460002222000705820320000107050303200064
:10047000010904020001030000000921110100012B
:100480002232000705840320000A12010002000046
:100490000008FEFEBBFF0100010203011C03760001
:1004A000690061006C003A006600360034006300A9
:1004B0003200620033006300000032037300610009
:1004C000640065006B006200610072006F007500DF
:1004D000640069002000660066006B0062005F0037
:1004E000620079006F006D006300750000001A0360
:1004F00073006100640065006B00620061007200BF
:100500006F00750064006900000004030904AA007C
:10051000A90050014F012B032B0101000100010034
:1005200001000100010001000100010001000100C3
:1005300001000100010001000100010001000100B3
:1005400001000100010001000100290014001A004F
:100550000800150017001C0018002B000461166825
:10056000076409620A000B000D72E1001D001B0008
:1005700006001900050011001000000000000E74B4
:1005800037001200337138002A0000002B043600B7
:100590000C000F781300E50034002A01A8004C007D
:1005A00031002800015102512C0001001E021F02DF
:1005B00020022102220223022402010001530253DD
:1005C00003530453010001002D0201003900010012
:1005D00001000100010001000100000000002E02E6
:1005E0003102260230023402010000000100010045
:1005F00025022F0227020100010001000100010075
:100600000100010001000351010035001E001F0020
:10061000200021002200230024004A005000510045
:1006200052004F002B0001002D00010001004E0080
:100630004B000100815F845F825F000000002E009C
:100640000100260030000100010000000100835F6E
:1006500025002F002700010001000100010001001A
:10066000010001000351010001000100C25CC45CF3
:10067000C35C010001003A003B000100CB5CC55C9B
:10068000C75CC95C01003F0040000100CC5CC65C57
:10069000C85CCA5C01004400450000000000410045
:1006A00001003D004300005C01000000010001006A
:1006B0003C0042003E000100010001000100010079
:1006C0000100010001000100010001000100010022
:1006D0000100010001000100010001000100010012
:1006E0000100010001000100010001000100010002
:1006F00001000100010001000100000000000100F4
:1007000001000100010001000100000001000100E2
:1007100001000100010001000100010001000100D1
:1007200001000100010001000100000000000000C4
:1007300000000000000000000000000000000000B9
:1007400000000000000000000000000000007E0F1C
:1007500000D4FFFFFFC70000007800000000000089
:1007600000002A2B2800000000000000000000000C
:10077000000000000029000000002C1E342021226F
:1007800024342627252E362D3738271E1F202122D8
:10079000232425263333362E37381F040506070851
:1007A000090A0B0C0D0E0F10111213141516171841
:1007B000191A1B1C1D2F3130232D3504050607087F
:1007C000090A0B0C0D0E0F10111213141516171821
:1007D000191A1B1C1D2F3130354C11241FBECFEFB1
:1007E000DAE0DEBFCDBF04B603FE27C080913D0333
:1007F00090913E03A0913F03B09140038730904B0E
:10080000A740B04BD1F410923D0310923E031092DA
:100810003F031092400314BE84B7877F84BF0FB696
:10082000F894A89580916000886180936000109290
:1008300060000FBEE0E0F8E3099511E0A0E0B1E050
:10084000EAE0F4E502C005900D92AA37B107D9F7A6
:1008500023E0AAE7B1E001C01D92AD33B207E1F792
:100860000E94FB0A0C94032A0C9400008F929F9222
:10087000AF92BF92CF92DF92EF92FF920F931F93AE
:10088000CF93DF9300D000D0CDB7DEB7FC018081DD
:10089000918123813481232B31F09F3F31F491E00A
:1008A0008F3F19F403C091E001C090E090FD92C623
:1008B0006F0161E0CF010E9467268C01F601828101
:1008C000882309F49AC0980122513F45203131050F
:1008D00008F07BC08FEF93E00E94702981117FC0E8
:1008E0003EEEF32EF00E03E912E0FF2071F0011549
:1008F000F4E01F0709F473C0C8010E947029811138
:1009000001C0FA940F5F1F4FF0CF19821A821B8229
:100910001C82AA24AA9478012FEFE21AF20AC801D5
:100920000E94702989831A82882309F458C0813073
:1009300009F046C0480182E0880E911CC7010E9460
:1009400070298A83882309F44AC09FEF980F933057
:1009500060F4780193E0E90EF11CC4010E94702953
:100960008B8381112DC08701D6CF843011F07401A3
:10097000FACFC4010E947029B82E7801E4E0EE0E8F
:10098000F11CC80103960E947029BB2041F1882305
:1009900031F1282F30E021503109A29EA001A39E01
:1009A000500D11248B2D90E00197840F951F019716
:1009B000D0F2EFE9FFE03197F1F700C00000F7CF88
:1009C000CE0101960E940C26CECF00319FE519077B
:1009D00009F060C581E00E94DE190E946C118091CF
:1009E0002A02877009F4F6C5F6018281882309F48A
:1009F000F1C582E00E94811FEDC50031FFE51F07B0
:100A000011F481E005C001312FE5120721F482E0E5
:100A10000E94D219E2CF90917C01911105C0909172
:100A20007F01992309F4B7C098013056211590E24F
:100A3000390720F0305E2115304140F4F6019581F0
:100A4000907F09F4A8C07801FF2401C078019701C4
:100A500030542115354108F49EC090917F019230A9
:100A600021F5882369F080912D02982F927219F058
:100A70006894F1F80FC086FF0DC024E1F22A0AC085
:100A8000C70195558F3F910511F008F022C580E010
:100A90000E94081F81E080937F01F0927E01E09226
:100AA0007D018FEF809300019ACF882309F411C54F
:100AB000913009F05FC0809100019CE2E916F104D9
:100AC000D9F4882329F00E9427291092000187CFAA
:100AD00080917D0190917E0195558F3F910509F0A0
:100AE00018F40E94FD1E03C08AE20E94971B109218
:100AF0007F010E944D294FC0EAE2EE16F10421F475
:100B000081508093000126C087FD34C081110BC045
:100B100080917D0190917E0195558F3F910509F05F
:100B200010F40E942729809100018F5F80930001BB
:100B3000FDE2EF16F10471F040F484E0E81AF108E8
:100B400094E2E916F10480F405C0EDE2EE16E2E06D
:100B5000FE0651F4F6018281882309F4BAC480911B
:100B60002D02811114C09DC4F6018281882309F4ED
:100B7000B0C40DC09AE2E916F10489F308F01EC56D
:100B8000F4E0EF1AF10824E2E216F10440F30E94C7
:100B90004D2910927F010238FFE51F0751F4F6013D
:100BA0008281882399F181E080937F018DE290E03A
:100BB00017C003382FE51207D8F00338EFE51E07FA
:100BC00009F4EBC40438FFE51F0709F093C4F601EC
:100BD00082818823D9F081E080937F018DE292E0C9
:100BE00090937E0180937D018FEF8093000113C06D
:100BF00000388FE5180709F436C101389FE5190759
:100C000009F078C4F6018281811158C4F60182810D
:100C1000882309F4B8C110928D020230FCE51F0749
:100C200008F49BC106312CE5120730F0C8018A5F39
:100C30009C45099708F091C10E94821E9093820101
:100C40008093810100318CE5180709F4C3C008F0D6
:100C500041C00830ECE51E0709F49AC0F0F40430F6
:100C60002CE5120709F487C068F402309CE51907E7
:100C700009F477C003301C4509F0E5C0809181017B
:100C8000826076C00630FCE51F0709F46EC008F0EC
:100C90007BC08091810188606BC00C308CE51807A7
:100CA00009F485C068F40A30ECE51E0709F474C045
:100CB00008F079C00E94ED1980918101806858C0C8
:100CC0000E302CE5120709F476C008F07FC0809141
:100CD00081018BC00B3F9CE5190709F44FC018F543
:100CE0000331FCE51F0709F47DC078F401318CE580
:100CF000180709F473C002311C4509F0A4C00E9412
:100D0000ED19809181018F7733C00531ECE51E0725
:100D100009F472C008F486C00A3F1C4509F093C06C
:100D2000809182013EC00F3F8CE5180709F45FC037
:100D300058F40D3FECE51E0709F444C008F43FC029
:100D40008091820182602DC001302DE5120709F4E7
:100D500075C008F45DC002301D4509F074C060E044
:100D60006EC080918101816003C0809181018061AA
:100D70008093810168C08091810111C080918201BE
:100D80008260809382015FC0809181018062F0CF98
:100D9000809181018064ECCF8091810188608460C2
:100DA000E7CF8160EECF809181018E7FE1CF80918E
:100DB00081018D7FDDCF80918101877FD9CF8091A7
:100DC000820118C0809182018D7FDBCF80918101EB
:100DD0008F7ECECF809181018F7DCACF809181019E
:100DE0008F7BC6CF80918101877F8B7FC1CF809120
:100DF00082018D7F8E7FC5CF8091810182FB22276A
:100E000020F991E0922790FB82F990FB83F9B0CF13
:100E100080918201982F909591708E7F892B90FB05
:100E200081F9AFCF0E94ED198091810187FB2227C4
:100E300020F991E0922790FB87F99ACF61E08EE04C
:100E400090E00E947E29609181011091820184E0EE
:100E500090E00E947E29612F82E290E00E947E292C
:100E60000E94ED19BCCDF6018281882309F4CECE13
:100E700090E1A92E91E0B92E2AE0922EF5018491FD
:100E8000882309F45AC0813009F04FC07501FFEF83
:100E9000EF1AFF0AF7018491813049F47501F2E0FD
:100EA000EF0EF11CF70184910E94971B41C0823024
:100EB00049F47501F2E0EF0EF11CF70184910E94F4
:100EC000FB1A36C0833049F47501F2E0EF0EF11CD5
:100ED000F70184910E94A41A2BC0843049F5750152
:100EE000F2E0EF0EF11CF701249180E090E030E099
:100EF000205331092A30310570F4989EA001999E43
:100F0000500D1124C901840F951FFFEFEF1AFF0A3E
:100F1000F7012491ECCF009759F0EFE9FFE031970A
:100F2000F1F700C000000197F6CF0E94A6257501D9
:100F30005701FFEFAF1ABF0AA1CF8091300281FDA8
:100F400065CE0E942D2090932F0280932E028091D7
:100F5000300282608093300259CE0631ECE51E07E4
:100F600011F580912D028A7A91E009F490E0909336
:100F70008001882311F065E301C069E285ED91E00D
:100F80000E94D0200DC006311C45F1F580918001F2
:100F9000882309F411C365E385ED91E00E94C32025
:100FA0000E94231F1CCD0A35EDE51E0741F150F4C8
:100FB00001152CE51207A9F00E3D1C4529F50E94EC
:100FC000931E0DCD0B359DE51907D9F00C351D4548
:100FD000D9F48091820182FB882780F991E08927EA
:100FE00011C00E94ED19FFEF24E38CE0F150204086
:100FF0008040E1F700C000000E94D116F0CC81E0F3
:1010000001C080E00E94601FF601868197810097F1
:10101000B9F4F601828100811181882349F0C80169
:101020000E944417F82E682FC8010E94A11904C01D
:10103000C8010E947119F82EB8018F2D0E946A24F0
:101040000E94F91CF82E192FF601E2800581029505
:101050000F7080912A02877099F0EE2089F0892F15
:10106000807F803421F080E28F0D883048F082E06C
:101070000E94811F80912A028770BB24B394811142
:10108000B12CA12EA2948FE0A8228A2D90E08C3062
:10109000910508F0DBC1FC01EA5AFF4F0C94CE2900
:1010A000812F807F1F70882311F01295107FEE2012
:1010B000B9F0112309F4ACC180E28F0D883010F033
:1010C000F11006C090912D02192B10932D0205C02E
:1010D00090912C02192B10932C020E94231F98C16F
:1010E0008F2D0E94A41A112309F4B0C180E28F0D44
:1010F000883010F0F11004C0812F0E941C1F06C020
:10110000109590912C02192310932C020E94231FFA
:101110009DC1812F807F1F70803211F01295107F4A
:10112000FF2021F0F1E0FF1691F13BC0EE20D9F055
:101130000023A9F0013031F480913002812B0E940C
:10114000081F84C1053059F40E94FD1E80912702BA
:10115000181310932702812F0E949A1A77C1809149
:101160003002812BF9CF002349F0013069F48091DE
:101170002D02812309F46AC10E94B41F0E94FD1E42
:10118000812F0E94931A62C10530C1F75FC1EE2022
:1011900021F0063008F05AC1DECF053008F056C104
:1011A000EFCFEE2019F00023B1F232C1002341F35A
:1011B00029E3F21208C08FEF97EEE3E081509040F0
:1011C000E040E1F73EC1FFE728E381E0F150204035
:1011D0008040E1F736C1812F86958695837019F09E
:1011E000813061F033C1EE2021F08F2D912F93706B
:1011F00002C080E090E00E9400212EC1EE2021F08C
:101200008F2D912F937002C080E090E00E94EA2021
:1012100023C1812F8370A9F5E1101CC14F2D429588
:1012200046954770440F440F8F2D8F7090E09C01BE
:10123000042E01C0220F0A94EAF7F4FE08C08FE0E2
:1012400090E001C0880F4A95EAF7809501C080E0E0
:10125000169516951370123069F088F49091340247
:10126000113019F0822B892302C0922B892B0E9406
:10127000E919F0C0822B909134028927F8CF822B94
:10128000F6CFEE2019F0812F817001C0869588235A
:1012900009F4E0C04F2D429546954770440F440F26
:1012A0008F2D8F7090E09C01042E01C0220F0A94B4
:1012B000EAF7F4FE08C08FE090E001C0880F4A957D
:1012C000EAF7809501C080E01695169513701230EC
:1012D00059F078F49091C201113019F0822B8923D2
:1012E00009C0922B892B06C0822B9091C2018927BD
:1012F00001C0822B0E94CE19ADC01F70EE2039F0C4
:10130000812F0E94DE198F2D0E949A1AA3C08F2D63
:101310000E94931A812F0E94D2199CC092EFF91655
:1013200059F19F1538F0E0EFFE1659F0F1EFFF1676
:10133000E1F069C023EFF21631F184EFF81681F184
:1013400062C0EE2071F0053008F080C01F7181E0AE
:1013500090E001C0880F1A95EAF79091C2018927A1
:101360001CC0063008F072C0F1CFEE2039F0812F9A
:101370008F710E94DE196AC0EE20C9F3812F8F7130
:101380000E94D21963C0EE2039F01F7181E001C0C4
:10139000880F1A95EAF701C080E00E94CE1956C066
:1013A000EE20D1F0809127020E941C1F80912A021A
:1013B0008770843039F40E947A1F812F8F710E94C8
:1013C000D21966C0053008F063C01F71812F0E94DA
:1013D000DE1963E0812F10C090912D0280912702C9
:1013E000892B80932D02053050F00E947A1F0E94B5
:1013F000B41F64E0812F8F710E949E1F49C081E05D
:101400000E94811F45C0EE2039F0002309F4AFCFC0
:101410008F2D0E94FB1A1AC0002309F4AFCF99E365
:10142000F91208C0EFEFF7EE23E0E150F040204062
:10143000E1F707C08FE798E3E1E081509040E0409A
:10144000E1F700C000008F2D0E94A41A88EF8A0DDA
:10145000843010F40E941621BB20A9F080912A024A
:1014600080FD11C0F60112828595859585950E94B3
:10147000DE19C6010E94360480912A028595859561
:1014800085950E94D21960E0C6010E946726A2C01D
:10149000B12CE0CF0131EFE51E0709F0BCCA82E0B4
:1014A0009ACA0238FFE51F0709F479CB08F085CB0B
:1014B00000388FE5180709F0A0CBDACC81E08093E3
:1014C0007C010E94162181FDA1CB89E30E94971B1C
:1014D0009DCB02382FE5120709F461CB08F059C003
:1014E00000389FE5190709F491CB0138EFE51E0795
:1014F00009F488CB033F2CE51207A1F406E221EEA4
:1015000040EE63EF7CE50AC0073DFCE51F0709F0EC
:101510007DCB06E221EE41EE67ED7CE5C6010E943F
:101520007D225DCA043F8CE51807A0F4083D9CE5C8
:10153000190731F407E225EE45EE68ED7CE5EECFC4
:10154000093DECE51E0701F708E221E045EE69EDF3
:101550007CE5E4CF053F2CE5120731F406E221EEED
:1015600042EE65EF7CE5DACF053F8CE5180730F4F5
:1015700007E225EE44EE64EF7CE5D0CF063F9CE524
:10158000190709F043CB07E225EE46EE66EF7CE54E
:10159000C5CF0338FFE51F0749F4F6018281882390
:1015A00009F434CB82E080937F0135CB04382FE5FA
:1015B000120709F40CCB9ECF69E2EECC8DE2E8165F
:1015C000F10409F4CCCA9DE2E91692E0F90609F0AB
:1015D000DECAC5CA0F900F900F900F90DF91CF9188
:1015E0001F910F91FF90EF90DF90CF90BF90AF9041
:1015F0009F908F900895CF93DF93CDB7DEB7E49798
:101600000FB6F894DEBF0FBECDBF84B7877F84BF0F
:101610000FB6F894A895809160008861809360006F
:10162000109260000FBE90E080E80FB6F8948093AF
:101630006100909361000FBE85B7806885BF85B754
:10164000806885BF83EB9BE190937B0180937A0157
:101650000E9486240E9499140E94B8148091E2008E
:1016600084608093E20078948091C1018823A1F086
:101670001091E9001F709091EC00892F817090FD0E
:1016800080E8182B1092E9008091E80083FD0E9409
:1016900077111F701093E90082E084BD93E095BD3F
:1016A0009AEF97BD80936E000E946025811102C061
:1016B0000E94512505E111E0EBE1EE2EE1E0FE2E66
:1016C000D8018D918D018F3F11F00E94F81BE0161B
:1016D000F106B1F70BE111E073E2E72E71E0F72EAE
:1016E000F80181918F018F3F11F00E94F81BE016E5
:1016F000F106B1F7E3E8F1E0AEE9B1E011921D9235
:1017000011E0E938F107D1F780E090E00E947829F4
:101710008A3E9E4F21F40E946025811102C00E94E2
:10172000931E82E090E00E947029809393010E94B2
:10173000821E90938201809381010E940F1C8FE38F
:101740009CE90197F1F700C000000E940F1C8091F6
:101750009E0180FF08C06FEF7FEF80E090E00E9465
:101760009C290E94D11683E090E00E9470290E947B
:10177000E91932E9832E31E0932E43E351E026E369
:1017800031E06FE8662E61E0762E61E070E086144D
:10179000970409F44EC0F901A1919F018A2F829507
:1017A0008F7090E0FC01F1A0AF70EA2E8B0101C0B8
:1017B000000FAA95EAF7F02FF095FF22DC01919631
:1017C000FC9291979296AC91A02BFC01A2A3DA0116
:1017D000FD90AD01EF2DE295EF70F0E0B1A0BF2DCF
:1017E000BF70FB2E6B0101C0CC0CBA95EAF7DC2C64
:1017F000D094DB20D1A2D2A0CD28C2A2DC01909649
:101800008C9190E002C095958795EA94E2F78170FB
:10181000E0A1F0E002C0F595E795FA94E2F7E0FF69
:1018200002C092E001C090E0892BF30181933F0157
:10183000AECF81E091E0909339038093380322E0AA
:10184000222E312C8091C101853009F045C000E184
:1018500012E18091C101853009F03AC08091C10147
:10186000843021F110923C0328E130E080E40FB68F
:10187000F894A895209360000FBE8093600083B712
:10188000817F846083BF83B7816083BF78948895AC
:1018900083B78E7F83BF0FB6F894A89580916000C0
:1018A000886180936000109260000FBE8091B70144
:1018B000882309F4CECF0E940F1CEEE9F1E081915C
:1018C000811135C4A4EAB1E0AE17BF07C1F7C1CF9B
:1018D0000E94ED190E9416210E940F1C81110E9486
:1018E0002A17A4E9B1E0EEE9F1E000E010E0302FC2
:1018F00021919D919227C9F180E0FF24F394492F13
:101900004F2179F18BA73CA72F2181E009F480E0DA
:101910008DA70E942D208160782F9FA78EA74BA5B1
:101920005CA56DA58FA50E949E26F801EC56FE4F82
:101930008081F826F082ACE8EA2EA1E0FA2E09E8D0
:1019400011E0BFE86B2EB1E07B2E83E3C82E81E06F
:10195000D82E96E3892E91E0992E5301412C512CDB
:1019600056C08F5FFF0C883051F60F5F1F4F063057
:10197000110509F0BCCF8FEF88AB89AB1AAA0E9482
:101980002D208160782F9CAB8BAB48A959A96AA9FF
:101990008CA90E949E26CFCF822B932B8E2BF301F6
:1019A00081933F018F70E82FF0E0ED5DFE4F908155
:1019B000D7018C91890F8C9382300CF459C0F801B7
:1019C00080818F5F808360E0852D0E94DF2421E08D
:1019D000D7018C918F3F4CF4F80180818150808336
:1019E00061E0852D0E94DF2421E0D7018C91082E33
:1019F000000C990BB1010E94BA29F70181937F0174
:101A0000422A53940F5F1F4FF3E05F1699F1F501DF
:101A100081915F01E82FEE0FEE0FD4012D914D0162
:101A2000A22FA295AF70B0E090968C9190E02F70AD
:101A300002C0959587952A95E2F79C01217033277E
:101A4000D6018D916D01A82FA295AF70B0E0909650
:101A50004C9150E08F7002C0559547958A95E2F7FA
:101A6000CA018170992740FF97CF82E090E094CF20
:101A700020E0AECF41100E942A170E9416219091BB
:101A80009201891721F00E94162180939201809182
:101A9000C101843009F0D6CE83E08093E9008091C3
:101AA000E80082FFCFCE8091E80085FF23C00E942E
:101AB000EE1581111DC0F0E2EF2EF12C8E010F5FAB
:101AC0001F4F09C08091F100D8018D938D01B1E0C5
:101AD000EB1AF10869F08091E80085FDF3CF809161
:101AE000E8008B778093E8000E94EE15882399F335
:101AF00091E001C090E08091E8008B778093E8004E
:101B0000992309F49FCEE0908902F0908A0289819E
:101B1000E114F10459F08E3F09F004C39A81933027
:101B200070F19550933008F0FDC229C08B3009F454
:101B3000A4C110F5853009F478C0B0F48230E1F129
:101B400030F4813009F0ECC21A8289E08AC2833015
:101B500009F45CC0843009F0E3C24C816B818A8156
:101B60000E943C249D8300C3873009F4D9C208F049
:101B7000D7C20E949E23D6C2803109F4C0C08E0114
:101B80000F5F1F4F813160F48D3009F45BC008F4A2
:101B900057C08E3009F45AC08F3009F482C0C0C2D9
:101BA000823109F4B1C008F4ADC0833109F4D6C064
:101BB0008E3F09F479C1B4C28A81823009F4CDC262
:101BC000833051F0813009F0ABC20E942A179B8309
:101BD0008C837D836E83A6C280918502909186025C
:101BE000892B09F49FC280919E018B8380919F0174
:101BF0008C838091A0018D838091A1018E8380913F
:101C0000A2018F838091A30188878CC28A81823050
:101C100009F086C26B817C818D819E810E94D429CE
:101C200086E290E00E947E297DC22D813E8132278E
:101C3000232732274C816B818A810E94682372C2DC
:101C400080E12BC281E08A838DE60BC2EA80FB80B3
:101C5000FE24EF24FE24AC80B12CEDE1AE16B104DD
:101C600008F060C26801C7018D569D4F9601201B88
:101C7000310B2A153B0508F055C2FDE6EF16F1E0E1
:101C8000FF0630F40E947029D60114968C9302C08E
:101C9000F6011482FFEFEF1AFF0A2FEFC21AD20AE1
:101CA000E2CF8091850290918602892B09F43AC295
:101CB000EA80FB80FE24EF24FE24CC80D12C3DE181
:101CC000C316D10408F02EC25801C7018D569D4F8E
:101CD0009501201B310B2C153D0508F023C2ADE604
:101CE000EA16A1E0FA0620F4F50164810E947E293B
:101CF000FFEFEF1AFF0A2FEFA21AB20AE6CF0E94F7
:101D0000F02210C285E0C9C1EA80FB80FE24EF24E6
:101D1000FE24AC80B12C3DE1A316B10408F002C250
:101D20006801C70187969601201B310B2A153B05D8
:101D300008F0F8C1A0EEEA16A1E0FA0628F40E9425
:101D40007029F601848303C0D60114961C92BFEF5C
:101D5000EB1AFB0AEFEFCE1ADE0AE3CFEA80FB8034
:101D6000FE24EF24FE24AC80B12CFDE1AF16B104BB
:101D700008F0D8C120EEE21621E0F20608F0D2C148
:101D800080EE91E08E199F098A159B0508F4CAC15F
:101D9000370137E2630E711C8091850290918602B3
:101DA000892B11F0680160C0E0FE0FC0C701869664
:101DB0000E94702990E0982F88272D81822B811511
:101DC0009C4531F48FEF8D8303C0C12CD12C03C00F
:101DD000CC24C394D12CC5018E0D9F1D450180FFDD
:101DE0001BC0B1E08B1A910855E0452E512C4C0ECA
:101DF0005D1E480C591CC3018A0D9B1D0E94702951
:101E0000F201208130E0322F2227282B21153C457A
:101E100019F48FEFD2018C93F801EC0DFD1D2FEF1B
:101E2000CF01801B910B8815990508F0BBCF8481E9
:101E300090E0982F88273581832B81159C4511F4DC
:101E4000248325833296ECCFE0EEEE16E1E0FE0629
:101E500028F4D60114966C910E947E29BFEFEB1AEC
:101E6000FB0AEFEFCE1ADE0AC70187969601201B08
:101E7000310B2A153B0540F355C1809185029091A5
:101E80008602892B09F44EC1CE0101960E944D169F
:101E9000FFEF11EE24E0F15010402040E1F700C0C8
:101EA00000000E94D1163EC1EA818E2F90E08E3054
:101EB000910508F037C1FC01EE59FF4F0C94CE2973
:101EC00088E0EDE0F1E0DE01919601900D928A95B7
:101ED000E1F780E2D8011D928A95E9F784E08983D1
:101EE00088E0FE01B196DE011596F6C088E8898388
:101EF00082E08A831B821C8215C18C8190E0982F1E
:101F000088272B81820F911D092E000CAA0BBB0B79
:101F100035E0880F991FAA1FBB1F3A95D1F7AC0176
:101F2000BD01405E5F4F6F4F7F4F481759076A07EB
:101F30007B0708F4F7C08838E2E09E07A105B105E9
:101F400008F0F0C04938F2E05F076105710520F044
:101F500048E852E060E070E0481B590BBC016D5E40
:101F60007E4FC8010E945729DDC01B810C8140E0D3
:101F7000602F812F0E94382399838A8341E0602F4C
:101F8000812F0E9438239B838C83CCC02E813F817C
:101F90003227232732274D816C818B810E940023B9
:101FA000C1C040E250E06FEF70E0C8010E94FC2920
:101FB000809185028983EA821B821C821D8281E0D6
:101FC000D3C081E090E090938A028093890282E3FB
:101FD00090E090939D0180939C010E942D2090930E
:101FE0009B0180939A019EC0EF2899F110919E0168
:101FF00011FB882780F9182380919A0190919B0109
:102000000E941B1785369105F0F01123E1F00E9424
:102010002D2090939B0180939A0180919C01909137
:102020009D01019790939D0180939C01892B89F4D8
:1020300010928A021092890281E090E090938602C9
:102040008093850206C082E390E090939D01809387
:102050009C01809185028983809189028A83809185
:102060009C018B835FC010928602109285025AC039
:1020700040E250E06FEF70E0C8010E94FC2952C0BE
:102080008B81833061F0843061F181114BC080E23B
:10209000D8011D928A95E9F788E08A8343C06C8154
:1020A000CE0181962AE0FC0111922A95E9F7683069
:1020B00060F4FAE06F9FB00111246D5B7D4F4AE040
:1020C00050E00E94602980E001C08FEF89838AE0A0
:1020D000FE01B196DE01129601900D928A95E1F70C
:1020E00021C06C818AE0FE013596DE019196019057
:1020F0000D928A95E1F7683070F41AE0619FB001A3
:1021000011246D5B7D4F4AE050E0CE0181960E9424
:10211000A22980E001C08FEF89830E94862402C03B
:102120008FEF8983CE0101960E944D168BCB09BD9E
:1021300019BD09B400FEFDCF8091D8008F7D80933A
:10214000D8008091E00082608093E0008091E00000
:1021500081FDFCCF0E94ED197CCB86E290E00E94CD
:1021600070291B821C821D828E83DCCF8091B90175
:1021700087FF11C08091E80082FD05C08091C101F8
:102180008111F8CF11C08091E8008B770BC080914E
:10219000C101882349F08091E80080FFF8CF809149
:1021A000E8008E778093E8000895982F973068F5BF
:1021B0009093E900981739F07091EC002091ED00B0
:1021C0005091F00003C0242F762F50E021FD02C073
:1021D0009F5FECCF3091EB003E7F3093EB0030916E
:1021E000ED003D7F3093ED003091EB003160309396
:1021F000EB007093EC002093ED005093F0002091E1
:10220000EE0027FDE5CF80E008958F708093E90010
:1022100081E008952091BF013091C0012617370752
:1022200048F06115710539F42091E8002E7720936C
:10223000E80001C0B901FC0120E06115710579F1E8
:102240008091C1018823F1F18530F1F18091E8009E
:1022500083FD3CC08091E80082FD2EC08091E800A3
:1022600080FFEBCF2091F3008091F20090E0922B61
:102270006115710551F08830910538F42191209352
:10228000F100615071090196F3CF21E0089709F040
:1022900020E08091E8008E778093E800CECF211176
:1022A000CFCF0AC08091C101882361F0853061F0F1
:1022B0008091E80083FD0AC08091E80082FFF2CFA0
:1022C00080E0089582E0089583E0089581E0089514
:1022D00008958091AD0108958091C201982F967064
:1022E000963011F4886001C0877F0C94CE191F933B
:1022F000CF93DF93CDB7DEB7AA970FB6F894DEBFC2
:102300000FBECDBFE9EBF1E08091F100819341E098
:10231000E13CF407C9F78091BA01833009F462C047
:1023200030F4813071F0823009F49CC0B3C08A303F
:1023300009F488C08B3009F46DC0893009F0AAC057
:1023400020C08091B901813A09F0A4C08091E800D1
:10235000877F8093E8008091BD019091BE01892B19
:1023600021F468E08EEA91E003C060E080E090E054
:1023700070E00E940A118091E8008B778093E8005A
:1023800089C08091B901813209F084C08091BD017A
:102390009091BE01009719F0029709F07BC08091DF
:1023A000E800877F8093E8008091E80082FD05C007
:1023B0008091C1018111F8CF6DC02091F30080910F
:1023C000F20090E0922B029729F48091F1008B7F2C
:1023D000813021F48091F1008093AD018091E8007B
:1023E0008B7754C08091B901813A09F053C0809134
:1023F000BD019091BE01892B09F04CC08091E8008D
:10240000877F8093E8008091E80080FFFCCF809177
:102410000B0137C08091B9018132E1F58091BD0196
:102420009091BE01892BB1F58091E800877F809360
:10243000E8000E94B6108091BB0180930B010E94BE
:10244000ED1928C08091B901813221F58091E80011
:10245000877F8093E8000E94B6108091BC01809332
:10246000AC0118C08091B901813AA1F48091E800D3
:10247000877F8093E8008091E80080FFFCCF809107
:10248000AC018093F1008091E8008E778093E800A2
:102490000E94B6108091E80083FFE9C18091B901E4
:1024A0009091BA01492F50E04A30510508F0DFC140
:1024B000FA01E059FF4F0C94CE29803821F0823880
:1024C00009F0D5C108C08091B6019091B701992358
:1024D00089F082600FC08091BD018F70873008F055
:1024E000C6C18093E9008091EB0085FB882780F9C5
:1024F0001092E9009091E800977F9093E800809314
:10250000F1001092F1007CC1282F2D7F09F0AFC19E
:10251000882319F0823061F0AAC18091BB0181301B
:1025200009F0A5C1933009F080E08093B7012EC077
:102530008091BB0181112AC08091BD018F702FEF66
:10254000280F263008F093C18093E9002091EB001A
:1025500020FF1CC0933021F48091EB00806214C0F6
:102560009091EB0090619093EB0021E030E0A901A5
:1025700002C0440F551F8A95E2F74093EA0010927B
:10258000EA008091EB0088608093EB001092E900F4
:102590008091E800877F8093E8000E94B61067C1B1
:1025A000811165C11091BB011F778091E300807894
:1025B000812B8093E3008091E800877F8093E8007F
:1025C0000E94B6108091E80080FFFCCF8091E3006C
:1025D00080688093E300111102C082E001C083E0B3
:1025E0008093C10144C18058823008F040C12091DD
:1025F000BB013091BC012C3D53E0350779F583E0F8
:102600008A838AE289834FB7F894DE01139620E02B
:102610003EE051E2E32FF0E050935700E49120FFB9
:1026200003C0E295EF703F5FEF708E2F90E0EA30CD
:1026300010F0C79601C0C0968D939D932F5F2431F3
:1026400049F74FBF8091E800877F8093E8006AE2F6
:1026500070E0CE0101960E940A11C0C08091BD01B8
:102660009091BE01432F552743305105B1F068F4D6
:102670004130510509F40AC14230510509F0F7C053
:102680008BE590E0EFE2F4E057C04132510589F16B
:102690004232510509F43CC0EAC0C9019927813092
:1026A0009105B9F070F082309105D9F0039709F0E7
:1026B000DEC0ECE9F4E0E4918E2F90E0ECE9F4E088
:1026C00038C0EAE0F5E0E4918E2F90E0EAE0F5E032
:1026D00030C0EEEEF4E0E4918E2F90E0EEEEF4E008
:1026E00028C0EAEBF4E0E4918E2F90E0EAEBF4E00E
:1026F00020C08330910508F0BAC0880F991FFC01F3
:10270000EE5BFE4F0190F081E02D89E090E014C077
:102710008330910508F0ABC0FC01EE0FFF1FE45CB5
:10272000FE4F0190F081E02DDC01A75CBE4F8C9143
:1027300090E0009709F49BC02091E800277F209348
:10274000E8002091BF013091C0012817390708F433
:10275000C90140E0009789F12091C101222309F4C9
:102760003DC02530D9F12091E80023FD37C02091EC
:10277000E80022FD2FC02091E80020FFEBCF409120
:10278000F3002091F20030E0342B009759F028300C
:10279000310540F444914093F100319601972F5F49
:1027A0003F4FF3CF41E02830310509F040E0209160
:1027B000E8002E772093E800CDCF4111CDCF0AC09D
:1027C0008091C101882351F0853041F08091E8006B
:1027D00083FD04C08091E80082FFF2CF8091E80081
:1027E0008B778093E80043C0803809F040C0809127
:1027F000E800877F8093E8008091B8018093F10022
:102800008091E8008E77C7CE811131C08091BB01E5
:102810009091BC019927029754F58091E800877F39
:102820008093E8001091BB011093B8010E94B6108C
:10283000111106C08091E30087FD02C081E001C054
:1028400084E08093C10142E061EC81E00E94D510F8
:1028500042E261EC84E00E94D51042E261EC82E049
:102860000E94D51042E260EC83E00E94D510809176
:10287000E80083FF10C08091E800877F8093E80024
:102880008091EB0080628093EB0005C082E190E0D4
:10289000EAE8F4E051CFAA960FB6F894DEBF0FBE77
:1028A000CDBFDF91CF911F9108951F920F920FB668
:1028B0000F9211242F933F934F935F936F937F93C6
:1028C0008F939F93AF93BF93CF93DF93EF93FF9338
:1028D000C091E900CF708091EC00D82FD17080FDBD
:1028E000D0E81092E9008091F000877F8093F0009B
:1028F00078940E9477111092E9008091F00088602E
:102900008093F000CD2BCF70C093E900FF91EF9141
:10291000DF91CF91BF91AF919F918F917F916F91F7
:102920005F914F913F912F910F900FBE0F901F908D
:102930001895E8EDF0E080818E7F80831092E200B0
:102940001092DA001092E100A0EEB0E08C9181606C
:102950008C9380818F77808319BCA7EDB0E08C9138
:102960008E7F8C9380818F7E80831092AB0108953F
:10297000CF92DF92EF92FF920F931F93CF93DF934B
:10298000C8EDD0E088818F7E8883E7EDF0E080811C
:102990008160808384E082BF81E08093AB01888185
:1029A0008E7F888302EE10E0F80110821092DA0028
:1029B00081EEC82ED12CF601108288818F77888312
:1029C00088818068888388818F7D888319BC109274
:1029D000C1011092B8011092B7011092B60190EEA9
:1029E000E92EF12CF70180818B7F808388818160C3
:1029F000888342E060E080E00E94D510F60180818B
:102A00008E7F8083F80180818160808380818860EF
:102A10008083F70180818E7F8083888180618883B5
:102A2000DF91CF911F910F91FF90EF90DF90CF90AA
:102A300008951F920F920FB60F9211242F933F9378
:102A40004F935F936F937F938F939F93AF93BF93B6
:102A5000EF93FF938091E10082FF09C08091E20033
:102A600082FF05C08091E1008B7F8093E10080911F
:102A7000DA0080FF2AC08091D80080FF26C08091B4
:102A8000DA008E7F8093DA008091D90080FF18C031
:102A900080E189BD82E189BD09B400FEFDCF81E0FE
:102AA0008093C1018091AB0181110FC00E949914E4
:102AB0000E94B8148091E20084608093E20005C017
:102AC00019BC1092C1011092AB018091E10080FF0E
:102AD00017C08091E20080FF13C08091E2008E7FDA
:102AE0008093E2008091E20080618093E200809117
:102AF000D80080628093D80019BC85E08093C10122
:102B00008091E10084FF2EC08091E20084FF2AC002
:102B100080E189BD82E189BD09B400FEFDCF8091CD
:102B2000D8008F7D8093D8008091E1008F7E8093C4
:102B3000E1008091E2008F7E8093E2008091E200CC
:102B400081608093E2008091B801882311F084E0D5
:102B500007C08091E30087FD02C081E001C083E0EF
:102B60008093C1018091E10083FF27C08091E20042
:102B700083FF23C08091E100877F8093E10082E0A2
:102B80008093C1011092B8018091E1008E7F809303
:102B9000E1008091E2008E7F8093E2008091E2006C
:102BA00080618093E20042E060E080E00E94D51006
:102BB0008091F00088608093F000FF91EF91BF91C9
:102BC000AF919F918F917F916F915F914F913F91C5
:102BD0002F910F900FBE0F901F9018952091E40039
:102BE0003091E50095E64091EC00842F817040FF24
:102BF00023C08091E80080FD1DC08091C101882321
:102C000099F0853099F08091EB0085FD11C04091DD
:102C1000E4005091E5002417350729F3915011F095
:102C20009A01E1CF84E0089582E0089583E0089559
:102C300081E0089580E008954091E80042FFDDCFF3
:102C40000895EF92FF920F931F93CF93DF937C0130
:102C50008B010E94EE15811119C0E70101151105C4
:102C6000A1F08091E80085FD0AC08091E8008E7790
:102C70008093E8000E94EE15882381F307C08991B4
:102C80008093F10001501109E9CF80E0DF91CF91ED
:102C90001F910F91FF90EF900895CF932091C10164
:102CA0002430F9F4C091E900CF703091EC00232F6B
:102CB000217030FD20E8C22B22E02093E900209112
:102CC000E80020FF0BC040E050E060E270E00E94AE
:102CD00021168091E8008E778093E800CF70C09332
:102CE000E900CF9108959091C101943029F5809326
:102CF000A8017093AA016093A9019093E9008FEF56
:102D00009091E800815095FD06C095ED9A95F1F7F8
:102D100000008111F5CF8091E80085FF0DC040E0F3
:102D200050E063E070E088EA91E00E942116809113
:102D3000E8008E778093E8000895BC0184E00C944D
:102D40007316BC0183E00C947316CF93DF9321E0DC
:102D50002093E9002FEF3091E800215035FD06C0A7
:102D600035ED3A95F1F700002111F5CF2091E800FB
:102D700025FF14C0EC0140E050E068E070E00E94E4
:102D800021168091E8008E778093E80088E0FE01AC
:102D9000AEEAB1E001900D928A95E1F7DF91CF9113
:102DA000089581E08093E00080E28093D800109243
:102DB000C9008FE19EE40197F1F700C0000087E0B1
:102DC00090EBDC0180933D0390933E03A0933F037F
:102DD000B09340039CE088E10FB6F894A8958093E7
:102DE00060000FBE90936000FFCF78941F920F9207
:102DF0000FB60F9211248F939F93AF93BF9380913F
:102E0000A4019091A501A091A601B091A7010196FE
:102E1000A11DB11D8093A4019093A501A093A601CB
:102E2000B093A701BF91AF919F918F910F900FBE6B
:102E30000F901F9018959C014FB7F8948091A401B2
:102E40009091A501A091A601B091A7014FBF821B4F
:102E5000930B08952FB7F8946091A4017091A50188
:102E60008091A6019091A7012FBF089580E090E086
:102E70000E94002180E090E00E94EA2010922C0243
:102E800010922B020C94231FCF92DF92FF920F938C
:102E90001F93CF93DF936C010091C20180913402A4
:102EA000082BC7E0D0E010E0C8010C2E02C09595B9
:102EB00087950A94E2F780FD04C02197A8F7F12CCA
:102EC00009C0FC2EB6018C2F0E946A240E94F91CB6
:102ED000019799F38F2DDF91CF911F910F91FF9063
:102EE000DF90CF900895CF93DF93EC010E944417B9
:102EF000BE010E946A240E94F91CDF91CF910895BF
:102F0000FC0186819781009719F00E94F91C04C08A
:102F1000808191810E947317292F2F70E92FE295EC
:102F2000EF704E2F50E0FA013297EE30F105B8F411
:102F3000E658FF4F0C94CE29803F99F018F4883E54
:102F400070F40FC0843F59F40CC0883E50F0813FAC
:102F500031F407C0822F869586958695089580E086
:102F6000089581E008959F92AF92BF92CF92DF9231
:102F7000EF92FF920F931F93CF93DF93CDB7DEB7FE
:102F800065970FB6F894DEBF0FBECDBF8C0185E00C
:102F9000F801DE01519601900D928A95E1F7F80152
:102FA000E2809091DD016091DE014091E00150915D
:102FB000E1014115510531F06F3F31F481E09F3F50
:102FC00019F403C081E001C080E0F82FF1709F2E5A
:102FD00080FD37C1F80130812181C380D4807DED2F
:102FE000A72E71E0B72EF090DF01F601E41BF50B80
:102FF000FF2009F4F5C08091E201E83CF10508F0FA
:10300000B0C0482F407F09F05AC062131BC0931311
:1030100019C06091E3017091E401F8014681578184
:103020006417750779F4FE2CE1100CC08F70806175
:103030008093E201C5010E9436048091E201F8010B
:1030400085833CC1CD2831F02F3F31F481E03F3FF3
:1030500019F403C081E001C080E080FD03C081E07D
:103060008E2502C080E090E0F82FF170FF2E80FFE7
:103070001CC0809126024091E501841709F4FCC030
:1030800090E0FC0153E0EE0FFF1F5A95E1F7EA5183
:10309000FE4F5181251306C05081531303C0528146
:1030A000E51203C001968770E8CFFE2CEE2009F4EC
:1030B00005C18091E20181608093E2015EC06213EC
:1030C00015C0931313C04091E3015091E401F8013E
:1030D000268137814217530749F4E11007C08583E1
:1030E000C8010E94360488E0F80190C0C8010E941F
:1030F0008017882381F1EE2071F12091E201822F67
:1031000082958F7090E00297A4F08091DD019091FC
:10311000DE019A8789871B86DD86CC862E87809183
:10312000E3019091E401988B8F87CE0109960E946C
:10313000360488E0F801ADEDB1E001900D928A957A
:10314000E1F70E94C41F0AC06217C9F0C8010E94BB
:103150008017811127C0C8010E943604FF24F39410
:10316000ADC0482F407F81F78DED91E00E9436047D
:1031700088E0F50111928A95E9F7F12C9FC093132D
:10318000E5CF4091E3015091E401F80126813781B8
:1031900042175307D9F6E110D9CF8583C8010E94A1
:1031A000360449C0EE20B9F22091E201822F8295C7
:1031B0008F7090E002970CF4BCCF8091DD0190916C
:1031C000DE019A8389831B82DD82CC822E838091EB
:1031D000E3019091E40198878F83CE010196A7CFF8
:1031E000E83CF10540F5FE2CEE2009F4B4CF621363
:1031F00014C0931312C02091E3013091E401F8014F
:10320000868197812817390741F488E0ADEDB1E058
:1032100001900D928A95E1F751C0C8010E94801774
:10322000811187CF8091E20181608093E201C80122
:103230000E94360443C088E0F50111928A95E9F7AF
:103240003DC0EE2009F487CFC8010E948017F82EF8
:10325000882309F480CF88E0F801ADEDB1E001905A
:103260000D928A95E1F78091DD019091DE010E9437
:1032700073170E94C41F22C0398B2A8B89899A89AF
:103280000E947317292F22952F70223028F49F70E7
:1032900039F0811105C00BC0243028F49F7049F427
:1032A000805E883020F0C8010E9436049F2CF92CE3
:1032B00005C0F8019581907F99F7F9CF8F2D65961C
:1032C0000FB6F894DEBF0FBECDBFDF91CF911F9137
:1032D0000F91FF90EF90DF90CF90BF90AF909F90B5
:1032E00008959E3F61F128E0929F800D1124682F80
:1032F000669566956695982F977083E0689FB001F4
:10330000112440E050E080E0FB01E40FF51FED5395
:10331000FE4F208130E0092E02C0369527950A9491
:10332000E2F721703327042E01C0220F0A94EAF736
:10333000822B4F5F5F4F4330510531F7089580E096
:1033400008959E3F51F128E0929F800D1124E82FAF
:10335000E695E695E695877051E001C0550F8A9590
:10336000EAF783E0E89FF0011124ED53FE4F20E0DF
:1033700030E070E04081CB01022E02C09695879527
:103380000A94E2F7817081958427852384278193AD
:103390002F5F3F4F2330310569F708958093C201B5
:1033A0000C94361721E030E001C0220F8A95EAF72D
:1033B00020958091C20182230C94CE1921E030E047
:1033C00001C0220F8A95EAF78091C201822B0C94EA
:1033D000CE19809334020C94361710922D0286E099
:1033E000E7EDF1E0DF011D928A95E9F70C943617BD
:1033F000CF93DF93CDB7DEB760970FB6F894DEBFFB
:103400000FBECDBF29873A874B875C876D877E8744
:103410008F87988BCE0109960E94B317811151C0F6
:1034200088E0FE013996DE01119601900D928A9591
:10343000E1F779856A854C855D854115510531F047
:103440006F3F31F481E07F3F19F403C081E001C098
:1034500080E080FD36C0A091E501B0E0CD0101968D
:10346000877099272091260230E08217930781F117
:1034700079836A835D834C8393E0AA0FBB1F9A957F
:10348000E1F7AA51BE4F98E0FE01319601900D92EE
:103490009A95E1F78093E5010E94BA1F12C028E0D7
:1034A000829FC00111248A519E4F0E94B317882326
:1034B000E1F08091260290E0019687709927809331
:1034C0002602809126029091E5018913E8CF0DC074
:1034D0000E94ED191092E50110922602EDEDF1E047
:1034E00088E0DF011D928A95E9F760960FB6F8949F
:1034F000DEBF0FBECDBFDF91CF910895882341F08D
:10350000809590912C02892380932C020C94231F88
:103510000895882339F090912C02892B80932C02F6
:103520000C94231F0895882321F00E941C1F0C94E3
:10353000231F0895882339F090912D02892B8093C1
:103540002D020C94231F0895882309F453C0682F7B
:10355000823869F40E94162181FF4CC069E385ED31
:1035600091E00E94D0200E94231F69E30EC083389F
:1035700091F40E94162180FF3DC063E585ED91E046
:103580000E94D0200E94231F63E585ED91E00E94F8
:10359000C3200C94231F843869F40E94162182FFF3
:1035A00029C067E485ED91E00E94D0200E94231F8E
:1035B00067E4EBCF8CEF860F813A38F380E2860F19
:1035C000883048F4677081E001C0880F6A95EAF797
:1035D0000E941C1FDECF8BE5860F833020F480E035
:1035E00090E00C940021685A673120F480E090E06C
:1035F0000C94EA200895CF93882309F496C0C82F2D
:103600008238B1F40E94162181FD8FC069E385EDF7
:1036100091E00E94D0200E94231F2FEF81EE94E0C2
:10362000215080409040E1F700C0000069E317C0DE
:103630008338E1F40E94162180FD77C063E585EDB3
:1036400091E00E94D0200E94231F2FEF81EE94E092
:10365000215080409040E1F700C0000063E585ED17
:1036600091E00E94C320CF910C94231F8438B1F4C1
:103670000E94162182FD59C067E485ED91E00E9409
:10368000D0200E94231F2FEF81EE94E02150804034
:103690009040E1F700C0000067E4E1CF8CEF8C0FB1
:1036A000813A80F4E7EDF1E08DED91E02191C217D0
:1036B000A1F18E179F07D1F76C2F85ED91E00E9445
:1036C000D020D1CF80E28C0F883068F4C77081E0C1
:1036D00090E001C0880FCA95EAF790912D02892BDE
:1036E00080932D02C0CFEBE5EC0FE33040F4F0E027
:1036F000E85BFE4F808190E0CF910C940021C85A86
:10370000C73198F4EC2FF0E0EE0FFF1FE55BFE4FA2
:1037100080819181CF910C94EA206C2F85ED91E00E
:103720000E94C3200E94231FC7CFCF9108951F93EB
:10373000CF93DF93182F893319F0C9E1D0E002C08D
:10374000C0E5D0E0812F0E94FB1A8FE99FE001972E
:10375000F1F700C000002197C1F7812FDF91CF91D1
:103760001F910C94A41A80E008959091810192FF1A
:103770000DC0282F2871283019F4877F846006C077
:10378000282F2471243011F48B7F886093FF0DC0A3
:10379000282F2871283119F4877E846106C0282FCC
:1037A0002471243111F48B7E88612091820120FFE5
:1037B0000DC0382F3871383019F4877F816006C00A
:1037C000382F3171313011F48E7F886021FF0DC0A8
:1037D000282F2871283119F4877E816106C0282F8F
:1037E0002171213111F48E7E886194FD877E0895C8
:1037F000F894E82FE295EF70F0E031A1282F2F70B8
:1038000081E090E001C0880F2A95EAF7982F909503
:10381000932391A392A1892B82A3789408959F92D8
:10382000AF92BF92CF92DF92EF92FF920F931F93CE
:10383000CF93DF9300D000D000D0CDB7DEB7AE017C
:103840004F5F5F4F7A0186E0FA0111928A95E9F79E
:1038500005E111E05A01CC24C394D12CF8018081F8
:103860008F3F09F447C0F894E82FE295EF70F0E03D
:1038700021A18F70A60102C0440F551F8A95E2F75F
:10388000CA01922F982B91A392A18095892382A39C
:10389000789400C0EBE1F1E020E030E0912C419120
:1038A0004F3FB1F0A42FA295AF70B0E090968C91ED
:1038B00090E04F7002C0959587954A95E2F780FD9C
:1038C00007C08C2D022E01C0880F0A94EAF701C0B0
:1038D00080E0982A2F5F3F4F2830310501F7F8012B
:1038E00080818F3F11F00E94F81BF0EAFA95F1F702
:1038F000F50190820F5F1F4FFFEFAF1ABF0A41E043
:103900000B31140709F0AACF46E050E0B70183E875
:1039100091E00E94EF2911E0009709F410E0892B53
:1039200089F086E0F701A3E8B1E001900D928A9555
:10393000E1F781E0809333020E942D2090933202C0
:1039400080933102809133028823A1F0809131026B
:10395000909132020E941B17059760F0E3E8F1E0B6
:10396000AEE9B1E081918D9351E0E938F507D1F7E7
:103970001092330280910C01882341F1809134032D
:1039800090913503009711F10E941B1720918E0230
:1039900030918F0228173907C8F490913203809133
:1039A0003303981759F00E94CE2110928F02109283
:1039B0008E02109235031092340308C00E945021E9
:1039C00010923503109234030E94AF21812F269666
:1039D0000FB6F894DEBF0FBECDBFDF91CF911F9120
:1039E0000F91FF90EF90DF90CF90BF90AF909F909E
:1039F0000895CF93DF938238910569F1B0F4813354
:103A0000910509F46FC048F48932910509F465C045
:103A10008A32910509F46BC08AC08533910509F497
:103A200057C089339105B9F082C0833E910571F189
:103A300038F4803E9105B1F0823E910511F177C0D6
:103A4000863E9105B9F1873E9105C9F1843E910505
:103A500009F06DC024C02091810120FD53C021FDDB
:103A600051C065C08091810180FD46C08091820176
:103A700080FF48C08091810184FD3FC183EE90E0CA
:103A80003EC18091810182FF3AC0F4CF80918101D3
:103A900082FD35C08091820180FD34C0EBCF8091E2
:103AA000820181FF35C08091810184FD26C187EEAE
:103AB00090E025C18091810183FF27C0F4CF8091E0
:103AC000810183FD22C08091820181FD21C0EBCF65
:103AD0008091810185FD1FC021C08091810185FDFC
:103AE0001DC019C08091810186FD1BC01DC0809141
:103AF000810186FD19C015C089E390E000C182EE06
:103B000090E0FDC080EE90E0FAC086EE90E0F7C055
:103B100084EE90E0F4C089E290E0F1C085E390E0AB
:103B2000EEC08AE290E0EBC081E390E0E8C081154E
:103B300032E5930708F069C0811541E5940728F044
:103B4000982F8827816F906ADAC0883E910568F5C2
:103B5000803E910508F0D3C0883A9105B8F4853AC3
:103B6000910548F0855AE82FF0E0E85BFE4F808130
:103B700090E09064C4C08130910509F4BBC008F4A2
:103B8000BCC08430910508F4B8C0B9C08F3B910522
:103B900008F0B3C0885AE82FF0E0EE0FFF1FE55B96
:103BA000FE4F808191819464AAC0811520E592071F
:103BB000F0F09C0174E0369527957A95E1F7922F05
:103BC0009370482F437021E030E002C0220F331F72
:103BD0004A95E2F73C68392B8F70982F9695969509
:103BE00040E2949FC0011124822B932B88C0811541
:103BF00030E4930718F09F70906A81C09C013A9559
:103C000021153F4108F47BC078C0EC01C11586E561
:103C1000D807E8F5C11525E5D20748F08C2F0E949A
:103C2000B51B8F7190E0982F8827906268C0C115EE
:103C300034E5D30728F09C2F8827846F906A5FC0F3
:103C4000AE01437055272C2F26952695C115D345D7
:103C500078F481E090E002C0880F991F4A95E2F75E
:103C600040E2249F90011124822B932B9C6847C033
:103C700081E090E002C0880F991F4A95E2F740E288
:103C8000249F90011124822B932B9A6838C0C11570
:103C90002AE5D207F8F4C11539E5D30790F08C2F47
:103CA0008F700E94B51B94E0D695C7959A95E1F761
:103CB000CF70D0E0DC2FCC27D0699E01282BC90122
:103CC0001EC0C11548E5D407C0F09C2F8827806F1F
:103CD000906A15C0CE0190568115904270F48D2FD8
:103CE0008F710E94B51B282F2F71CE0199279062EA
:103CF000922B05C081E090E002C080E090E0DF916F
:103D0000CF910895CF9384E090E00E947029C82F4E
:103D100082E290E00E9470292C2F30E0A901582BFC
:103D2000CA01CF9108956AEE7EEF80E090E00E9494
:103D30009C2960E082E090E00E947E2960E083E0C0
:103D400090E00E947E291092340260E084E090E0CE
:103D50000E947E2960E082E290E00E947E2960E07D
:103D600085E090E00E947E2960E086E090E00E947D
:103D70007E296FEF87E090E00E947E2940E050E0CE
:103D8000BA0188E090E00E94902960E08DE090E028
:103D90000E947E2940E050E0BA0188E190E00E9454
:103DA000902960E087E190E00E947E2940E050E0A9
:103DB000BA018CE190E00E94902960E070E080E21E
:103DC00090E00E949C2940E050E0BA0188E190E038
:103DD0000E94902980E00E9433250E94512540E0F6
:103DE00050E0BA018FE090E00E94902940E050E05E
:103DF000BA0183E190E00C949029809130028823ED
:103E000031F01092300210922F0210922E0208957B
:103E1000CF939091820192FD0DC09091300298173E
:103E200049F0C82F0E942D2090932F0280932E02DC
:103E3000C0933002CF910895809590912D028923EF
:103E400080932D02089590912D0280912C02892B50
:103E500090912B02892B8093D50180913002882389
:103E600011F10E942D2020912E0230912F02821BF1
:103E7000930B8838934110F00E94FD1E9091D5015C
:103E800080913002892B8093D501E7EDF1E097E036
:103E900080E0915029F021912223D9F38F5FF9CF4F
:103EA00081110E94FD1EE0913803F0913903309793
:103EB00031F00280F381E02D85ED91E009940895C1
:103EC000CF93C0918201C2FB992790F9981781F096
:103ED00080FBC2F9C09382016091810184E090E08F
:103EE0000E947E296C2F82E290E0CF910C947E2973
:103EF000CF91089510922A0210922902109228025E
:103F0000089520912A028095822380932A02982F77
:103F1000977041F430E0482F082E000C550B241701
:103F2000350721F49091820192FF07C08595859510
:103F300085950E94D2190C947A1F08959091820160
:103F400092FD10C098E0899F90011124262B2093A8
:103F50002A020E94DE190E942D209093290280934C
:103F6000280208950C94DE19809127028111109285
:103F700027020895809126029091E501891719F092
:103F80008F5F8770FBCF08951F93CF93DF9380914E
:103F9000E20182958F7009F05CC08091DF01882377
:103FA00009F457C0809126021091E5016091DD016E
:103FB0007091DE01C091E001D091E10191E06F3F8D
:103FC00009F090E0292F811709F443C0209721F0D0
:103FD0007F3F21F030E003C031E001C0322F90E09C
:103FE00030FD34C0FC0133E0EE0FFF1F3A95E1F7DE
:103FF000DF01AA51BE4F11963C911197371326C08D
:104000003C91361323C012963C91129731111EC079
:1040100013964D915C9114974C1B5D0B483C5105D8
:10402000A8F48091E2018F7080618093E201E551F4
:10403000FE4F80818F70806180838DED91E00E94C2
:104040003604DF91CF911F910C94BA1F01968770AF
:10405000BACFDF91CF911F9108952FB7F894809137
:10406000A4019091A501A091A601B091A7012FBF35
:104070000895CF93DF9300D000D01F92CDB7DEB765
:104080009093880280938702811520E2920748F47A
:104090000F900F900F900F900F90DF91CF910C9495
:1040A000F4288EEF89838A831B820E942D208160F1
:1040B000782F9D838C8349815A816B818D810E94E9
:1040C0009E260F900F900F900F900F90DF91CF9141
:1040D0000895CF93DF9300D000D01F92CDB7DEB705
:1040E0009093880280938702811520E2920748F41A
:1040F0000F900F900F900F900F90DF91CF910C9435
:104100000E298EEF89838A8381E08B830E942D2084
:104110008160782F9D838C8349815A816B818D8149
:104120000E949E260F900F900F900F900F90DF919E
:10413000CF9108951F920F920FB60F9211248F9373
:104140009F93AF93BF9380913C03811113C08091E3
:10415000A4019091A501A091A601B091A70141965B
:10416000A11DB11D8093A4019093A501A093A60168
:10417000B093A701BF91AF919F918F910F900FBE08
:104180000F901F9018959C012A5F3F4FFC014281C0
:10419000461301C01282019682179307B9F708955A
:1041A0009C01FC0132969FEF80E04191461789F017
:1041B0009F3F19F4411101C0982F8F5F8630A9F7F6
:1041C0009F3F39F0F901E90FF11D97FDFA956283E0
:1041D0000895089520913A0330913B032817390739
:1041E00071F090933B0380933A03E0913803F09190
:1041F0003903309721F00084F185E02D099408956A
:1042000020913603309137032817390771F09093C6
:10421000370380933603E0913803F09139033097E8
:1042200021F00680F781E02D09940895E09138038C
:10423000F0913903309721F00190F081E02D09943D
:1042400080E00895BC014091320380913303942FA4
:10425000981729F1292F30E0F901EE0FFF1FE65DD5
:10426000FC4F0190F081E02DE617F70799F487E005
:10427000869FF001879FF00D1124EE50FD4F81E0E5
:10428000848394130CC02F5F3F4F237033272093F8
:10429000320308952F5F3F4F922F9370D9CF089527
:1042A0000F931F93CF93DF9380919102882309F49A
:1042B00051C0C09190021CE080919102C81708F093
:1042C00045C001E00C0F00939002D0E01C9FF0016C
:1042D0001D9FF00D1124EE56FD4F908181812381A9
:1042E0003481232B31F08F3F31F481E09F3F19F46B
:1042F00003C081E001C080E080FD26C01C9FD0018A
:104300001D9FB00D1124AE56BD4F16968D919C91F8
:104310001797892B31F418968D919C9119970196D6
:1043200051F420813181428153816481758186817C
:1043300097810E94F8191C9FF0011D9FF00D112418
:10434000EE56FD4F14821382C02FB6CF1092910209
:1043500010929002DF91CF911F910F9108951092CA
:104360008F0210928E02E2EFF2E08581811102C08D
:1043700014821682379683E0EA32F807B1F708957F
:10438000109235031092340310920C018091330384
:10439000809332030E94AF210C9450213F924F92A0
:1043A0005F926F927F928F929F92AF92BF92CF92C5
:1043B000DF92EF92FF920F931F93CF93DF93C09101
:1043C000320397E0892E01E010E02CE0322E3EEF20
:1043D000932E4424439480913303C81709F478C082
:1043E000D0E0FE01EE0FFF1FE65DFC4F8081918162
:1043F000889ED001899EB00D1124AE50BD4F1496F9
:104400002C911497211161C050909102E2E9F2E0E1
:1044100020E030E0712C5D01251508F054C0E284E5
:10442000F384D501CD90DC906FEF7FEF612C462DAA
:1044300050E0DA01AA0FBB1FAC0DBD1D0D90BC9161
:10444000A02D109731F0EA16FB0609F4BA01639427
:10445000EECF6F3FBFEF7B0791F1D80102C0AA0FEB
:10446000BB1F6A95E2F77A2AB80102C0660F771F70
:104470006A94E2F7AB0141505109672D70E046178D
:104480005707D9F4329EF001339EF00D1124EE56F9
:10449000FD4F889ED001899EB00D1124AE50BD4FB6
:1044A00012962D913C9113973783268390829182A7
:1044B0009187808715964C9206C0148213822F5FD5
:1044C0003F4F3C96A9CF0E9422212196C37083CFF3
:1044D0000E945021DF91CF911F910F91FF90EF909B
:1044E000DF90CF90BF90AF909F908F907F906F9014
:1044F0005F904F903F900C94AF210F931F93CF93F9
:10450000DF93C42FD22FFC0182818823C9F040930E
:104510008D020E942D2090938C0280938B0280E26A
:104520008C0F883008F057C0C77081E001C0880F39
:10453000CA95EAF7DF91CF911F910F910C949A1AC7
:1045400080918D02481330C080918B0290918C0233
:104550000E941B17883C910538F510E21D0FCD17FE
:10456000B9F080E28C0F883040F4C77081E001C060
:10457000880FCA95EAF70E94931A183028F581E04F
:104580009D2F977001C0880F9A95EAF70E949A1A9A
:10459000802F0E94971B1830F0F4D77081E001C083
:1045A000880FDA95EAF70AC080E28C0F883098F419
:1045B000C77081E001C0880FCA95EAF7DF91CF91FB
:1045C0001F910F910C94931A802FDF91CF911F911F
:1045D0000F910C94971BDF91CF911F910F9108952C
:1045E000CF93DF93C3E9D2E060E0CE010E947E2941
:1045F0002196C11584E0D807B9F7DF91CF910895CE
:104600000F931F93CF93DF93853068F5633058F590
:10461000423048F521159CE5390731F4E0918502D7
:10462000F0918602EF2BF9F08901282F34E0639F87
:10463000C00111243CE0239F800D911D1124840FA3
:10464000911D840F911DEC01C95FDD4F612FCE01DB
:104650000E947E29602FCE010196DF91CF911F919C
:104660000F910C947E29DF91CF911F910F910895A6
:104670000F931F93CF93DF93853018F5633008F5C0
:104680004230F8F4282F34E0639FC00111243CE04D
:10469000239F800D911D1124840F911D840F911D66
:1046A000EC01C95FDD4FCE010E94702990E0182F08
:1046B0000027CE0101960E9470299801282BC9017C
:1046C00002C080E090E0DF91CF911F910F9108959B
:1046D0000F931F93CF93DF93853058F5663048F5DD
:1046E000483038F521159CE5390731F4E091850211
:1046F000F0918602EF2BE9F08901C42FD0E0CC0FB6
:10470000DD1F90E1699FC00DD11D112490E6899FA6
:10471000C00DD11D1124612FCE0187960E947E29E4
:10472000602FCE018896DF91CF911F910F910C944D
:104730007E29DF91CF911F910F9108954F925F9243
:104740006F927F928F929F92AF92BF92CF92DF92A1
:10475000EF92FF920F931F93CF93DF93CDB7DEB706
:104760002A970FB6F894DEBF0FBECDBF60908502CA
:104770007090860281E090E090938602809385029B
:104780009EE0A92E95E0B92EC12CD12C512C412CA4
:10479000E12CF12C00E010E047018C0C9D1CF40191
:1047A000E00FF11FEE0FFF1FE65BFA4F25913491EA
:1047B000402F642D852D0E9468230F5F1F4F083006
:1047C000110569F788E0E80EF11C439496E0491260
:1047D000E1CF750110E0F7012591349140E0612FA0
:1047E000852D0E940023F70132962591349141E0F6
:1047F000612F852D0E940023E4E0EE0EF11C1F5F67
:10480000133049F7FCE0AF0EB11C539480E3C80E9F
:10481000D11C95E05912BBCFFE0131967F018AE091
:1048200011928A95E9F703E412E04AE050E0B801FA
:10483000C7010E94A229065F1F4F0339F2E01F073C
:10484000A1F770928602609285022A960FB6F894BC
:10485000DEBF0FBECDBFDF91CF911F910F91FF90B3
:10486000EF90DF90CF90BF90AF909F908F907F9010
:104870006F905F904F9008950F931F93CF93DF93A6
:10488000853008F56630F8F44830E8F4C42FD0E0FD
:10489000CC0FDD1F20E1629FC00DD11D112430E639
:1048A000839FC00DD11D1124CE0187960E947029CF
:1048B00090E0182F0027CE0188960E947029980159
:1048C000282BC90102C080E090E0DF91CF911F91B9
:1048D0000F910895462F2091890230918A02232B4F
:1048E00091F47E3F39F46E3F71F48091870290918C
:1048F00088020895853038F4763028F4683018F44A
:10490000672F0C943C2480E090E00895CF92DF92D2
:10491000EF92FF920F931F93CF93DF93CDB7DEB744
:104920002A970FB6F894DEBF0FBECDBF80E5E5E352
:10493000F2E0DF011D928A95E9F788E3E2EFF2E009
:10494000DF011D928A95E9F785E3C82E82E0D82E13
:104950007F0103E412E0F701D182C0824AE050E017
:10496000B801CE0101960E94602988E0FE013196CF
:10497000D60101900D928A95E1F789859A85D70134
:1049800013969C938E931297BAE0CB0ED11CE7E05E
:10499000EE0EF11C065F1F4F0339F2E01F07D9F638
:1049A0002A960FB6F894DEBF0FBECDBFDF91CF9130
:1049B0001F910F91FF90EF90DF90CF900895AF92ED
:1049C000BF92CF92DF92EF92FF920F931F93CF93FC
:1049D000DF93B82EA62EC090C20180913402C82A5F
:1049E000C7E0D0E0D12CE12CF12CD701C6010C2E70
:1049F00004C0B695A795979587950A94D2F780FF3E
:104A000013C04A2D6B2D8C2F0E9438238C018130CE
:104A1000910551F00E9469208FE39CE90197F1F71D
:104A200000C00000C80111C02197F8F64A2D6B2D77
:104A300080E00E943823EC010E9469208FE39CE90A
:104A40000197F1F700C00000CE010E94392081E0FB
:104A5000DF91CF911F910F91FF90EF90DF90CF905A
:104A6000BF90AF900895CF93C82F811102C06FEF10
:104A700001C06AEC83E290E00E947E29C11102C06D
:104A80006FEF01C063EB84E290E00E947E29C111C8
:104A900002C06FEF01C06AEA85E290E0CF910C940A
:104AA0007E2980E00E94332560E086E290E00E944B
:104AB0007E290E949E230E94F02281E00C943325DF
:104AC00083E290E00E9470298A3C81F484E290E0C5
:104AD0000E947029833B51F485E290E00E94702986
:104AE00091E08A3A09F090E0892F01C080E081705E
:104AF00008959C013A9521153F4130F5BC01662788
:104B00007270AC01442754709C012227387094FFC6
:104B10000FC090FF02C080E101C080E0672B09F068
:104B20008062452B09F08064232B79F0806808951A
:104B3000892F8170672B09F08260452B09F0846012
:104B4000232B19F08860089580E00895DF92EF929A
:104B5000FF920F931F93CF93DF93E82FF0E0E65A75
:104B6000F84FD490282F26952695269530E0F90108
:104B7000E65BF84F0491877010E0082E02C015958F
:104B800007950A94E2F701701127F901E65CF84FE6
:104B9000E490F12C082E02C0F594E7940A94E2F711
:104BA00091E0E922FF24F901E65DF84FC491D0E0DD
:104BB00002C0D595C7958A95E2F7C170DD2701152A
:104BC000110519F081EE0E94FB1AE114F10419F0AD
:104BD00086EE0E94FB1A8D2D0E94971BEF2819F07C
:104BE00086EE0E94A41A012B19F081EE0E94A41AED
:104BF000CD2B51F08CE2DF91CF911F910F91FF905F
:104C0000EF90DF900C94971BDF91CF911F910F9144
:104C1000FF90EF90DF900895EF92FF921F93CF9354
:104C2000DF93EC011AE08881882309F44AC08130BF
:104C300009F043C08981813041F47E0182E0E80EB1
:104C4000F11C8A810E94971B09C0823049F47E01C1
:104C5000E2E0EE0EF11C8A810E94FB1AE7012FC0F0
:104C6000833041F47E01F2E0EF0EF11C8A810E9454
:104C7000A41AF4CF843011F0219621C02A81229603
:104C800080E090E030E0205331092A30310558F4BB
:104C9000189FA001199F500D1124C901840F951F61
:104CA00021962881EFCF009751F0EFE9FFE031978F
:104CB000F1F700C000000197F6CF0E94A6252196CB
:104CC000B2CFDF91CF911F91FF90EF9008951F9386
:104CD000CF93DF9300D000D01F92CDB7DEB7FC0199
:104CE00086819781009709F5CF0125E0DE011196B5
:104CF00001900D922A95E1F7FC01228189819A8128
:104D0000222359F0662349F00E944417182F682F78
:104D100089819A810E94A11903C00E947119182FDC
:104D200069817A81812F0E946A240F900F900F90E1
:104D30000F900F90DF91CF911F9108952F923F9286
:104D40004F925F926F927F928F929F92AF92BF929B
:104D5000CF92DF92EF92FF920F931F93CF93DF9347
:104D6000CDB7DEB76A970FB6F894DEBF0FBECDBFE2
:104D7000498B5A8B6B8B7C8B8D8B611110922C0223
:104D80008E01075F1F4F88E0F80111928A95E9F7BD
:104D900085E0FE017196D80101900D928A95E1F7A8
:104DA0000E942D202091280230912902821B930B12
:104DB0008838934140F080912A0282FB992790F92C
:104DC00081E0892701C080E080FF03C082E00E946B
:104DD000811F0E942D2020912E0230912F02821BD4
:104DE000930B8838934110F00E94FD1E99858A85A7
:104DF0002C853D85232B31F08F3F31F481E09F3F9F
:104E000019F403C081E001C080E080FDCAC161E007
:104E1000C8010E9467266C0187EFC8168CE5D8068A
:104E200039F48B858823B9F081E080930C01B9C1F6
:104E300098EFC9169CE5D90631F48B85882359F083
:104E40000E94C021AEC1E9EFCE16ECE5DE0619F4F2
:104E50008B85811111C002EF12E0712CA12CB12CB5
:104E600088248394912C55245394CE0101969F8BD2
:104E70008E8BF7E04F2E49C080910C018823A1F260
:104E8000DFCFC616D70609F097019F5F7901292F5A
:104E900030E0F901EE0FFF1FE40FF51F6081718113
:104EA0006115710571F7FFEFEF16FF0609F42DC1CB
:104EB000F8016481611131C020910C01822F817051
:104EC0006B84F80135812681662009F4C6C08823E9
:104ED00009F4C3C0332321F1940102C0220F331F10
:104EE0009A95E2F721503109F801868190E0281760
:104EF000390759F17628FFEFAF1ABF0A095F1F4F34
:104F000028E0A216B10409F402C1F80140815181E0
:104F1000EE24EA94FE2C90E0BACF20E030E0CECF31
:104F2000A40101C0440FEA94EAF7242B26832091C0
:104F30008E0230918F022233310570F622E330E089
:104F400030938F0220938E02C7CF809134039091CB
:104F50003503009729F00E941B17C39708F01EC164
:104F600080913203F0913303F88FE0E0F0E0288D78
:104F7000821709F460C0282F30E0F901EE0FFF1FFF
:104F8000E65DFC4F20803180429CF001439CF00D97
:104F90001124EE50FD4FF080E18050E090E040E0C1
:104FA000EF2DFE2DE40FF11DE40FF11DA081B18165
:104FB0001097D1F0F801F081F98FF801F181FA8FA3
:104FC00090E0E98DFA8DE90FF11DE90FF11D608187
:104FD00071816115710531F0A617B70709F451E029
:104FE0009F5FEFCF4F5FDCCF5523F9F09417C8F0E8
:104FF000429CF001439CF00D1124EE50FD4F309780
:10500000B1F054820E171F0709F474CF9091320348
:1050100089130DC0C90101968370992780933203CB
:1050200006C00115110509F0B9C0E0E0F0E0C901C2
:10503000019683709CCF0E171F0709F45BCF90E099
:10504000FC01EE0FFF1FE65DFC4FB182A0820196CE
:1050500083709927809333034DCF311112C0A4017F
:1050600002C0440F551F9A95E2F74150510930E0B4
:1050700042175307E9F56623E1F1C5010E94222199
:1050800037C0822F90E09C01215031092823392319
:105090000E2C02C0959587950A94E2F7232B31F5E3
:1050A00080FF24C0F80182819381892BD9F088E0A8
:1050B000EE89FF8911928A95E9F78EEF89838A83B9
:1050C0000E942D208160582F9D838C83F80182815E
:1050D00093818F83988729813A814B816D817E816D
:1050E0000E94F819F801158281E003C0817001C0A7
:1050F00080E0940101C0220FEA94EAF72095F801BC
:10510000968129232683682EF5CE612CF3CE8B85DC
:10511000882381F1772071F10E942D20909335032F
:105120008093340380919102883008F044C091E06C
:10513000980F9093910298E0FE013996DE01119646
:1051400001900D929A95E1F7ECE08E9FC001112439
:105150008E569D4F28E0FE013196DC0101900D92A4
:105160002A95E1F72FEF3FEFFC0131872087D386A7
:10517000C28621C09091320380913303981719F0B1
:105180000E94CE2108C00E94502110923503109237
:1051900034030E94AF21772021F00DC0F801548222
:1051A000A9CE29853A854B855C856D857E858F8561
:1051B00098890E94F8196A960FB6F894DEBF0FBE60
:1051C000CDBFDF91CF911F910F91FF90EF90DF90B6
:1051D000CF90BF90AF909F908F907F906F905F9097
:1051E0004F903F902F900895CF93DF93EC010E9452
:1051F000A41ACE01805E9109089710F0209739F427
:10520000CE010E947925DF91CF910C94931ACE01A3
:105210000E947925DF91CF910C947E1ACF93DF9372
:10522000EC01805E9109089710F0209731F4CE01CF
:105230000E9479250E949A1A05C0CE010E94792504
:105240000E94891A8C2FDF91CF910C94FB1ACF9377
:10525000DF93C0917D01D0917E01CE0195558F3FA6
:10526000910509F048F48C2FC4FF02C08295807F1D
:10527000DF91CF910C94081FCE010E940E298FE779
:1052800098E321E0815090402040E1F700C0000009
:10529000CE01DF91CF910C94F42810927C010E94F2
:1052A000162181FF03C089E30C94971B0895FB012D
:1052B000DC0102C005900D9241505040D8F708958E
:1052C000DC01CB01FC01F999FECF06C0F2BDE1BDC6
:1052D000F89A319600B40D9241505040B8F70895B5
:1052E000F999FECF92BD81BDF89A992780B50895AE
:1052F000A8E1B0E042E050E00C946229262FF99931
:10530000FECF92BD81BDF89A019700B4021639F024
:105310001FBA20BD0FB6F894FA9AF99A0FBE0895F5
:105320000396272F0E947F290E947E29252F0E9405
:105330007F29242F0C947F290196272F0E947F29F3
:105340000C947E29DC01CB0103C02D910E94AD2974
:1053500041505040D0F70895262FF999FECF1FBA3B
:1053600092BD81BD20BD0FB6F894FA9AF99A0FBE8E
:105370000196089597FB072E16F4009407D077FD49
:1053800009D00E94DB2907FC05D03EF49095819559
:105390009F4F0895709561957F4F0895EE0FFF1F01
:1053A0000590F491E02D09946927962769277827BD
:1053B000872778270895AA1BBB1B51E107C0AA1FA6
:1053C000BB1FA617B70710F0A61BB70B881F991FA6
:1053D0005A95A9F780959095BC01CD010895FB01E0
:1053E000DC0104C08D910190801921F4415050409E
:1053F000C8F7881B990B0895DC0101C06D934150DB
:0A5400005040E0F70895F894FFCF44
:10540A00FF6911A5166811A1169D160101693CEAEA
:10541A0084B6CCB4AC92F4F5F6F7313534C6976657
:10542A0094323300FF0100010000FFFF0000010079
:10543A0001FF0037F190953691402232EF03CD03F8
:10544A009B0341045A047A04818283E200E900EA58
:10545A0000B500B600B700CD008301CC008A0192E6
:10546A000194012102230224022502260227022A8C
:0A547A0002B300B4006F00700000E0
:00000001FF
