:100000000C94F7030C943E040C943E040C943E04B0
:100010000C943E040C943E040C943E040C943E0458
:100020000C943E040C943E040C94CF190C940B19C0
:100030000C9480200C943E040C943E040C943E04DA
:100040000C943E040C943E040C943E040C943E0428
:100050000C943E040C943F200C943E040C943E04FB
:100060000C943E040C943E040C943E040C943E0408
:100070000C943E040C943E040C943E040C943E04F8
:100080000C943E040C943E040C943E040C943E04E8
:100090000C943E040C943E040C943E040C943E04D8
:1000A0000C943E040C943E040C943E04D108E708E2
:1000B000EE0826093709420952096509A409A90968
:1000C000030A030A030AB109400E400E790E790EA5
:1000D000DB0E161016101610F90E6D0F7E0F7E0F28
:1000E00051115111641164115A1164116411641198
:1000F000511151115F11641164115F1113173A17F7
:10010000ED183A17ED188617A917ED18AA18BA189E
:10011000FD377A585A000004E6D6B44602002101A1
:1001200016000000742FE5A3E0085302455D003D72
:100130008889C65436C3174FE4F1E112FDEF008EF3
:10014000FF6F9387B42647FBB729D03483DA2C4E50
:100150008C1ED4A2101D9A2C5F0D89D296E2560FE8
:100160001E575FB410F19A9B18602D7EFBA74803C1
:10017000850A09BB61BA19807BBF8567EF57236F7A
:10018000F0788933D06222FCBD0E51E6DEAF7BE809
:10019000DAA260551D19D1FB286DE36D5BBD4122CC
:1001A000218BEA6383C8A2495A31655DBD002908E5
:1001B000EFA3B6E19EAEF3D84A9B2F0D317CDC7ADB
:1001C000E26D5B8D9F4C1A0FEED72802735D24FA07
:1001D000E0CD52AD5FA9557D24C66E6096EE3854D1
:1001E00061552D353326C0C365397C77239B589BD9
:1001F0007C90A1BFBD6D204BBF2FE0C2EF0363B564
:10020000AC02FDD87142E85C47D08B8B08455CE2BC
:10021000D1BD93A36E6B7B019B123EA7AB5EB577FE
:10022000FDE833C6F7BB8181344D4831C367B9E37C
:100230003A8438C073722F53E5B769DD775E305F5B
:100240002782C90FFEE70EAAEAE455B91AF196FE15
:100250008AE7C52E76B72D2C05C44C4C9E75684B8D
:100260001B92247E2B906DF9DE48E3E4A467E21B29
:100270004A6CFA5A78AABE7A60553A67389C7FBAB7
:100280003B8D1B128E5FB2763748EB7D972226118D
:10029000EBAEEE4E87D5FA484DA991F4B5CBB4B785
:1002A00035D19F40D5E312191F76715BA303830EEE
:1002B000C87AFA73CC48F9436FBCADF442CCC64C53
:1002C0008DA0FF9EFAD6F6E65D11F9640DEDB69BA2
:1002D0005DBBDF9DC9DF085FCD2BE31E49F9E2114D
:1002E000DE6CDC707AD4075AFF4099DBBCEA657B90
:1002F0002A642CA48220E55D181AD31FAF0B6F8AE5
:10030000701E4C95AE69E6EC7CAA614CAE2FD61CF3
:100310005296328C661C8E0964B5236864287593E6
:100320002C911DA0C9AA1DFB9B345575DFAC63A39E
:100330006274506CFB2CCA5497D6DB2F5D6FDF764E
:10034000D5948A1EA7855FE6802992D46176588C61
:1003500098975A6826CDB1651D8D8A5C5236D1C4F6
:1003600021A22A8366E99C0CB0428FBD51715A7359
:10037000ABE82CB000000000896E945E7653C6197D
:100380000001E104D41000008437DD5EB1C467FBD6
:10039000020000000004595A2E200005010902A1A4
:1003A0000185020901A1000509190129051500258A
:1003B000019505750181029501750381010501090A
:1003C0003009311581257F95027508810609381598
:1003D00081257F950175088106050C0A3802158173
:1003E000257F950175088106C0C005010980A1011E
:1003F000850319012AB700150126B700950175106C
:100400008100C0050C0901A101850419012AA0027F
:10041000150126A002950175108100C00660FF0934
:1004200061A1010962150026FF009520750881026F
:100430000963150026FF00952075089102C005018B
:100440000906A101050719E029E71500250195080E
:10045000750181029501750881010507190029FFC1
:10046000150026FF00950675088100050819012969
:1004700005950575019102950175039101C0090269
:100480005B00030100A0FA09040000010301010060
:100490000921110100012240000705810308000A1B
:1004A00009040100020300000009211101000122DA
:1004B0002200070582032000010705030320000135
:1004C00009040200010300000009211101000122BA
:1004D00081000705840320000A12010002000000C9
:1004E00008FEFEBBFF0100010203011C0376006948
:1004F0000061006C003A0066003600340063003290
:100500000062003300630000003203730061006486
:100510000065006B006200610072006F007500648E
:100520000069002000660066006B0062005F0062E8
:100530000079006F006D006300750000001A0373FE
:10054000006100640065006B006200610072006F72
:100550000075006400690000000403090429001408
:10056000001A000800150017001C0018002B0004DA
:10057000611668076409620A000B000D72E1001D34
:10058000001B00060019000500110010000000000B
:10059000000E7437001200337138002A0000002B5F
:1005A0000436000C000F781300E50034002A01A87F
:1005B000004C0031002800015102512C0001001EA6
:1005C000021F022002210222022302240201000152
:1005D00053025303530453010001002D020100395B
:1005E0000001000100010001000100010000000005
:1005F000002E023102260230023402010000000106
:1006000000010025022F0227020100010001000164
:100610000001000100010001000351010035001E2E
:10062000001F00200021002200230024004A005067
:1006300000510052004F002B0001002D000100016D
:10064000004E004B000100815F845F825F0000006C
:10065000002E000100260030000100010000000112
:1006600000835F25002F0027000100010001000129
:10067000000100010001000351010001000100C25E
:100680005CC45CC35C010001003A003B000100CB8C
:100690005CC55CC75CC95C01003F0040000100CC48
:1006A0005CC65CC85CCA5C010044004500000000F8
:1006B00000410001003D004300005C01000000011A
:1006C0000001003C0042003E000100010001000169
:1006D0000001000100010001000100010001000112
:1006E0000001000100010001000100010001000102
:1006F00000010001000100010001000100010001F2
:1007000000010001000100010001000100000000E3
:1007100000010001000100010001000100000001D2
:1007200000010001000100010001000100010001C1
:1007300000010001000100010001000100000000B3
:1007400000000000000000000000000000000000A9
:100750000000000000000000000000000000000099
:10076000007E0F00D4FFFFFFC700000078000000EC
:1007700000000000002A2B280000000000000000FC
:10078000000000000000000029000000002C1E34C2
:1007900020212224342627252E362D3738271E1FC8
:1007A000202122232425263333362E37381F0405F3
:1007B000060708090A0B0C0D0E0F10111213141561
:1007C000161718191A1B1C1D2F3130232D3504053F
:1007D000060708090A0B0C0D0E0F10111213141541
:1007E000161718191A1B1C1D2F3130354C001124F7
:1007F0001FBECFEFDAE0DEBFCDBF04B603FE27C0D9
:1008000080913C0390913D03A0913E03B0913F0342
:100810008730904BA740B04BD1F410923C0310921C
:100820003D0310923E0310923F0314BE84B7877FAE
:1008300084BF0FB6F894A89580916000886180937A
:100840006000109260000FBEE0E0F8E3099511E04F
:10085000A0E0B1E0E0E2F6E502C005900D92A4361A
:10086000B107D9F723E0A4E6B1E001C01D92AC3393
:10087000B207E1F70E9440040C940E2B0C94000088
:10088000CF93DF93CDB7DEB7C654D1090FB6F89436
:10089000DEBF0FBECDBF84B7877F84BF0FB6F8948D
:1008A000A89580916000886180936000109260003C
:1008B0000FBE90E080E80FB6F894809361009093AB
:1008C00061000FBE85B7806885BF85B7806885BF2A
:1008D00089E29BE190936501809364010E94522418
:1008E0000E944F190E946E198091E20084608093EB
:1008F000E20078948091CD018823A1F01091E90065
:100900001F709091EC00892F817090FD80E8182B6A
:100910001092E9008091E80083FD0E942D161F705F
:100920001093E90082E084BD93E095BD9AEF97BDF6
:1009300080936E000E94E328811102C00E94D42897
:1009400005E111E0BBE1EB2EB1E0FB2EF801819156
:100950008F018F3F11F00E946E1BE016F106B1F778
:100960000BE111E0F80181918F018F3F11F00E949E
:100970006E1BF1E003321F07A9F7E8E6F1E08EE60F
:1009800091E0AAE9B1E011921D928E179F07D9F765
:1009900080E090E00E94AB2A8A3E9E4F21F40E94A4
:1009A000E328811102C00E941F1D82E090E00E9496
:1009B000A32A80938F010E940E1D9093670180935C
:1009C00066010E94521E8FE39CE90197F1F700C077
:1009D00000000E94521E80919A0180FF08C06FEFB4
:1009E0007FEF80E090E00E94CF2A0E941B2083E0EE
:1009F00090E00E94A32A0E949E130E94FC28198264
:100A00001A821B821C8204E610E024E030E0FE0122
:100A100031967F01AF0160E084E10E94FD2980E012
:100A200091E09093310380933003A0EA2A2EA1E055
:100A30003A2E8091CD01853009F043C000E112E1EA
:100A40008091CD01853009F038C08091CD0184308E
:100A500021F11092340328E130E080E40FB6F894DD
:100A6000A895209360000FBE8093600083B7817FBC
:100A7000846083BF83B7816083BF7894889583B790
:100A80008E7F83BF0FB6F894A8958091600088612F
:100A900080936000109260000FBE8091C301882394
:100AA00009F4CECF0E94521EEAE9F1E08191811152
:100AB000AEC42E163F06D1F7C3CF0E94A2130E94E8
:100AC000FC200E94521E882359F08FB7F894409161
:100AD00035035091360360913703709138038FBF0F
:100AE000A0E9B1E0EAE9F1E000E010E0302F219167
:100AF0009D91922741F180E0DD24D394492F4D212F
:100B0000F1F08DAF3EAF2D2181E009F480E08FAF91
:100B10000E9474208160782F22969FAF8EAF22971B
:100B20004DAD5EAD6FAD22968FAD22970E946026CF
:100B3000F801E057FE4F8081D826D08229C08F5F10
:100B4000DD0C8830D9F60F5F1F4F0630110571F6A6
:100B50008FEF23968FAF239724968FAF24972596F8
:100B60001FAE25970E9474208160782F27969FAF33
:100B70008EAF279723964FAD239724965FAD24978A
:100B800025966FAD259727968FAD27970E946026F3
:100B900080918D018A3008F0EBC080918B0190919B
:100BA0008C010E946520089708F4E2C004E610E07A
:100BB00025E030E046E851E064E084E10E942A2A22
:100BC000892B09F06BC010928D0186E0E4E7F1E01B
:100BD000DE01D19601900D928A95E1F786E0FE0143
:100BE000F196DE01D79601900D928A95E1F786E0A5
:100BF000FE01F796A0E8B1E001900D928A95E1F729
:100C000090918A018091810197FD3EC08E7F8093F3
:100C1000810180917E0190917F01009799F545E0D7
:100C200060918601809187010E94492620917C0174
:100C300030917D01820F931F90937D0180937C0101
:100C400045E060918801809189010E9449262091A8
:100C50007A0130917B01820F931F90937B018093E7
:100C60007A016AE771E082E891E00E942A266CE747
:100C700071E083E891E00E942A261092850110928B
:100C8000840111C0019705C081608093810184E1D6
:100C900090E090937F0180937E0105C080918D014B
:100CA0008F5F80938D0186E0E0E8F1E0DE019B96A6
:100CB00001900D928A95E1F786E0FE01BB96A4E7CC
:100CC000B1E001900D928A95E1F730917601209183
:100CD0007701909178018091790170917001609114
:100CE00071014091720150917301F0916F01E09197
:100CF0007501FE1312C0332311F073130EC02223AB
:100D000011F062130AC0882311F0581306C099230A
:100D100031F081E0941304C002C081E001C080E0A2
:100D200080FF0FC0E0913003F0913103309749F01C
:100D300082E0809374010480F581E02D84E791E0E6
:100D40000995109276011092770110927801109215
:100D5000790186E0E4E7F1E0AEE6B1E001900D92C2
:100D60008A95E1F70E94742090938C0180938B0107
:100D70000E94FC2090918E01891721F00E94FC2096
:100D800080938E018091CD01843009F052CE83E0B2
:100D90008093E9008091E80082FF4BCE8091E800CB
:100DA00085FF21C00E94A41A81111BC0F0E2CF2E42
:100DB000D12C870109C08091F100F80181938F0146
:100DC000F1E0CF1AD10869F08091E80085FDF3CFFA
:100DD0008091E8008B778093E8000E94A41A882312
:100DE00099F391E001C090E08091E8008B778093C7
:100DF000E800992309F41DCE00918102109182022E
:100E000089810115110561F08E3F09F0FCC28A81CC
:100E1000833008F4BAC18550833008F0F4C2B5C1FC
:100E20008B3009F49CC108F5853009F47CC0A8F426
:100E30008230B9F130F4813009F0E3C21A8289E0DE
:100E400081C2833009F45EC0843009F0DAC24C817B
:100E50006B818A810E94112464C0873009F4D1C259
:100E600008F0CFC20E948423CEC2803109F4C0C0F2
:100E700060F48D3009F464C008F460C08E3009F469
:100E800063C08F3009F488C0BCC2823109F4B5C098
:100E900008F4B1C0833109F4D7C08E3F09F475C19D
:100EA000B0C28A81823009F4C8C2833089F08130AF
:100EB00009F0A7C22FB7F8948091350390913603BB
:100EC000A0913703B09138032FBFBB83AC8329C0F7
:100ED00080917F0290918002892B09F494C28091C5
:100EE0009A018B8380919B018C8380919C018D83DF
:100EF00080919D018E8380919E018F8380919F01BF
:100F0000888781C28A81823009F07BC26B817C81B3
:100F10008D819E810E94F32A86E290E00E94B12A90
:100F200072C29D8391C22D813E81322723273227B1
:100F30004C816B818A810E944E2365C280E11EC272
:100F400081E08A838DE6FEC10A811B81102701277B
:100F50001027AC80B12C2DE1A216B10408F053C2C9
:100F60006701C8018D569D4F96012E193F092A151C
:100F70003B0508F048C20D3631E0130728F40E9403
:100F8000A32AF601848302C0F60114820F5F1F4F6B
:100F9000FFEFCF1ADF0AE5CF80917F0290918002A8
:100FA000892B09F430C20A811B81102701271027E1
:100FB000CC80D12C2DE1C216D10408F024C25701F7
:100FC000C8018D569D4F95012E193F092C153D05E1
:100FD00008F019C20D3631E0130720F4F5016481E1
:100FE0000E94B12A0F5F1F4FFFEFAF1ABF0AE8CF71
:100FF0000E94D62208C285E0C1C10A811B81102748
:1010000001271027AC80B12C2DE1A216B10408F005
:10101000FAC16701C801879696012E193F092A1562
:101020003B0508F0F0C1003E31E0130728F40E94B0
:10103000A32AF601848302C0F60114820F5F1F4FBA
:10104000FFEFCF1ADF0AE6CF0A811B8110270127A5
:101050001027AC80B12C2DE1A216B10408F0D3C149
:10106000003E31E0130708F0CEC180EE91E0801B16
:10107000910B8A159B0508F4C6C1380187E2680EFA
:10108000711C80917F0290918002892B11F0670181
:101090005DC000FF0FC0C80186960E94A32A90E0A1
:1010A000982F88272D81822B81159C4531F48FEF55
:1010B0008D8303C0C12CD12C03C0CC24C394D12C6C
:1010C000C8018A0D9B1D450180FF1BC0F1E08F1AEE
:1010D000910855E0452E512C4C0E5D1E480C591CB4
:1010E000C3018A0D9B1D0E94A32AF201208130E0DA
:1010F000322F2227282B21153C4519F48FEFF201BE
:101100008083F701EC0DFD1D2FEFCF018E199F0994
:101110008815990508F0BBCF848190E0982F882727
:101120003581832B81159C4511F4248325833296C8
:10113000ECCF003EE1E01E0720F4F60164810E943E
:10114000B12A0F5F1F4FFFEFCF1ADF0AC801879642
:1011500096012E193F092A153B0558F354C1809179
:101160007F0290918002892B09F44DC1C7010E9432
:10117000031B2FEF31EE84E0215030408040E1F737
:1011800000C000000E941B203EC1EA818E2F90E02B
:101190008E30910508F037C1FC01EA5AFF4F0C94DC
:1011A000ED2A88E0EDE0F1E0DE01919601900D92EC
:1011B0008A95E1F780E2F70111928A95E9F784E0D8
:1011C000898388E0FE01B196DE011596F6C088E8B5
:1011D000898382E08A831B821C8215C18C8190E006
:1011E000982F88272B81820F911D092E000CAA0BA6
:1011F000BB0B35E0880F991FAA1FBB1F3A95D1F78B
:10120000AC01BD01405E5F4F6F4F7F4F48175907DC
:101210006A077B0708F4F7C08838F2E09F07A1054A
:10122000B10508F0F0C0493822E0520761057105A8
:1012300020F048E852E060E070E0481B590BBC0128
:10124000605F7E4FC7010E948A2ADDC01B810C812E
:1012500040E0602F812F0E941E2399838A8341E002
:10126000602F812F0E941E239B838C83CCC02E81F4
:101270003F813227232732274D816C818B810E9449
:10128000E622C1C040E250E06FEF70E0C7010E946B
:10129000072B80917F0289830A831B821C821D8217
:1012A00081E0D2C081E090E090938202809381023D
:1012B00082E390E090939901809398010E947420BA
:1012C00090939701809396019EC0012B99F1109104
:1012D0009A0111FB882780F918238091960190913B
:1012E00097010E94652085369105F0F01123E1F009
:1012F0000E947420909397018093960180919801A9
:101300009091990101979093990180939801892B6D
:1013100089F4109282021092810281E090E0909311
:10132000800280937F0206C082E390E0909399014F
:101330008093980180917F028983809181028A83C2
:10134000809198018B835FC01092800210927F027F
:101350005AC040E250E06FEF70E0C7010E94072BD7
:1013600052C08B81833061F0843061F181114BC0B8
:1013700080E2F70111928A95E9F788E08A8343C0F9
:101380006C81CE0181962AE0FC0111922A95E9F741
:10139000683060F4FAE06F9FB00111246D5B7D4FFF
:1013A0004AE050E00E94932A80E001C08FEF8983D9
:1013B0008AE0FE01B196DE01129601900D928A95A7
:1013C000E1F721C06C818AE0FE013596DE0191963D
:1013D00001900D928A95E1F7683070F42AE0629FDF
:1013E000B00111246D5B7D4F4AE050E0CE01819643
:1013F0000E94D52A80E001C08FEF89830E94522489
:1014000002C08FEF8983C7010E94031B12CB09BD65
:1014100019BD09B400FEFDCF8091D8008F7D809367
:10142000D8008091E00082608093E0008091E0002D
:1014300081FDFCCF0E94A21303CB86E290E00E94C4
:10144000A32A1B821C821D828E83DDCF8F929F92E6
:10145000AF92BF92CF92DF92EF92FF920F931F93C2
:10146000CF93DF9300D000D0CDB7DEB7FC018081F1
:10147000918123813481232B31F09F3F31F491E01E
:101480008F3F19F403C091E001C090E090FD92C637
:101490006F0161E0CF010E9499258C01F6018281E4
:1014A000882309F49AC0980122513F452031310523
:1014B00008F07BC08FEF93E00E94A32A81117FC0C8
:1014C0003EEEF32EF00E03E912E0FF2071F001155D
:1014D000F4E01F0709F473C0C8010E94A32A811118
:1014E00001C0FA940F5F1F4FF0CF19821A821B823E
:1014F0001C82AA24AA9478012FEFE21AF20AC801EA
:101500000E94A32A89831A82882309F458C0813053
:1015100009F046C0480182E0880E911CC7010E9474
:10152000A32A8A83882309F44AC09FEF980F933037
:1015300060F4780193E0E90EF11CC4010E94A32A33
:101540008B8381112DC08701D6CF843011F07401B7
:10155000FACFC4010E94A32AB82E7801E4E0EE0E6F
:10156000F11CC80103960E94A32ABB2041F18823E5
:1015700031F1282F30E021503109A29EA001A39E15
:10158000500D11248B2D90E00197840F951F01972A
:10159000D0F2EFE9FFE03197F1F700C00000F7CF9C
:1015A000CE0101960E943E25CECF00319FE519075E
:1015B00009F060C581E00E9493130E942216809179
:1015C0002402877009F4F6C5F6018281882309F4A4
:1015D000F1C582E00E94BC1DEDC50031FFE51F078B
:1015E00011F481E005C001312FE5120721F482E0FA
:1015F0000E948713E2CF9091A001911105C09091B4
:10160000A301992309F4B7C098013056211590E23F
:10161000390720F0305E2115304140F4F601958104
:10162000907F09F4A8C07801FF2401C078019701D8
:1016300030542115354108F49EC09091A301923099
:1016400021F5882369F080912702982F927219F072
:101650006894F1F80FC086FF0DC024E1F22A0AC099
:10166000C70195558F3F910511F008F022C580E024
:101670000E943C1F81E08093A301F092A201E092BE
:10168000A1018FEF80930A019ACF882309F411C535
:10169000913009F05FC080910A019CE2E916F104E3
:1016A000D9F4882329F00E94D02510920A0187CF0F
:1016B0008091A1019091A20195558F3F910509F06C
:1016C00018F40E94891D03C08AE20E944C151092F2
:1016D000A3010E9420264FC0EAE2EE16F10421F495
:1016E000815080930A0126C087FD34C081110BC050
:1016F0008091A1019091A20195558F3F910509F02C
:1017000010F40E94D02580910A018F5F80930A0116
:10171000FDE2EF16F10471F040F484E0E81AF108FC
:1017200094E2E916F10480F405C0EDE2EE16E2E081
:10173000FE0651F4F6018281882309F4BAC480912F
:101740002702811114C09DC4F6018281882309F407
:10175000B0C40DC09AE2E916F10489F308F01EC581
:10176000F4E0EF1AF10824E2E216F10440F30E94DB
:1017700020261092A3010238FFE51F0751F4F6015D
:101780008281882399F181E08093A3018DE290E02A
:1017900017C003382FE51207D8F00338EFE51E070E
:1017A00009F4EBC40438FFE51F0709F093C4F60100
:1017B00082818823D9F081E08093A3018DE292E0B9
:1017C0009093A2018093A1018FEF80930A0113C02F
:1017D00000388FE5180709F436C101389FE519076D
:1017E00009F078C4F6018281811158C4F601828122
:1017F000882309F4B8C1109285020230FCE51F0766
:1018000008F49BC106312CE5120730F0C8018A5F4D
:101810009C45099708F091C10E940E1D90936701A5
:101820008093660100318CE5180709F4C3C008F005
:1018300041C00830ECE51E0709F49AC0F0F404300A
:101840002CE5120709F487C068F402309CE51907FB
:1018500009F477C003301C4509F0E5C080916601AA
:10186000826076C00630FCE51F0709F46EC008F000
:101870007BC08091660188606BC00C308CE51807D6
:1018800009F485C068F40A30ECE51E0709F474C059
:1018900008F079C00E94A21380916601806858C048
:1018A0000E302CE5120709F476C008F07FC0809155
:1018B00066018BC00B3F9CE5190709F44FC018F572
:1018C0000331FCE51F0709F47DC078F401318CE594
:1018D000180709F473C002311C4509F0A4C00E9426
:1018E000A213809166018F7733C00531ECE51E07A6
:1018F00009F472C008F486C00A3F1C4509F093C081
:10190000809167013EC00F3F8CE5180709F45FC066
:1019100058F40D3FECE51E0709F444C008F43FC03D
:101920008091670182602DC001302DE5120709F416
:1019300075C008F45DC002301D4509F074C060E058
:101940006EC080916601816003C0809166018061F4
:101950008093660168C08091660111C08091670123
:101960008260809367015FC0809166018062F0CFE2
:10197000809166018064ECCF80916601886084600C
:10198000E7CF8160EECF809166018E7FE1CF8091BD
:1019900066018D7FDDCF80916601877FD9CF8091F1
:1019A000670118C0809167018D7FDBCF8091660150
:1019B0008F7ECECF809166018F7DCACF80916601E8
:1019C0008F7BC6CF80916601877F8B7FC1CF80914F
:1019D00067018D7F8E7FC5CF8091660182FB2227B4
:1019E00020F991E0922790FB82F990FB83F9B0CF28
:1019F00080916701982F909591708E7F892B90FB35
:101A000081F9AFCF0E94A2138091660187FB222744
:101A100020F991E0922790FB87F99ACF61E08EE060
:101A200090E00E94B12A609166011091670184E004
:101A300090E00E94B12A612F82E290E00E94B12AD8
:101A40000E94A213BCCDF6018281882309F4CECE78
:101A500098E9A92E93E0B92E2AE0922EF5018491FF
:101A6000882309F45AC0813009F04FC07501FFEF97
:101A7000EF1AFF0AF7018491813049F47501F2E011
:101A8000EF0EF11CF70184910E944C1541C0823089
:101A900049F47501F2E0EF0EF11CF70184910E9408
:101AA000B01436C0833049F47501F2E0EF0EF11C3A
:101AB000F70184910E9459142BC0843049F57501B7
:101AC000F2E0EF0EF11CF701249180E090E030E0AD
:101AD000205331092A30310570F4989EA001999E57
:101AE000500D1124C901840F951FFFEFEF1AFF0A53
:101AF000F7012491ECCF009759F0EFE9FFE031971F
:101B0000F1F700C000000197F6CF0E94D8247501BC
:101B10005701FFEFAF1ABF0AA1CF80912A0281FDC2
:101B200065CE0E94742090932902809328028091B0
:101B30002A02826080932A0259CE0631ECE51E0704
:101B400011F5809127028A7A91E009F490E0909350
:101B5000A401882311F065E301C069E28FEC91E0F4
:101B60000E94B6200DC006311C45F1F58091A401FC
:101B7000882309F411C365E38FEC91E00E94A9204A
:101B80000E94501F1CCD0A35EDE51E0741F150F4AF
:101B900001152CE51207A9F00E3D1C4529F50E9400
:101BA0001F1D0DCD0B359DE51907D9F00C351D45D1
:101BB000D9F48091670182FB882780F991E0892719
:101BC00011C00E94A213FFEF24E38CE0F1502040EB
:101BD0008040E1F700C000000E941B20F0CC81E0B3
:101BE00001C080E00E949B1DF601868197810097CD
:101BF000B9F4F601828100811181882349F0C8017E
:101C00000E94F910F82E682FC8010E94561304C0D4
:101C1000C8010E942613F82EB8018F2D0E943F2480
:101C20000E94851BF82E192FF601E280058102958E
:101C30000F7080912402877099F0EE2089F0892F2F
:101C4000807F803421F080E28F0D883048F082E080
:101C50000E94BC1D809124028770BB24B394811123
:101C6000B12CA12EA2948FE0A8228A2D90E08C3076
:101C7000910508F0DBC1FC01EC59FF4F0C94ED2AF3
:101C8000812F807F1F70882311F01295107FEE2026
:101C9000B9F0112309F4ACC180E28F0D883010F047
:101CA000F11006C090912702192B1093270205C04E
:101CB00090912602192B109326020E94501F98C162
:101CC0008F2D0E945914112309F4B0C180E28F0DA9
:101CD000883010F0F11004C0812F0E94941D06C0BE
:101CE0001095909126021923109326020E94501FEE
:101CF0009DC1812F807F1F70803211F01295107F5F
:101D0000FF2021F0F1E0FF1691F13BC0EE20D9F069
:101D10000023A9F0013031F480912A02812B0E9426
:101D20003C1F84C1053059F40E94891D8091210215
:101D3000181310932102812F0E944F1477C18091B4
:101D40002A02812BF9CF002349F0013069F48091F8
:101D50002702812309F46AC10E94D91D0E94891DAE
:101D6000812F0E94481462C10530C1F75FC1EE2087
:101D700021F0063008F05AC1DECF053008F056C118
:101D8000EFCFEE2019F00023B1F232C1002341F36E
:101D900029E3F21208C08FEF97EEE3E08150904004
:101DA000E040E1F73EC1FFE728E381E0F150204049
:101DB0008040E1F736C1812F86958695837019F0B2
:101DC000813061F033C1EE2021F08F2D912F93707F
:101DD00002C080E090E00E94E6202EC1EE2021F0BB
:101DE0008F2D912F937002C080E090E00E94D02050
:101DF00023C1812F8370A9F5E1101CC14F2D42959D
:101E000046954770440F440F8F2D8F7090E09C01D2
:101E1000042E01C0220F0A94EAF7F4FE08C08FE0F6
:101E200090E001C0880F4A95EAF7809501C080E0F4
:101E3000169516951370123069F088F490912B0264
:101E4000113019F0822B892302C0922B892B0E941A
:101E50009E13F0C0822B90912B028927F8CF822B02
:101E6000F6CFEE2019F0812F817001C0869588236E
:101E700009F4E0C04F2D429546954770440F440F3A
:101E80008F2D8F7090E09C01042E01C0220F0A94C8
:101E9000EAF7F4FE08C08FE090E001C0880F4A9591
:101EA000EAF7809501C080E0169516951370123000
:101EB00059F078F49091CE01113019F0822B8923DA
:101EC00009C0922B892B06C0822B9091CE018927C5
:101ED00001C0822B0E948313ADC01F70EE2039F029
:101EE000812F0E9493138F2D0E944F14A3C08F2D1A
:101EF0000E944814812F0E9487139CC092EFF9160C
:101F000059F19F1538F0E0EFFE1659F0F1EFFF168A
:101F1000E1F069C023EFF21631F184EFF81681F198
:101F200062C0EE2071F0053008F080C01F7181E0C2
:101F300090E001C0880F1A95EAF79091CE018927A9
:101F40001CC0063008F072C0F1CFEE2039F0812FAE
:101F50008F710E9493136AC0EE20C9F3812F8F7195
:101F60000E94871363C0EE2039F01F7181E001C029
:101F7000880F1A95EAF701C080E00E94831356C0CB
:101F8000EE20D1F0809121020E94941D80912402C4
:101F90008770843039F40E94B51D812F8F710E94A3
:101FA000871366C0053008F063C01F71812F0E943F
:101FB000931363E0812F10C090912702809121023A
:101FC000892B80932702053050F00E94B51D0E9496
:101FD000D91D64E0812F8F710E948D1F49C081E05F
:101FE0000E94BC1D45C0EE2039F0002309F4AFCF9C
:101FF0008F2D0E94B0141AC0002309F4AFCF99E3CB
:10200000F91208C0EFEFF7EE23E0E150F040204076
:10201000E1F707C08FE798E3E1E081509040E040AE
:10202000E1F700C000008F2D0E94591488EF8A0D3F
:10203000843010F40E94FC20BB20A9F0809124027F
:1020400080FD11C0F60112828595859585950E94C7
:102050009313C6010E94260A8091240285958595D6
:1020600085950E94871360E0C6010E949925A2C051
:10207000B12CE0CF0131EFE51E0709F0BCCA82E0C8
:102080009ACA0238FFE51F0709F479CB08F085CB1F
:1020900000388FE5180709F0A0CBDACC81E08093F7
:1020A000A0010E94FC2081FDA1CB89E30E944C1578
:1020B0009DCB02382FE5120709F461CB08F059C017
:1020C00000389FE5190709F491CB0138EFE51E07A9
:1020D00009F488CB033F2CE51207A1F406E221EEB8
:1020E00040EE63EF7CE50AC0073DFCE51F0709F001
:1020F0007DCB06E221EE41EE67ED7CE5C6010E9454
:1021000063225DCA043F8CE51807A0F4083D9CE5F6
:10211000190731F407E225EE45EE68ED7CE5EECFD8
:10212000093DECE51E0701F708E221E045EE69ED07
:102130007CE5E4CF053F2CE5120731F406E221EE01
:1021400042EE65EF7CE5DACF053F8CE5180730F409
:1021500007E225EE44EE64EF7CE5D0CF063F9CE538
:10216000190709F043CB07E225EE46EE66EF7CE562
:10217000C5CF0338FFE51F0749F4F60182818823A4
:1021800009F434CB82E08093A30135CB04382FE5EA
:10219000120709F40CCB9ECF69E2EECC8DE2E81673
:1021A000F10409F4CCCA9DE2E91692E0F90609F0BF
:1021B000DECAC5CA0F900F900F900F90DF91CF919C
:1021C0001F910F91FF90EF90DF90CF90BF90AF9055
:1021D0009F908F90089580E090E00E94E62080E03C
:1021E00090E00E94D02010922602109225020C94BA
:1021F000501FCF92DF92FF920F931F93CF93DF93E5
:102200006C010091CE0180912B02082BC7E0D0E039
:1022100010E0C8010C2E02C0959587950A94E2F74C
:1022200080FD04C02197A8F7F12C09C0FC2EB6014F
:102230008C2F0E943F240E94851B019799F38F2DBC
:10224000DF91CF911F910F91FF90DF90CF90089574
:10225000CF93DF93EC010E94F910BE010E943F244E
:102260000E94851BDF91CF910895FC0186819781A3
:10227000009719F00E94851B04C0808191810E9403
:102280002811292F2F70E92FE295EF704E2F50E083
:10229000FA013297EE30F105B8F4E059FF4F0C9493
:1022A000ED2A803F99F018F4883E70F40FC0843F07
:1022B00059F40CC0883E50F0813F31F407C0822FA2
:1022C000869586958695089580E0089581E0089525
:1022D0009F92AF92BF92CF92DF92EF92FF920F93B5
:1022E0001F93CF93DF93CDB7DEB765970FB6F89402
:1022F000DEBF0FBECDBF8C0185E0F801DE01519637
:1023000001900D928A95E1F7F801E2809091D70152
:102310006091D8014091DA015091DB0141155105DE
:1023200031F06F3F31F481E09F3F19F403C081E049
:1023300001C080E0F82FF1709F2E80FD37C1F801B9
:1023400030812181C380D48077EDA72E71E0B72E34
:10235000F090D901F601E41BF50BFF2009F4F5C05C
:102360008091DC01E83CF10508F0B0C0482F407FC7
:1023700009F05AC062131BC0931319C06091DD01AC
:102380007091DE01F801468157816417750779F471
:10239000FE2CE1100CC08F7080618093DC01C501C0
:1023A0000E94260A8091DC01F80185833CC1CD287A
:1023B00031F02F3F31F481E03F3F19F403C081E059
:1023C00001C080E080FD03C081E08E2502C080E076
:1023D00090E0F82FF170FF2E80FF1CC0809120024A
:1023E0004091DF01841709F4FCC090E0FC0153E048
:1023F000EE0FFF1F5A95E1F7E052FE4F5181251372
:1024000006C05081531303C05281E51203C00196E8
:102410008770E8CFFE2CEE2009F405C18091DC0125
:1024200081608093DC015EC0621315C0931313C0FA
:102430004091DD015091DE01F8012681378142177C
:10244000530749F4E11007C08583C8010E94260A9A
:1024500088E0F80190C0C8010E943511882381F1FD
:10246000EE2071F12091DC01822F82958F7090E037
:102470000297A4F08091D7019091D8019A8789871B
:102480001B86DD86CC862E878091DD019091DE0152
:10249000988B8F87CE0109960E94260A88E0F80162
:1024A000A7EDB1E001900D928A95E1F70E94E91D38
:1024B0000AC06217C9F0C8010E943511811127C0F6
:1024C000C8010E94260AFF24F394ADC0482F407F24
:1024D00081F787ED91E00E94260A88E0F5011192CC
:1024E0008A95E9F7F12C9FC09313E5CF4091DD0168
:1024F0005091DE01F8012681378142175307D9F642
:10250000E110D9CF8583C8010E94260A49C0EE2078
:10251000B9F22091DC01822F82958F7090E00297B2
:102520000CF4BCCF8091D7019091D8019A83898314
:102530001B82DD82CC822E838091DD019091DE01B1
:1025400098878F83CE010196A7CFE83CF10540F52F
:10255000FE2CEE2009F4B4CF621314C0931312C002
:102560002091DD013091DE01F801868197812817E5
:10257000390741F488E0A7EDB1E001900D928A950A
:10258000E1F751C0C8010E943511811187CF8091B8
:10259000DC0181608093DC01C8010E94260A43C0EF
:1025A00088E0F50111928A95E9F73DC0EE2009F423
:1025B00087CFC8010E943511F82E882309F480CFF7
:1025C00088E0F801A7EDB1E001900D928A95E1F75E
:1025D0008091D7019091D8010E9428110E94E91D95
:1025E00022C0398B2A8B89899A890E942811292F28
:1025F00022952F70223028F49F7039F0811105C088
:102600000BC0243028F49F7049F4805E883020F09D
:10261000C8010E94260A9F2CF92C05C0F80195815B
:10262000907F99F7F9CF8F2D65960FB6F894DEBF9E
:102630000FBECDBFDF91CF911F910F91FF90EF9013
:10264000DF90CF90BF90AF909F9008959E3F61F133
:1026500028E0929F800D1124682F669566956695F7
:10266000982F977083E0689FB001112440E050E0FC
:1026700080E0FB01E40FF51FEB55FE4F208130E0B9
:10268000092E02C0369527950A94E2F72170332768
:10269000042E01C0220F0A94EAF7822B4F5F5F4F8E
:1026A0004330510531F7089580E008959E3F51F180
:1026B00028E0929F800D1124E82FE695E695E69597
:1026C000877051E001C0550F8A95EAF783E0E89FD3
:1026D000F0011124EB55FE4F20E030E070E0408126
:1026E000CB01022E02C0969587950A94E2F781707D
:1026F000819584278523842781932F5F3F4F233043
:10270000310569F708958093CE010C94EB1021E018
:1027100030E001C0220F8A95EAF720958091CE0122
:1027200082230C94831321E030E001C0220F8A95AC
:10273000EAF78091CE01822B0C94831380932B02B5
:102740000C94EB101092270286E0E1EDF1E0DF013E
:102750001D928A95E9F70C94EB10CF93DF93CDB7D8
:10276000DEB760970FB6F894DEBF0FBECDBF2987E6
:102770003A874B875C876D877E878F87988BCE01E2
:1027800009960E946811811151C088E0FE013996B6
:10279000DE01119601900D928A95E1F779856A859F
:1027A0004C855D854115510531F06F3F31F481E075
:1027B0007F3F19F403C081E001C080E080FD36C096
:1027C000A091DF01B0E0CD0101968770992720919B
:1027D000200230E08217930781F179836A835D8359
:1027E0004C8393E0AA0FBB1F9A95E1F7A052BE4F0E
:1027F00098E0FE01319601900D929A95E1F7809351
:10280000DF010E94DF1D12C028E0829FC001112459
:1028100080529E4F0E9468118823E1F0809120022F
:1028200090E0019687709927809320028091200282
:102830009091DF018913E8CF0DC00E94A21310927E
:10284000DF0110922002E7EDF1E088E0DF011D9248
:102850008A95E9F760960FB6F894DEBF0FBECDBF3C
:10286000DF91CF910895882341F0809590912602C1
:102870008923809326020C94501F0895882339F0F1
:1028800090912602892B809326020C94501F089564
:10289000882321F00E94941D0C94501F08958823D2
:1028A00039F090912702892B809327020C94501FB6
:1028B0000895882309F453C0682F823869F40E9470
:1028C000FC2081FF4CC069E38FEC91E00E94B620B0
:1028D0000E94501F69E30EC0833891F40E94FC20CF
:1028E00080FF3DC063E58FEC91E00E94B6200E941E
:1028F000501F63E58FEC91E00E94A9200C94501FBB
:10290000843869F40E94FC2082FF29C067E48FECC0
:1029100091E00E94B6200E94501F67E4EBCF8CEF3D
:10292000860F813A38F380E2860F883048F467706A
:1029300081E001C0880F6A95EAF70E94941DDECFFE
:102940008BE5860F833020F480E090E00C94E62045
:10295000685A673120F480E090E00C94D02008950C
:10296000CF93882309F496C0C82F8238B1F40E940F
:10297000FC2081FD8FC069E38FEC91E00E94B620BE
:102980000E94501F2FEF81EE94E021508040904034
:10299000E1F700C0000069E317C08338E1F40E944A
:1029A000FC2080FD77C063E58FEC91E00E94B620AB
:1029B0000E94501F2FEF81EE94E021508040904004
:1029C000E1F700C0000063E58FEC91E00E94A920D0
:1029D000CF910C94501F8438B1F40E94FC2082FDEA
:1029E00059C067E48FEC91E00E94B6200E94501F0E
:1029F0002FEF81EE94E0215080409040E1F700C03D
:102A0000000067E4E1CF8CEF8C0F813A80F4E1EDB8
:102A1000F1E087ED91E02191C217A1F18E179F0798
:102A2000D1F76C2F8FEC91E00E94B620D1CF80E2DD
:102A30008C0F883068F4C77081E090E001C0880F87
:102A4000CA95EAF790912702892B80932702C0CF7D
:102A5000EBE5EC0FE33040F4F0E0EE5CFE4F8081FC
:102A600090E0CF910C94E620C85AC73198F4EC2F2F
:102A7000F0E0EE0FFF1FEB5CFE4F80819181CF9164
:102A80000C94D0206C2F8FEC91E00E94A9200E9422
:102A9000501FC7CFCF9108951F93CF93DF93182F67
:102AA000893319F0C9E1D0E002C0C0E5D0E0812F40
:102AB0000E94B0148FE99FE00197F1F700C0000079
:102AC0002197C1F7812FDF91CF911F910C94591459
:102AD0008091C50187FF11C08091E80082FD05C08B
:102AE0008091CD018111F8CF11C08091E8008B77E2
:102AF0000BC08091CD01882349F08091E80080FFD0
:102B0000F8CF8091E8008E778093E8000895982FA1
:102B1000973068F59093E900981739F07091EC00C0
:102B20002091ED005091F00003C0242F762F50E04B
:102B300021FD02C09F5FECCF3091EB003E7F3093D0
:102B4000EB003091ED003D7F3093ED003091EB00D4
:102B500031603093EB007093EC002093ED005093C4
:102B6000F0002091EE0027FDE5CF80E008958F7002
:102B70008093E90081E008952091CB013091CC0150
:102B80002617370748F06115710539F42091E800E0
:102B90002E772093E80001C0B901FC0120E0611507
:102BA000710579F18091CD018823F1F18530F1F142
:102BB0008091E80083FD3CC08091E80082FD2EC03A
:102BC0008091E80080FFEBCF2091F3008091F2002C
:102BD00090E0922B6115710551F08830910538F421
:102BE00021912093F100615071090196F3CF21E00A
:102BF000089709F020E08091E8008E778093E80044
:102C0000CECF2111CFCF0AC08091CD01882361F0B2
:102C1000853061F08091E80083FD0AC08091E80072
:102C200082FFF2CF80E0089582E0089583E0089566
:102C300081E00895BC0184E00C94F11FBC0183E0A5
:102C40000C94F11F8091CE01982F9670963011F45C
:102C5000886001C0877F0C9483131F93CF93DF9309
:102C6000CDB7DEB7AA970FB6F894DEBF0FBECDBFC3
:102C7000E5ECF1E08091F100819341E0ED3CF40757
:102C8000C9F78091C601833009F462C030F4813005
:102C900071F0823009F49CC0B3C08A3009F488C056
:102CA0008B3009F46DC0893009F0AAC020C0809132
:102CB000C501813A09F0A4C08091E800877F809324
:102CC000E8008091C9019091CA01892B21F468E044
:102CD0008AEB91E003C060E080E090E070E00E9449
:102CE000BC158091E8008B778093E80089C08091C3
:102CF000C501813209F084C08091C9019091CA0157
:102D0000009719F0029709F07BC08091E800877F57
:102D10008093E8008091E80082FD05C08091CD019C
:102D20008111F8CF6DC02091F3008091F20090E006
:102D3000922B029729F48091F1008B7F813021F44E
:102D40008091F1008093B9018091E8008B7754C0A5
:102D50008091C501813A09F053C08091C9019091D9
:102D6000CA01892B09F04CC08091E800877F8093CD
:102D7000E8008091E80080FFFCCF80910B0137C014
:102D80008091C5018132E1F58091C9019091CA011C
:102D9000892BB1F58091E800877F8093E8000E943D
:102DA00068158091C70180930B010E94A21328C06F
:102DB0008091C501813221F58091E800877F809361
:102DC000E8000E9468158091C8018093B80118C07E
:102DD0008091C501813AA1F48091E800877F8093BA
:102DE000E8008091E80080FFFCCF8091B8018093DB
:102DF000F1008091E8008E778093E8000E946815CA
:102E00008091E80083FFE9C18091C5019091C601DE
:102E1000492F50E04A30510508F0DFC1FA01E2586D
:102E2000FF4F0C94ED2A803821F0823809F0D5C18B
:102E300008C08091C2019091C301992389F08260FA
:102E40000FC08091C9018F70873008F0C6C1809390
:102E5000E9008091EB0085FB882780F91092E9005A
:102E60009091E800977F9093E8008093F100109292
:102E7000F1007CC1282F2D7F09F0AFC1882319F004
:102E8000823061F0AAC18091C701813009F0A5C1EB
:102E9000933009F080E08093C3012EC08091C70178
:102EA00081112AC08091C9018F702FEF280F263021
:102EB00008F093C18093E9002091EB0020FF1CC033
:102EC000933021F48091EB00806214C09091EB006C
:102ED00090619093EB0021E030E0A90102C0440F23
:102EE000551F8A95E2F74093EA001092EA0080911C
:102EF000EB0088608093EB001092E9008091E8007D
:102F0000877F8093E8000E94681567C1811165C1C1
:102F10001091C7011F778091E3008078812B809307
:102F2000E3008091E800877F8093E8000E946815A5
:102F30008091E80080FFFCCF8091E300806880935F
:102F4000E300111102C082E001C083E08093CD0153
:102F500044C18058823008F040C12091C7013091AF
:102F6000C8012C3D53E0350779F583E08A838AE276
:102F700089834FB7F894DE01139620E03EE051E2DA
:102F8000E32FF0E050935700E49120FF03C0E29557
:102F9000EF703F5FEF708E2F90E0EA3010F0C79631
:102FA00001C0C0968D939D932F5F243149F74FBF89
:102FB0008091E800877F8093E8006AE270E0CE01AC
:102FC00001960E94BC15C0C08091C9019091CA01B0
:102FD000432F552743305105B1F068F44130510576
:102FE00009F40AC14230510509F0F7C08BE590E0C1
:102FF000EEE7F4E057C04132510589F14232510504
:1030000009F43CC0EAC0C901992781309105B9F0A3
:1030100070F082309105D9F0039709F0DEC0EBEE35
:10302000F4E0E4918E2F90E0EBEEF4E038C0E9E5B7
:10303000F5E0E4918E2F90E0E9E5F5E030C0EDE3B6
:10304000F5E0E4918E2F90E0EDE3F5E028C0E9E0B3
:10305000F5E0E4918E2F90E0E9E0F5E020C08330C8
:10306000910508F0BAC0880F991FFC01E45DFE4F7E
:103070000190F081E02D89E090E014C0833091054B
:1030800008F0ABC0FC01EE0FFF1FEA5DFE4F0190A0
:10309000F081E02DDC01AD5DBE4F8C9190E000979A
:1030A00009F49BC02091E800277F2093E80020913D
:1030B000CB013091CC012817390708F4C90140E051
:1030C000009789F12091CD01222309F43DC02530DC
:1030D000D9F12091E80023FD37C02091E80022FDBE
:1030E0002FC02091E80020FFEBCF4091F30020910A
:1030F000F20030E0342B009759F02830310540F4CD
:1031000044914093F100319601972F5F3F4FF3CFE9
:1031100041E02830310509F040E02091E8002E77A9
:103120002093E800CDCF4111CDCF0AC08091CD01D1
:10313000882351F0853041F08091E80083FD04C080
:103140008091E80082FFF2CF8091E8008B77809336
:10315000E80043C0803809F040C08091E800877FD4
:103160008093E8008091C4018093F1008091E80091
:103170008E77C7CE811131C08091C7019091C8016F
:103180009927029754F58091E800877F8093E800A3
:103190001091C7011093C4010E946815111106C057
:1031A0008091E30087FD02C081E001C084E080934C
:1031B000CD0142E061EC81E00E94871542E261ECC2
:1031C00084E00E94871542E261EC82E00E9487154C
:1031D00042E260EC83E00E9487158091E80083FF63
:1031E00010C08091E800877F8093E8008091EB0019
:1031F00080628093EB0005C082E190E0E9EDF4E0AD
:1032000051CFAA960FB6F894DEBF0FBECDBFDF91A7
:10321000CF911F9108951F920F920FB60F92112414
:103220002F933F934F935F936F937F938F939F93CE
:10323000AF93BF93CF93DF93EF93FF93C091E900D8
:10324000CF708091EC00D82FD17080FDD0E8109223
:10325000E9008091F000877F8093F00078940E94CD
:103260002D161092E9008091F00088608093F000A4
:10327000CD2BCF70C093E900FF91EF91DF91CF91FB
:10328000BF91AF919F918F917F916F915F914F917E
:103290003F912F910F900FBE0F901F901895E8ED62
:1032A000F0E080818E7F80831092E2001092DA003D
:1032B0001092E100A0EEB0E08C9181608C9380814F
:1032C0008F77808319BCA7EDB0E08C918E7F8C93B3
:1032D00080818F7E80831092B7010895CF92DF9214
:1032E000EF92FF920F931F93CF93DF93C8EDD0E03F
:1032F00088818F7E8883E7EDF0E080818160808324
:1033000084E082BF81E08093B70188818E7F8883CB
:1033100002EE10E0F80110821092DA0081EEC82E61
:10332000D12CF601108288818F778883888180680C
:10333000888388818F7D888319BC1092CD0110927B
:10334000C4011092C3011092C20190EEE92EF12C3B
:10335000F70180818B7F808388818160888342E050
:1033600060E080E00E948715F60180818E7F808377
:10337000F801808181608083808188608083F7018B
:1033800080818E7F8083888180618883DF91CF9167
:103390001F910F91FF90EF90DF90CF9008951F92B3
:1033A0000F920FB60F9211242F933F934F935F9379
:1033B0006F937F938F939F93AF93BF93EF93FF93FD
:1033C0008091E10082FF09C08091E20082FF05C088
:1033D0008091E1008B7F8093E1008091DA0080FF93
:1033E0002AC08091D80080FF26C08091DA008E7FAD
:1033F0008093DA008091D90080FF18C080E189BDF8
:1034000082E189BD09B400FEFDCF81E08093CD014A
:103410008091B70181110FC00E944F190E946E194F
:103420008091E20084608093E20005C019BC109294
:10343000CD011092B7018091E10080FF17C080910B
:10344000E20080FF13C08091E2008E7F8093E20053
:103450008091E20080618093E2008091D8008062D8
:103460008093D80019BC85E08093CD018091E10064
:1034700084FF2EC08091E20084FF2AC080E189BDD4
:1034800082E189BD09B400FEFDCF8091D8008F7D17
:103490008093D8008091E1008F7E8093E10080913D
:1034A000E2008F7E8093E2008091E2008160809351
:1034B000E2008091C401882311F084E007C080916C
:1034C000E30087FD02C081E001C083E08093CD016D
:1034D0008091E10083FF27C08091E20083FF23C039
:1034E0008091E100877F8093E10082E08093CD01AD
:1034F0001092C4018091E1008E7F8093E100809161
:10350000E2008E7F8093E2008091E20080618093F0
:10351000E20042E060E080E00E9487158091F000C8
:1035200088608093F000FF91EF91BF91AF919F91E0
:103530008F917F916F915F914F913F912F910F905C
:103540000FBE0F901F9018952091E4003091E50078
:1035500095E64091EC00842F817040FF23C080915C
:10356000E80080FD1DC08091CD01882399F0853051
:1035700099F08091EB0085FD11C04091E4005091DD
:10358000E5002417350729F3915011F09A01E1CF96
:1035900084E0089582E0089583E0089581E008952D
:1035A00080E008954091E80042FFDDCF0895EF925A
:1035B000FF920F931F93CF93DF937C018B010E94A7
:1035C000A41A811119C0E70101151105A1F080911C
:1035D000E80085FD0AC08091E8008E778093E800BE
:1035E0000E94A41A882381F307C089918093F10077
:1035F00001501109E9CF80E0DF91CF911F910F9128
:10360000FF90EF900895CF932091CD012430F9F4ED
:10361000C091E900CF703091EC00232F217030FD74
:1036200020E8C22B22E02093E9002091E80020FF4F
:103630000BC040E050E060E270E00E94D71A809139
:10364000E8008E778093E800CF70C093E900CF91B7
:10365000089580E008959091660192FF0DC0282F93
:103660002871283019F4877F846006C0282F2471C0
:10367000243011F48B7F886093FF0DC0282F2871B0
:10368000283119F4877E846106C0282F24712431E3
:1036900011F48B7E88612091670120FF0DC0382FC7
:1036A0003871383019F4877F816006C0382F317146
:1036B000313011F48E7F886021FF0DC0282F2871D2
:1036C000283119F4877E816106C0282F21712131AC
:1036D00011F48E7E886194FD877E0895F894E82F1A
:1036E000E295EF70F0E031A1282F2F7081E090E09B
:1036F00001C0880F2A95EAF7982F9095932391A3FC
:1037000092A1892B82A378940895CF93DF93823876
:10371000910569F1B0F48133910509F46FC048F463
:103720008932910509F465C08A32910509F46BC0AC
:103730008AC08533910509F457C089339105B9F0E2
:1037400082C0833E910571F138F4803E9105B1F05D
:10375000823E910511F177C0863E9105B9F1873E11
:103760009105C9F1843E910509F06DC024C02091F6
:10377000660120FD53C021FD51C065C080916601E6
:1037800080FD46C08091670180FF48C0809166013E
:1037900084FD3FC183EE90E03EC18091660182FFCF
:1037A0003AC0F4CF8091660182FD35C080916701F7
:1037B00080FD34C0EBCF8091670181FF35C08091DF
:1037C000660184FD26C187EE90E025C180916601E7
:1037D00083FF27C0F4CF8091660183FD22C08091D2
:1037E000670181FD21C0EBCF8091660185FD1FC07F
:1037F00021C08091660185FD1DC019C080916601C0
:1038000086FD1BC01DC08091660186FD19C015C0D4
:1038100089E390E000C182EE90E0FDC080EE90E090
:10382000FAC086EE90E0F7C084EE90E0F4C089E242
:1038300090E0F1C085E390E0EEC08AE290E0EBC05A
:1038400081E390E0E8C0811532E5930708F069C094
:10385000811541E5940728F0982F8827816F906A99
:10386000DAC0883E910568F5803E910508F0D3C026
:10387000883A9105B8F4853A910548F0855AE82FC1
:10388000F0E0EE5CFE4F808190E09064C4C0813037
:10389000910509F4BBC008F4BCC08430910508F45C
:1038A000B8C0B9C08F3B910508F0B3C0885AE82F63
:1038B000F0E0EE0FFF1FEB5CFE4F8081918194647E
:1038C000AAC0811520E59207F0F09C0174E03695BE
:1038D00027957A95E1F7922F9370482F437021E056
:1038E00030E002C0220F331F4A95E2F73C68392BC3
:1038F0008F70982F9695969540E2949FC001112461
:10390000822B932B88C0811530E4930718F09F70A9
:10391000906A81C09C013A9521153F4108F47BC013
:1039200078C0EC01C11586E5D807E8F5C11525E595
:10393000D20748F08C2F0E942B1B8F7190E0982F9C
:103940008827906268C0C11534E5D30728F09C2F02
:103950008827846F906A5FC0AE01437055272C2F73
:1039600026952695C115D34578F481E090E002C0F4
:10397000880F991F4A95E2F740E2249F9001112495
:10398000822B932B9C6847C081E090E002C0880F97
:10399000991F4A95E2F740E2249F90011124822B5F
:1039A000932B9A6838C0C1152AE5D207F8F4C115DF
:1039B00039E5D30790F08C2F8F700E942B1B94E079
:1039C000D695C7959A95E1F7CF70D0E0DC2FCC273C
:1039D000D0699E01282BC9011EC0C11548E5D40736
:1039E000C0F09C2F8827806F906A15C0CE0190563A
:1039F0008115904270F48D2F8F710E942B1B282F00
:103A00002F71CE0199279062922B05C081E090E042
:103A100002C080E090E0DF91CF910895CF9384E0E1
:103A200090E00E94A32AC82F82E290E00E94A32A7D
:103A30002C2F30E0A901582BCA01CF9108956AEECE
:103A40007EEF80E090E00E94CF2A60E082E090E08C
:103A50000E94B12A60E083E090E00E94B12A1092B7
:103A60002B0260E084E090E00E94B12A60E082E2F4
:103A700090E00E94B12A60E085E090E00E94B12AC7
:103A800060E086E090E00E94B12A6FEF87E090E06E
:103A90000E94B12A40E050E0BA0188E090E00E9424
:103AA000C32A60E08DE090E00E94B12A40E050E03F
:103AB000BA0188E190E00E94C32A60E087E190E0CB
:103AC0000E94B12A40E050E0BA018CE190E00E94EF
:103AD000C32A60E070E080E290E00E94CF2A40E0DC
:103AE00050E0BA0188E190E00E94C32A80E00E9481
:103AF000B6280E94D42840E050E0BA018FE090E060
:103B00000E94C32A40E050E0BA0183E190E00C94A7
:103B1000C32A80912A02882331F010922A0210923F
:103B200029021092280208958095909127028923F6
:103B3000809327020895CF93C0916701C2FB992714
:103B400090F9981781F080FBC2F9C09367016091EA
:103B5000660184E090E00E94B12A6C2F82E290E03E
:103B6000CF910C94B12ACF91089510922402109213
:103B7000230210922202089520912402809582232C
:103B800080932402982F977041F430E0482F082E3C
:103B9000000C550B2417350721F49091670192FF13
:103BA00007C08595859585950E9487130C94B51D52
:103BB000089580912102811110922102089580912F
:103BC00020029091DF01891719F08F5F8770FBCF7A
:103BD00008951F93CF93DF938091DC0182958F70BE
:103BE00009F05CC08091D901882309F457C0809105
:103BF00020021091DF016091D7017091D801C0912E
:103C0000DA01D091DB0191E06F3F09F090E0292FBC
:103C1000811709F443C0209721F07F3F21F030E065
:103C200003C031E001C0322F90E030FD34C0FC0110
:103C300033E0EE0FFF1F3A95E1F7DF01A052BE4FD0
:103C400011963C911197371326C03C91361323C02F
:103C500012963C91129731111EC013964D915C91B2
:103C600014974C1B5D0B483C5105A8F48091DC0176
:103C70008F7080618093DC01EB51FE4F80818F70EB
:103C80008061808387ED91E00E94260ADF91CF91C9
:103C90001F910C94DF1D01968770BACFDF91CF91F1
:103CA0001F9108959F92AF92BF92CF92DF92EF92B1
:103CB000FF920F931F93CF93DF9300D000D000D0DB
:103CC000CDB7DEB7AE014F5F5F4F7A0186E0FA01F4
:103CD00011928A95E9F705E111E05A01CC24C394C9
:103CE000D12CF80180818F3F09F447C0F894E82F68
:103CF000E295EF70F0E021A18F70A60102C0440FA1
:103D0000551F8A95E2F7CA01922F982B91A392A191
:103D10008095892382A3789400C0EBE1F1E020E054
:103D200030E0912C41914F3FB1F0A42FA295AF709C
:103D3000B0E090968C9190E04F7002C09595879579
:103D40004A95E2F780FD07C08C2D022E01C0880F36
:103D50000A94EAF701C080E0982A2F5F3F4F28308D
:103D6000310501F7F80180818F3F11F00E946E1B31
:103D7000F0EAFA95F1F7F50190820F5F1F4FFFEF20
:103D8000AF1ABF0A41E00B31140709F0AACF46E091
:103D900050E0B70188E691E00E94FA2A11E000970E
:103DA00009F410E0892B89F086E0F701A8E6B1E07C
:103DB00001900D928A95E1F781E080932E020E9496
:103DC000742090932D0280932C0280912E028823E0
:103DD000A1F080912C0290912D020E946520059700
:103DE00060F0E8E6F1E0AAE9B1E081918D9351E05D
:103DF000EE36F507D1F710922E0280910C01882340
:103E000041F180912C0390912D03009711F10E94B4
:103E10006520209186023091870228173907C8F45F
:103E200090912A0380912B03981759F00E94B42196
:103E3000109287021092860210922D0310922C038A
:103E400008C00E94362110922D0310922C030E946C
:103E50009521812F26960FB6F894DEBF0FBECDBFF9
:103E6000DF91CF911F910F91FF90EF90DF90CF9056
:103E7000BF90AF909F900895CF939091670192FD6E
:103E80000DC090912A02981749F0C82F0E94742003
:103E90009093290280932802C0932A02CF9108951B
:103EA0009091270280912602892B90912502892BDF
:103EB0008093CF0180912A02882311F10E947420FF
:103EC0002091280230912902821B930B883893415C
:103ED00010F00E94891D9091CF0180912A02892BB8
:103EE0008093CF01E1EDF1E097E080E0915029F07F
:103EF00021912223D9F38F5FF9CF81110E94891D6F
:103F0000E0913003F0913103309731F00280F3817A
:103F1000E02D8FEC91E0099408959091670192FD56
:103F200010C098E0899F90011124262B2093240231
:103F30000E9493130E947420909323028093220284
:103F400008950C9493138091B901089524E020936F
:103F5000E9002FEF3091E800215035FD06C035ED26
:103F60003A95F1F700002111F5CF2091E80025FFE7
:103F70000BC040E050E066E070E00E94D71A8091EC
:103F8000E8008E778093E8000895CF93DF9321E0D7
:103F90002093E9002FEF3091E800215035FD06C055
:103FA00035ED3A95F1F700002111F5CF2091E800A9
:103FB00025FF14C0EC0140E050E068E070E00E9492
:103FC000D71A8091E8008E778093E80088E0FE01A0
:103FD000AAEBB1E001900D928A95E1F7DF91CF91C4
:103FE00008959091CD01943029F580933903709311
:103FF0003B0360933A039093E9008FEF9091E800C0
:10400000815095FD06C095ED9A95F1F7000081115C
:10401000F5CF8091E80085FF0DC040E050E063E0FF
:1040200070E089E393E00E94D71A8091E8008E77D0
:104030008093E800089581E08093E00080E280931F
:10404000D8001092C9008FE19EE40197F1F700C0FB
:10405000000087E090EBDC0180933C0390933D03EC
:10406000A0933E03B0933F039CE088E10FB6F89421
:10407000A895809360000FBE90936000FFCF789466
:104080001F920F920FB60F9211248F939F93AF93AD
:10409000BF938091350390913603A0913703B0917F
:1040A00038030196A11DB11D80933503909336030B
:1040B000A0933703B0933803BF91AF919F918F9135
:1040C0000F900FBE0F901F9018959C014FB7F8945A
:1040D0008091350390913603A0913703B091380356
:1040E0004FBF821B930B08952FB7F894809135032F
:1040F00090913603A0913703B09138032FBF0895F4
:104100001F920F920FB60F9211248F939F93AF932C
:10411000BF9380913403811113C080913503909136
:104120003603A0913703B09138034196A11DB11D0C
:104130008093350390933603A0933703B0933803ED
:10414000BF91AF919F918F910F900FBE0F901F90D5
:1041500018959C012A5F3F4FFC014281461301C024
:104160001282019682179307B9F708959C01FC010A
:1041700032969FEF80E04191461789F09F3F19F4F6
:10418000411101C0982F8F5F8630A9F79F3F39F00A
:10419000F901E90FF11D97FDFA95628308950895DD
:1041A00020913203309133032817390771F090932F
:1041B000330380933203E0913003F0913103309761
:1041C00021F00084F185E02D0994089520912E03BB
:1041D00030912F032817390771F090932F038093A4
:1041E0002E03E0913003F0913103309721F00680E7
:1041F000F781E02D09940895E0913003F0913103A7
:10420000309721F00190F081E02D099480E008952D
:10421000BC0140912A0380912B03942F981729F118
:10422000292F30E0F901EE0FFF1FEE5DFC4F0190EA
:10423000F081E02DE617F70799F487E0869FF001FB
:10424000879FF00D1124E651FD4F81E08483941384
:104250000CC02F5F3F4F2370332720932A0308950C
:104260002F5F3F4F922F9370D9CF08950F931F93D5
:10427000CF93DF9380918902882309F451C0C091C4
:1042800088021CE080918902C81708F045C001E04F
:104290000C0F00938802D0E01C9FF0011D9FF00DD1
:1042A0001124E657FD4F9081818123813481232B96
:1042B00031F08F3F31F481E09F3F19F403C081E07A
:1042C00001C080E080FD26C01C9FD0011D9FB00D65
:1042D0001124A657BD4F16968D919C911797892B47
:1042E00031F418968D919C911997019651F4208183
:1042F00031814281538164817581868197810E94D9
:10430000AD131C9FF0011D9FF00D1124E657FD4FCA
:1043100014821382C02FB6CF1092890210928802A5
:10432000DF91CF911F910F91089510928702109203
:104330008602EAEEF2E08581811102C014821682C3
:10434000379683E0E232F807B1F7089510922D0313
:1043500010922C0310920C0180912B0380932A035E
:104360000E9495210C9436213F924F925F926F925A
:104370007F928F929F92AF92BF92CF92DF92EF92F5
:10438000FF920F931F93CF93DF93C0912A0397E07F
:10439000892E01E010E02CE0322E3EEF932E4424D3
:1043A000439480912B03C81709F478C0D0E0FE0134
:1043B000EE0FFF1FEE5DFC4F80819181889ED00142
:1043C000899EB00D1124A651BD4F14962C911497BF
:1043D000211161C050908902EAE8F2E020E030E06B
:1043E000712C5D01251508F054C0E284F384D501D9
:1043F000CD90DC906FEF7FEF612C462D50E0DA011D
:10440000AA0FBB1FAC0DBD1D0D90BC91A02D109728
:1044100031F0EA16FB0609F4BA016394EECF6F3F60
:10442000BFEF7B0791F1D80102C0AA0FBB1F6A95AD
:10443000E2F77A2AB80102C0660F771F6A94E2F7A2
:10444000AB0141505109672D70E046175707D9F469
:10445000329EF001339EF00D1124E657FD4F889EE9
:10446000D001899EB00D1124A651BD4F12962D91F9
:104470003C9113973783268390829182918780871E
:1044800015964C9206C0148213822F5F3F4F3C96C4
:10449000A9CF0E9408212196C37083CF0E943621A4
:1044A000DF91CF911F910F91FF90EF90DF90CF9010
:1044B000BF90AF909F908F907F906F905F904F9044
:1044C0003F900C9495210F931F93CF93DF93C42FAC
:1044D000D22FFC0182818823C9F0409385020E947B
:1044E0007420909384028093830280E28C0F883042
:1044F00008F057C0C77081E001C0880FCA95EAF77D
:10450000DF91CF911F910F910C944F1480918502F0
:10451000481330C080918302909184020E946520EC
:10452000883C910538F510E21D0FCD17B9F080E2F7
:104530008C0F883040F4C77081E001C0880FCA95A5
:10454000EAF70E944814183028F581E09D2F9770F3
:1045500001C0880F9A95EAF70E944F14802F0E949D
:104560004C151830F0F4D77081E001C0880FDA954F
:10457000EAF70AC080E28C0F883098F4C77081E0B7
:1045800001C0880FCA95EAF7DF91CF911F910F9173
:104590000C944814802FDF91CF911F910F910C94B0
:1045A0004C15DF91CF911F910F910895CF93DF9319
:1045B000C3E9D2E060E0CE010E94B12A2196C11584
:1045C00084E0D807B9F7DF91CF9108950F931F9337
:1045D000CF93DF93853068F5633058F5423048F566
:1045E00021159CE5390731F4E0917F02F0918002BA
:1045F000EF2BF9F08901282F34E0639FC0011124CB
:104600003CE0239F800D911D1124840F911D840F88
:10461000911DEC01C95FDD4F612FCE010E94B12ACF
:10462000602FCE010196DF91CF911F910F910C94D5
:10463000B12ADF91CF911F910F9108950F931F938E
:10464000CF93DF93853018F5633008F54230F8F4E6
:10465000282F34E0639FC00111243CE0239F800D8C
:10466000911D1124840F911D840F911DEC01C95FD0
:10467000DD4FCE010E94A32A90E0182F0027CE0123
:1046800001960E94A32A9801282BC90102C080E04C
:1046900090E0DF91CF911F910F9108950F931F9399
:1046A000CF93DF93853058F5663048F5483038F5BC
:1046B00021159CE5390731F4E0917F02F0918002E9
:1046C000EF2BE9F08901C42FD0E0CC0FDD1F90E182
:1046D000699FC00DD11D112490E6899FC00DD11D89
:1046E0001124612FCE0187960E94B12A602FCE013E
:1046F0008896DF91CF911F910F910C94B12ADF9191
:10470000CF911F910F9108956F927F928F929F92F8
:10471000AF92BF92CF92DF92EF92FF920F931F93CF
:10472000CF93DF93CDB7DEB72A970FB6F894DEBFED
:104730000FBECDBFA0907F02B090800281E090E0DC
:104740009093800280937F02C12CD12C712C612C1C
:10475000E12CF12C00E010E047018C0C9D1CF401D1
:10476000E00FF11FEE0FFF1FE35AFA4F259134912E
:10477000402F662D872D0E944E230F5F1F4F08305C
:10478000110569F788E0E80EF11C639496E0691260
:10479000E1CF10E021E030E040E0612F872D0E9462
:1047A000E62221E030E041E0612F872D0E94E622E1
:1047B0001F5F133079F77394E0E3CE0ED11CF5E060
:1047C0007F12C5CFCE0101967C018AE0F7011192DC
:1047D0008A95E9F703E412E04AE050E0B801C70126
:1047E0000E94D52A065F1F4F0339F2E01F07A1F789
:1047F000B0928002A0927F022A960FB6F894DEBF94
:104800000FBECDBFDF91CF911F910F91FF90EF9021
:10481000DF90CF90BF90AF909F908F907F906F90E0
:1048200008950F931F93CF93DF93853008F566307B
:10483000F8F44830E8F4C42FD0E0CC0FDD1F20E1BD
:10484000629FC00DD11D112430E6839FC00DD11D84
:104850001124CE0187960E94A32A90E0182F0027EA
:10486000CE0188960E94A32A9801282BC90102C074
:1048700080E090E0DF91CF911F910F910895462F36
:104880002091810230918202232B49F4853038F443
:10489000763028F4683018F4672F0C94112480E0E7
:1048A00090E00895CF92DF92EF92FF920F931F93C3
:1048B000CF93DF93CDB7DEB72A970FB6F894DEBF5C
:1048C0000FBECDBF80E5EFE2F2E0DF011D928A95D9
:1048D000E9F788E3EAEEF2E0DF011D928A95E9F755
:1048E0008FE2C82E82E0D82E7F0103E412E0F701A8
:1048F000D182C0824AE050E0B801CE0101960E9408
:10490000932A88E0FE013196D60101900D928A9596
:10491000E1F789859A85D70113969C938E93129718
:10492000BAE0CB0ED11CE7E0EE0EF11C065F1F4F84
:104930000339F2E01F07D9F62A960FB6F894DEBFC6
:104940000FBECDBFDF91CF911F910F91FF90EF90E0
:10495000DF90CF9008959C013A9521153F4130F5A5
:10496000BC0166277270AC01442754709C01222759
:10497000387094FF0FC090FF02C080E101C080E05A
:10498000672B09F08062452B09F08064232B79F0B6
:1049900080680895892F8170672B09F08260452B0C
:1049A00009F08460232B19F08860089580E0089551
:1049B000DF92EF92FF920F931F93CF93DF93E82F35
:1049C000F0E0E359F84FD490282F269526952695A8
:1049D00030E0F901E35AF84F0491877010E0082E97
:1049E00002C0159507950A94E2F701701127F901A5
:1049F000E35BF84FE490F12C082E02C0F594E794A5
:104A00000A94E2F791E0E922FF24F901E35CF84F10
:104A1000C491D0E002C0D595C7958A95E2F7C170E0
:104A2000DD270115110519F081EE0E94B014E11483
:104A3000F10419F086EE0E94B0148D2D0E944C15E1
:104A4000EF2819F086EE0E945914012B19F081EE1F
:104A50000E945914CD2B51F08CE2DF91CF911F9120
:104A60000F91FF90EF90DF900C944C15DF91CF9158
:104A70001F910F91FF90EF90DF900895EF92FF92BA
:104A80001F93CF93DF93EC011AE08881882309F408
:104A90004AC0813009F043C08981813041F47E01F0
:104AA00082E0E80EF11C8A810E944C1509C0823018
:104AB00049F47E01E2E0EE0EF11C8A810E94B014FE
:104AC000E7012FC0833041F47E01F2E0EF0EF11CCC
:104AD0008A810E945914F4CF843011F0219621C0AC
:104AE0002A81229680E090E030E0205331092A307C
:104AF000310558F4189FA001199F500D1124C901C8
:104B0000840F951F21962881EFCF009751F0EFE990
:104B1000FFE03197F1F700C000000197F6CF0E9447
:104B2000D8242196B2CFDF91CF911F91FF90EF90C3
:104B300008951F93CF93DF9300D000D01F92CDB77D
:104B4000DEB7FC0186819781009709F5CF0125E04A
:104B5000DE01119601900D922A95E1F7FC01228168
:104B600089819A81222359F0662349F00E94F91025
:104B7000182F682F89819A810E94561303C00E94C2
:104B80002613182F69817A81812F0E943F240F906C
:104B90000F900F900F900F90DF91CF911F9108957C
:104BA0000F931F93CF93DF93C091A101D091A201E6
:104BB000CE0195558F3F910509F058F48C2FC4FF15
:104BC00002C08295807FDF91CF911F910F910C944D
:104BD0003C1F8E01005E1109CE010830110510F056
:104BE000209729F40E94AB240E944F1404C00E9415
:104BF000AB240E943E148C2F0E94B0148FE798E3E0
:104C000021E0815090402040E1F700C000008C2F4F
:104C10000E945914CE010830110510F0CD2B41F43B
:104C20000E94AB24DF91CF911F910F910C944814F7
:104C30000E94AB24DF91CF911F910F910C943314FC
:104C40001092A0010E94FC2081FF03C089E30C9414
:104C50004C150895DC01FB0180819181803891051C
:104C60003CF08FE78C93808191818F5791090AC026
:104C700081382FEF92074CF481E88C9380819181E9
:104C800081589F4F9183808308958C931182108265
:104C90000895681720F4861B682F21E002C0681B66
:104CA00020E0469FA0011124649FC001659F900DE4
:104CB00011249170222319F09195819591090895FD
:104CC0002F923F924F925F926F927F928F929F921C
:104CD000AF92BF92CF92DF92EF92FF920F931F930A
:104CE000CF93DF93CDB7DEB76A970FB6F894DEBFE8
:104CF0000FBECDBF498B5A8B6B8B7C8B8D8B61111B
:104D0000109226028E01075F1F4F88E0F801119272
:104D10008A95E9F785E0FE017196D80101900D9220
:104D20008A95E1F70E94742020912202309123029B
:104D3000821B930B8838934140F08091240282FBC0
:104D4000992790F981E0892701C080E080FF03C0A6
:104D500082E00E94BC1D0E947420209128023091A4
:104D60002902821B930B8838934110F00E94891D01
:104D700099858A852C853D85232B31F08F3F31F431
:104D800081E09F3F19F403C081E001C080E080FD15
:104D9000CAC161E0C8010E9499256C0187EFC8165D
:104DA0008CE5D80639F48B858823B9F081E08093AF
:104DB0000C01B9C198EFC9169CE5D90631F48B8571
:104DC000882359F00E94A621AEC1E9EFCE16ECE58A
:104DD000DE0619F48B85811111C00AEE12E0712CE8
:104DE000A12CB12C88248394912C55245394CE016A
:104DF00001969F8B8E8BF7E04F2E49C080910C015E
:104E00008823A1F2DFCFC616D70609F097019F5F6E
:104E10007901292F30E0F901EE0FFF1FE40FF51F94
:104E2000608171816115710571F7FFEFEF16FF0663
:104E300009F42DC1F8016481611131C020910C0188
:104E4000822F81706B84F80135812681662009F4F8
:104E5000C6C0882309F4C3C0332321F1940102C0E2
:104E6000220F331F9A95E2F721503109F80186810C
:104E700090E02817390759F17628FFEFAF1ABF0ADB
:104E8000095F1F4F28E0A216B10409F402C1F8011E
:104E900040815181EE24EA94FE2C90E0BACF20E0CC
:104EA00030E0CECFA40101C0440FEA94EAF7242BEE
:104EB000268320918602309187022233310570F6D5
:104EC00022E330E03093870220938602C7CF80919F
:104ED0002C0390912D03009729F00E946520C39721
:104EE00008F01EC180912A03F0912B03F88FE0E0B7
:104EF000F0E0288D821709F460C0282F30E0F90116
:104F0000EE0FFF1FEE5DFC4F20803180429CF001D0
:104F1000439CF00D1124E651FD4FF080E18050E0FC
:104F200090E040E0EF2DFE2DE40FF11DE40FF11DA8
:104F3000A081B1811097D1F0F801F081F98FF801CB
:104F4000F181FA8F90E0E98DFA8DE90FF11DE90FFB
:104F5000F11D608171816115710531F0A617B707E8
:104F600009F451E09F5FEFCF4F5FDCCF5523F9F09D
:104F70009417C8F0429CF001439CF00D1124E651B7
:104F8000FD4F3097B1F054820E171F0709F474CF0C
:104F900090912A0389130DC0C90101968370992746
:104FA00080932A0306C00115110509F0B9C0E0E09D
:104FB000F0E0C901019683709CCF0E171F0709F41A
:104FC0005BCF90E0FC01EE0FFF1FEE5DFC4FB18266
:104FD000A08201968370992780932B034DCF3111C6
:104FE00012C0A40102C0440F551F9A95E2F7415028
:104FF000510930E042175307E9F56623E1F1C50195
:105000000E94082137C0822F90E09C012150310975
:10501000282339230E2C02C0959587950A94E2F730
:10502000232B31F580FF24C0F80182819381892BE5
:10503000D9F088E0EE89FF8911928A95E9F78EEF21
:1050400089838A830E9474208160582F9D838C837A
:10505000F801828193818F83988729813A814B81DE
:105060006D817E810E94AD13F801158281E003C03D
:10507000817001C080E0940101C0220FEA94EAF738
:105080002095F801968129232683682EF5CE612C80
:10509000F3CE8B85882381F1772071F10E947420F3
:1050A00090932D0380932C0380918902883008F01F
:1050B00044C091E0980F9093890298E0FE013996E0
:1050C000DE01119601900D929A95E1F7ECE08E9F2A
:1050D000C001112486579D4F28E0FE013196DC0166
:1050E00001900D922A95E1F72FEF3FEFFC013187F8
:1050F0002087D386C28621C090912A0380912B03FA
:10510000981719F00E94B42108C00E94362110920D
:105110002D0310922C030E949521772021F00DC0C1
:10512000F8015482A9CE29853A854B855C856D8529
:105130007E858F8598890E94AD136A960FB6F89484
:10514000DEBF0FBECDBFDF91CF911F910F91FF90BA
:10515000EF90DF90CF90BF90AF909F908F907F9017
:105160006F905F904F903F902F900895CF93C82FEE
:10517000811102C06FEF01C06BE483E290E00E94F6
:10518000B12AC11102C06FEF01C06BE584E290E06B
:105190000E94B12AC11102C06FEF01C065EE85E225
:1051A00090E0CF910C94B12A80E00E94B62860E094
:1051B00086E290E00E94B12A0E9484230E94D622B7
:1051C00081E00C94B62883E290E00E94A32A8B34FD
:1051D00081F484E290E00E94A32A8B3551F485E2A9
:1051E00090E00E94A32A91E0853E09F090E0892F8B
:1051F00001C080E0817008951092B9008CE0809326
:10520000B80008959F92AF92BF92CF92DF92EF9233
:10521000FF920F931F93CF93DF93B82EEB010E9461
:1052200074206C01C431D10558F0CF3F8FEFD807FF
:1052300059F0CE0164E170E00E94762A7B0107C03C
:10524000EE24E394F12C03C025E0E22EF12C84E857
:10525000A82E94EA992E1092BC009092BC000E9455
:1052600074208C018091BC0087FD08C00E947420CE
:10527000801B910B8E159F05A8F32AC08091B90061
:10528000887F883041F08091B900887F803119F0A3
:105290000FEF1FEF1FC0B092BB00A092BC000E9496
:1052A00074208C018091BC0087FD08C00E9474208E
:1052B000801B910B8E159F05A8F30AC08091B90041
:1052C000887F883111F0803419F700E010E00EC0BB
:1052D0000EEF1FEFCF3F8FEFD80709F4BCCFC60109
:1052E0000E9465208C179D0708F4B5CFC801DF9197
:1052F000CF911F910F91FF90EF90DF90CF90BF90D3
:10530000AF909F9008950F931F93CF93DF93EB017E
:105310008093BB0084E88093BC000E9474208C01C1
:105320008091BC0087FD0EC0CF3F8FEFD807C1F33F
:105330000E947420801B910B8C179D0788F38EEFC1
:105340009FEF0CC02091B900287F81E090E02832C7
:1053500011F480E090E0919581959109DF91CF91D2
:105360001F910F9108950F931F93CF93DF93EC013B
:1053700084EC8093BC000E9474208C018091BC005E
:1053800087FD0EC0CF3F8FEFD807C1F30E94742076
:10539000801B910B8C179D0788F38EEF9FEF03C046
:1053A0008091BB0090E0DF91CF911F910F91089504
:1053B0000F931F93CF93DF93EC0184E88093BC009D
:1053C0000E9474208C018091BC0087FD0EC0CF3FED
:1053D0008FEFD807C1F30E947420801B910B8C17AC
:1053E0009D0788F38EEF9FEF03C08091BB0090E094
:1053F000DF91CF911F910F910895CF92DF92EF929D
:10540000FF920F931F93CF93DF93C62F6A01790109
:10541000B8010E94022997FD11C0B8018C2F0E948B
:105420008329E601EC0CFD1CCE15DF0539F097FD54
:1054300005C0B80189910E948329F6CF24E9209301
:10544000BC00DF91CF911F910F91FF90EF90DF9003
:10545000CF900895CF92DF92EF92FF920F931F9318
:10546000CF93DF93D82EC62E7A01E901B8010E94AE
:10547000022997FD2AC0B8018C2D0E94832997FD2F
:1054800024C0B8018D2D81600E94022967012197F7
:1054900096012E193F092C173D0768F497FD15C09A
:1054A000C8010E94B32997FD02C0F6018083FFEF77
:1054B000CF1ADF0AEDCF97FD08C0C8010E94D82996
:1054C00097FD03C0CE0DDF1D888324E92093BC0027
:1054D0001816190614F480E090E0DF91CF911F9127
:1054E0000F91FF90EF90DF90CF900895AA1BBB1B08
:1054F00051E107C0AA1FBB1FA617B70710F0A61BD4
:10550000B70B881F991F5A95A9F780959095BC01F4
:10551000CD010895FB01DC0102C005900D924150C0
:105520005040D8F70895DC01CB01FC01F999FECF7A
:1055300006C0F2BDE1BDF89A319600B40D9241501B
:105540005040B8F70895F999FECF92BD81BDF89A01
:10555000992780B50895A8E1B0E042E050E00C94AE
:10556000952A262FF999FECF92BD81BDF89A019711
:1055700000B4021639F01FBA20BD0FB6F894FA9A9B
:10558000F99A0FBE08950396272F0E94B22A0E940F
:10559000B12A252F0E94B22A242F0C94B22A0196F8
:1055A000272F0E94B22A0C94B12ADC01CB0103C040
:1055B0002D910E94E02A41505040D0F70895262FA7
:1055C000F999FECF1FBA92BD81BD20BD0FB6F894E8
:1055D000FA9AF99A0FBE01960895EE0FFF1F0590F3
:1055E000F491E02D09946927962769277827872762
:1055F00078270895FB01DC0104C08D91019080198A
:1056000021F441505040C8F7881B990B0895DC01E4
:1056100001C06D9341505040E0F70895F894FFCFDA
:10562000A31FC51FA61F1E161A16FF0101693CEA1B
:1056300084B6CCB4AC92F4F5F6F7313534C697663F
:105640009432334022813E041C049B039004A9043D
:10565000C904818283E200E900EA00B500B600B720
:1056600000CD008301CC008A019201940121022324
:105670000224022502260227022A02B300B4006F88
:0456800000700000B6
:00000001FF
