:100000000C94E6040C942D050C942D050C942D05F0
:100010000C942D050C942D050C942D050C942D0598
:100020000C942D050C942D050C941B170C9457164D
:100030000C949D190C942D050C942D050C942D05F4
:100040000C942D050C942D050C942D050C942D0568
:100050000C942D050C94F7180C942D050C942D057B
:100060000C942D050C942D050C942D050C942D0548
:100070000C942D050C942D050C942D050C942D0538
:100080000C942D050C942D050C942D050C942D0528
:100090000C942D050C942D050C942D050C942D0518
:1000A0000C942D050C942D050C942D05DA080109EE
:1000B00006090B09100915091A091F09240929093C
:1000C0002E09B409B409ED09ED094F0A8A0B8A0B10
:1000D0008A0B6D0AE10AF20AF20A631179118011A2
:1000E000B811C911D411E411F71136123B1295124F
:1000F0009512951243125F14861439168614391618
:10010000D214F5143916F61506167D207D209020A0
:10011000902086209020902090207D207D208B2094
:10012000902090208B202E200000047F3F1F6432FF
:1001300014643214783C1E1E140A05FD377A585A8E
:10014000000004E6D6B44602002101160000007447
:100150002FE5A3E0085302455D003D8889C654366B
:10016000C3174FE4F1E112FDEF008EFF6F9387B4E8
:100170002647FBB729D03483DA2C4E8C1ED4A2102C
:100180001D9A2C5F0D89D296E2560F1E575FB41050
:10019000F19A9B18602D7EFBA74803850A09BB6175
:1001A000BA19807BBF8567EF57236FF0788933D00A
:1001B0006222FCBD0E51E6DEAF7BE8DAA260551D7F
:1001C00019D1FB286DE36D5BBD4122218BEA63836E
:1001D000C8A2495A31655DBD002908EFA3B6E19E6A
:1001E000AEF3D84A9B2F0D317CDC7AE26D5B8D9F9C
:1001F0004C1A0FEED72802735D24FAE0CD52AD5FA2
:10020000A9557D24C66E6096EE385461552D353360
:1002100026C0C365397C77239B589B7C90A1BFBDCA
:100220006D204BBF2FE0C2EF0363B5AC02FDD87168
:1002300042E85C47D08B8B08455CE2D1BD93A36E4E
:100240006B7B019B123EA7AB5EB577FDE833C6F72B
:10025000BB8181344D4831C367B9E33A8438C073F8
:10026000722F53E5B769DD775E305F2782C90FFED5
:10027000E70EAAEAE455B91AF196FE8AE7C52E768A
:10028000B72D2C05C44C4C9E75684B1B92247E2BBD
:10029000906DF9DE48E3E4A467E21B4A6CFA5A78F1
:1002A000AABE7A60553A67389C7FBA3B8D1B128E86
:1002B0005FB2763748EB7D97222611EBAEEE4E8784
:1002C000D5FA484DA991F4B5CBB4B735D19F40D5F7
:1002D000E312191F76715BA303830EC87AFA73CCFD
:1002E00048F9436FBCADF442CCC64C8DA0FF9EFADA
:1002F000D6F6E65D11F9640DEDB69B5DBBDF9DC9D9
:10030000DF085FCD2BE31E49F9E211DE6CDC707A69
:10031000D4075AFF4099DBBCEA657B2A642CA4828F
:1003200020E55D181AD31FAF0B6F8A701E4C95AE77
:1003300069E6EC7CAA614CAE2FD61C5296328C66D4
:100340001C8E0964B52368642875932C911DA0C97F
:10035000AA1DFB9B345575DFAC63A36274506CFB24
:100360002CCA5497D6DB2F5D6FDF76D5948A1EA7F3
:10037000855FE6802992D46176588C98975A6826D2
:10038000CDB1651D8D8A5C5236D1C421A22A836607
:10039000E99C0CB0428FBD51715A73ABE82CB00090
:1003A000000000896E945E7653C6190001E104D402
:1003B0001000008437DD5EB1C467FB02000000005E
:1003C00004595A05010980A101850319012AB700C2
:1003D000150126B700950175108100C0050C0901B3
:1003E000A101850419012AA002150126A002950188
:1003F00075108100C00660FF0961A1010962150046
:1004000026FF009520750881020963150026FF006C
:10041000952075089102C005010906A1010507197B
:10042000E029E71500250195087501810295017500
:100430000881010507190029FF150026FF00950610
:1004400075088100050819012905950575019102B6
:10045000950175039101C009025B00030100A0FA38
:10046000090400000103010100092111010001221A
:1004700040000705810308000A0904010002030087
:10048000000009211101000122220007058203203A
:100490000001070503032000010904020001030015
:1004A0000000092111010001223200070584032008
:1004B000000A1201000200000008FEFEBBFF01005E
:1004C000010203011C037600690061006C003A0020
:1004D00066003600340063003200620033006300BF
:1004E0000000320373006100640065006B0062006D
:1004F000610072006F0075006400690020006600F2
:1005000066006B0062005F00620079006F006D00A2
:100510006300750000001A03730061006400650049
:100520006B006200610072006F007500640069007A
:100530000000040309042223252628292A2C2D2F14
:100540003032333536383A3B3D3E404243454749E9
:100550004A4C4E5051535557595A5C5E606264661E
:1005600068696B6D6F71737577797B7D7F8183852A
:1005700087898A8C8E90929496989A9C9E9FA1A32C
:10058000A5A7A8AAACAEAFB1B3B4B6B8B9BBBCBE50
:10059000BFC1C2C3C5C6C7C9CACBCCCDCED0D1D2CC
:1005A000D2D3D4D5D6D7D7D8D9D9DADADBDBDBDCCE
:1005B000DCDCDCDCDDDDDDDDDCDCDCDCDCDBDBDB7A
:1005C000DADAD9D9D8D7D7D6D5D4D3D2D2D1D0CEDA
:1005D000CDCCCBCAC9C7C6C5C3C2C1BFBEBCBBB9DF
:1005E000B8B6B4B3B1AFAEACAAA8A7A5A3A19F9E5D
:1005F0009C9A98969492908E8C8A89878583817F25
:100600007D7B79777573716F6D6B69686664626005
:100610005E5C5A5957555351504E4C4A49474543D1
:1006200042403E3D3B3A3836353332302F2D2C2A6E
:10063000292826252322290014001A000800150065
:1006400017001C0018002B0004611668076409627B
:100650000A000B000D72E1001D001B0006001900CE
:10066000050011001000000000000E743700120099
:10067000337138002A0000002B0436000C000F787C
:100680001300E50034002A01A8004C0031002800C6
:10069000015102512C0001001E021F022002210202
:1006A0002202230224020100015302530353045384
:1006B000010001002D0201003900010001000100CC
:1006C000010001000100000000002E02310226029C
:1006D00030023402010000000100010025022F0257
:1006E00027020100010001000100010001000100DA
:1006F00001000351010035001E001F0020002100F1
:100700002200230024004A005000510052004F00F4
:100710002B0001002D00010001004E004B000100E4
:10072000815F845F825F000000002E0001002600D0
:1007300030000100010000000100835F25002F0050
:10074000270001000100010001000100010001007B
:100750000351010001000100C25CC45CC35C0100E4
:1007600001003A003B000100CB5CC55CC75CC95C82
:1007700001003F0040000100CC5CC65CC85CCA5C64
:1007800001004400450000000000410001003D0060
:100790004300005C01000000010001003C00420039
:1007A0003E00010001000100010001000100010004
:1007B0000100010001000100010001000100010031
:1007C0000100010001000100010001000100010021
:1007D0000100010001000100010001000100010011
:1007E0000100010001000000000001000100010003
:1007F00001000100010000000100010001000100F2
:1008000001000100010001000100010001000100E0
:1008100001000100010000000000000000000000D5
:1008200000000000000000000000000000000000C8
:10083000000000000000000000007E0F00D4FFFF59
:10084000FFC70000007800000000000000002A2B15
:100850002800000000000000000000000000000070
:100860000029000000002C1E3420212224342627D9
:10087000252E362D3738271E1F20212223242526FA
:100880003333362E37381F0405060708090A0B0CC8
:100890000D0E0F101112131415161718191A1B1C10
:1008A0001D2F3130232D350405060708090A0B0CCE
:1008B0000D0E0F101112131415161718191A1B1CF0
:1008C0001D2F3130354C00010101010101010101F1
:1008D00002020202020202020203030303030303F1
:1008E00003040404040404040505050505060606BE
:1008F0000606070707070708080808090909090A7B
:100900000A0A0B0B0B0C0C0C0D0D0D0E0E0E0F0F1F
:100910000F101011111112121313141415151616AD
:100920001717181819191A1A1B1B1C1D1D1E1E1F1C
:100930002020212222232424252626272829292A6B
:100940002B2C2D2D2E2F3031323233343536373893
:10095000393A3B3C3D3E3F4041424344454647488F
:10096000494A4C4D4E4F50515354555658595A5B65
:100970005D5E5F616264656668696B6C6D6F707205
:10098000737577787A7B7D7E8082838587888A8C71
:100990008E8F91939596989A9C9EA0A2A3A5A7A9A5
:1009A000ABADAFB1B3B5B7BABCBEC0C2C4C6C9CB9C
:1009B000CDCFD1D4D6D8DBDDDFE2E4E7E9EBEEF052
:1009C000F3F5F8FAFDFFFFAA7F55400011241FBE82
:1009D000CFEFDAE0DEBFCDBF04B603FE27C08091C3
:1009E000DF039091E003A091E103B091E20387302F
:1009F000904BA740B04BD1F41092DF031092E0036C
:100A00001092E1031092E20314BE84B7877F84BF83
:100A10000FB6F894A895809160008861809360007B
:100A2000109260000FBEE0E0F8E3099511E0A0E04D
:100A3000B1E0E0EEF0E602C005900D92A639B107F4
:100A4000D9F723E0A6E9B1E001C01D92AF3DB2079E
:100A5000E1F70E94620C0C946E300C9400008F92AF
:100A60009F92AF92BF92CF92DF92EF92FF920F933D
:100A70001F93CF93DF9300D000D0CDB7DEB7FC013A
:100A80008081918123813481232B31F09F3F31F488
:100A900091E08F3F19F403C091E001C090E090FD18
:100AA00000C76F0161E0CF010E94072A8C01F601A7
:100AB0008281882309F49AC0980122513F45203150
:100AC000310508F07BC08FEF93E00E945B2F81110E
:100AD0007FC03EEEF32EF00E03E912E0FF2071F02E
:100AE0000115F4E01F0709F473C0C8010E945B2FD1
:100AF000811101C0FA940F5F1F4FF0CF19821A8243
:100B00001B821C82AA24AA9478012FEFE21AF20A0F
:100B1000C8010E945B2F89831A82882309F458C078
:100B2000813009F046C0480182E0880E911CC7015F
:100B30000E945B2F8A83882309F44AC09FEF980F95
:100B4000933060F4780193E0E90EF11CC4010E9437
:100B50005B2F8B8381112DC08701D6CF843011F09C
:100B60007401FACFC4010E945B2FB82E7801E4E033
:100B7000EE0EF11CC80103960E945B2FBB2041F1D1
:100B8000882331F1282F30E021503109A29EA001A5
:100B9000A39E500D11248B2D90E00197840F951F7B
:100BA0000197D0F2EFE9FFE03197F1F700C00000C4
:100BB000F7CFCE0101960E94AC29CECF00319FE540
:100BC000190709F0CBC581E00E94BF220E946E1375
:100BD0008091D403877009F464C6F601828188236A
:100BE00009F45FC682E00E946D285BC60031FFE514
:100BF0001F0711F481E005C001312FE5120721F430
:100C000082E00E94B322E2CF90919801911105C039
:100C100090919B01992309F4B7C098013056211592
:100C200090E2390720F0305E2115304140F4F601A2
:100C30009581907F09F4A8C07801FF2401C0780154
:100C4000970130542115354108F49EC090919B01C5
:100C5000923021F5882369F08091D703982F927202
:100C600019F06894F1F80FC086FF0DC024E1F22A54
:100C70000AC0C70195558F3F910511F008F08DC549
:100C800080E00E94F42781E080939B01F0929A011A
:100C9000E09299018FEF809300019ACF882309F4A5
:100CA0007CC5913009F05FC0809100019CE2E9169B
:100CB000F104D9F4882329F00E94942C10920001A9
:100CC00087CF8091990190919A0195558F3F910519
:100CD00009F018F40E94E92703C08AE20E947824F0
:100CE00010929B010E94E42C4FC0EAE2EE16F10440
:100CF00021F481508093000126C087FD34C081110A
:100D00000BC08091990190919A0195558F3F910563
:100D100009F010F40E94942C809100018F5F809361
:100D20000001FDE2EF16F10471F040F484E0E81AEE
:100D3000F10894E2E916F10480F405C0EDE2EE1644
:100D4000E2E0FE0651F4F6018281882309F425C50C
:100D50008091D703811114C008C5F60182818823D0
:100D600009F41BC50DC09AE2E916F10489F308F0F5
:100D700089C5F4E0EF1AF10824E2E216F10440F329
:100D80000E94E42C10929B010238FFE51F0751F4EA
:100D9000F6018281882399F181E080939B018DE2A5
:100DA00090E017C003382FE51207D8F00338EFE5BD
:100DB0001E0709F456C50438FFE51F0709F0FEC4F5
:100DC000F60182818823D9F081E080939B018DE236
:100DD00092E090939A01809399018FEF80930001A4
:100DE0005DC500388FE5180709F437C101389FE564
:100DF000190709F0E3C4F60182818111C3C4F60129
:100E00009281992309F4B9C11092BD020230FCE528
:100E10001F0708F49CC106312CE5120738F0980131
:100E20002A5F3C452930310508F091C10E946327B3
:100E300090939E0180939D0100318CE5180709F481
:100E4000C3C008F041C00830ECE51E0709F49AC0A1
:100E5000F0F404302CE5120709F487C068F402307E
:100E60009CE5190709F477C003301C4509F0E5C07B
:100E700080919D01826076C00630FCE51F0709F471
:100E80006EC008F07BC080919D0188606BC00C3003
:100E90008CE5180709F485C068F40A30ECE51E07F4
:100EA00009F474C008F079C00E94CE2280919D019F
:100EB000806858C00E302CE5120709F476C008F09F
:100EC0007FC080919D018BC00B3F9CE5190709F401
:100ED0004FC018F50331FCE51F0709F47DC078F415
:100EE00001318CE5180709F473C002311C4509F083
:100EF000A4C00E94CE2280919D018F7733C005311E
:100F0000ECE51E0709F472C008F486C00A3F1C45D0
:100F100009F093C080919E013EC00F3F8CE51807F9
:100F200009F45FC058F40D3FECE51E0709F444C016
:100F300008F43FC080919E0182602DC001302DE5F4
:100F4000120709F475C008F45DC002301D4509F0B0
:100F500074C060E06EC080919D01816003C080918B
:100F60009D01806180939D0168C080919D0111C0A9
:100F700080919E01826080939E015FC080919D015F
:100F80008062F0CF80919D018064ECCF80919D01C3
:100F900088608460E7CF8160EECF80919D018E7F75
:100FA000E1CF80919D018D7FDDCF80919D01877F75
:100FB000D9CF80919E0118C080919E018D7FDBCF9B
:100FC00080919D018F7ECECF80919D018F7DCACF74
:100FD00080919D018F7BC6CF80919D01877F8B7F04
:100FE000C1CF80919E018D7F8E7FC5CF80919D0165
:100FF00082FB222720F991E0922790FB82F990FB57
:1010000083F9B0CF80919E01982F909591708E7F3B
:10101000892B90FB81F9AFCF0E94CE2280919D0158
:1010200087FB222720F991E0922790FB87F99ACF3E
:1010300061E08EE090E00E946F2F60919D01109121
:101040009E0184E090E00E946F2F612F82E290E089
:101050000E946F2F0E94CE22BBCDF6018281882391
:1010600009F4CDCE96E2A92E91E0B92E2AE0922E77
:10107000F5018491882309F45AC0813009F04FC0EA
:101080007501FFEFEF1AFF0AF7018491813049F4EF
:101090007501F2E0EF0EF11CF70184910E947824B3
:1010A00041C0823049F47501F2E0EF0EF11CF70106
:1010B00084910E94DC2336C0833049F47501F2E04C
:1010C000EF0EF11CF70184910E9485232BC0843020
:1010D00049F57501F2E0EF0EF11CF701249180E073
:1010E00090E030E0205331092A30310570F4989EA9
:1010F000A001999E500D1124C901840F951FFFEF87
:10110000EF1AFF0AF7012491ECCF009759F0EFE9AD
:10111000FFE03197F1F700C000000197F6CF0E9481
:10112000462975015701FFEFAF1ABF0AA1CF809181
:10113000DA0381FD64CE0E942C199093D903809329
:10114000D8038091DA0382608093DA0358CE8091CD
:10115000D7030631ECE51E0709F58A7A91E009F418
:1011600090E090939C01882311F065E301C069E24F
:101170008FE793E00E94D3190EC006311C4509F099
:10118000A7C080919C01882309F47AC365E38FE7A7
:1011900093E00E94C6190E940F281ACD8272F801AE
:1011A000E25CFC45EB30F10508F05FC0EA5AFF4F06
:1011B0000C9403308091E40180FF1BC08E7F8093EC
:1011C000E4016091E4017091E5018091E601909164
:1011D000E7010E94192D1092E001EFEFF0E722E005
:1011E000E150F0402040E1F700C000000E942A1EBC
:1011F000EFCC81608093E40161E086950E94F42E3B
:10120000E7CC4FE25FE268E37FE22CC048E35FE2B5
:101210006FE27FE227C042EE5EE26BEE7EE222C02A
:101220004BEE5EE262EE7EE21DC04AEC5EE266EDEF
:101230007EE218C046ED5EE26AEC7EE213C042EB4D
:101240005EE26EEB7EE20EC04EEB5EE262EB7EE2B1
:1012500009C04BE25DE26CE37DE204C04CE35DE279
:101260006BE27DE20E940E1EB3CC992389F10A3510
:101270008DE5180741F150F40115ECE51E07A9F0C2
:101280000E3D1C4529F50E947F27A2CC0B352DE58C
:101290001207D9F00C351D45D9F480919E0182FBCF
:1012A000882780F991E0892711C00E94CE229FEF04
:1012B000E4E3FCE09150E040F040E1F700C00000C2
:1012C0000E94D31885CC81E001C080E00E944C28A8
:1012D000F601868197810097B9F4F6018281008139
:1012E0001181882349F0C8010E942520F82E682F1B
:1012F000C8010E94822204C0C8010E945222F82E16
:10130000B8018F2D0E945C1D0E94DA25F82E192F3E
:10131000F601E280058102950F708091D4038770F9
:1013200099F0EE2089F0892F807F803421F080E2CF
:101330008F0D883048F082E00E946D288091D403A0
:101340008770BB24B3948111B12CA12EA2948FE09D
:10135000A8228A2D90E08C30910508F0DBC1FC01B9
:10136000EF59FF4F0C940330812F807F1F7088232B
:1013700011F01295107FEE20B9F0112309F4ACC1E1
:1013800080E28F0D883010F0F11006C09091D703E5
:10139000192B1093D70305C09091D603192B1093E6
:1013A000D6030E940F2898C18F2D0E9485231123F8
:1013B00009F4B0C180E28F0D883010F0F11004C044
:1013C000812F0E94082806C010959091D6031923FA
:1013D0001093D6030E940F289DC1812F807F1F701C
:1013E000803211F01295107FFF2021F0F1E0FF16FE
:1013F00091F13BC0EE20D9F00023A9F0013031F487
:101400008091DA03812B0E94F42784C1053059F4BE
:101410000E94E9278091D10318131093D103812FE3
:101420000E947B2377C18091DA03812BF9CF0023BF
:1014300049F0013069F48091D703812309F46AC12E
:101440000E94A0280E94E927812F0E94742362C174
:101450000530C1F75FC1EE2021F0063008F05AC117
:10146000DECF053008F056C1EFCFEE2019F0002393
:10147000B1F232C1002341F329E3F21208C08FEF29
:1014800097EEE3E081509040E040E1F73EC1FFE796
:1014900028E381E0F15020408040E1F736C1812F00
:1014A00086958695837019F0813061F033C1EE2006
:1014B00021F08F2D912F937002C080E090E00E9468
:1014C000031A2EC1EE2021F08F2D912F937002C0B0
:1014D00080E090E00E94ED1923C1812F8370A9F56F
:1014E000E1101CC14F2D429546954770440F440FA3
:1014F0008F2D8F7090E09C01042E01C0220F0A9462
:10150000EAF7F4FE08C08FE090E001C0880F4A952A
:10151000EAF7809501C080E0169516951370123099
:1015200069F088F49091DB03113019F0822B892344
:1015300002C0922B892B0E94CA22F0C0822B90916C
:10154000DB038927F8CF822BF6CFEE2019F0812F0D
:10155000817001C08695882309F4E0C04F2D429523
:1015600046954770440F440F8F2D8F7090E09C017B
:10157000042E01C0220F0A94EAF7F4FE08C08FE09F
:1015800090E001C0880F4A95EAF7809501C080E09D
:10159000169516951370123059F078F49091D80181
:1015A000113019F0822B892309C0922B892B06C098
:1015B000822B9091D801892701C0822B0E94AF22F3
:1015C000ADC01F70EE2039F0812F0E94BF228F2DF9
:1015D0000E947B23A3C08F2D0E947423812F0E9421
:1015E000B3229CC092EFF91659F19F1538F0E0EF45
:1015F000FE1659F0F1EFFF16E1F069C023EFF21685
:1016000031F184EFF81681F162C0EE2071F00530FF
:1016100008F080C01F7181E090E001C0880F1A952A
:10162000EAF79091D80189271CC0063008F072C0F3
:10163000F1CFEE2039F0812F8F710E94BF226AC056
:10164000EE20C9F3812F8F710E94B32263C0EE2078
:1016500039F01F7181E001C0880F1A95EAF701C0C7
:1016600080E00E94AF2256C0EE20D1F08091D103DD
:101670000E9408288091D4038770843039F40E9436
:101680006628812F8F710E94B32266C0053008F052
:1016900063C01F71812F0E94BF2263E0812F10C0A1
:1016A0009091D7038091D103892B8093D703053084
:1016B00050F00E9466280E94A02864E0812F8F715C
:1016C0000E948A2849C081E00E946D2845C0EE2012
:1016D00039F0002309F4AFCF8F2D0E94DC231AC00C
:1016E000002309F4AFCF99E3F91208C0EFEFF7EE4A
:1016F00023E0E150F0402040E1F707C08FE798E396
:10170000E1E081509040E040E1F700C000008F2D03
:101710000E94852388EF8A0D843010F40E94191AE4
:10172000BB20A9F08091D40380FD11C0F601128284
:101730008595859585950E94BF22C6010E942F053B
:101740008091D4038595859585950E94B32260E0AC
:10175000C6010E94072AA5C0B12CE0CF0131EFE5F8
:101760001E0709F051CA82E02FCA0238FFE51F07A1
:1017700009F40ECB08F01ACB00388FE5180709F0F2
:1017800035CB70CC81E0809398010E94191A81FDBD
:1017900036CB89E30E94782432CB02382FE512073A
:1017A00009F4F6CA08F059C000389FE5190709F492
:1017B00026CB0138EFE51E0709F41DCB033F2CE5CE
:1017C0001207A1F406E221EE40EE63EF7CE50AC0C9
:1017D000073DFCE51F0709F012CB06E221EE41EEC2
:1017E00067ED7CE5C6010E94801BF2C9043F8CE5D1
:1017F0001807A0F4083D9CE5190731F407E225EE2F
:1018000045EE68ED7CE5EECF093DECE51E0701F7FE
:1018100008E221E045EE69ED7CE5E4CF053F2CE5EB
:10182000120731F406E221EE42EE65EF7CE5DACFF5
:10183000053F8CE5180730F407E225EE44EE64EF2F
:101840007CE5D0CF063F9CE5190709F0D8CA07E22E
:1018500025EE46EE66EF7CE5C5CF0338FFE51F07B2
:1018600049F4F6018281882309F4C9CA82E0809391
:101870009B0114C004382FE5120709F4A1CA9ECFBA
:1018800069E285CC8DE2E816F10409F461CA9DE2B3
:10189000E91692E0F90609F073CA5ACAF601928174
:1018A000B3CA0F900F900F900F90DF91CF911F91BF
:1018B0000F91FF90EF90DF90CF90BF90AF909F90EF
:1018C0008F900895CF93DF93CDB7DEB7E4970FB62F
:1018D000F894DEBF0FBECDBF84B7877F84BF0FB63D
:1018E000F894A895809160008861809360001092C0
:1018F00060000FBE90E080E80FB6F894809361001E
:10190000909361000FBE85B7806885BF85B78068FA
:1019100085BF84E994E290939701809396010E9499
:101920006F1D0E949B160E94BA168091E20084608F
:101930008093E20078948091D7018823A1F01091E0
:10194000E9001F709091EC00892F817090FD80E874
:10195000182B1092E9008091E80083FD0E94791312
:101960001F701093E90082E084BD93E095BD9AEF6B
:1019700097BD80936E000E94F51D811102C00E94E8
:10198000E61D03E211E099E2E92E91E0F92EF8015B
:1019900081918F018F3F11F00E94D924E016F1064A
:1019A000B1F709E211E081E3E82E81E0F82EF801B9
:1019B00081918F018F3F11F00E94D924E016F1062A
:1019C000B1F7EFE9F1E085EA91E0A4EBB1E0119223
:1019D0001D928E179F07D9F70E947427811102C0AC
:1019E0000E947F2782E090E00E945B2F8093A901F4
:1019F0000E94632790939E0180939D010E94F02492
:101A00008FE39CE90197F1F700C000000E94F024E9
:101A10008091B40180FF08C06FEF7FEF80E090E01D
:101A20000E948D2F0E94D31883E090E00E945B2FCC
:101A30000E94CA228091A501811133C00E9474279F
:101A4000811104C00E947F270E944D2D88E090E004
:101A50000E94632F6093E4017093E5018093E60197
:101A60009093E7016E7F71F40E944D2D88E090E025
:101A70000E94632F6093E4017093E5018093E60177
:101A80009093E7010E94FF2C1092E0018091E40105
:101A900080FF04C060E086950E94F42E81E0809370
:101AA000A50181E091E090936903809368031AEBAC
:101AB000212E11E0312E8E010F5F1F4F8091D70133
:101AC000853009F075C0DD24D394A0E1EA2EB2E19F
:101AD000FB2E8091D701853009F055C08091D70148
:101AE000843009F440C01092E0018091A701811177
:101AF00016C0D092A7018091E401982F9170909325
:101B0000A6018E7F8093E4019FEFE0E7F2E0915021
:101B1000E040F040E1F700C000000E942A1E109251
:101B20006C0328E130E080E40FB6F894A895209388
:101B300060000FBE8093600083B7817F846083BFA5
:101B400083B7816083BF7894889583B78E7F83BF86
:101B50000FB6F894A895809160008861809360002A
:101B6000109260000FBE8091CD01882309F4B1CF9F
:101B70000E94F024E4EBF1E081918111DAC42E1689
:101B80003F06D1F7A6CF0E94CE220E94191A1092CA
:101B9000A7018091A601882349F08091E40181602A
:101BA0008093E40160E086950E94F42E0E94141E4A
:101BB0000E94F024882359F08FB7F8944091BA011D
:101BC0005091BB016091BC017091BD018FBFAAEA29
:101BD000B1E0E4EBF1E0E12CF12C3E2D21919D915F
:101BE000922721F180E0DD24D394492F4D21D1F0BB
:101BF0008BA73CA72D2181E009F480E08DA70E94EE
:101C00002C198160782F9FA78EA74BA55CA56DA589
:101C10008FA50E943E2AF701E655FE4F8081D82607
:101C2000D0821BC08F5FDD0C8830F9F69FEFE91A78
:101C3000F90A26E0E216F10481F68FEF88AB89AB52
:101C40001AAA0E942C198160782F9CAB8BAB48A9F3
:101C500059A96AA98CA90E943E2A8091E001882393
:101C600009F498C08091DF01E091E401E695E81B5A
:101C7000E093DB01823059F4F0E0E95CFE4FE4913F
:101C8000EE2EF12CF9E8CF2EF9E1DF2E5EC0863082
:101C900059F4F0E0EC5CFE4FE491EE2EF12CE9E714
:101CA000CE2EE9E1DE2E51C0893061F4E695F0E0F8
:101CB000EF5CFE4FE491EE2EF12C7AEEC72E7FE121
:101CC000D72E43C08F3061F4E695F0E0E25DFE4F21
:101CD000E491EE2EF12C6AE7C62E6FE1D62E35C0C8
:101CE000853159F4F0E0E55DFE4FE491EE2EF12CE4
:101CF00059E2C52E5FE1D52E28C08831B1F083327C
:101D000049F4E9E2F1E0E590F49049E3C42E49E1B9
:101D1000D42E1BC0843289F020EDE22E27E0F22E73
:101D200038E3C32E39E1D32E10C088E2E82EF12C1F
:101D30009DE9C92E9EE1D92E08C0A4EFEA2EFF240A
:101D4000F394B0E6CB2EBEE1DB2E8091DC0188233C
:101D500061F01092DC010E942C199093DA018093BB
:101D6000D9011092DE011092DD010E942C19E09140
:101D7000D901F091DA018E1B9F0B8F3F9F4750F4E2
:101D8000EE0EFF1EF092DA01E092D90189ED91E0AA
:101D9000F60109950E94191A9091A801891721F05E
:101DA0000E94191A8093A8018091D701843009F00C
:101DB00085CE83E08093E9008091E80082FF7ECEAB
:101DC0008091E80085FF24C00E94F01781111EC099
:101DD000F0E2CF2ED12C9E012F5F3F4F790109C039
:101DE0008091F100F70181937F01F1E0CF1AD108D2
:101DF00069F08091E80085FDF3CF8091E8008B7752
:101E00008093E8000E94F017882399F391E001C0C5
:101E100090E08091E8008B778093E800992309F4A3
:101E20004DCEE090B902F090BA028981E114F1043C
:101E300061F08E3F09F079C38A81833008F437C29C
:101E40008550833008F071C332C28B3009F419C257
:101E500080F5853009F48BC0B0F4823009F445C0B8
:101E600030F4813009F05FC31A8289E0FDC283300B
:101E700009F46CC0843009F056C34C816B818A81AF
:101E80000E942E1D72C0873009F47FC008F47AC00A
:101E9000883009F4BCC0893009F045C36091E40181
:101EA0007091E5018091E6019091E7010E94192D62
:101EB0003CC3803109F429C160F48D3009F4C9C0F4
:101EC00008F4C5C08E3009F4C8C08F3009F4EFC0E3
:101ED0002AC3823109F41EC108F41AC1833109F4FE
:101EE00042C18E3F09F4E3C11EC38A81823009F4E6
:101EF00036C3833089F0813009F015C32FB7F894C9
:101F00008091BA019091BB01A091BC01B091BD013B
:101F10002FBFBB83AC8329C08091B7029091B802D8
:101F2000892B09F402C38091B4018B838091B501A0
:101F30008C838091B6018D838091B7018E838091CF
:101F4000B8018F838091B9018887EFC28A8182307E
:101F500009F0E9C26B817C818D819E810E940930EC
:101F600086E290E00E946F2FE0C29D83FFC22D8128
:101F70003E813227232732274C816B818A810E9440
:101F80006B1CD3C20E94A11CD0C28A818138B1F0DF
:101F900050F4803809F0C9C220E04B816091E6011D
:101FA0008091E50131C0823859F1833809F0BDC212
:101FB00020E04091E7016C818B8126C060E08B813D
:101FC0000E94F42E9B818091E401911111C08E7FBB
:101FD0008093E4011092E0012FEF30E782E021507E
:101FE00030408040E1F700C000000E942A1E9DC2E0
:101FF00081608093E40160E086950E94F42E95C292
:102000008B818093E80191C20E94102E8EC28A813A
:10201000813891F030F4803809F087C28091E7016F
:1020200023C2823889F0833809F07FC28091E501AC
:102030008B838091E601ABC18091E40180FF02C0F7
:10204000869512C280E010C28091E8010DC280E145
:1020500027C281E08A838DE607C2EA80FB80FE24E6
:10206000EF24FE24AC80B12C9DE1A916B10408F048
:102070005CC26801C7018D569D4F9601201B310B34
:102080002A153B0508F051C2EDE6EE16E1E0FE062A
:1020900028F40E945B2FF601848302C0F6011482AB
:1020A000FFEFEF1AFF0A2FEFC21AD20AE3CF809197
:1020B000B7029091B802892B09F437C2EA80FB80FD
:1020C000FE24EF24FE24CC80D12C3DE1C316D104A4
:1020D00008F02BC25801C7018D569D4F9501201B5A
:1020E000310B2C153D0508F020C2EDE6EE16E1E0BF
:1020F000FE0620F4F50164810E946F2FFFEFEF1AB6
:10210000FF0A2FEFA21AB20AE6CF0E94F31B0DC2FC
:1021100085E0C6C1EA80FB80FE24EF24FE24AC806B
:10212000B12C3DE1A316B10408F0FFC16801C7015D
:1021300087969601201B310B2A153B0508F0F5C147
:10214000E0EEEE16E1E0FE0628F40E945B2FF601B9
:10215000848302C0F6011482FFEFEF1AFF0A2FEF0B
:10216000C21AD20AE4CFEA80FB80FE24EF24FE24C8
:10217000AC80B12C3DE1A316B10408F0D6C180EECD
:10218000E81681E0F80608F0D0C180EE91E08E19E3
:102190009F098A159B0508F4C8C1370197E2690EAB
:1021A000711C8091B7029091B802892B11F06801DF
:1021B0005FC0E0FE0FC0C70186960E945B2F90E0D3
:1021C000982F88272D81822B81159C4531F48FEF24
:1021D0008D8303C0C12CD12C03C0CC24C394D12C3B
:1021E000C5018E0D9F1D450180FF1BC0F1E08F1AB8
:1021F000910855E0452E512C4C0E5D1E480C591C83
:10220000C3018A0D9B1D0E945B2FF201208130E0EB
:10221000322F2227282B21153C4519F48FEFF2018C
:102220008083F801EC0DFD1D2FEFCF01801B910B7A
:102230008815990508F0BBCF848190E0982F8827F6
:102240003581832B81159C4511F424832583329697
:10225000ECCFE0EEEE16E1E0FE0620F4F60164813C
:102260000E946F2FFFEFEF1AFF0A2FEFC21AD20A58
:10227000C70187969601201B310B2A153B0548F3B1
:1022800054C18091B7029091B802892B09F44DC1D5
:10229000C8010E944F183FEF81EE94E0315080401A
:1022A0009040E1F700C000000E94D3183EC1EA81CF
:1022B0008E2F90E08E30910508F037C1FC01E35974
:1022C000FF4F0C94033088E0EBE1F1E0DE019196E2
:1022D00001900D928A95E1F780E2F80111928A95BA
:1022E000E9F784E0898388E0FE01B196DE01159666
:1022F000F6C088E8898382E08A831B821C8215C12C
:102300008C8190E0982F88272B81820F911D092EB8
:10231000000CAA0BBB0B35E0880F991FAA1FBB1F2F
:102320003A95D1F7AC01BD01405E5F4F6F4F7F4FD3
:10233000481759076A077B0708F4F7C08838F2E0A6
:102340009F07A105B10508F0F0C0493822E0520707
:102350006105710520F048E852E060E070E0481B3C
:10236000590BBC01655C7E4FC8010E94422FDDC045
:10237000FB80EC8040E06E2D8F2D0E943B1C9983EA
:102380008A8341E06E2D8F2D0E943B1C9B838C83A2
:10239000CCC02E813F813227232732274D816C818B
:1023A0008B810E94031CC1C040E250E06FEF70E0DF
:1023B000C8010E9467308091B7028983EA821B823C
:1023C0001C821D8281E0D2C081E090E09093BA022D
:1023D0008093B90282E390E09093B3018093B201BD
:1023E0000E942C199093B1018093B0019EC0EF28F8
:1023F00099F1F090B401F1FA882780F9F8228091E0
:10240000B0019091B1010E941D1985369105F0F03F
:10241000FF20E1F00E942C199093B1018093B0014C
:102420008091B2019091B30101979093B301809391
:10243000B201892B89F41092BA021092B90281E09C
:1024400090E09093B8028093B70206C082E390E0D8
:102450009093B3018093B2018091B70289838091F8
:10246000B9028A838091B2018B835FC01092B80257
:102470001092B7025AC040E250E06FEF70E0C8011E
:102480000E94673052C08B81833061F0843061F1EB
:1024900081114BC080E2F80111928A95E9F788E03A
:1024A0008A8343C06C81CE0181962AE0FC0111929F
:1024B0002A95E9F7683060F4FAE06F9FB0011124C3
:1024C0006D5B7D4F4AE050E00E944B2F80E001C0E1
:1024D0008FEF89838AE0FE01B196DE0112960190AA
:1024E0000D928A95E1F721C06C818AE0FE01359654
:1024F000DE01919601900D928A95E1F7683070F4B3
:102500002AE0629FB00111246D5B7D4F4AE050E0EC
:10251000CE0181960E94932F80E001C08FEF8983C6
:102520000E946F1D02C08FEF8983C8010E944F185F
:10253000C5CAE9BCF9BC09B400FEFDCF8091D80042
:102540008F7D8093D8008091E00082608093E000CE
:102550008091E00081FDFCCF0E94CE22BACA86E2C3
:1025600090E00E945B2F1B821C821D828E83DDCF38
:102570008091CF0187FF11C08091E80082FD05C0E6
:102580008091D7018111F8CF11C08091E8008B773D
:102590000BC08091D701882349F08091E80080FF2B
:1025A000F8CF8091E8008E778093E8000895982F07
:1025B000973068F59093E900981739F07091EC0026
:1025C0002091ED005091F00003C0242F762F50E0B1
:1025D00021FD02C09F5FECCF3091EB003E7F309336
:1025E000EB003091ED003D7F3093ED003091EB003A
:1025F00031603093EB007093EC002093ED0050932A
:10260000F0002091EE0027FDE5CF80E008958F7067
:102610008093E90081E008952091D5013091D601A1
:102620002617370748F06115710539F42091E80045
:102630002E772093E80001C0B901FC0120E061156C
:10264000710579F18091D7018823F1F18530F1F19D
:102650008091E80083FD3CC08091E80082FD2EC09F
:102660008091E80080FFEBCF2091F3008091F20091
:1026700090E0922B6115710551F08830910538F486
:1026800021912093F100615071090196F3CF21E06F
:10269000089709F020E08091E8008E778093E800A9
:1026A000CECF2111CFCF0AC08091D701882361F00E
:1026B000853061F08091E80083FD0AC08091E800D8
:1026C00082FFF2CF80E0089582E0089583E00895CC
:1026D00081E0089508958091C30108958091D80103
:1026E000982F9670963011F4886001C0877F0C9403
:1026F000AF221F93CF93DF93CDB7DEB7AA970FB664
:10270000F894DEBF0FBECDBFEFECF1E08091F10099
:10271000819341E0E73DF407C9F78091D001833010
:1027200009F462C030F4813071F0823009F49CC049
:10273000B3C08A3009F488C08B3009F46DC0893089
:1027400009F0AAC020C08091CF01813A09F0A4C04D
:102750008091E800877F8093E8008091D301909179
:10276000D401892B21F468E084EC91E003C060E09F
:1027700080E090E070E00E940C138091E8008B777D
:102780008093E80089C08091CF01813209F084C034
:102790008091D3019091D401009719F0029709F02C
:1027A0007BC08091E800877F8093E8008091E800FB
:1027B00082FD05C08091D7018111F8CF6DC02091B5
:1027C000F3008091F20090E0922B029729F480911F
:1027D000F1008B7F813021F48091F1008093C3015F
:1027E0008091E8008B7754C08091CF01813A09F045
:1027F00053C08091D3019091D401892B09F04CC032
:102800008091E800877F8093E8008091E80080FF56
:10281000FCCF80910B0137C08091CF018132E1F56F
:102820008091D3019091D401892BB1F58091E8007A
:10283000877F8093E8000E94B8128091D101809335
:102840000B010E94CE2228C08091CF01813221F558
:102850008091E800877F8093E8000E94B812809101
:10286000D2018093C20118C08091CF01813AA1F4B6
:102870008091E800877F8093E8008091E80080FFE6
:10288000FCCF8091C2018093F1008091E8008E77A7
:102890008093E8000E94B8128091E80083FFE9C1AC
:1028A0008091CF019091D001492F50E04A305105DD
:1028B00008F0DFC1FA01E558FF4F0C94033080386F
:1028C00021F0823809F0D5C108C08091CC019091E7
:1028D000CD01992389F082600FC08091D3018F7060
:1028E000873008F0C6C18093E9008091EB0085FB3A
:1028F000882780F91092E9009091E800977F9093E3
:10290000E8008093F1001092F1007CC1282F2D7F08
:1029100009F0AFC1882319F0823061F0AAC180911B
:10292000D101813009F0A5C1933009F080E0809396
:10293000CD012EC08091D10181112AC08091D30197
:102940008F702FEF280F263008F093C18093E90095
:102950002091EB0020FF1CC0933021F48091EB000C
:10296000806214C09091EB0090619093EB0021E0A5
:1029700030E0A90102C0440F551F8A95E2F7409349
:10298000EA001092EA008091EB0088608093EB00EF
:102990001092E9008091E800877F8093E8000E9410
:1029A000B81267C1811165C11091D1011F77809163
:1029B000E3008078812B8093E3008091E800877F9B
:1029C0008093E8000E94B8128091E80080FFFCCF5D
:1029D0008091E30080688093E300111102C082E0DF
:1029E00001C083E08093D70144C18058823008F051
:1029F00040C12091D1013091D2012C3D53E03507E7
:102A000079F583E08A838AE289834FB7F894DE01FF
:102A1000139620E03EE051E2E32FF0E050935700A0
:102A2000E49120FF03C0E295EF703F5FEF708E2FBF
:102A300090E0EA3010F0C79601C0C0968D939D9348
:102A40002F5F243149F74FBF8091E800877F809343
:102A5000E8006AE270E0CE0101960E940C13C0C04B
:102A60008091D3019091D401432F552743305105D4
:102A7000B1F068F44130510509F40AC14230510502
:102A800009F0F7C08BE590E0E7E5F4E057C041328C
:102A9000510589F14232510509F43CC0EAC0C9012F
:102AA000992781309105B9F070F082309105D9F005
:102AB000039709F0DEC0E4ECF4E0E4918E2F90E09F
:102AC000E4ECF4E038C0E2E3F5E0E4918E2F90E02E
:102AD000E2E3F5E030C0E6E1F5E0E4918E2F90E02E
:102AE000E6E1F5E028C0E2EEF4E0E4918E2F90E01C
:102AF000E2EEF4E020C08330910508F0BAC0880F00
:102B0000991FFC01E65CFE4F0190F081E02D89E009
:102B100090E014C08330910508F0ABC0FC01EE0FCB
:102B2000FF1FEC5CFE4F0190F081E02DDC01AF5CFB
:102B3000BE4F8C9190E0009709F49BC02091E80073
:102B4000277F2093E8002091D5013091D6012817E6
:102B5000390708F4C90140E0009789F12091D701B5
:102B6000222309F43DC02530D9F12091E80023FD4E
:102B700037C02091E80022FD2FC02091E80020FFFF
:102B8000EBCF4091F3002091F20030E0342B00971E
:102B900059F02830310540F444914093F1003196CA
:102BA00001972F5F3F4FF3CF41E02830310509F007
:102BB00040E02091E8002E772093E800CDCF41112E
:102BC000CDCF0AC08091D701882351F0853041F0E4
:102BD0008091E80083FD04C08091E80082FFF2CF7D
:102BE0008091E8008B778093E80043C0803809F03B
:102BF00040C08091E800877F8093E8008091CE01FB
:102C00008093F1008091E8008E77C7CE811131C0AA
:102C10008091D1019091D2019927029754F580912A
:102C2000E800877F8093E8001091D1011093CE01D6
:102C30000E94B812111106C08091E30087FD02C006
:102C400081E001C084E08093D70142E061EC81E043
:102C50000E94D71242E261EC84E00E94D71242E265
:102C600061EC82E00E94D71242E260EC83E00E94B5
:102C7000D7128091E80083FF10C08091E800877F21
:102C80008093E8008091EB0080628093EB0005C0A8
:102C900082E190E0E2EBF4E051CFAA960FB6F8940F
:102CA000DEBF0FBECDBFDF91CF911F9108951F9260
:102CB0000F920FB60F9211242F933F934F935F9370
:102CC0006F937F938F939F93AF93BF93CF93DF9334
:102CD000EF93FF93C091E900CF708091EC00D82F63
:102CE000D17080FDD0E81092E9008091F000877FDC
:102CF0008093F00078940E9479131092E9008091FB
:102D0000F00088608093F000CD2BCF70C093E90075
:102D1000FF91EF91DF91CF91BF91AF919F918F91F3
:102D20007F916F915F914F913F912F910F900FBEC7
:102D30000F901F901895E8EDF0E080818E7F8083E2
:102D40001092E2001092DA001092E100A0EEB0E0E2
:102D50008C9181608C9380818F77808319BCA7EDE3
:102D6000B0E08C918E7F8C9380818F7E80831092D7
:102D7000C1010895CF92DF92EF92FF920F931F93BC
:102D8000CF93DF93C8EDD0E088818F7E8883E7ED15
:102D9000F0E080818160808384E082BF81E0809365
:102DA000C10188818E7F888302EE10E0F8011082D5
:102DB0001092DA0081EEC82ED12CF60110828881A3
:102DC0008F77888388818068888388818F7D8883D6
:102DD00019BC1092D7011092CE011092CD01109221
:102DE000CC0190EEE92EF12CF70180818B7F80835E
:102DF00088818160888342E060E080E00E94D71291
:102E0000F60180818E7F8083F801808181608083DC
:102E1000808188608083F70180818E7F80838881B4
:102E200080618883DF91CF911F910F91FF90EF9088
:102E3000DF90CF9008951F920F920FB60F9211243A
:102E40002F933F934F935F936F937F938F939F93B2
:102E5000AF93BF93EF93FF938091E10082FF09C08E
:102E60008091E20082FF05C08091E1008B7F80931A
:102E7000E1008091DA0080FF2AC08091D80080FFB5
:102E800026C08091DA008E7F8093DA008091D9008D
:102E900080FF18C080E189BD82E189BD09B400FED0
:102EA000FDCF81E08093D7018091C10181110FC0D6
:102EB0000E949B160E94BA168091E2008460809363
:102EC000E20005C019BC1092D7011092C101809197
:102ED000E10080FF17C08091E20080FF13C0809165
:102EE000E2008E7F8093E2008091E2008061809317
:102EF000E2008091D80080628093D80019BC85E000
:102F00008093D7018091E10084FF2EC08091E20080
:102F100084FF2AC080E189BD82E189BD09B400FE39
:102F2000FDCF8091D8008F7D8093D8008091E10003
:102F30008F7E8093E1008091E2008F7E8093E2009B
:102F40008091E20081608093E2008091CE0188232D
:102F500011F084E007C08091E30087FD02C081E0AA
:102F600001C083E08093D7018091E10083FF27C0F7
:102F70008091E20083FF23C08091E100877F8093EE
:102F8000E10082E08093D7011092CE018091E100B0
:102F90008E7F8093E1008091E2008E7F8093E2003B
:102FA0008091E20080618093E20042E060E080E096
:102FB0000E94D7128091F00088608093F000FF910A
:102FC000EF91BF91AF919F918F917F916F915F91A1
:102FD0004F913F912F910F900FBE0F901F9018951A
:102FE0002091E4003091E50095E64091EC00842FBB
:102FF000817040FF23C08091E80080FD1DC080915A
:10300000D701882399F0853099F08091EB0085FDF8
:1030100011C04091E4005091E5002417350729F3D1
:10302000915011F09A01E1CF84E0089582E0089573
:1030300083E0089581E0089580E008954091E800DC
:1030400042FFDDCF0895EF92FF920F931F93CF932E
:10305000DF937C018B010E94F017811119C0E701F9
:1030600001151105A1F08091E80085FD0AC080914D
:10307000E8008E778093E8000E94F017882381F3A0
:1030800007C089918093F10001501109E9CF80E0D8
:10309000DF91CF911F910F91FF90EF900895CF9303
:1030A0002091D7012430F9F4C091E900CF7030911C
:1030B000EC00232F217030FD20E8C22B22E020936A
:1030C000E9002091E80020FF0BC040E050E060E202
:1030D00070E00E9423188091E8008E778093E800CA
:1030E000CF70C093E900CF9108959091D7019430AB
:1030F00029F58093BE017093C0016093BF01909346
:10310000E9008FEF9091E800815095FD06C095EDA4
:103110009A95F1F700008111F5CF8091E80085FFC5
:103120000DC040E050E063E070E08EEB91E00E9463
:1031300023188091E8008E778093E8000895BC0101
:1031400084E00C947518BC0183E00C947518CF933F
:10315000DF9321E02093E9002FEF3091E800215028
:1031600035FD06C035ED3A95F1F700002111F5CF98
:103170002091E80025FF14C0EC0140E050E068E039
:1031800070E00E9423188091E8008E778093E80019
:1031900088E0FE01A4ECB1E001900D928A95E1F780
:1031A000DF91CF91089581E08093E00080E28093E9
:1031B000D8001092C9008FE19EE40197F1F700C09A
:1031C000000087E090EBDC018093DF039093E00345
:1031D000A093E103B093E2039CE088E10FB6F8947A
:1031E000A895809360000FBE90936000FFCF789405
:1031F0001F920F920FB60F9211248F939F93AF934C
:10320000BF938091BA019091BB01A091BC01B09194
:10321000BD010196A11DB11D8093BA019093BB0120
:10322000A093BC01B093BD01BF91AF919F918F91CD
:103230000F900FBE0F901F9018959C014FB7F894F8
:103240008091BA019091BB01A091BC01B091BD01E8
:103250004FBF821B930B08952FB7F8948091BA014A
:103260009091BB01A091BC01B091BD012FBF089509
:1032700008950F931F93CF93DF9300D01F92CDB784
:10328000DEB78C018091E30181110AC09E012F5F9E
:103290003F4F40E76FEF0E945D2D8A818093E301ED
:1032A000F8018481813051F028F0823061F440913E
:1032B000E3010AC08091E30140E007C06091E301AF
:1032C00040E080E003C040E080E060E00E94EE2C3F
:1032D000F801848190E0019663E070E00E94CD2FB8
:1032E00084830F900F900F90DF91CF911F910F91DA
:1032F0000895CF93DF93EC01E4EEF1E04381628126
:103300008C810E94F32D8C818F5F8C83DF91CF9114
:103310000895CF93DF93EC01EC81F0E0EA5CFA4F83
:103320004491E4EEF1E0628181810E94F32D8C8171
:103330008F5F8C83DF91CF9108951F920F920FB60C
:103340000F9211248F939F93AF93BF9380916C033F
:10335000811113C08091BA019091BB01A091BC0171
:10336000B091BD014196A11DB11D8093BA0190930A
:10337000BB01A093BC01B093BD01BF91AF919F91E0
:103380008F910F900FBE0F901F9018959C012A5F90
:103390003F4FFC014281461301C012820196821701
:1033A0009307B9F708959C01FC0132969FEF80E0E6
:1033B0004191461789F09F3F19F4411101C0982FA0
:1033C0008F5F8630A9F79F3F39F0F901E90FF11DB2
:1033D00097FDFA9562830895089520916A033091CC
:1033E0006B032817390771F090936B0380936A037E
:1033F000E0916803F0916903309721F00084F18532
:10340000E02D0994089520916603309167032817F1
:10341000390771F09093670380936603E091680326
:10342000F0916903309721F00680F781E02D09942F
:103430000895E0916803F0916903309721F00190BD
:10344000F081E02D099480E00895BC014091620371
:1034500080916303942F981729F1292F30E0F90107
:10346000EE0FFF1FE65AFC4F0190F081E02DE617AA
:10347000F70799F487E0869FF001879FF00D1124EC
:10348000EE5DFC4F81E0848394130CC02F5F3F4FAF
:10349000237033272093620308952F5F3F4F922FAD
:1034A0009370D9CF08950F931F93CF93DF9380919B
:1034B000C102882309F451C0C091C0021CE0809170
:1034C000C102C81708F045C001E00C0F0093C0020C
:1034D000D0E01C9FF0011D9FF00D1124EE53FD4F15
:1034E0009081818123813481232B31F08F3F31F40E
:1034F00081E09F3F19F403C081E001C080E080FDBE
:1035000026C01C9FD0011D9FB00D1124AE53BD4F8E
:1035100016968D919C911797892B31F418968D9161
:103520009C911997019651F42081318142815381F8
:1035300064817581868197810E94D9221C9FF00148
:103540001D9FF00D1124EE53FD4F14821382C02FE6
:10355000B6CF1092C1021092C002DF91CF911F919D
:103560000F9108951092BF021092BE02E2E2F3E0C2
:103570008581811102C014821682379683E0EA3574
:10358000F807B1F708951092650310926403109242
:103590001A0180916303809362030E94B21A0C9413
:1035A000531A3F924F925F926F927F928F929F92A7
:1035B000AF92BF92CF92DF92EF92FF920F931F9341
:1035C000CF93DF93C091620397E0892E01E010E072
:1035D0002CE0322E3EEF932E4424439480916303DB
:1035E000C81709F478C0D0E0FE01EE0FFF1FE65ABD
:1035F000FC4F80819181889ED001899EB00D11245D
:10360000AE5DBC4F14962C911497211161C050905F
:10361000C102E2ECF2E020E030E0712C5D01251502
:1036200008F054C0E284F384D501CD90DC906FEFB4
:103630007FEF612C462D50E0DA01AA0FBB1FAC0DC5
:10364000BD1D0D90BC91A02D109731F0EA16FB0620
:1036500009F4BA016394EECF6F3FBFEF7B0791F19E
:10366000D80102C0AA0FBB1F6A95E2F77A2AB801F7
:1036700002C0660F771F6A94E2F7AB01415051090F
:10368000672D70E046175707D9F4329EF001339E3C
:10369000F00D1124EE53FD4F889ED001899EB00D90
:1036A0001124AE5DBC4F12962D913C911397378338
:1036B0002683908291829187808715964C9206C0CE
:1036C000148213822F5F3F4F3C96A9CF0E94251A88
:1036D0002196C37083CF0E94531ADF91CF911F911F
:1036E0000F91FF90EF90DF90CF90BF90AF909F90A1
:1036F0008F907F906F905F904F903F900C94B21A94
:103700000F931F93CF93DF93C42FD22FFC0182819D
:103710008823C9F04093BD020E942C199093BC02EB
:103720008093BB0280E28C0F883008F057C0C770CE
:1037300081E001C0880FCA95EAF7DF91CF911F9110
:103740000F910C947B238091BD02481330C080916F
:10375000BB029091BC020E941D19883C910538F56E
:1037600010E21D0FCD17B9F080E28C0F883040F4C5
:10377000C77081E001C0880FCA95EAF70E947423E0
:10378000183028F581E09D2F977001C0880F9A9519
:10379000EAF70E947B23802F0E9478241830F0F4EF
:1037A000D77081E001C0880FDA95EAF70AC080E29D
:1037B0008C0F883098F4C77081E001C0880FCA95DB
:1037C000EAF7DF91CF911F910F910C947423802F12
:1037D000DF91CF911F910F910C947824DF91CF91BD
:1037E0001F910F910895CF93DF93C3E9D2E060E07A
:1037F000CE010E946F2F2196C11584E0D807B9F73A
:10380000DF91CF9108950F931F93CF93DF9385306E
:1038100068F5633058F5423048F521159CE53907C5
:1038200031F4E091B702F091B802EF2BF9F0890181
:10383000282F34E0639FC00111243CE0239F800DBA
:10384000911D1124840F911D840F911DEC01C95FFE
:10385000DD4F612FCE010E946F2F602FCE010196A8
:10386000DF91CF911F910F910C946F2FDF91CF912A
:103870001F910F9108950F931F93CF93DF9385307E
:1038800018F5633008F54230F8F4282F34E0639FD0
:10389000C00111243CE0239F800D911D1124840F51
:1038A000911D840F911DEC01C95FDD4FCE010E9477
:1038B0005B2F90E0182F0027CE0101960E945B2F0E
:1038C0009801282BC90102C080E090E0DF91CF91E0
:1038D0001F910F9108950F931F93CF93DF9385301E
:1038E00058F5663048F5483038F521159CE539071C
:1038F00031F4E091B702F091B802EF2BE9F08901C1
:10390000C42FD0E0CC0FDD1F90E1699FC00DD11D09
:10391000112490E6899FC00DD11D1124612FCE0185
:1039200087960E946F2F602FCE018896DF91CF91EE
:103930001F910F910C946F2FDF91CF911F910F91D9
:1039400008956F927F928F929F92AF92BF92CF9283
:10395000DF92EF92FF920F931F93CF93DF93CDB738
:10396000DEB72A970FB6F894DEBF0FBECDBFA0908A
:10397000B702B090B80281E090E09093B8028093D3
:10398000B702C12CD12C712C612CE12CF12C00E060
:1039900010E047018C0C9D1CF401E00FF11FEE0FAD
:1039A000FF1FEA5CF94F25913491402F662D872D3A
:1039B0000E946B1C0F5F1F4F0830110569F788E0EC
:1039C000E80EF11C639496E06912E1CF10E021E06B
:1039D00030E040E0612F872D0E94031C21E030E0A1
:1039E00041E0612F872D0E94031C1F5F133079F780
:1039F0007394E0E3CE0ED11CF5E07F12C5CFCE016B
:103A000001967C018AE0F70111928A95E9F703E4B7
:103A100012E04AE050E0B801C7010E94932F065F10
:103A20001F4F0339F2E01F07A1F7B092B802A0922E
:103A3000B7022A960FB6F894DEBF0FBECDBFDF9156
:103A4000CF911F910F91FF90EF90DF90CF90BF909B
:103A5000AF909F908F907F906F9008950F931F93DA
:103A6000CF93DF93853008F56630F8F44830E8F4FA
:103A7000C42FD0E0CC0FDD1F20E1629FC00DD11D0F
:103A8000112430E6839FC00DD11D1124CE018796ED
:103A90000E945B2F90E0182F0027CE0188960E948D
:103AA0005B2F9801282BC90102C080E090E0DF91D4
:103AB000CF911F910F910895462F2091B902309117
:103AC000BA02232B49F4853038F4763028F4683074
:103AD00018F4672F0C942E1D80E090E00895CF928B
:103AE000DF92EF92FF920F931F93CF93DF93CDB7A7
:103AF000DEB72A970FB6F894DEBF0FBECDBF80E5C4
:103B0000E7E6F2E0DF011D928A95E9F788E3E2E259
:103B1000F3E0DF011D928A95E9F787E6C82E82E07F
:103B2000D82E7F0103E412E0F701D182C0824AE07F
:103B300050E0B801CE0101960E944B2F88E0FE01B3
:103B40003196D60101900D928A95E1F789859A8583
:103B5000D70113969C938E931297BAE0CB0ED11C8B
:103B6000E7E0EE0EF11C065F1F4F0339F2E01F077E
:103B7000D9F62A960FB6F894DEBF0FBECDBFDF91FF
:103B8000CF911F910F91FF90EF90DF90CF9008950C
:103B9000CF93C82F811102C06FEF01C069E583E2A6
:103BA00090E00E946F2FC11102C06FEF01C068E06A
:103BB00084E290E00E946F2FC11102C06FEF01C03C
:103BC00069E385E290E0CF910C946F2F80E00E9432
:103BD000C81D60E086E290E00E946F2F0E94A11C49
:103BE0000E94F31B81E00C94C81D83E290E00E94C8
:103BF0005B2F893581F484E290E00E945B2F88304E
:103C000051F485E290E00E945B2F91E0893309F046
:103C100090E0892F01C080E081700895882311F021
:103C2000FA0101C0FB0109946091E401669570E01E
:103C30004BE050E08CE091E00E944D30892B19F46C
:103C400081E08093E0010E942C199093DA01809327
:103C5000D90108958091E40180FF0AC0539A8BB185
:103C6000877F9BB198602FB7F894E9EEF1E00BC025
:103C7000E9EEF1E0118210821282339632E0E736EB
:103C8000F307C1F7EBCF32E0E736F30789F0319164
:103C900048E09BB9000000C037FF8BB9330F00002C
:103CA00000C000C000C08BB900C04A9591F7EBCFAF
:103CB0002FBF8FE594E00197F1F700C00000089551
:103CC000EF92FF920F931F93CF93DF938C01C9EE76
:103CD000D1E0E12CF12CF8018481F5E1EF16F1043B
:103CE0001CF4882351F002C0811107C04091E70104
:103CF000413708F040E79E0102C09E0140E060911C
:103D0000E6018091E5010E945D2D8FEFE81AF80A27
:103D100023969AE2E916F104F1F60E942A1EF801B0
:103D2000848190E00196817099278483DF91CF91FF
:103D30001F910F91FF90EF9008958F929F92AF92F5
:103D4000BF92CF92DF92EF92FF920F931F93CF9388
:103D5000DF93EC014C81042F10E09801D8010E9400
:103D600018309B01AC010E942E306B017C01E0E217
:103D7000F0E0E01BF10BA5E5B0E09B01AC010E9477
:103D80002E304B015C019F01DF010E9410309B012E
:103D9000AC010E9439309B01AC012C0D3D1D4E1D24
:103DA0005F1DC501B4010E94E12F822FF22E99E21E
:103DB000921728F093E0299F900111240DC025E56A
:103DC00030E0281B3109C901880F991F280F391FBE
:103DD00037FF02C02F5F3F4F35952795122F109563
:103DE00099EEC92E91E0D92E00E085E5E82EEF1876
:103DF00001FD02C08E2D01C08F2D412F113708F01B
:103E000040E796016091E6010E945D2D0F5F83E01F
:103E1000C80ED11C0A3261F70E942A1E8C818111C2
:103E200002C091E003C0803219F49FEF9093190112
:103E300090911901890F8C83DF91CF911F910F9180
:103E4000FF90EF90DF90CF90BF90AF909F908F90BA
:103E500008950F931F93CF93DF93C9EED1E0FE0136
:103E6000118210821282339682E0E736F807C1F79A
:103E700000E010E08091E201082E000C990B081779
:103E80001907ACF080911801082E000C990B8017CF
:103E900091076CF04091E701413708F040E79E013F
:103EA0006091E6018091E5010E945D2D03C01982B9
:103EB00018821A820F5F1F4F23960A321105D1F61E
:103EC0000E942A1E809117019091E201980F909311
:103ED000E20120911801280F20931801121614F402
:103EE00099321CF0819580931701DF91CF911F913A
:103EF0000F910895BF92CF92DF92EF92FF920F93AE
:103F00001F93CF93DF93FC01828180FF03C0DD24E8
:103F1000DA9402C0DD24D39409EE11E0C0E0D0E0D1
:103F20002AE2B22EF80111821082128294E0E92E68
:103F3000F12CC12C8091E1018C0D8B322CF06B2D7A
:103F40000E94AB2F892F02C087FD865D082E000CD2
:103F5000990BC817D907A9F48091E7018E9DA0019C
:103F60008F9D500D1124559547955595479541378F
:103F700008F040E798016091E6018091E5010E9418
:103F80005D2DCD0CF1E0EF1AF108A1F621960D5F41
:103F90001F4FCA32D10531F60E942A1E8091E101DD
:103FA00091E0D91206C0811102C089E207C0815098
:103FB00005C090E00196BE010E94CD2F8093E101E3
:103FC000DF91CF911F910F91FF90EF90DF90CF90F5
:103FD000BF900895EF92FF921F93CF93DF93EC0170
:103FE00089EEE82E81E0F82E10E04091E70141379C
:103FF00008F040E78C8197016091E601810F0E94F3
:104000005D2D1A5F83E0E80EF11C1C3F71F70E94E2
:104010002A1E9A818C8190FF02C08F5F01C081505F
:104020008C83DF91CF911F91FF90EF90089580E0F6
:1040300090E00E94031A80E090E00E94ED19109237
:10404000D6031092D5030C940F28CF92DF92FF92E3
:104050000F931F93CF93DF936C010091D801809150
:10406000DB03082BC7E0D0E010E0C8010C2E02C033
:10407000959587950A94E2F780FD04C02197A8F7EB
:10408000F12C09C0FC2EB6018C2F0E945C1D0E94F1
:10409000DA25019799F38F2DDF91CF911F910F9121
:1040A000FF90DF90CF900895CF93DF93EC010E94B3
:1040B0002520BE010E945C1D0E94DA25DF91CF9170
:1040C0000895FC0186819781009719F00E94DA25F6
:1040D00004C0808191810E945420292F2F70E92FE4
:1040E000E295EF704E2F50E0FA013297EE30F10575
:1040F000B8F4EB57FF4F0C940330803F99F018F45D
:10410000883E70F40FC0843F59F40CC0883E50F0D4
:10411000813F31F407C0822F869586958695089554
:1041200080E0089581E008959F92AF92BF92CF9270
:10413000DF92EF92FF920F931F93CF93DF93CDB750
:10414000DEB765970FB6F894DEBF0FBECDBF8C010A
:1041500085E0F801DE01519601900D928A95E1F714
:10416000F801E280909187036091880340918A036F
:1041700050918B034115510531F06F3F31F481E0CF
:104180009F3F19F403C081E001C080E0F82FF17077
:104190009F2E80FD37C1F80130812181C380D480FA
:1041A00077E8A72E73E0B72EF0908903F601E41BA1
:1041B000F50BFF2009F4F5C080918C03E83CF10574
:1041C00008F0B0C0482F407F09F05AC062131BC0EE
:1041D000931319C060918D0370918E03F80146818D
:1041E00057816417750779F4FE2CE1100CC08F70AD
:1041F000806180938C03C5010E942F0580918C0300
:10420000F80185833CC1CD2831F02F3F31F481E0A6
:104210003F3F19F403C081E001C080E080FD03C08E
:1042200081E08E2502C080E090E0F82FF170FF2E33
:1042300080FF1CC08091D00340918F03841709F444
:10424000FCC090E0FC0153E0EE0FFF1F5A95E1F730
:10425000E057FC4F5181251306C05081531303C012
:104260005281E51203C001968770E8CFFE2CEE2044
:1042700009F405C180918C03816080938C035EC03A
:10428000621315C0931313C040918D0350918E0398
:10429000F801268137814217530749F4E11007C01E
:1042A0008583C8010E942F0588E0F80190C0C801ED
:1042B0000E946120882381F1EE2071F120918C030E
:1042C000822F82958F7090E00297A4F080918703EF
:1042D000909188039A8789871B86DD86CC862E87F6
:1042E00080918D0390918E03988B8F87CE010996D4
:1042F0000E942F0588E0F801A7E8B3E001900D9235
:104300008A95E1F70E94B0280AC06217C9F0C80177
:104310000E946120811127C0C8010E942F05FF243F
:10432000F394ADC0482F407F81F787E893E00E9467
:104330002F0588E0F50111928A95E9F7F12C9FC0CD
:104340009313E5CF40918D0350918E03F8012681A0
:10435000378142175307D9F6E110D9CF8583C801B9
:104360000E942F0549C0EE20B9F220918C03822FC4
:1043700082958F7090E002970CF4BCCF80918703F8
:10438000909188039A8389831B82DD82CC822E835D
:1043900080918D0390918E0398878F83CE01019633
:1043A000A7CFE83CF10540F5FE2CEE2009F4B4CF90
:1043B000621314C0931312C020918D0330918E03A9
:1043C000F801868197812817390741F488E0A7E82A
:1043D000B3E001900D928A95E1F751C0C8010E94A7
:1043E0006120811187CF80918C03816080938C0341
:1043F000C8010E942F0543C088E0F50111928A95FB
:10440000E9F73DC0EE2009F487CFC8010E94612082
:10441000F82E882309F480CF88E0F801A7E8B3E0FC
:1044200001900D928A95E1F780918703909188031E
:104430000E9454200E94B02822C0398B2A8B89897F
:104440009A890E945420292F22952F70223028F417
:104450009F7039F0811105C00BC0243028F49F7083
:1044600049F4805E883020F0C8010E942F059F2CFF
:10447000F92C05C0F8019581907F99F7F9CF8F2D20
:1044800065960FB6F894DEBF0FBECDBFDF91CF911A
:104490001F910F91FF90EF90DF90CF90BF90AF9062
:1044A0009F9008959E3F61F128E0929F800D112416
:1044B000682F669566956695982F977083E0689F3C
:1044C000B001112440E050E080E0FB01E40FF51F53
:1044D000E359FC4F208130E0092E02C03695279524
:1044E0000A94E2F721703327042E01C0220F0A94A8
:1044F000EAF7822B4F5F5F4F4330510531F7089544
:1045000080E008959E3F51F128E0929F800D112494
:10451000E82FE695E695E695877051E001C0550FC6
:104520008A95EAF783E0E89FF0011124E359FC4FF4
:1045300020E030E070E04081CB01022E02C0969571
:1045400087950A94E2F781708195842785238427D3
:1045500081932F5F3F4F2330310569F70895809392
:10456000D8010C94172021E030E001C0220F8A9579
:10457000EAF720958091D80182230C94AF2221E0A4
:1045800030E001C0220F8A95EAF78091D801822B92
:104590000C94AF228093DB030C9417201092D70366
:1045A00086E0E1E8F3E0DF011D928A95E9F70C94DB
:1045B0001720CF93DF93CDB7DEB760970FB6F8948F
:1045C000DEBF0FBECDBF29873A874B875C876D87DB
:1045D0007E878F87988BCE0109960E949420811147
:1045E00051C088E0FE013996DE01119601900D92CE
:1045F0008A95E1F779856A854C855D854115510578
:1046000031F06F3F31F481E07F3F19F403C081E066
:1046100001C080E080FD36C0A0918F03B0E0CD01E5
:104620000196877099272091D00330E08217930775
:1046300081F179836A835D834C8393E0AA0FBB1F6A
:104640009A95E1F7A057BC4F98E0FE013196019092
:104650000D929A95E1F780938F030E94A62812C0CD
:1046600028E0829FC001112480579C4F0E94942013
:104670008823E1F08091D00390E00196877099271C
:104680008093D0038091D00390918F038913E8CF5A
:104690000DC00E94CE2210928F031092D003E7E843
:1046A000F3E088E0DF011D928A95E9F760960FB686
:1046B000F894DEBF0FBECDBFDF91CF910895882360
:1046C00041F080959091D60389238093D6030C9472
:1046D0000F280895882339F09091D603892B809371
:1046E000D6030C940F280895882321F00E940828EF
:1046F0000C940F280895882339F09091D703892BC3
:104700008093D7030C940F280895882309F453C08D
:10471000682F823869F40E94191A81FF4CC069E33E
:104720008FE793E00E94D3190E940F2869E30EC01F
:10473000833891F40E94191A80FF3DC063E58FE72A
:1047400093E00E94D3190E940F2863E58FE793E05E
:104750000E94C6190C940F28843869F40E94191A13
:1047600082FF29C067E48FE793E00E94D3190E947B
:104770000F2867E4EBCF8CEF860F813A38F380E2A5
:10478000860F883048F4677081E001C0880F6A9511
:10479000EAF70E940828DECF8BE5860F833020F4ED
:1047A00080E090E00C94031A685A673120F480E0AE
:1047B00090E00C94ED190895CF93882309F496C0E6
:1047C000C82F8238B1F40E94191A81FD8FC069E3A5
:1047D0008FE793E00E94D3190E940F282FEF81EEFC
:1047E00094E0215080409040E1F700C0000069E370
:1047F00017C08338E1F40E94191A80FD77C063E581
:104800008FE793E00E94D3190E940F282FEF81EECB
:1048100094E0215080409040E1F700C0000063E543
:104820008FE793E00E94C619CF910C940F2884382B
:10483000B1F40E94191A82FD59C067E48FE793E032
:104840000E94D3190E940F282FEF81EE94E021508F
:1048500080409040E1F700C0000067E4E1CF8CEFBA
:104860008C0F813A80F4E1E8F3E087E893E021914E
:10487000C217A1F18E179F07D1F76C2F8FE793E036
:104880000E94D319D1CF80E28C0F883068F4C770B2
:1048900081E090E001C0880FCA95EAF79091D703B4
:1048A000892B8093D703C0CFEBE5EC0FE33040F4C6
:1048B000F0E0E05CFE4F808190E0CF910C94031A11
:1048C000C85AC73198F4EC2FF0E0EE0FFF1FED5BF4
:1048D000FE4F80819181CF910C94ED196C2F8FE761
:1048E00093E00E94C6190E940F28C7CFCF91089568
:1048F0001F93CF93DF93182F893319F0C9E1D0E0CC
:1049000002C0C0E5D0E0812F0E94DC238FE99FE048
:104910000197F1F700C000002197C1F7812FDF91C7
:10492000CF911F910C94852380E0089590919D0173
:1049300092FF0DC0282F2871283019F4877F8460DA
:1049400006C0282F2471243011F48B7F886093FFD8
:104950000DC0282F2871283119F4877E846106C084
:10496000282F2471243111F48B7E886120919E01BF
:1049700020FF0DC0382F3871383019F4877F8160DF
:1049800006C0382F3171313011F48E7F886021FFDD
:104990000DC0282F2871283119F4877E816106C047
:1049A000282F2171213111F48E7E886194FD877E3C
:1049B0000895F894E82FE295EF70F0E031A1282FE8
:1049C0002F7081E090E001C0880F2A95EAF7982FB8
:1049D0009095932391A392A1892B82A37894089513
:1049E0009F92AF92BF92CF92DF92EF92FF920F937E
:1049F0001F93CF93DF9300D000D000D0CDB7DEB7A8
:104A0000AE014F5F5F4F7A0186E0FA0111928A95FD
:104A1000E9F703E211E05A01CC24C394D12CF80148
:104A200080818F3F09F447C0F894E82FE295EF703A
:104A3000F0E021A18F70A60102C0440F551F8A9596
:104A4000E2F7CA01922F982B91A392A18095892316
:104A500082A3789400C0E9E2F1E020E030E0912CFC
:104A600041914F3FB1F0A42FA295AF70B0E0909666
:104A70008C9190E04F7002C0959587954A95E2F72A
:104A800080FD07C08C2D022E01C0880F0A94EAF722
:104A900001C080E0982A2F5F3F4F2830310501F791
:104AA000F80180818F3F11F00E94D924F0EAFA9535
:104AB000F1F7F50190820F5F1F4FFFEFAF1ABF0AAA
:104AC00041E00932140709F0AACF46E050E0B701EF
:104AD0008FE991E00E945A3011E0009709F410E04C
:104AE000892B89F086E0F701AFE9B1E001900D92E2
:104AF0008A95E1F781E08093DE030E942C19909360
:104B0000DD038093DC038091DE038823A1F0809194
:104B1000DC039091DD030E941D19059760F0EFE919
:104B2000F1E0A4EBB1E081918D9351E0E53AF50716
:104B3000D1F71092DE0380911A01882341F1809110
:104B4000640390916503009711F10E941D19209153
:104B5000BE023091BF0228173907C8F49091620352
:104B600080916303981759F00E94D11A1092BF02E6
:104B70001092BE02109265031092640308C00E9456
:104B8000531A10926503109264030E94B21A812F87
:104B900026960FB6F894DEBF0FBECDBFDF91CF9142
:104BA0001F910F91FF90EF90DF90CF90BF90AF904B
:104BB0009F900895CF93DF938238910569F1B0F407
:104BC0008133910509F46FC048F48932910509F4E5
:104BD00065C08A32910509F46BC08AC0853391059E
:104BE00009F457C089339105B9F082C0833E91051D
:104BF00071F138F4803E9105B1F0823E910511F1DA
:104C000077C0863E9105B9F1873E9105C9F1843E92
:104C1000910509F06DC024C020919D0120FD53C075
:104C200021FD51C065C080919D0180FD46C08091ED
:104C30009E0180FF48C080919D0184FD3FC183EEAD
:104C400090E03EC180919D0182FF3AC0F4CF8091F7
:104C50009D0182FD35C080919E0180FD34C0EBCF67
:104C600080919E0181FF35C080919D0184FD26C108
:104C700087EE90E025C180919D0183FF27C0F4CF8E
:104C800080919D0183FD22C080919E0181FD21C004
:104C9000EBCF80919D0185FD1FC021C080919D01BA
:104CA00085FD1DC019C080919D0186FD1BC01DC0E2
:104CB00080919D0186FD19C015C089E390E000C177
:104CC00082EE90E0FDC080EE90E0FAC086EE90E0CB
:104CD000F7C084EE90E0F4C089E290E0F1C085E393
:104CE00090E0EEC08AE290E0EBC081E390E0E8C0A3
:104CF000811532E5930708F069C0811541E59407F5
:104D000028F0982F8827816F906ADAC0883E910535
:104D100068F5803E910508F0D3C0883A9105B8F453
:104D2000853A910548F0855AE82FF0E0E05CFE4FA7
:104D3000808190E09064C4C08130910509F4BBC0CB
:104D400008F4BCC08430910508F4B8C0B9C08F3BEA
:104D5000910508F0B3C0885AE82FF0E0EE0FFF1F6E
:104D6000ED5BFE4F808191819464AAC0811520E59E
:104D70009207F0F09C0174E0369527957A95E1F75B
:104D8000922F9370482F437021E030E002C0220F31
:104D9000331F4A95E2F73C68392B8F70982F969510
:104DA000969540E2949FC0011124822B932B88C0DA
:104DB000811530E4930718F09F70906A81C09C01C0
:104DC0003A9521153F4108F47BC078C0EC01C1152C
:104DD00086E5D807E8F5C11525E5D20748F08C2F00
:104DE0000E9496248F7190E0982F8827906268C067
:104DF000C11534E5D30728F09C2F8827846F906A6B
:104E00005FC0AE01437055272C2F26952695C115FE
:104E1000D34578F481E090E002C0880F991F4A954D
:104E2000E2F740E2249F90011124822B932B9C688F
:104E300047C081E090E002C0880F991F4A95E2F7D1
:104E400040E2249F90011124822B932B9A6838C052
:104E5000C1152AE5D207F8F4C11539E5D30790F05A
:104E60008C2F8F700E94962494E0D695C7959A95C2
:104E7000E1F7CF70D0E0DC2FCC27D0699E01282B42
:104E8000C9011EC0C11548E5D407C0F09C2F882772
:104E9000806F906A15C0CE0190568115904270F4D3
:104EA0008D2F8F710E949624282F2F71CE01992764
:104EB0009062922B05C081E090E002C080E090E01B
:104EC000DF91CF910895CF9384E090E00E945B2F13
:104ED000C82F82E290E00E945B2F2C2F30E0A901C6
:104EE000582BCA01CF91089580E090E00E94692F6D
:104EF0008A3E9E4F11F40C94F51D80E008956AEEF1
:104F00007EEF80E090E00E948D2F60E082E090E0F4
:104F10000E946F2F60E083E090E00E946F2F10925C
:104F2000DB0360E084E090E00E946F2F60E082E2AB
:104F300090E00E946F2F60E085E090E00E946F2F6C
:104F400060E086E090E00E946F2F6FEF87E090E0D6
:104F50000E946F2F40E050E0BA0188E090E00E948C
:104F6000812F60E08DE090E00E946F2F40E050E0E4
:104F7000BA0188E190E00E94812F60E087E190E033
:104F80000E946F2F40E050E0BA018CE190E00E9457
:104F9000812F60E070E080E290E00E948D2F40E081
:104FA00050E0BA0188E190E00E94812F80E00E94E9
:104FB000C81D0E94E61D40E050E0BA018FE090E07D
:104FC0000E94812F40E050E0BA0183E190E00C9410
:104FD000812F8091DA03882331F01092DA03109246
:104FE000D9031092D8030895CF9390919E0192FD1A
:104FF0000DC09091DA03981749F0C82F0E942C1920
:105000009093D9038093D803C093DA03CF91089586
:1050100080959091D70389238093D7030895909129
:10502000D7038091D603892B9091D503892B809348
:105030007F038091DA03882311F10E942C192091BB
:10504000D8033091D903821B930B8838934110F019
:105050000E94E92790917F038091DA03892B809346
:105060007F03E1E8F3E097E080E0915029F021919F
:105070002223D9F38F5FF9CF81110E94E927E091B4
:105080006803F0916903309731F00280F381E02DDD
:105090008FE793E009940895CF93C0919E01C2FBDE
:1050A000992790F9981781F080FBC2F9C0939E016F
:1050B00060919D0184E090E00E946F2F6C2F82E24E
:1050C00090E0CF910C946F2FCF9108951092D4035C
:1050D0001092D3031092D20308952091D4038095A7
:1050E00082238093D403982F977041F430E0482FA7
:1050F000082E000C550B2417350721F490919E01C2
:1051000092FF07C08595859585950E94B3220C94E2
:105110006628089590919E0192FD10C098E0899FA5
:1051200090011124262B2093D4030E94BF220E94B9
:105130002C199093D3038093D20308950C94BF222B
:105140008091D10381111092D10308958091D003F1
:1051500090918F03891719F08F5F8770FBCF0895A7
:105160001F93CF93DF9380918C0382958F7009F00A
:105170005CC080918903882309F457C08091D003D3
:1051800010918F036091870370918803C0918A0307
:10519000D0918B0391E06F3F09F090E0292F8117A8
:1051A00009F443C0209721F07F3F21F030E003C095
:1051B00031E001C0322F90E030FD34C0FC0133E01B
:1051C000EE0FFF1F3A95E1F7DF01A057BC4F119694
:1051D0003C911197371326C03C91361323C0129689
:1051E0003C91129731111EC013964D915C9114970A
:1051F0004C1B5D0B483C5105A8F480918C038F70CB
:10520000806180938C03EB56FC4F80818F708061AE
:10521000808387E893E00E942F05DF91CF911F9153
:105220000C94A62801968770BACFDF91CF911F9179
:1052300008959C013A9521153F4130F5BC01662740
:105240007270AC01442754709C012227387094FF7F
:105250000FC090FF02C080E101C080E0672B09F021
:105260008062452B09F08064232B79F080680895D3
:10527000892F8170672B09F08260452B09F08460CB
:10528000232B19F08860089580E00895DF92EF9253
:10529000FF920F931F93CF93DF93E82FF0E0EA5B29
:1052A000F74FD490282F26952695269530E0F901C2
:1052B000EA5CF74F0491877010E0082E02C0159544
:1052C00007950A94E2F701701127F901EA5DF74F9B
:1052D000E490F12C082E02C0F594E7940A94E2F7CA
:1052E00091E0E922FF24F901EA5EF74FC491D0E092
:1052F00002C0D595C7958A95E2F7C170DD270115E3
:10530000110519F081EE0E94DC23E114F10419F07B
:1053100086EE0E94DC238D2D0E947824EF2819F060
:1053200086EE0E948523012B19F081EE0E948523D1
:10533000CD2B51F08CE2DF91CF911F910F91FF9017
:10534000EF90DF900C947824DF91CF911F910F9113
:10535000FF90EF90DF900895EF92FF921F93CF930D
:10536000DF93EC011AE08881882309F44AC0813078
:1053700009F043C08981813041F47E0182E0E80E6A
:10538000F11C8A810E94782409C0823049F47E0190
:10539000E2E0EE0EF11C8A810E94DC23E7012FC0BF
:1053A000833041F47E01F2E0EF0EF11C8A810E940D
:1053B0008523F4CF843011F0219621C02A812296D2
:1053C00080E090E030E0205331092A30310558F474
:1053D000189FA001199F500D1124C901840F951F1A
:1053E00021962881EFCF009751F0EFE9FFE0319748
:1053F000F1F700C000000197F6CF0E9446292196E0
:10540000B2CFDF91CF911F91FF90EF9008951F933E
:10541000CF93DF9300D000D01F92CDB7DEB7FC0151
:1054200086819781009709F5CF0125E0DE0111966D
:1054300001900D922A95E1F7FC01228189819A81E0
:10544000222359F0662349F00E942520182F682F47
:1054500089819A810E94822203C00E945222182FC1
:1054600069817A81812F0E945C1D0F900F900F90AF
:105470000F900F90DF91CF911F9108952F923F923F
:105480004F925F926F927F928F929F92AF92BF9254
:10549000CF92DF92EF92FF920F931F93CF93DF9300
:1054A000CDB7DEB76A970FB6F894DEBF0FBECDBF9B
:1054B000498B5A8B6B8B7C8B8D8B61111092D60331
:1054C0008E01075F1F4F88E0F80111928A95E9F776
:1054D00085E0FE017196D80101900D928A95E1F761
:1054E0000E942C192091D2033091D303821B930B7D
:1054F0008838934140F08091D40382FB992790F93A
:1055000081E0892701C080E080FF03C082E00E9423
:105510006D280E942C192091D8033091D903821B49
:10552000930B8838934110F00E94E92799858A856A
:105530002C853D85232B31F08F3F31F481E09F3F57
:1055400019F403C081E001C080E080FDCAC161E0C0
:10555000C8010E94072A6C0187EFC8168CE5D8069F
:1055600039F48B858823B9F081E080931A01B9C1A1
:1055700098EFC9169CE5D90631F48B85882359F03C
:105580000E94C31AAEC1E9EFCE16ECE5DE0619F4AF
:105590008B85811111C002E213E0712CA12CB12C7A
:1055A00088248394912C55245394CE0101969F8B8B
:1055B0008E8BF7E04F2E49C080911A018823A1F20B
:1055C000DFCFC616D70609F097019F5F7901292F13
:1055D00030E0F901EE0FFF1FE40FF51F60817181CC
:1055E0006115710571F7FFEFEF16FF0609F42DC184
:1055F000F8016481611131C020911A01822F8170FC
:105600006B84F80135812681662009F4C6C08823A1
:1056100009F4C3C0332321F1940102C0220F331FC8
:105620009A95E2F721503109F801868190E0281718
:10563000390759F17628FFEFAF1ABF0A095F1F4FEC
:1056400028E0A216B10409F402C1F8014081518199
:10565000EE24EA94FE2C90E0BACF20E030E0CECFEA
:10566000A40101C0440FEA94EAF7242B2683209179
:10567000BE023091BF022233310570F622E330E0E2
:105680003093BF022093BE02C7CF809164039091F4
:105690006503009729F00E941D19C39708F01EC1E9
:1056A00080916203F0916303F88FE0E0F0E0288DD1
:1056B000821709F460C0282F30E0F901EE0FFF1FB8
:1056C000E65AFC4F20803180429CF001439CF00D53
:1056D0001124EE5DFC4FF080E18050E090E040E06E
:1056E000EF2DFE2DE40FF11DE40FF11DA081B1811E
:1056F0001097D1F0F801F081F98FF801F181FA8F5C
:1057000090E0E98DFA8DE90FF11DE90FF11D60813F
:1057100071816115710531F0A617B70709F451E0E1
:105720009F5FEFCF4F5FDCCF5523F9F09417C8F0A0
:10573000429CF001439CF00D1124EE5DFC4F30972C
:10574000B1F054820E171F0709F474CF90916203D1
:1057500089130DC0C9010196837099278093620354
:1057600006C00115110509F0B9C0E0E0F0E0C9017B
:10577000019683709CCF0E171F0709F45BCF90E052
:10578000FC01EE0FFF1FE65AFC4FB182A08201968A
:1057900083709927809363034DCF311112C0A40108
:1057A00002C0440F551F9A95E2F74150510930E06D
:1057B00042175307E9F56623E1F1C5010E94251A56
:1057C00037C0822F90E09C012150310928233923D2
:1057D0000E2C02C0959587950A94E2F7232B31F59C
:1057E00080FF24C0F80182819381892BD9F088E061
:1057F000EE89FF8911928A95E9F78EEF89838A8372
:105800000E942C198160582F9D838C83F80182811E
:1058100093818F83988729813A814B816D817E8125
:105820000E94D922F801158281E003C0817001C075
:1058300080E0940101C0220FEA94EAF72095F80174
:10584000968129232683682EF5CE612CF3CE8B8595
:10585000882381F1772071F10E942C1990936503C0
:10586000809364038091C102883008F044C091E0C5
:10587000980F9093C10298E0FE013996DE011196CF
:1058800001900D929A95E1F7ECE08E9FC0011124F2
:105890008E539D4F28E0FE013196DC0101900D9260
:1058A0002A95E1F72FEF3FEFFC0131872087D38660
:1058B000C28621C09091620380916303981719F00A
:1058C0000E94D11A08C00E94531A109265031092C8
:1058D00064030E94B21A772021F00DC0F8015482AF
:1058E000A9CE29853A854B855C856D857E858F851A
:1058F00098890E94D9226A960FB6F894DEBF0FBE2F
:10590000CDBFDF91CF911F910F91FF90EF90DF906E
:10591000CF90BF90AF909F908F907F906F905F904F
:105920004F903F902F9008950F931F93CF93DF9345
:10593000C0919901D0919A01CE0195558F3F910563
:1059400009F058F48C2FC4FF02C08295807FDF914C
:10595000CF911F910F910C94F4278E01005E1109D5
:10596000CE010830110510F0209729F40E94192962
:105970000E947B2304C00E9419290E946A238C2F55
:105980000E94DC238FE798E321E081509040204083
:10599000E1F700C000008C2F0E948523CE01083063
:1059A000110510F0CD2B41F40E941929DF91CF9100
:1059B0001F910F910C9474230E941929DF91CF91AC
:1059C0001F910F910C945F23109298010E94191A55
:1059D00081FF03C089E30C94782408959091E40139
:1059E00090FF0CC0E9EEF1E081836083428333963F
:1059F00092E0E736F907C1F70C942A1E08958091CA
:105A0000E401282F269530E02115310519F4817025
:105A1000826005C02532310524F08170886480934E
:105A2000E4018091E701813718F080E78093E70176
:105A30000895CF92DF92EF92FF926B017C010E945A
:105A4000FF2CB701A60188E090E0FF90EF90DF9077
:105A5000CF900C94812F8091E801882319F0815018
:105A60008093E8016091E4017091E5018091E60185
:105A70009091E7010C94192D8091E801833018F47E
:105A80008F5F8093E8016091E4017091E50180915E
:105A9000E6019091E7010C94192DE4EEF1E083E02A
:105AA000808311828FEF828380E7838314826081F9
:105AB0007181828193810C94192DAF92BF92CF9204
:105AC000DF92EF92FF920F931F93CF93DF93E82E15
:105AD000F62EE901E42FF0E0611106C0EA53F74F1A
