:100000000C949A040C94E1040C94E1040C94E10423
:100010000C94E1040C94E1040C94E1040C94E104CC
:100020000C94E1040C94E1040C9467210C94A3203B
:100030000C94542C0C94E1040C94E1040C94E10411
:100040000C94E1040C94E1040C94E1040C94E1049C
:100050000C94E1040C94072C0C94E1040C94E1043E
:100060000C94E1040C94E1040C94E1040C94E1047C
:100070000C94E1040C94E1040C94E1040C94E1046C
:100080000C94E1040C94E1040C94E1040C94E1045C
:100090000C94E1040C94E1040C94E1040C94E1044C
:1000A0000C94E1040C94E1040C94E104A90CC50C3B
:1000B000CC0C040D150D200D320D450D8C0D910D40
:1000C000EB0DEB0DEB0D990D2A0E350E600E9D0E0E
:1000D000000F4F0F970F9A0F9F0F4310AC109914FA
:1000E000A414A914AE14B314B814BD14C214C714C4
:1000F000CC14D1145715571590159015E515011608
:10010000281728170E167E168B168B167318731861
:10011000861886187C18861886188618731873181F
:100120008118861886188118AB1ED21E8520D21E13
:1001300085201E1F411F852042205220FD377A58FE
:100140005A000004E6D6B446020021011600000061
:10015000742FE5A3E0084F02425D003D8889C65434
:1001600036C3174FE4F1E112FDEF008EFF6F938766
:10017000B42647FBB729D03483DA2C4E8C1ED4A288
:10018000101D9A2C5F0D89D27368D260BA373DA8D2
:10019000E3D3B6E9EEFE41AA1609B24BAA6CAED77C
:1001A00070B8FA763BEC8103264EA566090D6CD833
:1001B000D0C56F120C1F2C2F45A62CD902C6D3EF29
:1001C0002799A8B6D305CA1B79D5D93064CD05B116
:1001D000B5F4D59847A212AA4FF487737CEAFC4481
:1001E00055D2D8C8DDDFDA8E03AE1FC3581CF59A8E
:1001F0006A15A3597B735423A1A76D285338AE0207
:100200005E943C70377168024E1570AADFBE2F4AAB
:10021000C07C1CB77A36F6796157FB9BF23173AC20
:100220002373E95CC2C319805D7478E5E4BEB5153B
:1002300059B67AB3C3A404C575A6070357AC5FCCFF
:10024000131B702E7E09D51DFCBB6BAC8443348D13
:10025000E7AC17A23E21468A19CA1DA06720D7B86D
:10026000EEA15AC41FDB2E033BCA3DBD426E9A9FCE
:10027000448EEE1DAAB5E377AB10F5F608991BADD9
:100280008079C5DDD6EA545AD188AE8DBA7C26F085
:100290001D2EF86C6F353676A54AE2EC3552EBD25E
:1002A00053DA9B664D2B5F1872E04BC8E96AEDACE0
:1002B00036593A2FCE29CA5A39414FC515EE4099C1
:1002C000121EBFAC561211709A58B84915C16D7400
:1002D000A27FD3BF320FFC6C861484721FF0F8210A
:1002E000F132F2E7A6016C0BE0CE9EB6909FFEA025
:1002F000D9CCB7442B3929BFFDC59E85CA2278DDEC
:10030000106F9A8AFDE24DB70C801555CB2DC5753F
:100310003F22759F85C2A5027ED442EBA5F019E36A
:100320006C87110C85C3DF5DCB9ED9E2C611DE1050
:10033000C245CD01F84DDBE5BDED81BEA62B490ED2
:1003400099912F35EF6FAF165995D77D2CE578072A
:100350004FFACB02B4EA814BD87AD964E04FE181FD
:100360004F636FEAC8E3F2D3137BCFC57421B9CDD5
:10037000AFA2C54CD144C01409EB7A489672720DF5
:10038000D27656AFE41DAC16B25F435F0BDD8A52E6
:10039000CD81F96868AA8418D1FD3FF20000000001
:1003A0000939BD1D5532E18A0001DE04D01000007C
:1003B000AB159324B1C467FB020000000004595A36
:1003C0000000000001000A0002000100030002001A
:1003D00011000300120004001A0005001B000600B3
:1003E0001C0007001D000800200009002E20000549
:1003F000010902A10185020901A1000509190129CC
:10040000051500250195057501810295017503818A
:10041000010501093009311581257F950275088193
:100420000609381581257F950175088106050C0A96
:1004300038021581257F950175088106C0C0050128
:100440000980A101850319012AB700150126B7000B
:10045000950175108100C0050C0901A101850419E1
:10046000012AA002150126A002950175108100C085
:100470000660FF0961A1010962150026FF009520B1
:10048000750881020963150026FF00952075089103
:1004900002C005010906A101050719E029E71500B9
:1004A00025019508750181029501750881010507EF
:1004B000190029FF150026FF009506750881000523
:1004C000081901290595057501910295017503919A
:1004D00001C009025B00030100A0FA090400000149
:1004E00003010100092111010001224000070581DB
:1004F0000308000A09040100020300000009211199
:1005000001000122220007058203200001070503E4
:100510000320000109040200010300000009211169
:100520000100012281000705840320000A12010056
:100530000200000008FEFE3BFF0100010203011C57
:10054000037600690061006C003A006600360034F2
:100550000063003200620033006300000024037374
:10056000006100640065006B006200610072006F52
:10057000007500640069002000660066006B006280
:100580000000001A0373006100640065006B0062E4
:1005900000610072006F00750064006900000004D3
:1005A000030904000101010101010101010202022C
:1005B000020202020202030303030303030304040F
:1005C00004040404040505050505060606060607D9
:1005D0000707070708080808090909090A0A0A0B92
:1005E0000B0B0C0C0C0D0D0D0E0E0E0F0F0F101033
:1005F00011111112121313141415151616171718BA
:100600001819191A1A1B1B1C1D1D1E1E1F20202124
:100610002222232424252626272829292A2B2C2D6B
:100620002D2E2F30313232333435363738393A3B8C
:100630003C3D3E3F404142434445464748494A4C81
:100640004D4E4F50515354555658595A5B5D5E5F4D
:10065000616264656668696B6C6D6F7072737577E3
:10066000787A7B7D7E8082838587888A8C8E8F9145
:10067000939596989A9C9EA0A2A3A5A7A9ABADAF6F
:10068000B1B3B5B7BABCBEC0C2C4C6C9CBCDCFD159
:10069000D4D6D8DBDDDFE2E4E7E9EBEEF0F3F5F802
:1006A000FAFDFF290014001A000800150017001CAD
:1006B0000018000C00120013002A002B0004611621
:1006C00068076409620A000B000D720E740F78331C
:1006D000713400E1001D001B000600190005001127
:1006E000001000360037003800E5000000A80000C8
:1006F0000031002800015102512C004C002B042A2B
:1007000001000001001E021F02200221022202231A
:1007100002240225022602270201000100015301E2
:100720005301530153010001002D022E022F02300C
:100730000201000100390001000100010001000177
:10074000000100010031023402010000000100003C
:10075000000100010001000351010001000100013E
:1007600000000035001E001F002000210022002391
:1007700000240025002600270001004A00500051F7
:100780000052004F002B0001002D002E002F0030E2
:10079000000100010001004E004B000100815F8458
:1007A0005F825F835F010001000100000001000023
:1007B00000010001000351010001000100010001DE
:1007C0000000000100C25CC45CC35C010001003A8F
:1007D000003B003C003D003E0001000100CB5CC539
:1007E0005CC75CC95C01003F00400041004200431F
:1007F0000001000100CC5CC65CC85CCA5C0100441E
:1008000000450001000100005C0100000001000043
:1008100000010001000100010001000100010001D0
:1008200000000001000100010001000100010001C1
:1008300000010001000100010001000100010001B0
:1008400000010001000100010001000100010001A0
:100850000001000100010001000100010001000190
:100860000001000100010001000100000001000082
:100870000001000100010001000100010001000170
:100880000000000000000000000000000000000068
:100890000000000000000000000000000000000058
:1008A000000000000000007E0F00D4FFFFFFC70023
:1008B00000007800000000000000002A2B28000043
:1008C00000000000000000000000000000002900FF
:1008D0000000002C1E3420212224342627252E3609
:1008E0002D3738271E1F2021222324252633333677
:1008F0002E37381F0405060708090A0B0C0D0E0FCA
:10090000101112131415161718191A1B1C1D2F314C
:1009100030232D350405060708090A0B0C0D0E0FB0
:10092000101112131415161718191A1B1C1D2F312C
:1009300030354C0011241FBECFEFDAE0DEBFCDBF53
:1009400004B603FE27C080917F0590918005A09199
:100950008105B09182058730904BA740B04BD1F410
:1009600010927F05109280051092810510928205E9
:1009700014BE84B7877F84BF0FB6F894A895809182
:100980006000886180936000109260000FBEE0E01C
:10099000F8E3099512E0A0E0B1E0E8EBFAE602C066
:1009A00005900D92A432B107D9F725E0A4E2B2E098
:1009B00001C01D92AF37B207E1F70E94E3040C9427
:1009C0005A350C940000CF93DF93CDB7DEB7E49790
:1009D0000FB6F894DEBF0FBECDBF84B7877F84BF4C
:1009E0000FB6F894A89580916000886180936000AC
:1009F000109260000FBE90E080E80FB6F8948093EC
:100A00006100909361000FBE85B7806885BF85B790
:100A1000806885BF84EB96E2909325028093240240
:100A20000E9426300E94E7200E9406218091E20069
:100A300084608093E200789480917A038823A1F007
:100A40001091E9001F709091EC00892F817090FD4A
:100A500080E8182B1092E9008091E80083FD0E9445
:100A6000C51D1F701093E90082E084BD93E095BD21
:100A70009AEF97BD80936E000E945523811102C0AA
:100A80000E9446230EE111E022E2E22E21E0F22E46
:100A9000D8018D918D018F3F11F00E94F926E0164B
:100AA000F106B1F702E211E09EE2E92E91E0F92EA3
:100AB000F80181918F018F3F11F00E94F926E01615
:100AC000F106B1F710922902109228021092460303
:100AD0001092450310922B0210922A0210924803A2
:100AE0001092470310922D0210922C0210924A038A
:100AF0001092490310922F0210922E0210924C0372
:100B000010924B030E94C629811102C00E94D12974
:100B100082E090E00E946D348093BA020E94B52971
:100B200090932702809326020E9410278FE39CE96E
:100B30000197F1F700C000000E9410278091450343
:100B400080FF08C06FEF7FEF80E090E00E94A93443
:100B50000E94E32B83E090E00E946D340E94D71A3C
:100B600010929002E9EAF2E089EB92E02FEF3FEF7A
:100B7000219331938E179F07D9F710923002E9E441
:100B8000F2E089E592E02FEF3FEF219331938E174A
:100B90009F07D9F70E94C629811104C00E94D1295C
:100BA0000E94092446E050E06CE170E08FE793E09A
:100BB0000E945D3480917F038C7F11F40E94092490
:100BC00080E091E0909374058093730580E4282E73
:100BD00080917A03853009F047C000E112E18091ED
:100BE0007A03853009F03CC080917A03843019F192
:100BF00010927705A8E1B0E00FB6F894A895A093FD
:100C000060000FBE2092600083B7817F846083BF45
:100C100083B7816083BF7894889583B78E7F83BFC5
:100C20000FB6F894A8958091600088618093600069
:100C3000109260000FBE80917003882309F4CFCF1B
:100C40000E941027E5E4F3E081919191892B11F046
:100C50000C94F00D2DE433E02E173F07A9F7BFCF1A
:100C60000E94DB1A0E94D02C0E94102781110E9442
:100C70003C2CE5E4F3E0ABEBB2E0C12CD12C8C2CA6
:100C8000A190B1908D919D918A259B25009709F4A3
:100C900057C110E0EE24E394F12C9C012E213F215A
:100CA000232B09F447C11BA78CA6AE20BF2081E0EF
:100CB000A114B10409F480E08DA70E94482C816042
:100CC000782F9FA78EA74BA55CA56DA58FA50E9429
:100CD000A431F601EE0FFF1FE554FD4F8081918195
:100CE000E826F926F182E082AB2889F08CE08C9D21
:100CF000F0018D9DF00D1124E35CFE4FE10FF11D1D
:100D000080818F3F21F0382E9924939401C0912C3B
:100D1000E92CF12C80913002B701680F711D693008
:100D20007105ACF188E090E05C01AE18BF08B70136
:100D30006F5F7F4F605D7D4FA50181E392E00E9470
:100D40004A35B701675F7F4F605D7D4FA50189E33D
:100D500092E00E944A35A501440F551FB701660F66
:100D6000771F675E7F4F605D7D4F89E492E00E9450
:100D70004A35B7016F5E7F4F605D7D4FA50181E40D
:100D800092E00E944A3588E0891980933002809170
:100D9000300290E0A32DB0E09D01220F331F2359B4
:100DA0003E4FAA0FBB1FBD0162597E4F41E0480F65
:100DB0009915A8F490E0FC01E05DFD4FD9015C912C
:100DC0005183DB015C915187318A880F991FFC01A7
:100DD000E05DFD4F128E118E91E0842FE7CF80935E
:100DE000300280917F038C7F803209F0C1C0AFEF69
:100DF000A80D01E0080D5FEF510F41E0410F5117C1
:100E000080F48CE08C9DF0018D9DF00D1124E05A52
:100E1000FD4FE50FF11D208130E1230F08F42FEF86
:100E20002083212F30E07CE07C9DC0017D9D900DD2
:100E30001124805A9D4FFC01E20FF31F7081B0E234
:100E40006B2F760F08F47FEF70834C3051F0FC016C
:100E5000E40FF11D708180E1682F760F08F47FEFB9
:100E60007083043009F432C0E02EF12C511790F455
:100E70008CE08E9DF0018F9DF00D1124E05AFD4F06
:100E8000E50FF11D80819DE0782F092F700F08F488
:100E90007FEF7083ECE0EE9DC001EF9D900D11247B
:100EA000805A9D4FFC01E20FF31F608170E1670FD4
:100EB00008F46FEF60834C3049F0FC01E40FF11D42
:100EC00060817DE0670F08F46FEF6083A81508F07C
:100ED0004FC0B0E0511780F48CE08A9FF0018B9FE7
:100EE000F00D1124E05AFD4FE50FF11D50816DE02A
:100EF000560F08F45FEF50838CE08A9FF0018B9FC0
:100F0000F00D1124CF01805A9D4FFC01E20FF31F19
:100F1000208130E1230F08F42FEF20834C3041F182
:100F2000FC01E40FF11D20813DE0230F08F42FEFB9
:100F300020831EC01F5FEE0CFF1C1C3009F0ADCEDD
:100F40002FEFC21AD20A34E0C316D10409F097CEAB
:100F50008FEF88AB89AB1AAA0E94482C8160782F4A
:100F60009CAB8BAB48A959A96AA98CA90E94A43152
:100F70008091590290915A02A0915B02B0915C025B
:100F80002FB7F894C0907805D0907905E0907A0555
:100F9000F0907B052FBFC81AD90AEA0AFB0A0E9403
:100FA0003C2C6093590270935A0280935B02909399
:100FB0005C02A0913002E0E3F2E02A2F30E08824C6
:100FC0008A94982CA12CB12C8C189D08AE08BF08CF
:100FD000A31799F0418D528D2A01612C712C841434
:100FE0009504A604B70410F4215004C04C0D5D1DF7
:100FF000528F418F3F5F3296EBCF2093300230917A
:101000007F03232F237021F0D32ED694D69401C0D2
:10101000D12C209111012130E1F030F02230E9F1A2
:10102000233009F446C069C010920E0160937B031F
:1010300070937C0380937D0390937E0389E2E0E3C9
:10104000F2E0A0E9B2E001900D928A95E1F781E02B
:101050002DC090910B01D9120DC0832F837090E0A9
:1010600040910A0150E021E08417950709F420E03F
:10107000822F01C081E081708093100180918403F0
:1010800090910F01981709F4CBC580930F0140E0B0
:1010900060E080E00E94FD23C3C5D0920B01832F46
:1010A000837080930A010E94022383E080931101E0
:1010B00024C08091930381110E9401241092930314
:1010C00040917B0350917C0360917D0370917E037E
:1010D0002FB7F8948091780590917905A0917A05C1
:1010E000B0917B052FBF841B950BA60BB70B4097C8
:1010F000A105B10510F01092110186E0EDE8F3E0D2
:101100008E010F5F1F4FD80101900D928A95E1F774
:10111000D0908F03E0909003C0909103F0909203E1
:1011200010928F03109290031092910310929203E9
:10113000D11003C0EE2009F452C080918B0390912E
:101140008C030E942D2C9C0190918703992311F40C
:101150000C94E1102333310508F441C09F3F19F08E
:101160009F5F90938703DD2061F00E942C261D1461
:1011700014F491E001C09FEF899F802D112480938A
:101180008F03EE2061F00E942C261E1414F491E0CF
:1011900001C09FEF899F802D11248093900330918F
:1011A0008F033323E1F0209190032223C1F045EB1C
:1011B0003403C0011124992319F090938F0303C0C5
:1011C00081E080938F0365EB2603C00111249923EE
:1011D00019F09093900303C081E080939003C110B5
:1011E00003C0FF2009F452C08091890390918A03C3
:1011F0000E942D2C9C0190918603992311F40C944C
:10120000E8102536310508F441C09F3F19F09F5F73
:1012100090938603CC2061F00E940A261C1414F4DB
:1012200091E001C09FEF899F802D1124809391034D
:10123000FF2061F00E940A261F1414F491E001C0FF
:101240009FEF899F802D1124809392033091910309
:101250003323E1F0209192032223C1F075EB370391
:10126000C0011124992319F09093910303C081E0E8
:101270008093910335EB2303C0011124992319F0C6
:101280009093920303C081E08093920380918F0337
:1012900081110BC080919003811107C0809191034F
:1012A000811103C08091920381110E945B25DB8232
:1012B000EC82CD82FE8286E0F801ADE8B3E00190D9
:1012C0000D928A95E1F70E94D02C9091B90289176E
:1012D00021F00E94D02C8093B90280917A0384304F
:1012E00009F076CC83E08093E9008091E80082FFEA
:1012F0006FCC8091E80085FF21C00E943C228111C3
:101300001BC020E2C22ED12C780109C08091F100CF
:10131000D7018D937D01B1E0CB1AD10869F080919E
:10132000E80085FDF3CF8091E8008B778093E8009B
:101330000E943C22882399F391E001C090E08091C3
:10134000E8008B778093E800992309F441CCE09082
:10135000C404F090C5048981E114F10461F08E3F6A
:1013600009F039C48A81833008F4E7C2855083309C
:1013700008F031C4E2C28B3009F4C9C240F58530AF
:1013800009F480C0B0F48230F1F130F4813009F01A
:1013900020C41A8289E0BEC3833009F464C084305B
:1013A00009F017C44C816B818A810E94E52F9D83CF
:1013B00035C4873009F474C008F46FC0883009F46C
:1013C000E5C0893009F005C40E94012404C48031BD
:1013D00009F4DFC160F48D3009F47DC108F479C1EE
:1013E0008E3009F47CC18F3009F4A4C1F2C382317C
:1013F00009F4D4C108F4D0C1833109F4F9C18E3F96
:1014000009F49BC2E6C38A81823009F400C48330A8
:1014100051F0813009F0DDC30E943C2C9B838C830A
:101420007D836E83D8C38091C2049091C304892BBD
:1014300009F4D1C380914503909146039B838C832B
:1014400080914703909148039D838E838091490347
:1014500090914A039F83888780914B0390914C031E
:1014600099878A87B8C38A81823009F0B2C36B81B9
:101470007C818D819E810E94143586E290E00E94DD
:101480008B34A9C32D813E813227232732274C81FB
:101490006B818A810E94222F9EC30E94582F9BC37A
:1014A0008A81813421F0823409F43BC094C34B819A
:1014B0005C8180917F03982F93704115510539F419
:1014C0009111109211018C7F80937F031FC09111A5
:1014D00002C0109211018C7F816080937F0320EC09
:1014E00033E06CEE73E0F901329685919491F90145
:1014F000A591B4914A175B0731F02C5F3F4F6217FB
:10150000730789F780E060E00E94CF238D8180938C
:1015100083038E8120E048856F8190E00E947423D0
:101520005AC34B815C818D81E3E08E9F9001112431
:101530002E3131050CF04FC3D801FA01EE0FFF1F19
:10154000E40FF51FE953FD4F20E030E090E028174D
:10155000390708F040C31396B901640F751F6A324A
:10156000710508F038C312966C9112976083139638
:101570006C911397618314966C911497613708F0FE
:1015800060E762832F5F3F4F3396E1CF8A818234D9
:1015900009F442C028F4803451F0813471F01BC347
:1015A000833409F459C0843409F459C014C381E068
:1015B0008B831C8280E78D830EC380917F03982FDD
:1015C0009370B1F08695869590E020EC33E06CEE58
:1015D00073E0F9013296A591B491F90145915491C6
:1015E0008A179B0741F02C5F3F4F6217730789F7FB
:1015F00090E080E002C0942F852F9B838C838091A4
:1016000083038D83809180038E83809181038F83F8
:10161000809182038887DFC2EB80FC804EE150E03E
:101620006FEF70E0CE0103960E94533580EC93E09B
:10163000DE0113962EE1FC0145915491E416F50666
:1016400028F4223018F04D935D9322500496F3E075
:101650008C3E9F0781F7BFC28AE28B839BC18B813F
:1016600090E08A3291050CF0B6C2FC01EE0FFF1F2C
:10167000E359FE4F20812B83FC01EE0FFF1FE35C3B
:10168000FE4F21A92C83FC01EF53FE4F20812D83B7
:101690002FEF2F832E836DE371E040E050E020E0D8
:1016A00030E0FB01E20FF31FE081F0E08E179F07AF
:1016B00019F44E832F838FC22F5F3F4F2C3031059B
:1016C00081F74F5F5F4F645F7F4F4430510539F7BB
:1016D00082C280E13BC281E08A838DE61BC2EA8040
:1016E000FB80FE24EF24FE24AC80B12C2DE1A21659
:1016F000B10408F070C26801C7018D569D4F960174
:10170000201B310B2A153B0508F065C23DE6E316A8
:1017100031E0F30630F40E946D34D60114968C93B8
:1017200002C0F6011482FFEFEF1AFF0A2FEFC21A70
:10173000D20AE2CF8091C2049091C304892B09F4AC
:101740004AC2EA80FB80FE24EF24FE24CC80D12C08
:101750003DE1C316D10408F03EC25801C7018D56C1
:101760009D4F9501201B310B2C153D0508F033C210
:101770004DE6E41641E0F40628F4D50114966C9188
:101780000E948B34BFEFEB1AFB0AEFEFAE1ABE0AD2
:10179000E5CF0E94AA2E1FC285E0D8C1EA80FB8057
:1017A000FE24EF24FE24AC80B12CFDE1AF16B10481
:1017B00008F011C26801C70187969601201B310B02
:1017C0002A153B0508F007C220EEE21621E0F206DA
:1017D00030F40E946D34D60114968C9302C0F60149
:1017E0001482FFEFEF1AFF0A2FEFC21AD20AE3CFDB
:1017F000EA80FB80FE24EF24FE24AC80B12C3DE186
:10180000A316B10408F0E7C140EEE41641E0F40687
:1018100008F0E1C180EE91E08E199F098A159B05C1
:1018200008F4D9C1370167E2660E711C8091C204C9
:101830009091C304892B11F0680160C0E0FE0FC0D5
:10184000C70186960E946D3490E0982F88272D81DD
:10185000822B81159C4531F48FEF8D8303C0C12C01
:10186000D12C03C0CC24C394D12CC5018E0D9F1D57
:10187000450180FF1BC081E0881A910865E0462E73
:10188000512C4C0E5D1E480C591CC3018A0D9B1D2A
:101890000E946D34D2012C9130E0322F2227282B68
:1018A00021153C4519F48FEFF2018083F801EC0D0E
:1018B000FD1D2FEFCF01801B910B8815990508F0B6
:1018C000BBCF848190E0982F88273581832B8115A9
:1018D0009C4511F4248325833296ECCF40EEE41628
:1018E00041E0F40628F4D60114966C910E948B34E2
:1018F000BFEFEB1AFB0AEFEFCE1ADE0AC70187969D
:101900009601201B310B2A153B0540F364C18091E1
:10191000C2049091C304892B09F45DC1C8010E94DF
:101920009B22FFEF21EE34E0F15020403040E1F700
:1019300000C000000E94E32B4EC1EA818E2F90E090
:101940008E30910508F047C1FC01EA5AFF4F0C9414
:101950000E3588E0E3E1F1E0DE01919601900D9211
:101960008A95E1F780E2D8011D928A95E9F784E033
:10197000898388E0FE01B196DE01159601900D92F3
:101980008A95E1F781E08D8726C184E8898382E02A
:101990008A831B821C821FC18C8190E0982F88272C
:1019A0002B81820F911D092E000CAA0BBB0B45E069
:1019B000880F991FAA1FBB1F4A95D1F7AC01BD0123
:1019C000405E5F4F6F4F7F4F481759076A077B078D
:1019D00008F401C18438E2E09E07A105B10508F0D2
:1019E000FAC04538F2E05F076105710520F044E870
:1019F00052E060E070E0481B590BBC01645C7E4F14
:101A0000C8010E945434E7C0FB80EC8040E06E2D9A
:101A10008F2D0E94F22E99838A8341E06E2D8F2DA7
:101A20000E94F22E9B838C83D6C02E813F81322769
:101A3000232732274D816C818B810E94BA2ECBC027
:101A400040E250E06FEF70E0C8010E945335809192
:101A5000C2048983EA8285E08B8386E08C831D82C1
:101A60001E82B9C081E090E09093C5048093C404C5
:101A700082E390E09093C6028093C5020E94482CB6
:101A80009093C4028093C302A6C0EF28D9F180913D
:101A90004F039091500326E0969587952A95E1F79C
:101AA000209145032170F22EF8228091C30290917B
:101AB000C4020E942D2C85369105F0F0FF20E1F044
:101AC0000E94482C9093C4028093C3028091C50267
:101AD0009091C60201979093C6028093C502892B0C
:101AE00089F41092C5041092C40481E090E09093B0
:101AF000C3048093C20406C082E390E09093C602C0
:101B00008093C5028091C20489838091C4048A8332
:101B10008091C5028B835FC01092C3041092C204EF
:101B20005AC040E250E06FEF70E0C8010E945335A8
:101B300052C08B81833061F0843061F181114BC0E0
:101B400080E2D8011D928A95E9F788E08A8343C034
:101B50006C81CE0181962AE0FC0111922A95E9F769
:101B6000683060F4FAE06F9FB00111246D5B7D4F27
:101B70004AE050E00E945D3480E001C08FEF89832D
:101B80008AE0FE01B196DE01129601900D928A95CF
:101B9000E1F721C06C818AE0FE013596DE01919665
:101BA00001900D928A95E1F7683070F42AE0629F07
:101BB000B00111246D5B7D4F4AE050E0CE0181966B
:101BC0000E94AF3480E001C08FEF89830E942630ED
:101BD00002C08FEF8983C8010E949B220C94E80504
:101BE00009BD19BD09B400FEFDCF8091D8008F7DDD
:101BF0008093D8008091E00082608093E000809123
:101C0000E00081FDFCCF0E94DB1A0C94EF0586E218
:101C100090E00E946D341B821C821D828E83DBCF7C
:101C20008D2D90E08B30910580F080910E018F5FBB
:101C300080930E0182E08093110180911001811147
:101C40005CCADD2009F431CA58CAFC01EC59FF4FC7
:101C50000C940E3580911001882309F4A7C240E04E
:101C600060E080E00E94FD23A1C210910E0189E096
:101C7000189F102D112409E0010F0B3208F00AE221
:101C80006091800370918103809182030E94CB2434
:101C9000F62EE72EC82E101708F044C1E12FF0E011
:101CA000DF01AF53BE4F8C9190910F01982331F01B
:101CB0002C2D4F2D6E2DCF010E94FF231F5FEBCFE8
:101CC00010910E0189E0189F102D112409E0010FD9
:101CD0000B3208F00AE2E0908103F0908203C0909A
:101CE00080036C2D7E2D8F2D0E94CB24B62EA72E27
:101CF000982E609183036C0D7E2D8F2D0E94CB2436
:101D0000F62EE72EC82E101708F00CC1812F90E098
:101D1000FC01EF53FE4F308120910F01232359F036
:101D200030FF04C02C2D4F2D6E2D03C0292D4B2DBF
:101D30006A2D0E94FF231F5FE6CFF0900E0189E01D
:101D4000F89EF02C1124A9E0EA2EEF0C4AE24E1581
:101D500010F4FAE2EF2E60918303669580917B0385
:101D600090917C030E94C124C82EFE1408F042C04A
:101D70000F2D10E0F801EF53FE4F908180910F017D
:101D80008923B1F1F801EE0FFF1FE359FE4F4081A7
:101D900050E044565109F801EE0FFF1FE35CFE4F7F
:101DA00021A930E020523109449FB001459F700DB8
:101DB000700D1124229FC001239F900D900D1124BE
:101DC000860F971F0E94672490918103A3E08A9F4A
:101DD000B0011124759567956C0D792F8091820360
:101DE0000E94CB24462F282F672FC8010E94FF2373
:101DF000F394BBCF81E0B9E2BE1508F0D8C1D6C1DB
:101E000010910E0189E0189F102D112429E0C22E97
:101E1000C10EEAE2EC1510F49AE2C92E6091830338
:101E2000669580917B0390917C030E94C124B82E1B
:101E30001C1578F5E12EF12CF701EF53FE4F908140
:101E400080910F01892319F1F701EE0FFF1FE35C69
:101E5000FE4F21A930E020523109F701EE0FFF1F9C
:101E6000E359FE4F408150E0445651096091800390
:101E700070918103809182030B2D0E9498240E940F
:101E8000CB24462F282F672FC7010E94FF231F5FF7
:101E9000CFCF81E0F9E2FC1508F089C187C110912C
:101EA0000E0189E0189F102D112409E0010F0B325B
:101EB00008F00AE2E0908103F0908203C090800372
:101EC0006091830366956695669580917B039091FA
:101ED0007C030E94C1240E942224805887FD8195A2
:101EE000880F682F2CE0629F612D11246C0D7E2DD0
:101EF0008F2D0E94CB24F62EE72EC82E101790F4BB
:101F0000E12FF0E0DF01AF53BE4F8C9190910F01B4
:101F1000982331F02C2D4F2D6E2DCF010E94FF23E1
:101F20001F5FECCF81E00A3208F441C13FC183E476
:101F300094E202C081EF92E20E94771D38C10091C5
:101F40000E0189E0089F002D112419E0912E900EBA
:101F500020E3291510F4B0E39B2E80911001882313
:101F600061F040E060E080E00E94FD2380E3E0E675
:101F7000F2E0DF011D928A95E9F780910E0181114F
:101F800015C080915E0290915F020E942D2C21E08D
:101F90008931910508F420E020935D02499730F0E3
:101FA0000E94482C90935F0280935E0210E0492CBF
:101FB000512CACE08A2E041515050CF05EC03801DA
:101FC000B3E06B2277245801B594A794B594A794F5
:101FD000869CC001879C900D1124FC01E05AFD4FA6
:101FE000EA0DFB1DC080835C9E4FFC01EA0DFB1DCA
:101FF00080818F3F59F1E82EF12CF701EF53FE4F0E
:10200000908180910F01892309F13C2D25E5321B38
:1020100008F430E0709181032AEA4C2D240F08F473
:102020002FEF4091820362E0269F200D11242E5F46
:10203000249F212D11246AEA631B822F0E94CB2446
:10204000462F282F672FC7010E94FF2380915D0232
:10205000882381F02C2D71E0271B08F420E0869C5A
:10206000C001879C900D1124805A9D4FFC01EA0D00
:10207000FB1D20830F5F1F4F9ECF81E09FE29915CC
:1020800008F095C093C0C0900E0189E0C89EC02C96
:102090001124E9E0BE2EBC0CAAE2AB1510F47AE2E2
:1020A000B72E2091830331E0230F08F42FEF30E0A7
:1020B00040E050E06FEF7FEF80E090E00E94EF346F
:1020C0008901AA24A394CB1408F041C0EC2CF12C74
:1020D000F701EF53FE4F908180910F018923A9F101
:1020E00090919002915097FD15C0292F092E000C58
:1020F000330BF901E057FD4F8189C812F3CF220F4E
:10210000331FF901E057FD4F218D328D2017310724
:1021100048F701C09801609183034A2D640F08F4C9
:102120006FEFC9010E94C124AC01609180037091DE
:102130008103809182030E941C240E94CB24462F9D
:10214000282F672FC7010E94FF23C394BCCF81E0D3
:1021500069E26B1560F52AC0F0900E0189E0F89EE7
:10216000F02C112459E0E52EEF0C7AE27E1510F4E4
:102170004AE2E42EFE14B0F40F2D10E0F801EE0F49
:10218000FF1FE00FF11FE953FD4F608171818281D4
:102190000E94CB24462F282F672FC8010E94FF23BF
:1021A000F394E8CF81E099E29E1508F480E09091E5
:1021B0000E019F5F90930E01882309F43BCD0C9490
:1021C0007D082D32314010F00C94B0080C94EF08CB
:1021D0002D32314010F00C94070958C88F929F920D
:1021E000AF92BF92CF92DF92EF92FF920F931F9325
:1021F000CF93DF9300D000D0CDB7DEB7FC01808154
:10220000918123813481232B31F09F3F31F491E080
:102210008F3F19F403C091E001C090E090FDDDC64E
:102220007F0161E0CF010E946D318C01F701828155
:10223000882309F49AC0980122513F452031310585
:1022400008F07BC08FEF93E00E946D3481117FC056
:102250004EEED42ED00E03E912E0DD2071F0011510
:10226000F4E01F0709F473C0C8010E946D348111A6
:1022700001C0DA940F5F1F4FF0CF19821A821B82C0
:102280001C82AA24AA9468012FEFC21AD20AC8019C
:102290000E946D3489831A82882309F458C08130E2
:1022A00009F046C0480182E0880E911CC6010E94D8
:1022B0006D348A83882309F44AC09FEF980F9330C6
:1022C00060F4680193E0C90ED11CC4010E946D3412
:1022D0008B8381112DC08601D6CF843011F064012B
:1022E000FACFC4010E946D34B82E6801E4E0CE0E2E
:1022F000D11CC80103960E946D34BB2041F1882394
:1023000031F1282F30E021503109A29EA001A39E77
:10231000500D11248B2D90E00197840F951F01978C
:10232000D0F2EFE9FFE03197F1F700C00000F7CFFE
:10233000CE0101960E941231CECF00319FE51907E0
:1023400009F0A8C581E00E94CC1A0E946C1D809102
:102350006704877009F441C6F7018281882309F474
:102360003CC682E00E94BF2A38C60031FFE51F0745
:1023700011F481E005C001312FE5120721F482E05C
:102380000E94C01AE2CF90914D03911105C0909127
:102390005003992309F4B7C098013056211590E2F3
:1023A000390720F0305E2115304140F4F701958166
:1023B000907F09F4A8C06801DD2401C0680196017E
:1023C00030542115354108F49EC09091500392304D
:1023D00021F5882369F080916A04982F927219F090
:1023E0006894D1F80FC086FF0DC024E1D22A0AC03C
:1023F000C60195558F3F910511F008F06AC580E040
:102400000E94462A81E080935003D0924F03C092ED
:102410004E038FEF80930C019ACF882309F459C59E
:10242000913009F05FC080910C019CE2C916D10483
:10243000D9F4882329F00E94FA3310920C0187CF37
:1024400080914E0390914F0395558F3F910509F070
:1024500018F40E943B2A03C08AE20E94961C109244
:1024600050030E944A344FC0EAE2CE16D10421F450
:10247000815080930C0126C087FD34C081110BC0B0
:1024800080914E0390914F0395558F3F910509F030
:1024900010F40E94FA3380910C018F5F80930C013D
:1024A000FDE2CF16D10471F040F484E0C81AD108DF
:1024B00094E2C916D10480F405C0EDE2CE16E2E044
:1024C000DE0651F4F7018281882309F402C5809168
:1024D0006A04811114C0E5C4F7018281882309F4DC
:1024E000F8C40DC09AE2C916D10489F308F066C594
:1024F000F4E0CF1AD10824E2C216D10440F30E94BE
:102500004A34109250030238FFE51F0751F4F701D7
:102510008281882399F181E0809350038DE290E0DD
:1025200017C003382FE51207D8F00338EFE51E0770
:1025300009F433C50438FFE51F0709F0DBC4F701D0
:1025400082818823D9F081E0809350038DE292E06C
:1025500090934F0380934E038FEF80930C013AC505
:1025600000388FE5180709F437C101389FE51907CE
:1025700009F0C0C4F70182818111A0C4F7019281E2
:10258000992309F4B9C11092C8040230FCE51F0771
:1025900008F49CC106312CE5120738F098012A5F37
:1025A0003C452930310508F091C10E94B52990932E
:1025B00027028093260200318CE5180709F4C3C076
:1025C00008F041C00830ECE51E0709F49AC0F0F4A9
:1025D00004302CE5120709F487C068F402309CE54A
:1025E000190709F477C003301C4509F0E5C0809154
:1025F0002602826076C00630FCE51F0709F46EC033
:1026000008F07BC08091260288606BC00C308CE59E
:10261000180709F485C068F40A30ECE51E0709F4D0
:1026200074C008F079C00E94DB1A8091260280688D
:1026300058C00E302CE5120709F476C008F07FC0B0
:10264000809126028BC00B3F9CE5190709F44FC00F
:1026500018F50331FCE51F0709F47DC078F401315A
:102660008CE5180709F473C002311C4509F0A4C0B9
:102670000E94DB1A809126028F7733C00531ECE58A
:102680001E0709F472C008F486C00A3F1C4509F011
:1026900093C0809127023EC00F3F8CE5180709F4D4
:1026A0005FC058F40D3FECE51E0709F444C008F480
:1026B0003FC08091270282602DC001302DE51207B6
:1026C00009F475C008F45DC002301D4509F074C0FE
:1026D00060E06EC080912602816003C08091260276
:1026E00080618093260268C08091260211C080918B
:1026F00027028260809327025FC080912602806259
:10270000F0CF809126028064ECCF80912602886011
:102710008460E7CF8160EECF809126028E7FE1CF8B
:10272000809126028D7FDDCF80912602877FD9CFD1
:102730008091270218C0809127028D7FDBCF809186
:1027400026028F7ECECF809126028F7DCACF8091C8
:1027500026028F7BC6CF80912602877F8B7FC1CFD9
:10276000809127028D7F8E7FC5CF8091260282FBCC
:10277000222720F991E0922790FB82F990FB83F9C0
:10278000B0CF80912702982F909591708E7F892BE2
:1027900090FB81F9AFCF0E94DB1A8091260287FB64
:1027A000222720F991E0922790FB87F99ACF61E0E8
:1027B0008EE090E00E948B346091260210912702F7
:1027C00084E090E00E948B34612F82E290E00E94CE
:1027D0008B340E94DB1ABBCDF7018281882309F478
:1027E000CDCE2CEEA22E23E0B22E3AE0932EF501B0
:1027F0008491882309F45AC0813009F04FC06501E3
:10280000FFEFCF1ADF0AF6018491813049F46501A8
:10281000F2E0CF0ED11CF60184910E94961C41C0BB
:10282000823049F46501F2E0CF0ED11CF6018491AB
:102830000E94F21B36C0833049F46501F2E0CF0EEE
:10284000D11CF60184910E94921B2BC0843049F563
:102850006501F2E0CF0ED11CF601249180E090E0FA
:1028600030E0205331092A30310570F4989EA001E0
:10287000999E500D1124C901840F951FFFEFCF1AA7
:10288000DF0AF6012491ECCF009759F0EFE9FFE061
:102890003197F1F700C000000197F6CF0E94AC30ED
:1028A00065015601FFEFAF1ABF0AA1CF80916D04F9
:1028B00081FD64CE0E94482C90936C0480936B043D
:1028C00080916D04826080936D0458CE80916A047B
:1028D0000631ECE51E0709F58A7A91E009F490E0EB
:1028E00090935103882311F065E301C069E282E10E
:1028F00094E00E948A2C0EC006311C4509F08BC062
:1029000080915103882309F457C365E382E194E081
:102910000E947D2C0E94612A1ACD8272F801E25C2D
:10292000FC45EB30F10508F043C0E159FF4F0C9432
:102930000E3580917F0391E0892780937F03109269
:1029400011019093930303CD48EE53E262EF73E2DB
:102950002CC042EF53E268EE73E227C04BEB53E228
:1029600065EC73E222C045EC53E26BEB73E21DC0F1
:1029700041EA53E26EEA73E218C04EEA53E261EABA
:1029800073E213C047E853E264E973E20EC044E91E
:1029900053E267E873E209C049ED52E265EE72E284
:1029A00004C045EE52E269ED72E20E946E23CFCC84
:1029B000992389F10A35EDE51E0741F150F401151F
:1029C0002CE51207A9F00E3D1C4529F50E94D129DE
:1029D000BECC0B359DE51907D9F00C351D45D9F452
:1029E0008091270282FB882780F991E0892711C016
:1029F0000E94DB1AFFEF24E38CE0F150204080407E
:102A0000E1F700C000000E94E32BA1CC81E001C0EF
:102A100080E00E949E2AF701868197810097B9F491
:102A2000F701828100811181882349F0C8010E9449
:102A30001B18D82E682FC8010E948F1A04C0C80125
:102A40000E945F1AD82EB8018D2D0E9413300E946B
:102A50001B288C01F701C280D580D2949FE0D92237
:102A600080916704877099F0CC2089F0812F807F56
:102A7000803421F080E2800F883048F082E00E94AC
:102A8000BF2A809167048770BB24B3948111B12C55
:102A9000A12EA2948FE0A8228A2D90E08C3091057F
:102AA00008F0D6C1FC01E658FF4F0C940E35812F7B
:102AB000807F1F70882311F01295107FCC20B9F011
:102AC000112309F49DC180E2800F883010F00111BC
:102AD00006C080916A04182B10936A0405C0809187
:102AE0006904182B109369040E94612A89C1802F00
:102AF0000E94921B112309F4ABC180E2800F883041
:102B000010F0011104C0812F0E945A2A06C01095AE
:102B1000809169041823109369040E94612A98C166
:102B2000812F807F1F70803211F01295107F00235B
:102B300019F00130B1F141C0CC20E9F0DD20B9F04D
:102B4000F1E0DF1206C080916D04812B0E94462ABD
:102B50007FC125E0D2120BC00E943B2A8091640401
:102B6000181310936404812F0E94881B71C18091F7
:102B70006D04812BF9CFDD2051F081E0D8120DC01A
:102B800080916A04812309F463C10E94F22A0E94A1
:102B90003B2A812F0E94811B5BC195E0D912F7CFA0
:102BA00057C1CC2029F0E5E0ED1508F451C1DBCF89
:102BB000F4E0FD1508F44CC1ECCFCC2019F0DD2079
:102BC00091F21EC1D11027C1E4CF812F8695869541
:102BD000837019F0813059F03BC1CC2019F0C80145
:102BE000937002C080E090E00E94BA2C31C1CC20EA
:102BF00019F0C801937002C080E090E00E94A42CFC
:102C000027C1802FCC2029F00E944C260E945B25F2
:102C100002C00E9485250E945B251AC1812F837006
:102C2000A1F5C11015C1402F429546954770440F3C
:102C3000440F202F2F7030E0C901042E01C0880FEF
:102C40000A94EAF704FF08C02FE030E001C0220F29
:102C50004A95EAF7209501C020E016951695137065
:102C6000123051F070F430916E04113019F0822B53
:102C7000832308C0832B05C0282B80916E048227F4
:102C800001C0822B0E94D71AE3C0CC2019F0812FFB
:102C9000817001C08695882309F4DAC0402F4295DF
:102CA00046954770440F440F202F2F7030E0C90124
:102CB000042E01C0880F0A94EAF704FF08C02FE031
:102CC00030E001C0220F4A95EAF7209501C020E0CC
:102CD000169516951370123051F070F430918503EB
:102CE000113019F0822B83234FC0832B05C0282B72
:102CF00080918503822748C0822B46C01F70CC205C
:102D000029F0812F0E94CC1A802F2ECF802F0E9475
:102D1000811B812F99C0023F39F128F4003F41F017
:102D2000013FE1F069C0033F29F1043F81F164C034
:102D3000CC2029F084E08D1508F48AC004C095E009
:102D40009D1508F485C01F7181E090E001C0880FD7
:102D50001A95EAF790918503892716C0812F8F7104
:102D6000CC2009F471C052C0812F8F71CC2009F49E
:102D70004DC06AC0CC2039F01F7181E001C0880FBE
:102D80001A95EAF701C080E00E94BC1A61C0CC200D
:102D9000D9F0809164040E945A2A80916704877058
:102DA000843039F40E94B82A812F8F710E94C01A92
:102DB0004EC0E4E0ED1508F44AC01F71812F0E9457
:102DC000CC1A63E0812F11C090916A048091640451
:102DD000892B80936A04F4E0FD1550F40E94B82A10
:102DE0000E94F22A64E0812F8F710E94DC2A2FC09A
:102DF00081E00E94BF2A2BC0CC2059F0DD2021F0B9
:102E0000802F0E94F21B24C0812F8F710E94CC1A48
:102E10001FC0DD20B9F0093341F42FEF87EE93E0B6
:102E2000215080409040E1F707C0EFE7F8E321E050
:102E3000E150F0402040E1F700C00000802F0E94E8
:102E4000921B06C0812F8F710E94C01A01C0B12C45
:102E500088EF8A0D843010F40E94D02CBB20A9F09A
:102E60008091670480FD11C0F701128285958595D8
:102E700085950E94CC1AC7010E94EE1080916704CC
:102E80008595859585950E94C01A60E0C7010E94CE
:102E90006D31A3C00131EFE51E0709F074CA82E06D
:102EA00052CA0238FFE51F0709F431CB08F03DCBC9
:102EB00000388FE5180709F058CB93CC81E0809358
:102EC0004D030E94D02C81FD59CB89E30E94961CB2
:102ED00055CB02382FE5120709F419CB08F059C079
:102EE00000389FE5190709F449CB0138EFE51E07C3
:102EF00009F440CB033F2CE51207A1F406E221EED2
:102F000040EE63EF7CE50AC0073DFCE51F0709F0D2
:102F100035CB06E221EE41EE67ED7CE5C7010E946C
:102F2000372E15CA043F8CE51807A0F4083D9CE530
:102F3000190731F407E225EE45EE68ED7CE5EECFAA
:102F4000093DECE51E0701F708E221E045EE69EDD9
:102F50007CE5E4CF053F2CE5120731F406E221EED3
:102F600042EE65EF7CE5DACF053F8CE5180730F4DB
:102F700007E225EE44EE64EF7CE5D0CF063F9CE50A
:102F8000190709F0FBCA07E225EE46EE66EF7CE57D
:102F9000C5CF0338FFE51F0749F4F7018281882375
:102FA00009F4ECCA82E08093500314C004382FE582
:102FB000120709F4C4CA9ECF69E2A8CC8DE2C816F4
:102FC000D10409F484CA9DE2C91692E0D90609F039
:102FD00096CA7DCAF7019281D6CA0F900F900F90C2
:102FE0000F90DF91CF911F910F91FF90EF90DF90A5
:102FF000CF90BF90AF909F908F90089580E090E029
:103000000E94BA2C80E090E00E94A42C10926904E7
:10301000109268040E94612AEDE8F3E086E0DF0187
:103020001D928A95E9F710928703109286031092F9
:1030300088030C945B25CF92DF92FF920F931F932E
:10304000CF93DF936C010091850380916E04082B70
:10305000C7E0D0E010E0C8010C2E02C0959587951E
:103060000A94E2F780FD04C02197A8F7F12C09C06B
:10307000FC2EB6018C2F0E9413300E941B28019752
:1030800099F38F2DDF91CF911F910F91FF90DF90DA
:10309000CF900895CF93DF93EC010E941B18BE01DF
:1030A0000E9413300E941B28DF91CF910895FC01EC
:1030B00086819781009719F00E941B2804C08081A7
:1030C00091810E944A18292F2F70E92FE295EF7005
:1030D0004E2F50E0FA013297EE30F105B8F4EA577E
:1030E000FF4F0C940E35803F99F018F4883E70F431
:1030F0000FC0843F59F40CC0883E50F0813F31F43A
:1031000007C0822F869586958695089580E008955C
:1031100081E008959F92AF92BF92CF92DF92EF929B
:10312000FF920F931F93CF93DF93CDB7DEB76597D1
:103130000FB6F894DEBF0FBECDBF8C0185E0F8015D
:10314000DE01519601900D928A95E1F7F801E28037
:1031500090911A0460911B0440911D0450911E042B
:103160004115510531F06F3F31F481E09F3F19F473
:1031700003C081E001C080E0F82FF1709F2E80FD38
:103180004EC1F80130812181C380D4807AE1A72E1D
:1031900074E0B72EF0901C04F601E41BF50BFF2041
:1031A00009F4EFC080911F04E83CF10508F0AAC0C3
:1031B000482F407F09F05AC062131BC0931319C0F7
:1031C0006091200470912104F801468157816417B1
:1031D000750779F4FE2CE1100CC08F70806180932C
:1031E0001F04C5010E94EE1080911F04F801858321
:1031F00053C1CD2831F02F3F31F481E03F3F19F426
:1032000003C081E001C080E080FD03C081E08E2525
:1032100002C080E090E0F82FF170FF2E80FF1CC00C
:103220008091630440912204841709F413C190E053
:10323000FC0153E0EE0FFF1F5A95E1F7ED5DFB4FE8
:103240005181251306C05081531303C05281E512EA
:1032500003C001968770E8CFFE2CEE2009F41CC154
:1032600080911F04816080931F0458C062130FC0B7
:1032700093130DC04091200450912104F801268140
:1032800037814217530719F4EE2009F4A7C0C8018B
:103290000E945718882381F1EE2071F120911F04BC
:1032A000822F82958F7090E00297A4F080911A048B
:1032B00090911B049A8789871B86DD86CC862E8792
:1032C0008091200490912104988B8F87CE010996DC
:1032D0000E94EE1088E0F801AAE1B4E001900D929E
:1032E0008A95E1F70E94022B0AC06217C9F0C80153
:1032F0000E945718811127C0C8010E94EE10FF24B8
:10330000F394CAC0482F407F81F78AE194E00E947D
:10331000EE1088E0F50111928A95E9F7F12CBCC016
:103320009313E5CF4091200450912104F8012681A8
:10333000378142175307D9F6E110D9CF8583C801E9
:103340000E94EE1066C0EE20B9F220911F04822F79
:1033500082958F7090E002970CF4BCCF80911A0494
:1033600090911B049A8389831B82DD82CC822E83F9
:10337000809120049091210498878F83CE0101963B
:10338000A7CFE83CF10508F044C0FE2CEE2009F47C
:10339000B3CF621330C093132EC02091200430911C
:1033A0002104F801868197812817390721F590912A
:1033B0001F0490FD17C0892F82958F70282F30E051
:1033C0002115310579F095832F30310541F08F5F5C
:1033D000982F9295907F85818F70892B8583C80166
:1033E0000E94EE1088E0F801AAE1B4E001900D928D
:1033F0008A95E1F751C0C8010E94571881116ACF20
:1034000080911F04816080931F04C8010E94EE1008
:1034100043C088E0F50111928A95E9F73DC0EE209E
:1034200009F46ACFC8010E945718F82E882309F4BE
:1034300063CF88E0F801AAE1B4E001900D928A958B
:10344000E1F780911A0490911B040E944A180E948F
:10345000022B22C0398B2A8B89899A890E944A18AB
:10346000292F22952F70223028F49F7039F0811176
:1034700005C00BC0243028F49F7049F4805E88306A
:1034800020F0C8010E94EE109F2CF92C05C0F80115
:103490009581907F99F7F9CF8F2D65960FB6F894A7
:1034A000DEBF0FBECDBFDF91CF911F910F91FF9077
:1034B000EF90DF90CF90BF90AF909F9008959E3F88
:1034C00061F12CE0929F800D1124682F669566951E
:1034D0006695982F977083E0689FB001112440E0B3
:1034E00050E080E0FB01E40FF51FEE5AFC4F208115
:1034F00030E0092E02C0369527950A94E2F7217034
:103500003327042E01C0220F0A94EAF7822B4F5F63
:103510005F4F4330510531F7089580E008959E3F95
:1035200051F12CE0929F800D1124E82FE695E6954D
:10353000E695877051E001C0550F8A95EAF783E060
:10354000E89FF0011124EE5AFC4F20E030E070E0DB
:103550004081CB01022E02C0969587950A94E2F72E
:103560008170819584278523842781932F5F3F4F26
:103570002330310569F70895809385030C94FE1775
:1035800021E030E001C0220F8A95EAF72095809172
:10359000850382230C94BC1A21E030E001C0220F85
:1035A0008A95EAF780918503822B0C94BC1A80934C
:1035B0006E040C94FE1710926A0486E0E4E1F4E0D5
:1035C000DF011D928A95E9F70C94FE17CF93DF93E4
:1035D000CDB7DEB760970FB6F894DEBF0FBECDBF94
:1035E00029873A874B875C876D877E878F87988B83
:1035F000CE0109960E948A18811151C088E0FE010F
:103600003996DE01119601900D928A95E1F7798540
:103610006A854C855D854115510531F06F3F31F468
:1036200081E07F3F19F403C081E001C080E080FDAC
:1036300036C0A0912204B0E0CD0101968770992791
:103640002091630430E08217930781F179836A83C4
:103650005D834C8393E0AA0FBB1F9A95E1F7AD5DA4
:10366000BB4F98E0FE01319601900D929A95E1F7DB
:10367000809322040E94F82A12C028E0829FC00191
:1036800011248D5D9B4F0E948A188823E1F0809160
:10369000630490E00196877099278093630480917A
:1036A0006304909122048913E8CF0DC00E94DB1AB5
:1036B0001092220410926304EAE1F4E088E0DF0152
:1036C0001D928A95E9F760960FB6F894DEBF0FBE9B
:1036D000CDBFDF91CF910895882341F080959091DF
:1036E00069048923809369040C94612A08958823CE
:1036F00039F090916904892B809369040C94612AB4
:103700000895882321F00E945A2A0C94612A089572
:10371000882339F090916A04892B80936A040C9471
:10372000612A0895882309F45CC0823869F40E94F4
:10373000D02C81FF56C069E382E194E00E948A2C7C
:103740000E94612A69E30EC0833891F40E94D02C54
:1037500080FF47C063E582E194E00E948A2C0E94CA
:10376000612A63E582E194E00E947D2C0C94612A39
:10377000843869F40E94D02C82FF33C067E482E170
:1037800094E00E948A2C0E94612A67E4EBCF9CEFB0
:10379000980F913A10F4682FE5CF90E2980F983087
:1037A00050F4877091E001C0990F8A95EAF7892F4C
:1037B0000E945A2ADBCF9BE5980F933020F480E0DB
:1037C00090E00C94BA2C98E5980F973120F480E0A3
:1037D00090E00C94A42C803F20F00E9485250C944E
:1037E0005B250895CF93882309F49EC0C82F8238A3
:1037F000B1F40E94D02C81FD97C069E382E194E08E
:103800000E948A2C0E94612A2FEF81EE94E02150C1
:1038100080409040E1F700C0000069E317C08338A2
:10382000E1F40E94D02C80FD7FC063E582E194E04A
:103830000E948A2C0E94612A2FEF81EE94E0215091
:1038400080409040E1F700C0000063E582E194E031
:103850000E947D2CCF910C94612A8438B1F40E948F
:10386000D02C82FD61C067E482E194E00E948A2C42
:103870000E94612A2FEF81EE94E021508040904019
:10388000E1F700C0000067E4E1CF8CEF8C0F813AD4
:1038900080F4E4E1F4E08AE194E02191C217E1F1DF
:1038A0008E179F07D1F76C2F82E194E00E948A2C3B
:1038B000D1CF80E28C0F883068F4C77081E090E04F
:1038C00001C0880FCA95EAF790916A04892B80930A
:1038D0006A04C0CFEBE5EC0FE33040F4F0E0ED50CC
:1038E000FE4F808190E0CF910C94BA2CE8E5EC0F6C
:1038F000E73150F4F0E0EE0FFF1FEA50FE4F8081F9
:103900009181CF910C94A42CC03F70F08C2F0E9419
:103910004C26CF910C945B256C2F82E194E00E94A1
:103920007D2C0E94612ABFCFCF9108951F93CF9322
:10393000DF93182F893319F0C9E1D0E002C0C0E548
:10394000D0E0812F0E94F21B8FE99FE00197F1F7F1
:1039500000C000002197C1F7812FDF91CF911F9107
:103960000C94921B8091720387FF11C08091E80034
:1039700082FD05C080917A038111F8CF11C080913A
:10398000E8008B770BC080917A03882349F08091FF
:10399000E80080FFF8CF8091E8008E778093E80000
:1039A0000895982F973068F59093E900981739F0AB
:1039B0007091EC002091ED005091F00003C0242F95
:1039C000762F50E021FD02C09F5FECCF3091EB00DD
:1039D0003E7F3093EB003091ED003D7F3093ED0062
:1039E0003091EB0031603093EB007093EC0020934A
:1039F000ED005093F0002091EE0027FDE5CF80E030
:103A000008958F708093E90081E0089520917803F4
:103A1000309179032617370748F06115710539F49D
:103A20002091E8002E772093E80001C0B901FC0145
:103A300020E06115710579F180917A038823F1F115
:103A40008530F1F18091E80083FD3CC08091E80071
:103A500082FD2EC08091E80080FFEBCF2091F30023
:103A60008091F20090E0922B6115710551F0883041
:103A7000910538F421912093F1006150710901966C
:103A8000F3CF21E0089709F020E08091E8008E77DD
:103A90008093E800CECF2111CFCF0AC080917A0366
:103AA000882361F0853061F08091E80083FD0AC0D1
:103AB0008091E80082FFF2CF80E0089582E00895CF
:103AC00083E0089581E00895BC0184E00C94B92B53
:103AD000BC0183E00C94B92B80918503982F9670DC
:103AE000963011F4886001C0877F0C94BC1ADF9275
:103AF000EF92FF920F931F93CF93DF938C01C091AE
:103B00000E0189E0C89FC02D1124D9E0DC0FDB3203
:103B100008F0DAE2609183036695669521E0620F12
:103B200008F46FEF80917B0390917C030E94C12485
:103B3000D82ECD17F0F4EC2EF12CF701EF53FE4FF9
:103B4000908180910F01892391F0609180037091A1
:103B50008103809182032D2D4C2FF80109950E943D
:103B6000CB24462F282F672FC7010E94FF23CF5F4A
:103B7000E0CF81E0DA3208F080E0DF91CF911F9151
:103B80000F91FF90EF90DF9008951F93CF93DF93F5
:103B9000CDB7DEB7AA970FB6F894DEBF0FBECDBF84
:103BA000E2E7F3E08091F100819343E0EA37F40724
:103BB000C9F780917303833009F462C030F4813017
:103BC00071F0823009F49CC0B3C08A3009F488C017
:103BD0008B3009F46DC0893009F0AAC020C08091F3
:103BE0007203813A09F0A4C08091E800877F809336
:103BF000E8008091760390917703892B21F468E0A7
:103C000087E693E003C060E080E090E070E00E940F
:103C1000061D8091E8008B778093E80089C0809131
:103C20007203813209F084C080917603909177030A
:103C3000009719F0029709F07BC08091E800877F18
:103C40008093E8008091E80082FD05C080917A03AE
:103C50008111F8CF6DC02091F3008091F20090E0C7
:103C6000922B029729F48091F1008B7F813021F40F
:103C70008091F100809366038091E8008B7754C0B7
:103C800080917203813A09F053C08091760390913C
:103C90007703892B09F04CC08091E800877F8093DF
:103CA000E8008091E80080FFFCCF80910D0137C0D3
:103CB000809172038132E1F58091760390917703D0
:103CC000892BB1F58091E800877F8093E8000E94FE
:103CD000B21C8091740380930D010E94DB1A28C0EE
:103CE00080917203813221F58091E800877F809373
:103CF000E8000E94B21C809175038093650318C090
:103D000080917203813AA1F48091E800877F8093CB
:103D1000E8008091E80080FFFCCF809165038093EC
:103D2000F1008091E8008E778093E8000E94B21C39
:103D30008091E80083FFE9C1809172039091730341
:103D4000492F50E04A30510508F0DFC1FA01EC5626
:103D5000FF4F0C940E35803821F0823809F0D5C120
:103D600008C080916F0390917003992389F082605D
:103D70000FC0809176038F70873008F0C6C18093A2
:103D8000E9008091EB0085FB882780F91092E9001B
:103D90009091E800977F9093E8008093F100109253
:103DA000F1007CC1282F2D7F09F0AFC1882319F0C5
:103DB000823061F0AAC180917403813009F0A5C1FD
:103DC000933009F080E0809370032EC080917403DB
:103DD00081112AC0809176038F702FEF280F263033
:103DE00008F093C18093E9002091EB0020FF1CC0F4
:103DF000933021F48091EB00806214C09091EB002D
:103E000090619093EB0021E030E0A90102C0440FE3
:103E1000551F8A95E2F74093EA001092EA008091DC
:103E2000EB0088608093EB001092E9008091E8003D
:103E3000877F8093E8000E94B21C67C1811165C131
:103E4000109174031F778091E3008078812B809319
:103E5000E3008091E800877F8093E8000E94B21C15
:103E60008091E80080FFFCCF8091E3008068809320
:103E7000E300111102C082E001C083E080937A0365
:103E800044C18058823008F040C1209174033091C1
:103E900075032C3D53E0350779F583E08A838AE288
:103EA00089834FB7F894DE01139620E03EE051E29B
:103EB000E32FF0E050935700E49120FF03C0E29518
:103EC000EF703F5FEF708E2F90E0EA3010F0C796F2
:103ED00001C0C0968D939D932F5F243149F74FBF4A
:103EE0008091E800877F8093E8006AE270E0CE016D
:103EF00001960E94061DC0C08091760390917703C1
:103F0000432F552743305105B1F068F44130510536
:103F100009F40AC14230510509F0F7C08BE590E081
:103F2000E2EDF4E057C04132510589F142325105CA
:103F300009F43CC0EAC0C901992781309105B9F064
:103F400070F082309105D9F0039709F0DEC0EFE3FD
:103F5000F5E0E4918E2F90E0EFE3F5E038C0EFE973
:103F6000F5E0E4918E2F90E0EFE9F5E030C0E3E872
:103F7000F5E0E4918E2F90E0E3E8F5E028C0EDE570
:103F8000F5E0E4918E2F90E0EDE5F5E020C0833080
:103F9000910508F0BAC0880F991FFC01E95CFE4F3B
:103FA0000190F081E02D89E090E014C0833091050C
:103FB00008F0ABC0FC01EE0FFF1FEF5CFE4F01905D
:103FC000F081E02DDC01A25DBE4F8C9190E0009766
:103FD00009F49BC02091E800277F2093E8002091FE
:103FE0007803309179032817390708F4C90140E0B4
:103FF000009789F120917A03222309F43DC02530EE
:10400000D9F12091E80023FD37C02091E80022FD7E
:104010002FC02091E80020FFEBCF4091F3002091CA
:10402000F20030E0342B009759F02830310540F48D
:1040300044914093F100319601972F5F3F4FF3CFAA
:1040400041E02830310509F040E02091E8002E776A
:104050002093E800CDCF4111CDCF0AC080917A03E3
:10406000882351F0853041F08091E80083FD04C041
:104070008091E80082FFF2CF8091E8008B778093F7
:10408000E80043C0803809F040C08091E800877F95
:104090008093E800809171038093F1008091E800A3
:1040A0008E77C7CE811131C08091740390917503D2
:1040B0009927029754F58091E800877F8093E80064
:1040C00010917403109371030E94B21C111106C069
:1040D0008091E30087FD02C081E001C084E080930D
:1040E0007A0342E061EC81E00E94D11C42E261EC83
:1040F00084E00E94D11C42E261EC82E00E94D11C6B
:1041000042E260EC83E00E94D11C8091E80083FFD2
:1041100010C08091E800877F8093E8008091EB00D9
:1041200080628093EB0005C082E190E0EDE2F5E073
:1041300051CFAA960FB6F894DEBF0FBECDBFDF9168
:10414000CF911F9108951F920F920FB60F921124D5
:104150002F933F934F935F936F937F938F939F938F
:10416000AF93BF93CF93DF93EF93FF93C091E90099
:10417000CF708091EC00D82FD17080FDD0E81092E4
:10418000E9008091F000877F8093F00078940E948E
:10419000C51D1092E9008091F00088608093F000C6
:1041A000CD2BCF70C093E900FF91EF91DF91CF91BC
:1041B000BF91AF919F918F917F916F915F914F913F
:1041C0003F912F910F900FBE0F901F901895E8ED23
:1041D000F0E080818E7F80831092E2001092DA00FE
:1041E0001092E100A0EEB0E08C9181608C93808110
:1041F0008F77808319BCA7EDB0E08C918E7F8C9374
:1042000080818F7E8083109264030895CF92DF9225
:10421000EF92FF920F931F93CF93DF93C8EDD0E0FF
:1042200088818F7E8883E7EDF0E0808181608083E4
:1042300084E082BF81E08093640388818E7F8883DD
:1042400002EE10E0F80110821092DA0081EEC82E22
:10425000D12CF601108288818F77888388818068CD
:10426000888388818F7D888319BC10927A0310928D
:1042700071031092700310926F0390EEE92EF12CEF
:10428000F70180818B7F808388818160888342E011
:1042900060E080E00E94D11CF60180818E7F8083E7
:1042A000F801808181608083808188608083F7014C
:1042B00080818E7F8083888180618883DF91CF9128
:1042C0001F910F91FF90EF90DF90CF9008951F9274
:1042D0000F920FB60F9211242F933F934F935F933A
:1042E0006F937F938F939F93AF93BF93EF93FF93BE
:1042F0008091E10082FF09C08091E20082FF05C049
:104300008091E1008B7F8093E1008091DA0080FF53
:104310002AC08091D80080FF26C08091DA008E7F6D
:104320008093DA008091D90080FF18C080E189BDB8
:1043300082E189BD09B400FEFDCF81E080937A035C
:104340008091640381110FC00E94E7200E94062122
:104350008091E20084608093E20005C019BC109255
:104360007A03109264038091E10080FF17C080916E
:10437000E20080FF13C08091E2008E7F8093E20014
:104380008091E20080618093E2008091D800806299
:104390008093D80019BC85E080937A038091E10076
:1043A00084FF2EC08091E20084FF2AC080E189BD95
:1043B00082E189BD09B400FEFDCF8091D8008F7DD8
:1043C0008093D8008091E1008F7E8093E1008091FE
:1043D000E2008F7E8093E2008091E2008160809312
:1043E000E20080917103882311F084E007C080917E
:1043F000E30087FD02C081E001C083E080937A037F
:104400008091E10083FF27C08091E20083FF23C0F9
:104410008091E100877F8093E10082E080937A03BE
:10442000109271038091E1008E7F8093E100809172
:10443000E2008E7F8093E2008091E20080618093B1
:10444000E20042E060E080E00E94D11C8091F00038
:1044500088608093F000FF91EF91BF91AF919F91A1
:104460008F917F916F915F914F913F912F910F901D
:104470000FBE0F901F9018952091E4003091E50039
:1044800095E64091EC00842F817040FF23C080911D
:10449000E80080FD1DC080917A03882399F0853063
:1044A00099F08091EB0085FD11C04091E40050919E
:1044B000E5002417350729F3915011F09A01E1CF57
:1044C00084E0089582E0089583E0089581E00895EE
:1044D00080E008954091E80042FFDDCF0895EF921B
:1044E000FF920F931F93CF93DF937C018B010E9468
:1044F0003C22811119C0E70101151105A1F080913D
:10450000E80085FD0AC08091E8008E778093E8007E
:104510000E943C22882381F307C089918093F10097
:1045200001501109E9CF80E0DF91CF911F910F91E8
:10453000FF90EF900895CF9320917A032430F9F4FF
:10454000C091E900CF703091EC00232F217030FD35
:1045500020E8C22B22E02093E9002091E80020FF10
:104560000BC040E050E060E270E00E946F2280915A
:10457000E8008E778093E800CF70C093E900CF9178
:104580000895E4E9F3E094E0E231F90729F081834A
:10459000608342833396F7CF0895FC01EE0FFF1F2F
:1045A0008E0F9F1FFC01EC56FC4F618340832283DA
:1045B0000895EFE7F3E0248130E1231B08F420E0C5
:1045C000248381E0809393030895EFE7F3E024814F
:1045D00030E1230F08F42FEF248381E080939303CD
:1045E0000895E42FF0E0EE0FFF1FE359FE4F908196
:1045F000921B97FD9195292F38E1239F212D11249E
:10460000620F0895809A81B38E7F91B391602FB726
:10461000F894E4E9F3E034E0E231F30789F0319112
:1046200048E091BB000000C037FF81BB330F0000A2
:1046300000C000C000C081BB00C04A9591F7EBCF1D
:104640002FBF8FE594E00197F1F700C000000895B7
:10465000CF93C82F811102C06FEF01C06BE183E2DD
:1046600090E00E948B34C11102C06FEF01C064E87A
:1046700084E290E00E948B34C11102C06FEF01C050
:104680006FE085E290E0CF910C948B3480E00E9443
:10469000282360E086E290E00E948B340E94582F2D
:1046A0000E94AA2E81E00C94282383E290E00E94CD
:1046B0006D348B3181F484E290E00E946D34843853
:1046C00051F485E290E00E946D3491E08F3009F062
:1046D00090E0892F01C080E081700895882311F057
:1046E000FA0101C0FB01099490917F03937071F06E
:1046F0008093800360938103413708F040E7409343
:10470000820380919303282B209393030895EFE76E
:10471000F3E0438120E1421B08F440E0818121E085
:10472000628190E00C947423EFE7F3E0438120E191
:10473000420F08F44FEF818121E0628190E00C94F8
:104740007423EFE7F3E0628120E1621B08F460E08C
:10475000818121E0438190E00C947423EFE7F3E042
:10476000628120E1620F08F46FEF818121E04381D3
:1047700090E00C947423EFE7F3E0818190E021E076
:104780004381628108970C947423EFE7F3E0818101
:1047900090E021E04381628108960C94742390910B
:1047A0007F039370A1F0811102C0946007C08B3029
:1047B00010F0986203C0880F880F982B90937F03A6
:1047C0001092110180919303682B609393030895D5
:1047D00080917F0386958695815009F48AE061E097
:1047E0000C94CF2380917F03869586958F5F8B30C5
:1047F00008F081E061E00C94CF230C94C1220C946A
:10480000CD2246E050E06CE170E08FE793E00C943D
:104810007B34EFE7F3E085E0808380911B0190918A
:104820001C01A0911D0181839283A3838FE7848360
:104830008FEF85830C94012422E8241B08F420E0E8
:10484000620F0895482F982F46FD9095E92FEF733A
:104850009F7046FD9F5FE295EF70EE0FF0E0E5512F
:10486000FE4F2181299F802D212D112482958F704B
:104870002295207F822B3081982F930F892F47FD1F
:104880008195805808950F931F93CF93DF93D62F70
:10489000072F182FC42F822F0E942224EC2FF0E024
:1048A000EE0FFF1FE359FE4F90819058890F87FD4F
:1048B0008195880F682F2CE0629F612D11246D0F68
:1048C000702F812FDF91CF911F910F910895BC011F
:1048D0008230910508F40895613E8EE1780748F42E
:1048E0009B0195E0369527959A95E1F748E0420FB0
:1048F00001C04FEF91E0242F30E0290F311D359595
:104900002795229FF001239FF00DF00D11246E17C3
:104910007F0718F44FEF420F04C02F3F39F091E0AA
:10492000920F491740F78FEF890F08958FEF089581
:104930000F93CF93DF93D72FC82F47FD4195E2E325
:10494000F0E0CF01841B910947FD9395889FB0014A
:10495000899F700D700D1124229FC001239F900D1F
:10496000900D1124860F971F0E946724682F660FF1
:10497000860F682F600F7D2F8C2FDF91CF910F91C5
:10498000089520E030E0869F212D969F200D311D57
:104990001124C9010895CF92DF92EF92FF920F93F5
:1049A0001F93CF93DF93F62E472FE82FF0E071117E
:1049B00006C0ED55FA4F8491782F682F73C0272FCA
:1049C00030E0ED55FA4FE491FE2F0E2F10E056E047
:1049D000659FC0011124CFEFD0E0BE010E94C73413
:1049E0005BEA5603C001579F900D11248F0D911D56
:1049F0008F0D911D982F990F980F7E01E21AF30ADF
:104A0000E09ED001E19EB00DF09EB00D11248B2FE1
:104A1000499FA0011124452F55277E01E41AF50A6C
:104A2000E09EA001E19E500DF09E500D11246E01FC
:104A3000C91AD108C29E7001C39EF00CD29EF00C20
:104A400011242F2D3327C21BD30BC09F9001C19F70
:104A5000300DD09F300D1124932F6230710591F0ED
:104A600048F461157105E1F061307105B9F49E2FCC
:104A7000E52F16C06430710569F040F066307105AD
:104A800079F00CC09E2FEB2F832F0AC0EB2F8F2FB6
:104A9000952F06C09B2F8E2FE32F02C09B2F852FB3
:104AA0007E2F692FDF91CF911F910F91FF90EF9093
:104AB000DF90CF9008950E94482C20918F03211100
:104AC00004C020919003222321F090938C038093C3
:104AD0008B0320919103211104C020919203222382
:104AE00021F090938A0380938903E0917305F091FC
:104AF0007405309749F082E080938D030480F5813E
:104B0000E02D8DE893E009940895803F39F4809179
:104B1000900387FF6AC01092900367C0813F29F419
:104B2000809190031816BCF360C090918F03823F70
:104B300029F497FF5AC010928F0357C0833F19F48E
:104B40001916CCF352C090919103893F31F4191694
:104B50000CF04BC01092910348C08A3F19F497FFA4
:104B600044C0F8CF8B3F39F48091920387FF3DC05A
:104B7000109292033AC08C3F29F480919203181648
:104B8000BCF333C0843F21F480918E038E7F17C025
:104B9000853F21F480918E038D7F11C0863F21F4E3
:104BA00080918E038B7F0BC0873F21F480918E0311
:104BB000877F05C0883F31F480918E038F7E80937C
:104BC0008E0313C08D3F21F4809188038E7F0BC02C
:104BD0008E3F21F4809188038D7F05C08F3F29F49B
:104BE000809188038B7F8093880380918F0381114C
:104BF00006C080919003811102C0109287038091BA
:104C00009103811106C080919203811102C010921C
:104C1000860308958091880380FD16C081FD16C02B
:104C200082FD18C080918603882391F0883290F429
:104C300028E0829FC001112468E270E00E94DB340A
:104C4000862F672B29F007C082E0089584E008953D
:104C500081E0089588E008958091880380FD14C064
:104C600081FD14C082FD16C080918703882381F0E6
:104C7000843180F422E3829FC001112464E170E05A
:104C80000E94DB34862F08958CE0089589E1089511
:104C900085E0089582E30895803F21F40E942C2648
:104CA000819504C0813F29F40E942C2680939003B3
:104CB0000895823F21F40E942C26819504C0833FF1
:104CC00029F40E942C2680938F030895893F19F4BC
:104CD0000E940A2605C08A3F31F40E940A26819567
:104CE0008093910308958B3F21F40E940A268195B9
:104CF00004C08C3F29F40E940A26809392030895F1
:104D0000843F21F480918E03816017C0853F21F498
:104D100080918E03826011C0863F21F480918E03C2
:104D200084600BC0873F21F480918E03886005C0AA
:104D3000883F31F480918E03806180938E030895C3
:104D40008D3F21F48091880381600BC08E3F21F458
:104D500080918803826005C08F3F29F48091880389
:104D6000846080938803089580E0089590912602DE
:104D700092FF0DC0282F2871283019F4877F846096
:104D800006C0282F2471243011F48B7F886093FF94
:104D90000DC0282F2871283119F4877E846106C040
:104DA000282F2471243111F48B7E886120912702F1
:104DB00020FF0DC0382F3871383019F4877F81609B
:104DC00006C0382F3171313011F48E7F886021FF99
:104DD0000DC0282F2871283119F4877E816106C003
:104DE000282F2171213111F48E7E886194FD877EF8
:104DF0000895F894E82FE295EF70F0E031A1282FA4
:104E00002F7081E090E001C0880F2A95EAF7982F73
:104E10009095932391A392A1892B82A378940895CE
:104E20008F929F92AF92BF92CF92DF92EF92FF92BA
:104E30000F931F93CF93DF93CDB7DEB728970FB6AD
:104E4000F894DEBF0FBECDBFAE014F5F5F4F7A015A
:104E500088E0DA011D928A95E9F70EE111E06A0116
:104E6000AA24A394B12CF80180818F3F09F44DC08E
:104E7000F894E82FE295EF70F0E021A18F70A50182
:104E800002C0440F551F8A95E2F7CA01922F982B52
:104E900091A392A18095892382A3789400C0E2E235
:104EA000F1E020E030E0812C912C81918F3FC1F026
:104EB000A82FA295AF70B0E090964C9150E08F7003
:104EC000DA0102C0B595A7958A95E2F7A0FD08C062
:104ED000C501022E02C0880F991F0A94E2F702C092
:104EE00080E090E0882A992A2F5F3F4F2C303105CF
:104EF000E1F6F80180818F3F11F00E94F926F0EA77
:104F0000FA95F1F7D6018D929C920F5F1F4FB2E098
:104F1000CB0ED11CE1E002321E0709F0A4CF48E01D
:104F200050E0B70188E292E00E943D3511E0009721
:104F300009F410E0892B89F088E0F701A8E2B2E0DB
:104F400001900D928A95E1F781E0809371040E94AF
:104F5000482C9093700480936F048091710488238F
:104F600051F180916F04909170040E942D2C05974F
:104F700010F180912802909129029093460380932A
:104F8000450380912A0290912B02909348038093CD
:104F9000470380912C0290912D0290934A038093B5
:104FA000490380912E0290912F0290934C0380939D
:104FB0004B031092710480911201882341F180917A
:104FC0006F0590917005009711F10E942D2C209192
:104FD000C9043091CA0428173907C8F490916D05A7
:104FE00080916E05981759F00E94882D1092CA047E
:104FF0001092C9041092700510926F0508C00E94AB
:105000000A2D1092700510926F050E94692D812F54
:1050100028960FB6F894DEBF0FBECDBFDF91CF91BB
:105020001F910F91FF90EF90DF90CF90BF90AF90C6
:105030009F908F900895CF93DF938238910569F107
:10504000B0F48133910509F46FC048F489329105B9
:1050500009F465C08A32910509F46BC08AC08533B2
:10506000910509F457C089339105B9F082C0833E98
:10507000910571F138F4803E9105B1F0823E9105C1
:1050800011F177C0863E9105B9F1873E9105C9F1CE
:10509000843E910509F06DC024C02091260220FDB8
:1050A00053C021FD51C065C08091260280FD46C0DD
:1050B0008091270280FF48C08091260284FD50C164
:1050C00083EE90E04FC18091260282FF3AC0F4CF78
:1050D0008091260282FD35C08091270280FD34C078
:1050E000EBCF8091270281FF35C08091260284FD9D
:1050F00037C187EE90E036C18091260283FF27C03A
:10510000F4CF8091260283FD22C08091270281FD89
:1051100021C0EBCF8091260285FD1FC021C0809168
:10512000260285FD1DC019C08091260286FD1BC088
:105130001DC08091260286FD19C015C089E390E04C
:1051400011C182EE90E00EC180EE90E00BC186EEC0
:1051500090E008C184EE90E005C189E290E002C1D0
:1051600085E390E0FFC08AE290E0FCC081E390E03C
:10517000F9C0811531E5930708F069C0811540E554
:105180009407F0F09C0174E0369527957A95E1F745
:10519000922F9370482F437021E030E002C0220F1D
:1051A000331F4A95E2F73C68392B982F9F709695EC
:1051B000969540E2949FC0011124822B932BD2C07C
:1051C000883E910568F5803E910508F0CBC0883A8D
:1051D0009105B8F4853A910548F0855AE82FF0E03A
:1051E000ED50FE4F808190E09064BCC0813091050D
:1051F00009F4B3C008F4B4C08430910508F4B0C019
:10520000B1C08F3B910508F0ABC0885AE82FF0E0A1
:10521000EE0FFF1FEA50FE4F808191819464A2C07F
:10522000811520E2920758F4811531E0930708F0C8
:1052300099C0803F910508F493C0906593C0811593
:1052400040E4940708F48CC09F70906A8BC081156D
:1052500025E5920708F042C0811534E5930728F050
:10526000982F8827846F906A7DC0811543E5940745
:10527000B0F09C012370332741E050E002C0440F9E
:10528000551F2A95E2F7282F2695269580E2289F1C
:1052900090011124CA01822B932B9A6863C0811557
:1052A00022E5920728F4982F8827816F906A5AC0C8
:1052B0009C012370332741E050E002C0440F551F8A
:1052C0002A95E2F7282F2695269580E2289F9001BF
:1052D0001124CA01822B932B9C6844C0EC018115D8
:1052E00039E59307A8F48115984528F09C2F882765
:1052F000806F906A37C0C11586E5D80788F58C2F76
:105300000E94B6268F7190E0982F882790622AC05D
:1053100081152AE5920790F48C2F8F700E94B62693
:1053200094E0D695C7959A95E1F7CF70D0E0DC2F41
:10533000CC27D0699E01282BC90114C09056811535
:10534000904270F48D2F8F710E94B626282F2F71F6
:10535000CE0199279062922B05C081E090E002C0B7
:1053600080E090E0DF91CF910895CF9384E090E0CA
:105370000E946D34C82F82E290E00E946D342C2F81
:1053800030E0A901582BCA01CF91089580E090E048
:105390000E9475348A3E9E4F11F40C94552380E090
:1053A00008956AEE7EEF80E090E00E94A93460E00C
:1053B00082E090E00E948B3460E083E090E00E9405
:1053C0008B3410926E0460E084E090E00E948B3495
:1053D00060E082E290E00E948B3460E085E090E043
:1053E0000E948B3460E086E090E00E948B346FEF87
:1053F00087E090E00E948B3440E050E0BA0188E002
:1054000090E00E949D3460E08DE090E00E948B343B
:1054100040E050E0BA0188E190E00E949D3460E0F5
:1054200087E190E00E948B3440E050E0BA018CE1CB
:1054300090E00E949D3460E070E080E290E00E9485
:10544000A93440E050E0BA0188E190E00E949D3428
:1054500080E00E9428230E94462340E050E0BA01E9
:105460008FE090E00E949D3440E050E0BA0183E17B
:1054700090E00C949D3480916D04882331F010925B
:105480006D0410926C0410926B040895CF93909168
:10549000270292FD0DC090916D04981749F0C82F16
:1054A0000E94482C90936C0480936B04C0936D040D
:1054B000CF910895809590916A04892380936A041E
:1054C000089590916A0480916904892B90916804F1
:1054D000892B8093120480916D04882311F10E941E
:1054E000482C20916B0430916C04821B930B8838FC
:1054F000934110F00E943B2A9091120480916D0418
:10550000892B80931204E4E1F4E097E080E091506D
:1055100029F021912223D9F38F5FF9CF81110E94C5
:105520003B2AE0917305F0917405309731F00280C9
:10553000F381E02D82E194E009940895CF93C09126
:105540002702C2FB992790F9981781F080FBC2F9D6
:10555000C09327026091260284E090E00E948B3481
:105560006C2F82E290E0CF910C948B34CF91089510
:1055700010926704109266041092650408952091B9
:1055800067048095822380936704982F977041F475
:1055900030E0482F082E000C550B2417350721F456
:1055A0009091270292FF07C08595859585950E9469
:1055B000C01A0C94B82A08959091270292FD10C049
:1055C00098E0899F90011124262B209367040E9464
:1055D000CC1A0E94482C9093660480936504089529
:1055E0000C94CC1A80916404811110926404089583
:1055F0008091630490912204891719F08F5F87705E
:10560000FBCF08951F93CF93DF9380911F04829562
:105610008F7009F05CC080911C04882309F457C086
:10562000809163041091220460911A0470911B040C
:10563000C0911D04D0911E0491E06F3F09F090E0ED
:10564000292F811709F443C0209721F07F3F21F0D3
:1056500030E003C031E001C0322F90E030FD34C0B3
:10566000FC0133E0EE0FFF1F3A95E1F7DF01AD5D7E
:10567000BB4F11963C911197371326C03C913613BE
:1056800023C012963C91129731111EC013964D9172
:105690005C9114974C1B5D0B483C5105A8F480911C
:1056A0001F048F70806180931F04E85DFB4F808131
:1056B0008F70806180838AE194E00E94EE10DF9118
:1056C000CF911F910C94F82A01968770BACFDF9181
:1056D000CF911F91089580916603089524E020934F
:1056E000E9002FEF3091E800215035FD06C035ED7F
:1056F0003A95F1F700002111F5CF2091E80025FF40
:105700000BC040E050E066E070E00E946F228091A4
:10571000E8008E778093E8000895CF93DF9321E02F
:105720002093E9002FEF3091E800215035FD06C0AD
:1057300035ED3A95F1F700002111F5CF2091E80001
:1057400025FF14C0EC0140E050E068E070E00E94EA
:105750006F228091E8008E778093E80088E0FE0158
:10576000A7E6B3E001900D928A95E1F7DF91CF9122
:10577000089590917A03943029F580937C05709375
:105780007E0560937D059093E9008FEF9091E8008E
:10579000815095FD06C095ED9A95F1F700008111B5
:1057A000F5CF8091E80085FF0DC040E050E063E058
:1057B00070E08CE795E00E946F228091E8008E7780
:1057C0008093E800089581E08093E00080E2809378
:1057D000D8001092C9008FE19EE40197F1F700C054
:1057E000000087E090EBDC0180937F0590938005BB
:1057F000A0938105B09382059CE088E10FB6F894F0
:10580000A895809360000FBE90936000FFCF7894BE
:105810001F920F920FB60F9211248F939F93AF9305
:10582000BF938091780590917905A0917A05B09108
:105830007B050196A11DB11D809378059093790594
:10584000A0937A05B0937B05BF91AF919F918F9103
:105850000F900FBE0F901F9018959C014FB7F894B2
:105860008091780590917905A0917A05B0917B059A
:105870004FBF821B930B08952FB7F8946091780562
:105880007091790580917A0590917B052FBF0895DD
:105890002FB7F8948091780590917905A0917A05B9
:1058A000B0917B052FBF08951F920F920FB60F92F4
:1058B00011248F939F93AF93BF93809177058111AC
:1058C00013C08091780590917905A0917A05B091E7
:1058D0007B054196A11DB11D8093780590937905B4
:1058E000A0937A05B0937B05BF91AF919F918F9163
:1058F0000F900FBE0F901F9018959C012A5F3F4F8D
:10590000FC014281461301C012820196821793075F
:10591000B9F708959C01FC0132969FEF80E0419118
:10592000461789F09F3F19F4411101C0982F8F5FEE
:105930008630A9F79F3F39F0F901E90FF11D97FD76
:10594000FA95628308950895209175053091760542
:105950002817390771F09093760580937505E091CB
:105960007305F0917405309721F00084F185E02DE6
:10597000099408952091710530917205281739070F
:1059800071F09093720580937105E0917305F09129
:105990007405309721F00680F781E02D0994089571
:1059A000E0917305F0917405309721F00190F0813A
:1059B000E02D099480E00895BC0140916D0580912F
:1059C0006E05942F981729F1292F30E0F901EE0F79
:1059D000FF1FEB59FA4F0190F081E02DE617F70712
:1059E00099F487E0869FF001879FF00D1124E35D15
:1059F000FA4F81E0848394130CC02F5F3F4F2370D4
:105A0000332720936D0508952F5F3F4F922F93709A
:105A1000D9CF08950F931F93CF93DF938091CC0438
:105A2000882309F451C0C091CB041CE08091CC04C0
:105A3000C81708F045C001E00C0F0093CB04D0E07C
:105A40001C9FF0011D9FF00D1124E353FB4F90812B
:105A5000818123813481232B31F08F3F31F481E028
:105A60009F3F19F403C081E001C080E080FD26C0A3
:105A70001C9FD0011D9FB00D1124A353BB4F169640
:105A80008D919C911797892B31F418968D919C914B
:105A90001997019651F420813181428153816481AB
:105AA0007581868197810E94E61A1C9FF0011D9FD7
:105AB000F00D1124E353FB4F14821382C02FB6CF95
:105AC0001092CC041092CB04DF91CF911F910F91D3
:105AD00008951092CA041092C904EDE2F5E08581A0
