:100000000C94E6030C942D040C942D040C942D04F4
:100010000C942D040C942D040C942D040C942D049C
:100020000C942D040C942D040C94881B0C94C41A6D
:100030000C946B220C942D040C942D040C942D0420
:100040000C942D040C942D040C942D040C942D046C
:100050000C942D040C942A220C942D040C942D0441
:100060000C942D040C942D040C942D040C942D044C
:100070000C942D040C942D040C942D040C942D043C
:100080000C942D040C942D040C942D040C942D042C
:100090000C942D040C942D040C942D040C942D041C
:1000A0000C942D040C942D040C942D04C609DC0929
:1000B000E3091B0A2C0A370A490A5C0AA20AA70AA2
:1000C000010B010B010BAF0A490F490F820F820F81
:1000D000D70FF30F581158113E10B210C310C310B0
:1000E000A212A212B512B512AB12B512B512B51208
:1000F000A212A212B012B512B512B012CC18F31897
:10010000A61AF318A61A3F196219A61A631A731AC7
:10011000FD377A585A000004E6D6B44602002101A1
:1001200016000000742FE5A3E0083A02325D003D9E
:100130008889C65436C3174FE4F1E112FDEF008EF3
:10014000FF6F9387B42647FBB729D03483DA2C4E50
:100150008C1ED4A2101D9A2C5F0D89D27368D260B8
:10016000BA373DA8E3D3B6E9EEFE41AA1609B24B71
:10017000AA6CAED770B8FA763BEC87BCD647C9C339
:10018000D7F4FC328CD9DA11ACA1A803FD9737F271
:10019000EDAD312858895EF8982C667A7EB19F893A
:1001A00017FB0BEC0D0704D3D451C9A9618D85F35E
:1001B000ECB151F4A55C2E98C18C6B1A234DFC89CF
:1001C000E7AA7B362165C87FEA7CC184DA5B747953
:1001D00026A41C278A34D6E9451C2F6EBC9F8E1D91
:1001E0002BADE87C74A4F843BD8385EC9A5376313B
:1001F0009F7E36BEA466180AD3AAEF168657B95B4F
:10020000907069CEE6BE08226BFC9C33B945C40DE4
:1002100084025A98B2391A04111EA725C2F9A02CDB
:10022000A36528AF15A3670FA2498CE7B8FC0A3A6B
:100230002060DC91725BC8702ABF02C13D8306CB8F
:10024000E1B9B275CFC4D2F2E58E080E84F02C9AD3
:100250001642C46302B70D6B3707009B4E19A127E6
:10026000A7813DF1EDAFE50565A3863B1AD132705C
:10027000A8B51A3CDC6E00DE5AE67FDD96C1AB52B3
:100280003D9BDA22139C7E60AB8BD7600CFAD7CBF8
:1002900096A5050FC34E975B5557C353576F533AF7
:1002A000B27438713EEB0C07A8E2CEB398801859AF
:1002B000E51BFB6B9E5F04EB14E89602228CC0F4F6
:1002C0002C0D600F67B2EA82017F6ABABCA0DE73B0
:1002D0005CAA9E418FDD9077D06EA676B0AF847E0B
:1002E0008F0D81ED8AD290DD1E34FC2C631E2F5CB5
:1002F000E68EE379FDA4224CBF14780CC7ACB95943
:10030000DBA62E4428A4869625C2DE7B24CBA65BE2
:10031000608E5C6276FFDA614B2D5740815DF94952
:10032000E53D6E8CCE2449C350BF7C6B235F78E2E1
:1003300070CAEDDF95E0BFC1818FCA2CC7FC90B6B3
:1003400052E7C44E69751656C2EDFBA116084C3132
:10035000FE9970AF1ECAE9501CA0872D492C0314CA
:1003600000000000A007AE328E000B010001CE0499
:10037000BB100000326762CBB1C467FB0200000013
:100380000004595A2E200005010902A10185020925
:1003900001A100050919012905150025019505751B
:1003A00001810295017503810105010930093115AB
:1003B00081257F95027508810609381581257F956D
:1003C0000175088106050C0A38021581257F950103
:1003D00075088106C0C005010980A10185031901C6
:1003E0002AB700150126B700950175108100C005D8
:1003F0000C0901A101850419012AA002150126A0FA
:1004000002950175108100C00660FF0961A1010914
:1004100062150026FF00952075088102096315000A
:1004200026FF00952075089102C005010906A1016B
:10043000050719E029E715002501950875018102D6
:100440009501750881010507190029FF150026FF90
:10045000009506750881000508190129059505759F
:10046000019102950175039101C009025B0003012E
:1004700000A0FA0904000001030101000921110193
:1004800000012240000705810308000A0904010059
:1004900002030000000921110100012222000705CA
:1004A0008203200001070503032000010904020064
:1004B000010300000009211101000122810007054C
:1004C000840320000A1201000200000008FEFE3B27
:1004D000FF0100010203011C037600690061006C4A
:1004E000003A0066003600340063003200620033D8
:1004F0000063000000240373006100640065006B6A
:10050000006200610072006F0075006400690020E5
:1005100000660066006B00620000001A0373006151
:1005200000640065006B006200610072006F00757E
:100530000064006900000004030904290014001A83
:10054000000800150017001C0018000C0012001312
:10055000002A002B0004611668076409620A000B78
:10056000000D720E740F7833713400E1001D001B12
:100570000006001900050011001000360037003891
:1005800000E5000000A80000003100280001510231
:10059000512C004C002B042A01000001001E021FF8
:1005A000022002210222022302240225022602271F
:1005B00002010001000153015301530153010001E5
:1005C000002D022E022F023002010001003900012D
:1005D00000010001000100010001000100310234AE
:1005E0000201000000010000000100010001000301
:1005F000510100010001000100000035001E001F34
:1006000000200021002200230024002500260027CE
:100610000001004A005000510052004F002B000121
:10062000002D002E002F0030000100010001004EBF
:10063000004B000100815F845F825F835F010001E6
:100640000001000000010000000100010003510151
:1006500000010001000100010000000100C25CC4B3
:100660005CC35C010001003A003B003C003D003EE1
:100670000001000100CB5CC55CC75CC95C01003FA8
:1006800000400041004200430001000100CC5CC674
:100690005CC85CCA5C010044004500010001000028
:1006A0005C010000000100000001000100010001E8
:1006B0000001000100010001000000010001000133
:1006C0000001000100010001000100010001000122
:1006D0000001000100010001000100010001000112
:1006E0000001000100010001000100010001000102
:1006F00000010001000100010001000100010001F2
:1007000000010000000100000001000100010001E3
:1007100000010001000100010000000000000000D5
:1007200000000000000000000000000000000000C9
:100730000000000000000000000000000000007E3B
:100740000F00D4FFFFFFC70000007800000000008A
:100750000000002A2B28000000000000000000001C
:1007600000000000000029000000002C1E342021A1
:100770002224342627252E362D3738271E1F2021E8
:1007800022232425263333362E37381F0405060747
:1007900008090A0B0C0D0E0F101112131415161761
:1007A00018191A1B1C1D2F3130232D35040506077F
:1007B00008090A0B0C0D0E0F101112131415161741
:1007C00018191A1B1C1D2F3130354C0011241FBE67
:1007D000CFEFDAE0DEBFCDBF04B603FE27C08091C5
:1007E000510390915203A0915303B0915403873069
:1007F000904BA740B04BD1F410925103109252038A
:10080000109253031092540314BE84B7877F84BFA1
:100810000FB6F894A895809160008861809360007D
:10082000109260000FBEE0E0F8E3099511E0A0E04F
:10083000B1E0E4EDFCE502C005900D92A636B107EB
:10084000D9F723E0A6E6B1E001C01D92A135B207B9
:10085000E1F70E942F040C94682E0C940000CF93B3
:10086000DF93CDB7DEB7C654D1090FB6F894DEBF1B
:100870000FBECDBF84B7877F84BF0FB6F894A8950D
:1008800080916000886180936000109260000FBECC
:1008900090E080E80FB6F894809361009093610037
:1008A0000FBE85B7806885BF85B7806885BF82EE3B
:1008B0009CE190936701809366010E944B260E9401
:1008C000081B0E94271B8091E20084608093E20055
:1008D00078948091D5018823A1F01091E9001F70D0
:1008E0009091EC00892F817090FD80E8182B109278
:1008F000E9008091E80083FD0E94E6171F701093C5
:10090000E90082E084BD93E095BD9AEF97BD8093A6
:100910006E000E94DC2A811102C00E94CD2A05E1EE
:1009200011E079E1E72E71E0F72EF80181918F0156
:100930008F3F11F00E94271DE016F106B1F709E183
:1009400011E065E2E62E61E0F62EF80181918F015B
:100950008F3F11F00E94271DE016F106B1F71092AB
:100960006B0110926A011092A1011092A0011092E5
:100970006D0110926C011092A3011092A2011092CD
:100980006F0110926E011092A5011092A4011092B5
:100990007101109270011092A7011092A60180E0DF
:1009A00090E00E94F12D8A3E9E4F21F40E94DC2AA5
:1009B000811102C00E94E91E82E090E00E94E92DB0
:1009C000809393010E94D81E9093690180936801DF
:1009D0000E941C208FE39CE90197F1F700C0000002
:1009E0000E941C208091A00180FF08C06FEF7FEF64
:1009F00080E090E00E94152E0E94062283E090E0A5
:100A00000E94E92D0E9406150E94422C19821A822A
:100A10001B821C8204E610E024E030E0FE013196E7
:100A20007F01AF0160E084E10E94432D80E091E00E
:100A3000909339038093380358EA252E51E0352EE0
:100A40008091D501853009F045C000E112E1809127
:100A5000D501853009F03AC08091D501843021F16B
:100A600010923C0328E130E040E40FB6F894A895DA
:100A7000209360000FBE4093600083B7817F846045
:100A800083BF83B7816083BF7894889583B78E7F57
:100A900083BF0FB6F894A895809160008861809319
:100AA0006000109260000FBE8091CB01882309F492
:100AB000CECF0E941C20E0EAF1E081919191892B38
:100AC00009F0A3C52E163F06C1F7C1CF0E940A1533
:100AD0000E94F5220E941C20882359F08FB7F894B9
:100AE00040913D0350913E0360913F03709140035C
:100AF0008FBFE0EAF1E0A4E9B1E000E010E0702F80
:100B0000219131918D919D9182279327009799F1A1
:100B100060E0CC24C394D12CAC014C215D21452B49
:100B200029F16DAF7EAF2C213D2181E0232B09F40B
:100B300080E08FAF0E945F228160782F22969FAF66
:100B40008EAF22974DAD5EAD6FAD22968FAD2297E1
:100B50000E945928000F111FF801EC56FE4F8081AA
:100B60009181C826D926D182C0822BC06F5FCC0C60
:100B7000DD1C6C3089F60F5F1F4F0430110509F042
:100B8000BECF8FEF23968FAF239724968FAF2497F6
:100B900025961FAE25970E945F228160782F2796A9
:100BA0009FAF8EAF279723964FAD239724965FADC7
:100BB000249725966FAD259727968FAD27970E948E
:100BC000592886E0EBE4F3E0D70101900D928A9575
:100BD000E1F7C0904D03D0904E0300914F03109168
:100BE000500310924D0310924E0310924F03109237
:100BF0005003C11003C0DD2009F451C080914903A6
:100C000090914A030E9450229C01909145039923A0
:100C100009F41AC52333310508F441C09F3F19F088
:100C20009F5F90934503CC2061F00E949C2B1C1485
:100C300014F491E001C09FEF899F802D11248093CF
:100C40004D03DD2061F00E949C2B1D1414F491E0F3
:100C500001C09FEF899F802D112480934E03309116
:100C60004D033323E1F020914E032223C1F045EBE5
:100C70003403C0011124992319F090934D0303C04C
:100C800081E080934D0335EB2303C00111249923A8
:100C900019F090934E0303C081E080934E0301113D
:100CA00003C0112309F451C0809147039091480378
:100CB0000E9450229C0190914403992309F4C9C4D5
:100CC0002536310508F441C09F3F19F09F5F90938E
:100CD0004403002361F00E947A2B101614F491E073
:100CE00001C09FEF899F802D112480934F03112312
:100CF00061F00E947A2B111614F491E001C09FEF6D
:100D0000899F802D11248093500330914F0333230A
:100D1000E1F0209150032223C1F045EB3403C001E0
:100D20001124992319F090934F0303C081E080931D
:100D30004F0335EB2303C0011124992319F090933D
:100D4000500303C081E08093500380914D038111D3
:100D50000BC080914E03811107C080914F03811118
:100D600003C08091500381110E94242CCB82DC822D
:100D70000D831E8386E0F701ABE4B3E001900D9292
:100D80008A95E1F7809191018A3008F0E0C0809166
:100D90008F01909190010E945022089708F4D7C0CB
:100DA00004E610E025E030E04AE851E064E084E148
:100DB0000E94702D892B09F06BC01092910186E082
:100DC000E8E7F1E0DE01D19601900D928A95E1F716
:100DD00086E0FE01F196DE01D79601900D928A958C
:100DE000E1F786E0FE01F796A4E8B1E001900D92EC
:100DF0008A95E1F790918E018091850197FD3EC023
:100E00008E7F80938501809182019091830100976C
:100E100099F545E060918A0180918B010E94E82755
:100E20002091800130918101281B390B3093810181
:100E30002093800145E060918C0180918D010E949A
:100E4000E82720917E0130917F01820F931F9093BC
:100E50007F0180937E016EE771E086E891E00E9459
:100E6000C92760E871E087E891E00E94C9271092E5
:100E700089011092880111C0019705C0816080939B
:100E8000850184E190E0909383018093820105C005
:100E9000809191018F5F8093910186E0E4E8F1E019
:100EA000DE019B9601900D928A95E1F786E0FE01A6
:100EB000BB96A8E7B1E001900D928A95E1F73091D9
:100EC0007A0120917B0190917C0180917D0170914C
:100ED0007401609175014091760150917701F09114
:100EE0007301E0917901FE1312C0332311F07313E3
:100EF0000EC0222311F026130AC0882311F05813C4
:100F000006C0992331F081E0491304C002C081E09A
:100F100001C080E080FF04C088E791E00E94E722E2
:100F200010927A0110927B0110927C0110927D0147
:100F300086E0E8E7F1E0A2E7B1E001900D928A9542
:100F4000E1F70E945F229093900180938F010E94AD
:100F5000F52290919201891721F00E94F522809349
:100F600092018091D501843009F06ACD83E08093AD
:100F7000E9008091E80082FF63CD8091E80085FF61
:100F800021C00E945D1C81111BC0A0E2CA2ED12C81
:100F9000870109C08091F100F80181938F01F1E090
:100FA000CF1AD10869F08091E80085FDF3CF8091D8
:100FB000E8008B778093E8000E945D1C882399F3FA
:100FC00091E001C090E08091E8008B778093E80089
:100FD000992309F435CD0091890210918A02898103
:100FE0000115110561F08E3F09F00BC38A81833032
:100FF00008F4C0C18550833008F003C3BBC18B30F7
:1010000009F4A2C108F5853009F482C0A8F4823041
:10101000B9F130F4813009F0F2C21A8289E090C24D
:10102000833009F464C0843009F0E9C24C816B81DB
:101030008A810E940A266AC0873009F4E0C208F05B
:10104000DEC20E947D25DDC2803109F4C6C060F495
:101050008D3009F46AC008F466C08E3009F469C0A6
:101060008F3009F48EC0CBC2823109F4BBC008F4C2
:10107000B7C0833109F4DDC08E3F09F47BC1BFC224
:101080008A81823009F4D7C2833089F0813009F037
:10109000B6C22FB7F89480913D0390913E03A09182
:1010A0003F03B09140032FBFBB83AC832FC080911F
:1010B000870290918802892B09F4A3C28091A00134
:1010C0009091A1019B838C838091A2019091A301B7
:1010D0009D838E838091A4019091A5019F83888731
:1010E0008091A6019091A70199878A878AC28A81F7
:1010F000823009F084C26B817C818D819E810E9447
:101100004D2E86E290E00E94F72D7BC29D839AC20D
:101110002D813E813227232732274C816B818A81A2
:101120000E9447256EC280E127C281E08A838DE656
:1011300007C20A811B81102701271027AC80B12C20
:101140002DE1A216B10408F05CC26701C8018D56FA
:101150009D4F96012E193F092A153B0508F051C2F3
:101160000D3631E0130728F40E94E92DF60184833F
:1011700002C0F60114820F5F1F4FFFEFCF1ADF0A84
:10118000E5CF8091870290918802892B09F439C2BA
:101190000A811B81102701271027CC80D12C2DE13B
:1011A000C216D10408F02DC25701C8018D569D4FBB
:1011B00095012E193F092C153D0508F022C20D3668
:1011C00031E0130720F4F50164810E94F72D0F5FD1
:1011D0001F4FFFEFAF1ABF0AE8CF0E94CF2411C202
:1011E00085E0CAC10A811B81102701271027AC8026
:1011F000B12C2DE1A216B10408F003C26701C801A9
:10120000879696012E193F092A153B0508F0F9C16A
:10121000003E31E0130728F40E94E92DF601848393
:1012200002C0F60114820F5F1F4FFFEFCF1ADF0AD3
:10123000E6CF0A811B81102701271027AC80B12C33
:101240002DE1A216B10408F0DCC1003E31E0130725
:1012500008F0D7C180EE91E0801B910B8A159B05A9
:1012600008F4CFC1380147E2640E711C80918702F7
:1012700090918802892B11F067015DC000FF0FC0BB
:10128000C80186960E94E92D90E0982F88272D812D
:10129000822B81159C4531F48FEF8D8303C0C12CC7
:1012A000D12C03C0CC24C394D12CC501800F911F35
:1012B000450180FF1BC0F1E08F1A910865E0462EC2
:1012C000512C4C0E5D1E480C591CC3018A0D9B1DF0
:1012D0000E94E92DF201208130E0322F2227282BB5
:1012E00021153C4519F48FEFF2018083F701EC0DD5
:1012F000FD1D2FEFCF018E199F098815990508F064
:10130000BBCF848190E0982F88273581832B81156E
:101310009C4511F4248325833296ECCF003E41E0B6
:10132000140720F4F60164810E94F72D0F5F1F4F10
:10133000FFEFCF1ADF0AC801879696012E193F09E1
:101340002A153B0558F35DC1809187029091880270
:10135000892B09F456C1C7010E94BC1C2FEF31EE46
:1013600044E0215030404040E1F700C000000E94BE
:10137000062247C1EA818E2F90E08E30910508F059
:1013800040C1FC01EA5AFF4F0C94472E88E0EDE083
:10139000F1E0DE01919601900D928A95E1F780E2ED
:1013A000F70111928A95E9F784E0898388E0FE01CC
:1013B000B196DE011596FFC084E7898382E08A83B7
:1013C0001B821C821EC18C8190E0982F88272B8164
:1013D000820F911D092E000CAA0BBB0B45E0880F54
:1013E000991FAA1FBB1F4A95D1F7AC01BD01405EF2
:1013F0005F4F6F4F7F4F481759076A077B0708F405
:1014000000C18437F2E09F07A105B10508F0F9C0DB
:10141000453722E052076105710520F044E752E0AC
:1014200060E070E0481B590BBC01605F7E4FC70154
:101430000E94D02DE6C01B810C8140E0602F812FDF
:101440000E94172599838A8341E0602F812F0E9493
:1014500017259B838C83D5C02E813F81322723277C
:1014600032274D816C818B810E94DF24CAC040E20B
:1014700050E06FEF70E0C7010E94612E80918702FB
:1014800089830A8385E08B8386E08C831D821E829C
:10149000B8C081E090E090938A028093890282E351
:1014A00090E090939F0180939E010E945F22909311
:1014B0009D0180939C01A5C0012BD1F18091AA01CF
:1014C0009091AB0126E0969587952A95E1F71091CA
:1014D000A0011170182380919C0190919D010E94A0
:1014E000502285369105F0F01123E1F00E945F2231
:1014F00090939D0180939C0180919E0190919F010A
:10150000019790939F0180939E01892B89F41092FB
:101510008A021092890281E090E090938802809381
:10152000870206C082E390E090939F0180939E0122
:10153000809187028983809189028A8380919E01AC
:101540008B835FC010928802109287025AC040E2DB
:1015500050E06FEF70E0C7010E94612E52C08B8196
:10156000833061F0843061F181114BC080E2F7017A
:1015700011928A95E9F788E08A8343C06C81CE0195
:1015800081962AE0FC0111922A95E9F7683060F40F
:10159000FAE06F9FB00111246D5B7D4F4AE050E08F
:1015A0000E94D92D80E001C08FEF89838AE0FE017F
:1015B000B196DE01129601900D928A95E1F721C055
:1015C0006C818AE0FE013596DE01919601900D92C4
:1015D0008A95E1F7683070F42AE0629FB001112427
:1015E0006D5B7D4F4AE050E0CE0181960E941B2E3C
:1015F00080E001C08FEF89830E944B2602C08FEFED
:101600008983C7010E94BC1C1BCA09BD19BD09B44E
:1016100000FEFDCF8091D8008F7D8093D80080910F
:10162000E00082608093E0008091E00081FDFCCFCB
:101630000E940A150CCA86E290E00E94E92D1B82E6
:101640001C821D828E83DDCF2D32314008F0E8CA26
:1016500026CB2D32314008F039CB77CB8F929F9239
:10166000AF92BF92CF92DF92EF92FF920F931F93B0
:10167000CF93DF9300D000D0CDB7DEB7FC018081DF
:10168000918123813481232B31F09F3F31F491E00C
:101690008F3F19F403C091E001C090E090FDCCC6EB
:1016A0006F0161E0CF010E9492278C01F6018281D7
:1016B000882309F49AC0980122513F452031310511
:1016C00008F07BC08FEF93E00E94E92D81117FC06D
:1016D0004EEEF42EF00E03E912E0FF2071F001153A
:1016E000F4E01F0709F473C0C8010E94E92D8111BD
:1016F00001C0FA940F5F1F4FF0CF19821A821B822C
:101700001C82AA24AA9478012FEFE21AF20AC801D7
:101710000E94E92D89831A82882309F458C08130F8
:1017200009F046C0480182E0880E911CC7010E9462
:10173000E92D8A83882309F44AC09FEF980F9330DC
:1017400060F4780193E0E90EF11CC4010E94E92DD8
:101750008B8381112DC08701D6CF843011F07401A5
:10176000FACFC4010E94E92DB82E7801E4E0EE0E14
:10177000F11CC80103960E94E92DBB2041F188238A
:1017800031F1282F30E021503109A29EA001A39E03
:10179000500D11248B2D90E00197840F951F019718
:1017A000D0F2EFE9FFE03197F1F700C00000F7CF8A
:1017B000CE0101960E943727CECF00319FE5190751
:1017C00009F09AC581E00E94FB140E94DB1780910A
:1017D0002C02877009F430C6F6018281882309F44F
:1017E0002BC682E00E94861F27C60031FFE51F0737
:1017F00011F481E005C001312FE5120721F482E0E8
:101800000E94EF14E2CF9091A801911105C0909130
:10181000AB01992309F4B7C098013056211590E225
:10182000390720F0305E2115304140F4F6019581F2
:10183000907F09F4A8C07801FF2401C078019701C6
:1018400030542115354108F49EC09091AB0192307F
:1018500021F5882369F080912F02982F927219F058
:101860006894F1F80FC086FF0DC024E1F22A0AC087
:10187000C70195558F3F910511F008F05CC580E0D8
:101880000E94272181E08093AB01F092AA01E092AF
:10189000A9018FEF80930A019ACF882309F44BC5E1
:1018A000913009F05FC080910A019CE2E916F104D1
:1018B000D9F4882329F00E94FF2710920A0187CFCC
:1018C0008091A9019091AA0195558F3F910509F04A
:1018D00018F40E94531F03C08AE20E94C51610929A
:1018E000AB010E944F284FC0EAE2EE16F10421F44A
:1018F000815080930A0126C087FD34C081110BC03E
:101900008091A9019091AA0195558F3F910509F009
:1019100010F40E94FF2780910A018F5F80930A01D3
:10192000FDE2EF16F10471F040F484E0E81AF108EA
:1019300094E2E916F10480F405C0EDE2EE16E2E06F
:10194000FE0651F4F6018281882309F4F4C48091E3
:101950002F02811114C0D7C4F6018281882309F4B3
:10196000EAC40DC09AE2E916F10489F308F058C5FB
:10197000F4E0EF1AF10824E2E216F10440F30E94C9
:101980004F281092AB010238FFE51F0751F4F60112
:101990008281882399F181E08093AB018DE290E010
:1019A00017C003382FE51207D8F00338EFE51E07FC
:1019B00009F425C50438FFE51F0709F0CDC4F60179
:1019C00082818823D9F081E08093AB018DE292E09F
:1019D0009093AA018093A9018FEF80930A0113C00D
:1019E00000388FE5180709F436C101389FE519075B
:1019F00009F0B2C4F6018281811192C4F60182819C
:101A0000882309F4B8C110928D020230FCE51F074B
:101A100008F49BC106312CE5120730F0C8018A5F3B
:101A20009C45099708F091C10E94D81E90936901C6
:101A30008093680100318CE5180709F4C3C008F0F1
:101A400041C00830ECE51E0709F49AC0F0F40430F8
:101A50002CE5120709F487C068F402309CE51907E9
:101A600009F477C003301C4509F0E5C08091680196
:101A7000826076C00630FCE51F0709F46EC008F0EE
:101A80007BC08091680188606BC00C308CE51807C2
:101A900009F485C068F40A30ECE51E0709F474C047
:101AA00008F079C00E940A1580916801806858C0CA
:101AB0000E302CE5120709F476C008F07FC0809143
:101AC00068018BC00B3F9CE5190709F44FC018F55E
:101AD0000331FCE51F0709F47DC078F401318CE582
:101AE000180709F473C002311C4509F0A4C00E9414
:101AF0000A15809168018F7733C00531ECE51E0728
:101B000009F472C008F486C00A3F1C4509F093C06E
:101B1000809169013EC00F3F8CE5180709F45FC052
:101B200058F40D3FECE51E0709F444C008F43FC02B
:101B30008091690182602DC001302DE5120709F402
:101B400075C008F45DC002301D4509F074C060E046
:101B50006EC080916801816003C0809168018061DE
:101B60008093680168C08091680111C0809169010B
:101B70008260809369015FC0809168018062F0CFCC
:101B8000809168018064ECCF8091680188608460F6
:101B9000E7CF8160EECF809168018E7FE1CF8091A9
:101BA00068018D7FDDCF80916801877FD9CF8091DB
:101BB000690118C0809169018D7FDBCF8091680138
:101BC0008F7ECECF809168018F7DCACF80916801D2
:101BD0008F7BC6CF80916801877F8B7FC1CF80913B
:101BE00069018D7F8E7FC5CF8091680182FB22279E
:101BF00020F991E0922790FB82F990FB83F9B0CF16
:101C000080916901982F909591708E7F892B90FB20
:101C100081F9AFCF0E940A158091680187FB2227C6
:101C200020F991E0922790FB87F99ACF61E08EE04E
:101C300090E00E94F72D609168011091690184E0A5
:101C400090E00E94F72D612F82E290E00E94F72D34
:101C50000E940A15BCCDF6018281882309F4CECEFC
:101C600024E8A22E23E0B22E3AE0932EF5018491CF
:101C7000882309F45AC0813009F04FC07501FFEF85
:101C8000EF1AFF0AF7018491813049F47501F2E0FF
:101C9000EF0EF11CF70184910E94C51641C08230FD
:101CA00049F47501F2E0EF0EF11CF70184910E94F6
:101CB000211636C0833049F47501F2E0EF0EF11CB5
:101CC000F70184910E94C1152BC0843049F575013C
:101CD000F2E0EF0EF11CF701249180E090E030E09B
:101CE000205331092A30310570F4989EA001999E45
:101CF000500D1124C901840F951FFFEFEF1AFF0A41
:101D0000F7012491ECCF009759F0EFE9FFE031970C
:101D1000F1F700C000000197F6CF0E94D1267501AF
:101D20005701FFEFAF1ABF0AA1CF8091320281FDA8
:101D300065CE0E945F2290933102809330028091A1
:101D4000320282608093320259CE0631ECE51E07E2
:101D500011F580912F028A7A91E009F490E0909336
:101D6000AC01882311F065E301C069E287ED91E0E1
:101D70000E94A1220DC006311C45F1F58091AC01F5
:101D8000882309F44BC365E387ED91E00E94942218
:101D90000E943B211CCD0A35EDE51E0741F150F4B0
:101DA00001152CE51207A9F00E3D1C4529F50E94EE
:101DB000E91E0DCD0B359DE51907D9F00C351D45F4
:101DC000D9F48091690182FB882780F991E0892705
:101DD00011C00E940A15FFEF24E38CE0F15020406F
:101DE0008040E1F700C000000E940622F0CC81E0B4
:101DF00001C080E00E94651FF601868197810097EF
:101E0000B9F4F601828100811181882349F0C8016B
:101E10000E944A12F82E682FC8010E94BE1404C006
:101E2000C8010E948E14F82EB8018F2D0E9438260A
:101E30000E943E1D8C01F601E2808581F82EF2940D
:101E40009FE0F92280912C02877099F0EE2089F0B2
:101E5000812F807F803421F080E2800F883048F02D
:101E600082E00E94861F80912C028770BB24B3946D
:101E70008111B12CA12EA2948FE0A8228A2D90E08E
:101E80008C30910508F014C2FC01EC59FF4F0C9402
:101E9000472E812F807F1F70882311F01295107FAD
:101EA000EE20B9F0112309F4E6C180E2800F8830FA
:101EB00010F0011106C090912F02192B10932F02E0
:101EC00005C090912E02192B10932E020E943B21E7
:101ED000D2C1802F0E94C115112309F4E9C180E20B
:101EE000800F883010F0011104C0812F0E945E1F06
:101EF00006C0109590912E02192310932E020E9475
:101F00003B21D6C1812F807F1F70803211F0129546
:101F1000107F002319F00130B1F141C0EE20E9F04B
:101F2000FF20B9F0F1E0FF1206C080913202812B50
:101F30000E942721BDC125E0F2120BC00E94531F51
:101F400080912902181310932902812F0E94B7153E
:101F5000AFC180913202812BF9CFFF2051F081E097
:101F6000F8120DC080912F02812309F4A1C10E94B3
:101F7000A31F0E94531F812F0E94B01599C195E0A5
:101F8000F912F7CF95C1EE2029F0E5E0EF1508F43E
:101F90008FC1DBCFF4E0FF1508F48AC1ECCFEE204F
:101FA00019F0FF2091F267C1F1106CC1E4CF812FCD
:101FB00086958695837019F0813059F079C1EE20AD
:101FC00019F0C801937002C080E090E00E94D12215
:101FD00075C1EE2019F0C801937002C080E090E056
:101FE0000E94BB226BC1802FEE2049F10E94BC2BC6
:101FF000063FC1F048F4043F81F0053FE9F462E098
:1020000081E00E94E1162CC0073F89F0083FA1F44F
:1020100060E181E00E94E11629C061E081E00E9458
:10202000E1161CC064E081E00E94E1161BC068E07C
:1020300081E00E94E11618C00E94242C02C00E9478
:10204000F52A063F79F028F4043F41F0053F41F0BE
:1020500012C0073F49F0083F49F00DC061E007C0DA
:1020600062E005C064E003C068E001C060E180E0B8
:102070000E94E11623C10E94242C20C1812F83706D
:10208000A9F5E11019C1402F429546954770440FBC
:10209000440F802F8F7090E09C01042E01C0220F0E
:1020A0000A94EAF704FF08C08FE090E001C0880FAF
:1020B0004A95EAF7809501C080E016951695137051
:1020C000123069F088F490913302113019F0822BAC
:1020D000892302C0922B892B0E940615EDC0822B0A
:1020E000909133028927F8CF822BF6CFEE2019F09A
:1020F000812F817001C08695882309F4DDC0402FAF
:10210000429546954770440F440F802F8F7090E0A2
:102110009C01042E01C0220F0A94EAF704FF08C0B4
:102120008FE090E001C0880F4A95EAF7809501C0E2
:1021300080E0169516951370123059F078F490914E
:10214000D601113019F0822B892309C0922B892BDB
:1021500006C0822B9091D601892701C0822B0E9454
:10216000EB14AAC01F70EE2039F0812F0E94FB14DF
:10217000802F0E94B715A0C0802F0E94B015812F1C
:102180000E94EF1499C0023F41F128F4003F41F052
:10219000013FE1F06BC0033F39F1043F91F166C0AC
:1021A000EE2079F084E08F1508F482C01F7181E081
:1021B00090E001C0880F1A95EAF79091D60189271F
:1021C0001DC095E09F1508F473C0F0CFEE2039F0E4
:1021D000812F8F710E94FB146BC0EE20C9F3812FF9
:1021E0008F710E94EF1464C0EE2039F01F7181E0FE
:1021F00001C0880F1A95EAF701C080E00E94EB1435
:1022000057C0EE20D9F0809129020E945E1F809174
:102210002C028770843039F40E947F1F812F8F71C8
:102220000E94EF1467C0E4E0EF1508F463C01F716B
:10223000812F0E94FB1463E0812F11C090912F0227
:1022400080912902892B80932F02F4E0FF1550F42E
:102250000E947F1F0E94A31F64E0812F8F710E9444
:10226000782148C081E00E94861F44C0EE2039F0EA
:10227000FF2009F4ADCF802F0E94211619C0FF2046
:1022800009F4ADCF093341F42FEF87EE93E02150ED
:1022900080409040E1F707C0EFE7F8E321E0E1502C
:1022A000F0402040E1F700C00000802F0E94C115DF
:1022B00088EF8A0D843010F40E94F522BB20A9F02B
:1022C00080912C0280FD11C0F601128285958595C2
:1022D00085950E94FB14C6010E942E0B80912C0252
:1022E0008595859585950E94EF1460E0C6010E9452
:1022F0009227A2C0B12CE0CF0131EFE51E0709F013
:1023000082CA82E060CA0238FFE51F0709F43FCBAA
:1023100008F04BCB00388FE5180709F066CBA0CC4E
:1023200081E08093A8010E94F52281FD67CB89E3BB
:102330000E94C51663CB02382FE5120709F427CB9C
:1023400008F059C000389FE5190709F457CB013848
:10235000EFE51E0709F44ECB033F2CE51207A1F46D
:1023600006E221EE40EE63EF7CE50AC0073DFCE5A6
:102370001F0709F043CB06E221EE41EE67ED7CE555
:10238000C6010E945C2423CA043F8CE51807A0F410
:10239000083D9CE5190731F407E225EE45EE68EDAE
:1023A0007CE5EECF093DECE51E0701F708E221E0F0
:1023B00045EE69ED7CE5E4CF053F2CE5120731F4ED
:1023C00006E221EE42EE65EF7CE5DACF053F8CE5D3
:1023D000180730F407E225EE44EE64EF7CE5D0CF39
:1023E000063F9CE5190709F009CB07E225EE46EE0A
:1023F00066EF7CE5C5CF0338FFE51F0749F4F6011A
:102400008281882309F4FACA82E08093AB01FBCA77
:1024100004382FE5120709F4D2CA9ECF69E2B4CC82
:102420008DE2E816F10409F492CA9DE2E91692E001
:10243000F90609F0A4CA8BCA0F900F900F900F9065
:10244000DF91CF911F910F91FF90EF90DF90CF9090
:10245000BF90AF909F908F90089580E090E00E9491
:10246000D12280E090E00E94BB2210922E021092B6
:102470002D020E943B21EBE4F3E086E0DF011D9298
:102480008A95E9F71092450310924403109246038F
:102490000C94242CCF92DF92FF920F931F93CF9333
:1024A000DF936C010091D60180913302082BC7E0C5
:1024B000D0E010E0C8010C2E02C0959587950A94D3
:1024C000E2F780FD04C02197A8F7F12C09C0FC2E8B
:1024D000B6018C2F0E9438260E943E1D019799F369
:1024E0008F2DDF91CF911F910F91FF90DF90CF90B3
:1024F0000895CF93DF93EC010E944A12BE010E941F
:1025000038260E943E1DDF91CF910895FC018681FF
:102510009781009719F00E943E1D04C0808191812F
:102520000E947912292F2F70E92FE295EF704E2F1C
:1025300050E0FA013297EE30F105B8F4E059FF4F60
:102540000C94472E803F99F018F4883E70F40FC029
:10255000843F59F40CC0883E50F0813F31F407C0ED
:10256000822F869586958695089580E0089581E06E
:1025700008959F92AF92BF92CF92DF92EF92FF9217
:102580000F931F93CF93DF93CDB7DEB765970FB649
:10259000F894DEBF0FBECDBF8C0185E0F801DE01EF
:1025A000519601900D928A95E1F7F801E2809091A1
:1025B000DF016091E0014091E2015091E30141159A
:1025C000510531F06F3F31F481E09F3F19F403C0B2
:1025D00081E001C080E0F82FF1709F2E80FD4EC198
:1025E000F80130812181C380D4807FEDA72E71E076
:1025F000B72EF090E101F601E41BF50BFF2009F482
:10260000EFC08091E401E83CF10508F0AAC0482F32
:10261000407F09F05AC062131BC0931319C0609128
:10262000E5017091E601F80146815781641775074D
:1026300079F4FE2CE1100CC08F7080618093E4016E
:10264000C5010E942E0B8091E401F801858353C1DE
:10265000CD2831F02F3F31F481E03F3F19F403C022
:1026600081E001C080E080FD03C081E08E2502C0D2
:1026700080E090E0F82FF170FF2E80FF1CC0809169
:1026800028024091E701841709F413C190E0FC018E
:1026900053E0EE0FFF1F5A95E1F7E851FE4F5181CD
:1026A000251306C05081531303C05281E51203C0A5
:1026B00001968770E8CFFE2CEE2009F41CC18091B2
:1026C000E40181608093E40158C062130FC093134A
:1026D0000DC04091E5015091E601F8012681378156
:1026E0004217530719F4EE2009F4A7C0C8010E944D
:1026F0008612882381F1EE2071F12091E401822F6E
:1027000082958F7090E00297A4F08091DF01909104
:10271000E0019A8789871B86DD86CC862E8780918B
:10272000E5019091E601988B8F87CE0109960E9472
:102730002E0B88E0F801AFEDB1E001900D928A9583
:10274000E1F70E94B31F0AC06217C9F0C8010E94D6
:102750008612811127C0C8010E942E0BFF24F3941A
:10276000CAC0482F407F81F78FED91E00E942E0B69
:1027700088E0F50111928A95E9F7F12CBCC093131A
:10278000E5CF4091E5015091E601F80126813781BE
:1027900042175307D9F6E110D9CF8583C8010E94AB
:1027A0002E0B66C0EE20B9F22091E401822F8295B3
:1027B0008F7090E002970CF4BCCF8091DF01909174
:1027C000E0019A8389831B82DD82CC822E838091F3
:1027D000E5019091E60198878F83CE010196A7CFFE
:1027E000E83CF10508F044C0FE2CEE2009F4B3CF1C
:1027F000621330C093132EC02091E5013091E601A1
:10280000F801868197812817390721F59091E40115
:1028100090FD17C0892F82958F70282F30E02115E9
:10282000310579F095832F30310541F08F5F982F76
:102830009295907F85818F70892B8583C8010E9436
:102840002E0B88E0F801AFEDB1E001900D928A9572
:10285000E1F751C0C8010E94861281116ACF8091B0
:10286000E40181608093E401C8010E942E0B43C003
:1028700088E0F50111928A95E9F73DC0EE2009F450
:102880006ACFC8010E948612F82E882309F463CF0C
:1028900088E0F801AFEDB1E001900D928A95E1F783
:1028A0008091DF019091E0010E9479120E94B31F94
:1028B00022C0398B2A8B89899A890E947912292F03
:1028C00022952F70223028F49F7039F0811105C0B5
:1028D0000BC0243028F49F7049F4805E883020F0CB
:1028E000C8010E942E0B9F2CF92C05C0F801958180
:1028F000907F99F7F9CF8F2D65960FB6F894DEBFCC
:102900000FBECDBFDF91CF911F910F91FF90EF9040
:10291000DF90CF90BF90AF909F9008959E3F61F160
:102920002CE0929F800D1124682F66956695669520
:10293000982F977083E0689FB001112440E050E029
:1029400080E0FB01E40FF51FE355FE4F208130E0EE
:10295000092E02C0369527950A94E2F72170332795
:10296000042E01C0220F0A94EAF7822B4F5F5F4FBB
:102970004330510531F7089580E008959E3F51F1AD
:102980002CE0929F800D1124E82FE695E695E695C0
:10299000877051E001C0550F8A95EAF783E0E89F00
:1029A000F0011124E355FE4F20E030E070E040815B
:1029B000CB01022E02C0969587950A94E2F78170AA
:1029C000819584278523842781932F5F3F4F233070
:1029D000310569F708958093D6010C942D1221E0FA
:1029E00030E001C0220F8A95EAF720958091D60148
:1029F00082230C94EB1421E030E001C0220F8A9571
:102A0000EAF78091D601822B0C94EB148093330269
:102A10000C942D1210922F0286E0E9EDF1E0DF0117
:102A20001D928A95E9F70C942D12CF93DF93CDB7C1
:102A3000DEB760970FB6F894DEBF0FBECDBF298713
:102A40003A874B875C876D877E878F87988BCE010F
:102A500009960E94B912811151C088E0FE01399691
:102A6000DE01119601900D928A95E1F779856A85CC
:102A70004C855D854115510531F06F3F31F481E0A2
:102A80007F3F19F403C081E001C080E080FD36C0C3
:102A9000A091E701B0E0CD010196877099272091C0
:102AA000280230E08217930781F179836A835D837E
:102AB0004C8393E0AA0FBB1F9A95E1F7A851BE4F34
:102AC00098E0FE01319601900D929A95E1F780937E
:102AD000E7010E94A91F12C028E0829FC0011124B3
:102AE00088519E4F0E94B9128823E1F080912802FC
:102AF00090E00196877099278093280280912802A0
:102B00009091E7018913E8CF0DC00E940A15109239
:102B1000E70110922802EFEDF1E088E0DF011D925D
:102B20008A95E9F760960FB6F894DEBF0FBECDBF69
:102B3000DF91CF910895882341F0809590912E02E6
:102B4000892380932E020C943B210895882339F029
:102B500090912E02892B80932E020C943B21089594
:102B6000882321F00E945E1F0C943B210895882346
:102B700039F090912F02892B80932F020C943B21E6
:102B80000895882309F45CC0823869F40E94F52214
:102B900081FF56C069E387ED91E00E94A1220E9467
:102BA0003B2169E30EC0833891F40E94F52280FF37
:102BB00047C063E587ED91E00E94A1220E943B217E
:102BC00063E587ED91E00E9494220C943B218438C8
:102BD00069F40E94F52282FF33C067E487ED91E03B
:102BE0000E94A1220E943B2167E4EBCF9CEF980F4B
:102BF000913A10F4682FE5CF90E2980F983050F496
:102C0000877091E001C0990F8A95EAF7892F0E9499
:102C10005E1FDBCF9BE5980F933020F480E090E0BF
:102C20000C94D12298E5980F973120F480E090E041
:102C30000C94BB22803F20F00E94F52A0C94242C97
:102C40000895CF93882309F49EC0C82F8238B1F429
:102C50000E94F52281FD97C069E387ED91E00E9413
:102C6000A1220E943B212FEF81EE94E02150804071
:102C70009040E1F700C0000069E317C08338E1F439
:102C80000E94F52280FD7FC063E587ED91E00E9400
:102C9000A1220E943B212FEF81EE94E02150804041
:102CA0009040E1F700C0000063E587ED91E00E94ED
:102CB0009422CF910C943B218438B1F40E94F522E8
:102CC00082FD61C067E487ED91E00E94A1220E942D
:102CD0003B212FEF81EE94E0215080409040E1F7BE
:102CE00000C0000067E4E1CF8CEF8C0F813A80F4E4
:102CF000E9EDF1E08FED91E02191C217E1F18E173E
:102D00009F07D1F76C2F87ED91E00E94A122D1CFD0
:102D100080E28C0F883068F4C77081E090E001C0D9
:102D2000880FCA95EAF790912F02892B80932F0282
:102D3000C0CFEBE5EC0FE33040F4F0E0EC5CFE4F8D
:102D4000808190E0CF910C94D122E8E5EC0FE7313F
:102D500050F4F0E0EE0FFF1FE95CFE4F808191819F
:102D6000CF910C94BB22C03F70F08C2F0E94BC2BE3
:102D7000CF910C94242C6C2F87ED91E00E9494222B
:102D80000E943B21BFCFCF9108951F93CF93DF9334
:102D9000182F893319F0C9E1D0E002C0C0E5D0E0B6
:102DA000812F0E9421168FE99FE00197F1F700C063
:102DB00000002197C1F7812FDF91CF911F910C94D3
:102DC000C115CF93DF93CDB7DEB762970FB6F894F6
:102DD000DEBF0FBECDBF96E0E8E7F1E0DE0117965B
:102DE00001900D929A95E1F796E0FE013796DE018B
:102DF0001D9601900D929A95E1F79885882311F020
:102E0000692B02C0609569236E8786E0FE013D96BE
:102E1000DE01119601900D928A95E1F76A8386E0B2
:102E2000FE013196A8E7B1E001900D928A95E1F795
:102E300062960FB6F894DEBF0FBECDBFDF91CF9183
:102E400008958091CD0187FF11C08091E80082FD37
:102E500005C08091D5018111F8CF11C08091E800A3
:102E60008B770BC08091D501882349F08091E800D1
:102E700080FFF8CF8091E8008E778093E800089576
:102E8000982F973068F59093E900981739F0709172
:102E9000EC002091ED005091F00003C0242F762F1C
:102EA00050E021FD02C09F5FECCF3091EB003E7FF0
:102EB0003093EB003091ED003D7F3093ED00309189
:102EC000EB0031603093EB007093EC002093ED0049
:102ED0005093F0002091EE0027FDE5CF80E00895AB
:102EE0008F708093E90081E008952091D3013091A3
:102EF000D4012617370748F06115710539F4209180
:102F0000E8002E772093E80001C0B901FC0120E021
:102F10006115710579F18091D5018823F1F1853032
:102F2000F1F18091E80083FD3CC08091E80082FDD2
:102F30002EC08091E80080FFEBCF2091F3008091BC
:102F4000F20090E0922B6115710551F088309105E7
:102F500038F421912093F100615071090196F3CF6B
:102F600021E0089709F020E08091E8008E778093B7
:102F7000E800CECF2111CFCF0AC08091D5018823A0
:102F800061F0853061F08091E80083FD0AC0809196
:102F9000E80082FFF2CF80E0089582E0089583E0A8
:102FA000089581E00895BC0184E00C94DC21BC010B
:102FB00083E00C94DC218091D601982F9670963096
:102FC00011F4886001C0877F0C94EB141F93CF939A
:102FD000DF93CDB7DEB7AA970FB6F894DEBF0FBE6A
:102FE000CDBFEDECF1E08091F100819341E0E53D52
:102FF000F407C9F78091CE01833009F462C030F440
:10300000813071F0823009F49CC0B3C08A3009F479
:1030100088C08B3009F46DC0893009F0AAC020C087
:103020008091CD01813A09F0A4C08091E800877FAA
:103030008093E8008091D1019091D201892B21F4F5
:1030400068E082EC91E003C060E080E090E070E036
:103050000E9475178091E8008B778093E80089C003
:103060008091CD01813209F084C08091D10190918D
:10307000D201009719F0029709F07BC08091E80017
:10308000877F8093E8008091E80082FD05C08091F1
:10309000D5018111F8CF6DC02091F3008091F2002D
:1030A00090E0922B029729F48091F1008B7F813080
:1030B00021F48091F1008093C1018091E8008B7729
:1030C00054C08091CD01813A09F053C08091D10163
:1030D0009091D201892B09F04CC08091E800877F44
:1030E0008093E8008091E80080FFFCCF80910B0185
:1030F00037C08091CD018132E1F58091D10190916D
:10310000D201892BB1F58091E800877F8093E80098
:103110000E9421178091CF0180930B010E940A1514
:1031200028C08091CD01813221F58091E800877F10
:103130008093E8000E9421178091D0018093C00104
:1031400018C08091CD01813AA1F48091E800877F79
:103150008093E8008091E80080FFFCCF8091C0015F
:103160008093F1008091E8008E778093E8000E94C0
:1031700021178091E80083FFE9C18091CD019091F2
:10318000CE01492F50E04A30510508F0DFC1FA0165
:10319000E258FF4F0C94472E803821F0823809F016
:1031A000D5C108C08091CA019091CB01992389F0C3
:1031B00082600FC08091D1018F70873008F0C6C146
:1031C0008093E9008091EB0085FB882780F91092BD
:1031D000E9009091E800977F9093E8008093F100D8
:1031E0001092F1007CC1282F2D7F09F0AFC18823F8
:1031F00019F0823061F0AAC18091CF01813009F0CD
:10320000A5C1933009F080E08093CB012EC080915E
:10321000CF0181112AC08091D1018F702FEF280F2B
:10322000263008F093C18093E9002091EB0020FF45
:103230001CC0933021F48091EB00806214C0909107
:10324000EB0090619093EB0021E030E0A90102C017
:10325000440F551F8A95E2F74093EA001092EA0066
:103260008091EB0088608093EB001092E9008091E0
:10327000E800877F8093E8000E94211767C18111D1
:1032800065C11091CF011F778091E3008078812B79
:103290008093E3008091E800877F8093E8000E949C
:1032A00021178091E80080FFFCCF8091E3008068C7
:1032B0008093E300111102C082E001C083E080939B
:1032C000D50144C18058823008F040C12091CF011F
:1032D0003091D0012C3D53E0350779F583E08A83A6
:1032E0008AE289834FB7F894DE01139620E03EE02E
:1032F00051E2E32FF0E050935700E49120FF03C028
:10330000E295EF703F5FEF708E2F90E0EA3010F0A3
:10331000C79601C0C0968D939D932F5F243149F7C6
:103320004FBF8091E800877F8093E8006AE270E0F9
:10333000CE0101960E947517C0C08091D101909175
:10334000D201432F552743305105B1F068F4413085
:10335000510509F40AC14230510509F0F7C08BE567
:1033600090E0EAE6F4E057C04132510589F142327B
:10337000510509F43CC0EAC0C90199278130910583
:10338000B9F070F082309105D9F0039709F0DEC0F2
:10339000E7EDF4E0E4918E2F90E0E7EDF4E038C043
:1033A000E7E3F5E0E4918E2F90E0E7E3F5E030C04D
:1033B000EBE1F5E0E4918E2F90E0EBE1F5E028C041
:1033C000E5EFF4E0E4918E2F90E0E5EFF4E020C02B
:1033D0008330910508F0BAC0880F991FFC01E25DA7
:1033E000FE4F0190F081E02D89E090E014C0833021
:1033F000910508F0ABC0FC01EE0FFF1FE85DFE4F2A
:103400000190F081E02DDC01AB5DBE4F8C9190E02E
:10341000009709F49BC02091E800277F2093E800E3
:103420002091D3013091D4012817390708F4C9013C
:1034300040E0009789F12091D501222309F43DC095
:103440002530D9F12091E80023FD37C02091E80014
:1034500022FD2FC02091E80020FFEBCF4091F30028
:103460002091F20030E0342B009759F028303105DC
:1034700040F444914093F100319601972F5F3F4F04
:10348000F3CF41E02830310509F040E02091E80019
:103490002E772093E800CDCF4111CDCF0AC0809187
:1034A000D501882351F0853041F08091E80083FDFB
:1034B00004C08091E80082FFF2CF8091E8008B7712
:1034C0008093E80043C0803809F040C08091E80054
:1034D000877F8093E8008091CC018093F1008091F8
:1034E000E8008E77C7CE811131C08091CF019091D5
:1034F000D0019927029754F58091E800877F809347
:10350000E8001091CF011093CC010E9421171111F6
:1035100006C08091E30087FD02C081E001C084E025
:103520008093D50142E061EC81E00E94401742E2C5
:1035300061EC84E00E94401742E261EC82E00E946C
:10354000401742E260EC83E00E9440178091E8005F
:1035500083FF10C08091E800877F8093E80080910E
:10356000EB0080628093EB0005C082E190E0E5EC27
:10357000F4E051CFAA960FB6F894DEBF0FBECDBFD0
:10358000DF91CF911F9108951F920F920FB60F9266
:1035900011242F933F934F935F936F937F938F9358
:1035A0009F93AF93BF93CF93DF93EF93FF93C0911C
:1035B000E900CF708091EC00D82FD17080FDD0E869
:1035C0001092E9008091F000877F8093F00078945A
:1035D0000E94E6171092E9008091F00088608093C5
:1035E000F000CD2BCF70C093E900FF91EF91DF91F8
:1035F000CF91BF91AF919F918F917F916F915F918B
:103600004F913F912F910F900FBE0F901F901895E3
:10361000E8EDF0E080818E7F80831092E2001092CE
:10362000DA001092E100A0EEB0E08C9181608C9302
:1036300080818F77808319BCA7EDB0E08C918E7F5D
:103640008C9380818F7E80831092BF010895CF92EA
:10365000DF92EF92FF920F931F93CF93DF93C8ED0A
:10366000D0E088818F7E8883E7EDF0E08081816003
:10367000808384E082BF81E08093BF0188818E7F58
:10368000888302EE10E0F80110821092DA0081EED9
:10369000C82ED12CF601108288818F77888388818B
:1036A0008068888388818F7D888319BC1092D501BA
:1036B0001092CC011092CB011092CA0190EEE92E2B
:1036C000F12CF70180818B7F8083888181608883E2
:1036D00042E060E080E00E944017F60180818E7F2A
:1036E0008083F8018081816080838081886080830D
:1036F000F70180818E7F8083888180618883DF915C
:10370000CF911F910F91FF90EF90DF90CF90089590
:103710001F920F920FB60F9211242F933F934F9346
:103720005F936F937F938F939F93AF93BF93EF9329
:10373000FF938091E10082FF09C08091E20082FF47
:1037400005C08091E1008B7F8093E1008091DA00D9
:1037500080FF2AC08091D80080FF26C08091DA00C7
:103760008E7F8093DA008091D90080FF18C080E1BD
:1037700089BD82E189BD09B400FEFDCF81E080935F
:10378000D5018091BF0181110FC00E94081B0E94CA
:10379000271B8091E20084608093E20005C019BC81
:1037A0001092D5011092BF018091E10080FF17C0F7
:1037B0008091E20080FF13C08091E2008E7F8093B1
:1037C000E2008091E20080618093E2008091D80065
:1037D00080628093D80019BC85E08093D5018091E8
:1037E000E10084FF2EC08091E20084FF2AC080E1C6
:1037F00089BD82E189BD09B400FEFDCF8091D8006A
:103800008F7D8093D8008091E1008F7E8093E100CE
:103810008091E2008F7E8093E2008091E2008160DF
:103820008093E2008091CC01882311F084E007C0EE
:103830008091E30087FD02C081E001C083E08093B6
:10384000D5018091E10083FF27C08091E20083FFD2
:1038500023C08091E100877F8093E10082E0809324
:10386000D5011092CC018091E1008E7F8093E10020
:103870008091E2008E7F8093E2008091E20080617F
:103880008093E20042E060E080E00E944017809177
:10389000F00088608093F000FF91EF91BF91AF91AD
:1038A0009F918F917F916F915F914F913F912F9158
:1038B0000F900FBE0F901F9018952091E40030914B
:1038C000E50095E64091EC00842F817040FF23C015
:1038D0008091E80080FD1DC08091D501882399F07A
:1038E000853099F08091EB0085FD11C04091E40096
:1038F0005091E5002417350729F3915011F09A01F2
:10390000E1CF84E0089582E0089583E0089581E0A6
:10391000089580E008954091E80042FFDDCF0895CA
:10392000EF92FF920F931F93CF93DF937C018B0154
:103930000E945D1C811119C0E70101151105A1F05C
:103940008091E80085FD0AC08091E8008E77809321
:10395000E8000E945D1C882381F307C08991809351
:10396000F10001501109E9CF80E0DF91CF911F9163
:103970000F91FF90EF900895CF932091D5012430BF
:10398000F9F4C091E900CF703091EC00232F217041
:1039900030FD20E8C22B22E02093E9002091E800CE
:1039A00020FF0BC040E050E060E270E00E94901CFD
:1039B0008091E8008E778093E800CF70C093E90093
:1039C000CF91089580E008959091680192FF0DC015
:1039D000282F2871283019F4877F846006C0282F8B
:1039E0002471243011F48B7F886093FF0DC0282F41
:1039F0002871283119F4877E846106C0282F24712C
:103A0000243111F48B7E88612091690120FF0DC063
:103A1000382F3871383019F4877F816006C0382F0D
:103A20003171313011F48E7F886021FF0DC0282F55
:103A30002871283119F4877E816106C0282F2171F1
:103A4000213111F48E7E886194FD877E0895F8946B
:103A5000E82FE295EF70F0E031A1282F2F7081E080
:103A600090E001C0880F2A95EAF7982F909593234C
:103A700091A392A1892B82A378940895CF93DF9389
:103A80008238910569F1B0F48133910509F46FC072
:103A900048F48932910509F465C08A32910509F428
:103AA0006BC08AC08533910509F457C089339105ED
:103AB000B9F082C0833E910571F138F4803E9105E2
:103AC000B1F0823E910511F177C0863E9105B9F1C2
:103AD000873E9105C9F1843E910509F06DC024C06F
:103AE0002091680120FD53C021FD51C065C0809127
:103AF000680180FD46C08091690180FF48C08091C7
:103B0000680184FD50C183EE90E04FC1809168014F
:103B100082FF3AC0F4CF8091680182FD35C0809168
:103B2000690180FD34C0EBCF8091690181FF35C010
:103B30008091680184FD37C187EE90E036C18091A5
:103B4000680183FF27C0F4CF8091680183FD22C004
:103B50008091690181FD21C0EBCF8091680185FDD5
:103B60001FC021C08091680185FD1DC019C08091D2
:103B7000680186FD1BC01DC08091680186FD19C0CB
:103B800015C089E390E011C182EE90E00EC180EE95
:103B900090E00BC186EE90E008C184EE90E005C194
:103BA00089E290E002C185E390E0FFC08AE290E004
:103BB000FCC081E390E0F9C0811531E5930708F07E
:103BC00069C0811540E59407F0F09C0174E03695DA
:103BD00027957A95E1F7922F9370482F437021E053
:103BE00030E002C0220F331F4A95E2F73C68392BC0
:103BF000982F9F709695969540E2949FC00111244E
:103C0000822B932BD2C0883E910568F5803E9105AA
:103C100008F0CBC0883A9105B8F4853A910548F090
:103C2000855AE82FF0E0EC5CFE4F808190E09064D4
:103C3000BCC08130910509F4B3C008F4B4C084302D
:103C4000910508F4B0C0B1C08F3B910508F0ABC03E
:103C5000885AE82FF0E0EE0FFF1FE95CFE4F8081ED
:103C600091819464A2C0811520E2920758F48115D5
:103C700031E0930708F099C0803F910508F493C0A4
:103C8000906593C0811540E4940708F48CC09F7040
:103C9000906A8BC0811525E5920708F042C0811516
:103CA00034E5930728F0982F8827846F906A7DC0A9
:103CB000811543E59407B0F09C012370332741E060
:103CC00050E002C0440F551F2A95E2F7282F269591
:103CD000269580E2289F90011124CA01822B932B04
:103CE0009A6863C0811522E5920728F4982F8827E7
:103CF000816F906A5AC09C012370332741E050E0E5
:103D000002C0440F551F2A95E2F7282F26952695C5
:103D100080E2289F90011124CA01822B932B9C687A
:103D200044C0EC01811539E59307A8F48115984545
:103D300028F09C2F8827806F906A37C0C11586E5D0
:103D4000D80788F58C2F0E94E41C8F7190E0982F83
:103D5000882790622AC081152AE5920790F48C2F5B
:103D60008F700E94E41C94E0D695C7959A95E1F770
:103D7000CF70D0E0DC2FCC27D0699E01282BC90161
:103D800014C090568115904270F48D2F8F710E944F
:103D9000E41C282F2F71CE0199279062922B05C029
:103DA00081E090E002C080E090E0DF91CF91089543
:103DB000CF9384E090E00E94E92DC82F82E290E04A
:103DC0000E94E92D2C2F30E0A901582BCA01CF9178
:103DD00008956AEE7EEF80E090E00E94152E60E08C
:103DE00082E090E00E94F72D60E083E090E00E9486
:103DF000F72D1092330260E084E090E00E94F72DEE
:103E000060E082E290E00E94F72D60E085E090E0C3
:103E10000E94F72D60E086E090E00E94F72D6FEFA2
:103E200087E090E00E94F72D40E050E0BA0188E082
:103E300090E00E94092E60E08DE090E00E94F72D56
:103E400040E050E0BA0188E190E00E94092E60E075
:103E500087E190E00E94F72D40E050E0BA018CE14C
:103E600090E00E94092E60E070E080E290E00E9405
:103E7000152E40E050E0BA0188E190E00E94092E42
:103E800080E00E94AF2A0E94CD2A40E050E0BA01B3
:103E90008FE090E00E94092E40E050E0BA0183E1FB
:103EA00090E00C94092E80913202882331F0109218
:103EB0003202109231021092300208958095909152
:103EC0002F02892380932F020895CF93C091690117
:103ED000C2FB992790F9981781F080FBC2F9C09333
:103EE00069016091680184E090E00E94F72D6C2FD9
:103EF00082E290E0CF910C94F72DCF91089510922B
:103F00002C0210922B0210922A02089520912C026A
:103F10008095822380932C02982F977041F430E093
:103F2000482F082E000C550B2417350721F49091CB
:103F3000690192FF07C08595859585950E94EF14CC
:103F40000C947F1F089580912902811110922902FB
:103F50000895809128029091E701891719F08F5FE9
:103F60008770FBCF08951F93CF93DF938091E40177
:103F700082958F7009F05CC08091E101882309F47B
:103F800057C0809128021091E7016091DF01709184
:103F9000E001C091E201D091E30191E06F3F09F0AF
:103FA00090E0292F811709F443C0209721F07F3F2B
:103FB00021F030E003C031E001C0322F90E030FD4D
:103FC00034C0FC0133E0EE0FFF1F3A95E1F7DF014B
:103FD000A851BE4F11963C911197371326C03C91C2
:103FE000361323C012963C91129731111EC01396BE
:103FF0004D915C9114974C1B5D0B483C5105A8F406
:104000008091E4018F7080618093E401E351FE4F61
:1040100080818F70806180838FED91E00E942E0BF4
:10402000DF91CF911F910C94A91F01968770BACF91
:10403000DF91CF911F9108958F929F92AF92BF927F
:10404000CF92DF92EF92FF920F931F93CF93DF9364
:10405000CDB7DEB728970FB6F894DEBF0FBECDBF41
:10406000AE014F5F5F4F7A0188E0DA011D928A95B9
:10407000E9F705E111E06A01AA24A394B12CF80143
:1040800080818F3F09F44DC0F894E82FE295EF70DE
:10409000F0E021A18F70A50102C0440F551F8A9541
:1040A000E2F7CA01922F982B91A392A180958923C0
:1040B00082A3789400C0E9E1F1E020E030E0812CB7
:1040C000912C81918F3FC1F0A82FA295AF70B0E0E5
:1040D00090964C9150E08F70DA0102C0B595A7958B
:1040E0008A95E2F7A0FD08C0C501022E02C0880F24
:1040F000991F0A94E2F702C080E090E0882A992A8A
:104100002F5F3F4F2C303105E1F6F80180818F3F62
:1041100011F00E94271DF0EAFA95F1F7D6018D9271
:104120009C920F5F1F4FB2E0CB0ED11CE1E0093132
:104130001E0709F0A4CF48E050E0B7018AE691E0FD
:104140000E94542E11E0009709F410E0892B89F0A9
:1041500088E0F701AAE6B1E001900D928A95E1F7B7
:1041600081E0809336020E945F2290933502809313
:10417000340280913602882351F18091340290916B
:1041800035020E945022059710F180916A019091AA
:104190006B019093A1018093A00180916C0190919B
:1041A0006D019093A3018093A20180916E01909183
:1041B0006F019093A5018093A4018091700190916B
:1041C00071019093A7018093A6011092360280910D
:1041D0000C01882341F180913403909135030097BD
:1041E00011F10E94502220918E0230918F022817E7
:1041F0003907C8F49091320380913303981759F02E
:104200000E94AD2310928F0210928E0210923503FD
:104210001092340308C00E942F231092350310928D
:1042200034030E948E23812F28960FB6F894DEBFA8
:104230000FBECDBFDF91CF911F910F91FF90EF90F7
:10424000DF90CF90BF90AF909F908F900895CF93C5
:104250009091690192FD0DC090913202981749F03A
:10426000C82F0E945F229093310280933002C09346
:104270003202CF91089590912F0280912E02892BC6
:1042800090912D02892B8093D7018091320288234F
:1042900011F10E945F222091300230913102821B85
:1042A000930B8838934110F00E94531F9091D701CF
:1042B00080913202892B8093D701E9EDF1E097E0FC
:1042C00080E0915029F021912223D9F38F5FF9CF1B
:1042D00081110E94531FE0913803F0913903309708
:1042E00031F00280F381E02D87ED91E0099408958B
:1042F0009091690192FD10C098E0899F900111246E
:10430000262B20932C020E94FB140E945F22909384
:104310002B0280932A0208950C94FB148091C10112
:10432000089524E02093E9002FEF3091E800215018
:1043300035FD06C035ED3A95F1F700002111F5CFB6
:104340002091E80025FF0BC040E050E066E070E0FF
:104350000E94901C8091E8008E778093E800089579
:10436000CF93DF9321E02093E9002FEF3091E80015
:10437000215035FD06C035ED3A95F1F700002111C9
:10438000F5CF2091E80025FF14C0EC0140E050E09B
:1043900068E070E00E94901C8091E8008E77809326
:1043A000E80088E0FE01A2ECB1E001900D928A9550
:1043B000E1F7DF91CF9108959091D501943029F5DF
:1043C0008093410370934303609342039093E90009
:1043D0008FEF9091E800815095FD06C095ED9A957C
:1043E000F1F700008111F5CF8091E80085FF0DC045
:1043F00040E050E063E070E081E493E00E94901CB4
:104400008091E8008E778093E800089581E08093A2
:10441000E00080E28093D8001092C9008FE19EE412
:104420000197F1F700C0000087E090EBDC0180937A
:10443000510390935203A0935303B09354039CE011
:1044400088E10FB6F894A895809360000FBE909312
:104450006000FFCF78941F920F920FB60F92112435
:104460008F939F93AF93BF9380913D0390913E03B1
:10447000A0913F03B09140030196A11DB11D80930F
:104480003D0390933E03A0933F03B0934003BF913D
:10449000AF919F918F910F900FBE0F901F90189525
:1044A0009C014FB7F89480913D0390913E03A091F9
:1044B0003F03B09140034FBF821B930B08952FB76A
:1044C000F89480913D0390913E03A0913F03B091F9
:1044D00040032FBF08951F920F920FB60F92112421
:1044E0008F939F93AF93BF9380913C03811113C02F
:1044F00080913D0390913E03A0913F03B091400312
:104500004196A11DB11D80933D0390933E03A0935E
:104510003F03B0934003BF91AF919F918F910F9054
:104520000FBE0F901F9018959C012A5F3F4FFC0112
:104530004281461301C01282019682179307B9F790
:1045400008959C01FC0132969FEF80E0419146174F
:1045500089F09F3F19F4411101C0982F8F5F863079
:10456000A9F79F3F39F0F901E90FF11D97FDFA9581
:1045700062830895089520913A0330913B032817F0
:10458000390771F090933B0380933A03E09138032D
:10459000F0913903309721F00084F185E02D0994E2
:1045A000089520913603309137032817390771F0A9
:1045B0009093370380933603E0913803F0913903E9
:1045C000309721F00680F781E02D09940895E0915D
:1045D0003803F0913903309739F022E0DC012C9355
:1045E0000480F581E02D09940895E0913803F0915D
:1045F0003903309721F00190F081E02D099480E09B
:104600000895BC014091320380913303942F981791
:1046100029F1292F30E0F901EE0FFF1FE65DFC4F75
:104620000190F081E02DE617F70799F487E0869F67
:10463000F001879FF00D1124EE50FD4F81E084833F
:1046400094130CC02F5F3F4F237033272093320306
:1046500008952F5F3F4F922F9370D9CF08950F93F6
:104660001F93CF93DF9380919102882309F451C067
:10467000C09190021CE080919102C81708F045C0DB
:1046800001E00C0F00939002D0E01C9FF0011D9FF1
:10469000F00D1124EE56FD4F9081818123813481EC
:1046A000232B31F08F3F31F481E09F3F19F403C099
:1046B00081E001C080E080FD26C01C9FD0011D9FCD
:1046C000B00D1124AE56BD4F16968D919C91179743
:1046D000892B31F418968D919C911997019651F47C
:1046E00020813181428153816481758186819781E6
:1046F0000E9415151C9FF0011D9FF00D1124EE5610
:10470000FD4F14821382C02FB6CF109291021092E7
:104710009002DF91CF911F910F91089510928F0217
:1047200010928E02E2EFF2E08581811102C01482C4
:104730001682379683E0EA32F807B1F708951092AF
:1047400035031092340310920C018091330380934F
:1047500032030E948E230C942F233F924F925F923C
:104760006F927F928F929F92AF92BF92CF92DF9281
:10477000EF92FF920F931F93CF93DF93C091320379
:1047800097E0892E01E010E02CE0322E3EEF932ED0
:104790004424439480913303C81709F478C0D0E0CF
:1047A000FE01EE0FFF1FE65DFC4F80819181889E28
:1047B000D001899EB00D1124AE50BD4F14962C919E
:1047C0001497211161C050909102E2E9F2E020E0DB
:1047D00030E0712C5D01251508F054C0E284F384AB
:1047E000D501CD90DC906FEF7FEF612C462D50E02E
:1047F000DA01AA0FBB1FAC0DBD1D0D90BC91A02D01
:10480000109731F0EA16FB0609F4BA016394EECF73
:104810006F3FBFEF7B0791F1D80102C0AA0FBB1F0A
:104820006A95E2F77A2AB80102C0660F771F6A9488
:10483000E2F7AB0141505109672D70E04617570769
:10484000D9F4329EF001339EF00D1124EE56FD4F47
:10485000889ED001899EB00D1124AE50BD4F129696
:104860002D913C9113973783268390829182918773
:10487000808715964C9206C0148213822F5F3F4F9B
:104880003C96A9CF0E9401232196C37083CF0E943A
:104890002F23DF91CF911F910F91FF90EF90DF9029
:1048A000CF90BF90AF909F908F907F906F905F90D0
:1048B0004F903F900C948E230F931F93CF93DF93D1
:1048C000C42FD22FFC0182818823C9F040938D022E
:1048D0000E945F2290938C0280938B0280E28C0F67
:1048E000883008F057C0C77081E001C0880FCA95B2
:1048F000EAF7DF91CF911F910F910C94B71580913A
:104900008D02481330C080918B0290918C020E94DE
:104910005022883C910538F510E21D0FCD17B9F0F3
:1049200080E28C0F883040F4C77081E001C0880FAE
:10493000CA95EAF70E94B015183028F581E09D2F3E
:10494000977001C0880F9A95EAF70E94B715802FDB
:104950000E94C5161830F0F4D77081E001C0880FAE
:10496000DA95EAF70AC080E28C0F883098F4C770B5
:1049700081E001C0880FCA95EAF7DF91CF911F91BE
:104980000F910C94B015802FDF91CF911F910F9153
:104990000C94C516DF91CF911F910F910895CF937D
:1049A000DF93C3E9D2E060E0CE010E94F72D2196AB
:1049B000C11584E0D807B9F7DF91CF9108950F931F
:1049C0001F93CF93DF93853068F5633058F54230FD
:1049D00048F521159CE5390731F4E0918702F09103
:1049E0008802EF2BF9F08901282F34E0639FC00182
:1049F00011243CE0239F800D911D1124840F911DF3
:104A0000840F911DEC01C95FDD4F612FCE010E9423
:104A1000F72D602FCE010196DF91CF911F910F915D
:104A20000C94F72DDF91CF911F910F9108950F9363
:104A30001F93CF93DF93853018F5633008F542302C
:104A4000F8F4282F34E0639FC00111243CE0239F39
:104A5000800D911D1124840F911D840F911DEC0177
:104A6000C95FDD4FCE010E94E92D90E0182F00278D
:104A7000CE0101960E94E92D9801282BC90102C0A0
:104A800080E090E0DF91CF911F910F9108950F93F7
:104A90001F93CF93DF93853058F5643048F54C3041
:104AA00038F521159CE5390731F4E0918702F09142
:104AB0008802EF2BE9F08901C42FD0E0CC0FDD1F75
:104AC00098E1699FC00DD11D112490E6899FC00D0A
:104AD000D11D1124612FCE0187960E94F72D602FE2
:104AE000CE018896DF91CF911F910F910C94F72DF5
:104AF000DF91CF911F910F9108956F927F928F92C6
:104B00009F92AF92BF92CF92DF92EF92FF920F935C
:104B10001F93CF93DF93CDB7DEB72A970FB6F894E4
:104B2000DEBF0FBECDBFA0908702B090880281E0AB
:104B300090E09093880280938702C12CD12C712C35
:104B4000612CE12CF12C00E010E046018E0C9F1C42
:104B5000F801EE0FFF1FE80DF91DE55CFA4F2591F6
:104B60003491402F662D872D0E9447250F5F1F4FE0
:104B70000C30110569F788E1E80EF11C639494E0AC
:104B80006912E1CF10E021E030E040E0612F872D95
:104B90000E94DF2421E030E041E0612F872D0E9458
:104BA000DF241F5F133079F77394E0E6CE0ED11C3B
:104BB000F5E07F12C5CFCE0101967C018AE0F701B6
:104BC00011928A95E9F703E412E04AE050E0B80157
:104BD000C7010E941B2E065F1F4F0339F2E01F071B
:104BE000A1F7B0928802A09287022A960FB6F89495
:104BF000DEBF0FBECDBFDF91CF911F910F91FF9010
:104C0000EF90DF90CF90BF90AF909F908F907F906C
:104C10006F9008950F931F93CF93DF93853008F51E
:104C20006430F8F44C30E8F4C42FD0E0CC0FDD1F32
:104C300028E1629FC00DD11D112430E6839FC00D75
:104C4000D11D1124CE0187960E94E92D90E0182FE6
:104C50000027CE0188960E94E92D9801282BC901D2
:104C600002C080E090E0DF91CF911F910F910895F5
:104C7000462F2091890230918A02232B49F48530F6
:104C800038F4743028F46C3018F4672F0C940A262A
:104C900080E090E00895CF92DF92EF92FF920F9321
:104CA0001F93CF93DF93CDB7DEB72A970FB6F89453
:104CB000DEBF0FBECDBF80E5E7E3F2E0DF011D926E
:104CC0008A95E9F788E3E2EFF2E0DF011D928A9529
:104CD000E9F787E3C82E82E0D82E7F0103E412E0D3
:104CE000F701D182C0824AE050E0B801CE010196BE
:104CF0000E94D92D88E0FE013196D60101900D92D7
:104D00008A95E1F789859A85D70113969C938E93AE
:104D10001297BAE0CB0ED11CE7E0EE0EF11C065F55
:104D20001F4F0339F2E01F07D9F62A960FB6F89401
:104D3000DEBF0FBECDBFDF91CF911F910F91FF90CE
:104D4000EF90DF90CF9008959C013A9521153F4157
:104D500030F5BC0166277270AC01442754709C0189
:104D60002227387094FF0FC090FF02C080E101C07D
:104D700080E0672B09F08062452B09F08064232BCB
:104D800079F080680895892F8170672B09F082601F
:104D9000452B09F08460232B19F08860089580E08A
:104DA0000895DF92EF92FF920F931F93CF93DF93BB
:104DB000E82FF0E0E55BF84FD490282F2695269554
:104DC000269530E0F901E55CF84F0491877010E01A
:104DD000082E02C0159507950A94E2F70170112775
:104DE000F901E55DF84FE490F12C082E02C0F5942E
:104DF000E7940A94E2F791E0E922FF24F901E55EE5
:104E0000F84FC491D0E002C0D595C7958A95E2F7D6
:104E1000C170DD270115110519F081EE0E942116E0
:104E2000E114F10419F086EE0E9421168D2D0E94E6
:104E3000C516EF2819F086EE0E94C115012B19F056
:104E400081EE0E94C115CD2B51F08CE2DF91CF9104
:104E50001F910F91FF90EF90DF900C94C516DF919A
:104E6000CF911F910F91FF90EF90DF900895EF92F7
:104E7000FF921F93CF93DF93EC011AE08881882380
:104E800009F44AC0813009F043C08981813041F47E
:104E90007E0182E0E80EF11C8A810E94C51609C0DD
:104EA000823049F47E01E2E0EE0EF11C8A810E941C
:104EB0002116E7012FC0833041F47E01F2E0EF0EAE
:104EC000F11C8A810E94C115F4CF843011F0219623
:104ED00021C02A81229680E090E030E02053310901
:104EE0002A30310558F4189FA001199F500D112444
:104EF000C901840F951F21962881EFCF009751F0AB
:104F0000EFE9FFE03197F1F700C000000197F6CF1D
:104F10000E94D1262196B2CFDF91CF911F91FF90B1
:104F2000EF9008951F93CF93DF9300D000D01F928E
:104F3000CDB7DEB7FC0186819781009709F5CF01D7
:104F400025E0DE01119601900D922A95E1F7FC0112
:104F5000228189819A81222359F0662349F00E9497
:104F60004A12182F682F89819A810E94BE1403C0AB
:104F70000E948E14182F69817A81812F0E94382611
:104F80000F900F900F900F900F90DF91CF911F9186
:104F90000895DC01FB0180819181803891053CF00E
:104FA0008FE78C93808191818F5791090AC0813856
:104FB0002FEF92074CF481E88C9380819181815886
:104FC0009F4F9183808308958C931182108208955E
:104FD000681720F4861B682F21E002C0681B20E0C0
:104FE000469FA0011124649FC001659F900D11246C
:104FF0009170222319F091958195910908950F934D
:105000001F93CF93DF93C091A901D091AA01CE0144
:1050100095558F3F910509F058F48C2FC4FF02C0BD
:105020008295807FDF91CF911F910F910C94272162
:105030008E01005E1109CE010830110510F0209795
:1050400029F40E94A4260E94B71504C00E94A42639
:105050000E94A6158C2F0E9421168FE798E321E06D
:10506000815090402040E1F700C000008C2F0E944A
:10507000C115CE010830110510F0CD2B41F40E946E
:10508000A426DF91CF911F910F910C94B0150E942F
:10509000A426DF91CF911F910F910C949B15109234
:1050A000A8010E94F52281FF03C089E30C94C51674
:1050B00008952F923F924F925F926F927F928F92BC
:1050C0009F92AF92BF92CF92DF92EF92FF920F9397
:1050D0001F93CF93DF93CDB7DEB76A970FB6F894DF
:1050E000DEBF0FBECDBF498B5A8B6B8B7C8B8D8BFC
:1050F000611110922E028E01075F1F4F88E0F801A8
:1051000011928A95E9F785E0FE017196D801019028
:105110000D928A95E1F70E945F2220912A02309138
:105120002B02821B930B8838934140F080912C0214
:1051300082FB992790F981E0892701C080E080FFF8
:1051400003C082E00E94861F0E945F2220913002ED
:1051500030913102821B930B8838934110F00E94EA
:10516000531F99858A852C853D85232B31F08F3FF0
:1051700031F481E09F3F19F403C081E001C080E079
:1051800080FDCAC161E0C8010E9492276C0187EFCF
:10519000C8168CE5D80639F48B858823B9F081E0F0
:1051A00080930C01B9C198EFC9169CE5D90631F47A
:1051B0008B85882359F00E949F23AEC1E9EFCE165C
:1051C000ECE5DE0619F48B85811111C002EF12E0C7
:1051D000712CA12CB12C88248394912C55245394A8
:1051E000CE0101969F8B8E8BF7E04F2E49C08091A8
:1051F0000C018823A1F2DFCFC616D70609F097016C
:105200009F5F7901292F30E0F901EE0FFF1FE40FB6
:10521000F51F608171816115710571F7FFEFEF1660
:10522000FF0609F42DC1F8016481611131C020919C
:105230000C01822F81706B84F801358126816620F4
:1052400009F4C6C0882309F4C3C0332321F19401B3
:1052500002C0220F331F9A95E2F721503109F8015D
:10526000868190E02817390759F17628FFEFAF1AA9
:10527000BF0A095F1F4F28E0A216B10409F402C15A
:10528000F80140815181EE24EA94FE2C90E0BACFDF
:1052900020E030E0CECFA40101C0440FEA94EAF749
:1052A000242B268320918E0230918F0222333105E8
:1052B00070F622E330E030938F0220938E02C7CF46
:1052C0008091340390913503009729F00E94502279
:1052D000C39708F01EC180913203F0913303F88F19
:1052E000E0E0F0E0288D821709F460C0282F30E05C
:1052F000F901EE0FFF1FE65DFC4F20803180429CDC
:10530000F001439CF00D1124EE50FD4FF080E18040
:1053100050E090E040E0EF2DFE2DE40FF11DE40F92
:10532000F11DA081B1811097D1F0F801F081F98FC2
:10533000F801F181FA8F90E0E98DFA8DE90FF11D06
:10534000E90FF11D608171816115710531F0A617BA
:10535000B70709F451E09F5FEFCF4F5FDCCF5523D4
:10536000F9F09417C8F0429CF001439CF00D112411
:10537000EE50FD4F3097B1F054820E171F0709F41D
:1053800074CF9091320389130DC0C90101968370C7
:1053900099278093320306C00115110509F0B9C0A1
:1053A000E0E0F0E0C901019683709CCF0E171F0763
:1053B00009F45BCF90E0FC01EE0FFF1FE65DFC4FB0
:1053C000B182A082019683709927809333034DCFD9
:1053D000311112C0A40102C0440F551F9A95E2F783
:1053E0004150510930E042175307E9F56623E1F1D6
:1053F000C5010E94012337C0822F90E09C012150FB
:105400003109282339230E2C02C0959587950A94DB
:10541000E2F7232B31F580FF24C0F80182819381CC
:10542000892BD9F088E0EE89FF8911928A95E9F7F6
:105430008EEF89838A830E945F228160582F9D832B
:105440008C83F801828193818F83988729813A81A7
:105450004B816D817E810E941515F801158281E0D6
:1054600003C0817001C080E0940101C0220FEA9462
:10547000EAF72095F801968129232683682EF5CE38
:10548000612CF3CE8B85882381F1772071F10E9406
:105490005F2290933503809334038091910288308A
:1054A00008F044C091E0980F9093910298E0FE01BB
:1054B0003996DE01119601900D929A95E1F7ECE094
:1054C0008E9FC00111248E569D4F28E0FE0131961B
:1054D000DC0101900D922A95E1F72FEF3FEFFC01DF
:1054E00031872087D386C28621C090913203809174
:1054F0003303981719F00E94AD2308C00E942F2390
:1055000010923503109234030E948E23772021F0ED
:105510000DC0F8015482A9CE29853A854B855C855A
:105520006D857E858F8598890E9415156A960FB6C0
:10553000F894DEBF0FBECDBFDF91CF911F910F91C9
:10554000FF90EF90DF90CF90BF90AF909F908F90A3
:105550007F906F905F904F903F902F900895CF93E2
:10556000C82F811102C06FEF01C061E583E290E0B6
:105570000E94F72DC11102C06FEF01C068E584E2FF
:1055800090E00E94F72DC11102C06FEF01C06AE3E5
:1055900085E290E0CF910C94F72D80E00E94AF2A35
:1055A00060E086E290E00E94F72D0E947D250E9437
:1055B000CF2481E00C94AF2A83E290E00E94E92D91
:1055C000813581F484E290E00E94E92D883551F420
:1055D00085E290E00E94E92D91E08A3309F090E0A5
:1055E000892F01C080E081700895803F39F4809157
:1055F0004E0387FF6AC010924E0367C0813F29F4B3
:1056000080914E031816BCF360C090914D03823F09
:1056100029F497FF5AC010924D0357C0833F19F4E5
:105620001916CCF352C090914F03893F31F41916EB
:105630000CF04BC010924F0348C08A3F19F497FFFB
:1056400044C0F8CF8B3F39F48091500387FF3DC0B1
:10565000109250033AC08C3F29F4809150031816E1
:10566000BCF333C0843F21F480914C038E7F17C07C
:10567000853F21F480914C038D7F11C0863F21F43A
:1056800080914C038B7F0BC0873F21F480914C03AA
:10569000877F05C0883F31F480914C038F7E8093D3
:1056A0004C0313C08D3F21F4809146038E7F0BC0C5
:1056B0008E3F21F4809146038D7F05C08F3F29F4F2
:1056C000809146038B7F8093460380914D03811127
:1056D00006C080914E03811102C010924503809153
:1056E0004F03811106C080915003811102C01092B6
:1056F000440308958091460380FD16C081FD16C0C5
:1057000082FD18C080914403882391F0883290F480
:1057100028E0829FC001112468E270E00E94332ECD
:10572000862F672B29F007C082E0089584E0089552
:1057300081E0089588E008958091460380FD14C0BB
:1057400081FD14C082FD16C080914503882381F03D
:10575000843180F422E3829FC001112464E170E06F
:105760000E94332E862F08958CE0089589E10895D4
:1057700085E0089582E30895803F21F40E949C2BE8
:10578000819504C0813F29F40E949C2B80934E0395
:105790000895823F21F40E949C2B819504C0833F91
:1057A00029F40E949C2B80934D030895893F19F49E
:1057B0000E947A2B05C08A3F31F40E947A2B819592
:1057C00080934F0308958B3F21F40E947A2B81959B
:1057D00004C08C3F29F40E947A2B809350030895D3
:1057E000843F21F480914C03816017C0853F21F4F0
:1057F00080914C03826011C0863F21F480914C035C
:1058000084600BC0873F21F480914C03886005C001
:10581000883F31F480914C03806180934C0308955C
:105820008D3F21F48091460381600BC08E3F21F4AF
:1058300080914603826005C08F3F29F48091460322
:1058400084608093460308950E945F2220914D0357
:10585000211104C020914E03222321F090934A038A
:105860008093490320914F03211104C020915003DC
:10587000222321F090934803809347038BE493E025
:105880000C94E7221092B9008CE08093B800089540
:105890009F92AF92BF92CF92DF92EF92FF920F93BF
:1058A0001F93CF93DF93B82EEB010E945F226C0110
:1058B000C431D10558F0CF3F8FEFD80759F0CE0152
:1058C00064E170E00E94BC2D7B0107C0EE24E394EC
:1058D000F12C03C025E0E22EF12C84E8A82E94EAF6
:1058E000992E1092BC009092BC000E945F228C0105
:1058F0008091BC0087FD08C00E945F22801B910B35
:105900008E159F05A8F32AC08091B900887F883042
:1059100041F08091B900887F803119F00FEF1FEFBF
:105920001FC0B092BB00A092BC000E945F228C01FD
:105930008091BC0087FD08C00E945F22801B910BF4
:105940008E159F05A8F30AC08091B900887F883121
:1059500011F0803419F700E010E00EC00EEF1FEFD9
:10596000CF3F8FEFD80709F4BCCFC6010E94502269
:105970008C179D0708F4B5CFC801DF91CF911F9117
:105980000F91FF90EF90DF90CF90BF90AF909F90DE
:1059900008950F931F93CF93DF93EB018093BB0088
:1059A00084E88093BC000E945F228C018091BC003F
:1059B00087FD0EC0CF3F8FEFD807C1F30E945F2253
:1059C000801B910B8C179D0788F38EEF9FEF0CC007
:1059D0002091B900287F81E090E0283211F480E026
:1059E00090E0919581959109DF91CF911F910F9151
:1059F00008950F931F93CF93DF93EC0184EC809372
:105A0000BC000E945F228C018091BC0087FD0EC00B
:105A1000CF3F8FEFD807C1F30E945F22801B910B0D
:105A20008C179D0788F38EEF9FEF03C08091BB001A
:105A300090E0DF91CF911F910F9108950F931F93E5
:105A4000CF93DF93EC0184E88093BC000E945F2237
:105A50008C018091BC0087FD0EC0CF3F8FEFD8072F
:105A6000C1F30E945F22801B910B8C179D0788F366
:105A70008EEF9FEF03C08091BB0090E0DF91CF914C
:105A80001F910F910895CF92DF92EF92FF920F93A3
:105A90001F93CF93DF93C62F6A017901B8010E944B
:105AA000482C97FD11C0B8018C2F0E94C92CE6012B
:105AB000EC0CFD1CCE15DF0539F097FD05C0B801D3
:105AC00089910E94C92CF6CF24E92093BC00DF9174
:105AD000CF911F910F91FF90EF90DF90CF9008959D
