:100000000C94B0040C94F7040C94F7040C94F704CB
:100010000C94F7040C94F7040C94F7040C94F70474
:100020000C94F7040C94F7040C946A220C94A62107
:100030000C940C2E0C94F7040C94F7040C94F70415
:100040000C94F7040C94F7040C94F7040C94F70444
:100050000C94F7040C94BF2D0C94F7040C94F70443
:100060000C94F7040C94F7040C94F7040C94F70424
:100070000C94F7040C94F7040C94F7040C94F70414
:100080000C94F7040C94F7040C94F7040C94F70404
:100090000C94F7040C94F7040C94F7040C94F704F4
:1000A0000C94F7040C94F7040C94F704D70DF30D9B
:1000B000FA0D320E430E4E0E600E730EBA0EBF0EC8
:1000C000190F190F190FC70E4E0F590F840FC208C1
:1000D0000210511099109C10A1104A11B5119C15D5
:1000E000A715AC15B115B615BB15C015C515CA15A4
:1000F000CF15D4155A165A1693169316E8160417E8
:100100002B182B18111781178E178E177619761941
:10011000891989197F1989198919891976197619FF
:100120008419891989198419AE1FD51F8821D51FF3
:10013000882121204420882145215521FD377A58E6
:100140005A000004E6D6B446020021011600000061
:10015000742FE5A3E0083A02325D003D8889C65459
:1001600036C3174FE4F1E112FDEF008EFF6F938766
:10017000B42647FBB729D03483DA2C4E8C1ED4A288
:10018000101D9A2C5F0D89D27368D260BA373DA8D2
:10019000E3D3B6E9EEFE41AA1609B24BAA6CAED77C
:1001A00070B8FA763BEC87BCD647C9C3D7F4FC32AB
:1001B0008CD9DA11ACA1A803FD9737F2EDAD312847
:1001C00058895EF8982C667A7EB19F8917FB0BECF4
:1001D0000D0704D3D451C9A9618D85F3ECB151F455
:1001E000A55C2E98C18C6B1A234DFC89E7AA7B363F
:1001F0002165C87FEA7CC184DA5B747926A41C2758
:100200008A34D6E9451C2F6EBC9F8E1D2BADE87C31
:1002100074A4F843BD8385EC9A5376319F7E36BE35
:10022000A466180AD3AAEF168657B95B907069CEF8
:10023000E6BE08226BFC9C33B945C40D84025A9873
:10024000B2391A04111EA725C2F9A02CA36528AF44
:1002500015A3670FA2498CE7B8FC0A3A2060DC912D
:10026000725BC8702ABF02C13D8306CBE1B9B2758B
:10027000CFC4D2F2E58E080E84F02C9A1642C463E5
:1002800002B70D6B3707009B4E19A127A7813DF1DF
:10029000EDAFE50565A3863B1AD13270A8B51A3CCF
:1002A000DC6E00DE5AE67FDD96C1AB523D9BDA2262
:1002B000139C7E60AB8BD7600CFAD7CB96A5050F4D
:1002C000C34E975B5557C353576F533AB274387147
:1002D0003EEB0C07A8E2CEB398801859E51BFB6BE8
:1002E0009E5F04EB14E89602228CC0F42C0D600F84
:1002F00067B2EA82017F6ABABCA0DE735CAA9E4143
:100300008FDD9077D06EA676B0AF847E8F0D81EDB5
:100310008AD290DD1E34FC2C631E2F5CE68EE379BE
:10032000FDA4224CBF14780CC7ACB959DBA62E44EF
:1003300028A4869625C2DE7B24CBA65B608E5C62F9
:1003400076FFDA614B2D5740815DF949E53D6E8CB2
:10035000CE2449C350BF7C6B235F78E270CAEDDFC7
:1003600095E0BFC1818FCA2CC7FC90B652E7C44E3E
:1003700069751656C2EDFBA116084C31FE9970AF97
:100380001ECAE9501CA0872D492C03140000000050
:10039000A007AE328E000B010001CE04BB1000009E
:1003A000326762CBB1C467FB020000000004595AF7
:1003B0000000000001000A0002000100030002002A
:1003C00011000300120004001A0005001B000600C3
:1003D0001C0007001D000800200009002E20000559
:1003E000010902A10185020901A1000509190129DC
:1003F000051500250195057501810295017503819B
:10040000010501093009311581257F9502750881A3
:100410000609381581257F950175088106050C0AA6
:1004200038021581257F950175088106C0C0050138
:100430000980A101850319012AB700150126B7001B
:10044000950175108100C0050C0901A101850419F1
:10045000012AA002150126A002950175108100C095
:100460000660FF0961A1010962150026FF009520C1
:10047000750881020963150026FF00952075089113
:1004800002C005010906A101050719E029E71500C9
:1004900025019508750181029501750881010507FF
:1004A000190029FF150026FF009506750881000533
:1004B00008190129059505750191029501750391AA
:1004C00001C009025B00030100A0FA090400000159
:1004D00003010100092111010001224000070581EB
:1004E0000308000A090401000203000000092111A9
:1004F00001000122220007058203200001070503F5
:100500000320000109040200010300000009211179
:100510000100012281000705840320000A12010066
:100520000200000008FEFE3BFF0100010203011C67
:10053000037600690061006C003A00660036003402
:100540000063003200620033006300000024037384
:10055000006100640065006B006200610072006F62
:10056000007500640069002000660066006B006290
:100570000000001A0373006100640065006B0062F4
:1005800000610072006F00750064006900000004E3
:10059000030904000101010101010101010202023C
:1005A000020202020202030303030303030304041F
:1005B00004040404040505050505060606060607E9
:1005C0000707070708080808090909090A0A0A0BA2
:1005D0000B0B0C0C0C0D0D0D0E0E0E0F0F0F101043
:1005E00011111112121313141415151616171718CA
:1005F0001819191A1A1B1B1C1D1D1E1E1F20202135
:100600002222232424252626272829292A2B2C2D7B
:100610002D2E2F30313232333435363738393A3B9C
:100620003C3D3E3F404142434445464748494A4C91
:100630004D4E4F50515354555658595A5B5D5E5F5D
:10064000616264656668696B6C6D6F7072737577F3
:10065000787A7B7D7E8082838587888A8C8E8F9155
:10066000939596989A9C9EA0A2A3A5A7A9ABADAF7F
:10067000B1B3B5B7BABCBEC0C2C4C6C9CBCDCFD169
:10068000D4D6D8DBDDDFE2E4E7E9EBEEF0F3F5F812
:10069000FAFDFFAA00A90050014F012B032B010115
:1006A0000001000100010001000100010001000142
:1006B0000001000100010001000100010001000132
:1006C00000010001000100010001000100010029FA
:1006D0000014001A000800150017001C0018000C78
:1006E00000120013002A002B000461166807640939
:1006F000620A000B000D720E740F7833713400E142
:10070000001D001B00060019000500110010003636
:100710000037003800E5000000A800000031002884
:1007200000015102512C004C002B042A0100000151
:10073000001E021F0220022102220223022402259F
:100740000226022702010001000153015301530157
:1007500053010001002D022E022F02300201000180
:100760000039000100010001000100010001000149
:10077000003102340201000000010000000100010C
:1007800000010003510100010001000100000035DB
:10079000001E001F0020002100220023002400254D
:1007A000002600270001004A005000510052004F6F
:1007B000002B0001002D002E002F00300001000151
:1007C0000001004E004B000100815F845F825F8367
:1007D0005F010001000100000001000000010001B4
:1007E00000035101000100010001000100000001AF
:1007F00000C25CC45CC35C010001003A003B003CE9
:10080000003D003E0001000100CB5CC55CC75CC937
:100810005C01003F00400041004200430001000134
:1008200000CC5CC65CC85CCA5C01004400450001A9
:10083000000100005C010000000100000001000157
:1008400000010001000100010001000100000001A1
:100850000001000100010001000100010001000190
:100860000001000100010001000100010001000180
:100870000001000100010001000100010001000170
:100880000001000100010001000100010001000160
:100890000001000100010000000100000001000152
:1008A0000001000100010001000100010000000042
:1008B0000000000000000000000000000000000038
:1008C0000000000000000000000000000000000028
:1008D0000000007E0F00D4FFFFFFC700000078007B
:1008E000000000000000002A2B280000000000008B
:1008F0000000000000000000000029000000002CA3
:100900001E3420212224342627252E362D37382741
:100910001E1F202122232425263333362E37381F4D
:100920000405060708090A0B0C0D0E0F101112130F
:100930001415161718191A1B1C1D2F3130232D35AD
:100940000405060708090A0B0C0D0E0F10111213EF
:100950001415161718191A1B1C1D2F3130354C0091
:1009600011241FBECFEFDAE0DEBFCDBF04B603FE19
:1009700027C08091A0059091A105A091A205B091FA
:10098000A3058730904BA740B04BD1F41092A0053F
:100990001092A1051092A2051092A30514BE84B76F
:1009A000877F84BF0FB6F894A89580916000886116
:1009B00080936000109260000FBEE0E0F8E30995BC
:1009C00012E0A0E0B1E0EEE6FEE602C005900D9276
:1009D000AA33B107D9F725E0AAE3B2E001C01D921E
:1009E000A03AB207E1F70E94F9040C9435370C9451
:1009F0000000CF93DF93CDB7DEB7E5970FB6F8943D
:100A0000DEBF0FBECDBF84B7877F84BF0FB6F8941B
:100A1000A8958091600088618093600010926000CA
:100A20000FBE90E080E80FB6F89480936100909339
:100A300061000FBE85B7806885BF85B7806885BFB8
:100A40008CE698E290933B0280933A020E94F83140
:100A50000E94EA210E9409228091E2008460809332
:100A6000E2007894809199038823A1F01091E90025
:100A70001F709091EC00892F817090FD80E8182BF9
:100A80001092E9008091E80083FD0E94C81E1F704B
:100A90001093E90082E084BD93E095BD9AEF97BD85
:100AA00080936E000E940D25811102C00E94FE24D9
:100AB0000EE111E032E2E32E31E0F32ED8018D9108
:100AC0008D018F3F11F00E94B128E016F106B1F7B9
:100AD00002E211E02EE2E22E21E0F22EF8018191F5
:100AE0008F018F3F11F00E94B128E016F106B1F797
:100AF00010923F0210923E0210926503109264031E
:100B00001092410210924002109267031092660305
:100B100010924302109242021092690310926803ED
:100B2000109245021092440210926B0310926A03D5
:100B30000E947E2B811102C00E94892B82E090E0EE
:100B40000E9448368093D9020E946D2B90933D02FB
:100B500080933C020E94C8288FE39CE90197F1F73B
:100B600000C000000E94C8288091640380FF08C074
:100B70006FEF7FEF80E090E00E9484360E949B2D13
:100B800083E090E00E9448360E94DA1B1092A60291
:100B9000EFEBF2E08FEC92E02FEF3FEF21933193F8
:100BA0008E179F07D9F710924602EFE5F2E08FE625
:100BB00092E02FEF3FEF219331938E179F07D9F7E4
:100BC0000E947E2B811104C00E94892B0E94C125A6
:100BD00046E050E06CE170E08EE993E00E94383628
:100BE00080919E038C7F11F40E94C12588ED882E90
:100BF00082E0982E4EE351E021E431E095ED692E3C
:100C000092E0792E61E070E08614970409F44EC0FA
:100C1000F901A1919F018A2F82958F7090E0FC01CC
:100C2000F1A0AF70BA2E8B0101C0000FAA95EAF7B0
:100C3000F02FF095FF22DC019196FC92919792960D
:100C4000AC91A02BFC01A2A3DA01ED90AD01EE2D39
:100C5000E295EF70F0E0F1A0BE2DBF70EB2E6B01BE
:100C600001C0CC0CBA95EAF7DC2CD094FD20F1A29F
:100C7000F2A0FC28F2A2DC0190968C9190E002C0D8
:100C800095958795BA94E2F78170E0A1F0E002C0F3
:100C9000F595E795EA94E2F7E0FF02C092E001C023
:100CA00090E0892BF30181933F01AECF80E091E08A
:100CB000909395058093940580919903853009F070
:100CC00048C000E112E180919903853009F03DC0F0
:100CD00080919903843021F11092980528E130E049
:100CE00040E40FB6F894A895209360000FBE40939F
:100CF000600083B7817F846083BF83B7816083BFD7
:100D00007894889583B78E7F83BF0FB6F894A895A3
:100D100080916000886180936000109260000FBE37
:100D200080918F03882309F4CECF0E94C828E4E67F
:100D3000F3E081919191892B11F00C941E0F6CE6D8
:100D400073E06E177F07A9F7BECF0E94DE1B0E94DB
:100D5000882E0E94C82881110E94F42DE4E6F3E059
:100D6000AAEDB2E0C12CD12C8C2CA190B1908D9128
:100D70009D918A259B25009709F456C110E0EE2429
:100D8000E394F12C9C012E213F21232B09F446C131
:100D90001BA78CA6AE20BF2081E0A114B10409F4EA
:100DA00080E08DA70E94002E8160782F9FA78EA7DC
:100DB0004BA55CA56DA58FA50E947633F601EE0FBD
:100DC000FF1FE652FD4F80819181E826F926F182CE
:100DD000E082AB2889F08CE08C9DF0018D9DF00DB8
:100DE0001124ED5AFE4FE10FF11D80818F3F21F05C
:100DF0008DAB9924939401C0912CE92CF12C809116
:100E00004602D701A80FB11D1997ACF188E090E018
:100E10005C01AE18BF08B7016F5F7F4F6A5B7D4F03
:100E2000A50187E492E00E942537B701675F7F4FF5
:100E30006A5B7D4FA5018FE492E00E942537A501F2
:100E4000440F551FB701660F771F675E7F4F6A5BC0
:100E50007D4F8FE592E00E942537B7016F5E7F4F8F
:100E60006A5B7D4FA50187E592E00E94253788E007
:100E70008919809346028091460290E0EDA9AE2F39
:100E8000B0E09D01220F331F2D573E4FAA0FBB1F0D
:100E9000BD016C577E4F41E0480F9915B0F490E0CA
:100EA000FC01EA5BFD4FD9015C915183DB015C9150
:100EB0005187BDA9B18B880F991FFC01EA5BFD4FDB
:100EC000128E118E91E0842FE6CF8093460280919E
:100ED0009E038C7F803209F0BFC0AFEFA80D01E008
:100EE000080D5FEF510F41E0410F511780F48CE086
:100EF0008C9DF0018D9DF00D1124EA58FD4FE50FFA
:100F0000F11D208130E1230F08F42FEF2083212FE2
:100F100030E07CE07C9DC0017D9D900D11248A58BD
:100F20009D4FFC01E20FF31F7081B0E26B2F760F33
:100F300008F47FEF70834C3051F0FC01E40FF11D99
:100F4000708180E1682F760F08F47FEF70830430A2
:100F500009F432C0E02EF12C511790F48CE08E9DF4
:100F6000F0018F9DF00D1124EA58FD4FE50FF11DA2
:100F700080819DE0782F092F700F08F47FEF708338
:100F8000ECE0EE9DC001EF9D900D11248A589D4F1D
:100F9000FC01E20FF31F608170E1670F08F46FEF4F
:100FA00060834C3049F0FC01E40FF11D60817DE06D
:100FB000670F08F46FEF6083A81508F04DC0B0E02C
:100FC000511780F48CE08A9FF0018B9FF00D112463
:100FD000EA58FD4FE50FF11D50816DE0560F08F402
:100FE0005FEF50838CE08A9FF0018B9FF00D1124FE
:100FF000EA58FD4FDF01A20FB31F3C9120E1320FF1
:1010000008F43FEF3C934C3039F1E40FF11D20819F
:101010003DE0230F08F42FEF20831EC01F5FEE0C6E
:10102000FF1C1C3009F0AECE1FEFC11AD10A24E01C
:10103000C216D10409F098CE8FEF88AB89AB1AAAFB
:101040000E94002E8160782F9CAB8BAB48A959A9D8
:101050006AA98CA90E94763380916F0290917002E8
:10106000A0917102B09172022FB7F894C0909905C7
:10107000D0909A05E0909B05F0909C052FBFC81A70
:10108000D90AEA0AFB0A0E94F42D60936F0270935A
:1010900070028093710290937202A0914602E6E47E
:1010A000F2E02A2F30E088248A94982CA12CB12CCD
:1010B0008C189D08AE08BF08A31799F0418D528D7A
:1010C0002A01612C712C84149504A604B70410F431
:1010D000215004C04C0D5D1D528F418F3F5F3296F1
:1010E000EBCF2093460230919E03232F237021F0F3
:1010F000E32EE694E69401C0E12C20911101213009
:10110000E9F038F0223009F472C0233009F478C0D5
:101110009BC010920E0160939A0370939B0380937F
:101120009C0390939D0389E2E6E4F2E0A6EAB2E034
:1011300001900D928A95E1F781E056C090910B01E4
:10114000E9120DC0832F837090E040910A0150E0B6
:1011500021E08417950709F420E0822F01C081E087
:101160008170809310018091A30390910F019817D3
:1011700009F484C680930F0140E060E080E00E94A3
:10118000B5257CC6F0900E0189E0F89EF02C112464
:1011900059E0D52EDF0C3AE23D1510F44AE2D42E88
:1011A0006091A203669580919A0390919B030E949F
:1011B0007926C82EFD1408F4E3C681E059E25D15D6
:1011C00010F40C94E11190910E019F5F90930E0129
:1011D00081113AC082E08093110180911001811148
:1011E00033C0E11031C083E0809311012DC0E09243
:1011F0000B01832F837080930A010E940524F3CF93
:101200008091B20381110E94B9251092B2034091DE
:101210009A0350919B0360919C0370919D032FB79B
:10122000F8948091990590919A05A0919B05B091B1
:101230009C052FBF841B950BA60BB70B4097A105F0
:10124000B10510F01092110132EDE32E32E0F32ED1
:101250000FEC12E045ED442E42E0542E5EE3652E85
:1012600051E0752E61E4C62E61E0D62E5201812C2C
:10127000912C72E0272E312CD5018D915D01E82F44
:10128000EE0FEE0FD6012D916D01A22FA295AF703A
:10129000B0E090968C9190E02F7002C09595879564
:1012A0002A95E2F79C0121703327D3018D913D01EE
:1012B000A82FA295AF70B0E090964C9150E08F703F
:1012C00002C0559547958A95E2F7CA018170992722
:1012D00040FF02C082E090E0822B932B8E2BF20124
:1012E00081932F018F70E82FF0E0E25DFE4F908137
:1012F000D7018C91890F8C93823054F0F801808152
:101300008F5F808360E0892D0E948C2421E001C0E2
:1013100020E0D7018C918F3F4CF4F80180818150FF
:10132000808361E0892D0E948C2421E0D7018C917B
:10133000082E000C990BB1010E94B636F70181937B
:101340007F01822A93940F5F1F4FF3E09F1294CF87
:1013500081100E94F42D86E0ECEAF3E08E010F5F2D
:101360001F4FD80101900D928A95E1F7E090AE03EE
:10137000D090AF03F090B003C090B1031092AE03D1
:101380001092AF031092B0031092B103E11003C0AA
:10139000DD2009F452C08091AA039091AB030E9412
:1013A000E52D9C019091A603992311F40C94E4116E
:1013B0002333310508F441C09F3F19F09F5F90939C
:1013C000A603EE2061F00E94E4271E1414F491E0BD
:1013D00001C09FEF899F802D11248093AE03DD20F3
:1013E00061F00E94E4271D1414F491E001C09FEF06
:1013F000899F802D11248093AF033091AE03332356
:10140000E1F02091AF032223C1F045EB3403C0018A
:101410001124992319F09093AE0303C081E08093C7
:10142000AE0355EB2503C0011124992319F09093C5
:10143000AF0303C081E08093AF03F11003C0CC2061
:1014400009F452C08091A8039091A9030E94E52D50
:101450009C019091A503992311F40C94EB1125366E
:10146000310508F441C09F3F19F09F5F9093A50399
:10147000FF2061F00E94C2271F1414F491E001C004
:101480009FEF899F802D11248093B003CC2061F0C1
:101490000E94C2271C1414F491E001C09FEF899FA1
:1014A000802D11248093B1033091B0033323E1F0F8
:1014B0002091B1032223C1F065EB3603C001112452
:1014C000992319F09093B00303C081E08093B00397
:1014D00075EB2703C0011124992319F09093B103F0
:1014E00003C081E08093B1038091AE0381110BC0F2
:1014F0008091AF03811107C08091B003811103C0B7
:101500008091B10381110E941327EB82DC82FD825E
:10151000CE8286E0F801ACEAB3E001900D928A95A4
:10152000E1F70E94882E9091D802891721F00E943D
:10153000882E8093D80280919903843009F0BCCB27
:1015400083E08093E9008091E80082FFB5CB809131
:10155000E80085FF21C00E943F2381111BC020E2CB
:10156000C22ED12C780109C08091F100D7018D9352
:101570007D01B1E0CB1AD10869F08091E80085FDCA
:10158000F3CF8091E8008B778093E8000E943F239F
:10159000882399F391E001C090E08091E8008B7777
:1015A0008093E800992309F487CBE090E504F0905C
:1015B000E6048981E114F10461F08E3F09F039C439
:1015C0008A81833008F4E7C28550833008F031C443
:1015D000E2C28B3009F4C9C240F5853009F480C0FD
:1015E000B0F48230F1F130F4813009F020C41A8275
:1015F00089E0BEC3833009F464C0843009F017C4A5
:101600004C816B818A810E94AE319D8335C48730C5
:1016100009F474C008F46FC0883009F4E5C089305B
:1016200009F005C40E94B92504C4803109F4DFC162
:1016300060F48D3009F47DC108F479C18E3009F46D
:101640007CC18F3009F4A4C1F2C3823109F4D4C142
:1016500008F4D0C1833109F4F9C18E3F09F49BC26B
:10166000E6C38A81823009F400C4833051F08130AE
:1016700009F0DDC30E94F42D9B838C837D836E83F0
:10168000D8C38091E1049091E204892B09F4D1C37D
:1016900080916403909165039B838C8380916603A2
:1016A000909167039D838E83809168039091690375
:1016B0009F83888780916A0390916B0399878A87BB
:1016C000B8C38A81823009F0B2C36B817C818D817D
:1016D0009E810E94EF3686E290E00E946636A9C3A2
:1016E0002D813E813227232732274C816B818A81CD
:1016F0000E94DA309EC30E9410319BC38A818134DC
:1017000021F0823409F43BC094C34B815C81809109
:101710009E03982F93704115510539F49111109241
:1017200011018C7F80939E031FC0911102C0109203
:1017300011018C7F816080939E0320EB33E06CED80
:1017400073E0F901329685919491F901A591B491D4
:101750004A175B0731F02C5F3F4F6217730789F719
:1017600080E060E00E9487258D818093A2038E81B6
:1017700020E048856F8190E00E942C255AC34B8160
:101780005C818D81E3E08E9F900111242E31310523
:101790000CF04FC3D801FA01EE0FFF1FE40FF51F45
:1017A000EA51FD4F20E030E090E02817390708F0BB
:1017B00040C31396BA01620F731F6A32710508F0B5
:1017C00038C312966C911297608313966C9113979D
:1017D000618314966C911497613708F060E7628317
:1017E0002F5F3F4F3396E1CF8A81823409F442C0A4
:1017F00028F4803451F0813471F01BC3833409F430
:1018000059C0843409F459C014C381E08B831C820D
:1018100080E78D830EC380919E03982F9370B1F063
:101820008695869590E020EB33E06CED73E0F9014E
:101830003296A591B491F901459154918A179B076D
:1018400041F02C5F3F4F6217730789F790E080E00B
:1018500002C0942F852F9B838C838091A2038D835C
:1018600080919F038E838091A0038F838091A10339
:101870008887DFC2EB80FC804EE150E06FEF70E0C4
:10188000CE0103960E942E3780EB93E0DE01139683
:101890002EE1FC0145915491E416F50628F422301E
:1018A00018F04D935D9322500496F3E08C3D9F0712
:1018B00081F7BFC28AE28B839BC18B8190E08A3221
:1018C00091050CF0B6C2FC01EE0FFF1FED57FE4F65
:1018D00020812B83FC01EE0FFF1FED5AFE4F21A943
:1018E0002C83FC01E952FE4F20812D832FEF2F83A3
:1018F0002E8363E571E040E050E020E030E0FB0142
:10190000E20FF31FE081F0E08E179F0719F44E837A
:101910002F838FC22F5F3F4F2C30310581F74F5FF0
:101920005F4F645F7F4F4430510539F782C280E1D9
:101930003BC281E08A838DE61BC2EA80FB80FE24E5
:10194000EF24FE24AC80B12C2DE1A216B10408F0E6
:1019500070C26801C7018D569D4F9601201B310B47
:101960002A153B0508F065C23DE6E31631E0F306B3
:1019700030F40E944836D60114968C9302C0F601CA
:101980001482FFEFEF1AFF0A2FEFC21AD20AE2CF3A
:101990008091E1049091E204892B09F44AC2EA8023
:1019A000FB80FE24EF24FE24CC80D12C3DE1C31625
:1019B000D10408F03EC25801C7018D569D4F9501D4
:1019C000201B310B2C153D0508F033C24DE6E41603
:1019D00041E0F40628F4D50114966C910E94663615
:1019E000BFEFEB1AFB0AEFEFAE1ABE0AE5CF0E947B
:1019F00062301FC285E0D8C1EA80FB80FE24EF245C
:101A0000FE24AC80B12CFDE1AF16B10408F011C288
:101A10006801C70187969601201B310B2A153B05EB
:101A200008F007C220EEE21621E0F20630F40E9430
:101A30004836D60114968C9302C0F6011482FFEF4B
:101A4000EF1AFF0A2FEFC21AD20AE3CFEA80FB8017
:101A5000FE24EF24FE24AC80B12C3DE1A316B1049A
:101A600008F0E7C140EEE41641E0F40608F0E1C1F9
:101A700080EE91E08E199F098A159B0508F4D9C163
:101A8000370157E2650E711C8091E1049091E204E8
:101A9000892B11F0680160C0E0FE0FC0C701869677
:101AA0000E94483690E0982F88272D81822B81153F
:101AB0009C4531F48FEF8D8303C0C12CD12C03C022
:101AC000CC24C394D12CC7018A0D9B1D450180FFF6
:101AD0001BC071E0871A910865E0462E512C4C0E10
:101AE0005D1E480C591CC3018A0D9B1D0E9448367F
:101AF000D2012C9130E0322F2227282B21153C4592
:101B000019F48FEFF2018083F801EC0DFD1D2FEF2A
:101B1000CF01801B910B8815990508F0BBCF8481FC
:101B200090E0982F88273581832B81159C4511F4EF
:101B3000248325833296ECCF40EEE41641E0F40690
:101B400028F4D60114966C910E946636BFEFEB1A0A
:101B5000FB0AEFEFCE1ADE0AC70187969601201B1B
:101B6000310B2A153B0540F364C18091E10490914B
:101B7000E204892B09F45DC1C8010E949E23FFEF96
:101B800021EE34E0F15020403040E1F700C0000089
:101B90000E949B2D4EC1EA818E2F90E08E309105E0
:101BA00008F047C1FC01EA5AFF4F0C94E93688E07F
:101BB000E3E1F1E0DE01919601900D928A95E1F763
:101BC00080E2D8011D928A95E9F784E0898388E054
:101BD000FE01B196DE01159601900D928A95E1F70E
:101BE00081E08D8726C184E7898382E08A831B8216
:101BF0001C821FC18C8190E0982F88272B81820F37
:101C0000911D092E000CAA0BBB0B45E0880F991FF4
:101C1000AA1FBB1F4A95D1F7AC01BD01405E5F4FC3
:101C20006F4F7F4F481759076A077B0708F401C1B8
:101C30008437E2E09E07A105B10508F0FAC04537F8
:101C4000F2E05F076105710520F044E752E060E0D3
:101C500070E0481B590BBC01645C7E4FC8010E94B8
:101C60002F36E7C0FB80EC8040E06E2D8F2D0E9468
:101C7000AA3099838A8341E06E2D8F2D0E94AA306D
:101C80009B838C83D6C02E813F8132272327322726
:101C90004D816C818B810E947230CBC040E250E05C
:101CA0006FEF70E0C8010E942E378091E1048983B4
:101CB000EA8285E08B8386E08C831D821E82B9C018
:101CC00081E090E09093E6048093E50482E390E065
:101CD0009093E5028093E4020E94002E9093E30229
:101CE0008093E202A6C0EF28D9F180916E03909113
:101CF0006F0326E0969587952A95E1F72091640376
:101D00002170F22EF8228091E2029091E3020E946B
:101D1000E52D85369105F0F0FF20E1F00E94002EC0
:101D20009093E3028093E2028091E4029091E502B5
:101D300001979093E5028093E402892B89F4109235
:101D4000E6041092E50481E090E09093E204809331
:101D5000E10406C082E390E09093E5028093E40200
:101D60008091E10489838091E5048A838091E40273
:101D70008B835FC01092E2041092E1045AC040E2EB
:101D800050E06FEF70E0C8010E942E3752C08B8187
:101D9000833061F0843061F181114BC080E2D80161
:101DA0001D928A95E9F788E08A8343C06C81CE0151
:101DB00081962AE0FC0111922A95E9F7683060F4D7
:101DC000FAE06F9FB00111246D5B7D4F4AE050E057
:101DD0000E94383680E001C08FEF89838AE0FE01DF
:101DE000B196DE01129601900D928A95E1F721C01D
:101DF0006C818AE0FE013596DE01919601900D928C
:101E00008A95E1F7683070F42AE0629FB0011124EE
:101E10006D5B7D4F4AE050E0CE0181960E948A368C
:101E200080E001C08FEF89830E94F83102C08FEFFC
:101E30008983C8010E949E230C945C0609BD19BDCC
:101E400009B400FEFDCF8091D8008F7D8093D8002B
:101E50008091E00082608093E0008091E00081FD4D
:101E6000FCCF0E94DE1B0C94630686E290E00E9489
:101E700048361B821C821D828E83DBCF8E2D90E024
:101E80008B30910530F080910E018F5F80930E01B1
:101E9000A1C9FC01EC59FF4F0C94E9368091100167
:101EA000882309F48EC240E060E080E00E94B525FE
:101EB00088C210910E0189E0189F102D112409E0AD
:101EC000010F0B3208F00AE260919F037091A003AA
:101ED0008091A1030E948326F62ED72EC82E1017BC
:101EE00008F022C1E12FF0E0DF01A952BE4F8C9132
:101EF00090910F01982331F02C2D4F2D6D2DCF0196
:101F00000E94B7251F5FEBCF10910E0189E0189F4B
:101F1000102D112409E0010F0B3208F00AE2D090D5
:101F2000A003F090A103C0909F03B6018F2D0E94E3
:101F30008326B62EA72E982E6091A2036C0D7D2DC0
:101F40008F2D0E948326F62ED72EC82E101708F04C
:101F5000EBC0812F90E0FC01E952FE4F30812091CF
:101F60000F01232359F030FF04C02C2D4F2D6D2D70
:101F700003C0292D4B2D6A2D0E94B7251F5FE6CF88
:101F80000F2D10E0F801E952FE4F908180910F0172
:101F90008923B1F1F801EE0FFF1FED57FE4F40818D
:101FA00050E044565109F801EE0FFF1FED5AFE4F65
:101FB00021A930E020523109449FB001459F700DA6
:101FC000700D1124229FC001239F900D900D1124AC
:101FD000860F971F0E941F269091A00343E0849FC5
:101FE000B0011124759567956C0D792F8091A1032F
:101FF0000E948326462F282F672FC8010E94B725ED
:10200000F394D8C810910E0189E0189F102D112467
:1020100089E0F82EF10E6AE26F1510F40AE2F02E54
:102020006091A203669580919A0390919B030E9410
:102030007926B82E1F1578F5C12ED12CF601E9525C
:10204000FE4F908180910F01892319F1F601EE0F67
:10205000FF1FED5AFE4F21A930E020523109F60151
:10206000EE0FFF1FED57FE4F408150E044565109DF
:1020700060919F037091A0038091A1030B2D0E949A
:1020800050260E948326462F282F672FC6010E94C4
:10209000B7251F5FCFCF81E079E27F1508F093C8A5
:1020A00090C110910E0189E0189F102D112409E0B4
:1020B000010F0B3208F00AE2D090A003F090A103C8
:1020C000C0909F036091A203669566956695809186
:1020D0009A0390919B030E9479260E94DA258058EA
:1020E00087FD8195880F682F2CE0629F612D112458
:1020F0006C0D7D2D8F2D0E948326F62ED72EC82E97
:10210000101790F4E12FF0E0DF01A952BE4F8C913F
:1021100090910F01982331F02C2D4F2D6D2DCF0173
:102120000E94B7251F5FECCF81E00A3208F44BC84C
:1021300048C18BEF95E202C084EF93E20E947A1EC1
:1021400042C800910E0189E0089F002D1124E9E0AA
:102150007E2E700E80E3871510F470E3772E809149
:102160001001882361F040E060E080E00E94B52526
:1021700080E3E6E7F2E0DF011D928A95E9F78091BE
:102180000E01811115C080917402909175020E9418
:10219000E52D21E08931910508F420E020937302B8
:1021A000499730F00E94002E90937502809374023C
:1021B00010E0272C312C4CE0642E55E5452E6AEAC0
:1021C000562E021513050CF05EC04801B3E08B22B9
:1021D00099246801D594C794D594C794689CC0018C
:1021E000699C900D1124FC01EA58FD4FEC0DFD1D7A
:1021F000F0808D5A9E4FFC01EC0DFD1D80818F3FBC
:1022000059F1A82EB12CF501E952FE4F9081809131
:102210000F01892309F13F2D242D321B08F430E0F2
:102220007091A003252D4F2D240F08F42FEF40911E
:10223000A10352E0259F200D11242E5F249F212D04
:102240001124652D631B822F0E948326462F282F81
:10225000672FC5010E94B72580917302882381F002
:102260002F2D61E0261B08F420E0689CC001699CCA
:10227000900D11248A589D4FFC01EC0DFD1D20830B
:102280000F5F1F4F9ECF81E07FE2771510F00C9417
:10229000E30897C0F0900E0189E0F89EF02C11241D
:1022A00029E0B22EBF0C8AE28B1510F49AE2B92E07
:1022B0002091A20331E0230F08F42FEF30E040E03B
:1022C00050E06FEF7FEF80E090E00E94CA36890116
:1022D000AA24A394FB1408F041C0CF2CD12CF60102
:1022E000E952FE4F908180910F018923A9F19091CD
:1022F000A602915097FD15C0292F092E000C330B13
:10230000F901EA55FD4F8189F812F3CF220F331FEF
:10231000F901EA55FD4F218D328D2017310748F71D
:1023200001C098016091A2034A2D640F08F46FEF79
:10233000C9010E947926AC0160919F037091A003AE
:102340008091A1030E94D4250E948326462F282F26
:10235000672FC6010E94B725F394BCCF81E059E2F4
:102360005B1510F00C94E3082CC0F0900E0189E08E
:10237000F89EF02C112419E0D12EDF0C6AE26D15C5
:1023800010F4BAE2DB2EFD14B0F40F2D10E0F801CA
:10239000EE0FFF1FE00FF11FEA51FD4F60817181C9
:1023A00082810E948326462F282F672FC8010E9412
:1023B000B725F394E8CF81E079E27D1510F00C9415
:1023C000E30880E00C94E3082D32314010F00C94C7
:1023D000DE090C941D0A2D32314010F00C94350AA0
:1023E00083C88F929F92AF92BF92CF92DF92EF926B
:1023F000FF920F931F93CF93DF9300D000D0CDB700
:10240000DEB7FC018081918123813481232B31F05F
:102410009F3F31F491E08F3F19F403C091E001C078
:1024200090E090FDDDC67F0161E0CF010E943F3367
:102430008C01F7018281882309F49AC09801225106
:102440003F452031310508F07BC08FEF93E00E94BB
:10245000483681117FC04EEED42ED00E03E912E033
:10246000DD2071F00115F4E01F0709F473C0C80105
:102470000E944836811101C0DA940F5F1F4FF0CFE0
:1024800019821A821B821C82AA24AA9468012FEF47
:10249000C21AD20AC8010E94483689831A82882348
:1024A00009F458C0813009F046C0480182E0880E26
:1024B000911CC6010E9448368A83882309F44AC0C9
:1024C0009FEF980F933060F4680193E0C90ED11C20
:1024D000C4010E9448368B8381112DC08601D6CF5E
:1024E000843011F06401FACFC4010E944836B82E3E
:1024F0006801E4E0CE0ED11CC80103960E94483664
:10250000BB2041F1882331F1282F30E021503109DF
:10251000A29EA001A39E500D11248B2D90E0019747
:10252000840F951F0197D0F2EFE9FFE03197F1F7A3
:1025300000C00000F7CFCE0101960E94E432CECF5A
:1025400000319FE5190709F0A8C581E00E94CF1B63
:102550000E946F1E80918704877009F441C6F701BD
:102560008281882309F43CC682E00E94772C38C619
:102570000031FFE51F0711F481E005C001312FE5AF
:10258000120721F482E00E94C31BE2CF90916C03FA
:10259000911105C090916F03992309F4B7C0980178
:1025A0003056211590E2390720F0305E2115304178
:1025B00040F4F7019581907F09F4A8C06801DD24FB
:1025C00001C06801960130542115354108F49EC0C0
:1025D00090916F03923021F5882369F080918A04ED
:1025E000982F927219F06894D1F80FC086FF0DC031
:1025F00024E1D22A0AC0C60195558F3F910511F0FA
:1026000008F06AC580E00E94FE2B81E080936F0392
:10261000D0926E03C0926D038FEF80930C019ACF1E
:10262000882309F459C5913009F05FC080910C01ED
:102630009CE2C916D104D9F4882329F00E94FF3501
:1026400010920C0187CF80916D0390916E03955588
:102650008F3F910509F018F40E94F32B03C08AE222
:102660000E94991D10926F030E9425364FC0EAE226
:10267000CE16D10421F4815080930C0126C087FD31
:1026800034C081110BC080916D0390916E039555FC
:102690008F3F910509F010F40E94FF3580910C01E5
:1026A0008F5F80930C01FDE2CF16D10471F040F4EE
:1026B00084E0C81AD10894E2C916D10480F405C098
:1026C000EDE2CE16E2E0DE0651F4F70182818823C6
:1026D00009F402C580918A04811114C0E5C4F70190
:1026E0008281882309F4F8C40DC09AE2C916D10486
:1026F00089F308F066C5F4E0CF1AD10824E2C216C7
:10270000D10440F30E94253610926F030238FFE592
:102710001F0751F4F7018281882399F181E08093AA
:102720006F038DE290E017C003382FE51207D8F051
:102730000338EFE51E0709F433C50438FFE51F072A
:1027400009F0DBC4F70182818823D9F081E080930E
:102750006F038DE292E090936E0380936D038FEF91
:1027600080930C013AC500388FE5180709F437C18A
:1027700001389FE5190709F0C0C4F7018281811172
:10278000A0C4F7019281992309F4B9C11092E90418
:102790000230FCE51F0708F49CC106312CE5120746
:1027A00038F098012A5F3C452930310508F091C185
:1027B0000E946D2B90933D0280933C0200318CE58A
:1027C000180709F4C3C008F041C00830ECE51E0743
:1027D00009F49AC0F0F404302CE5120709F487C01C
:1027E00068F402309CE5190709F477C003301C45F2
:1027F00009F0E5C080913C02826076C00630FCE5BD
:102800001F0709F46EC008F07BC080913C0288600D
:102810006BC00C308CE5180709F485C068F40A30E9
:10282000ECE51E0709F474C008F079C00E94DE1BB5
:1028300080913C02806858C00E302CE5120709F4E4
:1028400076C008F07FC080913C028BC00B3F9CE5B6
:10285000190709F44FC018F50331FCE51F0709F407
:102860007DC078F401318CE5180709F473C002319A
:102870001C4509F0A4C00E94DE1B80913C028F77AA
:1028800033C00531ECE51E0709F472C008F486C0B8
:102890000A3F1C4509F093C080913D023EC00F3FA6
:1028A0008CE5180709F45FC058F40D3FECE51E07EE
:1028B00009F444C008F43FC080913D0282602DC0FD
:1028C00001302DE5120709F475C008F45DC002302F
:1028D0001D4509F074C060E06EC080913C028160CB
:1028E00003C080913C02806180933C0268C080916B
:1028F0003C0211C080913D02826080933D025FC026
:1029000080913C028062F0CF80913C028064ECCFE9
:1029100080913C0288608460E7CF8160EECF809137
:102920003C028E7FE1CF80913C028D7FDDCF809194
:102930003C02877FD9CF80913D0218C080913D0233
:102940008D7FDBCF80913C028F7ECECF80913C0289
:102950008F7DCACF80913C028F7BC6CF80913C0295
:10296000877F8B7FC1CF80913D028D7F8E7FC5CFCA
:1029700080913C0282FB222720F991E0922790FB74
:1029800082F990FB83F9B0CF80913D02982F90950A
:1029900091708E7F892B90FB81F9AFCF0E94DE1B57
:1029A00080913C0287FB222720F991E0922790FB3F
:1029B00087F99ACF61E08EE090E00E9466366091E0
:1029C0003C0210913D0284E090E00E946636612F47
:1029D00082E290E00E9466360E94DE1BBBCDF701CA
:1029E0008281882309F4CDCE2CEDA22E23E0B22ED5
:1029F0003AE0932EF5018491882309F45AC081307E
:102A000009F04FC06501FFEFCF1ADF0AF60184918C
:102A1000813049F46501F2E0CF0ED11CF6018491BA
:102A20000E94991D41C0823049F46501F2E0CF0E49
:102A3000D11CF60184910E94F51C36C0833049F404
:102A40006501F2E0CF0ED11CF60184910E94951C25
:102A50002BC0843049F56501F2E0CF0ED11CF601A0
:102A6000249180E090E030E0205331092A30310594
:102A700070F4989EA001999E500D1124C901840FF5
:102A8000951FFFEFCF1ADF0AF6012491ECCF0097D4
:102A900059F0EFE9FFE03197F1F700C0000001972E
:102AA000F6CF0E947E3265015601FFEFAF1ABF0AD2
:102AB000A1CF80918D0481FD64CE0E94002E909361
:102AC0008C0480938B0480918D04826080938D04AC
:102AD00058CE80918A040631ECE51E0709F58A7A02
:102AE00091E009F490E090937003882311F065E37E
:102AF00001C069E282E394E00E94422E0EC00631DA
:102B00001C4509F08BC080917003882309F457C3DA
:102B100065E382E394E00E94352E0E94192C1ACDC1
:102B20008272F801E25CFC45EB30F10508F043C02D
:102B3000E159FF4F0C94E93680919E0391E089277B
:102B400080939E03109211019093B20303CD40EA4B
:102B500055E26AEA75E22CC04AEA55E260EA75E29B
:102B600027C043E755E26DE775E222C04DE755E225
:102B700063E775E21DC049E555E266E675E218C0F7
:102B800046E655E269E575E213C04FE355E26CE4B1
:102B900075E20EC04CE455E26FE375E209C04CEDFE
:102BA00053E268EE73E204C048EE53E26CED73E268
:102BB0000E942625CFCC992389F10A35EDE51E0721
:102BC00041F150F401152CE51207A9F00E3D1C450A
:102BD00029F50E94892BBECC0B359DE51907D9F04C
:102BE0000C351D45D9F480913D0282FB882780F980
:102BF00091E0892711C00E94DE1BFFEF24E38CE0E7
:102C0000F15020408040E1F700C000000E949B2D61
:102C1000A1CC81E001C080E00E94562CF7018681A2
:102C200097810097B9F4F70182810081118188238F
:102C300049F0C8010E941E19D82E682FC8010E94B1
:102C4000921B04C0C8010E94621BD82EB8018D2DB2
:102C50000E94DC310E94D3298C01F701C280D5800B
:102C6000D2949FE0D92280918704877099F0CC207C
:102C700089F0812F807F803421F080E2800F8830BE
:102C800048F082E00E94772C809187048770BB24F3
:102C9000B3948111B12CA12EA2948FE0A8228A2D89
:102CA00090E08C30910508F0D6C1FC01E658FF4F4A
:102CB0000C94E936812F807F1F70882311F01295C4
:102CC000107FCC20B9F0112309F49DC180E2800F60
:102CD000883010F0011106C080918A04182B1093DF
:102CE0008A0405C080918904182B109389040E94DE
:102CF000192C89C1802F0E94951C112309F4ABC1A6
:102D000080E2800F883010F0011104C0812F0E94F2
:102D1000122C06C010958091890418231093890401
:102D20000E94192C98C1812F807F1F70803211F072
:102D30001295107F002319F00130B1F141C0CC2071
:102D4000E9F0DD20B9F0F1E0DF1206C080918D04DA
:102D5000812B0E94FE2B7FC125E0D2120BC00E9466
:102D6000F32B80918404181310938404812F0E9404
:102D70008B1C71C180918D04812BF9CFDD2051F026
:102D800081E0D8120DC080918A04812309F463C1C7
:102D90000E94AA2C0E94F32B812F0E94841C5BC1ED
:102DA00095E0D912F7CF57C1CC2029F0E5E0ED1519
:102DB00008F451C1DBCFF4E0FD1508F44CC1ECCFB1
:102DC000CC2019F0DD2091F21EC1D11027C1E4CF33
:102DD000812F86958695837019F0813059F03BC11B
:102DE000CC2019F0C801937002C080E090E00E94EE
:102DF000722E31C1CC2019F0C801937002C080E05E
:102E000090E00E945C2E27C1802FCC2029F00E94E8
:102E100004280E94132702C00E943D270E94132706
:102E20001AC1812F8370A1F5C11015C1402F4295A1
:102E300046954770440F440F202F2F7030E0C90192
:102E4000042E01C0880F0A94EAF704FF08C02FE09F
:102E500030E001C0220F4A95EAF7209501C020E03A
:102E6000169516951370123051F070F430913104AC
:102E7000113019F0822B832308C0832B05C0282B27
:102E800080913104822701C0822B0E94DA1BE3C0AB
:102E9000CC2019F0812F817001C08695882309F418
:102EA000DAC0402F429546954770440F440F202FBB
:102EB0002F7030E0C901042E01C0880F0A94EAF790
:102EC00004FF08C02FE030E001C0220F4A95EAF766
:102ED000209501C020E0169516951370123051F020
:102EE00070F43091A403113019F0822B83234FC06A
:102EF000832B05C0282B8091A403822748C0822BF6
:102F000046C01F70CC2029F0812F0E94CF1B802F3C
:102F10002ECF802F0E94841C812F99C0023F39F14F
:102F200028F4003F41F0013FE1F069C0033F29F17F
:102F3000043F81F164C0CC2029F084E08D1508F4B1
:102F40008AC004C095E09D1508F485C01F7181E01A
:102F500090E001C0880F1A95EAF79091A4038927A1
:102F600016C0812F8F71CC2009F471C052C0812FFF
:102F70008F71CC2009F44DC06AC0CC2039F01F718C
:102F800081E001C0880F1A95EAF701C080E00E9435
:102F9000BF1B61C0CC20D9F0809184040E94122C08
:102FA000809187048770843039F40E94702C812FBF
:102FB0008F710E94C31B4EC0E4E0ED1508F44AC0B7
:102FC0001F71812F0E94CF1B63E0812F11C0909150
:102FD0008A0480918404892B80938A04F4E0FD158F
:102FE00050F40E94702C0E94AA2C64E0812F8F71F3
:102FF0000E94942C2FC081E00E94772C2BC0CC2003
:1030000059F0DD2021F0802F0E94F51C24C0812F73
:103010008F710E94CF1B1FC0DD20B9F0093341F42E
:103020002FEF87EE93E0215080409040E1F707C0FA
:10303000EFE7F8E321E0E150F0402040E1F700C085
:103040000000802F0E94951C06C0812F8F710E9466
:10305000C31B01C0B12C88EF8A0D843010F40E948C
:10306000882EBB20A9F08091870480FD11C0F70154
:1030700012828595859585950E94CF1BC7010E9478
:10308000F111809187048595859585950E94C31BD4
:1030900060E0C7010E943F33A3C00131EFE51E0786
:1030A00009F074CA82E052CA0238FFE51F0709F42A
:1030B00031CB08F03DCB00388FE5180709F058CB2D
:1030C00093CC81E080936C030E94882E81FD59CBC4
:1030D00089E30E94991D55CB02382FE5120709F4A8
:1030E00019CB08F059C000389FE5190709F449CBFE
:1030F0000138EFE51E0709F440CB033F2CE512072A
:10310000A1F406E221EE40EE63EF7CE50AC0073D44
:10311000FCE51F0709F035CB06E221EE41EE67ED35
:103120007CE5C7010E94EF2F15CA043F8CE5180704
:10313000A0F4083D9CE5190731F407E225EE45EEC1
:1031400068ED7CE5EECF093DECE51E0701F708E2EE
:1031500021E045EE69ED7CE5E4CF053F2CE5120763
:1031600031F406E221EE42EE65EF7CE5DACF053F71
:103170008CE5180730F407E225EE44EE64EF7CE5B9
:10318000D0CF063F9CE5190709F0FBCA07E225EE00
:1031900046EE66EF7CE5C5CF0338FFE51F0749F42F
:1031A000F7018281882309F4ECCA82E080936F03DF
:1031B00014C004382FE5120709F4C4CA9ECF69E28F
:1031C000A8CC8DE2C816D10409F484CA9DE2C916C0
:1031D00092E0D90609F096CA7DCAF7019281D6CA53
:1031E0000F900F900F900F90DF91CF911F910F9143
:1031F000FF90EF90DF90CF90BF90AF909F908F9017
:10320000089580E090E00E94722E80E090E00E949D
:103210005C2E10928904109288040E94192CECEA0A
:10322000F3E086E0DF011D928A95E9F71092A6038C
:103230001092A5031092A7030C941327CF92DF924C
:10324000FF920F931F93CF93DF936C010091A40320
:1032500080913104082BC7E0D0E010E0C8010C2EAB
:1032600002C0959587950A94E2F780FD04C02197E6
:10327000A8F7F12C09C0FC2EB6018C2F0E94DC317E
:103280000E94D329019799F38F2DDF91CF911F9140
:103290000F91FF90DF90CF900895CF93DF93EC01D3
:1032A0000E941E19BE010E94DC310E94D329DF91C9
:1032B000CF910895FC0186819781009719F00E94B3
:1032C000D32904C0808191810E944D19292F2F702C
:1032D000E92FE295EF704E2F50E0FA013297EE3071
:1032E000F105B8F4EA57FF4F0C94E936803F99F0A6
:1032F00018F4883E70F40FC0843F59F40CC0883E27
:1033000050F0813F31F407C0822F869586958695CF
:10331000089580E0089581E008959F92AF92BF9252
:10332000CF92DF92EF92FF920F931F93CF93DF9391
:10333000CDB7DEB765970FB6F894DEBF0FBECDBF31
:103340008C0185E0F801DE01519601900D928A957D
:10335000E1F7F801E28090913A0460913B044091DA
:103360003D0450913E044115510531F06F3F31F459
:1033700081E09F3F19F403C081E001C080E0F82F95
:10338000F1709F2E80FD4EC1F80130812181C380F4
:10339000D4807AE3A72E74E0B72EF0903C04F601B7
:1033A000E41BF50BFF2009F4EFC080913F04E83CDB
:1033B000F10508F0AAC0482F407F09F05AC06213F7
:1033C0001BC0931319C06091400470914104F8012F
:1033D000468157816417750779F4FE2CE1100CC003
:1033E0008F70806180933F04C5010E94F11180912C
:1033F0003F04F801858353C1CD2831F02F3F31F4CC
:1034000081E03F3F19F403C081E001C080E080FD0E
:1034100003C081E08E2502C080E090E0F82FF170BB
:10342000FF2E80FF1CC080918304409142048417CA
:1034300009F413C190E0FC0153E0EE0FFF1F5A9511
:10344000E1F7ED5BFB4F5181251306C0508153130B
:1034500003C05281E51203C001968770E8CFFE2CAD
:10346000EE2009F41CC180913F04816080933F04E9
:1034700058C062130FC093130DC040914004509187
:103480004104F801268137814217530719F4EE20D1
:1034900009F4A7C0C8010E945A19882381F1EE20BF
:1034A00071F120913F04822F82958F7090E00297F6
:1034B000A4F080913A0490913B049A8789871B86F7
:1034C000DD86CC862E878091400490914104988BB4
:1034D0008F87CE0109960E94F11188E0F801AAE3D6
:1034E000B4E001900D928A95E1F70E94BA2C0AC0CF
:1034F0006217C9F0C8010E945A19811127C0C8017A
:103500000E94F111FF24F394CAC0482F407F81F735
:103510008AE394E00E94F11188E0F50111928A9506
:10352000E9F7F12CBCC09313E5CF409140045091D2
:103530004104F8012681378142175307D9F6E1107B
:10354000D9CF8583C8010E94F11166C0EE20B9F27F
:1035500020913F04822F82958F7090E002970CF4A7
:10356000BCCF80913A0490913B049A8389831B825B
:10357000DD82CC822E838091400490914104988713
:103580008F83CE010196A7CFE83CF10508F044C037
:10359000FE2CEE2009F4B3CF621330C093132EC07B
:1035A0002091400430914104F801868197812817C9
:1035B000390721F590913F0490FD17C0892F82951E
:1035C0008F70282F30E02115310579F095832F3049
:1035D000310541F08F5F982F9295907F85818F7094
:1035E000892B8583C8010E94F11188E0F801AAE3C4
:1035F000B4E001900D928A95E1F751C0C8010E9494
:103600005A1981116ACF80913F04816080933F04F1
:10361000C8010E94F11143C088E0F50111928A951A
:10362000E9F73DC0EE2009F46ACFC8010E945A199B
:10363000F82E882309F463CF88E0F801AAE3B4E008
:1036400001900D928A95E1F780913A0490913B04A4
:103650000E944D190E94BA2C22C0398B2A8B89896D
:103660009A890E944D19292F22952F70223028F413
:103670009F7039F0811105C00BC0243028F49F7071
:1036800049F4805E883020F0C8010E94F1119F2C1F
:10369000F92C05C0F8019581907F99F7F9CF8F2D0E
:1036A00065960FB6F894DEBF0FBECDBFDF91CF9108
:1036B0001F910F91FF90EF90DF90CF90BF90AF9050
:1036C0009F9008959E3F61F12CE0929F800D112400
:1036D000682F669566956695982F977083E0689F2A
:1036E000B001112440E050E080E0FB01E40FF51F41
:1036F000EF58FC4F208130E0092E02C03695279507
:103700000A94E2F721703327042E01C0220F0A9495
:10371000EAF7822B4F5F5F4F4330510531F7089531
:1037200080E008959E3F51F12CE0929F800D11247E
:10373000E82FE695E695E695877051E001C0550FB4
:103740008A95EAF783E0E89FF0011124EF58FC4FD7
:1037500020E030E070E04081CB01022E02C096955F
:1037600087950A94E2F781708195842785238427C1
:1037700081932F5F3F4F2330310569F70895809380
:10378000A4030C94011921E030E001C0220F8A95B6
:10379000EAF720958091A40382230C94BF1B21E0BB
:1037A00030E001C0220F8A95EAF78091A403822BB2
:1037B0000C94BF1B809331040C94011910928A045D
:1037C00086E0E4E3F4E0DF011D928A95E9F70C94CA
:1037D0000119CF93DF93CDB7DEB760970FB6F8949A
:1037E000DEBF0FBECDBF29873A874B875C876D87C9
:1037F0007E878F87988BCE0109960E948D19811143
:1038000051C088E0FE013996DE01119601900D92BB
:103810008A95E1F779856A854C855D854115510565
:1038200031F06F3F31F481E07F3F19F403C081E054
:1038300001C080E080FD36C0A0914204B0E0CD011F
:103840000196877099272091830430E082179307AF
:1038500081F179836A835D834C8393E0AA0FBB1F58
:103860009A95E1F7AD5BBB4F98E0FE013196019070
:103870000D929A95E1F7809342040E94B02C12C0F9
:1038800028E0829FC00111248D5B9B4F0E948D19FF
:103890008823E1F08091830490E001968770992756
:1038A0008093830480918304909142048913E8CF2C
:1038B0000DC00E94DE1B1092420410928304EAE3C2
:1038C000F4E088E0DF011D928A95E9F760960FB673
:1038D000F894DEBF0FBECDBFDF91CF91089588234E
:1038E00041F08095909189048923809389040C94F8
:1038F000192C0895882339F090918904892B80939D
:1039000089040C94192C0895882321F00E94122C0C
:103910000C94192C0895882339F090918A04892BEE
:1039200080938A040C94192C0895882309F45CC0B0
:10393000823869F40E94882E81FF56C069E382E3D1
:1039400094E00E94422E0E94192C69E30EC0833835
:1039500091F40E94882E80FF47C063E582E394E0E3
:103960000E94422E0E94192C63E582E394E00E949B
:10397000352E0C94192C843869F40E94882E82FF0D
:1039800033C067E482E394E00E94422E0E94192C27
:1039900067E4EBCF9CEF980F913A10F4682FE5CFD6
:1039A00090E2980F983050F4877091E001C0990F21
:1039B0008A95EAF7892F0E94122CDBCF9BE5980F9E
:1039C000933020F480E090E00C94722E98E5980FEC
:1039D000973120F480E090E00C945C2E803F20F042
:1039E0000E943D270C9413270895CF93882309F450
:1039F0009EC0C82F8238B1F40E94882E81FD97C0E6
:103A000069E382E394E00E94422E0E94192C2FEF7A
:103A100081EE94E0215080409040E1F700C000002A
:103A200069E317C08338E1F40E94882E80FD7FC0CF
:103A300063E582E394E00E94422E0E94192C2FEF4E
:103A400081EE94E0215080409040E1F700C00000FA
:103A500063E582E394E00E94352ECF910C94192CFB
:103A60008438B1F40E94882E82FD61C067E482E34D
:103A700094E00E94422E0E94192C2FEF81EE94E0D8
:103A8000215080409040E1F700C0000067E4E1CFA2
:103A90008CEF8C0F813A80F4E4E3F4E08AE394E065
:103AA0002191C217E1F18E179F07D1F76C2F82E3A6
:103AB00094E00E94422ED1CF80E28C0F883068F4CF
:103AC000C77081E090E001C0880FCA95EAF7909135
:103AD0008A04892B80938A04C0CFEBE5EC0FE33096
:103AE00040F4F0E0E75FFD4F808190E0CF910C94CF
:103AF000722EE8E5EC0FE73150F4F0E0EE0FFF1F17
:103B0000E45FFD4F80819181CF910C945C2EC03F8A
:103B100070F08C2F0E940428CF910C9413276C2FE7
:103B200082E394E00E94352E0E94192CBFCFCF91E2
:103B300008951F93CF93DF93182F893319F0C9E1AC
:103B4000D0E002C0C0E5D0E0812F0E94F51C8FE9D3
:103B50009FE00197F1F700C000002197C1F7812F86
:103B6000DF91CF911F910C94951C8091910387FF59
:103B700011C08091E80082FD05C0809199038111F8
:103B8000F8CF11C08091E8008B770BC0809199032A
:103B9000882349F08091E80080FFF8CF8091E80009
:103BA0008E778093E8000895982F973068F590936A
:103BB000E900981739F07091EC002091ED005091D8
:103BC000F00003C0242F762F50E021FD02C09F5F3C
:103BD000ECCF3091EB003E7F3093EB003091ED0065
:103BE0003D7F3093ED003091EB0031603093EB007E
:103BF0007093EC002093ED005093F0002091EE00C4
:103C000027FDE5CF80E008958F708093E90081E083
:103C1000089520919703309198032617370748F0AD
:103C20006115710539F42091E8002E772093E800A2
:103C300001C0B901FC0120E06115710579F18091A5
:103C400099038823F1F18530F1F18091E80083FD3B
:103C50003CC08091E80082FD2EC08091E80080FF8A
:103C6000EBCF2091F3008091F20090E0922B611550
:103C7000710551F08830910538F421912093F100BD
:103C8000615071090196F3CF21E0089709F020E017
:103C90008091E8008E778093E800CECF2111CFCFBE
:103CA0000AC080919903882361F0853061F080918A
:103CB000E80083FD0AC08091E80082FFF2CF80E037
:103CC000089582E0089583E0089581E00895BC019D
:103CD00084E00C94712DBC0183E00C94712D8091D3
:103CE000A403982F9670963011F4886001C0877FE6
:103CF0000C94BF1BDF92EF92FF920F931F93CF9311
:103D0000DF938C01C0910E0189E0C89FC02D112462
:103D1000D9E0DC0FDB3208F0DAE26091A2036695AD
:103D2000669521E0620F08F46FEF80919A039091FD
:103D30009B030E947926D82ECD17F0F4EC2EF12C9F
:103D4000F701E952FE4F908180910F01892391F094
:103D500060919F037091A0038091A1032D2D4C2FA2
:103D6000F80109950E948326462F282F672FC70147
:103D70000E94B725CF5FE0CF81E0DA3208F080E023
:103D8000DF91CF911F910F91FF90EF90DF900895F9
:103D90001F93CF93DF93CDB7DEB7AA970FB6F894F2
:103DA000DEBF0FBECDBFE1E9F3E08091F10081936A
:103DB00043E0E939F407C9F780919203833009F4AD
:103DC00062C030F4813071F0823009F49CC0B3C01D
:103DD0008A3009F488C08B3009F46DC0893009F04D
:103DE000AAC020C080919103813A09F0A4C08091BB
:103DF000E800877F8093E800809195039091960377
:103E0000892B21F468E086E893E003C060E080E05D
:103E100090E070E00E94091E8091E8008B7780930B
:103E2000E80089C080919103813209F084C08091BB
:103E3000950390919603009719F0029709F07BC0C3
:103E40008091E800877F8093E8008091E80082FD00
:103E500005C0809199038111F8CF6DC02091F300C6
:103E60008091F20090E0922B029729F48091F1006A
:103E70008B7F813021F48091F100809385038091C4
:103E8000E8008B7754C080919103813A09F053C0C8
:103E90008091950390919603892B09F04CC08091F5
:103EA000E800877F8093E8008091E80080FFFCCFE6
:103EB00080910D0137C0809191038132E1F58091AD
:103EC000950390919603892BB1F58091E800877F47
:103ED0008093E8000E94B51D8091930380930D01AB
:103EE0000E94DE1B28C080919103813221F58091D0
:103EF000E800877F8093E8000E94B51D80919403BD
:103F00008093840318C080919103813AA1F4809139
:103F1000E800877F8093E8008091E80080FFFCCF75
:103F2000809184038093F1008091E8008E778093E4
:103F3000E8000E94B51D8091E80083FFE9C18091EF
:103F4000910390919203492F50E04A30510508F0B7
:103F5000DFC1FA01EC56FF4F0C94E936803821F0AE
:103F6000823809F0D5C108C080918E0390918F03EB
:103F7000992389F082600FC0809195038F708730FC
:103F800008F0C6C18093E9008091EB0085FB88278B
:103F900080F91092E9009091E800977F9093E800F3
:103FA0008093F1001092F1007CC1282F2D7F09F041
:103FB000AFC1882319F0823061F0AAC180919303C8
:103FC000813009F0A5C1933009F080E080938F0320
:103FD0002EC08091930381112AC0809195038F7028
:103FE0002FEF280F263008F093C18093E90020912D
:103FF000EB0020FF1CC0933021F48091EB00806225
:1040000014C09091EB0090619093EB0021E030E0C0
:10401000A90102C0440F551F8A95E2F74093EA00B8
:104020001092EA008091EB0088608093EB00109280
:10403000E9008091E800877F8093E8000E94B51D29
:1040400067C1811165C1109193031F778091E300CF
:104050008078812B8093E3008091E800877F8093B4
:10406000E8000E94B51D8091E80080FFFCCF8091A0
:10407000E30080688093E300111102C082E001C078
:1040800083E08093990344C18058823008F040C196
:1040900020919303309194032C3D53E0350779F53B
:1040A00083E08A838AE289834FB7F894DE0113960E
:1040B00020E03EE051E2E32FF0E050935700E4911E
:1040C00020FF03C0E295EF703F5FEF708E2F90E00E
:1040D000EA3010F0C79601C0C0968D939D932F5F74
:1040E000243149F74FBF8091E800877F8093E80033
:1040F0006AE270E0CE0101960E94091EC0C0809164
:10410000950390919603432F552743305105B1F005
:1041100068F44130510509F40AC14230510509F0F3
:10412000F7C08BE590E0E2ECF4E057C04132510576
:1041300089F14232510509F43CC0EAC0C90199270E
:1041400081309105B9F070F082309105D9F0039774
:1041500009F0DEC0EFE2F5E0E4918E2F90E0EFE2AF
:10416000F5E038C0EFE8F5E0E4918E2F90E0EFE85D
:10417000F5E030C0E3E7F5E0E4918E2F90E0E3E76F
:10418000F5E028C0EDE4F5E0E4918E2F90E0EDE459
:10419000F5E020C08330910508F0BAC0880F991F60
:1041A000FC01E35BFE4F0190F081E02D89E090E09F
:1041B00014C08330910508F0ABC0FC01EE0FFF1F67
:1041C000E95BFE4F0190F081E02DDC01AC5BBE4F5E
:1041D0008C9190E0009709F49BC02091E800277F24
:1041E0002093E8002091970330919803281739070E
:1041F00008F4C90140E0009789F120919903222336
:1042000009F43DC02530D9F12091E80023FD37C0E5
:104210002091E80022FD2FC02091E80020FFEBCF85
:104220004091F3002091F20030E0342B009759F0D8
:104230002830310540F444914093F10031960197C4
:104240002F5F3F4FF3CF41E02830310509F040E0C8
:104250002091E8002E772093E800CDCF4111CDCFFB
:104260000AC080919903882351F0853041F08091F4
:10427000E80083FD04C08091E80082FFF2CF8091C6
:10428000E8008B778093E80043C0803809F040C095
:104290008091E800877F8093E8008091900380936D
:1042A000F1008091E8008E77C7CE811131C08091F6
:1042B0009303909194039927029754F58091E80015
:1042C000877F8093E80010919303109390030E94DE
:1042D000B51D111106C08091E30087FD02C081E089
:1042E00001C084E08093990342E061EC81E00E9488
:1042F000D41D42E261EC84E00E94D41D42E261ECF4
:1043000082E00E94D41D42E260EC83E00E94D41D52
:104310008091E80083FF10C08091E800877F809340
:10432000E8008091EB0080628093EB0005C082E1A1
:1043300090E0EDE1F5E051CFAA960FB6F894DEBF1C
:104340000FBECDBFDF91CF911F9108951F920F92A5
:104350000FB60F9211242F933F934F935F936F9358
:104360007F938F939F93AF93BF93CF93DF93EF93FD
:10437000FF93C091E900CF708091EC00D82FD170ED
:1043800080FDD0E81092E9008091F000877F809353
:10439000F00078940E94C81E1092E9008091F0000D
:1043A00088608093F000CD2BCF70C093E900FF911F
:1043B000EF91DF91CF91BF91AF919F918F917F91BD
:1043C0006F915F914F913F912F910F900FBE0F9082
:1043D0001F901895E8EDF0E080818E7F8083109229
:1043E000E2001092DA001092E100A0EEB0E08C91B1
:1043F00081608C9380818F77808319BCA7EDB0E0BA
:104400008C918E7F8C9380818F7E8083109283032A
:104410000895CF92DF92EF92FF920F931F93CF9365
:10442000DF93C8EDD0E088818F7E8883E7EDF0E0F0
:1044300080818160808384E082BF81E080938303F8
:1044400088818E7F888302EE10E0F801108210923E
:10445000DA0081EEC82ED12CF601108288818F7788
:10446000888388818068888388818F7D888319BC50
:10447000109299031092900310928F0310928E0362
:1044800090EEE92EF12CF70180818B7F808388816B
:104490008160888342E060E080E00E94D41DF601E4
:1044A00080818E7F8083F80180818160808380811C
:1044B00088608083F70180818E7F8083888180611E
:1044C0008883DF91CF911F910F91FF90EF90DF9044
:1044D000CF9008951F920F920FB60F9211242F9331
:1044E0003F934F935F936F937F938F939F93AF937C
:1044F000BF93EF93FF938091E10082FF09C0809109
:10450000E20082FF05C08091E1008B7F8093E10093
:104510008091DA0080FF2AC08091D80080FF26C0F9
:104520008091DA008E7F8093DA008091D90080FF3D
:1045300018C080E189BD82E189BD09B400FEFDCFCC
:1045400081E0809399038091830381110FC00E94C1
:10455000EA210E9409228091E20084608093E200B7
:1045600005C019BC10929903109283038091E10059
:1045700080FF17C08091E20080FF13C08091E200AD
:104580008E7F8093E2008091E20080618093E20060
:104590008091D80080628093D80019BC85E0809318
:1045A00099038091E10084FF2EC08091E20084FF96
:1045B0002AC080E189BD82E189BD09B400FEFDCF3A
:1045C0008091D8008F7D8093D8008091E1008F7E0C
:1045D0008093E1008091E2008F7E8093E2008091E1
:1045E000E20081608093E20080919003882311F0C3
:1045F00084E007C08091E30087FD02C081E001C034
:1046000083E0809399038091E10083FF27C080912C
:10461000E20083FF23C08091E100877F8093E10067
:1046200082E080939903109290038091E1008E7F45
:104630008093E1008091E2008E7F8093E200809180
:10464000E20080618093E20042E060E080E00E944E
:10465000D41D8091F00088608093F000FF91EF916D
:10466000BF91AF919F918F917F916F915F914F918A
:104670003F912F910F900FBE0F901F901895209192
:10468000E4003091E50095E64091EC00842F8170C4
:1046900040FF23C08091E80080FD1DC080919903F8
:1046A000882399F0853099F08091EB0085FD11C049
:1046B0004091E4005091E5002417350729F391500B
:1046C00011F09A01E1CF84E0089582E0089583E03B
:1046D000089581E0089580E008954091E80042FF48
:1046E000DDCF0895EF92FF920F931F93CF93DF9347
:1046F0007C018B010E943F23811119C0E701011544
:104700001105A1F08091E80085FD0AC08091E800C4
:104710008E778093E8000E943F23882381F307C0AF
:1047200089918093F10001501109E9CF80E0DF9178
:10473000CF911F910F91FF90EF900895CF9320910B
:1047400099032430F9F4C091E900CF703091EC0066
:10475000232F217030FD20E8C22B22E02093E900B6
:104760002091E80020FF0BC040E050E060E270E0E4
:104770000E9472238091E8008E778093E800CF70CA
:10478000C093E900CF910895E3EBF3E094E0E133C7
:10479000F90729F08183608342833396F7CF089528
:1047A000FC01EE0FFF1F8E0F9F1FFC01ED54FC4F0D
:1047B0006183408322830895EEE9F3E0248130E1B0
:1047C000231B08F420E0248381E08093B203089542
:1047D000EEE9F3E0248130E1230F08F42FEF248386
:1047E00081E08093B2030895E42FF0E0EE0FFF1F05
:1047F000ED57FE4F9081921B97FD9195292F38E13F
:10480000239F212D1124620F0895809A81B38E7FFA
:1048100091B391602FB7F894E3EBF3E034E0E13328
:10482000F30789F0319148E091BB000000C037FFE9
:1048300081BB330F000000C000C000C081BB00C0BE
:104840004A9591F7EBCF2FBF8FE594E00197F1F7F1
:1048500000C000000895CF93DF9300D000D01F92D6
:10486000CDB7DEB79093E4048093E304811520E292
:10487000920748F40F900F900F900F900F90DF91D8
:10488000CF910C94CC358EEF89838A831B820E9452
:10489000002E8160782F9D838C8349815A816B81A2
:1048A0008D810E9476330F900F900F900F900F9094
:1048B000DF91CF910895CF93DF9300D000D01F9266
:1048C000CDB7DEB79093E4048093E304811520E232
:1048D000920748F40F900F900F900F900F90DF9178
:1048E000CF910C94E6358EEF89838A8381E08B83A8
:1048F0000E94002E8160782F9D838C8349815A818C
:104900006B818D810E9476330F900F900F900F90E6
:104910000F90DF91CF910895AF92BF92CF92DF9227
:10492000EF92FF920F931F93CF93DF93B82EA62E93
:10493000C090A40380913104C82AC7E0D0E0D12CF4
:10494000E12CF12CD701C6010C2E04C0B695A79519
:10495000979587950A94D2F780FF13C04A2D6B2D47
:104960008C2F0E94AA308C018130910551F00E9459
:104970005B248FE39CE90197F1F700C00000C801B8
:1049800011C02197F8F64A2D6B2D80E00E94AA30C5
:10499000EC010E945B248FE39CE90197F1F700C0D2
:1049A0000000CE010E942B2481E0DF91CF911F9166
:1049B0000F91FF90EF90DF90CF90BF90AF90089550
:1049C000CF93C82F811102C06FEF01C06DE783E262
:1049D00090E00E946636C11102C06FEF01C068E32B
:1049E00084E290E00E946636C11102C06FEF01C000
:1049F00068E685E290E0CF910C94663680E00E94F4
:104A0000E02460E086E290E00E9466360E94103169
:104A10000E94623081E00C94E02483E290E00E94E6
:104A200048368D3781F484E290E00E94483688331E
:104A300051F485E290E00E94483691E0883609F012
:104A400090E0892F01C080E081700895882311F0E3
:104A5000FA0101C0FB01099490919E03937071F0DB
:104A600080939F036093A003413708F040E7409391
:104A7000A1038091B203282B2093B2030895EEE99D
:104A8000F3E0438120E1421B08F440E0818121E012
:104A9000628190E00C942C25EEE9F3E0438120E163
:104AA000420F08F44FEF818121E0628190E00C9485
:104AB0002C25EEE9F3E0628120E1621B08F460E05E
:104AC000818121E0438190E00C942C25EEE9F3E014
:104AD000628120E1620F08F46FEF818121E0438160
:104AE00090E00C942C25EEE9F3E0818190E021E048
:104AF0004381628108970C942C25EEE9F3E08181D3
:104B000090E021E04381628108960C942C259091DD
:104B10009E039370A1F0811102C0946007C08B3096
:104B200010F0986203C0880F880F982B90939E0313
:104B3000109211018091B203682B6093B203089523
:104B400080919E0386958695815009F48AE061E004
:104B50000C94872580919E03869586958F5F8B3078
:104B600008F081E061E00C9487250C94C4230C9438
:104B7000D02346E050E06CE170E08EE993E00C94C5
:104B80005636EEE9F3E085E0808380911B01909139
:104B90001C01A0911D0181839283A3838FE78483ED
:104BA0008FEF85830C94B92522E8241B08F420E0BC
:104BB000620F0895482F982F46FD9095E92FEF73C7
:104BC0009F7046FD9F5FE295EF70EE0FF0E0EF5FA4
:104BD000FD4F2181299F802D212D112482958F70D9
:104BE0002295207F822B3081982F930F892F47FDAC
:104BF0008195805808950F931F93CF93DF93D62FFD
:104C0000072F182FC42F822F0E94DA25EC2FF0E0F7
:104C1000EE0FFF1FED57FE4F90819058890F87FDD3
:104C20008195880F682F2CE0629F612D11246D0FF4
:104C3000702F812FDF91CF911F910F910895BC01AB
:104C40008230910508F40895613E8EE1780748F4BA
:104C50009B0195E0369527959A95E1F748E0420F3C
:104C600001C04FEF91E0242F30E0290F311D359521
:104C70002795229FF001239FF00DF00D11246E1750
:104C80007F0718F44FEF420F04C02F3F39F091E037
:104C9000920F491740F78FEF890F08958FEF08950E
:104CA0000F93CF93DF93D72FC82F47FD4195E2E3B2
:104CB000F0E0CF01841B910947FD9395889FB001D7
:104CC000899F700D700D1124229FC001239F900DAC
:104CD000900D1124860F971F0E941F26682F660FC4
:104CE000860F682F600F7D2F8C2FDF91CF910F9152
:104CF000089520E030E0869F212D969F200D311DE4
:104D00001124C9010895CF92DF92EF92FF920F9381
:104D10001F93CF93DF93F62E472FE82FF0E071110A
:104D200006C0ED56FA4F8491782F682F73C0272F55
:104D300030E0ED56FA4FE491FE2F0E2F10E056E0D2
:104D4000659FC0011124CFEFD0E0BE010E94A236C2
:104D50005BEA5603C001579F900D11248F0D911DE2
:104D60008F0D911D982F990F980F7E01E21AF30A6B
:104D7000E09ED001E19EB00DF09EB00D11248B2F6E
:104D8000499FA0011124452F55277E01E41AF50AF9
:104D9000E09EA001E19E500DF09E500D11246E0189
:104DA000C91AD108C29E7001C39EF00CD29EF00CAD
:104DB00011242F2D3327C21BD30BC09F9001C19FFD
:104DC000300DD09F300D1124932F6230710591F07A
:104DD00048F461157105E1F061307105B9F49E2F59
:104DE000E52F16C06430710569F040F0663071053A
:104DF00079F00CC09E2FEB2F832F0AC0EB2F8F2F43
:104E0000952F06C09B2F8E2FE32F02C09B2F852F3F
:104E10007E2F692FDF91CF911F910F91FF90EF901F
:104E2000DF90CF9008950E94002E2091AE032111B3
:104E300004C02091AF03222321F09093AB03809311
:104E4000AA032091B003211104C02091B1032223B1
:104E500021F09093A9038093A803E0919405F09129
:104E60009505309749F082E08093AC030480F5818A
:104E7000E02D8CEA93E009940895803F39F4809105
:104E8000AF0387FF6AC01092AF0367C0813F29F468
:104E90008091AF031816BCF360C09091AE03823FBF
:104EA00029F497FF5AC01092AE0357C0833F19F4FC
:104EB0001916CCF352C09091B003893F31F4191602
:104EC0000CF04BC01092B00348C08A3F19F497FF12
:104ED00044C0F8CF8B3F39F48091B10387FF3DC0C8
:104EE0001092B1033AC08C3F29F48091B103181697
:104EF000BCF333C0843F21F48091AD038E7F17C093
:104F0000853F21F48091AD038D7F11C0863F21F450
:104F10008091AD038B7F0BC0873F21F48091AD035F
:104F2000877F05C0883F31F48091AD038F7E8093E9
:104F3000AD0313C08D3F21F48091A7038E7F0BC07A
:104F40008E3F21F48091A7038D7F05C08F3F29F408
:104F50008091A7038B7F8093A7038091AE0381117B
:104F600006C08091AF03811102C01092A603809108
:104F7000B003811106C08091B103811102C010926B
:104F8000A50308958091A70380FD16C081FD16C07A
:104F900082FD18C08091A503882391F0883290F497
:104FA00028E0829FC001112468E270E00E94B636BA
:104FB000862F672B29F007C082E0089584E00895CA
:104FC00081E0089588E008958091A70380FD14C0D2
:104FD00081FD14C082FD16C08091A603882381F054
:104FE000843180F422E3829FC001112464E170E0E7
:104FF0000E94B636862F08958CE0089589E10895C1
:1050000085E0089582E30895803F21F40E94E4271B
:10501000819504C0813F29F40E94E4278093AF0367
:105020000895823F21F40E94E427819504C0833FC4
:1050300029F40E94E4278093AE030895893F19F470
:105040000E94C22705C08A3F31F40E94C227819581
:105050008093B00308958B3F21F40E94C22781956D
:1050600004C08C3F29F40E94C2278093B1030895A5
:10507000843F21F48091AD03816017C0853F21F406
:105080008091AD03826011C0863F21F48091AD0311
:1050900084600BC0873F21F48091AD03886005C018
:1050A000883F31F48091AD0380618093AD03089512
:1050B0008D3F21F48091A70381600BC08E3F21F4C6
:1050C0008091A703826005C08F3F29F48091A703D8
:1050D00084608093A703089580E0089590913C0236
:1050E00092FF0DC0282F2871283019F4877F846023
:1050F00006C0282F2471243011F48B7F886093FF21
:105100000DC0282F2871283119F4877E846106C0CC
:10511000282F2471243111F48B7E886120913D0267
:1051200020FF0DC0382F3871383019F4877F816027
:1051300006C0382F3171313011F48E7F886021FF25
:105140000DC0282F2871283119F4877E816106C08F
:10515000282F2171213111F48E7E886194FD877E84
:105160000895F894E82FE295EF70F0E031A1282F30
:105170002F7081E090E001C0880F2A95EAF7982F00
:105180009095932391A392A1892B82A3789408955B
:105190008F929F92AF92BF92CF92DF92EF92FF9247
:1051A0000F931F93CF93DF93CDB7DEB728970FB63A
:1051B000F894DEBF0FBECDBFAE014F5F5F4F7A01E7
:1051C00088E0DA011D928A95E9F70EE111E06A01A3
:1051D000AA24A394B12CF80180818F3F09F44DC01B
:1051E000F894E82FE295EF70F0E021A18F70A5010F
:1051F00002C0440F551F8A95E2F7CA01922F982BDF
:1052000091A392A18095892382A3789400C0E2E2C1
:10521000F1E020E030E0812C912C81918F3FC1F0B2
:10522000A82FA295AF70B0E090964C9150E08F708F
:10523000DA0102C0B595A7958A95E2F7A0FD08C0EE
:10524000C501022E02C0880F991F0A94E2F702C01E
:1052500080E090E0882A992A2F5F3F4F2C3031055B
:10526000E1F6F80180818F3F11F00E94B128F0EA49
:10527000FA95F1F7D6018D929C920F5F1F4FB2E025
:10528000CB0ED11CE1E002321E0709F0A4CF48E0AA
:1052900050E0B7018EE392E00E94183711E00097CA
:1052A00009F410E0892B89F088E0F701AEE3B2E061
:1052B00001900D928A95E1F781E0809390040E941D
:1052C000002E90938F0480938E0480919004882305
:1052D00051F180918E0490918F040E94E52D0597E5
:1052E00010F180913E0290913F029093650380936C
:1052F00064038091400290914102909367038093F0
:1053000066038091420290914302909369038093D7
:105310006803809144029091450290936B038093BF
:105320006A031092900480911201882341F18091C8
:10533000900590919105009711F10E94E52D209123
:10534000EA043091EB0428173907C8F490918E05D0
:1053500080918F05981759F00E94402F1092EB040E
:105360001092EA04109291051092900508C00E94D4
:10537000C22E10929105109290050E94212F812F2C
:1053800028960FB6F894DEBF0FBECDBFDF91CF9148
:105390001F910F91FF90EF90DF90CF90BF90AF9053
:1053A0009F908F900895CF93DF938238910569F194
:1053B000B0F48133910509F46FC048F48932910546
:1053C00009F465C08A32910509F46BC08AC085333F
:1053D000910509F457C089339105B9F082C0833E25
:1053E000910571F138F4803E9105B1F0823E91054E
:1053F00011F177C0863E9105B9F1873E9105C9F15B
:10540000843E910509F06DC024C020913C0220FD2E
:1054100053C021FD51C065C080913C0280FD46C053
:1054200080913D0280FF48C080913C0284FD50C1C4
:1054300083EE90E04FC180913C0282FF3AC0F4CFEE
:1054400080913C0282FD35C080913D0280FD34C0D8
:10545000EBCF80913D0281FF35C080913C0284FDFD
:1054600037C187EE90E036C180913C0283FF27C0B0
:10547000F4CF80913C0283FD22C080913D0281FDEA
:1054800021C0EBCF80913C0285FD1FC021C08091DF
:105490003C0285FD1DC019C080913C0286FD1BC0E9
:1054A0001DC080913C0286FD19C015C089E390E0C3
:1054B00011C182EE90E00EC180EE90E00BC186EE4D
:1054C00090E008C184EE90E005C189E290E002C15D
:1054D00085E390E0FFC08AE290E0FCC081E390E0C9
:1054E000F9C0811531E5930708F069C0811540E5E1
:1054F0009407F0F09C0174E0369527957A95E1F7D2
:10550000922F9370482F437021E030E002C0220FA9
:10551000331F4A95E2F73C68392B982F9F70969578
:10552000969540E2949FC0011124822B932BD2C008
:10553000883E910568F5803E910508F0CBC0883A19
:105540009105B8F4853A910548F0855AE82FF0E0C6
:10555000E75FFD4F808190E09064BCC08130910591
:1055600009F4B3C008F4B4C08430910508F4B0C0A5
:10557000B1C08F3B910508F0ABC0885AE82FF0E02E
:10558000EE0FFF1FE45FFD4F808191819464A2C004
:10559000811520E2920758F4811531E0930708F055
:1055A00099C0803F910508F493C0906593C0811520
:1055B00040E4940708F48CC09F70906A8BC08115FA
:1055C00025E5920708F042C0811534E5930728F0DD
:1055D000982F8827846F906A7DC0811543E59407D2
:1055E000B0F09C012370332741E050E002C0440F2B
:1055F000551F2A95E2F7282F2695269580E2289FA9
:1056000090011124CA01822B932B9A6863C08115E3
:1056100022E5920728F4982F8827816F906A5AC054
:105620009C012370332741E050E002C0440F551F16
:105630002A95E2F7282F2695269580E2289F90014B
:105640001124CA01822B932B9C6844C0EC01811564
:1056500039E59307A8F48115984528F09C2F8827F1
:10566000806F906A37C0C11586E5D80788F58C2F02
:105670000E946E288F7190E0982F882790622AC030
:1056800081152AE5920790F48C2F8F700E946E2866
:1056900094E0D695C7959A95E1F7CF70D0E0DC2FCE
:1056A000CC27D0699E01282BC90114C090568115C2
:1056B000904270F48D2F8F710E946E28282F2F71C9
:1056C000CE0199279062922B05C081E090E002C044
:1056D00080E090E0DF91CF910895CF9384E090E057
:1056E0000E944836C82F82E290E00E9448362C2F54
:1056F00030E0A901582BCA01CF91089580E090E0D5
:105700000E9450368A3E9E4F11F40C940D2580E085
:1057100008956AEE7EEF80E090E00E94843660E0BB
:1057200082E090E00E94663660E083E090E00E94B4
:1057300066361092310460E084E090E00E946636A4
:1057400060E082E290E00E94663660E085E090E0F2
:105750000E94663660E086E090E00E9466366FEF59
:1057600087E090E00E94663640E050E0BA0188E0B1
:1057700090E00E94783660E08DE090E00E9466360E
:1057800040E050E0BA0188E190E00E94783660E0A5
:1057900087E190E00E94663640E050E0BA018CE17B
:1057A00090E00E94783660E070E080E290E00E9435
:1057B000843640E050E0BA0188E190E00E947836FB
:1057C00080E00E94E0240E94FE2440E050E0BA0104
:1057D0008FE090E00E94783640E050E0BA0183E12B
:1057E00090E00C94783680918D04882331F01092EB
:1057F0008D0410928C0410928B040895CF93909195
:105800003D0292FD0DC090918D04981749F0C82F6C
:105810000E94002E90938C0480938B04C0938D047F
:10582000CF910895809590918A04892380938A046A
:10583000089590918A0480918904892B909188041D
:10584000892B8093320480918D04882311F10E946A
:10585000002E20918B0430918C04821B930B88388E
:10586000934110F00E94F32B9091320480918D04AB
:10587000892B80933204E4E3F4E097E080E09150D8
:1058800029F021912223D9F38F5FF9CF81110E9452
:10589000F32BE0919405F0919505309731F002805B
:1058A000F381E02D82E394E009940895CF93C091B1
:1058B0003D02C2FB992790F9981781F080FBC2F94D
:1058C000C0933D0260913C0284E090E00E94663605
:1058D0006C2F82E290E0CF910C946636CF910895C0
:1058E00010928704109286041092850408952091E6
:1058F00087048095822380938704982F977041F4C2
:1059000030E0482F082E000C550B2417350721F4E2
:1059100090913D0292FF07C08595859585950E94DF
:10592000C31B0C94702C089590913D0292FD10C001
:1059300098E0899F90011124262B209387040E94D0
:10594000CF1B0E94002E90938604809385040895B7
:105950000C94CF1B809184048111109284040895CB
:105960008091830490914204891719F08F5F8770AA
:10597000FBCF08951F93CF93DF9380913F048295CF
:105980008F7009F05CC080913C04882309F457C0F3
:10599000809183041091420460913A0470913B0419
:1059A000C0913D04D0913E0491E06F3F09F090E03A
:1059B000292F811709F443C0209721F07F3F21F060
:1059C00030E003C031E001C0322F90E030FD34C040
:1059D000FC0133E0EE0FFF1F3A95E1F7DF01AD5B0D
:1059E000BB4F11963C911197371326C03C9136134B
:1059F00023C012963C91129731111EC013964D91FF
:105A00005C9114974C1B5D0B483C5105A8F48091A8
:105A10003F048F70806180933F04E85BFB4F80817F
:105A20008F70806180838AE394E00E94F111DF919E
:105A3000CF911F910C94B02C01968770BACFDF9153
:105A4000CF911F91089580918503089524E02093BC
:105A5000E9002FEF3091E800215035FD06C035ED0B
:105A60003A95F1F700002111F5CF2091E80025FFCC
:105A70000BC040E050E066E070E00E94722380912D
:105A8000E8008E778093E8000895CF93DF9321E0BC
:105A90002093E9002FEF3091E800215035FD06C03A
:105AA00035ED3A95F1F700002111F5CF2091E8008E
:105AB00025FF14C0EC0140E050E068E070E00E9477
:105AC00072238091E8008E778093E80088E0FE01E1
:105AD000A6E8B3E001900D928A95E1F7DF91CF91AE
