:100000000C9404040C944B040C944B040C944B047B
:100010000C944B040C944B040C944B040C944B0424
:100020000C944B040C944B040C94FF1A0C943B1A44
:100030000C94EE210C944B040C944B040C944B0444
:100040000C944B040C944B040C944B040C944B04F4
:100050000C944B040C94A1210C944B040C944B0471
:100060000C944B040C944B040C944B040C944B04D4
:100070000C944B040C944B040C944B040C944B04C4
:100080000C944B040C944B040C944B040C944B04B4
:100090000C944B040C944B040C944B040C944B04A4
:1000A0000C944B040C944B040C944B04BD09D309E1
:1000B000DA09120A230A2E0A400A530A9A0A9F0AE8
:1000C000F90AF90AF90AA70A400F400F790F790FC8
:1000D000CE0FEA0F11111111F70F67107410741081
:1000E000591259126C126C1262126C126C126C1250
:1000F0005912591267126C126C12671243186A185F
:100100001D1A6A181D1AB618D9181D1ADA19EA1913
:10011000FD377A585A000004E6D6B44602002101A1
:1001200016000000742FE5A3E0083A02325D003D9E
:100130008889C65436C3174FE4F1E112FDEF008EF3
:10014000FF6F9387B42647FBB729D03483DA2C4E50
:100150008C1ED4A2101D9A2C5F0D89D27368D260B8
:10016000BA373DA8E3D3B6E9EEFE41AA1609B24B71
:10017000AA6CAED770B8FA763BEC87BCD647C9C339
:10018000D7F4FC328CD9DA11ACA1A803FD9737F271
:10019000EDAD312858895EF8982C667A7EB19F893A
:1001A00017FB0BEC0D0704D3D451C9A9618D85F35E
:1001B000ECB151F4A55C2E98C18C6B1A234DFC89CF
:1001C000E7AA7B362165C87FEA7CC184DA5B747953
:1001D00026A41C278A34D6E9451C2F6EBC9F8E1D91
:1001E0002BADE87C74A4F843BD8385EC9A5376313B
:1001F0009F7E36BEA466180AD3AAEF168657B95B4F
:10020000907069CEE6BE08226BFC9C33B945C40DE4
:1002100084025A98B2391A04111EA725C2F9A02CDB
:10022000A36528AF15A3670FA2498CE7B8FC0A3A6B
:100230002060DC91725BC8702ABF02C13D8306CB8F
:10024000E1B9B275CFC4D2F2E58E080E84F02C9AD3
:100250001642C46302B70D6B3707009B4E19A127E6
:10026000A7813DF1EDAFE50565A3863B1AD132705C
:10027000A8B51A3CDC6E00DE5AE67FDD96C1AB52B3
:100280003D9BDA22139C7E60AB8BD7600CFAD7CBF8
:1002900096A5050FC34E975B5557C353576F533AF7
:1002A000B27438713EEB0C07A8E2CEB398801859AF
:1002B000E51BFB6B9E5F04EB14E89602228CC0F4F6
:1002C0002C0D600F67B2EA82017F6ABABCA0DE73B0
:1002D0005CAA9E418FDD9077D06EA676B0AF847E0B
:1002E0008F0D81ED8AD290DD1E34FC2C631E2F5CB5
:1002F000E68EE379FDA4224CBF14780CC7ACB95943
:10030000DBA62E4428A4869625C2DE7B24CBA65BE2
:10031000608E5C6276FFDA614B2D5740815DF94952
:10032000E53D6E8CCE2449C350BF7C6B235F78E2E1
:1003300070CAEDDF95E0BFC1818FCA2CC7FC90B6B3
:1003400052E7C44E69751656C2EDFBA116084C3132
:10035000FE9970AF1ECAE9501CA0872D492C0314CA
:1003600000000000A007AE328E000B010001CE0499
:10037000BB100000326762CBB1C467FB0200000013
:100380000004595A2E200005010902A10185020925
:1003900001A100050919012905150025019505751B
:1003A00001810295017503810105010930093115AB
:1003B00081257F95027508810609381581257F956D
:1003C0000175088106050C0A38021581257F950103
:1003D00075088106C0C005010980A10185031901C6
:1003E0002AB700150126B700950175108100C005D8
:1003F0000C0901A101850419012AA002150126A0FA
:1004000002950175108100C00660FF0961A1010914
:1004100062150026FF00952075088102096315000A
:1004200026FF00952075089102C005010906A1016B
:10043000050719E029E715002501950875018102D6
:100440009501750881010507190029FF150026FF90
:10045000009506750881000508190129059505759F
:10046000019102950175039101C009025B0003012E
:1004700000A0FA0904000001030101000921110193
:1004800000012240000705810308000A0904010059
:1004900002030000000921110100012222000705CA
:1004A0008203200001070503032000010904020064
:1004B000010300000009211101000122810007054C
:1004C000840320000A1201000200000008FEFE3B27
:1004D000FF0100010203011C037600690061006C4A
:1004E000003A0066003600340063003200620033D8
:1004F0000063000000240373006100640065006B6A
:10050000006200610072006F0075006400690020E5
:1005100000660066006B00620000001A0373006151
:1005200000640065006B006200610072006F00757E
:100530000064006900000004030904AA00A9005037
:10054000014F012B032B01010001000100010001FB
:100550000001000100010001000100010001000193
:100560000001000100010001000100010001000183
:1005700000010001000100290014001A0008001504
:100580000017001C0018000C00120013002A002B9A
:100590000004611668076409620A000B000D720E00
:1005A000740F7833713400E1001D001B0006001940
:1005B00000050011001000360037003800E500008B
:1005C00000A800000031002800015102512C004C0D
:1005D000002B042A01000001001E021F022002213C
:1005E0000222022302240225022602270201000120
:1005F000000153015301530153010001002D022E4C
:10060000022F023002010001003900010001000147
:10061000000100010001000100310234020100006C
:100620000001000000010001000100035101000170
:100630000001000100000035001E001F0020002105
:100640000022002300240025002600270001004A84
:10065000005000510052004F002B0001002D002ED1
:10066000002F0030000100010001004E004B00018E
:1006700000815F845F825F835F01000100010000F1
:100680000001000000010001000351010001000110
:10069000000100010000000100C25CC45CC35C01F9
:1006A0000001003A003B003C003D003E000100011B
:1006B00000CB5CC55CC75CC95C01003F00400041E9
:1006C000004200430001000100CC5CC65CC85CCA6B
:1006D0005C01004400450001000100005C010000D5
:1006E0000001000000010001000100010001000103
:1006F00000010001000000010001000100010001F3
:1007000000010001000100010001000100010001E1
:1007100000010001000100010001000100010001D1
:1007200000010001000100010001000100010001C1
:1007300000010001000100010001000100010000B2
:1007400000010000000100010001000100010001A2
:100750000001000100000000000000000000000097
:100760000000000000000000000000000000000089
:1007700000000000000000000000007E0F00D4FF19
:10078000FFFFC70000007800000000000000002A02
:100790002B28000000000000000000000000000006
:1007A000000029000000002C1E34202122243426C1
:1007B00027252E362D3738271E1F202122232425BA
:1007C000263333362E37381F0405060708090A0B6F
:1007D0000C0D0E0F101112131415161718191A1BE1
:1007E0001C1D2F3130232D350405060708090A0B7F
:1007F0000C0D0E0F101112131415161718191A1BC1
:100800001C1D2F3130354C0011241FBECFEFDAE014
:10081000DEBFCDBF04B603FE27C080915203909186
:100820005303A0915403B09155038730904BA740D8
:10083000B04BD1F410925203109253031092540310
:100840001092550314BE84B7877F84BF0FB6F89407
:10085000A89580916000886180936000109260008C
:100860000FBEE0E0F8E3099511E0A0E0B1E0E6E2B8
:10087000FAE502C005900D92AC37B107D9F723E035
:10088000ACE7B1E001C01D92A235B207E1F70E94CA
:100890004D040C94112D0C940000CF93DF93CDB731
:1008A000DEB7E4970FB6F894DEBF0FBECDBF84B7B6
:1008B000877F84BF0FB6F894A89580916000886107
:1008C00080936000109260000FBE90E080E80FB649
:1008D000F89480936100909361000FBE85B78068A3
:1008E00085BF85B7806885BF89E59CE190937D01D0
:1008F00080937C010E94DA250E947F1A0E949E1A32
:100900008091E20084608093E20078948091D40129
:100910008823A1F01091E9001F709091EC00892FBD
:10092000817090FD80E8182B1092E9008091E8001A
:1009300083FD0E945D171F701093E90082E084BD63
:1009400093E095BD9AEF97BD80936E000E94F32AC5
:10095000811102C00E94E42A05E111E0E9E1EE2ED6
:10096000E1E0FE2ED8018D918D018F3F11F00E94A4
:100970009E1CE016F106B1F709E111E0F801819142
:100980008F018F3F11F00E949E1CF1E005321F077E
:10099000A9F710928101109280011092A00110928B
:1009A0009F0110928301109282011092A201109275
:1009B000A10110928501109284011092A40110925D
:1009C000A30110928701109286011092A601109245
:1009D000A50180E090E00E94862C8A3E9E4F21F483
:1009E0000E94F32A811102C00E946B1F82E090E0F6
:1009F0000E947E2C809392010E945A1F90937F0147
:100A000080937E010E94B51C8FE39CE90197F1F76A
:100A100000C000000E94B51C80919F0180FF08C0AB
:100A20006FEF7FEF80E090E00E94AA2C0E947D2172
:100A300083E090E00E947E2C0E94BD1461E9862E26
:100A400061E0962E25E331E048E351E07EE8672E31
:100A500071E0772E61E070E08614970409F44EC0CF
:100A6000FA01A191AF018A2F82958F7090E0FC016D
:100A7000F1A0AF70EA2E8B0101C0000FAA95EAF732
:100A8000F02FF095FF22DC019196FC9291979296BF
:100A9000AC91A02BFC01A2A3D901FD909D01EF2DEB
:100AA000E295EF70F0E0B1A0BF2DBF70FB2E6B019F
:100AB00001C0CC0CBA95EAF7DC2CD094DB20D1A293
:100AC000D2A0CD28C2A2DC0190968C9190E002C009
:100AD00095958795EA94E2F78170E0A1F0E002C075
:100AE000F595E795FA94E2F7E0FF02C092E001C0C5
:100AF00090E0892BF30181933F01AECF80E091E03C
:100B000090933A038093390352E0252E312C809143
:100B1000D401853009F047C000E112E18091D40191
:100B2000853009F03CC08091D401843021F11092CD
:100B30003D0328E130E040E40FB6F894A8952093F7
:100B400060000FBE4093600083B7817F846083BFE5
:100B500083B7816083BF7894889583B78E7F83BF86
:100B60000FB6F894A895809160008861809360002A
:100B7000109260000FBE8091CA01882309F4CECF85
:100B80000E94B51CEFE9F1E081919191892B09F068
:100B900034C587EA91E08E179F07B1F7BFCF0E9457
:100BA000C1140E946A220E94B51C81110E94D621A4
:100BB000AFE9B1E0E3E9F1E000E010E0702F2D9142
:100BC0003D918191919182279327009709F445C027
:100BD00060E0EE24E394F12CAC014E215F21452B23
:100BE000B1F16BA77CA72E213F2181E0232B09F4D3
:100BF00080E08DA70E94E2218160782F9FA78EA7B9
:100C00004BA55CA56DA58FA50E94AC27000F111FF9
:100C1000F801ED56FE4F80819181E826F926F18298
:100C2000E0825BE8E52E51E0F52E08E811E06EE881
:100C3000662E61E0762E75E3C72E71E0D72EE8E3CD
:100C40008E2EE1E09E2E5301412C512C58C06F5F37
:100C5000EE0CFF1C6C3009F0BFCF0F5F1F4F04304C
:100C6000110509F0ABCF8FEF88AB89AB1AAA0E94B0
:100C7000E2218160782F9CAB8BAB48A959A96AA966
:100C80008CA90E94AC27CDCF822B932B8E2BF30106
:100C900081933F018F70E82FF0E0EB5DFE4F908174
:100CA000D7018C91890F8C9382300CF459C0F801D4
:100CB00080818F5F808360E0852D0E94332621E054
:100CC000D7018C918F3F4CF4F80180818150808353
:100CD00061E0852D0E94332621E0D7018C91082EFA
:100CE000000C990BB1010E94C82CF70181937F0180
:100CF000422A53940F5F1F4FF3E05F1699F1D5011D
:100D00008D915D01E82FEE0FEE0FD4012D914D0175
:100D1000A22FA295AF70B0E090968C9190E02F70CA
:100D200002C0959587952A95E2F79C01217033279B
:100D3000D6018D916D01A82FA295AF70B0E090966D
:100D40004C9150E08F7002C0559547958A95E2F717
:100D5000CA018170992740FF97CF82E090E094CF3D
:100D600020E0AECF41100E94D62186E0ECE4F3E013
:100D70008E010F5F1F4FD80101900D928A95E1F708
:100D8000C0904E03D0904F03E0905003F090510379
:100D900010924E0310924F03109250031092510381
:100DA000C11003C0DD2009F451C080914A03909125
:100DB0004B030E94C7219C0190914603992309F49B
:100DC0003BC42333310508F441C09F3F19F09F5FB6
:100DD00090934603CC2061F00E94DD2B1C1414F488
:100DE00091E001C09FEF899F802D112480934E03D5
:100DF000DD2061F00E94DD2B1D1414F491E001C090
:100E00009FEF899F802D112480934F0330914E03D3
:100E10003323E1F020914F032223C1F045EB34034B
:100E2000C0011124992319F090934E0303C081E06F
:100E300080934E0335EB2303C0011124992319F04D
:100E400090934F0303C081E080934F03E11003C0F0
:100E5000FF2009F451C080914803909149030E94FA
:100E6000C7219C0190914503992309F4EAC32536D3
:100E7000310508F441C09F3F19F09F5F90934503EF
:100E8000EE2061F00E94BB2B1E1414F491E001C00F
:100E90009FEF899F802D112480935003FF2061F0E4
:100EA0000E94BB2B1F1414F491E001C09FEF899F97
:100EB000802D112480935103309150033323E1F0AE
:100EC000209151032223C1F045EB3403C0011124CA
:100ED000992319F09093500303C081E0809350034D
:100EE00035EB2303C0011124992319F0909351038A
:100EF00003C081E08093510380914E0381110BC0A8
:100F000080914F03811107C080915003811103C06C
:100F10008091510381110E940C2BCB82DC82ED82E7
:100F2000FE8286E0F801ACE4B3E001900D928A9570
:100F3000E1F70E946A2290919101891721F00E94A5
:100F40006A22809391018091D401843009F0DFCD31
:100F500083E08093E9008091E80082FFD8CD809102
:100F6000E80085FF21C00E94D41B81111BC0A0E2B4
:100F7000EA2EF12C680109C08091F100D6018D9311
:100F80006D01B1E0EB1AF10869F08091E80085FD90
:100F9000F3CF8091E8008B778093E8000E94D41B08
:100FA000882399F391E001C090E08091E8008B776D
:100FB0008093E800992309F4AACDE0908A02F0908A
:100FC0008B028981E114F10461F08E3F09F011C3B5
:100FD0008A81833008F4C5C18550833008F009C385
:100FE000C0C18B3009F4A7C110F5853009F47AC06F
:100FF000B0F48230C1F130F4813009F0F8C21A82C5
:1010000089E096C2833009F45EC0843009F0EFC2F3
:101010004C816B818A810E9490259D830BC3873010
:1010200009F4E5C208F0E3C20E94F224E2C2803172
:1010300009F4C3C060F48D3009F461C008F45DC0E8
:101040008E3009F460C08F3009F488C0D0C282317C
:1010500009F4B8C008F4B4C0833109F4DDC08E3F90
:1010600009F47FC1C4C28A81823009F4DCC28330B2
:1010700051F0813009F0BBC20E94D6219B838C8342
:101080007D836E83B6C28091860290918702892B00
:1010900009F4AFC280919F019091A0019B838C8342
:1010A0008091A1019091A2019D838E838091A301E3
:1010B0009091A4019F8388878091A5019091A601BA
:1010C00099878A8796C28A81823009F090C26B81A3
:1010D0007C818D819E810E94E22C86E290E00E94BC
:1010E0008C2C87C22D813E813227232732274C81C9
:1010F0006B818A810E94BC247CC280E135C281E080
:101100008A838DE615C2EA80FB80FE24EF24FE244C
:10111000AC80B12CEDE1AE16B10408F06AC26801F2
:10112000C7018D569D4F9601201B310B2A153B059B
:1011300008F05FC2FDE6EF16F1E0FF0630F40E9412
:101140007E2CD60114968C9302C0F6011482FFEF18
:10115000EF1AFF0A2FEFC21AD20AE2CF809186025D
:1011600090918702892B09F444C2EA80FB80FE2417
:10117000EF24FE24CC80D12C3DE1C316D10408F02D
:1011800038C25801C7018D569D4F9501201B310B68
:101190002C153D0508F02DC24DE6E41641E0F4069D
:1011A00028F4D50114966C910E948C2CBFEFEB1A99
:1011B000FB0AEFEFAE1ABE0AE5CF0E94442419C223
:1011C00085E0D2C1EA80FB80FE24EF24FE24AC80BF
:1011D000B12CFDE1AF16B10408F00BC26801C701E4
:1011E00087969601201B310B2A153B0508F001C29A
:1011F00020EEE21621E0F20630F40E947E2CD601A9
:1012000014968C9302C0F6011482FFEFEF1AFF0AC6
:101210002FEFC21AD20AE3CFEA80FB80FE24EF242C
:10122000FE24AC80B12C3DE1A316B10408F0E1C16D
:1012300040EEE41641E0F40608F0DBC180EE91E0F8
:101240008E199F098A159B0508F4D3C1370187E2DF
:10125000680E711C8091860290918702892B11F093
:10126000680160C0E0FE0FC0C70186960E947E2C18
:1012700090E0982F88272D81822B81159C4531F491
:101280008FEF8D8303C0C12CD12C03C0CC24C39419
:10129000D12CC5018E0D9F1D450180FF1BC0B1E003
:1012A0008B1A910865E0462E512C4C0E5D1E480CA1
:1012B000591CC3018A0D9B1D0E947E2CF2012081C6
:1012C00030E0322F2227282B21153C4519F48FEFCF
:1012D000D2018C93F801EC0DFD1D2FEFCF01801B87
:1012E000910B8815990508F0BBCF848190E0982F69
:1012F00088273581832B81159C4511F42483258310
:101300003296ECCFE0EEEE16E1E0FE0628F4D601D0
:1013100014966C910E948C2CBFEFEB1AFB0AEFEF36
:10132000CE1ADE0AC70187969601201B310B2A15BB
:101330003B0540F35EC18091860290918702892B24
:1013400009F457C1C8010E94331CFFEF21EE34E0BD
:10135000F15020403040E1F700C000000E947D21A4
:1013600048C1EA818E2F90E08E30910508F041C18E
:10137000FC01EA5AFF4F0C94DC2C88E0EDE0F1E030
:10138000DE01919601900D928A95E1F780E2D801F5
:101390001D928A95E9F784E0898388E0FE01B19681
:1013A000DE01159600C184E7898382E08A831B826F
:1013B0001C821FC18C8190E0982F88272B81820F7F
:1013C000911D092E000CAA0BBB0B45E0880F991F3D
:1013D000AA1FBB1F4A95D1F7AC01BD01405E5F4F0C
:1013E0006F4F7F4F481759076A077B0708F401C101
:1013F0008437E2E09E07A105B10508F0FAC0453741
:10140000F2E05F076105710520F044E752E060E01B
:1014100070E0481B590BBC01605F7E4FC8010E9401
:10142000652CE7C0FB80EC8040E06E2D8F2D0E9484
:101430008C2499838A8341E06E2D8F2D0E948C2409
:101440009B838C83D6C02E813F813227232732276E
:101450004D816C818B810E945424CBC040E250E0CE
:101460006FEF70E0C8010E940A2D80918602898387
:10147000EA8285E08B8386E08C831D821E82B9C060
:1014800081E090E090938B0280938A0282E390E067
:1014900090939E0180939D010E94E22190939C0174
:1014A00080939B01A6C0EF28D9F18091A90190916A
:1014B000AA0126E0969587952A95E1F720919F014C
:1014C0002170F22EF82280919B0190919C010E9444
:1014D000C72185369105F0F0FF20E1F00E94E2215E
:1014E00090939C0180939B0180919D0190919E011E
:1014F000019790939E0180939D01892B89F410920E
:101500008B0210928A0281E090E090938702809390
:10151000860206C082E390E090939E0180939D0135
:1015200080918602898380918A028A8380919D01BD
:101530008B835FC010928702109286025AC040E2ED
:1015400050E06FEF70E0C8010E940A2D52C08B81FD
:10155000833061F0843061F181114BC080E2D801A9
:101560001D928A95E9F788E08A8343C06C81CE0199
:1015700081962AE0FC0111922A95E9F7683060F41F
:10158000FAE06F9FB00111246D5B7D4F4AE050E09F
:101590000E946E2C80E001C08FEF89838AE0FE01FB
:1015A000B196DE01129601900D928A95E1F721C065
:1015B0006C818AE0FE013596DE01919601900D92D4
:1015C0008A95E1F7683070F42AE0629FB001112437
:1015D0006D5B7D4F4AE050E0CE0181960E94B02CB9
:1015E00080E001C08FEF89830E94DA2502C08FEF6F
:1015F0008983C8010E94331C8ACA09BD19BD09B478
:1016000000FEFDCF8091D8008F7D8093D80080911F
:10161000E00082608093E0008091E00081FDFCCFDB
:101620000E94C1147BCA86E290E00E947E2C1B823D
:101630001C821D828E83DDCF2D32314008F0C7CB56
:1016400005CC2D32314008F018CC56CC8F929F92A9
:10165000AF92BF92CF92DF92EF92FF920F931F93C0
:10166000CF93DF9300D000D0CDB7DEB7FC018081EF
:10167000918123813481232B31F09F3F31F491E01C
:101680008F3F19F403C091E001C090E090FD8BC63C
:101690007F0161E0CF010E9475278C01F7018281F3
:1016A000882309F49AC0980122513F452031310521
:1016B00008F07BC08FEF93E00E947E2C81117FC0E9
:1016C0004EEED42ED00E03E912E0DD2071F00115AC
:1016D000F4E01F0709F473C0C8010E947E2C811139
:1016E00001C0DA940F5F1F4FF0CF19821A821B825C
:1016F0001C82AA24AA9468012FEFC21AD20AC80138
:101700000E947E2C89831A82882309F458C0813074
:1017100009F046C0480182E0880E911CC6010E9473
:101720007E2C8A83882309F44AC09FEF980F933058
:1017300060F4680193E0C90ED11CC4010E947E2CA4
:101740008B8381112DC08601D6CF843011F06401C6
:10175000FACFC4010E947E2CB82E6801E4E0CE0EC0
:10176000D11CC80103960E947E2CBB2041F1882326
:1017700031F1282F30E021503109A29EA001A39E13
:10178000500D11248B2D90E00197840F951F019728
:10179000D0F2EFE9FFE03197F1F700C00000F7CF9A
:1017A000CE0101960E941A27CECF00319FE519077E
:1017B00009F059C581E00E94B2140E94521780912D
:1017C0002B02877009F4EFC5F7018281882309F4A1
:1017D000EAC582E00E945920E6C50031FFE51F07F7
:1017E00011F481E005C001312FE5120721F482E0F8
:1017F0000E94A614E2CF9091A701911105C090918B
:10180000AA01992309F4B7C098013056211590E236
:10181000390720F0305E2115304140F4F701958101
:10182000907F09F4A8C06801DD2401C06801960119
:1018300030542115354108F49EC09091AA01923090
:1018400021F5882369F080912E02982F927219F069
:101850006894D1F80FC086FF0DC024E1D22A0AC0D7
:10186000C60195558F3F910511F008F01BC580E02A
:101870000E94E01F81E08093AA01D092A901C0924A
:10188000A8018FEF80930A019ACF882309F40AC533
:10189000913009F05FC080910A019CE2C916D10421
:1018A000D9F4882329F00E94352A10920A0187CFA3
:1018B0008091A8019091A90195558F3F910509F05C
:1018C00018F40E94D51F03C08AE20E947C16109271
:1018D000AA010E945B2A4FC0EAE2CE16D10421F48D
:1018E000815080930A0126C087FD34C081110BC04E
:1018F0008091A8019091A90195558F3F910509F01C
:1019000010F40E94352A80910A018F5F80930A01AA
:10191000FDE2CF16D10471F040F484E0C81AD1087A
:1019200094E2C916D10480F405C0EDE2CE16E2E0DF
:10193000DE0651F4F7018281882309F4B3C4809153
:101940002E02811114C096C4F7018281882309F404
:10195000A9C40DC09AE2C916D10489F308F017C5CD
:10196000F4E0CF1AD10824E2C216D10440F30E9459
:101970005B2A1092AA010238FFE51F0751F4F70114
:101980008281882399F181E08093AA018DE290E021
:1019900017C003382FE51207D8F00338EFE51E070C
:1019A00009F4E4C40438FFE51F0709F08CC4F7010B
:1019B00082818823D9F081E08093AA018DE292E0B0
:1019C0009093A9018093A8018FEF80930A0113C01F
:1019D00000388FE5180709F436C101389FE519076B
:1019E00009F071C4F7018281811151C4F70182812C
:1019F000882309F4B8C110928E020230FCE51F075B
:101A000008F49BC106312CE5120730F0C8018A5F4B
:101A10009C45099708F091C10E945A1F90937F013D
:101A200080937E0100318CE5180709F4C3C008F0EB
:101A300041C00830ECE51E0709F49AC0F0F4043008
:101A40002CE5120709F487C068F402309CE51907F9
:101A500009F477C003301C4509F0E5C080917E0190
:101A6000826076C00630FCE51F0709F46EC008F0FE
:101A70007BC080917E0188606BC00C308CE51807BC
:101A800009F485C068F40A30ECE51E0709F474C057
:101A900008F079C00E94C11480917E01806858C00E
:101AA0000E302CE5120709F476C008F07FC0809153
:101AB0007E018BC00B3F9CE5190709F44FC018F558
:101AC0000331FCE51F0709F47DC078F401318CE592
:101AD000180709F473C002311C4509F0A4C00E9424
:101AE000C11480917E018F7733C00531ECE51E076C
:101AF00009F472C008F486C00A3F1C4509F093C07F
:101B000080917F013EC00F3F8CE5180709F45FC04C
:101B100058F40D3FECE51E0709F444C008F43FC03B
:101B200080917F0182602DC001302DE5120709F4FC
:101B300075C008F45DC002301D4509F074C060E056
:101B40006EC080917E01816003C080917E018061C2
:101B500080937E0168C080917E0111C080917F01D9
:101B6000826080937F015FC080917E018062F0CFB0
:101B700080917E018064ECCF80917E0188608460DA
:101B8000E7CF8160EECF80917E018E7FE1CF8091A3
:101B90007E018D7FDDCF80917E01877FD9CF8091BF
:101BA0007F0118C080917F018D7FDBCF80917E0106
:101BB0008F7ECECF80917E018F7DCACF80917E01B6
:101BC0008F7BC6CF80917E01877F8B7FC1CF809135
:101BD0007F018D7F8E7FC5CF80917E0182FB222782
:101BE00020F991E0922790FB82F990FB83F9B0CF26
:101BF00080917F01982F909591708E7F892B90FB1B
:101C000081F9AFCF0E94C11480917E0187FB22270A
:101C100020F991E0922790FB87F99ACF61E08EE05E
:101C200090E00E948C2C60917E0110917F0184E0F5
:101C300090E00E948C2C612F82E290E00E948C2C1C
:101C40000E94C114BCCDF7018281882309F4CECE55
:101C500024E8A22E23E0B22E3AE0932EF5018491DF
:101C6000882309F45AC0813009F04FC06501FFEFA5
:101C7000CF1ADF0AF6018491813049F46501F2E060
:101C8000CF0ED11CF60184910E947C1641C0823097
:101C900049F46501F2E0CF0ED11CF60184910E9457
:101CA000D81536C0833049F46501F2E0CF0ED11C5F
:101CB000F60184910E9478152BC0843049F56501A6
:101CC000F2E0CF0ED11CF601249180E090E030E0EC
:101CD000205331092A30310570F4989EA001999E55
:101CE000500D1124C901840F951FFFEFCF1ADF0A91
:101CF000F6012491ECCF009759F0EFE9FFE031971E
:101D0000F1F700C000000197F6CF0E94B4266501EC
:101D10005601FFEFAF1ABF0AA1CF8091310281FDBA
:101D200065CE0E94E2219093300280932F02809131
:101D3000310282608093310259CE0631ECE51E07F4
:101D400011F580912E028A7A91E009F490E0909347
:101D5000AB01882311F065E301C069E286ED91E0F3
:101D60000E9424220DC006311C45F1F58091AB0183
:101D7000882309F40AC365E386ED91E00E941722E7
:101D80000E94FB1F1CCD0A35EDE51E0741F150F402
:101D900001152CE51207A9F00E3D1C4529F50E94FE
:101DA0006B1F0DCD0B359DE51907D9F00C351D4581
:101DB000D9F480917F0182FB882780F991E08927FF
:101DC00011C00E94C114FFEF24E38CE0F1502040C9
:101DD0008040E1F700C000000E947D21F0CC81E04E
:101DE00001C080E00E943820F7018681978100972A
:101DF000B9F4F701828100811181882349F0C8017B
:101E00000E940112D82E682FC8010E94751404C0C8
:101E1000C8010E944514D82EB8018D2D0E94BE2500
:101E20000E94C01D8C01F701C280D580D2949FE032
:101E3000D92280912B02877099F0CC2089F0812FD4
:101E4000807F803421F080E2800F883048F082E08B
:101E50000E94592080912B028770BB24B39481117A
:101E6000B12CA12EA2948FE0A8228A2D90E08C3074
:101E7000910508F0D6C1FC01EC59FF4F0C94DC2C05
:101E8000812F807F1F70882311F01295107FCC2046
:101E9000B9F0112309F49DC180E2800F883010F061
:101EA000011106C080912E02182B10932E0205C03E
:101EB00080912D02182B10932D020E94FB1F89C1C7
:101EC000802F0E947815112309F4ABC180E2800FA6
:101ED000883010F0011104C0812F0E94F41F06C049
:101EE000109580912D02182310932D020E94FB1F44
:101EF00098C1812F807F1F70803211F01295107F62
:101F0000002319F00130B1F141C0CC20E9F0DD200F
:101F1000B9F0F1E0DF1206C080913102812B0E94FE
:101F2000E01F7FC125E0D2120BC00E94D51F809117
:101F30002802181310932802812F0E946E1571C178
:101F400080913102812BF9CFDD2051F081E0D81250
:101F50000DC080912E02812309F463C10E948C2060
:101F60000E94D51F812F0E9467155BC195E0D91291
:101F7000F7CF57C1CC2029F0E5E0ED1508F451C1A9
:101F8000DBCFF4E0FD1508F44CC1ECCFCC2019F008
:101F9000DD2091F21EC1D11027C1E4CF812F86959B
:101FA0008695837019F0813059F03BC1CC2019F02F
:101FB000C801937002C080E090E00E94542231C1B9
:101FC000CC2019F0C801937002C080E090E00E941C
:101FD0003E2227C1802FCC2029F00E94FD2B0E9499
:101FE0000C2B02C00E94362B0E940C2B1AC1812F91
:101FF0008370A1F5C11015C1402F429546954770D9
:10200000440F440F202F2F7030E0C901042E01C06F
:10201000880F0A94EAF704FF08C02FE030E001C0FF
:10202000220F4A95EAF7209501C020E016951695F3
:102030001370123051F070F430913502113019F0F4
:10204000822B832308C0832B05C0282B8091350267
:10205000822701C0822B0E94BD14E3C0CC2019F05E
:10206000812F817001C08695882309F4DAC0402F42
:10207000429546954770440F440F202F2F7030E053
:10208000C901042E01C0880F0A94EAF704FF08C0B2
:102090002FE030E001C0220F4A95EAF7209501C0F9
:1020A00020E0169516951370123051F070F43091AF
:1020B000D501113019F0822B83234FC0832B05C02B
:1020C000282B8091D501822748C0822B46C01F70E3
:1020D000CC2029F0812F0E94B214802F2ECF802F88
:1020E0000E946715812F99C0023F39F128F4003F03
:1020F00041F0013FE1F069C0033F29F1043F81F164
:1021000064C0CC2029F084E08D1508F48AC004C096
:1021100095E09D1508F485C01F7181E090E001C035
:10212000880F1A95EAF79091D501892716C0812F5B
:102130008F71CC2009F471C052C0812F8F71CC20D7
:1021400009F44DC06AC0CC2039F01F7181E001C094
:10215000880F1A95EAF701C080E00E94A21461C0BE
:10216000CC20D9F0809128020E94F41F80912B028C
:102170008770843039F40E945220812F8F710E9421
:10218000A6144EC0E4E0ED1508F44AC01F71812F7B
:102190000E94B21463E0812F11C090912E028091B1
:1021A0002802892B80932E02F4E0FD1550F40E9442
:1021B00052200E948C2064E0812F8F710E94762033
:1021C0002FC081E00E9459202BC0CC2059F0DD2087
:1021D00021F0802F0E94D81524C0812F8F710E947A
:1021E000B2141FC0DD20B9F0093341F42FEF87EEA0
:1021F00093E0215080409040E1F707C0EFE7F8E31B
:1022000021E0E150F0402040E1F700C00000802FC5
:102210000E94781506C0812F8F710E94A61401C0FC
:10222000B12C88EF8A0D843010F40E946A22BB2002
:10223000A9F080912B0280FD11C0F70112828595D3
:10224000859585950E94B214C7010E94260B809146
:102250002B028595859585950E94A61460E0C7019F
:102260000E947527A0C00131EFE51E0709F0C3CA1F
:1022700082E0A1CA0238FFE51F0709F480CB08F00D
:102280008CCB00388FE5180709F0A7CBE1CC81E0B3
:102290008093A7010E946A2281FDA8CB89E30E9456
:1022A0007C16A4CB02382FE5120709F468CB08F09E
:1022B00059C000389FE5190709F498CB0138EFE5BC
:1022C0001E0709F48FCB033F2CE51207A1F406E2A9
:1022D00021EE40EE63EF7CE50AC0073DFCE51F07F9
:1022E00009F084CB06E221EE41EE67ED7CE5C70103
:1022F0000E94D12364CA043F8CE51807A0F4083D6E
:102300009CE5190731F407E225EE45EE68ED7CE522
:10231000EECF093DECE51E0701F708E221E045EEAE
:1023200069ED7CE5E4CF053F2CE5120731F406E2C8
:1023300021EE42EE65EF7CE5DACF053F8CE518072C
:1023400030F407E225EE44EE64EF7CE5D0CF063FA3
:102350009CE5190709F04ACB07E225EE46EE66EF49
:102360007CE5C5CF0338FFE51F0749F4F7018281FB
:10237000882309F43BCB82E08093AA013CCB04384C
:102380002FE5120709F413CB9ECF69E2F5CC8DE25D
:10239000C816D10409F4D3CA9DE2C91692E0D90641
:1023A00009F0E5CACCCA0F900F900F900F90DF9103
:1023B000CF911F910F91FF90EF90DF90CF90BF9042
:1023C000AF909F908F90089580E090E00E945422FB
:1023D00080E090E00E943E2210922D0210922C028A
:1023E0000E94FB1FECE4F3E086E0DF011D928A957A
:1023F000E9F71092460310924503109247030C949C
:102400000C2BCF92DF92FF920F931F93CF93DF930A
:102410006C010091D50180913502082BC7E0D0E016
:1024200010E0C8010C2E02C0959587950A94E2F73A
:1024300080FD04C02197A8F7F12C09C0FC2EB6013D
:102440008C2F0E94BE250E94C01D019799F38F2DED
:10245000DF91CF911F910F91FF90DF90CF90089562
:10246000CF93DF93EC010E940112BE010E94BE25B2
:102470000E94C01DDF91CF910895FC018681978154
:10248000009719F00E94C01D04C0808191810E94B4
:102490003012292F2F70E92FE295EF704E2F50E068
:1024A000FA013297EE30F105B8F4E059FF4F0C9481
:1024B000DC2C803F99F018F4883E70F40FC0843F04
:1024C00059F40CC0883E50F0813F31F407C0822F90
:1024D000869586958695089580E0089581E0089513
:1024E0009F92AF92BF92CF92DF92EF92FF920F93A3
:1024F0001F93CF93DF93CDB7DEB765970FB6F894F0
:10250000DEBF0FBECDBF8C0185E0F801DE01519624
:1025100001900D928A95E1F7F801E2809091DE0139
:102520006091DF014091E1015091E20141155105B7
:1025300031F06F3F31F481E09F3F19F403C081E037
:1025400001C080E0F82FF1709F2E80FD4EC1F80190
:1025500030812181C380D4807EEDA72E71E0B72E1B
:10256000F090E001F601E41BF50BFF2009F4EFC049
:102570008091E301E83CF10508F0AAC0482F407FB4
:1025800009F05AC062131BC0931319C06091E40193
:102590007091E501F801468157816417750779F458
:1025A000FE2CE1100CC08F7080618093E301C501A7
:1025B0000E94260B8091E301F801858353C1CD2849
:1025C00031F02F3F31F481E03F3F19F403C081E047
:1025D00001C080E080FD03C081E08E2502C080E064
:1025E00090E0F82FF170FF2E80FF1CC08091270231
:1025F0004091E601841709F413C190E0FC0153E017
:10260000EE0FFF1F5A95E1F7E951FE4F5181251357
:1026100006C05081531303C05281E51203C00196D6
:102620008770E8CFFE2CEE2009F41CC18091E301F5
:1026300081608093E30158C062130FC093130DC0F3
:102640004091E4015091E501F8012681378142175C
:10265000530719F4EE2009F4A7C0C8010E943D12E7
:10266000882381F1EE2071F12091E301822F829580
:102670008F7090E00297A4F08091DE019091DF01CD
:102680009A8789871B86DD86CC862E878091E40118
:102690009091E501988B8F87CE0109960E94260BB9
:1026A00088E0F801AEEDB1E001900D928A95E1F776
:1026B0000E949C200AC06217C9F0C8010E943D1206
:1026C000811127C0C8010E94260BFF24F394CAC0C1
:1026D000482F407F81F78EED91E00E94260B88E025
:1026E000F50111928A95E9F7F12CBCC09313E5CF5F
:1026F0004091E4015091E501F801268137814217AC
:102700005307D9F6E110D9CF8583C8010E94260B63
:1027100066C0EE20B9F22091E301822F82958F707E
:1027200090E002970CF4BCCF8091DE019091DF0124
:102730009A8389831B82DD82CC822E838091E4017F
:102740009091E50198878F83CE010196A7CFE83C51
:10275000F10508F044C0FE2CEE2009F4B3CF62135B
:1027600030C093132EC02091E4013091E501F801AF
:10277000868197812817390721F59091E30190FD13
:1027800017C0892F82958F70282F30E021153105D1
:1027900079F095832F30310541F08F5F982F929516
:1027A000907F85818F70892B8583C8010E94260BBD
:1027B00088E0F801AEEDB1E001900D928A95E1F765
:1027C00051C0C8010E943D1281116ACF8091E3017E
:1027D00081608093E301C8010E94260B43C088E01A
:1027E000F50111928A95E9F73DC0EE2009F46ACF10
:1027F000C8010E943D12F82E882309F463CF88E0B7
:10280000F801AEEDB1E001900D928A95E1F780916B
:10281000DE019091DF010E9430120E949C2022C0B4
:10282000398B2A8B89899A890E943012292F229507
:102830002F70223028F49F7039F0811105C00BC031
:10284000243028F49F7049F4805E883020F0C8015D
:102850000E94260B9F2CF92C05C0F8019581907FD2
:1028600099F7F9CF8F2D65960FB6F894DEBF0FBE9E
:10287000CDBFDF91CF911F910F91FF90EF90DF902F
:10288000CF90BF90AF909F9008959E3F61F12CE054
:10289000929F800D1124682F669566956695982FF6
:1028A000977083E0689FB001112440E050E080E021
:1028B000FB01E40FF51FE455FE4F208130E0092EA7
:1028C00002C0369527950A94E2F721703327042E2B
:1028D00001C0220F0A94EAF7822B4F5F5F4F43300B
:1028E000510531F7089580E008959E3F51F12CE0A5
:1028F000929F800D1124E82FE695E695E695877066
:1029000051E001C0550F8A95EAF783E0E89FF00196
:102910001124E455FE4F20E030E070E04081CB010F
:10292000022E02C0969587950A94E2F781708195F0
:1029300084278523842781932F5F3F4F23303105E0
:1029400069F708958093D5010C94E41121E030E0FB
:1029500001C0220F8A95EAF720958091D501822344
:102960000C94A21421E030E001C0220F8A95EAF70E
:102970008091D501822B0C94A214809335020C9483
:10298000E41110922E0286E0E8EDF1E0DF011D92E5
:102990008A95E9F70C94E411CF93DF93CDB7DEB7B6
:1029A00060970FB6F894DEBF0FBECDBF29873A8778
:1029B0004B875C876D877E878F87988BCE010996C2
:1029C0000E947012811151C088E0FE013996DE012B
:1029D000119601900D928A95E1F779856A854C856B
:1029E0005D854115510531F06F3F31F481E07F3F46
:1029F00019F403C081E001C080E080FD36C0A091E1
:102A0000E601B0E0CD010196877099272091270259
:102A100030E08217930781F179836A835D834C8369
:102A200093E0AA0FBB1F9A95E1F7A951BE4F98E01A
:102A3000FE01319601900D929A95E1F78093E6019F
:102A40000E94922012C028E0829FC0011124895167
:102A50009E4F0E9470128823E1F08091270290E03F
:102A60000196877099278093270280912702909181
:102A7000E6018913E8CF0DC00E94C1141092E6014F
:102A800010922702EEEDF1E088E0DF011D928A95B9
:102A9000E9F760960FB6F894DEBF0FBECDBFDF91A9
:102AA000CF910895882341F0809590912D0289233C
:102AB00080932D020C94FB1F0895882339F0909188
:102AC0002D02892B80932D020C94FB1F08958823DF
:102AD00021F00E94F41F0C94FB1F0895882339F005
:102AE00090912E02892B80932E020C94FB1F089547
:102AF000882309F45CC0823869F40E946A2281FF4D
:102B000056C069E386ED91E00E9424220E94FB1FDB
:102B100069E30EC0833891F40E946A2280FF47C0A7
:102B200063E586ED91E00E9424220E94FB1F63E58D
:102B300086ED91E00E9417220C94FB1F843869F403
:102B40000E946A2282FF33C067E486ED91E00E9412
:102B500024220E94FB1F67E4EBCF9CEF980F913A71
:102B600010F4682FE5CF90E2980F983050F48770FA
:102B700091E001C0990F8A95EAF7892F0E94F41F0E
:102B8000DBCF9BE5980F933020F480E090E00C942D
:102B9000542298E5980F973120F480E090E00C944F
:102BA0003E22803F20F00E94362B0C940C2B08957F
:102BB000CF93882309F49EC0C82F8238B1F40E94B5
:102BC0006A2281FD97C069E386ED91E00E9424228C
:102BD0000E94FB1F2FEF81EE94E021508040904037
:102BE000E1F700C0000069E317C08338E1F40E94F8
:102BF0006A2280FD7FC063E586ED91E00E94242279
:102C00000E94FB1F2FEF81EE94E021508040904006
:102C1000E1F700C0000063E586ED91E00E94172215
:102C2000CF910C94FB1F8438B1F40E946A2282FD7C
:102C300061C067E486ED91E00E9424220E94FB1FA0
:102C40002FEF81EE94E0215080409040E1F700C0EA
:102C5000000067E4E1CF8CEF8C0F813A80F4E8ED5F
:102C6000F1E08EED91E02191C217E1F18E179F07FF
:102C7000D1F76C2F86ED91E00E942422D1CF80E223
:102C80008C0F883068F4C77081E090E001C0880F35
:102C9000CA95EAF790912E02892B80932E02C0CF1D
:102CA000EBE5EC0FE33040F4F0E0E65BFE4F8081B3
:102CB00090E0CF910C945422E8E5EC0FE73150F40A
:102CC000F0E0EE0FFF1FE35BFE4F80819181CF911B
:102CD0000C943E22C03F70F08C2F0E94FD2BCF91B0
:102CE0000C940C2B6C2F86ED91E00E9417220E9411
:102CF000FB1FBFCFCF9108951F93CF93DF93182F62
:102D0000893319F0C9E1D0E002C0C0E5D0E0812FDD
:102D10000E94D8158FE99FE00197F1F700C00000ED
:102D20002197C1F7812FDF91CF911F910C947815D6
:102D30008091CC0187FF11C08091E80082FD05C021
:102D40008091D4018111F8CF11C08091E8008B7778
:102D50000BC08091D401882349F08091E80080FF66
:102D6000F8CF8091E8008E778093E8000895982F3F
:102D7000973068F59093E900981739F07091EC005E
:102D80002091ED005091F00003C0242F762F50E0E9
:102D900021FD02C09F5FECCF3091EB003E7F30936E
:102DA000EB003091ED003D7F3093ED003091EB0072
:102DB00031603093EB007093EC002093ED00509362
:102DC000F0002091EE0027FDE5CF80E008958F70A0
:102DD0008093E90081E008952091D2013091D301E0
:102DE0002617370748F06115710539F42091E8007E
:102DF0002E772093E80001C0B901FC0120E06115A5
:102E0000710579F18091D4018823F1F18530F1F1D8
:102E10008091E80083FD3CC08091E80082FD2EC0D7
:102E20008091E80080FFEBCF2091F3008091F200C9
:102E300090E0922B6115710551F08830910538F4BE
:102E400021912093F100615071090196F3CF21E0A7
:102E5000089709F020E08091E8008E778093E800E1
:102E6000CECF2111CFCF0AC08091D401882361F049
:102E7000853061F08091E80083FD0AC08091E80010
:102E800082FFF2CF80E0089582E0089583E0089504
:102E900081E00895BC0184E00C945321BC0183E0DF
:102EA0000C9453218091D501982F9670963011F48F
:102EB000886001C0877F0C94A2141F93CF93DF9387
:102EC000CDB7DEB7AA970FB6F894DEBF0FBECDBF61
:102ED000ECECF1E08091F100819341E0E43DF407F6
:102EE000C9F78091CD01833009F462C030F481309C
:102EF00071F0823009F49CC0B3C08A3009F488C0F4
:102F00008B3009F46DC0893009F0AAC020C08091CF
:102F1000CC01813A09F0A4C08091E800877F8093BA
:102F2000E8008091D0019091D101892B21F468E0D3
:102F300081EC91E003C060E080E090E070E00E94EE
:102F4000EC168091E8008B778093E80089C080912F
:102F5000CC01813209F084C08091D0019091D101DF
:102F6000009719F0029709F07BC08091E800877FF5
:102F70008093E8008091E80082FD05C08091D40133
:102F80008111F8CF6DC02091F3008091F20090E0A4
:102F9000922B029729F48091F1008B7F813021F4EC
:102FA0008091F1008093C0018091E8008B7754C03C
:102FB0008091CC01813A09F053C08091D001909169
:102FC000D101892B09F04CC08091E800877F809364
:102FD000E8008091E80080FFFCCF80910B0137C0B2
:102FE0008091CC018132E1F58091D0019091D101A5
:102FF000892BB1F58091E800877F8093E8000E94DB
:1030000098168091CE0180930B010E94C11428C0B4
:103010008091CC01813221F58091E800877F8093F7
:10302000E8000E9498168091CF018093BF0118C0DC
:103030008091CC01813AA1F48091E800877F809350
:10304000E8008091E80080FFFCCF8091BF01809371
:10305000F1008091E8008E778093E8000E94981636
:103060008091E80083FFE9C18091CC019091CD016E
:10307000492F50E04A30510508F0DFC1FA01E2580B
:10308000FF4F0C94DC2C803821F0823809F0D5C138
:1030900008C08091C9019091CA01992389F082608A
:1030A0000FC08091D0018F70873008F0C6C1809327
:1030B000E9008091EB0085FB882780F91092E900F8
:1030C0009091E800977F9093E8008093F100109230
:1030D000F1007CC1282F2D7F09F0AFC1882319F0A2
:1030E000823061F0AAC18091CE01813009F0A5C182
:1030F000933009F080E08093CA012EC08091CE0108
:1031000081112AC08091D0018F702FEF280F2630B7
:1031100008F093C18093E9002091EB0020FF1CC0D0
:10312000933021F48091EB00806214C09091EB0009
:1031300090619093EB0021E030E0A90102C0440FC0
:10314000551F8A95E2F74093EA001092EA008091B9
:10315000EB0088608093EB001092E9008091E8001A
:10316000877F8093E8000E94981667C1811165C12E
:103170001091CE011F778091E3008078812B80939E
:10318000E3008091E800877F8093E8000E94981612
:103190008091E80080FFFCCF8091E30080688093FD
:1031A000E300111102C082E001C083E08093D401EA
:1031B00044C18058823008F040C12091CE01309146
:1031C000CF012C3D53E0350779F583E08A838AE20D
:1031D00089834FB7F894DE01139620E03EE051E278
:1031E000E32FF0E050935700E49120FF03C0E295F5
:1031F000EF703F5FEF708E2F90E0EA3010F0C796CF
:1032000001C0C0968D939D932F5F243149F74FBF26
:103210008091E800877F8093E8006AE270E0CE0149
:1032200001960E94EC16C0C08091D0019091D1010E
:10323000432F552743305105B1F068F44130510513
:1032400009F40AC14230510509F0F7C08BE590E05E
:10325000EAE6F4E057C04132510589F142325105A6
:1032600009F43CC0EAC0C901992781309105B9F041
:1032700070F082309105D9F0039709F0DEC0E7EDD8
:10328000F4E0E4918E2F90E0E7EDF4E038C0E7E35E
:10329000F5E0E4918E2F90E0E7E3F5E030C0EBE15C
:1032A000F5E0E4918E2F90E0EBE1F5E028C0E5EF4A
:1032B000F4E0E4918E2F90E0E5EFF4E020C083305D
:1032C000910508F0BAC0880F991FFC01EC5BFE4F16
:1032D0000190F081E02D89E090E014C083309105E9
:1032E00008F0ABC0FC01EE0FFF1FE25CFE4F019047
:1032F000F081E02DDC01A55CBE4F8C9190E0009741
:1033000009F49BC02091E800277F2093E8002091DA
:10331000D2013091D3012817390708F4C90140E0E0
:10332000009789F12091D401222309F43DC0253072
:10333000D9F12091E80023FD37C02091E80022FD5B
:103340002FC02091E80020FFEBCF4091F3002091A7
:10335000F20030E0342B009759F02830310540F46A
:1033600044914093F100319601972F5F3F4FF3CF87
:1033700041E02830310509F040E02091E8002E7747
:103380002093E800CDCF4111CDCF0AC08091D40168
:10339000882351F0853041F08091E80083FD04C01E
:1033A0008091E80082FFF2CF8091E8008B778093D4
:1033B000E80043C0803809F040C08091E800877F72
:1033C0008093E8008091CB018093F1008091E80028
:1033D0008E77C7CE811131C08091CE019091CF01FF
:1033E0009927029754F58091E800877F8093E80041
:1033F0001091CE011093CB010E949816111106C0B6
:103400008091E30087FD02C081E001C084E08093E9
:10341000D40142E061EC81E00E94B71642E261EC27
:1034200084E00E94B71642E261EC82E00E94B71687
:1034300042E260EC83E00E94B7168091E80083FFCF
:1034400010C08091E800877F8093E8008091EB00B6
:1034500080628093EB0005C082E190E0E5ECF4E04F
:1034600051CFAA960FB6F894DEBF0FBECDBFDF9145
:10347000CF911F9108951F920F920FB60F921124B2
:103480002F933F934F935F936F937F938F939F936C
:10349000AF93BF93CF93DF93EF93FF93C091E90076
:1034A000CF708091EC00D82FD17080FDD0E81092C1
:1034B000E9008091F000877F8093F00078940E946B
:1034C0005D171092E9008091F00088608093F00011
:1034D000CD2BCF70C093E900FF91EF91DF91CF9199
:1034E000BF91AF919F918F917F916F915F914F911C
:1034F0003F912F910F900FBE0F901F901895E8ED00
:10350000F0E080818E7F80831092E2001092DA00DA
:103510001092E100A0EEB0E08C9181608C938081EC
:103520008F77808319BCA7EDB0E08C918E7F8C9350
:1035300080818F7E80831092BE010895CF92DF92AA
:10354000EF92FF920F931F93CF93DF93C8EDD0E0DC
:1035500088818F7E8883E7EDF0E0808181608083C1
:1035600084E082BF81E08093BE0188818E7F888362
:1035700002EE10E0F80110821092DA0081EEC82EFF
:10358000D12CF601108288818F77888388818068AA
:10359000888388818F7D888319BC1092D401109212
:1035A000CB011092CA011092C90190EEE92EF12CC4
:1035B000F70180818B7F808388818160888342E0EE
:1035C00060E080E00E94B716F60180818E7F8083E4
:1035D000F801808181608083808188608083F70129
:1035E00080818E7F8083888180618883DF91CF9105
:1035F0001F910F91FF90EF90DF90CF9008951F9251
:103600000F920FB60F9211242F933F934F935F9316
:103610006F937F938F939F93AF93BF93EF93FF939A
:103620008091E10082FF09C08091E20082FF05C025
:103630008091E1008B7F8093E1008091DA0080FF30
:103640002AC08091D80080FF26C08091DA008E7F4A
:103650008093DA008091D90080FF18C080E189BD95
:1036600082E189BD09B400FEFDCF81E08093D401E1
:103670008091BE0181110FC00E947F1A0E949E1A84
:103680008091E20084608093E20005C019BC109232
:10369000D4011092BE018091E10080FF17C080919B
:1036A000E20080FF13C08091E2008E7F8093E200F1
:1036B0008091E20080618093E2008091D800806276
:1036C0008093D80019BC85E08093D4018091E100FB
:1036D00084FF2EC08091E20084FF2AC080E189BD72
:1036E00082E189BD09B400FEFDCF8091D8008F7DB5
:1036F0008093D8008091E1008F7E8093E1008091DB
:10370000E2008F7E8093E2008091E20081608093EE
:10371000E2008091CB01882311F084E007C0809102
:10372000E30087FD02C081E001C083E08093D40103
:103730008091E10083FF27C08091E20083FF23C0D6
:103740008091E100877F8093E10082E08093D40143
:103750001092CB018091E1008E7F8093E1008091F7
:10376000E2008E7F8093E2008091E200806180938E
:10377000E20042E060E080E00E94B7168091F00035
:1037800088608093F000FF91EF91BF91AF919F917E
:103790008F917F916F915F914F913F912F910F90FA
:1037A0000FBE0F901F9018952091E4003091E50016
:1037B00095E64091EC00842F817040FF23C08091FA
:1037C000E80080FD1DC08091D401882399F08530E8
:1037D00099F08091EB0085FD11C04091E40050917B
:1037E000E5002417350729F3915011F09A01E1CF34
:1037F00084E0089582E0089583E0089581E00895CB
:1038000080E008954091E80042FFDDCF0895EF92F7
:10381000FF920F931F93CF93DF937C018B010E9444
:10382000D41B811119C0E70101151105A1F0809188
:10383000E80085FD0AC08091E8008E778093E8005B
:103840000E94D41B882381F307C089918093F100E3
:1038500001501109E9CF80E0DF91CF911F910F91C5
:10386000FF90EF900895CF932091D4012430F9F484
:10387000C091E900CF703091EC00232F217030FD12
:1038800020E8C22B22E02093E9002091E80020FFED
:103890000BC040E050E060E270E00E94071C8091A5
:1038A000E8008E778093E800CF70C093E900CF9155
:1038B000089580E0089590917E0192FF0DC0282F19
:1038C0002871283019F4877F846006C0282F24715E
:1038D000243011F48B7F886093FF0DC0282F28714E
:1038E000283119F4877E846106C0282F2471243181
:1038F00011F48B7E886120917F0120FF0DC0382F4D
:103900003871383019F4877F816006C0382F3171E3
:10391000313011F48E7F886021FF0DC0282F28716F
:10392000283119F4877E816106C0282F2171213149
:1039300011F48E7E886194FD877E0895F894E82FB7
:10394000E295EF70F0E031A1282F2F7081E090E038
:1039500001C0880F2A95EAF7982F9095932391A399
:1039600092A1892B82A3789408958F929F92AF920F
:10397000BF92CF92DF92EF92FF920F931F93CF935C
:10398000DF93CDB7DEB728970FB6F894DEBF0FBE32
:10399000CDBFAE014F5F5F4F7A0188E0DA011D9223
:1039A0008A95E9F705E111E06A01AA24A394B12CF4
:1039B000F80180818F3F09F44DC0F894E82FE2951B
:1039C000EF70F0E021A18F70A50102C0440F551FD8
:1039D0008A95E2F7CA01922F982B91A392A1809524
:1039E000892382A3789400C0E9E1F1E020E030E08F
:1039F000812C912C81918F3FC1F0A82FA295AF709F
:103A0000B0E090964C9150E08F70DA0102C0B5950D
:103A1000A7958A95E2F7A0FD08C0C501022E02C055
:103A2000880F991F0A94E2F702C080E090E0882A8C
:103A3000992A2F5F3F4F2C303105E1F6F801808144
:103A40008F3F11F00E949E1CF0EAFA95F1F7D60123
:103A50008D929C920F5F1F4FB2E0CB0ED11CE1E024
:103A600009311E0709F0A4CF48E050E0B70180E813
:103A700091E00E94FD2C11E0009709F410E0892BE1
:103A800089F088E0F701A0E8B1E001900D928A95F5
:103A9000E1F781E0809334020E94E22190933302A7
:103AA0008093320280913402882351F18091320256
:103AB000909133020E94C721059710F180918001F7
:103AC000909181019093A00180939F018091820148
:103AD000909183019093A2018093A1018091840130
:103AE000909185019093A4018093A3018091860118
:103AF000909187019093A6018093A50110923402C2
:103B000080910C01882341F1809135039091360317
:103B1000009711F10E94C72120918F0230919002ED
:103B200028173907C8F4909133038091340398170C
:103B300059F00E9422231092900210928F0210924C
:103B400036031092350308C00E94A4221092360357
:103B5000109235030E940323812F28960FB6F89404
:103B6000DEBF0FBECDBFDF91CF911F910F91FF90B0
:103B7000EF90DF90CF90BF90AF909F908F9008957F
:103B8000CF93DF938238910569F1B0F481339105C9
:103B900009F46FC048F48932910509F465C08A328E
:103BA000910509F46BC08AC08533910509F457C0AB
:103BB00089339105B9F082C0833E910571F138F4E3
:103BC000803E9105B1F0823E910511F177C0863EAD
:103BD0009105B9F1873E9105C9F1843E910509F03F
:103BE0006DC024C020917E0120FD53C021FD51C035
:103BF00065C080917E0180FD46C080917F0180FF7D
:103C000048C080917E0184FD50C183EE90E04FC199
:103C100080917E0182FF3AC0F4CF80917E0182FDC7
:103C200035C080917F0180FD34C0EBCF80917F0152
:103C300081FF35C080917E0184FD37C187EE90E021
:103C400036C180917E0183FF27C0F4CF80917E0131
:103C500083FD22C080917F0181FD21C0EBCF809147
:103C60007E0185FD1FC021C080917E0185FD1DC0A4
:103C700019C080917E0186FD1BC01DC080917E0110
:103C800086FD19C015C089E390E011C182EE90E075
:103C90000EC180EE90E00BC186EE90E008C184EE8C
:103CA00090E005C189E290E002C185E390E0FFC0A9
:103CB0008AE290E0FCC081E390E0F9C0811531E533
:103CC000930708F069C0811540E59407F0F09C0166
:103CD00074E0369527957A95E1F7922F9370482FE7
:103CE000437021E030E002C0220F331F4A95E2F713
:103CF0003C68392B982F9F709695969540E2949F3B
:103D0000C0011124822B932BD2C0883E910568F507
:103D1000803E910508F0CBC0883A9105B8F4853A09
:103D2000910548F0855AE82FF0E0E65BFE4F808170
:103D300090E09064BCC08130910509F4B3C008F4F0
:103D4000B4C08430910508F4B0C0B1C08F3B910578
:103D500008F0ABC0885AE82FF0E0EE0FFF1FE35BDE
:103D6000FE4F808191819464A2C0811520E2920768
:103D700058F4811531E0930708F099C0803F910510
:103D800008F493C0906593C0811540E4940708F44B
:103D90008CC09F70906A8BC0811525E5920708F052
:103DA00042C0811534E5930728F0982F8827846F47
:103DB000906A7DC0811543E59407B0F09C012370A3
:103DC000332741E050E002C0440F551F2A95E2F727
:103DD000282F2695269580E2289F90011124CA015C
:103DE000822B932B9A6863C0811522E5920728F4F1
:103DF000982F8827816F906A5AC09C0123703327BF
:103E000041E050E002C0440F551F2A95E2F7282FE9
:103E10002695269580E2289F90011124CA01822BC5
:103E2000932B9C6844C0EC01811539E59307A8F4F5
:103E30008115984528F09C2F8827806F906A37C09D
:103E4000C11586E5D80788F58C2F0E945B1C8F7101
:103E500090E0982F882790622AC081152AE5920762
:103E600090F48C2F8F700E945B1C94E0D695C795C0
:103E70009A95E1F7CF70D0E0DC2FCC27D0699E0176
:103E8000282BC90114C090568115904270F48D2FD3
:103E90008F710E945B1C282F2F71CE019927906291
:103EA000922B05C081E090E002C080E090E0DF91BD
:103EB000CF910895CF9384E090E00E947E2CC82F8C
:103EC00082E290E00E947E2C2C2F30E0A901582B3A
:103ED000CA01CF9108956AEE7EEF80E090E00E94E3
:103EE000AA2C60E082E090E00E948C2C60E083E0ED
:103EF00090E00E948C2C1092350260E084E090E00B
:103F00000E948C2C60E082E290E00E948C2C60E0A9
:103F100085E090E00E948C2C60E086E090E00E94BA
:103F20008C2C6FEF87E090E00E948C2C40E050E0FA
:103F3000BA0188E090E00E949E2C60E08DE090E065
:103F40000E948C2C40E050E0BA0188E190E00E9491
:103F50009E2C60E087E190E00E948C2C40E050E0D5
:103F6000BA018CE190E00E949E2C60E070E080E25B
:103F700090E00E94AA2C40E050E0BA0188E190E075
:103F80000E949E2C80E00E94C62A0E94E42A40E003
:103F900050E0BA018FE090E00E949E2C40E050E09B
:103FA000BA0183E190E00C949E2C80913102882329
:103FB00031F0109231021092300210922F020895C7
:103FC000CF9390917F0192FD0DC09091310298178F
:103FD00049F0C82F0E94E2219093300280932F0273
:103FE000C0933102CF910895809590912E0289233C
:103FF00080932E02089590912E0280912D02892B9C
:1040000090912C02892B8093D601809131028823D4
:1040100011F10E94E22120912F0230913002821B87
:10402000930B8838934110F00E94D51F9091D601D0
:1040300080913102892B8093D601E8EDF1E097E081
:1040400080E0915029F021912223D9F38F5FF9CF9D
:1040500081110E94D51FE0913903F0913A03309706
:1040600031F00280F381E02D86ED91E0099408950E
:10407000CF93C0917F01C2FB992790F9981781F0E7
:1040800080FBC2F9C0937F0160917E0184E090E0E3
:104090000E948C2C6C2F82E290E0CF910C948C2C9F
:1040A000CF91089510922B0210922A0210922902A9
:1040B000089520912B028095822380932B02982FC4
:1040C000977041F430E0482F082E000C550B241750
:1040D000350721F490917F0192FF07C08595859562
:1040E00085950E94A6140C945220089590917F010A
:1040F00092FD10C098E0899F90011124262B2093F7
:104100002B020E94B2140E94E22190932A02809313
:10411000290208950C94B214809128028111109202
:1041200028020895809127029091E601891719F0DD
:104130008F5F8770FBCF08951F93CF93DF9380919C
:10414000E30182958F7009F05CC08091E0018823C3
:1041500009F457C0809127021091E6016091DE01B9
:104160007091DF01C091E101D091E20191E06F3FD8
:1041700009F090E0292F811709F443C0209721F01E
:104180007F3F21F030E003C031E001C0322F90E0EA
:1041900030FD34C0FC0133E0EE0FFF1F3A95E1F72C
:1041A000DF01A951BE4F11963C911197371326C0DC
:1041B0003C91361323C012963C91129731111EC0C8
:1041C00013964D915C9114974C1B5D0B483C510527
:1041D000A8F48091E3018F7080618093E301E45142
:1041E000FE4F80818F70806180838EED91E00E9410
:1041F000260BDF91CF911F910C949220019687702E
:10420000BACFDF91CF911F9108958091C001089599
:1042100024E02093E9002FEF3091E800215035FD94
:1042200006C035ED3A95F1F700002111F5CF209148
:10423000E80025FF0BC040E050E066E070E00E941F
:10424000071C8091E8008E778093E8000895CF9353
:10425000DF9321E02093E9002FEF3091E800215017
:1042600035FD06C035ED3A95F1F700002111F5CF87
:104270002091E80025FF14C0EC0140E050E068E028
:1042800070E00E94071C8091E8008E778093E80020
:1042900088E0FE01A1ECB1E001900D928A95E1F772
:1042A000DF91CF9108959091D401943029F58093B6
:1042B000420370934403609343039093E9008FEFAC
:1042C0009091E800815095FD06C095ED9A95F1F723
:1042D00000008111F5CF8091E80085FF0DC040E01E
:1042E00050E063E070E082E493E00E94071C80915C
:1042F000E8008E778093E800089581E08093E000E5
:1043000080E28093D8001092C9008FE19EE401976B
:10431000F1F700C0000087E090EBDC0180935203CE
:1043200090935303A0935403B09355039CE088E10A
:104330000FB6F894A895809360000FBE909360002C
:10434000FFCF78941F920F920FB60F9211248F9384
:104350009F93AF93BF9380913E0390913F03A091B1
:104360004003B09141030196A11DB11D80933E030E
:1043700090933F03A0934003B0934103BF91AF914B
:104380009F918F910F900FBE0F901F9018959C01D9
:104390004FB7F89480913E0390913F03A091400362
:1043A000B09141034FBF821B930B08952FB7F89430
:1043B00060913E0370913F038091400390914103CF
:1043C0002FBF08952FB7F89480913E0390913F033B
:1043D000A0914003B09141032FBF08951F920F9207
:1043E0000FB60F9211248F939F93AF93BF93809139
:1043F0003D03811113C080913E0390913F03A09132
:104400004003B09141034196A11DB11D80933E032D
:1044100090933F03A0934003B0934103BF91AF91AA
:104420009F918F910F900FBE0F901F9018959C0138
:104430002A5F3F4FFC014281461301C01282019660
:1044400082179307B9F708959C01FC0132969FEFFC
:1044500080E04191461789F09F3F19F4411101C056
:10446000982F8F5F8630A9F79F3F39F0F901E90F48
:10447000F11D97FDFA9562830895089520913B03FD
:1044800030913C032817390771F090933C038093D7
:104490003B03E0913903F0913A03309721F0008417
:1044A000F185E02D09940895209137033091380368
:1044B0002817390771F09093380380933703E09100
:1044C0003903F0913A03309721F00680F781E02D0F
:1044D00009940895E0913903F0913A03309721F05F
:1044E0000190F081E02D099480E00895BC01409195
:1044F000330380913403942F981729F1292F30E04A
:10450000F901EE0FFF1FE55DFC4F0190F081E02DFA
:10451000E617F70799F487E0869FF001879FF00D73
:104520001124ED50FD4F81E0848394130CC02F5F64
:104530003F4F237033272093330308952F5F3F4F5E
:10454000922F9370D9CF08950F931F93CF93DF933A
:1045500080919202882309F451C0C09191021CE01D
:1045600080919202C81708F045C001E00C0F00933B
:104570009102D0E01C9FF0011D9FF00D1124ED561B
:10458000FD4F9081818123813481232B31F08F3F36
:1045900031F481E09F3F19F403C081E001C080E065
:1045A00080FD26C01C9FD0011D9FB00D1124AD566B
:1045B000BD4F16968D919C911797892B31F41896C3
:1045C0008D919C911997019651F4208131814281FE
:1045D000538164817581868197810E94CC141C9FD0
:1045E000F0011D9FF00D1124ED56FD4F1482138232
:1045F000C02FB6CF1092920210929102DF91CF910C
:104600001F910F9108951092900210928F02E3EF84
:10461000F2E08581811102C014821682379683E010
:10462000EB32F807B1F70895109236031092350374
:1046300010920C0180913403809333030E94032372
:104640000C94A4223F924F925F926F927F928F922E
:104650009F92AF92BF92CF92DF92EF92FF920F9311
:104660001F93CF93DF93C091330397E0892E01E02E
:1046700010E02CE0322E3EEF932E442443948091A0
:104680003403C81709F478C0D0E0FE01EE0FFF1F15
:10469000E55DFC4F80819181889ED001899EB00D9F
:1046A0001124AD50BD4F14962C911497211161C067
:1046B00050909202E3E9F2E020E030E0712C5D01DD
:1046C000251508F054C0E284F384D501CD90DC9028
:1046D0006FEF7FEF612C462D50E0DA01AA0FBB1F70
:1046E000AC0DBD1D0D90BC91A02D109731F0EA16B8
:1046F000FB0609F4BA016394EECF6F3FBFEF7B076F
:1047000091F1D80102C0AA0FBB1F6A95E2F77A2A7D
:10471000B80102C0660F771F6A94E2F7AB014150FF
:104720005109672D70E046175707D9F4329EF00102
:10473000339EF00D1124ED56FD4F889ED001899EC9
:10474000B00D1124AD50BD4F12962D913C91139791
:1047500037832683908291829187808715964C9229
:1047600006C0148213822F5F3F4F3C96A9CF0E9450
:1047700076222196C37083CF0E94A422DF91CF912D
:104780001F910F91FF90EF90DF90CF90BF90AF906F
:104790009F908F907F906F905F904F903F900C9480
:1047A00003230F931F93CF93DF93C42FD22FFC01CA
:1047B00082818823C9F040938E020E94E221909367
:1047C0008D0280938C0280E28C0F883008F057C0F5
:1047D000C77081E001C0880FCA95EAF7DF91CF91D9
:1047E0001F910F910C946E1580918E02481330C06A
:1047F00080918C0290918D020E94C721883C910586
:1048000038F510E21D0FCD17B9F080E28C0F88301B
:1048100040F4C77081E001C0880FCA95EAF70E9492
:104820006715183028F581E09D2F977001C0880F1B
:104830009A95EAF70E946E15802F0E947C16183018
:10484000F0F4D77081E001C0880FDA95EAF70AC06A
:1048500080E28C0F883098F4C77081E001C0880F27
:10486000CA95EAF7DF91CF911F910F910C946715CC
:10487000802FDF91CF911F910F910C947C16DF91C7
:10488000CF911F910F910895CF93DF93C3E9D2E0A9
:1048900060E0CE010E948C2C2196C11584E0D807DF
:1048A000B9F7DF91CF9108950F931F93CF93DF93C3
:1048B000853068F5633058F5423048F521159CE5A0
:1048C000390731F4E0918602F0918702EF2BF9F07D
:1048D0008901282F34E0639FC00111243CE0239F0D
:1048E000800D911D1124840F911D840F911DEC01E9
:1048F000C95FDD4F612FCE010E948C2C602FCE014D
:104900000196DF91CF911F910F910C948C2CDF9128
:10491000CF911F910F9108950F931F93CF93DF9322
:10492000853018F5633008F54230F8F4282F34E06C
:10493000639FC00111243CE0239F800D911D112431
:10494000840F911D840F911DEC01C95FDD4FCE01D5
:104950000E947E2C90E0182F0027CE0101960E9425
:104960007E2C9801282BC90102C080E090E0DF91E5
:10497000CF911F910F9108950F931F93CF93DF93C2
:10498000853058F5643048F54C3038F521159CE5F4
:10499000390731F4E0918602F0918702EF2BE9F0BC
:1049A0008901C42FD0E0CC0FDD1F98E1699FC00DB5
:1049B000D11D112490E6899FC00DD11D1124612FB6
:1049C000CE0187960E948C2C602FCE018896DF91B5
:1049D000CF911F910F910C948C2CDF91CF911F914F
:1049E0000F9108954F925F926F927F928F929F9254
:1049F000AF92BF92CF92DF92EF92FF920F931F93ED
:104A0000CF93DF93CDB7DEB72A970FB6F894DEBF0A
:104A10000FBECDBF609086027090870281E090E06B
:104A200090938702809386029BE3C92E95E0D92E4E
:104A3000A12CB12C512C412CE12CF12C00E010E0E8
:104A400047018A0C9B1CF801EE0FFF1FE80DF91DB2
:104A5000E958FA4F25913491402F642D852D0E94FD
:104A6000BC240F5F1F4F0C30110569F788E1E80E79
:104A7000F11C439494E04912E1CF760110E0F70174
:104A80002591349140E0612F852D0E945424F70137
:104A900032962591349141E0612F852D0E94542456
:104AA000E4E0EE0EF11C1F5F133049F7FCE0CF0E7F
:104AB000D11C539480E6A80EB11C95E05912BBCFCF
:104AC000FE0131967F018AE011928A95E9F703E4AD
:104AD00012E04AE050E0B801C7010E94B02C065F26
:104AE0001F4F0339F2E01F07A1F77092870260920F
:104AF00086022A960FB6F894DEBF0FBECDBFDF91B7
:104B0000CF911F910F91FF90EF90DF90CF90BF90CA
:104B1000AF909F908F907F906F905F904F9008958F
:104B20000F931F93CF93DF93853008F56430F8F42B
:104B30004C30E8F4C42FD0E0CC0FDD1F28E1629F99
:104B4000C00DD11D112430E6839FC00DD11D11244D
:104B5000CE0187960E947E2C90E0182F0027CE0170
:104B600088960E947E2C9801282BC90102C080E003
:104B700090E0DF91CF911F910F910895462F2091E2
:104B80008A0230918B02232B91F47E3F39F46E3FE1
:104B900071F480918802909189020895853038F4EB
:104BA000743028F46C3018F4672F0C94902580E052
:104BB00090E00895CF92DF92EF92FF920F931F93B0
:104BC000CF93DF93CDB7DEB72A970FB6F894DEBF49
:104BD0000FBECDBF80E5E6E3F2E0DF011D928A95CE
:104BE000E9F788E3E3EFF2E0DF011D928A95E9F748
:104BF00086E3C82E82E0D82E7F0103E412E0F7019D
:104C0000D182C0824AE050E0B801CE0101960E94F4
:104C10006E2C88E0FE013196D60101900D928A95A6
:104C2000E1F789859A85D70113969C938E93129705
:104C3000BAE0CB0ED11CE7E0EE0EF11C065F1F4F71
:104C40000339F2E01F07D9F62A960FB6F894DEBFB3
:104C50000FBECDBFDF91CF911F910F91FF90EF90CD
:104C6000DF90CF900895AF92BF92CF92DF92EF92F4
:104C7000FF920F931F93CF93DF93B82EA62EC09071
:104C8000D50180913502C82AC7E0D0E0D12CE12CB3
:104C9000F12CD701C6010C2E04C0B695A7959795A7
:104CA00087950A94D2F780FF13C04A2D6B2D8C2F65
:104CB0000E948C248C018130910551F00E94952A2C
:104CC0008FE39CE90197F1F700C00000C80111C013
:104CD0002197F8F64A2D6B2D80E00E948C24EC0180
:104CE0000E94952A8FE39CE90197F1F700C000002C
:104CF000CE010E94652A81E0DF91CF911F910F9133
:104D0000FF90EF90DF90CF90BF90AF9008959C01FF
:104D10003A9521153F4130F5BC0166277270AC0110
:104D2000442754709C012227387094FF0FC090FFD5
:104D300002C080E101C080E0672B09F08062452B52
:104D400009F08064232B79F080680895892F8170A1
:104D5000672B09F08260452B09F08460232B19F042
:104D60008860089580E00895DF92EF92FF920F939C
:104D70001F93CF93DF93E82FF0E0E957F84FD490DB
:104D8000282F26952695269530E0F901E958F84F09
:104D90000491877010E0082E02C0159507950A94BB
:104DA000E2F701701127F901E959F84FE490F12C6D
:104DB000082E02C0F594E7940A94E2F791E0E92204
:104DC000FF24F901E95AF84FC491D0E002C0D5950B
:104DD000C7958A95E2F7C170DD270115110519F015
:104DE00081EE0E94D815E114F10419F086EE0E94BC
:104DF000D8158D2D0E947C16EF2819F086EE0E94A2
:104E00007815012B19F081EE0E947815CD2B51F009
:104E10008CE2DF91CF911F910F91FF90EF90DF9087
:104E20000C947C16DF91CF911F910F91FF90EF9022
:104E3000DF900895EF92FF921F93CF93DF93EC01E1
:104E40001AE08881882309F44AC0813009F043C000
:104E50008981813041F47E0182E0E80EF11C8A8173
:104E60000E947C1609C0823049F47E01E2E0EE0E19
:104E7000F11C8A810E94D815E7012FC0833041F4CC
:104E80007E01F2E0EF0EF11C8A810E947815F4CFCA
:104E9000843011F0219621C02A81229680E090E092
:104EA00030E0205331092A30310558F4189FA00111
:104EB000199F500D1124C901840F951F2196288137
:104EC000EFCF009751F0EFE9FFE03197F1F700C025
:104ED00000000197F6CF0E94B4262196B2CFDF9151
:104EE000CF911F91FF90EF9008951F93CF93DF9381
:104EF00000D000D01F92CDB7DEB7FC01868197812C
:104F0000009709F5CF0125E0DE01119601900D9281
:104F10002A95E1F7FC01228189819A81222359F0A7
:104F2000662349F00E940112182F682F89819A8107
:104F30000E94751403C00E944514182F69817A815C
:104F4000812F0E94BE250F900F900F900F900F9011
:104F5000DF91CF911F9108952F923F924F925F92D0
:104F60006F927F928F929F92AF92BF92CF92DF9279
:104F7000EF92FF920F931F93CF93DF93CDB7DEB7DE
:104F80006A970FB6F894DEBF0FBECDBF498B5A8B20
:104F90006B8B7C8B8D8B611110922D028E01075FC4
:104FA0001F4F88E0F80111928A95E9F785E0FE012C
:104FB0007196D80101900D928A95E1F70E94E22145
:104FC0002091290230912A02821B930B8838934149
:104FD00040F080912B0282FB992790F981E089278C
:104FE00001C080E080FF03C082E00E9459200E943F
:104FF000E22120912F0230913002821B930B8838DE
:10500000934110F00E94D51F99858A852C853D8596
:10501000232B31F08F3F31F481E09F3F19F403C01F
:1050200081E001C080E080FDCAC161E0C8010E944A
:1050300075276C0187EFC8168CE5D80639F48B8587
:105040008823B9F081E080930C01B9C198EFC916AB
:105050009CE5D90631F48B85882359F00E941423EE
:10506000AEC1E9EFCE16ECE5DE0619F48B858111B1
:1050700011C003EF12E0712CA12CB12C8824839471
:10508000912C55245394CE0101969F8B8E8BF7E083
:105090004F2E49C080910C018823A1F2DFCFC616A4
:1050A000D70609F097019F5F7901292F30E0F901B8
:1050B000EE0FFF1FE40FF51F60817181611571050F
:1050C00071F7FFEFEF16FF0609F42DC1F8016481B7
:1050D000611131C020910C01822F81706B84F80125
:1050E00035812681662009F4C6C0882309F4C3C02F
:1050F000332321F1940102C0220F331F9A95E2F766
:1051000021503109F801868190E02817390759F1BB
:105110007628FFEFAF1ABF0A095F1F4F28E0A216DB
:10512000B10409F402C1F80140815181EE24EA94EE
:10513000FE2C90E0BACF20E030E0CECFA40101C039
:10514000440FEA94EAF7242B268320918F023091B2
:1051500090022233310570F622E330E03093900262
:1051600020938F02C7CF809135039091360300972B
:1051700029F00E94C721C39708F01EC18091330314
:10518000F0913403F88FE0E0F0E0288D821709F405
:1051900060C0282F30E0F901EE0FFF1FE55DFC4FE6
:1051A00020803180429CF001439CF00D1124ED5091
:1051B000FD4FF080E18050E090E040E0EF2DFE2DCB
:1051C000E40FF11DE40FF11DA081B1811097D1F022
:1051D000F801F081F98FF801F181FA8F90E0E98D03
:1051E000FA8DE90FF11DE90FF11D608171816115E3
:1051F000710531F0A617B70709F451E09F5FEFCFB3
:105200004F5FDCCF5523F9F09417C8F0429CF001B2
:10521000439CF00D1124ED50FD4F3097B1F05482B6
:105220000E171F0709F474CF9091330389130DC033
:10523000C9010196837099278093330306C0011535
:10524000110509F0B9C0E0E0F0E0C90101968370F2
:105250009CCF0E171F0709F45BCF90E0FC01EE0F07
:10526000FF1FE55DFC4FB182A082019683709927F4
:10527000809334034DCF311112C0A40102C0440FFA
:10528000551F9A95E2F74150510930E042175307F4
:10529000E9F56623E1F1C5010E94762237C0822F2D
:1052A00090E09C0121503109282339230E2C02C0A3
:1052B000959587950A94E2F7232B31F580FF24C05A
:1052C000F80182819381892BD9F088E0EE89FF89EA
:1052D00011928A95E9F78EEF89838A830E94E221F1
:1052E0008160582F9D838C83F801828193818F8305
:1052F000988729813A814B816D817E810E94CC14EF
:10530000F801158281E003C0817001C080E0940142
:1053100001C0220FEA94EAF72095F801968129232B
:105320002683682EF5CE612CF3CE8B85882381F100
:10533000772071F10E94E221909336038093350328
:1053400080919202883008F044C091E0980F9093C9
:10535000920298E0FE013996DE01119601900D92BD
:105360009A95E1F7ECE08E9FC00111248D569D4F78
:1053700028E0FE013196DC0101900D922A95E1F7BB
:105380002FEF3FEFFC0131872087D386C28621C0F3
:105390009091330380913403981719F00E942223CF
:1053A00008C00E94A42210923603109235030E9476
:1053B0000323772021F00DC0F8015482A9CE29855E
:1053C0003A854B855C856D857E858F8598890E94A1
:1053D000CC146A960FB6F894DEBF0FBECDBFDF9136
:1053E000CF911F910F91FF90EF90DF90CF90BF90E2
:1053F000AF909F908F907F906F905F904F903F9075
:105400002F900895CF93DF93EC010E947815CE0181
:10541000805E9109089710F0209739F4CE010E9420
:105420008726DF91CF910C946715CE010E948726C5
:10543000DF91CF910C945215CF93DF93EC01805EF6
:105440009109089710F0209731F4CE010E94872629
:105450000E946E1505C0CE010E9487260E945D1530
:105460008C2FDF91CF910C94D815CF93DF93C091FF
:10547000A801D091A901CE0195558F3F910509F062
:1054800048F48C2FC4FF02C08295807FDF91CF91BA
:105490000C94E01FCE010E941C2A8FE798E321E0C4
:1054A000815090402040E1F700C00000CE01DF9124
:1054B000CF910C94022A1092A7010E946A2281FFC8
:1054C00003C089E30C947C160895CF93DF9300D03A
:1054D00000D01F92CDB7DEB79093890280938802E7
:1054E000811520E2920748F40F900F900F900F90D3
:1054F0000F90DF91CF910C94022A8EEF89838A83DB
:105500001B820E94E2218160782F9D838C834981D8
:105510005A816B818D810E94AC270F900F900F9064
:105520000F900F90DF91CF910895CF93DF9300D02C
:1055300000D01F92CDB7DEB7909389028093880286
:10554000811520E2920748F40F900F900F900F9072
:105550000F90DF91CF910C941C2A8EEF89838A8360
:1055600081E08B830E94E2218160782F9D838C8370
:1055700049815A816B818D810E94AC270F900F90D9
:105580000F900F900F90DF91CF910895CF93C82F78
:10559000811102C06FEF01C062E783E290E00E94D8
:1055A0008C2CC11102C06FEF01C06FE584E290E066
:1055B0000E948C2CC11102C06FEF01C06AEB85E222
:1055C00090E0CF910C948C2C80E00E94C62A60E081
:1055D00086E290E00E948C2C0E94F2240E944424D7
:1055E00081E00C94C62A83E290E00E947E2C8237F0
:1055F00081F484E290E00E947E2C8F3551F485E2A4
:1056000090E00E947E2C91E08A3B09F090E0892F87
:1056100001C080E0817008950E94E22120914E0334
:10562000211104C020914F03222321F090934B03BA
:1056300080934A0320915003211104C0209151030B
:10564000222321F09093490380934803E09139038A
:10565000F0913A03309749F082E080934C03048044
:10566000F581E02D8CE493E009940895803F39F4AE
:1056700080914F0387FF6AC010924F0367C0813F3C
:1056800029F480914F031816BCF360C090914E032B
:10569000823F29F497FF5AC010924E0357C0833FB0
:1056A00019F41916CCF352C090915003893F31F48C
:1056B00019160CF04BC01092500348C08A3F19F4E1
:1056C00097FF44C0F8CF8B3F39F48091510387FF97
:1056D0003DC0109251033AC08C3F29F48091510390
:1056E0001816BCF333C0843F21F480914D038E7FA4
:1056F00017C0853F21F480914D038D7F11C0863FF7
:1057000021F480914D038B7F0BC0873F21F4809162
:105710004D03877F05C0883F31F480914D038F7E14
:1057200080934D0313C08D3F21F4809147038E7FFA
:105730000BC08E3F21F4809147038D7F05C08F3FC2
:1057400029F4809147038B7F8093470380914E0318
:10575000811106C080914F03811102C0109246034F
:1057600080915003811106C080915103811102C0C4
:105770001092450308958091470380FD16C081FD76
:1057800016C082FD18C080914503882391F08832AD
:1057900090F428E0829FC001112468E270E00E942A
:1057A000C82C862F672B29F007C082E0089584E07B
:1057B000089581E0089588E008958091470380FD71
:1057C00014C081FD14C082FD16C080914603882359
:1057D00081F0843180F422E3829FC001112464E1CE
:1057E00070E00E94C82C862F08958CE0089589E10E
:1057F000089585E0089582E30895803F21F40E9492
:10580000DD2B819504C0813F29F40E94DD2B80931C
:105810004F030895823F21F40E94DD2B819504C03F
:10582000833F29F40E94DD2B80934E030895893F26
:1058300019F40E94BB2B05C08A3F31F40E94BB2B98
:1058400081958093500308958B3F21F40E94BB2BD8
:10585000819504C08C3F29F40E94BB2B8093510397
:105860000895843F21F480914D03816017C0853FE6
:1058700021F480914D03826011C0863F21F4809114
:105880004D0384600BC0873F21F480914D038860F5
:1058900005C0883F31F480914D03806180934D03B2
:1058A00008958D3F21F48091470381600BC08E3FA6
:1058B00021F480914703826005C08F3F29F48091D5
:1058C00047038460809347030895FB01DC0102C015
:1058D00005900D9241505040D8F70895DC01CB015E
:1058E000FC01F999FECF06C0F2BDE1BDF89A3196F0
:1058F00000B40D9241505040B8F70895F999FECF89
:1059000092BD81BDF89A992780B50895A8E1B0E0CD
:1059100042E050E00C94702C262FF999FECF92BDF6
:1059200081BDF89A019700B4021639F01FBA20BD64
:105930000FB6F894FA9AF99A0FBE08950396272F96
:105940000E948D2C0E948C2C252F0E948D2C242FA0
:105950000C948D2C0196272F0E948D2C0C948C2C4E
:10596000DC01CB0103C02D910E94BB2C4150504063
:10597000D0F70895262FF999FECF1FBA92BD81BDA9
:1059800020BD0FB6F894FA9AF99A0FBE01960895C1
:1059900097FB072E16F4009407D077FD09D00E94DC
:1059A000E92C07FC05D03EF4909581959F4F089512
:1059B000709561957F4F0895EE0FFF1F0590F4914C
:1059C000E02D099469279627692778278727782764
:1059D0000895AA1BBB1B51E107C0AA1FBB1FA61736
:1059E000B70710F0A61BB70B881F991F5A95A9F788
:1059F00080959095BC01CD010895FB01DC0104C0A8
:105A00008D910190801921F441505040C8F7881BB6
:105A1000990B0895DC0101C06D9341505040E0F7AF
:065A20000895F894FFCF89
:105A26000521272108214E174A17FF0101DCB5E49D
:105A3600A0966288C230316636F4F6F5F7F1333255
:105A4600929395353700FF0100010000FFFF00002B
:105A5600010001FF003496909794914022812A0418
:105A6600080487037C049504B504818283E200E977
:105A760000EA00B500B600B700CD008301CC008A6D
:105A86000192019401210223022402250226022703
:0C5A9600022A02B300B4006F0070000090
:00000001FF
